S00F0000504E4557454C532E73726563F7
S113000092C1000034C700005FC700008AC7000027
S1130010B5C70000E0C700000C9418080C9445080C
S11300200C9472080C949F080C94CC089CC100009A
S11300309AC1000098C1000096C100000C941136CA
S113004092C1000090C100008EC100008CC100006C
S11300508AC1000088C1000086C100000C94E33509
S113006082C1000080C100007EC100007CC100008C
S11300707AC1000078C1000076C1000074C100009C
S113008072C1000070C100006EC100006CC10000AC
S113009082C6000068C1000066C10000D6C300002B
S11300A062C1000060C100000C94D30B5CC100006D
S11300B05AC1000058C1000056C1000054C10000DC
S11300C052C1000050C100004EC100004CC10000EC
S11300D04AC1000048C1000046C1000044C10000FC
S11300E042C1000040C100003EC100003CC100000C
S11300F03AC1000038C1000036C1000034C100001C
S113010032C1000030C100002EC100002CC100002B
S11301102AC1000028C1000026C1000024C100003B
S113012022C1000020C100001EC100001CC100004B
S11301301AC10000D004CC05CC05CC05CC05CC05F7
S1130140CC05CC054704CC05CC05CC05CC05CC05A9
S1130150CC05CC054704CC05CC05CC05CC05CC0599
S1130160CC05CC056C04CC05CC05CC05CC05CC0564
S1130170CC05CC05D004CC05CC05CC05CC05CC05F0
S1130180CC05CC056C04CC05CC05CC05CC05CC0544
S1130190CC05CC05D004CC05CC05CC05CC05CC05D0
S11301A0CC05CC055D05CC05CC05CC05CC05CC0532
S11301B0CC05CC05D504CC05CC05CC05CC05CC05AB
S11301C0CC05CC05D004CC05CC05CC05CC05CC05A0
S11301D0CC05CC05FE04CC05CC05CC05CC05CC0562
S11301E0CC05CC053605CC05CC05CC05CC05CC0519
S11301F0CC05CC059105CC05CC05CC05CC05CC05AE
S1130200CC05CC059105CC05CC05CC05CC05CC059D
S1130210CC05CC059105CC05CC05CC05CC05CC058D
S1130220CC05CC059105CC05CC05CC05CC05CC057D
S1130230CC05CC059B05CC05CC05CC05CC05CC0563
S1130240CC05CC05C005CC05CC05CC05CC05CC052E
S1130250CC05CC059B05CC05CC05CC05CC05CC0543
S1130260CC05CC05C005CC05CC05CC05CC05CC050E
S1130270CC05CC05B405CC05CC05CC05CC05CC050A
S1130280CC05CC056605CC05CC05CC05CC05CC0548
S1130290CC05CC056605CC05CC05CC05CC05CC0538
S11302A0CC05CC056A05CC05CC05CC05CC05CC0524
S11302B0CC05CC058505CC05CC05CC05CC05CC05F9
S11302C0CC05CC05C0059B26862688268A268C2646
S11302D08E26902692269426EA27BC285629F029B1
S11302E08A2A242BBE2B582C022DCF2DE52EF82E36
S11302F0062F162F262F3A2F582F472F89308C3050
S1130300AF308E30B230B430B630B83090300533C0
S11303100E33223318332C33363340334A335433B9
S1130320683372335E3311241FBECFEFD1E8DEBFD2
S1130330CDBF00E00CBF19E0A0E0B2E0E6EBF9E9C4
S113034000E00BBF02C007900D92AA35B107D9F7A0
S113035022E2AAE5B9E001C01D92A43FB207E1F789
S11303605BD50C94D94C4CCEF999FECF92BD81BD8E
S1130370F89A80B50895EF92FF920F931F93CF934D
S1130380DF934115510579F08B01040F151FEB0123
S11303907C01E61AF70AC7018C0F9D1FE5DF8993DC
S11303A0C017D107C1F7DF91CF911F910F91FF9033
S11303B0EF900895EF92FF920F931F93CF93DF93E3
S11303C0CDB7DEB761970FB6F894DEBF0FBECDBFD1
S11303D04AE250E062E670E280E090E0CCDF809197
S11303E0882090918920A0918A20B0918B2081341B
S11303F09C46A546B84709F47BC081E1E7E1F2E0F9
S1130400DE01119601900D928A95E1F70F2EFAEB19
S1130410EF2EFFE1FF2EF02DF701638D748D8CEF2D
S11304209FE00E94871F02E610E2F8019183808317
S1130430F701658D768D80E090E10E94871FF801B9
S113044095838483F701618D728D8EEF9FE00E9406
S1130450871FF8019383828340E250E060E270E0FA
S113046088E690E20E94B64C8BE0EBE0F2E0A8E66E
S1130470B0E201900D928A95E1F7F80180819181B3
S1130480FC01EF2FFF27E295EF7021E030E02C0F05
S11304903D1FE20FF31F2081F8012587E92FFF2775
S11304A0EF70FF2721E030E02C0F3D1FE20FF31F18
S11304B02081F8012687FC01F295E295EF70EF2781
S11304C0FF70EF27EF70FF2721E030E02C0F3D1F76
S11304D0E20FF31F2081F80127878F709927E1E04D
S11304E0F0E0EC0FFD1FE80FF91F8081F801808B0D
S11304F061960FB6F894DEBF0FBECDBFDF91CF91EA
S11305001F910F91FF90EF900895CF93DF934AE2EC
S113051050E062E670E280E090E02DDF8091882078
S113052090918920A0918A20B0918B2081349C469F
S1130530A546B84711F1C2E6D0E28FEF9FEF998349
S113054088839D838C838FE090E09B838A8340E241
S113055050E060E270E088E690E20E94B64C8BE0E6
S1130560EBE0F2E0A8E6B0E201900D928A95E1F7A3
S113057086E68D878E878F87888B4ED0DF91CF91CB
S1130580089529E08C35920769F04DED59E0BC01DE
S113059021E04617570739F02F5F4F575F4F24313B
S11305A0C1F701C020E0FC01378531110EC030E0F5
S11305B0F901F695FE2FEE27F795E7952E0F3F1FCD
S11305C0F901E65AF64F1082089530E0F901F695E4
S11305D0FE2FEE27F795E795E20FF31FE65AF64F45
S11305E0418141504183442319F00C943B0C0895FC
S11305F0F901F695FE2FEE27F795E7952E0F3F1F8D
S1130600F901E65AF64F10820895FC01618587814D
S113061090850C944B1B0895CF93DF93C2E6D0E2F0
S1130620888199810E94FA0B8C819D810E94000C23
S11306308A810E94441281E00E94401265E073E0C6
S113064081E00E94060CAAE5B9E0E5E6F9E069E775
S113065073E181E041EC52E01C9218961C921E92C8
S11306601797EF01229788832196888380839F01BF
S1130670285F3F4F3283218355834483AF57BF4F55
S1130680EF57FF4FE617F70739F70E94EA19DF9192
S1130690CF91089580915A09882359F0EBEDF9E040
S11306A06EE673E181E090E0AC012081211118C075
S11306B002C040E050E0FA01F695FE2FEE27F795D0
S11306C0E7954E0F5F1FFA01E65AF64F81E08083EB
S11306D0DF01A058BF4F1C9281838E2F9F2F089556
S11306E00196EF57FF4FE617F707F1F680E090E029
S11306F00895FC01E058FF4F2081222331F0FC01D2
S1130700268702960C943B0C0895FC0110820895F0
S1130710CF93DF9370E09C01260F371FF9013297C6
S1130720C081D0E0DC2FCC2731962081C22B6250CF
S1130730710926E030E048E252E00E94A64B21E035
S1130740C817D90709F020E0822FDF91CF910895CF
S113075081E080937D1310926F1380E98093BC0035
S113076008956115710529F180916F13811123C0DA
S1130770E7E7F3E1718360831382128215821482A6
S113078081E080936F13FB0184819581892B21F48F
S113079084E080937D1303C082E080937D1385EA17
S11307A08093BC0080916F138111FCCF80917E13E4
S11307B0089588EF089580E80895709378136093FE
S11307C077136115710541F1FB0180859185892BB2
S11307D029F180916F13811123C0E7E7F3E11382BC
S11307E012821582148281E080936F13FB0184814D
S11307F09581892B21F485E080937D1303C083E0E8
S113080080937D1385EA8093BC0080916F138111DE
S1130810FCCF80917E13089588EF089588EF0895A2
S113082080E80895F894ECEBF0E010821092B9009F
S1130830DB0114968C918093B80080818160808361
S1130840789410926E1380E008951F920F920FB661
S11308500F9211240BB60F922F933F934F935F93F4
S11308606F937F938F939F93AF93BF93EF93FF9374
S11308708091B900887F90E0893C910508F08CC193
S1130880FC018827E656FF4F8F4F0C940A4C809149
S11308907D139EEF980F933060F4E0917713F091FD
S11308A0781380818E7F8093BB0085E88093BC00A1
S11308B08BC1853061F4E0917713F09178138081D6
S11308C081608093BB0085E88093BC007DC140DFDC
S11308D08BEF80937E1378C180917D13843051F522
S11308E0E7E7F3E1848195810190F081E02D208593
S11308F031858217930798F426813781AC014F5FC5
S11309005F4F50937C1340937B13F901E80FF91F59
S113091080818093BB0085E88093BC0055C184E945
S11309208093BC00E7E7F3E181E0868317821092AD
S11309306F134AC19EEF980F923038F5E7E7F3E161
S113094082819381A081B181A80FB91F11962C9146
S11309500196938382832093BB0025E82093BC00F7
S11309600190F081E02D248135812817390709F0A1
S11309702BC180917D13823021F484E080937D1318
S113098023C185E080937D131FC1853021F485EA5E
S11309908093BC0019C1DCDE8BEF80937E1314C1FD
S11309A0D7DE8FEF80937E130FC180917D13853046
S11309B001F5E7E7F3E1A081B18118968D919C914F
S11309C019970197248135812817390749F4ECEBED
S11309D0F0E080818F7B8083808185688083F4C090
S11309E0ECEBF0E080818064808380818568808383
S11309F0EBC0AEDE8BEF80937E13E6C02091BB008C
S1130A0080917D13853069F5E7E7F3E1A081B18139
S1130A1016966D917C91179784819581AC014F5FF7
S1130A205F4F55834483FB01E80FF91F2083189619
S1130A308D919C91199701974817590748F4ECEB4D
S1130A40F0E0808180648083808185688083BCC07D
S1130A50ECEBF0E080818F7B8083808185688083EC
S1130A60B3C076DE8BEF80937E13AEC02091BB00C3
S1130A7080917D138530E1F4E7E7F3E1A081B18152
S1130A8016964D915C91179784819581BC016F5F97
S1130A907F4F75836483DA01A80FB91F2C9384E90F
S1130AA08093BC0081E08683178210926F138CC000
S1130AB04FDE8BEF80937E1387C0E7E7F3E181E09D
S1130AC0868386EF878310926F137EC01092731310
S1130AD010927213E0E7F3E1A081B18112962D9197
S1130AE03C91139782819381AC014F5F5F4F538395
S1130AF04283D901A80FB91F8C918093BB0085EC68
S1130B008093BC0088E084835FC0E0E7F3E181E088
S1130B10848382E090E09683858385EC8093BC0097
S1130B2053C0E0E7F3E11382128285EC8093BC00AA
S1130B3088E0848349C02091BB00E0E7F3E1A08111
S1130B40B1814D915C9182819381BC016F5F7F4F34
S1130B5073836283DA01A80FB91F2C9385EC809309
S1130B60BC0088E0848330C0E0E7F3E181E0848363
S1130B7083E090E09683858385EC8093BC0024C059
S1130B80E0E7F3E181E0848380E98093BC008FEFA8
S1130B909FEF9683858318C080916E13811109C0DD
S1130BA0E7E7F3E181E086838BEF878310926F138D
S1130BB00BC0E0E7F3E18EEF9FEF9683858381E03E
S1130BC0848385EC8093BC00FF91EF91BF91AF913A
S1130BD09F918F917F916F915F914F913F912F9151
S1130BE00F900BBE0F900FBE0F901F9018950F9390
S1130BF01F93CF93DF938C01D62FCAE00AC081E004
S1130C0090E00E94A31FC15021F482E00E94B535F8
S1130C1004C0F801908195FFF2CFF801D68380E0FB
S1130C20DF91CF911F910F9108958F929F92AF9270
S1130C30BF92CF92DF92EF92FF920F931F93CF93C5
S1130C40DF93EC016A017B01B901A801689412F8F1
S1130C5076956795579547951694D1F7D901C801AC
S1130C60072E73E1B695A795979587957A95D1F751
S1130C70702DE881E1FF0BC04A015B01B694A79493
S1130C8097948794B695A7959795879502C04A013E
S1130C905B018C149D04AE04BF0478F1C816D90618
S1130CA0EA06FB0660F1888181FF10C0CC0CDD1CD4
S1130CB0EE1CFF1CCB01BA01A70196010E94E84B70
S1130CC0DA01C9010197A109B10913C0C901B80129
S1130CD0689413F896958795779567951694D1F748
S1130CE0A70196010E94E84BDA01C9010197A10905
S1130CF0B1099D838C8381E003C080E001C080E062
S1130D00DF91CF911F910F91FF90EF90DF90CF90E3
S1130D10BF90AF909F908F9008950F931F93CF93A0
S1130D20DF93EC01FB018A818F738A8326813581ED
S1130D3084819A81482F4370440F997F942B9A831E
S1130D4099818470880F880F9B7F892B89838A817E
S1130D508F7C832B8A838A81922F990F990F990F05
S1130D60877F892B8A83408151816281738100E06E
S1130D7012E12AE730E0CE0158DF99819860998327
S1130D80998190619983998190689983DF91CF913A
S1130D901F910F9108951F920F920FB60F92112475
S1130DA00BB60F922F933F934F935F936F937F9361
S1130DB08F939F93AF93BF93EF93FF938091CE0054
S1130DC00E941D26FF91EF91BF91AF919F918F914A
S1130DD07F916F915F914F913F912F910F900BBE37
S1130DE00F900FBE0F901F9018958091E21F8130D5
S1130DF021F4809349208093E31F0895F894A895E3
S1130E0099E288E10FB6F894A895809360000FBE2C
S1130E1090936000789408950E945E130E94421F8C
S1130E20C9DAFADBEFE7F3E180E197E2A0E0B0E0B2
S1130E3086839783A087B18781E0828785EF96E0D8
S1130E4094878387CF010E9429140E946B150E9406
S1130E50611E8091B62090E00E94201FCFDF86E0C3
S1130E6080934D010E9465130E94471BFBCF1F9284
S1130E700F920FB60F9211240BB60F922F933F933C
S1130E804F935F936F937F938F939F93AF93BF938E
S1130E90EF93FF93E0919E13F0919F13309709F025
S1130EA01995FF91EF91BF91AF919F918F917F9190
S1130EB06F915F914F913F912F910F900BBE0F90C7
S1130EC00FBE0F901F9018951F920F920FB60F929E
S1130ED011240BB60F922F933F934F935F936F930D
S1130EE07F938F939F93AF93BF93EF93FF93E0917F
S1130EF09C13F0919D13309709F01995FF91EF9190
S1130F00BF91AF919F918F917F916F915F914F911D
S1130F103F912F910F900BBE0F900FBE0F901F901B
S1130F2018951F920F920FB60F9211240BB60F92C1
S1130F302F933F934F935F936F937F938F939F93DD
S1130F40AF93BF93EF93FF93E0919A13F0919B13A8
S1130F50309709F01995FF91EF91BF91AF919F914F
S1130F608F917F916F915F914F913F912F910F904E
S1130F700BBE0F900FBE0F901F9018951F920F92EB
S1130F800FB60F9211240BB60F922F933F934F93EA
S1130F905F936F937F938F939F93AF93BF93EF93DD
S1130FA0FF93E0919813F0919913309709F01995F4
S1130FB0FF91EF91BF91AF919F918F917F916F912D
S1130FC05F914F913F912F910F900BBE0F900FBEE9
S1130FD00F901F9018951F920F920FB60F92112425
S1130FE00BB60F922F933F934F935F936F937F931F
S1130FF08F939F93AF93BF93EF93FF93E0919613D7
S1131000F0919713309709F01995FF91EF91BF91E3
S1131010AF919F918F917F916F915F914F913F918C
S11310202F910F900BBE0F900FBE0F901F9018952D
S11310301F920F920FB60F9211240BB60F922F939B
S11310403F934F935F936F937F938F939F93AF934C
S1131050BF93EF93FF93E0919413F091951330971E
S113106009F01995FF91EF91BF91AF919F918F91E5
S11310707F916F915F914F913F912F910F900BBE94
S11310800F900FBE0F901F9018951F920F920FB6DE
S11310900F9211240BB60F922F933F934F935F93AC
S11310A06F937F938F939F93AF93BF93EF93FF932C
S11310B0E0919213F0919313309709F01995FF91F1
S11310C0EF91BF91AF919F918F917F916F915F91BC
S11310D04F913F912F910F900BBE0F900FBE0F9029
S11310E01F9018951F920F920FB60F9211240BB6F2
S11310F00F922F933F934F935F936F937F938F93AD
S11311009F93AF93BF93EF93FF93E0919013F0916C
S11311109113309709F01995FF91EF91BF91AF9119
S11311209F918F917F916F915F914F913F912F91FB
S11311300F900BBE0F900FBE0F901F9018951F922B
S11311400F920FB60F9211240BB60F922F933F9369
S11311504F935F936F937F938F939F93AF93BF93BB
S1131160EF93FF93E0918E13F0918F13309709F072
S11311701995FF91EF91BF91AF919F918F917F91BD
S11311806F915F914F913F912F910F900BBE0F90F4
S11311900FBE0F901F9018951F920F920FB60F92CB
S11311A011240BB60F922F933F934F935F936F933A
S11311B07F938F939F93AF93BF93EF93FF93E091AC
S11311C08C13F0918D13309709F01995FF91EF91DD
S11311D0BF91AF919F918F917F916F915F914F914B
S11311E03F912F910F900BBE0F900FBE0F901F9049
S11311F01895803111F4D99A0895D89A08958031B8
S113120059F4E8E6F0E0808182608083ECE6F0E067
S11312108081816080830895E8E6F0E080818160C8
S11312208083EBE6F0E0208181E090E002C0880F4B
S1131230991F7A95E2F7822B80830895803131F4E7
S1131240ECE6F0E080818E7F80830895EBE6F0E0A9
S1131250208181E090E002C0880F991F7A95E2F71F
S11312608095822380830895CF92DF92EF926B0161
S1131270E82EE4DF8E2DB60126D18E2DB601C5D120
S11312808E2DB601B6DF8E2DB601B9DFEF90DF905B
S1131290CF900895982F811105C050939F134093C8
S11312A09E130895813029F450939D1340939C1309
S11312B00895823029F450939B1340939A13089510
S11312C0833029F4509399134093981308958430EC
S11312D029F450939713409396130895853029F475
S11312E050939513409394130895863029F45093A2
S11312F09313409392130895873029F450939113D4
S11313004093901308958850883028F450938F1395
S113131040938E130895903121F450938D1340938C
S11313208C130895623009F128F4662341F061308A
S113133089F00895633021F1643069F1089525B18D
S113134081E090E002C0880F991F7A95E2F7822B22
S113135085B908952BB181E090E002C0880F991FF0
S11313607A95E2F7822B8BB908952EB181E090E053
S113137002C0880F991F7A95E2F7822B8EB90895DF
S113138021B381E090E002C0880F991F7A95E2F7BB
S1131390822B81BB089524B381E090E002C0880FC2
S11313A0991F7A95E2F7822B84BB0895623019F174
S11313B028F4662341F0613091F00895633039F1E7
S11313C0643089F1089525B181E090E002C0880F6E
S11313D0991F7A95E2F78095822385B908952BB1F8
S11313E081E090E002C0880F991F7A95E2F780951A
S11313F082238BB908952EB181E090E002C0880F5A
S1131400991F7A95E2F7809582238EB9089521B3C6
S113141081E090E002C0880F991F7A95E2F78095E9
S1131420822381BB089524B381E090E002C0880F39
S1131430991F7A95E2F78095822384BB08956230E0
S113144009F128F4662341F0613089F0089563308E
S113145021F1643069F1089525B181E090E002C082
S1131460880F991F7A95E2F7822785B908952BB1E1
S113147081E090E002C0880F991F7A95E2F78227F5
S11314808BB908952EB181E090E002C0880F991FB6
S11314907A95E2F782278EB9089521B381E090E02E
S11314A002C0880F991F7A95E2F7822781BB0895BD
S11314B024B381E090E002C0880F991F7A95E2F787
S11314C0822784BB0895623061F128F4662349F0D1
S11314D06130B9F008956330A1F1643009F441C07A
S11314E0089524B181E090E002C0880F991F7A9595
S11314F0E2F78095982F922394B995B1892385B901
S113150008952AB181E090E002C0880F991F7A956E
S1131510E2F78095982F92239AB99BB189238BB9CE
S113152008952DB181E090E002C0880F991F7A954B
S1131530E2F78095982F92239DB99EB189238EB9A5
S1131540089520B381E090E002C0880F991F7A9536
S1131550E2F78095982F922390BB91B3892381BBA6
S1131560089523B381E090E002C0880F991F7A9513
S1131570E2F78095982F922393BB94B3892384BB7D
S11315800895623009F128F4662341F0613089F04E
S11315900895633021F1643069F1089524B181E044
S11315A090E002C0880F991F7A95E2F7822B84B9E4
S11315B008952AB181E090E002C0880F991F7A95BE
S11315C0E2F7822B8AB908952DB181E090E002C040
S11315D0880F991F7A95E2F7822B8DB9089520B36D
S11315E081E090E002C0880F991F7A95E2F7822B80
S11315F080BB089523B381E090E002C0880F991F57
S11316007A95E2F7822B83BB0895623009F128F4BE
S1131610662341F0613089F00895633021F164302C
S113162069F1089525B181E090E002C0880F991F07
S11316307A95E2F7822B85B908952BB181E090E089
S113164002C0880F991F7A95E2F7822B8BB908950F
S11316502EB181E090E002C0880F991F7A95E2F7DD
S1131660822B8EB9089521B381E090E002C0880FE7
S1131670991F7A95E2F7822B81BB089524B381E008
S113168090E002C0880F991F7A95E2F7822B84BB01
S113169008956230E9F028F4662341F0613079F06E
S11316A032C06330F1F0643029F12DC083B190E091
S11316B002C0959587957A95E2F78170089589B16E
S11316C090E002C0959587957A95E2F78170089528
S11316D08CB190E002C0959587957A95E2F7817078
S11316E008958FB190E002C0959587957A95E2F7B9
S11316F08170089582B390E002C0959587957A959C
S1131700E2F78170089580E0089514BE0FB6F8944E
S1131710A8958091600088618093600010926000B9
S11317200FBEE1E6F0E080E880831082789404C084
S1131730089590E016C008951092C42080E197E2C5
S11317409093A9008093A800E1EAF0E088E0808308
S1131750808182608083E2E7F0E080818260808320
S113176008952091A4003091A500820F931FEAEA06
S1131770F0E091838083208131818091A800909151
S1131780A9008217930750F42091A8003091A90072
S113179080819181821B930B9183808384E089BB38
S11317A0CA9BFECF08951F920F920FB60F92112479
S11317B08F938091C4208F5F8093C4208F910F906A
S11317C00FBE0F901F901895E5ECF0E2148215827D
S11317D01182108217A216A2EBECF0E28BEE90E2DB
S11317E011921192E817F907D9F777D4B8D10AD131
S11317F03DC008959093C6208093C5205BC608958C
S11318009093C8208093C72043C60895E82FF0E042
S1131810EE0FFF1FE553FF4D718360830895E7D1F9
S11318205AD54DC00895E091A013F091A1133097BB
S1131830D9F0228133812817390789F405C0228120
S113184033812817390759F4DC01AD57BF4F2C9168
S1131850278713962C91208B22E0248305C00190C6
S1131860F081E02D309759F711C108951092A1131A
S11318701092A0130895FC01148217861382128219
S1131880A5ECB0E296968D919C91979701969796C8
S11318909C938E9396978091A0139091A113009797
S11318A039F411821082F093A113E093A0130895E8
S11318B091838083F093A113E093A01308950F9371
S11318C01F93CF93DF93E091A013F091A11330976E
S11318D009F493C0EF018C81882321F0823009F44C
S11318E066C085C09AD08C01009721F482E08C8375
S11318F08F8783C09B838A8381E08C83F801E957B7
S1131900FF4F83E19CE0918380833197898582FB3B
S1131910882780F980839985D8011B968C911B9721
S113192090FB80F91B968C931B97998593FB9927C1
S113193090F990FB82F91B968C931B97E5ECF0E2EF
S113194084818F5F84831C968C931C978081918102
S11319501E969C938E931D978D819E8150969C9389
S11319608E931F978885982F9F7051968C915197CD
S1131970807F892B51968C9351979F819295907F6C
S11319808F70892B51968C93F801EF57FF4F4C853C
S113199050E06A857B85808191810E94AD4CF8017D
S11319A091818C85890F8183C801BAD326C0CE1753
S11319B0DF0741F4888199819093A1138093A01348
S11319C00AC0FC0180819181C817D907D1F78881A9
S11319D0998191838083E5ECF0E286A197A1019738
S11319E097A386A3ED85FE85CE01199506C00990BF
S11319F0D881C02D209709F06ECFDF91CF911F9130
S1131A000F910895E2EAF3E186E59EE11082E7573B
S1131A10FF4FE817F907D1F708958091A21388239F
S1131A2059F0EBE2F4E146E55EE181E090E0BC01CF
S1131A302081211122C002C060E070E049E8469F85
S1131A409001479F300D1124C9018E559C4EFC0115
S1131A5011924A95E9F740E1FC014183EF57FF4FAA
S1131A602C543C4E31832083E5ECF0E226A137A1CF
S1131A702F5F3F4F37A326A308950196E757FF4FE3
S1131A80E417F507A1F680E090E00895FC011082C8
S1131A90E5ECF0E286A197A1019797A386A30895A8
S1131AA0009741F0FC01E757FF4F8EE1E635F80758
S1131AB018F015C0E2EAF3E18081882339F003C00D
S1131AC08081882319F08E2F9F2F0895E757FF4FA9
S1131AD08EE1E635F807A0F380E090E0089580E019
S1131AE090E00895FC01DC01AD57BF4F1C92A5ECBA
S1131AF0B0E214969C9114979F5F14969C9314974C
S1131B0094878D919C91968785870895DC01199619
S1131B102C911997222349F01796ED91FC9118976F
S1131B202081211104C090C3089580E0089580E0CD
S1131B300895BC01E8E6FEE12AE93EE140E051E017
S1131B409081992319F091509083452F3596E2178F
S1131B50F307B1F7442311F0CB017BC60895E8E6FF
S1131B60FEE18AE99EE110823596E817F907D9F774
S1131B70E6E5FEE184E690E0A0E0B0E086839783AA
S1131B80A087B187128689E99DE09487838766E8F8
S1131B907DE080E03BCE0895CF93DF93DC01ED91AF
S1131BA0FC91119721812838F9F420812F7D21346B
S1131BB0D9F412962C912031B8F0EC012EDF009765
S1131BC099F020E2FC0120832A8121832B81ED57A7
S1131BD0FF4F20832C81319620834A8150E0688115
S1131BE0798102960E94AD4CDF91CF9108952F9296
S1131BF03F924F925F926F927F928F929F92AF9299
S1131C00BF92CF92DF92EF92FF920F931F93CF93E5
S1131C10DF93CDB7DEB72C970FB6F894DEBF0FBEB7
S1131C20CDBF00E010E00F2EF4E2DF2EF02D0F2EDA
S1131C30F5EC8F2EF0E29F2EF02D6894CC24C4F89E
S1131C400F2EF8E64F2EFEE15F2EF02D0F2EF4E658
S1131C506F2EFEE17F2EF02D0F2EF6E9EF2EFEE122
S1131C60FF2EF02D312C212C5801A2C1D5018C91CD
S1131C70823209F4CFC0843209F498C1803209F069
S1131C8097C1DC921B968C911B97982F9A7009F040
S1131C908FC115962D913C9116972F3F3F4F81F49C
S1131CA0F50187859089D4012D913C912817390736
S1131CB019F0019609F07CC122E2F501208378C174
S1131CC0D5011F962D913C9150972F3F3F4F09F01E
S1131CD076C180FF74C16CC18C012C91222309F45C
S1131CE056C0208131814217530709F051C0F501D4
S1131CF09485F801EE0FFF1FEE0FFF1FE00FF11F99
S1131D00EC59F14E8281891B883038F5F801EE0FC9
S1131D10FF1FEE0FFF1FE00FF11FEC59F14E9381EF
S1131D20292F30E0082E02C0359527950A94E2F752
S1131D3020FD3EC1F801EE0FFF1FEE0FFF1FE00F65
S1131D40F11FEC59F14E21E030E002C0220F331FA5
S1131D508A95E2F7922B938342C1F801EE0FFF1F9D
S1131D60EE0FFF1F0E0F1F1FF801EC59F14E928367
S1131D70238130E08195A90102C0440F551F8A9543
S1131D80E2F7CA01816083838FE1848328C1BF01A4
S1131D90019615963596EE15FF0509F09DCF611550
S1131DA0710509F405C1DB0111965C934E93F501AD
S1131DB0848512968C931297F1E01396FC931397F3
S1131DC08FE114968C9386E59EE143D508C1D50135
S1131DD01F968D919C915097F40120813181281791
S1131DE03907A1F01B962C9122FD0DC0C501E7D146
S1131DF0D5011F968D919C915097F40120813181DA
S1131E002817390719F0019609F0D2C0E2E2D5018A
S1131E10EC93CEC01092631ED50151962C9151972C
S1131E2022952F70E22FF0E0EE0FFF1FE553FF4DD8
S1131E300190F081E02D309709F461C01D968D91D9
S1131E409C911E979A8389831F964D915C9150971C
S1131E505C834B8351963C9151973F703D832E8315
S1131E60AF57BF4F6D917C917987688795012E5F3D
S1131E703F4F261B370BD50111963C911197230F29
S1131E802A87AD57BF4F2C912B8711962C912C8705
S1131E90D5011B963C91632F637032FD02C020E094
S1131EA001C020E2262B33FD02C030E001C030E443
S1131EB0232B4F3F5F4F11F030E001C034E0232B60
S1131EC0D50119964D915C911A978417950711F0D5
S1131ED090E001C098E0822F892B8F83D50115965D
S1131EE02D913C9116972F3F3F4F11F090E001C088
S1131EF09C2D892B8F83CE010196199501C080E01A
S1131F00F501938590FF80E0D50117962D913C91C2
S1131F1018972F3F3F4F69F4F40140815181D50157
S1131F201F962D913C9150974217530711F493FF3C
S1131F3081E0F501258136812F3F3F4FA1F1D40186
S1131F402D913C912F3F3F4F71F1882361F165DD65
S1131F508C01009741F1C6DDF80181818D5F818399
S1131F60E957FF4F11821082D5011B968C911B9764
S1131F7086958170F801938580FB91F993871D966E
S1131F808D919C911E97908B8787EF57FF4F0190FF
S1131F90F081E02D10828091631E82831C968C91C7
S1131FA08183C801BDD0D501DC9202C0C5016EDDBC
S1131FB0C50176DD5C01892B09F058CE17C0F50107
S1131FC045855685D4018D919C918417950781F39D
S1131FD0D201F301832D922D632D722D7DCEF50157
S1131FE087819085019609F003CFF1CE2C960FB628
S1131FF0F894DEBF0FBECDBFDF91CF911F910F913B
S1132000FF90EF90DF90CF90BF90AF909F908F9014
S11320107F906F905F904F903F902F900895EF9234
S1132020FF920F931F93CF937C0110E080E090E028
S113203001E0C3E113C0FC012081213179F4EC57A4
S1132040FF4F208131812150310931832083232B9B
S113205021F4FC01C083102F01C0102F21DD009753
S113206051F7112311F0C701F4D3CF911F910F91B0
S1132070FF90EF900895EF92FF920F931F93CF93E9
S1132080DF937C0110E080E090E001E0D7E1C0E163
S113209016C0FC012081263191F4EC57FF4F2081BA
S11320A031812150310931832083232B39F4FC0100
S11320B0D083ED57FF4FC083102F01C0102FF0DCE9
S11320C0009739F7112311F0C701C3D3DF91CF91E2
S11320D01F910F91FF90EF9008951092B11E1092EE
S11320E0B01EE3EAFEE182E390E0A0E0B0E0868384
S11320F09783A087B18712868BE390E194878387C7
S1132100E6E9FEE18AE090E0A0E0B0E08683978310
S1132110A087B18712868FE090E194878387089522
S1132120CF93DF93FC01DC01AA57BF4F8C9181FF51
S113213003C092E1908302C092E19083DF01AD5726
S1132140BF4F1C9280FF05C08FEF9FEF968385835E
S113215006C08091C7209091C820968385832785E7
S1132160308930872783A5ECB0E28D919C9111973B
S11321709287818715968C9115978F5F15968C930E
S113218084832F3F3F4F81F4EF0181E498E89383E8
S113219082830E94924CFE01EC57FF4F877099276F
S11321A001969183808308C081E698E893838283B3
S11321B0EC57FF4F11821082DF91CF9108950F9356
S11321C01F93CF93DF938C0128DCEC01892BB9F1A9
S11321D082E18883F80181818983FE01ED57FF4FF5
S11321E010820E94924CFE01EC57FF4F8770992792
S11321F0019691838083339611821082F801418184
S113220050E0B8016E5F7F4FCE0102960E94AD4C44
S113221081E498E89B838A838FEF9FEF98878F836D
S1132220F801858196819E838D83E5ECF0E28081BF
S113223091819A87898785818F5F85838C83DF91DC
S1132240CF911F910F910895CF93DF93FC01C78124
S1132250D08581858330C1F480E090E010C0FC011A
S11322602081263161F434852981321308C027E1A5
S113227020832A81EA57FF4F208381E006C010DCC7
S1132280009769F780E001C080E0DF91CF91089565
S1132290E091B01EF091B11E813021F048F08230FF
S11322A019F004C080E205C081E203C081E001C0EE
S11322B080E0DF01AD57BF4F8C9385E1808310929E
S11322C0B11E1092B01EE5ECF0E286A197A1019731
S11322D097A386A308959F92AF92BF92CF92DF9265
S11322E0EF92FF920F931F93CF93DF93C0E0D0E060
S11322F00F2EF4E1AF2EF02D05EC10E20F2EF7E1D6
S1132300DF2EF02D0F2EF6E19F2EF02D0F2EF5E18E
S1132310EF2EF12CF02D0F2EF3E1CF2EF02D0F2EFA
S1132320F1E1BF2EF02D5EC088818331C1F018F435
S1132330823139F057C0853149F1873109F445C0FC
S113234051C0FE01EC57FF4F80819181892B29F008
S1132350B88286E99EE17DD245C0C88243C080919F
S1132360B01E9091B11E892B09F03CC0D093B11ED0
S1132370C093B01EA8826981CE010296ADD0F80147
S113238086A197A1019697A386A32CC0FE01ED57C1
S1132390FF4F8081811117C02D853E85F801808112
S11323A091812817390769F48B8580FF0AC09882C8
S11323B0FE01EC57FF4FF182E08283EA9EE149D2AD
S11323C011C0D8820FC0D8820DC0FE01E957FF4F5B
S11323D00190F081E02D309719F4CE0157DB02C053
S11323E0CE011995CE015CDBEC01892B09F09CCF61
S11323F0DF91CF911F910F91FF90EF90DF90CF90DD
S1132400BF90AF909F9008958091B21E982F9F70B7
S1132410E4E5F1E08081807F892B80838091B21E86
S1132420882329F08091B31E8093530108958091ED
S1132430B31E982F9F71E8E4F1E08081807E892BA0
S11324408083089593E090934201E1E4F1E0908168
S11324509F719830E1F780934201E1E4F1E09081CB
S11324609F719813FCCF089588E0ECDF8FEF809381
S11324704F018091B41E882311F086E1E3CF0895C3
S11324808093B41EF1CF08958093B31EBDCF0895F9
S1132490CF93DF931F921F92CDB7DEB79A838983C0
S11324A0809362018A81809363010F900F90DF9182
S11324B0CF910895CF93DF931F921F92CDB7DEB7CC
S11324C09A838983809360018A81809361010F904C
S11324D00F90DF91CF9108950F931F93CF938C01A9
S11324E0C62F89E1AFDF8FEF80934F0182E08C0F1D
S11324F080938001CC2381F0F801C1502C2F30E06F
S11325002F5F3F4FC801820F931FA1E8B1E02191D3
S11325102D93E817F907D9F783E08093351F82E0FC
S113252080934201CF911F910F910895EF92FF92F2
S11325300F931F93CF93DF931092560186E082DFAF
S1132540C0E0D0E0E12CF12C06E411E081E0F1D808
S1132550F8012081229526952770237030E00C2EF7
S113256002C0220F331F0A94E2F7E22AF32A2296CA
S1132570C031D10559F788E065DF8BEE80935601B1
S113258073DFC701DF91CF911F910F91FF90EF90FF
S11325900895E9E3F1E08081816080831092B41EA4
S11325A01092B21E81E08093351F88E04BDF8BEEE2
S11325B080935601ECE4F1E0808180688083B6DF8B
S11325C080936D0108951F93CF93DF9300D01F92E2
S11325D01F92CDB7DEB78091351F823009F465C0F4
S11325E080914F0183FF3EC0A0917B016A2F70E070
S11325F0AB014F5F5F4F80E090E020E0FC01E058CA
S1132600FE4F3081FC01EB54F14E30832F5F822F5B
S113261090E08417950794F385EB9EE19A83898370
S1132620A250AB83FB01EB54F14E80818C838091EB
S113263047018A558D83CE010196AEDAE1E4F1E0DB
S113264080818F718631E1F7EFE4F1E08081886069
S11326508083ECE4F1E080818F77808380818068DF
S1132660808323C080914F0186FF1FC08091410168
S11326708F718931A9F41091420112951695177042
S113268049F0133021F0153021F013E003C011E0BC
S113269001C012E0E9DE81E08093351F812FF8DD6F
S11326A0EFE4F1E08081806480830F900F900F90BD
S11326B00F900F90DF91CF911F91089526D86DD080
S11326C068DF82D81092450108957DDFA8D8CCC078
S11326D008950F931F93CF93DF93EC018091361FDE
S11326E09091371F009709F445C04E815F8168853A
S11326F07985FC01028113812481358140175107BA
S11327006207730760F0DC0117C002811381248122
S11327103581401751076207730768F403C0FC0151
S1132720A0E0B0E0041B150B260B370B02831383C8
S1132730248335830AC0DF01401B510B620B730BEA
S1132740ED91FC911197309701F74A835B836C8379
S11327507D83109741F08D919C9111979983888383
S1132760CD93DC9315C099838883D093371FC0938E
S1132770361F0EC0198218828E819F81A885B98563
S11327808A839B83AC83BD83D093371FC093361F4A
S1132790DF91CF911F910F9108951092371F1092DE
S11327A0361F0895CF93DF93A091361FB091371F42
S11327B0109791F1A817B90751F50AC08E179F0712
S11327C029F5109731F0208131812D933C9307C076
S11327D0FC01208131813093371F2093361F0190F3
S11327E0F081E02D3097C1F042815381648175817D
S11327F0EC018A819B81AC81BD81840F951FA61F4A
S1132800B71F82839383A483B58306C0DF01ED9150
S1132810FC911197309791F6DF91CF910895E09153
S1132820361FF091371F309771F0E817F90721F43C
S11328300CC08E179F0759F00190F081E02D30975E
S1132840C1F780E0089580E0089581E0089581E073
S11328500895CF93DF93EC01E2DF811102C0CE0132
S113286038DFDF91CF910895CF92DF92EF92FF92FC
S1132870CF93DF938091C420882309F459C08FB784
S1132880F894C090C4201092C4208FBFD12CE12CA6
S1132890F12CCC0CDD1CEE1CFF1CD701C601880FEB
S11328A0991FAA1FBB1F880F991FAA1FBB1FC80E01
S11328B0D91EEA1EFB1EC091361FD091371F2097E8
S11328C0B9F18A819B81AC81BD81C816D906EA061B
S11328D0FB0610F1C81AD90AEA0AFB0A8881998111
S11328E09093371F8093361F8A85813011F4CE016F
S11328F0F0DEEB85FC85CE011995C091361FD09191
S1132900371F2097A9F08A819B81AC81BD81C816AD
S1132910D906EA06FB06F0F68A819B81AC81BD816B
S11329208C199D09AE09BF098A839B83AC83BD833F
S1132930DF91CF91FF90EF90DF90CF900895809139
S113294024208F5F80932420882319F01092242060
S1132950089581E08093492008958EE490E279CF30
S1132960089580910620813081F48FE890E21ADF87
S113297084E08093102010920B2010920A200E9471
S1132980850280EA90E265CF0895811110C08FE836
S113299090E208DF81E0809310200E94DA010E9417
S11329A00C0380EA90E2FEDE87EE9FE1FBCE089501
S11329B088E39FE10C946035089581E08093E21FE1
S11329C08FE292E00C94052608958091B51F823021
S11329D008F06AC08091CC1F823049F018F481302D
S11329E0C9F149C08530A1F0863019F144C0609125
S11329F0252070912620809127200E94D60960917D
S1132A00032070910420809105200E941F0A43C076
S1132A106091032070910420809105200E941F0A78
S1132A206091252070912620809127200E94D6094C
S1132A3032C06091032070910420809105200E948F
S1132A401F0A6091252070912620809127200E94E2
S1132A501F0A21C0609103207091042080910520F9
S1132A600E941F0A609125207091262080912720C2
S1132A700E94D60910C060910320709104208091B7
S1132A8005200E94D609609125207091262080910E
S1132A9027200E94D6098091B51F8F5F8093B51FB0
S1132AA08EE490E2D6DE15C060910320709104207C
S1132AB0809105200E94D6096091252070912620DE
S1132AC0809127200E94D6091092B51F88E290E2D7
S1132AD0C0DEA8950895EF92FF920F931F93CF93B2
S1132AE0DF93EBE5F0E210820F2EF3E0FF2EF02DE2
S1132AF0F1828BE0828360915B2070915C208091F5
S1132B005D204BE15AE10E944A0960915B2070917B
S1132B105C2080915D200E943409E4EFFFE1108283
S1132B20C2E0C1838AE082836091F41F7091F51F33
S1132B308091F61F0E943409E7EFFFE11082D1E093
S1132B40D18389E082836091F71F7091F81F80918F
S1132B50F91F0E943409EDE9F0E21082118288E045
S1132B60828360919D2070919E2080919F200E947D
S1132B703409EAE4F0E2D0836894EE24E2F8E182D6
S1132B8060914A2070914B2080914C200E94630AEE
S1132B9060914A2070914B2080914C200E94050B3B
S1132BA0E3E0F0E2C08305E00183609103207091CB
S1132BB00420809105200E94C10AE5E2F0E2C0836E
S1132BC017E01183609125207091262080912720A1
S1132BD00E94C10AE7E3F0E2C083E18260913720FA
S1132BE070913820809139200E94C10AE7E0F0E218
S1132BF0C083F182609107207091082080910920A0
S1132C000E94C10A0093E51F6091E41F7091E51FC3
S1132C108091E61F0E94C10A0F2EF6E0FF2EF02DD0
S1132C20F092B9206091B8207091B9208091BA20B7
S1132C300E94C10A1093BF206091BE207091BF20F2
S1132C408091C0200E94C10AE2EBF0E2C0831182AD
S1132C506091B2207091B3208091B4200E94630AE5
S1132C606091B2207091B3208091B4200E94050B32
S1132C70EDEAF0E2C083D1836091AD207091AE2083
S1132C808091AF200E94630A6091AD207091AE20C4
S1132C908091AF200E94050BE0E0F0E2C083C18385
S1132CA06091002070910120809102200E94630AAB
S1132CB06091002070910120809102200E94050BF8
S1132CC0EEE5F0E2D083018360915E2070915F2095
S1132CD0809160200E94630A60915E2070915F2061
S1132CE0809160200E94050BE6EBFFE1D083F18226
S1132CF06091B61F7091B71F8091B81F0E94630A3C
S1132D006091B61F7091B71F8091B81F0E94050B88
S1132D10EDE0F0E2D083118360910D2070910E20DC
S1132D2080910F200E94630A60910D2070910E2003
S1132D3080910F200E94050BDF91CF911F910F917D
S1132D40FF90EF9008950F93CF93DF93809110201D
S1132D50823009F4F1C130F4882309F46EC0813063
S1132D6051F034C3843009F481C208F436C185308B
S1132D7009F43FC22BC310920620C1E0C093E21FA6
S1132D806091E41F7091E51F8091E61F0E94D609AF
S1132D90EAEBFFE11386C38B85E0828BC18B84EF62
S1132DA091E0A0E0B0E08093542090935520A0934C
S1132DB05620B093572088EE93E0A0E0B0E08093D3
S1132DC02E2090932F20A0933020B0933120808127
S1132DD0813081F480914D2081110CC060913720A5
S1132DE070913820809139200E94490B811102C0D2
S1132DF0109210208091C21F813021F08091BD1F5C
S1132E00813011F4109210208091BE1F813019F48A
S1132E1085E0809310208091C31F813019F482E0F3
S1132E20809310208091C41F813009F0CFC283E0C9
S1132E308093102010923B20C9C280913B208130A6
S1132E4031F480913B208F5F80933B2002C010922D
S1132E503B201092062081E08093E21FEAEBFFE121
S1132E60828B8AEF90E0A0E0B0E0809354209093AE
S1132E705520A0935620B093572084EF91E0A0E012
S1132E80B0E080932E2090932F20A0933020B09315
S1132E9031208089813021F08091CB1F811114C0B1
S1132EA06091E41F7091E51F8091E61F0E94D6098E
S1132EB01092C51F80918D20811106C087E00E9469
S1132EC04B2181E080938D208091CA1F81110FC016
S1132ED08091CB1F813059F46091E41F7091E51FFC
S1132EE08091E61F0E94920981E08093C51F809122
S1132EF0B020811106C084E00E944B2181E08093C0
S1132F00B0208091C41F813029F483E08093102085
S1132F101092B0208091D91F811116C08091BA1FE0
S1132F2081112AC08091C21F811126C08091BD1FCA
S1132F30811122C085E00E944B211092B020109292
S1132F408D2081E0809310208091D91F8130A1F4DD
S1132F508091C21F813081F46091372070913820B4
S1132F60809139200E94D609EAEBFFE11086138292
S1132F708185813069F504C08091C31F813011F4CB
S1132F801092C31F8091BD1F813011F58091BE1F27
S1132F908130F1F480912120909122200196909328
S1132FA0222080932120893E9D4F08F40FC282E0A5
S1132FB090E10E94052E082F03600093B91F20E1C1
S1132FC042E065E48EEA0E9490200E94CC31FEC16A
S1132FD01092222010922120F9C1CAEBDFE183E094
S1132FE08A8B6091E41F7091E51F8091E61F0E9417
S1132FF0920981E08B87109206208093E21F8091D2
S1133000B020811111C082E00E944B2181E08093A5
S1133010B02084E60E947C33609137207091382080
S1133020809139200E9492098091D91F813049F5FD
S113303083E00E944B2162E081E60E949C3410925E
S1133040B02081E080933B2010921020CAEBDFE196
S11330501A866091372070913820809139200E941F
S1133060D6091B8660919D2070919E2080919F209F
S11330700E94490B91E0811101C090E09093BA1F26
S1133080A5C18091CA1F813049F583E00E944B217C
S113309062E08EE60E949C341092B02081E080931E
S11330A03B2080931020CAEBDFE11A866091372021
S11330B070913820809139200E94D6091B86609136
S11330C09D2070919E2080919F200E94490B91E049
S11330D0811101C090E09093BA1F78C18091C41F00
S11330E0813009F473C183E00E944B2162E083E7DD
S11330F00E949C341092B02081E080933B20809306
S11331001020CAEBDFE11A866091372070913820D5
S1133110809139200E94D6091B8660919D20709170
S11331209E2080919F200E94490B91E0811101C053
S113313090E09093BA1F4AC1EAEBFFE184E0828BEE
S11331401092062081E08093E21F82E0838B8091BD
S1133150B020811108C00E944B2181E08093B020EF
S113316083E60E947C338091BA1F8130A9F4809158
S11331704D20811111C081E00E944B2162E081E663
S11331800E949C341092B02081E080933B20809375
S113319010201092C31F1AC18091B41F9091BB1FBD
S11331A0981788F081E00E944B2162E08EE60E942D
S11331B09C341092B02081E080933B2080931020B7
S11331C01092C31F03C18091C31F813009F4FEC054
S11331D081E00E944B2162E083E70E949C341092BC
S11331E0B02081E080933B20809310201092C31F75
S11331F0EDC080910620811108C08FE890E229DBA0
S1133200809106208F5F8093062080912020893052
S113321080F06091F41F7091F51F8091F61F0E9459
S1133220490B91E0811190E09093BE1F10922020F1
S113323003C08F5F809320208091BE1F811108C03E
S11332408FE890E2AFDA81E080931020109206209C
S11332508091BA1F813009F0B9C080914D2081114D
S1133260B5C01092102010920620B0C08DE790E0F7
S1133270A0E0B0E08093542090935520A093562072
S1133280B09357208AEF90E0A0E0B0E080932E2026
S113329090932F20A0933020B09331201092E21FFE
S11332A082E08093CC1F80919C20813031F0C0F16A
S11332B0823051F0833089F030C080EA90E272DAD3
S11332C082E080939C202CC060E188E39FE10E940F
S11332D0723583E080939C2023C080910A209091D2
S11332E00B20813523EC920790F08091B62081FF6A
S11332F00BC08091B6208D7F8093B6206091B6205C
S113330082E090E10E948E2F0E94CC3109C0019688
S113331090930B2080930A2003C088E00E94F93226
S1133320809120208930F0F06091F41F7091F51F96
S11333308091F61F0E94490B91E0811190E09093D7
S1133340BE1F60919D2070919E2080919F200E94BD
S1133350490B91E0811101C090E09093BA1F109243
S1133360202003C08F5F809320208091BE1F813076
S113337051F480910620813091F48FE890E269DA6B
S1133380109206200CC081110AC080910620811180
S113339003C08FE890E206DA81E0809306208091F2
S11333A0BA1F813099F480914D2081110FC0109281
S11333B09C2081E0809310200E94DA010E940C037B
S11333C087EE9FE1EFD980EA90E2ECD9DF91CF91CB
S11333D00F91089580914920882371F080913B20BA
S11333E0882319F010923B2002C00E94953282E19A
S11333F090E22FDA1092492008958091C41F811120
S113340019C08091C21F813021F08091BD1F81308D
S113341049F46091372070913820809139200C94C0
S11334209209089560913720709138208091392055
S11334300C94D609089581E08093BB20DECF0895D3
S1133440CF93DF938091E31F882309F460C00E9427
S11334509436CAEBDFE18983BAD68E8380EF8F87F7
S11334601092E31FEBE7F0E08081877F808381E6A1
S113347080937C00EAE7F0E080818064808380812F
S113348086FDFDCF8091790024E2829FC001112442
S11334906FEF70E00E94D54B6093BC1F6091B22027
S11334A07091B3208091B4200E94490B91E0811166
S11334B001C090E09093D91F2091BB1F30E0809110
S11334C0B12090E00A972817390734F4EAEBFFE1BA
S11334D081E0808B118A0DC08091B12090E00A9622
S11334E0281739071CF01092CA1F03C082E080938A
S11334F0CA1F8091C01F8D3318F080E00E94F932FA
S11335008091BB1F853618F481E00E94F9328091C6
S11335102320813029F08091BB20813009F0B4C090
S113352080912020893008F4ACC060915B207091B8
S11335305C2080915D200E94490B91E0811190E014
S11335409093BD1F5ADF6091F41F7091F51F809115
S1133550F61F0E94490B91E0811190E09093BE1FE9
S11335606091F71F7091F81F8091F91F0E94490B19
S113357091E0811101C090E09093BF1F60919D2064
S113358070919E2080919F200E94490B91E08111AF
S113359001C090E09093BA1F6091B2207091B32063
S11335A08091B4200E94490B91E0811101C090E008
S11335B09093D91F6091AD207091AE208091AF207F
S11335C00E94490B91E0811190E09093DA1F609181
S11335D0002070910120809102200E94490B91E00B
S11335E0811190E09093DB1F60915E2070915F20C9
S11335F0809160200E94490B91E0811190E09093AA
S1133600DC1F6091B61F7091B71F8091B81F0E9494
S1133610490B91E0811190E09093DD1F60910D20A2
S113362070910E2080910F200E94490B91E081112E
S113363090E09093DE1F8091C21F813021F0809131
S1133640BD1F813039F48091BA1F811103C085E018
S11336500E94F93210922320109220208091BA1FE8
S1133660811106C08091D91F811102C010924D2092
S11336708091BB20813041F4809349201092BB207B
S113368003C08F5F80932020DF91CF910895D8DE0F
S11336905ADBA0CE08958F929F92AF92BF92FF9271
S11336A00F931F93CF93DF93CDB7DEB729970FB650
S11336B0F894DEBF0FBECDBF8C01F62E0E948803A6
S11336C08093F220882309F4CDC248E050E061E4FD
S11336D072E0C8010E94A04C892BA1F480911020B3
S11336E081110AC08091C21F813031F483E00E94AD
S11336F0F932FF24F394BAC20E94BB327EDEFF2467
S1133700F394B4C248E050E06AE472E0C8010E9455
S1133710A04C892BA1F480911020813051F4809128
S1133720C21F811106C083E00E94F932FF24F39482
S11337309DC20E94C53261DEFF24F39497C248E023
S113374050E063E572E0C8010E94A04C892B09F0A7
S113375050C02FE02F1530F084E00E94F932FF248E
S1133760F39484C26EEF6F0DC8010E947635F82E73
S1133770882309F479C2F801218530E02053310906
S113378088EE93E0289FA001299F500D389F500D8B
S11337901124228530E02053310964E6629FC00180
S11337A0639F900D1124840F951F248530E02053CE
S11337B03109AC01420F531F238530E020533109F6
S11337C0C901880F991F220F331F220F331F220FA5
S11337D0331F280F391FCA01820F931F8D3FFFE04B
S11337E09F0720F084E00E94F93240C20E94CE324A
S11337F03DC248E050E06CE572E0C8010E94A04C74
S1133800892B81F480911020811106C083E00E94ED
S1133810F932FF24F3942AC281E08093C31FFF246A
S1133820F39424C248E050E065E672E0C8010E94C7
S1133830A04C892B79F480911020811106C083E07B
S11338400E94F932FF24F39411C21092C31FFF2483
S1133850F3940CC248E050E06EE672E0C8010E94A6
S1133860A04C892B81F480911020811106C083E043
S11338700E94F932FF24F394F9C181E08093C41FBC
S1133880FF24F394F3C148E050E067E772E0C80115
S11338900E94A04C892B79F480911020811106C0DC
S11338A083E00E94F932FF24F394E0C11092C41F14
S11338B0FF24F394DBC148E050E060E872E0C80103
S11338C00E94A04C892B09F092C023E12F1530F0FF
S11338D086E00E94F932FF24F394C8C16EEF6F0DA5
S11338E0C8010E947635F82E882309F47AC0F801BD
S11338F0A185B0E0D09720E03AEC4AE95BE30E946E
S1133900274C4B015C01A285B0E0D09720E031EE5A
S113391045EF55E00E94274C860E971EA81EB91E3F
S1133920828990E0C097092E000CAA0BBB0B880E6D
S1133930991EAA1EBB1EA385B0E0D09720E836E9E5
S113394048E950E00E94274C860E971EA81EB91E17
S1133950A485B0E0D09720E432E44FE050E00E9428
S1133960274C860E971EA81EB91EA585B0E0D097D9
S113397020EA36E841E050E00E94274C860E971E6C
S1133980A81EB91EA685B0E0D09720E137E20E94B8
S1133990214C860E971EA81EB91EA785B0E0D097AD
S11339A028EE33E00E94214C860E971EA81EB91EF5
S11339B0A089B0E0D09724E630E00E94214C860E26
S11339C0971EA81EB91EA189B0E0D0972AE030E066
S11339D00E94214C680D791D8A1D9B1D0E948F3306
S11339E045C187E00E94F932FF24F3943FC148E0C7
S11339F050E069E872E0C8010E94A04C892B39F4B8
S1133A0082E190E20E94D213FF24F3942FC148E094
S1133A1050E062E972E0C8010E94A04C892B29F4AD
S1133A200E949733FF24F39421C148E050E06BE9EE
S1133A3072E0C8010E94A04C892B29F40E94CC3169
S1133A40FF24F39413C148E050E064EA72E0C80133
S1133A500E94A04C892B29F40E94A033FF24F394E4
S1133A6005C148E050E06DEA72E0C8010E94A04C34
S1133A70892B71F5F1E1FF1530F084E00E94F932F1
S1133A80FF24F394F3C06EEF6F0DC8010E947635E6
S1133A90F82E8823B9F0CE01019626E0FC0111929C
S1133AA02A95E9F7F8012185298322852A8323852C
S1133AB02B8324852C8325852D8326852E830E94A4
S1133AC0C433D4C084E00E94F932FF24F394CEC0FE
S1133AD048E050E066EB72E0C8010E94A04C892BDC
S1133AE009F5FDE0FF1530F08BE00E94F932FF2468
S1133AF0F394BCC06EEF6F0DC8010E947635F82EAA
S1133B00882351F0F8018185898382858A83CE01D7
S1133B1001960E94EE33AAC084E00E94F932FF2489
S1133B20F394A4C048E050E06FEB72E0C8010E9437
S1133B30A04C892BA1F48FE890E20E94D21384E078
S1133B408093102010920B2010920A200E9485026C
S1133B5080EA90E20E942914FF24F39487C048E08D
S1133B6050E068EC72E0C8010E94A04C892B49F433
S1133B7080E20E94043480E20E945034FF24F394D3
S1133B8075C048E050E061ED72E0C8010E94A04CAD
S1133B90892B29F40E940F35FF24F39467C048E071
S1133BA050E06AED72E0C8010E94A04C892B29F410
S1133BB00E943B35FF24F39459C048E050E063EE83
S1133BC072E0C8010E94A04C892B09F045C0FBE1BA
S1133BD0FF1530F088E00E94F932FF24F39446C0C8
S1133BE06EEF6F0DC8010E947635F82E882371F1AF
S1133BF0D8011996E8E3FFE1CF01805F2D919191FF
S1133C00291729F089E00E94F932F12C2FC08E1374
S1133C10F5CFCE01019629E0FC0111922A95E9F72E
S1133C20F801238D2983248D2A83258D2B83268DCA
S1133C302C83278D2D8320A12E830E94CD3181E0FA
S1133C4080939C2088EE93E07ED110C08AE00E948D
S1133C50F932FF24F3940AC08BE00E94F932FF2466
S1133C60F39404C0F12C02C0FF24F3948F2D299601
S1133C700FB6F894DEBF0FBECDBFDF91CF911F9179
S1133C800F91FF90BF90AF909F908F9008950F93E6
S1133C90CF93DF931F921F92CDB7DEB7198288E0CE
S1133CA08A838FEB64D100E128E33FE14FEB62E0CC
S1133CB0CE010196DDD10F900F90DF91CF910F913E
S1133CC008950F931F93CF93C1E0C0932320C09313
S1133CD04D20C093E31FC0934920C093BB20109292
S1133CE020201092B51F109206201092B020C0938D
S1133CF010201092C1201092C3201092C220109262
S1133D00242010920C20C093E21F10928D20109258
S1133D109C2010923B20109222201092212087E8B0
S1133D2080937A000E9436369CD264E072E088EC7C
S1133D3090E00E948D06EEE4F0E284EF91E0A0E0D2
S1133D40B0E086839783A087B187128685EE94E1DD
S1133D5094878387CF010E942914E8E2F0E288EE79
S1133D6093E0A0E0B0E086839783A087B1871286B2
S1133D708DEA94E1948783870E94924CE2E1F0E219
S1133D8000E911E0B8010E94D54B8C599F4F092ED0
S1133D90000CAA0BBB0B86839783A087B18712867E
S1133DA08FE994E1948783870E94924CE7EEFFE1C8
S1133DB0B8010E94D54B8C599F4F092E000CAA0BB9
S1133DC0BB0B86839783A087B18712868DED94E120
S1133DD094878387E0EAF0E288E893E1A0E0B0E02A
S1133DE086839783A087B187C28728ED34E134871F
S1133DF02387EFE8F0E286839783A087B187128652
S1133E0081EB94E1948783870E946A3640DF609156
S1133E104A2070914B2080914C200E94490B8111C3
S1133E2008C0EAEBFFE1178286E0838B0E94313001
S1133E3003C081E08093C11FCF911F910F9108951A
S1133E408091B62081FF0EC084E0809310201092F0
S1133E500B2010920A200E94850280EA90E20C94C2
S1133E602914089581E08093102008950F93062F5C
S1133E70292F482F65E48EEA53D18AE090E063D07D
S1133E800F91089582E090E10E94052E8093B62060
S1133E9084E090E10E94052E8093B12083E090E1BC
S1133EA00E94052E8093B41F8091B62080FF2EC0FF
S1133EB061E08CEF9FE0DADF60E08DEF9FE0D6DF1A
S1133EC060E18EEF9FE0D2DF60E08FEF9FE0CEDF16
S1133ED064E380E090E1CADF62E181E090E1C6DF63
S1133EE06FE883E090E1C2DF66E684E090E1BEDF44
S1133EF09CD18091B6208E7F8093B6206091B620AD
S1133F0082E090E1B3DF8AE090E01DC008951F9342
S1133F10CF93DF93D82F192F41E0480F292F65E461
S1133F208FEA29D1C82F212F4D2F65E48FEA23D1A1
S1133F302C2F30E0322F2227A901482BCA01DF9110
S1133F40CF911F91089528EE33E0AC01429FC00148
S1133F50439F900D529F900D1124009739F020E05B
S1133F6030E02F5F3F4F28173907D9F708950F9393
S1133F701F93CF93DF9300D000D0CDB7DEB7BE013F
S1133F806F5F7F4F96E0FB0111929A95E9F708E481
S1133F9018EE21E030E009831A832B833C838E835F
S1133FA088E18D8388EB90E00E94120426960FB678
S1133FB0F894DEBF0FBECDBFDF91CF911F910F915B
S1133FC00895EF92FF920F931F93CF93DF93CDB792
S1133FD0DEB72A970FB6F894DEBF0FBECDBFF90146
S1133FE09E012F5F3F4F79012AE0D7011D922A9548
S1133FF0E9F74983DC013C913A83462F50E05E8324
S11340004D83F887EF8310E01A8709876130C9F080
S1134010623029F411968C918A833B8312C06330F9
S113402081F4FC0121812B8382818C830AC081E08D
S113403090E089DF115031F481E00E94B53581E0D0
S11340400AC01AE0BE016F5F7F4F88EB90E00E94C8
S1134050B1038111ECCF2A960FB6F894DEBF0FBEE0
S1134060CDBFDF91CF911F910F91FF90EF900895F5
S1134070EF92FF920F931F93CF93DF93CDB7DEB7E9
S11340802A970FB6F894DEBF0FBECDBFF9019E018B
S11340902F5F3F4F79012AE0D7011D922A95E9F756
S11340A04983DC013C913A83462F50E05E834D8383
S11340B0F887EF8310E01A8709876130C9F062300E
S11340C029F411968C918A833B8312C0633081F466
S11340D0FC0121812B8382818C830AC081E090E0E2
S11340E032DF115031F481E00E94B53583E00BC01A
S11340F01AE0BE016F5F7F4F88EB90E00E94DD0302
S11341008111ECCF82E02A960FB6F894DEBF0FBE81
S1134110CDBFDF91CF911F910F91FF90EF90089544
S1134120FF920F931F93CF93DF9300D0CDB7DEB7E9
S1134130182F653419F0FF24F39403C06894FF2406
S1134140F1F849832A830B83812F11DF01E09E015B
S11341502D5F3F4F412F6F2DCE01019632DF85E059
S113416090E0F1DE0F900F900F90DF91CF911F91AF
S11341700F91FF900895FF920F931F93CF93DF93B6
S113418000D01F92CDB7DEB7182F653419F0FF2485
S1134190F39403C06894FF24F1F849832A831B82B3
S11341A01C82812FE4DE01E09E012D5F3F4F412FF1
S11341B06F2DCE0101965CDF8B810F900F900F90D5
S11341C00F90DF91CF911F910F91FF9008950F935E
S11341D0CF93DF9300D01F92CDB7DEB719821A8236
S11341E01B821C8280E9C3DE00E020E030E040E96D
S11341F061E0CE010196E5DE811109C002E09E0175
S11342002D5F3F4F41E961E0CE01019631DF8B81A3
S113421090E0880F991F959587950F900F900F90B8
S11342200F90DF91CF910F9108950F93CF93DF9368
S1134230C0E0D0E00FEF2D2F4C2F65E48EEA70DF45
S11342408AE090E080DEA8952196CC3F8FE0D807E5
S113425089F71092C3201092C220DF91CF910F9161
S11342600895CF93DF93C0E0D0E0CE010E94052EE5
S11342708F3F29F4D093C320C093C22005C02B964E
S1134280CC3F8FE0D80789F7DF91CF9108956FEF86
S11342900C948E2F08952F923F924F925F926F92BB
S11342A07F928F929F92AF92BF92CF92DF92EF92C2
S11342B0FF920F931F93CF93DF93CDB7DEB76E9723
S11342C00FB6F894DEBF0FBECDBF81113FC0809101
S11342D0C2209091C3208C3F9F4020F01092C320B5
S11342E01092C2204091C2202091C32003E465E4CF
S11342F08EEA16DF8091C2209091C320019690939C
S1134300C3208093C2208AE090E01DDE8091C22009
S11343109091C3208C3F9F4020F01092C3201092B4
S1134320C2204091C2202091C32003E565E48EEAB7
S1134330F7DE8091C2209091C32001969093C32010
S11343408093C2208AE090E0FEDD0CC2813009F047
S11343503FC08091C2209091C3208C3F9F4020F0A9
S11343601092C3201092C2204091C2202091C320F9
S113437003E465E48EEAD4DE8091C2209091C320E8
S113438001969093C3208093C2208AE090E0DBDD05
S11343908091C2209091C3208C3F9F4020F01092C6
S11343A0C3201092C2204091C2202091C32005E472
S11343B065E48EEAB5DE8091C2209091C320019617
S11343C09093C3208093C2208AE090E0BCDDCAC1F0
S11343D0823009F03FC08091C2209091C3208C3F6D
S11343E09F4020F01092C3201092C2204091C2201E
S11343F02091C32004E465E48EEA92DE8091C22019
S11344009091C32001969093C3208093C2208AE0A8
S113441090E099DD8091C2209091C3208C3F9F4011
S113442020F01092C3201092C2204091C22020910B
S1134430C32003E565E48EEA73DE8091C220909187
S1134440C32001969093C3208093C2208AE090E019
S11344507ADD88C1833009F03FC08091C2209091F9
S1134460C3208C3F9F4020F01092C3201092C220A2
S11344704091C2202091C32004E465E48EEA50DE1A
S11344808091C2209091C32001969093C320809381
S1134490C2208AE090E057DD8091C2209091C32031
S11344A08C3F9F4020F01092C3201092C220409174
S11344B0C2202091C32005E465E48EEA31DE8091B8
S11344C0C2209091C32001969093C3208093C22070
S11344D08AE090E038DD46C1843009F03FC0809125
S11344E0C2209091C3208C3F9F4020F01092C320A3
S11344F01092C2204091C2202091C32005E465E4BB
S11345008EEA0EDE8091C2209091C3200196909392
S1134510C3208093C2208AE090E015DD8091C22000
S11345209091C3208C3F9F4020F01092C3201092A2
S1134530C2204091C2202091C32003E565E48EEAA5
S1134540EFDD8091C2209091C32001969093C32007
S11345508093C2208AE090E0F6DC04C1853009F043
S11345603FC08091C2209091C3208C3F9F4020F097
S11345701092C3201092C2204091C2202091C320E7
S113458005E465E48EEACCDD8091C2209091C320DD
S113459001969093C3208093C2208AE090E0D3DCFC
S11345A08091C2209091C3208C3F9F4020F01092B4
S11345B0C3201092C2204091C2202091C32005E460
S11345C065E48EEAADDD8091C2209091C32001960E
S11345D09093C3208093C2208AE090E0B4DCC2C0F0
S11345E0863009F03FC08091C2209091C3208C3F57
S11345F09F4020F01092C3201092C2204091C2200C
S11346002091C32002E465E48EEA8ADD8091C22011
S11346109091C32001969093C3208093C2208AE096
S113462090E091DC8091C2209091C3208C3F9F4008
S113463020F01092C3201092C2204091C2202091F9
S1134640C32003E465E48EEA6BDD8091C22090917F
S1134650C32001969093C3208093C2208AE090E007
S113466072DC80C0873009F03FC08091C2209091F5
S1134670C3208C3F9F4020F01092C3201092C22090
S11346804091C2202091C32002E465E48EEA48DD13
S11346908091C2209091C32001969093C32080936F
S11346A0C2208AE090E04FDC8091C2209091C32028
S11346B08C3F9F4020F01092C3201092C220409162
S11346C0C2202091C32004E465E48EEA29DD8091B0
S11346D0C2209091C32001969093C3208093C2205E
S11346E08AE090E030DC3EC08091C2209091C320EB
S11346F08C3F9F4020F01092C3201092C220409122
S1134700C2202091C3200EE465E48EEA09DD809185
S1134710C2209091C32001969093C3208093C2201D
S11347208AE090E010DC8091C2209091C3208C3FFD
S11347309F4020F01092C3201092C2204091C220CA
S11347402091C3200EE465E48EEAEADC8091C22065
S11347509091C32001969093C3208093C2208AE055
S113476090E0F1DB8091C51F8093C1200E946136E7
S11347706B017C014F2D5527662777274E2C8D2CF6
S1134780A091D91FE0E8AE9FD00111248091BE1FF3
S11347908170A82B8091BD1F817089831A828981C1
S11347A09A81880F991F9A2F982B8091C11F80FBA3
S11347B0222420F8312C220C331C220C331C292AED
S11347C0AAEBBFE18C9181708B831C82EB81FC810D
S11347D0EE0FFF1FEE0FFF1FEE0FFF1F822D8E2B1C
S11347E09091BF1F91709D831E822D813E812295E1
S11347F03295307F3227207F3227282E222A80913B
S1134800CA1F81708F8318868F819885880F991F9E
S113481082959295907F9827807F982782299091FE
S1134820C21F917099871A8629843A840024369489
S113483027940794369427940794322C202C282A02
S1134840A091E11FE0E8AE9FD00111248091CC1F1C
S113485087708A2B9091C51F91709B871C86EB856E
S1134860FC85EE0FFF1FEE0FFF1FEE0FFF1F8E2BB9
S11348709091C81F91709D871E862D853E85229537
S11348803295307F3227207F3227282B8091DF1FFB
S113489081708F87188A8F859889880F991F8295D0
S11348A09295907F9827807F9827822B9091E01F84
S11348B09170998B1A8A29893A890024369527950B
S11348C00794369527950794322F202D182F122BF5
S11348D08091DB1F81708B8B1C8AEB89FC89EE0F26
S11348E0FF1F8091DC1F81708D8B1E8A8D899E89AC
S11348F0880F991F880F991F8E2BE091DA1FE170A2
S11349008E2B9091DD1F91709F8B188EEF89F88DFF
S1134910EE0FFF1FEE0FFF1FEE0FFF1F8E2B909168
S1134920DE1F9170998F1A8E298D3A8D22953295BA
S1134930307F3227207F3227282B8091C31F81703C
S11349408B8F1C8E8B8D9C8D880F991F82959295D1
S1134950907F9827807F9827822B9091C41F917015
S11349609D8F1E8E2D8D3E8D0024369527950794A0
S1134970369527950794322F202D382E322A809190
S1134980C2209091C3208C3F9F4020F01092C320FE
S11349901092C2208091C2202091C320042F482F5E
S11349A065E48EEABDDB8091C2209091C32001961C
S11349B09093C3208093C2208AE090E0C4DA80916F
S11349C0C2209091C3208C3F9F4020F01092C320BE
S11349D01092C2204091C2202091C320042D65E48E
S11349E08EEA9EDB8091C2209091C3200196909321
S11349F0C3208093C2208AE090E0A5DA8091C2208F
S1134A009091C3208C3F9F4020F01092C3201092BD
S1134A10C2204091C2202091C320082D65E48EEA73
S1134A207FDB8091C2209091C32001969093C32094
S1134A308093C2208AE090E086DA8091C22090912F
S1134A40C3208C3F9F4020F01092C3201092C220BC
S1134A504091C2202091C3200C2D65E48EEA60DBD6
S1134A608091C2209091C32001969093C32080939B
S1134A70C2208AE090E067DA8091C2209091C3203E
S1134A808C3F9F4020F01092C3201092C22040918E
S1134A90C2202091C3200091BB1F65E48EEA40DB55
S1134AA08091C2209091C32001969093C32080935B
S1134AB0C2208AE090E047DA8091C2209091C3201E
S1134AC08C3F9F4020F01092C3201092C22040914E
S1134AD0C2202091C3200091C01F65E48EEA20DB30
S1134AE08091C2209091C32001969093C32080931B
S1134AF0C2208AE090E027DA8091C2209091C320FE
S1134B008C3F9F4020F01092C3201092C22040910D
S1134B10C2202091C320022D65E48EEA01DB80913E
S1134B20C2209091C32001969093C3208093C22009
S1134B308AE090E008DA8091C2209091C3208C3FF3
S1134B409F4020F01092C3201092C2204091C220B6
S1134B502091C320012F65E48EEAE2DA8091C2201D
S1134B609091C32001969093C3208093C2208AE041
S1134B7090E0E9D98091C2209091C3208C3F9F405E
S1134B8020F01092C3201092C2204091C2202091A4
S1134B90C320032D65E48EEAC3DA8091C22090918C
S1134BA0C32001969093C3208093C2208AE090E0B2
S1134BB0CAD98091C2209091C3208C3F9F4020F09D
S1134BC01092C3201092C2208091C2209091C320E1
S1134BD05EDB8AE090E0B7D96E960FB6F894DEBF3C
S1134BE00FBECDBFDF91CF911F910F91FF90EF903A
S1134BF0DF90CF90BF90AF909F908F907F906F90F9
S1134C005F904F903F902F9008950F931F93CF93F1
S1134C10FC016081662369F08C01C0E088EC90E0BF
S1134C200E94F705CF5FF801EC0FF11D608161115F
S1134C30F5CFCF911F910F91089590918E209923D4
S1134C4019F09130B9F00895ECE3F0E229E430E290
S1134C5090E29193E217F307E1F78B3521F481E0B9
S1134C6080938E2008958D3519F510921F2010928F
S1134C708E2008958D3541F410921F2010928E20BD
S1134C8081E08093FB1F089590911F209D3048F48C
S1134C90E92FF0E0E45CFF4D80839F5F90931F2039
S1134CA0089510921F2010928E208CEE92E0ADCFCA
S1134CB00895CF93C82F682F62956F706A3010F0F3
S1134CC0695C01C0605D88EC90E00E94F705CF70DC
S1134CD0CA3018F067E36C0F02C060E36C0F88EC15
S1134CE090E00E94F705CF9108951092FB1FE09188
S1134CF03C208E2F90E0FC01F197E930F105B0F4EF
S1134D008827ED59FE4F8F4F0C940A4C82E008958A
S1134D1083E0089584E0089585E0089586E0089589
S1134D2087E0089588E0089589E008958CE093E091
S1134D306CDF80E0089581E008951092FB1F80915C
S1134D403C208133A1F018F4803351F00BC082333E
S1134D5019F0833319F006C082E0089583E00895C2
S1134D6084E008958CE093E050DF85E0089581E0CD
S1134D7008950F931F93CF93FC016081662369F01C
S1134D808C01C0E088EC90E00E94F705CF5FF80149
S1134D90EC0FF11D60816111F5CFCF911F910F913F
S1134DA00895CF93C62FE5DF8EE193E02EDF8C2F9D
S1134DB080DFCF9108959F92AF92BF92CF92DF92FE
S1134DC0EF92FF920F931F93CF93DF93F62E6A0116
S1134DD021E0209361201092FB1F182FB92ECCE301
S1134DE0D0E2AA24A394A80E5BC03091FB1F3130FB
S1134DF0E1F781E3F81621F082E3F816F1F04DC0F3
S1134E0088810E94A235E82E89810E94A235EE0C89
S1134E10EE0CEE0CEE0CE82A0E2D2B2D412F65E442
S1134E208EEA7ED96E2DC601BCDF8AE090E08BD875
S1134E30109261201092FB1F33C088810E94A2351A
S1134E40E82E89810E94A235EE0CEE0CEE0CEE0CDD
S1134E50E82A0E2D2B2D4A2D65E48EEA61D98A812C
S1134E600E94A235982E8B810E94A235082F6E2DA8
S1134E70C60197DFE92CEE0CEE0CEE0CEE0CE02AEA
S1134E800E2D2B2D412F65E48FEA4AD98E2D11DF8B
S1134E90109261201092FB1F03C08BE293E0B5DEF9
S1134EA030916120313009F4A0CFDF91CF911F916F
S1134EB00F91FF90EF90DF90CF90BF90AF909F90B5
S1134EC008958091FC1F823051F128F4882359F011
S1134ED08130C9F041C0843009F439C060F18530B3
S1134EE009F43FC039C088E593E08FDE86E893E09B
S1134EF08CDE8BEF95E089DE81E08093352085E0C0
S1134F008093FC1F089584ED93E07FDE47E558E02D
S1134F1062E38CEF9FE04FDF1092FC1F089581EF56
S1134F2093E073DE48E458E062E38EEF9FE043DFF2
S1134F301092FC1F08958EE094E067DE4AE358E087
S1134F4062E380E090E137DF1092FC1F0895109235
S1134F5035208AE294E059DE89E080931120109292
S1134F60FC1F08951092FB1F80913C20823361F056
S1134F7028F4803389F08133B1F010C0843341F0D8
S1134F8028F0853339F00AC082E0089583E008955B
S1134F9084E0089585E0089587E008958CE093E027
S1134FA034DE86E0089581E00895DF92EF92FF9267
S1134FB00F931F93CF93DF938091FD1F90E08A306E
S1134FC0910508F0EFC5FC018827E459FE4F8F4F87
S1134FD00C940A4C60910320709104208091052068
S1134FE00E94D60960912520709126208091272067
S1134FF00E94D60960913720709138208091392021
S11350000E94D609609107207091082080910920A0
S11350100E94D6096091E41F7091E51F8091E61FFC
S11350200E94D6096091B8207091B9208091BA206D
S11350300E94D6096091BE207091BF208091C0204B
S11350400E94D6098EE394E0E0DD8FE697E0DDDD93
S11350506091B2207091B3208091B4200E94490BDA
S1135060882351F06091B2207091B3208091B420D4
S11350700E94490B8111F6CF6091AD207091AE2052
S11350808091AF200E94490BE82E6091002070911E
S11350900120809102200E94490BD82E60915E204D
S11350A070915F20809160200E94490BF82E6091DE
S11350B0B61F7091B71F8091B81F0E94490B082F2B
S11350C060910D2070910E2080910F200E94490B59
S11350D0182F6091F41F7091F51F8091F61F0E94A4
S11350E0490BD82F60919D2070919E2080919F2024
S11350F00E94490BC82F60915B2070915C208091C5
S11351005D200E94490B21E0D11020E091E0E110E4
S113511090E0292B91E0F11090E0922B21E0011115
S113512020E0292B91E0111190E0922B21E0D11184
S113513020E0292B91E0C11190E0922B29F491E019
S1135140811190E0992349F08BE494E05EDD87E5DA
S113515094E05BDD1092FD1F25C5609103207091E2
S11351600420809105200E94920984E794E04DDD9B
S113517081E08093FD1F16C58EE394E046DD80E850
S113518094E043DD6091AD207091AE208091AF201A
S11351900E94490B882351F06091AD207091AE209C
S11351A08091AF200E94490B8111F6CF6091B2200B
S11351B07091B3208091B4200E94490BE82E609135
S11351C0002070910120809102200E94490BD82E6A
S11351D060915E2070915F20809160200E94490B55
S11351E0F82E6091B61F7091B71F8091B81F0E946E
S11351F0490B082F60910D2070910E2080910F2093
S11352000E94490B182F6091F41F7091F51F809133
S1135210F61F0E94490BD82F60919D2070919E200B
S113522080919F200E94490BC82F60915B20709150
S11352305C2080915D200E94490B21E0D11020E088
S113524091E0E11090E0292B91E0F11090E0922B95
S113525021E0011120E0292B91E0111190E0922B23
S113526021E0D11120E0292B91E0C11190E0922B93
S113527029F491E0811190E0992349F08BE494E0C2
S1135280C4DC87E594E0C1DC1092FD1F8BC46091FF
S1135290252070912620809127200E94920984E77E
S11352A094E0B3DC82E08093FD1F7CC48EE394E041
S11352B0ACDC8DE292E0A9DC6091002070910120C9
S11352C0809102200E94490B882351F060910020B4
S11352D070910120809102200E94490B8111F6CF28
S11352E06091B2207091B3208091B4200E94490B48
S11352F0E82E6091AD207091AE208091AF200E9485
S1135300490BD82E60915E2070915F2080916020BF
S11353100E94490BF82E6091B61F7091B71F8091BF
S1135320B81F0E94490B082F60910D2070910E2028
S113533080910F200E94490B182F6091F41F7091E7
S1135340F51F8091F61F0E94490BD82F60919D2074
S113535070919E2080919F200E94490BC82F6091DC
S11353605B2070915C2080915D200E94490B21E0BC
S1135370D11020E091E0E11090E0292B91E0F110B0
S113538090E0922B21E0011120E0292B91E01111F2
S113539090E0922B21E0D11120E0292B91E0C11162
S11353A090E0922B29F491E0811190E0992349F047
S11353B08BE494E02ADC87E594E027DC1092FD1F5F
S11353C0F1C36091372070913820809139200E9478
S11353D0920984E794E019DC83E08093FD1FE2C323
S11353E08EE394E012DC82E894E00FDC60915E20AE
S11353F070915F20809160200E94490B882351F0B6
S113540060915E2070915F20809160200E94490B22
S11354108111F6CF6091B2207091B3208091B420B5
S11354200E94490BE82E6091AD207091AE208091CE
S1135430AF200E94490BD82E60910020709101206A
S1135440809102200E94490BF82E6091B61F709142
S1135450B71F8091B81F0E94490B082F60910D203F
S113546070910E2080910F200E94490B182F60919B
S1135470F41F7091F51F8091F61F0E94490BD82FDD
S113548060919D2070919E2080919F200E94490BE5
S1135490C82F60915B2070915C2080915D200E94F8
S11354A0490B21E0D11020E091E0E11090E0292B9C
S11354B091E0F11090E0922B21E0011120E0292BE2
S11354C091E0111190E0922B21E0D11120E0292BE1
S11354D091E0C11190E0922B29F491E0811190E0C8
S11354E0992349F08BE494E090DB87E594E08DDB2D
S11354F01092FD1F57C3609107207091082080917E
S113550009200E94920984E794E07FDB84E0809381
S1135510FD1F48C38EE394E078DB84E894E075DBF8
S11355206091B61F7091B71F8091B81F0E94490BFC
S1135530882351F06091B61F7091B71F8091B81FF6
S11355400E94490B8111F6CF6091B2207091B32073
S11355508091B4200E94490BE82E6091AD20709197
S1135560AE208091AF200E94490BD82E609100207C
S113557070910120809102200E94490BF82E6091C5
S11355805E2070915F20809160200E94490B082F5B
S113559060910D2070910E2080910F200E94490B84
S11355A0182F6091F41F7091F51F8091F61F0E94CF
S11355B0490BD82F60919D2070919E2080919F204F
S11355C00E94490BC82F60915B2070915C208091F0
S11355D05D200E94490B21E0D11020E091E0E11010
S11355E090E0292B91E0F11090E0922B21E0011141
S11355F020E0292B91E0111190E0922B21E0D111B0
S113560020E0292B91E0C11190E0922B29F491E044
S1135610811190E0992349F08BE494E0F6DA87E570
S113562094E0F3DA1092FD1FBDC26091E41F709103
S1135630E51F8091E61F0E94920984E794E0E5DA71
S113564085E08093FD1FAEC28EE394E0DEDA86E847
S113565094E0DBDA60910D2070910E2080910F2090
S11356600E94490B882351F060910D2070910E2007
S113567080910F200E94490B8111F6CF6091B220D6
S11356807091B3208091B4200E94490BE82E609160
S1135690AD207091AE208091AF200E94490BD82E8E
S11356A06091002070910120809102200E94490B9A
S11356B0F82E60915E2070915F20809160200E949E
S11356C0490B082F6091B61F7091B71F8091B81FC6
S11356D00E94490B182F6091F41F7091F51F80915F
S11356E0F61F0E94490BD82F60919D2070919E2037
S11356F080919F200E94490BC82F60915B2070917C
S11357005C2080915D200E94490B21E0D11020E0B3
S113571091E0E11090E0292B91E0F11090E0922BC0
S113572021E0011120E0292B91E0111190E0922B4E
S113573021E0D11120E0292B91E0C11190E0922BBE
S113574029F491E0811190E0992349F08BE494E0ED
S11357505CDA87E594E059DA1092FD1F23C2609168
S1135760B8207091B9208091BA200E94920984E7F0
S113577094E04BDA86E08093FD1F14C28EE394E03C
S113578044DA88E894E041DA6091F41F7091F51FDF
S11357908091F61F0E94490B882351F06091F41FF9
S11357A07091F51F8091F61F0E94490B8111F6CF6D
S11357B06091B2207091B3208091B4200E94490B73
S11357C0E82E6091AD207091AE208091AF200E94B0
S11357D0490BD82E60910020709101208091022005
S11357E00E94490BF82E60915E2070915F20809199
S11357F060200E94490B082F6091B61F7091B71F5B
S11358008091B81F0E94490B182F60910D20709150
S11358100E2080910F200E94490BD82F60919D206B
S113582070919E2080919F200E94490BC82F609107
S11358305B2070915C2080915D200E94490B21E0E7
S1135840D11020E091E0E11090E0292B91E0F110DB
S113585090E0922B21E0011120E0292B91E011111D
S113586090E0922B21E0D11120E0292B91E0C1118D
S113587090E0922B29F491E0811190E0992349F072
S11358808BE494E0C2D987E594E0BFD91092FD1F60
S113589089C16091BE207091BF208091C0200E9478
S11358A0920984E794E0B1D987E08093FD1F7AC11F
S11358B08EE394E0AAD98AE894E0A7D960919D2068
S11358C070919E2080919F200E94490B882351F063
S11358D060919D2070919E2080919F200E94490B91
S11358E08111F6CF6091B2207091B3208091B420E1
S11358F00E94490BE82E6091AD207091AE208091FA
S1135900AF200E94490BD82E609100207091012095
S1135910809102200E94490BF82E60915E207091C4
S11359205F20809160200E94490B082F6091B61F70
S11359307091B71F8091B81F0E94490B182F609176
S11359400D2070910E2080910F200E94490BD82FBA
S11359506091F41F7091F51F8091F61F0E94490B0E
S1135960C82F60915B2070915C2080915D200E9423
S1135970490B21E0D11020E091E0E11090E0292BC7
S113598091E0F11090E0922B21E0011120E0292B0D
S113599091E0111190E0922B21E0D11120E0292B0C
S11359A091E0C11190E0922B29F491E0811190E0F3
S11359B0992349F08BE494E028D987E594E025D92C
S11359C01092FD1FEFC06091E41F7091E51F80915C
S11359D0E61F0E94D6096091B8207091B920809189
S11359E0BA200E94D6096091BE207091BF20809198
S11359F0C0200E94D60984E794E007D988E0809308
S1135A00FD1FD0C08EE394E000D98CE894E0FDD86B
S1135A1060915B2070915C2080915D200E94490B15
S1135A20882351F060915B2070915C2080915D200F
S1135A300E94490B8111F6CF6091B2207091B3207E
S1135A408091B4200E94490BE82E6091AD207091A2
S1135A50AE208091AF200E94490BD82E6091002087
S1135A6070910120809102200E94490BF82E6091D0
S1135A705E2070915F20809160200E94490B082F66
S1135A806091B61F7091B71F8091B81F0E94490B97
S1135A90182F60910D2070910E2080910F200E948C
S1135AA0490BD82F6091F41F7091F51F8091F61F58
S1135AB00E94490BC82F60919D2070919E20809177
S1135AC09F200E94490B21E0D11020E091E0E110D9
S1135AD090E0292B91E0F11090E0922B21E001114C
S1135AE020E0292B91E0111190E0922B21E0D111BB
S1135AF020E0292B91E0C11190E0922B29F491E050
S1135B00811190E0992349F08BE494E07ED887E5F5
S1135B1094E07BD81092FD1F45C0609103207091E2
S1135B200420809105200E94D6096091252070915F
S1135B302620809127200E94D609609137207091F9
S1135B403820809139200E94D609609107207091F5
S1135B500820809109200E94D6096091E41F709169
S1135B60E51F8091E61F0E9492096091B820709110
S1135B70B9208091BA200E9492096091BE20709150
S1135B80BF208091C0200E94920984E794E03DD810
S1135B908EE894E03AD889E08093FD1F03C089E041
S1135BA080931120DF91CF911F910F91FF90EF907F
S1135BB0DF9008950F931F93CF93DF93C0E0D0E05D
S1135BC010E000E006C0103221F48BE596E01DD809
S1135BD0102F2D2F4C2F65E48FEA0E94BB2069D82B
S1135BE08DEE94E012D885E090E00E94A31F1F5F21
S1135BF02196C11580E2D80731F789E080931120FE
S1135C00DF91CF911F910F910895292F482F65E4BB
S1135C108FEA0C94BB200895EF92FF920F931F9389
S1135C20CF93DF93CDB7DEB762970FB6F894DEBF9C
S1135C300FBECDBF86EC94E00E9405268CED94E067
S1135C400E94052681E090E1E0DF182F80E090E1DA
S1135C50DCDF212F30E0322F2227A901482BCA0193
S1135C600F2EFAEBEF2EFFE1FF2EF02DF701968FAA
S1135C70858F892F1ED8F701858D1BD88FEE94E070
S1135C800E9405268DEF9FE0C0DF182F8CEF9FE068
S1135C90BCDF212F30E0322F2227A901482BCA0173
S1135CA0F701948F838F892F04D8F701838D01D84E
S1135CB083E095E00E9405268FEF9FE0A6DF182F72
S1135CC08EEF9FE0A2DF212F30E0322F2227A9019F
S1135CD0482BCA01F701948F838F892F0E9459267C
S1135CE0F701838D0E945926198288E08A837E01F8
