:1000000092C1000035C7000060C700008BC7000028
:10001000B6C70000E1C700000C9419080C9446080C
:100020000C9473080C94A0080C94CD089CC100009B
:100030009AC1000098C1000096C100000C9492374C
:1000400092C1000090C100008EC100008CC1000070
:100050008AC1000088C1000086C100000C9464378A
:1000600082C1000080C100007EC100007CC1000090
:100070007AC1000078C1000076C1000074C10000A0
:1000800072C1000070C100006EC100006CC10000B0
:1000900082C6000068C1000066C10000D6C300002F
:1000A00062C1000060C100000C94D40B5CC1000070
:1000B0005AC1000058C1000056C1000054C10000E0
:1000C00052C1000050C100004EC100004CC10000F0
:1000D0004AC1000048C1000046C1000044C1000000
:1000E00042C1000040C100003EC100003CC1000010
:1000F0003AC1000038C1000036C1000034C1000020
:1001000032C1000030C100002EC100002CC100002F
:100110002AC1000028C1000026C1000024C100003F
:1001200022C1000020C100001EC100001CC100004F
:100130001AC10000D004CC05CC05CC05CC05CC05FB
:10014000CC05CC054704CC05CC05CC05CC05CC05AD
:10015000CC05CC054704CC05CC05CC05CC05CC059D
:10016000CC05CC056C04CC05CC05CC05CC05CC0568
:10017000CC05CC05D004CC05CC05CC05CC05CC05F4
:10018000CC05CC056C04CC05CC05CC05CC05CC0548
:10019000CC05CC05D004CC05CC05CC05CC05CC05D4
:1001A000CC05CC055D05CC05CC05CC05CC05CC0536
:1001B000CC05CC05D504CC05CC05CC05CC05CC05AF
:1001C000CC05CC05D004CC05CC05CC05CC05CC05A4
:1001D000CC05CC05FE04CC05CC05CC05CC05CC0566
:1001E000CC05CC053605CC05CC05CC05CC05CC051D
:1001F000CC05CC059105CC05CC05CC05CC05CC05B2
:10020000CC05CC059105CC05CC05CC05CC05CC05A1
:10021000CC05CC059105CC05CC05CC05CC05CC0591
:10022000CC05CC059105CC05CC05CC05CC05CC0581
:10023000CC05CC059B05CC05CC05CC05CC05CC0567
:10024000CC05CC05C005CC05CC05CC05CC05CC0532
:10025000CC05CC059B05CC05CC05CC05CC05CC0547
:10026000CC05CC05C005CC05CC05CC05CC05CC0512
:10027000CC05CC05B405CC05CC05CC05CC05CC050E
:10028000CC05CC056605CC05CC05CC05CC05CC054C
:10029000CC05CC056605CC05CC05CC05CC05CC053C
:1002A000CC05CC056A05CC05CC05CC05CC05CC0528
:1002B000CC05CC058505CC05CC05CC05CC05CC05FD
:1002C000CC05CC05C00532281D281F28212823284D
:1002D0002528272829282B288129532AED2A872BEE
:1002E000212CBB2C552DEF2D992E662F7C308F3075
:1002F0009D30AD30BD30D130EF30DE302032233292
:100300004632253249324B324D324F3227329C34FD
:10031000A534B934AF34C334CD34D734E134EB34FD
:10032000FF340935F53411241FBECFEFD1E8DEBF0D
:10033000CDBF00E00CBF19E0A0E0B2E0E8EBFCE9C3
:1003400000E00BBF02C007900D92A235B107D9F7AC
:1003500025E2A2E5B9E001C01D92A83AB207E1F793
:100360005BD50C945A4E4CCEF999FECF92BD81BD0F
:10037000F89A80B50895EF92FF920F931F93CF9351
:10038000DF934115510579F08B01040F151FEB0127
:100390007C01E61AF70AC7018C0F9D1FE5DF8993E0
:1003A000C017D107C1F7DF91CF911F910F91FF9037
:1003B000EF900895EF92FF920F931F93CF93DF93E7
:1003C000CDB7DEB761970FB6F894DEBF0FBECDBFD5
:1003D0004AE250E066E173E280E090E0CCDF809199
:1003E0003C2390913D23A0913E23B0913F23813443
:1003F0009C46A546B84709F47BC081E1E7E1F2E0FD
:10040000DE01119601900D928A95E1F70F2EFEE61E
:10041000EF2EF2E2FF2EF02DF701638D748D8CEF3D
:100420009FE00E941E2106E113E2F8019183808380
:10043000F701658D768D80E090E10E941E21F80124
:1004400095838483F701618D728D8EEF9FE00E940A
:100450001E21F8019383828340E250E060E270E065
:100460008CE193E20E94374E8BE0EBE0F2E0ACE1EE
:10047000B3E201900D928A95E1F7F80180819181B4
:10048000FC01EF2FFF27E295EF7021E030E02C0F09
:100490003D1FE20FF31F2081F8012587E92FFF2779
:1004A000EF70FF2721E030E02C0F3D1FE20FF31F1C
:1004B0002081F8012687FC01F295E295EF70EF2785
:1004C000FF70EF27EF70FF2721E030E02C0F3D1F7A
:1004D000E20FF31F2081F80127878F709927E1E051
:1004E000F0E0EC0FFD1FE80FF91F8081F801808B11
:1004F00061960FB6F894DEBF0FBECDBFDF91CF91EE
:100500001F910F91FF90EF900895CF93DF934AE2F0
:1005100050E066E173E280E090E02DDF80913C23C3
:1005200090913D23A0913E23B0913F2381349C467E
:10053000A546B84711F1C6E1D3E28FEF9FEF99834B
:1005400088839D838C838FE090E09B838A8340E245
:1005500050E060E270E08CE193E20E94374E8BE065
:10056000EBE0F2E0ACE1B3E201900D928A95E1F7A5
:1005700086E68D878E878F87888B4ED0DF91CF91CF
:10058000089529E08435920769F045ED59E0BC01F2
:1005900021E04617570739F02F5F4F575F4F24313F
:1005A000C1F701C020E0FC01378531110EC030E0F9
:1005B000F901F695FE2FEE27F795E7952E0F3F1FD1
:1005C000F901EE5AF64F1082089530E0F901F695E0
:1005D000FE2FEE27F795E795E20FF31FEE5AF64F41
:1005E000418141504183442319F00C943F0C0895FC
:1005F000F901F695FE2FEE27F795E7952E0F3F1F91
:10060000F901EE5AF64F10820895FC016185878149
:1006100090850C94291D0895CF93DF93C6E1D3E212
:10062000888199810E94FC0B8C819D810E94030C22
:100630008A810E941F1481E00E941B1465E073E010
:1006400081E00E940A0CA2E5B9E0EDE5F9E061E77E
:1006500073E181E041EC52E01C9218961C921E92CC
:100660001797EF01229788832196888380839F01C3
:10067000285F3F4F3283218355834483AF57BF4F59
:10068000EF57FF4FE617F70739F70E94C81BDF91B6
:10069000CF91089580915209882359F0E3EDF9E054
:1006A00066E673E181E090E0AC012081211118C081
:1006B00002C040E050E0FA01F695FE2FEE27F795D4
:1006C000E7954E0F5F1FFA01EE5AF64F81E08083E7
:1006D000DF01A058BF4F1C9281838E2F9F2F08955A
:1006E0000196EF57FF4FE617F707F1F680E090E02D
:1006F0000895FC01E058FF4F2081222331F0FC01D6
:10070000268702960C943F0C0895FC0110820895F0
:10071000CF93DF9370E09C01260F371FF9013297CA
:10072000C081D0E0DC2FCC2731962081C22B6250D3
:10073000710926E030E048E252E00E94274D21E0B6
:10074000C817D90709F020E0822FDF91CF910895D3
:1007500081E0809375131092671380E98093BC0049
:1007600008956115710529F180916713811123C0E6
:10077000EFE6F3E1718360831382128215821482A3
:1007800081E080936713FB0184819581892B21F49B
:1007900084E08093751303C082E08093751385EA2B
:1007A0008093BC00809167138111FCCF80917613F8
:1007B000089588EF089580E808957093701360930A
:1007C0006F136115710541F1FB0180859185892BBE
:1007D00029F180916713811123C0EFE6F3E11382C1
:1007E00012821582148281E080936713FB01848159
:1007F0009581892B21F485E08093751303C083E0F4
:100800008093751385EA8093BC00809167138111F2
:10081000FCCF80917613089588EF089588EF0895AE
:1008200080E80895F894ECEBF0E010821092B900A3
:10083000DB0114968C918093B80080818160808365
:1008400078941092661380E008951F920F920FB66D
:100850000F9211240BB60F922F933F934F935F93F8
:100860006F937F938F939F93AF93BF93EF93FF9378
:100870008091B900887F90E0893C910508F08CC197
:10088000FC018827E656FF4F8F4F0C948B4D8091CB
:1008900075139EEF980F933060F4E0916F13F09111
:1008A000701380818E7F8093BB0085E88093BC00AD
:1008B0008BC1853061F4E0916F13F09170138081EA
:1008C00081608093BB0085E88093BC007DC140DFE0
:1008D0008BEF8093761378C180917513843051F536
:1008E000EFE6F3E1848195810190F081E02D208590
:1008F00031858217930798F426813781AC014F5FC9
:100900005F4F5093741340937313F901E80FF91F6D
:1009100080818093BB0085E88093BC0055C184E949
:100920008093BC00EFE6F3E181E0868317821092AA
:1009300067134AC19EEF980F923038F5EFE6F3E166
:1009400082819381A081B181A80FB91F11962C914A
:100950000196938382832093BB0025E82093BC00FB
:100960000190F081E02D248135812817390709F0A5
:100970002BC180917513823021F484E0809375132C
:1009800023C185E0809375131FC1853021F485EA6A
:100990008093BC0019C1DCDE8BEF8093761314C109
:1009A000D7DE8FEF809376130FC18091751385305A
:1009B00001F5EFE6F3E1A081B18118968D919C914C
:1009C00019970197248135812817390749F4ECEBF1
:1009D000F0E080818F7B8083808185688083F4C094
:1009E000ECEBF0E080818064808380818568808387
:1009F000EBC0AEDE8BEF80937613E6C02091BB0098
:100A000080917513853069F5EFE6F3E1A081B1813E
:100A100016966D917C91179784819581AC014F5FFB
:100A20005F4F55834483FB01E80FF91F208318961D
:100A30008D919C91199701974817590748F4ECEB51
:100A4000F0E0808180648083808185688083BCC081
:100A5000ECEBF0E080818F7B8083808185688083F0
:100A6000B3C076DE8BEF80937613AEC02091BB00CF
:100A7000809175138530E1F4EFE6F3E1A081B18157
:100A800016964D915C91179784819581BC016F5F9B
:100A90007F4F75836483DA01A80FB91F2C9384E913
:100AA0008093BC0081E086831782109267138CC00C
:100AB0004FDE8BEF8093761387C0EFE6F3E181E0A2
:100AC000868386EF8783109267137EC010926B1324
:100AD00010926A13E8E6F3E1A081B18112962D919C
:100AE0003C91139782819381AC014F5F5F4F538399
:100AF0004283D901A80FB91F8C918093BB0085EC6C
:100B00008093BC0088E084835FC0E8E6F3E181E085
:100B1000848382E090E09683858385EC8093BC009B
:100B200053C0E8E6F3E11382128285EC8093BC00A7
:100B300088E0848349C02091BB00E8E6F3E1A0810E
:100B4000B1814D915C9182819381BC016F5F7F4F38
:100B500073836283DA01A80FB91F2C9385EC80930D
:100B6000BC0088E0848330C0E8E6F3E181E0848360
:100B700083E090E09683858385EC8093BC0024C05D
:100B8000E8E6F3E181E0848380E98093BC008FEFA5
:100B90009FEF9683858318C080916613811109C0E9
:100BA000EFE6F3E181E086838BEF87831092671392
:100BB0000BC0E8E6F3E18EEF9FEF9683858381E03B
:100BC000848385EC8093BC00FF91EF91BF91AF913E
:100BD0009F918F917F916F915F914F913F912F9155
:100BE0000F900BBE0F900FBE0F901F9018950F9394
:100BF0001F93CF93DF938C01D62FCAE00AC081E008
:100C000090E00E943A21C15021F482E00E943637E0
:100C100004C0F801908195FFF2CFF801D68380E0FF
:100C2000DF91CF911F910F9108958F929F92AF9274
:100C3000BF92CF92DF92EF92FF920F931F93CF93C9
:100C4000DF93EC016A017B01B901A801689412F8F5
:100C500076956795579547951694D1F7D901C801B0
:100C6000072E73E1B695A795979587957A95D1F755
:100C7000702DE881E1FF0BC04A015B01B694A79497
:100C800097948794B695A7959795879502C04A0142
:100C90005B018C149D04AE04BF0478F1C816D9061C
:100CA000EA06FB0660F1888181FF10C0CC0CDD1CD8
:100CB000EE1CFF1CCB01BA01A70196010E94694DF1
:100CC000DA01C9010197A109B10913C0C901B8012D
:100CD000689413F896958795779567951694D1F74C
:100CE000A70196010E94694DDA01C9010197A10986
:100CF000B1099D838C8381E003C080E001C080E066
:100D0000DF91CF911F910F91FF90EF90DF90CF90E7
:100D1000BF90AF909F908F9008950F931F93CF93A4
:100D2000DF93EC01FB018A818F738A8326813581F1
:100D300084819A81482F4370440F997F942B9A8322
:100D400099818470880F880F9B7F892B89838A8182
:100D50008F7C832B8A838A81922F990F990F990F09
:100D6000877F892B8A83408151816281738100E072
:100D700012E12AE730E0CE0158DF9981986099832B
:100D8000998190619983998190689983DF91CF913E
:100D90001F910F9108951F920F920FB60F92112479
:100DA0000BB60F922F933F934F935F936F937F9365
:100DB0008F939F93AF93BF93EF93FF938091CE0058
:100DC0000E94B427FF91EF91BF91AF919F918F91B6
:100DD0007F916F915F914F913F912F910F900BBE3B
:100DE0000F900FBE0F901F90189580919622813022
:100DF00021F48093FD22809397220895F894A8957A
:100E000099E288E10FB6F894A895809360000FBE30
:100E100090936000789408950E943A150E94D9201A
:100E2000C9DAFADBE7E7F3E180E197E2A0E0B0E0BE
:100E300086839783A087B18781E0828785EF96E0DC
:100E400094878387CF010E9408160E9449170E9449
:100E5000F81F80916A2390E00E94B720CFDF86E0E0
:100E600080934D010E9443150E94251DA895FACF3D
:100E70001F920F920FB60F9211240BB60F922F9361
:100E80003F934F935F936F937F938F939F93AF9312
:100E9000BF93EF93FF93E0919613F09197133097E0
:100EA00009F01995FF91EF91BF91AF919F918F91AB
:100EB0007F916F915F914F913F912F910F900BBE5A
:100EC0000F900FBE0F901F9018951F920F920FB6A4
:100ED0000F9211240BB60F922F933F934F935F9372
:100EE0006F937F938F939F93AF93BF93EF93FF93F2
:100EF000E0919413F0919513309709F01995FF91B3
:100F0000EF91BF91AF919F918F917F916F915F9181
:100F10004F913F912F910F900BBE0F900FBE0F90EE
:100F20001F9018951F920F920FB60F9211240BB6B7
:100F30000F922F933F934F935F936F937F938F9372
:100F40009F93AF93BF93EF93FF93E0919213F09130
:100F50009313309709F01995FF91EF91BF91AF91DD
:100F60009F918F917F916F915F914F913F912F91C1
:100F70000F900BBE0F900FBE0F901F9018951F92F1
:100F80000F920FB60F9211240BB60F922F933F932F
:100F90004F935F936F937F938F939F93AF93BF9381
:100FA000EF93FF93E0919013F0919113309709F034
:100FB0001995FF91EF91BF91AF919F918F917F9183
:100FC0006F915F914F913F912F910F900BBE0F90BA
:100FD0000FBE0F901F9018951F920F920FB60F9291
:100FE00011240BB60F922F933F934F935F936F9300
:100FF0007F938F939F93AF93BF93EF93FF93E09172
:101000008E13F0918F13309709F01995FF91EF919E
:10101000BF91AF919F918F917F916F915F914F9110
:101020003F912F910F900BBE0F900FBE0F901F900E
:1010300018951F920F920FB60F9211240BB60F92B4
:101040002F933F934F935F936F937F938F939F93D0
:10105000AF93BF93EF93FF93E0918C13F0918D13B7
:10106000309709F01995FF91EF91BF91AF919F9142
:101070008F917F916F915F914F913F912F910F9041
:101080000BBE0F900FBE0F901F9018951F920F92DE
:101090000FB60F9211240BB60F922F933F934F93DD
:1010A0005F936F937F938F939F93AF93BF93EF93D0
:1010B000FF93E0918A13F0918B13309709F0199503
:1010C000FF91EF91BF91AF919F918F917F916F9120
:1010D0005F914F913F912F910F900BBE0F900FBEDC
:1010E0000F901F9018951F920F920FB60F92112418
:1010F0000BB60F922F933F934F935F936F937F9312
:101100008F939F93AF93BF93EF93FF93E0918813D7
:10111000F0918913309709F01995FF91EF91BF91E4
:10112000AF919F918F917F916F915F914F913F917F
:101130002F910F900BBE0F900FBE0F901F90189520
:101140001F920F920FB60F9211240BB60F922F938E
:101150003F934F935F936F937F938F939F93AF933F
:10116000BF93EF93FF93E0918613F091871330972D
:1011700009F01995FF91EF91BF91AF919F918F91D8
:101180007F916F915F914F913F912F910F900BBE87
:101190000F900FBE0F901F9018951F920F920FB6D1
:1011A0000F9211240BB60F922F933F934F935F939F
:1011B0006F937F938F939F93AF93BF93EF93FF931F
:1011C000E0918413F0918513309709F01995FF9100
:1011D000EF91BF91AF919F918F917F916F915F91AF
:1011E0004F913F912F910F900BBE0F900FBE0F901C
:1011F0001F901895803111F4D99A0895D89A0895BE
:10120000803159F4E8E6F0E0808182608083ECE68A
:10121000F0E08081816080830895E8E6F0E08081DD
:1012200081608083EBE6F0E0208181E090E002C005
:10123000880F991F7A95E2F7822B80830895803179
:1012400031F4ECE6F0E080818E7F80830895EBE658
:10125000F0E0208181E090E002C0880F991F7A952C
:10126000E2F78095822380830895CF92DF92EF92F8
:101270006B01E82EE4DF8E2DB60126D18E2DB6014E
:10128000C5D18E2DB601B6DF8E2DB601B9DFEF9038
:10129000DF90CF900895982F811105C05093971338
:1012A000409396130895813029F4509395134093F9
:1012B00094130895823029F450939313409392131A
:1012C0000895833029F45093911340939013089517
:1012D000843029F450938F1340938E1308958530F2
:1012E00029F450938D1340938C130895863029F47C
:1012F00050938B1340938A130895873029F45093A9
:1013000089134093881308958850883028F45093A7
:101310008713409386130895903121F450938513D9
:10132000409384130895623009F128F4662341F054
:10133000613089F00895633021F1643069F10895D6
:1013400025B181E090E002C0880F991F7A95E2F7FD
:10135000822B85B908952BB181E090E002C0880FFF
:10136000991F7A95E2F7822B8BB908952EB181E00F
:1013700090E002C0880F991F7A95E2F7822B8EB910
:10138000089521B381E090E002C0880F991F7A95FB
:10139000E2F7822B81BB089524B381E090E002C084
:1013A000880F991F7A95E2F7822B84BB08956230EB
:1013B00019F128F4662341F0613091F0089563300B
:1013C00039F1643089F1089525B181E090E002C0DF
:1013D000880F991F7A95E2F78095822385B9089541
:1013E0002BB181E090E002C0880F991F7A95E2F757
:1013F000809582238BB908952EB181E090E002C0E0
:10140000880F991F7A95E2F7809582238EB9089507
:1014100021B381E090E002C0880F991F7A95E2F72E
:101420008095822381BB089524B381E090E002C0BF
:10143000880F991F7A95E2F78095822384BB0895DF
:10144000623009F128F4662341F0613089F0089593
:10145000633021F1643069F1089525B181E090E0B5
:1014600002C0880F991F7A95E2F7822785B90895FF
:101470002BB181E090E002C0880F991F7A95E2F7C6
:1014800082278BB908952EB181E090E002C0880FC9
:10149000991F7A95E2F782278EB9089521B381E0EA
:1014A00090E002C0880F991F7A95E2F7822781BBEE
:1014B000089524B381E090E002C0880F991F7A95C7
:1014C000E2F7822784BB0895623061F128F4662335
:1014D00049F06130B9F008956330A1F1643009F446
:1014E00041C0089524B181E090E002C0880F991FA7
:1014F0007A95E2F78095982F922394B995B1892334
:1015000085B908952AB181E090E002C0880F991F43
:101510007A95E2F78095982F92239AB99BB1892307
:101520008BB908952DB181E090E002C0880F991F1A
:101530007A95E2F78095982F92239DB99EB18923E1
:101540008EB9089520B381E090E002C0880F991F02
:101550007A95E2F78095982F922390BB91B38923D7
:1015600081BB089523B381E090E002C0880F991FEA
:101570007A95E2F78095982F922393BB94B38923B1
:1015800084BB0895623009F128F4662341F061308C
:1015900089F00895633021F1643069F1089524B130
:1015A00081E090E002C0880F991F7A95E2F7822BC4
:1015B00084B908952AB181E090E002C0880F991F94
:1015C0007A95E2F7822B8AB908952DB181E090E0F7
:1015D00002C0880F991F7A95E2F7822B8DB9089582
:1015E00020B381E090E002C0880F991F7A95E2F75E
:1015F000822B80BB089523B381E090E002C0880F66
:10160000991F7A95E2F7822B83BB0895623009F126
:1016100028F4662341F0613089F00895633021F1A8
:10162000643069F1089525B181E090E002C0880F2F
:10163000991F7A95E2F7822B85B908952BB181E045
:1016400090E002C0880F991F7A95E2F7822B8BB940
:1016500008952EB181E090E002C0880F991F7A951D
:10166000E2F7822B8EB9089521B381E090E002C0A9
:10167000880F991F7A95E2F7822B81BB089524B3D6
:1016800081E090E002C0880F991F7A95E2F7822BE3
:1016900084BB08956230E9F028F4662341F061309C
:1016A00079F032C06330F1F0643029F12DC083B19C
:1016B00090E002C0959587957A95E2F7817008953C
:1016C00089B190E002C0959587957A95E2F781708F
:1016D00008958CB190E002C0959587957A95E2F7D0
:1016E000817008958FB190E002C0959587957A95A5
:1016F000E2F78170089582B390E002C095958795D6
:101700007A95E2F78170089580E0089514BE0FB6CF
:10171000F894A89580916000886180936000109291
:1017200060000FBEE1E6F0E080E8808310827894EC
:1017300004C0089590E016C008951092782380E1C7
:1017400097E29093A9008093A800E1EAF0E088E096
:101750008083808182608083E2E7F0E08081826024
:10176000808308952091A4003091A500820F931FDB
:10177000EAEAF0E091838083208131818091A800A2
:101780009091A9008217930750F42091A8003091FE
:10179000A90080819181821B930B9183808384E0D7
:1017A00089BBCA9BFECF08951F920F920FB60F926E
:1017B00011248F93809178238F5F809378238F916A
:1017C0000F900FBE0F901F901895E9E7F3E2148277
:1017D00015821182108217A216A2EFE7F3E28FE9B9
:1017E00093E211921192E817F907D9F74FD665D312
:1017F0000DD140D08FC1089590937A23809379239F
:101800000C943514089590937C2380937B230C943F
:1018100023140895E82FF0E0EE0FFF1FE158FC4D70
:1018200071836083089591D32FD74DC00895E091BF
:101830009813F09199133097D9F0228133812817AA
:10184000390789F405C0228133812817390759F4F3
:10185000DC01AD57BF4F2C91278713962C91208B1D
:1018600022E0248305C00190F081E02D309759F7E4
:1018700011C1089510929913109298130895FC01C4
:101880001482178613821282A9E7B3E296968D918D
:101890009C919797019697969C938E93969780919B
:1018A000981390919913009739F411821082F09354
:1018B0009913E0939813089591838083F09399137B
:1018C000E093981308950F931F93CF93DF93E091C4
:1018D0009813F0919913309709F493C0EF018C811C
:1018E000882321F0823009F466C085C09AD08C012B
:1018F000009721F482E08C838F8783C09B838A8347
:1019000081E08C83F801E957FF4F87E19CE09183E8
:1019100080833197898582FB882780F98083998528
:10192000D8011B968C911B9790FB80F91B968C938A
:101930001B97998593FB992790F990FB82F91B9649
:101940008C931B97E9E7F3E284818F5F84831C9675
:101950008C931C97808191811E969C938E931D97EA
:101960008D819E8150969C938E931F978885982F8A
:101970009F7051968C915197807F892B51968C93B3
:1019800051979F819295907F8F70892B51968C9360
:10199000F801EF57FF4F4C8550E06A857B858081C9
:1019A00091810E942E4EF80191818C85890F81834F
:1019B000C8018FD526C0CE17DF0741F488819981F1
:1019C00090939913809398130AC0FC0180819181B0
:1019D000C817D907D1F78881998191838083E9E776
:1019E000F3E286A197A1019797A386A3ED85FE85D3
:1019F000CE01199506C00990D881C02D209709F015
:101A00006ECFDF91CF911F910F910895EAE9F3E135
:101A10008EE49EE11082E757FF4FE817F907D1F7F0
:101A2000089580919A13882359F0E3E2F4E14EE49B
:101A30005EE181E090E0BC012081211122C002C062
:101A400060E070E049E8469F9001479F300D112407
:101A5000C90186569C4EFC0111924A95E9F740E176
:101A6000FC014183EF57FF4F24553C4E31832083C7
:101A7000E9E7F3E226A137A12F5F3F4F37A326A363
:101A800008950196E757FF4FE417F507A1F680E0A8
:101A900090E00895FC011082E9E7F3E286A197A1A6
:101AA000019797A386A30895009741F0FC01E7579B
:101AB000FF4F8EE1EE34F80718F015C0EAE9F3E1C4
:101AC0008081882339F003C08081882319F08E2F0C
:101AD0009F2F0895E757FF4F8EE1EE34F807A0F3EC
:101AE00080E090E0089580E090E00895FC01DC0142
:101AF000AD57BF4F1C92A9E7B3E214969C9114977F
:101B00009F5F14969C93149794878D919C919687D0
:101B100085870895A3E5BEE180E090E04FEF5FEF99
:101B2000FD01349751834083FC01EE0FFF1FEE0F40
:101B3000FF1FEE0FFF1FE81BF90BE25BF14E208148
:101B40002E7F20831C92019617968436910541F7CB
:101B500008950F931F93CF93DF93EFE4FEE120E00E
:101B600030E0062F10E04081518148175907B1F449
:101B7000D901AA0FBB1FAA0FBB1FAA0FBB1FA21B15
:101B8000B30BA25BB14E4C9146954170C42F40E01F
:101B9000D42FC017D10711F4CD0108C02F5F3F4FDC
:101BA000379624363105F9F680E090E0DF91CF9149
:101BB0001F910F910895CF93DF93E3E5FEE12FE0AE
:101BC00031E2C0E0D0E0DF0115978C9180FD0BC0C1
:101BD0008081882369F0209729F09D81891718F466
:101BE000ED0101C0ED013796E217F30761F7DE0161
:101BF0008C918D7080638C9380E815968C931597EB
:101C0000CD01DF91CF910895FC01808180FD05C059
:101C10008FEF9FEF92838183158208959ADF00975B
:101C200021F0FC018381948108958FEF9FEF089547
:101C300090DF009709F0E8CF08950F931F93CF939B
:101C4000DF93FC010185128511232CF4858596858F
:101C500008171907E1F5858196810196C1F1EF0119
:101C600060E08585968575DFFC01892BA1F08F8169
:101C700098850196F9F42091792330917A238F8504
:101C8000988928173907B1F41483038380818F70F2
:101C9000806380830AC08FDFFC018D859E859283DF
:101CA000818389859A8594838383CD57DF4F88818B
:101CB00086830DC08381948108171907B1F3DE0173
:101CC000AD57BF4F9C9186818917F0F2EECFDF911F
:101CD000CF911F910F910895CF93DF93FC018785DA
:101CE00090898F3F2FEF9207D9F1EF01638563FB56
:101CF000662760F92EDFDC01892B91F18C9180FD44
:101D00002FC0FE01ED57FF4F8081811119C08C91CA
:101D10008F7080638C9315968C9115978F5F1596B5
:101D20008C938F3FE9F4E3E5FEE12FE031E280811F
:101D300086958F5F80833796E217F307C1F710C04F
:101D40009C91892F82958F70815F8F70282F2295AB
:101D5000207F9F70922B9C93811102C0CD0154DF94
:101D6000DF91CF910895CF93DF93FC018785908910
:101D70008F3F2FEF920729F48FEF9FEF9087878394
:101D80000EC0238522FF03C09087878308C0EF0120
:101D9000638563FB662760F941DF98878F83DF9156
:101DA000CF910895AF92BF92CF92DF92EF92FF92C0
:101DB0001F93CF93DF93EC011B8513FB112710F9C1
:101DC000CF84D888612FC60129DF019659F0FE0122
:101DD000E957FF4F11821082319782E08083CE0154
:101DE00078D322C0AD84BE841CDE7C010097D1F084
:101DF0007DDEF70181818A5F8183E957FF4F118280
:101E00001082F701B08AA786EF57FF4F0190F0814B
:101E1000E02D81E08083B282A182D482C3821583C7
:101E2000C70157D3CE0136DEDF91CF911F91FF90CE
:101E3000EF90DF90CF90BF90AF900895DC011796A0
:101E4000ED91FC91189719968C91863031F465814B
:101E500083819481EDDE81E0089580E00895DC01C6
:101E600019962C911997222371F01796ED91FC91F8
:101E700018972081222319F0213019F006C0BDC324
:101E80000895DCCF089580E0089580E00895BC01B6
:101E9000ECE1F1E22EE431E240E051E0908199235F
:101EA00019F091509083452F3596E217F307B1F75B
:101EB000442311F0CB01ACC60895ECE1F1E28EE4CD
:101EC00091E210823596E817F907D9F7EAE0F1E2D6
:101ED00084E690E0A0E0B0E086839783A087B18796
:101EE000128687E49FE0948783876FE27FE080E03B
:101EF00091CC0895CF93DF93DC01ED91FC91119784
:101F000021812838F9F420812F7D2134D9F41296CB
:101F10002C912031B8F0EC0184DD009799F020E29B
:101F2000FC0120832A8121832B81ED57FF4F2083E1
:101F30002C81319620834A8150E068817981029614
:101F40000E942E4EDF91CF9108952F923F924F9293
:101F50005F926F927F928F929F92AF92BF92CF9239
:101F6000DF92EF92FF920F931F93CF93DF93CDB742
:101F7000DEB72E970FB6F894DEBF0FBECDBF00E0E0
:101F800010E00F2EF4E2DF2EF02D0F2EF9E78F2E4A
:101F9000F3E29F2EF02D6894CC24C4F80F2EFCE1C0
:101FA0004F2EF1E25F2EF02D0F2EF8E16F2EF1E2B1
:101FB0007F2EF02D0F2EFAE4EF2EF1E2FF2EF02D02
:101FC000312C212C5801DDC1D5018C91823209F4CC
:101FD00007C118F4803241F0D4C1833209F4CCC176
:101FE000843209F4CCC1CDC1F501D0828385982F0C
:101FF0009A7009F0C6C1258136812F3F3F4F91F479
:10200000D5011F968D919C915097F40120813181CB
:102010002817390719F0019609F0B3C1E2E2D5019A
:10202000EC93AFC1D5011F962D913C9150972F3F56
:102030003F4F11F480FDA5C1F40120813181D5010C
:102040001D968D919C911E972817390709F499C107
:10205000C501F3DDF301432D522D632D722D5E86F4
:102060004D86AD85BE858C91882309F46CC0D50161
:102070001D962D913C911E978081918128173907DB
:1020800009F062C0F5019485FA01EE0FFF1FEE0F13
:10209000FF1FE40FF51FE85EFE4D8281891B88302B
:1020A000C8F5FA01EE0FFF1FEE0FFF1FE40FF51F3B
:1020B000E85EFE4D9381292F30E0082E02C0359551
:1020C00027950A94E2F720FF12C0D4012D913C918C
:1020D000F501878190852817390709F052C163857A
:1020E00063FB662760F987859089A2DD4AC1FA0102
:1020F000EE0FFF1FEE0FFF1FE40FF51FE85EFE4D12
:1021000021E030E002C0220F331F8A95E2F7922BC4
:1021100093833EC1FA01EE0FFF1FEE0FFF1FE40F86
:10212000F51FE85EFE4D9283238130E08195A90181
:1021300002C0440F551F8A95E2F7CA01816083836C
:102140008FE1848325C1BF014F5F5F4F8D859E85E1
:1021500005969E878D873596EE15FF0509F081CF90
:102160006115710509F40DC1D5011D968D919C91E4
:102170001E97FB01918380831C968C91828321E0C2
:1021800023838FE184838AE091E242D501C1D401A7
:102190002D913C91F501878590892817390781F0A9
:1021A000438542FD0BC0C501E3D1D4012D913C9183
:1021B000F501878590892817390711F0019621F4D8
:1021C000E2E2D501EC93DDC0D50117968D919C918B
:1021D00018972817390709F0D4C083E28C93D1C02F
:1021E00010921721F501218922952F70E22FF0E03E
:1021F000EE0FFF1FE158FC4D0190F081E02D30976C
:1022000009F463C0D5011D968D919C911E979A8308
:1022100089831F964D915C9150975C834B835196B7
:102220003C9151973F703D832E83AF57BF4F6D91C7
:102230007C917987688795012E5F3F4F261B370B6E
:10224000D50111963C911197230F2A87AD57BF4FA7
:102250002C912B8711962C912C87D5011B962C91B4
:10226000622F637022FD02C030E001C030E2632BB8
:1022700023FD02C030E001C030E4262F232B4F3F66
:102280005F4F11F030E001C034E0232BD5011996E7
:102290004D915C911A978417950711F090E001C059
:1022A00098E0822F892B8F83D50115962D913C9133
:1022B00016972F3F3F4F11F090E001C09C2D892BC6
:1022C0008F83CE010196199501C080E0F5019385B9
:1022D00090FF80E0D50117962D913C9118972F3FE4
:1022E0003F4F69F4F40140815181D5011F962D9132
:1022F0003C9150974217530711F493FF81E0F50189
:10230000258136812F3F3F4FA1F1D4012D913C9182
:102310002F3F3F4F71F1882361F183DB8C010097E0
:1023200041F1E4DBF80181818D5F8183E957FF4F43
:1023300011821082D5011B968C911B978695817016
:10234000F801938580FB91F993871D968D919C915F
:102350001E97908B8787EF57FF4F0190F081E02DFC
:1023600010828091172182831C968C918183C801F1
:10237000B0D0D501DC9205C0C50114DD02C0C50195
:1023800089DBC50191DB5C01892B09F01DCE07C0FB
:10239000F50187819085019609F007CFF8CE2E963A
:1023A0000FB6F894DEBF0FBECDBFDF91CF911F9166
:1023B0000F91FF90EF90DF90CF90BF90AF909F90E4
:1023C0008F907F906F905F904F903F902F900895E7
:1023D000EF92FF920F931F93CF937C0110E080E068
:1023E00090E001E0C3E113C0FC012081213179F4C8
:1023F000EC57FF4F208131812150310931832083F7
:10240000232B21F4FC01C083102F01C0102F4CDBC3
:10241000009751F7112311F0C701FAD3CF911F9103
:102420000F91FF90EF900895EF92FF920F931F93FB
:10243000CF93DF937C0110E080E090E001E0D7E1F2
:10244000C0E116C0FC012081263191F4EC57FF4F0A
:10245000208131812150310931832083232B39F4AC
:10246000FC01D083ED57FF4FC083102F01C0102F08
:102470001BDB009739F7112311F0C701C9D3DF9196
:10248000CF911F910F91FF90EF90089510926521C9
:1024900010926421E7E5F1E282E390E0A0E0B0E091
:1024A00086839783A087B187128684E192E194871F
:1024B0008387EAE4F1E28AE090E0A0E0B0E086837E
:1024C0009783A087B187128688EE91E194878387EE
:1024D0000895CF93DF93EC01FC01EA57FF4F808111
:1024E00081FF03C092E1988302C092E19883FE01CC
:1024F000ED57FF4F108280FF05C02FEF3FEF3E8367
:102500002D8306C020917B2330917C233E832D8335
:10251000857019F4CE0127DC04C08F8598899887CF
:102520008F83E9E7F3E2808191819A8789878581AA
:102530008F5F85838C838F819885019671F481E408
:1025400098E89B838A830E94134ECC57DF4F877095
:10255000992701969983888308C081E698E89B8330
:102560008A83CC57DF4F19821882DF91CF9108956B
:102570000F931F93CF93DF938C0153DAEC01892BD8
:10258000B9F182E18883F80181818983FE01ED57E9
:10259000FF4F10820E94134EFE01EC57FF4F8770D1
:1025A0009927019691838083339611821082F801D6
:1025B000418150E0B8016E5F7F4FCE0102960E94CC
:1025C0002E4E81E498E89B838A838FEF9FEF988754
:1025D0008F83F801858196819E838D83E9E7F3E2FD
:1025E000808191819A87898785818F5F85838C839C
:1025F000DF91CF911F910F910895CF93DF93FC014D
:10260000C781D08581858330C1F480E090E010C01F
:10261000FC012081263161F434852981321308C000
:1026200027E120832A81EA57FF4F208381E006C0FB
:102630003BDA009769F780E001C080E0DF91CF913D
:102640000895E0916421F0916521813021F048F0F6
:10265000823019F004C080E205C081E203C081E04D
:1026600001C080E0DF01AD57BF4F8C9385E18083CF
:102670001092652110926421E9E7F3E286A197A107
:10268000019797A386A308959F92AF92BF92CF928E
:10269000DF92EF92FF920F931F93CF93DF93C0E0EF
:1026A000D0E00F2EF4E1AF2EF02D09E713E20F2E4C
:1026B000F7E1DF2EF02D0F2EF6E19F2EF02D0F2EDD
:1026C000F5E1EF2EF12CF02D0F2EF3E1CF2EF02DB2
:1026D0000F2EF1E1BF2EF02D60C088818331C1F053
:1026E00018F4823139F059C0853149F1873109F444
:1026F00045C053C0FE01EC57FF4F80819181892B6B
:1027000029F0B8828AE491E283D247C0C88245C0EA
:102710008091642190916521892B09F03EC0D0936E
:102720006521C0936421A8826981CE010296AFD051
:10273000F80186A197A1019697A386A32EC0FE015A
:10274000ED57FF4F8081811117C02D853E85F8011F
:10275000808191812817390769F48B8580FF0AC031
:102760009882FE01EC57FF4FF182E08287E591E20B
:102770004FD213C0D88211C0D8820FC0CE01ACDABC
:10278000FE01E957FF4F0190F081E02D309719F4D9
:10279000CE0180D902C0CE011995CE0185D9EC01B8
:1027A000892B09F09ACFDF91CF911F910F91FF9064
:1027B000EF90DF90CF90BF90AF909F900895809161
:1027C0006621982F9F70E4E5F1E08081807F892B5E
:1027D000808380916621882329F0809167218093EE
:1027E0005301089580916721982F9F71E8E4F1E0EB
:1027F0008081807E892B8083089593E090934201AD
:10280000E1E4F1E090819F719830E1F7809342011B
:10281000E1E4F1E090819F719813FCCF089588E086
:10282000ECDF8FEF80934F0180916821882311F0B6
:1028300086E1E3CF089580936821F1CF08958093D6
:102840006721BDCF0895CF93DF931F921F92CDB71D
:10285000DEB79A838983809362018A8180936301C2
:102860000F900F90DF91CF910895CF93DF931F9238
:102870001F92CDB7DEB79A838983809360018A81E6
:10288000809361010F900F90DF91CF9108950F9386
:102890001F93CF938C01C62F89E1AFDF8FEF809319
:1028A0004F0182E08C0F80938001CC2381F0F801EE
:1028B000C1502C2F30E02F5F3F4FC801820F931F74
:1028C000A1E8B1E021912D93E817F907D9F783E04A
:1028D0008093E92182E080934201CF911F910F9173
:1028E0000895EF92FF920F931F93CF93DF9310926F
:1028F000560186E082DFC0E0D0E0E12CF12C06E456
:1029000011E081E00E949A0BF80120812295269522
:102910002770237030E00C2E02C0220F331F0A9460
:10292000E2F7E22AF32A2296C031D10551F788E076
:1029300064DF8BEE8093560172DFC701DF91CF9188
:102940001F910F91FF90EF900895E9E3F1E08081EE
:1029500081608083109268211092662181E08093CB
:10296000E92188E04ADF8BEE80935601ECE4F1E048
:10297000808180688083B5DF80936D0108951F9307
:10298000CF93DF9300D01F921F92CDB7DEB7809117
:10299000E921823009F465C080914F0183FF3EC078
:1029A000A0917B016A2F70E0AB014F5F5F4F80E029
:1029B00090E020E0FC01E058FE4F3081FC01E75937
:1029C000FE4D30832F5F822F90E08417950794F39C
:1029D00089E691E29A838983A250AB83FB01E75990
:1029E000FE4D80818C83809147018A558D83CE0175
:1029F000019680DAE1E4F1E080818F718631E1F7C0
:102A0000EFE4F1E0808188608083ECE4F1E0808194
:102A10008F77808380818068808323C080914F017D
:102A200086FF1FC0809141018F718931A9F41091F7
:102A3000420112951695177049F0133021F01530A8
:102A400021F013E003C011E001C012E0E8DE81E0F4
:102A50008093E921812FF5DDEFE4F1E0808180644E
:102A600080830F900F900F900F900F90DF91CF9178
:102A70001F9108950E94860B6FD067DF0E94E50BBF
:102A80001092450108957BDF0E94130CCCC008957D
:102A90000F931F93CF93DF93EC018091EA219091E4
:102AA000EB21009709F445C04E815F8168857985E7
:102AB000FC0102811381248135814017510762078F
:102AC000730760F0DC0117C0028113812481358116
:102AD000401751076207730768F403C0FC01A0E0C8
:102AE000B0E0041B150B260B370B028313832483E2
:102AF00035830AC0DF01401B510B620B730BED9154
:102B0000FC911197309701F74A835B836C837D8337
:102B1000109741F08D919C91119799838883CD9363
:102B2000DC9315C099838883D093EB21C093EA216D
:102B30000EC0198218828E819F81A885B9858A83EB
:102B40009B83AC83BD83D093EB21C093EA21DF91BB
:102B5000CF911F910F9108951092EB211092EA21CD
:102B60000895CF93DF93A091EA21B091EB211097C4
:102B700091F1A817B90751F50AC08E179F0729F5DB
:102B8000109731F0208131812D933C9307C0FC01D7
:102B9000208131813093EB212093EA210190F08153
:102BA000E02D3097C1F04281538164817581EC0141
:102BB0008A819B81AC81BD81840F951FA61FB71FA1
:102BC00082839383A483B58306C0DF01ED91FC91DA
:102BD0001197309791F6DF91CF910895E091EA2116
:102BE000F091EB21309771F0E817F90721F40CC050
:102BF0008E179F0759F00190F081E02D3097C1F7B3
:102C000080E0089580E0089581E0089581E00895CE
:102C1000CF93DF93EC01E2DF811102C0CE0138DFF8
:102C2000DF91CF910895CF92DF92EF92FF92CF93F1
:102C3000DF9380917823882309F459C08FB7F894E3
:102C4000C0907823109278238FBFD12CE12CF12CE7
:102C5000CC0CDD1CEE1CFF1CD701C601880F991F90
:102C6000AA1FBB1F880F991FAA1FBB1FC80ED91E02
:102C7000EA1EFB1EC091EA21D091EB212097B9F109
:102C80008A819B81AC81BD81C816D906EA06FB0604
:102C900010F1C81AD90AEA0AFB0A8881998190932F
:102CA000EB218093EA218A85813011F4CE01F0DE98
:102CB000EB85FC85CE011995C091EA21D091EB21DD
:102CC0002097A9F08A819B81AC81BD81C816D90665
:102CD000EA06FB06F0F68A819B81AC81BD818C19E6
:102CE0009D09AE09BF098A839B83AC83BD83DF91B5
:102CF000CF91FF90EF90DF90CF9008958091D822F0
:102D00008F5F8093D822882319F01092D8220895DB
:102D100081E08093FD22089582E093E279CF0895C7
:102D20008091BA22813081F483E493E21ADF84E057
:102D30008093C4221092BF221092BE220E9485026C
:102D400084E593E265CF0895811110C083E493E296
:102D500008DF81E08093C4220E94DA010E940C0304
:102D600084E593E2FEDE8BE992E2FBCE08958CEEE1
:102D700091E20C94E136089581E0809396228FE2EF
:102D800092E00C949C27089580916922823008F08B
:102D90006AC080918022823049F018F48130C9F1F4
:102DA00049C08530A1F0863019F144C06091D92224
:102DB0007091DA228091DB220E94D7096091B722BC
:102DC0007091B8228091B9220E94200A43C060917C
:102DD000B7227091B8228091B9220E94200A609196
:102DE000D9227091DA228091DB220E94D70932C069
:102DF0006091B7227091B8228091B9220E94200A76
:102E00006091D9227091DA228091DB220E94200AFF
:102E100021C06091B7227091B8228091B9220E949E
:102E2000200A6091D9227091DA228091DB220E94DF
:102E3000D70910C06091B7227091B8228091B92251
:102E40000E94D7096091D9227091DA228091DB2209
:102E50000E94D709809169228F5F8093692282E066
:102E600093E2D6CE08956091B7227091B8228091F6
:102E7000B9220E94D7096091D9227091DA228091FB
:102E8000DB220E94D709109269228CED92E2C0CE1B
:102E90000895EF92FF920F931F93CF93DF93EFE08C
:102EA000F3E210820F2EF3E0FF2EF02DF1828BE083
:102EB000828360910F23709110238091112349EF39
:102EC0005BE10E944B0960910F2370911023809168
:102ED00011230E943509E8EAF2E21082C2E0C183C0
:102EE0008AE082836091A8227091A9228091AA220F
:102EF0000E943509EBEAF2E21082D1E0D18389E049
:102F000082836091AB227091AC228091AD220E94AD
:102F10003509E1E5F3E21082118288E08283609155
:102F2000512370915223809153230E943509EEEF73
:102F3000F2E2D0836894EE24E2F8E1826091FE220E
:102F40007091FF22809100230E94640A6091FE220A
:102F50007091FF22809100230E94060BE7EBF2E2C2
:102F6000C08305E001836091B7227091B8228091FF
:102F7000B9220E94C20AE9EDF2E2C08317E0118390
:102F80006091D9227091DA228091DB220E94C20ADC
:102F9000EBEEF2E2C083E1826091EB227091EC22D1
:102FA0008091ED220E94C20AEBEBF2E2C083F18233
:102FB0006091BB227091BC228091BD220E94C20A06
:102FC00000939922609198227091992280919A227F
:102FD0000E94C20A0F2EF6E0FF2EF02DF0926D2314
:102FE00060916C2370916D2380916E230E94C20AC0
:102FF00010937323609172237091732380917423D3
:103000000E94C20AE6E6F3E2C08311826091662361
:1030100070916723809168230E94640A60916623FF
:1030200070916723809168230E94060BE1E6F3E22A
:10303000C083D18360916123709162238091632367
:103040000E94640A609161237091622380916323DE
:103050000E94060BE4EBF2E2C083C1836091B422CC
:103060007091B5228091B6220E94640A6091B422C8
:103070007091B5228091B6220E94060BE2E1F3E244
:10308000D0830183609112237091132380911423C4
:103090000E94640A6091122370911323809114237B
:1030A0000E94060BEAE6F2E2D083F18260916A2286
:1030B00070916B2280916C220E94640A60916A2256
:1030C00070916B2280916C220E94060BE1ECF2E27F
:1030D000D08311836091C1227091C2228091C3225A
:1030E0000E94640A6091C1227091C2228091C32221
:1030F0000E94060BDF91CF911F910F91FF90EF90EF
:1031000008950F93CF93DF938091C422823009F406
:10311000F1C130F4882309F46EC0813051F034C31A
:10312000843009F481C208F436C1853009F43FC205
:103130002BC31092BA22C1E0C093962260919822CC
:103140007091992280919A220E94D709EEE6F2E2CC
:103150001386C38B85E0828BC18B84EF91E0A0E066
:10316000B0E08093082390930923A0930A23B0939F
:103170000B2388EE93E0A0E0B0E08093E2229093EE
:10318000E322A093E422B093E5228081813081F490
:103190008091012381110CC06091EB227091EC228F
:1031A0008091ED220E944A0B811102C01092C4222C
:1031B00080917622813021F080917122813011F44A
:1031C0001092C42280917222813019F485E080939C
:1031D000C42280917722813019F482E08093C42246
:1031E00080917822813009F0CFC283E08093C4229D
:1031F0001092EF22C9C28091EF22813031F4809188
:10320000EF228F5F8093EF2202C01092EF22109284
:10321000BA2281E080939622EEE6F2E2828B8AEF78
:1032200090E0A0E0B0E08093082390930923A0935E
:103230000A23B0930B2384EF91E0A0E0B0E08093E9
:10324000E2229093E322A093E422B093E5228089C6
:10325000813021F080917F22811114C060919822E9
:103260007091992280919A220E94D7091092792216
:1032700080914123811106C087E00E94E22281E013
:103280008093412380917E2281110FC080917F2203
:10329000813059F4609198227091992280919A22FC
:1032A0000E94930981E080937922809164238111A7
:1032B00006C084E00E94E22281E080936423809132
:1032C0007822813029F483E08093C4221092642311
:1032D00080918D22811116C080916E2281112AC0A9
:1032E00080917622811126C080917122811122C0A5
:1032F00085E00E94E222109264231092412381E033
:103300008093C42280918D228130A1F48091762215
:10331000813081F46091EB227091EC228091ED225A
:103320000E94D709EEE6F2E2108613828185813091
:1033300069F504C080917722813011F410927722D0
:1033400080917122813011F5809172228130F1F4E7
:103350008091D5229091D62201969093D622809387
:10336000D522893E9D4F08F40FC282E090E10E9471
:103370009C2F082F036000936D2220E142E065E45A
:103380008EEA0E9427220E946333FEC11092D62249
:103390001092D522F9C1CEE6D2E283E08A8B609109
:1033A00098227091992280919A220E94930981E03B
:1033B0008B871092BA228093962280916423811188
:1033C00011C082E00E94E22281E08093642384E6BF
:1033D0000E9413356091EB227091EC228091ED22D6
:1033E0000E94930980918D22813049F583E00E94EB
:1033F000E22262E081E60E941D361092642381E0A1
:103400008093EF221092C422CEE6D2E21A86609117
:10341000EB227091EC228091ED220E94D7091B864D
:103420006091512370915223809153230E944A0B43
:1034300091E0811101C090E090936E22A5C180912E
:103440007E22813049F583E00E94E22262E08EE62E
:103450000E941D361092642381E08093EF228093B6
:10346000C422CEE6D2E21A866091EB227091EC2261
:103470008091ED220E94D7091B86609151237091A3
:103480005223809153230E944A0B91E0811101C085
:1034900090E090936E2278C180917822813009F477
:1034A00073C183E00E94E22262E083E70E941D363E
:1034B0001092642381E08093EF228093C422CEE6B1
:1034C000D2E21A866091EB227091EC228091ED227B
:1034D0000E94D7091B8660915123709152238091DD
:1034E00053230E944A0B91E0811101C090E0909318
:1034F0006E224AC1EEE6F2E284E0828B1092BA229A
:1035000081E08093962282E0838B809164238111F5
:1035100008C00E94E22281E08093642383E60E9437
:10352000133580916E228130A9F48091012381119D
:1035300011C081E00E94E22262E081E60E941D3615
:103540001092642381E08093EF228093C422109232
:1035500077221AC18091682290916F22981788F083
:1035600081E00E94E22262E08EE60E941D36109207
:10357000642381E08093EF228093C422109277220B
:1035800003C180917722813009F4FEC081E00E945E
:10359000E22262E083E70E941D361092642381E0FC
:1035A0008093EF228093C42210927722EDC0809105
:1035B000BA22811108C083E493E22ADB8091BA2207
:1035C0008F5F8093BA228091D422893080F06091FD
:1035D000A8227091A9228091AA220E944A0B91E010
:1035E000811190E0909372221092D42203C08F5FD9
:1035F0008093D42280917222811108C083E493E2E7
:10360000B0DA81E08093C4221092BA2280916E22B7
:10361000813009F0B9C0809101238111B5C01092A9
:10362000C4221092BA22B0C08DE790E0A0E0B0E0D2
:103630008093082390930923A0930A23B0930B232C
:103640008AEF90E0A0E0B0E08093E2229093E32242
:10365000A093E422B093E5221092962282E0809318
:10366000802280915023813031F0C0F1823051F0BE
:10367000833089F030C084E593E273DA82E080938E
:1036800050232CC060E18CEE91E20E94F33683E07F
:103690008093502323C08091BE229091BF22813518
:1036A00023EC920790F080916A2381FF0BC08091F8
:1036B0006A238D7F80936A2360916A2382E090E180
:1036C0000E9425310E94633309C001969093BF2266
:1036D0008093BE2203C088E00E9490348091D4225F
:1036E0008930F0F06091A8227091A9228091AA22DD
:1036F0000E944A0B91E0811190E0909372226091B8
:10370000512370915223809153230E944A0B91E0E0
:10371000811101C090E090936E221092D42203C0D8
:103720008F5F8093D42280917222813051F48091F6
:10373000BA22813091F483E493E26ADA1092BA22D9
:103740000CC081110AC08091BA22811103C083E4A8
:1037500093E207DA81E08093BA2280916E22813071
:1037600099F48091012381110FC01092502381E0C0
:103770008093C4220E94DA010E940C038BE992E23A
:10378000F0D984E593E2EDD9DF91CF910F910895BF
:103790008091FD22882371F08091EF22882319F017
:1037A0001092EF2202C00E942C3486EC92E230DAB2
:1037B0001092FD22089580917822811119C0809184
:1037C0007622813021F080917122813049F460911C
:1037D000EB227091EC228091ED220C9493090895D4
:1037E0006091EB227091EC228091ED220C94D7092C
:1037F000089581E080936F23DECF0895CF93DF9308
:1038000080919722882309F460C00E941538CEE683
:10381000D2E2898373D68E8380EF8F8710929722AE
:10382000EBE7F0E08081877F808381E680937C00F6
:10383000EAE7F0E0808180648083808186FDFDCFAF
:103840008091790024E2829FC00111246FEF70E023
:103850000E94564D60937022609166237091672399
:10386000809168230E944A0B91E0811101C090E091
:1038700090938D2220916F2230E08091652390E01B
:103880000A972817390734F4EEE6F2E281E0808BDC
:10389000118A0DC08091652390E00A962817390798
:1038A0001CF010927E2203C082E080937E228091E1
:1038B00074228D3318F080E00E94903480916F2242
:1038C000853618F481E00E9490348091D7228130AF
:1038D00029F080916F23813009F0B4C08091D42207
:1038E000893008F4ACC060910F237091102380914F
:1038F00011230E944A0B91E0811190E09093712274
:103900005ADF6091A8227091A9228091AA220E9478
:103910004A0B91E0811190E0909372226091AB226A
:103920007091AC228091AD220E944A0B91E08111EE
:1039300001C090E0909373226091512370915223C3
:10394000809153230E944A0B91E0811101C090E0C5
:1039500090936E2260916623709167238091682313
:103960000E944A0B91E0811101C090E090938D225A
:103970006091612370916223809163230E944A0BBE
:1039800091E0811190E090938E226091B422709129
:10399000B5228091B6220E944A0B91E0811190E0FD
:1039A00090938F226091122370911323809114239E
:1039B0000E944A0B91E0811190E0909390226091D7
:1039C0006A2270916B2280916C220E944A0B91E0D6
:1039D000811190E0909391226091C1227091C22256
:1039E0008091C3220E944A0B91E0811190E0909354
:1039F000922280917622813021F080917122813053
:103A000039F480916E22811103C085E00E949034C8
:103A10001092D7221092D42280916E22811106C07A
:103A200080918D22811102C01092012380916F2319
:103A3000813041F48093FD2210926F2303C08F5F89
:103A40008093D422DF91CF910895D8DE5ADBA0CEA7
:103A500008958F929F92AF92BF92FF920F931F9300
:103A6000CF93DF93CDB7DEB729970FB6F894DEBFBB
:103A70000FBECDBF8C01F62E0E9488038093A62333
:103A8000882309F486C248E050E061E472E0C8018E
:103A90000E94214E892BA1F48091C42281110AC079
:103AA00080917622813031F483E00E949034FF24AB
:103AB000F39473C20E9452347EDEFF24F3946DC2ED
:103AC00048E050E06AE472E0C8010E94214E892B70
:103AD000A1F48091C422813051F480917622811129
:103AE00006C083E00E949034FF24F39456C20E94E3
:103AF0005C3461DEFF24F39450C248E050E063E59B
:103B000072E0C8010E94214E892B09F050C02FE0BD
:103B10002F1530F084E00E949034FF24F3943DC2CE
:103B20006EEF6F0DC8010E94F736F82E882309F456
:103B300032C2F801218530E02053310988EE93E04C
:103B4000289FA001299F500D389F500D11242285D8
:103B500030E02053310964E6629FC001639F900DFD
:103B60001124840F951F248530E020533109AC01C6
:103B7000420F531F238530E020533109C901880FBC
:103B8000991F220F331F220F331F220F331F280FBD
:103B9000391FCA01820F931F8D3FFFE09F0720F05E
:103BA00084E00E949034F9C10E946534F6C148E077
:103BB00050E06CE572E0C8010E94214E892B81F42F
:103BC0008091C422811106C083E00E949034FF24BA
:103BD000F394E3C181E080937722FF24F394DDC165
:103BE00048E050E065E672E0C8010E94214E892B52
:103BF00079F48091C422811106C083E00E94903440
:103C0000FF24F394CAC110927722FF24F394C5C114
:103C100048E050E06EE672E0C8010E94214E892B18
:103C200081F48091C422811106C083E00E94903407
:103C3000FF24F394B2C181E080937822FF24F394AF
:103C4000ACC148E050E067E772E0C8010E94214E35
:103C5000892B79F48091C422811106C083E00E94EF
:103C60009034FF24F39499C110927822FF24F394A6
:103C700094C148E050E060E872E0C8010E94214E23
:103C8000892B09F092C023E12F1530F086E00E94C5
:103C90009034FF24F39481C16EEF6F0DC8010E9430
:103CA000F736F82E882309F47AC0F801A185B0E030
:103CB000D09720E03AEC4AE95BE30E94A84D4B0123
:103CC0005C01A285B0E0D09720E031EE45EF55E0F1
:103CD0000E94A84D860E971EA81EB91E828990E0EC
:103CE000C097092E000CAA0BBB0B880E991EAA1EAA
:103CF000BB1EA385B0E0D09720E836E948E950E044
:103D00000E94A84D860E971EA81EB91EA485B0E07D
:103D1000D09720E432E44FE050E00E94A84D860E98
:103D2000971EA81EB91EA585B0E0D09720EA36E8F8
:103D300041E050E00E94A84D860E971EA81EB91EB5
:103D4000A685B0E0D09720E137E20E94A24D860E12
:103D5000971EA81EB91EA785B0E0D09728EE33E0C5
:103D60000E94A24D860E971EA81EB91EA089B0E023
:103D7000D09724E630E00E94A24D860E971EA81E22
:103D8000B91EA189B0E0D0972AE030E00E94A24D90
:103D9000680D791D8A1D9B1D0E942635FEC087E097
:103DA0000E949034FF24F394F8C048E050E069E8A2
:103DB00072E0C8010E94214E892B39F486EC92E210
:103DC0000E94B115FF24F394E8C048E050E062E996
:103DD00072E0C8010E94214E892B29F40E942E35E1
:103DE000FF24F394DAC048E050E06BE972E0C801C8
:103DF0000E94214E892B29F40E946333FF24F394FF
:103E0000CCC048E050E064EA72E0C8010E94214E54
:103E1000892B29F40E943735FF24F394BEC048E073
:103E200050E06DEA72E0C8010E94214E892B71F5C5
:103E3000F1E1FF1530F084E00E949034FF24F39408
:103E4000ACC06EEF6F0DC8010E94F736F82E8823C4
:103E5000B9F0CE01019626E0FC0111922A95E9F70E
:103E6000F8012185298322852A8323852B832485B4
:103E70002C8325852D8326852E830E945B358DC05E
:103E800084E00E949034FF24F39487C048E050E01F
:103E900066EB72E0C8010E94214E892B49F480E252
:103EA0000E94853580E20E94D135FF24F39475C0CD
:103EB00048E050E06FEB72E0C8010E94214E892B70
:103EC00029F40E949036FF24F39467C048E050E044
:103ED00068EC72E0C8010E94214E892B29F40E94EF
:103EE000BC36FF24F39459C048E050E061ED72E025
:103EF000C8010E94214E892B09F045C0FBE1FF1546
:103F000030F088E00E949034FF24F39446C06EEFB6
:103F10006F0DC8010E94F736F82E882371F1D80181
:103F20001996ECEEF1E2CF01805F2D919191291766
:103F300029F089E00E949034F12C2FC08E13F5CF28
:103F4000CE01019629E0FC0111922A95E9F7F801CA
:103F5000238D2983248D2A83258D2B83268D2C83E5
:103F6000278D2D8320A12E830E94643381E08093CE
:103F7000502388EE93E07ED110C08AE00E949034F6
:103F8000FF24F3940AC08BE00E949034FF24F39442
:103F900004C0F12C02C0FF24F3948F2D29960FB694
:103FA000F894DEBF0FBECDBFDF91CF911F910F916F
:103FB000FF90BF90AF909F908F9008950F93CF93F5
:103FC000DF931F921F92CDB7DEB7198288E08A83F4
:103FD0008FEB64D100E12CEE31E24FEB62E0CE01D9
:103FE0000196DDD10F900F90DF91CF910F91089541
:103FF0000F931F93CF93C1E0C093D722C0930123A7
:10400000C0939722C093FD22C0936F231092D422B5
:10401000109269221092BA2210926423C093C42293
:104020001092752310927723109276231092D82243
:104030001092C022C09396221092412310925023D6
:104040001092EF221092D6221092D52287E8809308
:104050007A000E94B7379CD264E072E088EC90E06E
:104060000E948D06E2E0F3E284EF91E0A0E0B0E090
:1040700086839783A087B187128684EC96E1948724
:104080008387CF010E940816ECEDF2E288EE93E000
:10409000A0E0B0E086839783A087B18712868CE882
:1040A00096E1948783870E94134EE6ECF2E200E9E2
:1040B00011E0B8010E94564D8C599F4F092E000CFB
:1040C000AA0BBB0B86839783A087B18712868EE7E6
:1040D00096E1948783870E94134EEBE9F2E2B801E0
:1040E0000E94564D8C599F4F092E000CAA0BBB0BFA
:1040F00086839783A087B18712868CEB96E194879D
:104100008387E4E5F3E288E893E1A0E0B0E086830A
:104110009783A087B187C28727EB36E1348723874F
:10412000E3E4F3E286839783A087B187128680E970
:1041300096E1948783870E94EB3740DF6091FE22EF
:104140007091FF22809100230E944A0B811108C0C8
:10415000EEE6F2E2178286E0838B0E94C83103C04C
:1041600081E080937522CF911F910F9108958091E6
:104170006A2381FF0EC084E08093C4221092BF2284
:104180001092BE220E94850284E593E20C940816E8
:10419000089581E08093C42208950F93062F292F5C
:1041A000482F65E48EEA53D18AE090E063D00F9106
:1041B000089582E090E10E949C2F80936A2384E01E
:1041C00090E10E949C2F8093652383E090E10E9400
:1041D0009C2F8093682280916A2380FF2EC061E02B
:1041E0008CEF9FE0DADF60E08DEF9FE0D6DF60E1EB
:1041F0008EEF9FE0D2DF60E08FEF9FE0CEDF64E3E1
:1042000080E090E1CADF62E181E090E1C6DF6FE823
:1042100083E090E1C2DF66E684E090E1BEDF9CD1FE
:1042200080916A238E7F80936A2360916A2382E063
:1042300090E1B3DF8AE090E01DC008951F93CF9313
:10424000DF93D82F192F41E0480F292F65E48FEA1B
:1042500029D1C82F212F4D2F65E48FEA23D12C2F90
:1042600030E0322F2227A901482BCA01DF91CF91DC
:104270001F91089528EE33E0AC01429FC001439F97
:10428000900D529F900D1124009739F020E030E0FE
:104290002F5F3F4F28173907D9F708950F931F93C2
:1042A000CF93DF9300D000D0CDB7DEB7BE016F5FF4
:1042B0007F4F96E0FB0111929A95E9F708E418EE1A
:1042C00021E030E009831A832B833C838E8388E1CD
:1042D0008D8388EB90E00E94120426960FB6F89426
:1042E000DEBF0FBECDBFDF91CF911F910F9108951B
:1042F000EF92FF920F931F93CF93DF93CDB7DEB76B
:104300002A970FB6F894DEBF0FBECDBFF9019E010C
:104310002F5F3F4F79012AE0D7011D922A95E9F7D7
:104320004983DC013C913A83462F50E05E834D8304
:10433000F887EF8310E01A8709876130C9F062308F
:1043400029F411968C918A833B8312C0633081F4E7
:10435000FC0121812B8382818C830AC081E090E063
:1043600089DF115031F481E00E94363781E00AC0C4
:104370001AE0BE016F5F7F4F88EB90E00E94B103AF
:104380008111ECCF2A960FB6F894DEBF0FBECDBFD9
:10439000DF91CF911F910F91FF90EF900895EF92D1
:1043A000FF920F931F93CF93DF93CDB7DEB72A977A
:1043B0000FB6F894DEBF0FBECDBFF9019E012F5F8F
:1043C0003F4F79012AE0D7011D922A95E9F74983E9
:1043D000DC013C913A83462F50E05E834D83F887A1
:1043E000EF8310E01A8709876130C9F0623029F441
:1043F00011968C918A833B8312C0633081F4FC0157
:1044000021812B8382818C830AC081E090E032DF9E
:10441000115031F481E00E94363783E00BC01AE07E
:10442000BE016F5F7F4F88EB90E00E94DD0381113A
:10443000ECCF82E02A960FB6F894DEBF0FBECDBF58
:10444000DF91CF911F910F91FF90EF900895FF9210
:104450000F931F93CF93DF9300D0CDB7DEB7182F04
:10446000653419F0FF24F39403C06894FF24F1F835
:1044700049832A830B83812F11DF01E09E012D5F89
:104480003F4F412F6F2DCE01019632DF85E090E046
:10449000F1DE0F900F900F90DF91CF911F910F9150
:1044A000FF900895FF920F931F93CF93DF9300D057
:1044B0001F92CDB7DEB7182F653419F0FF24F3949F
:1044C00003C06894FF24F1F849832A831B821C826D
:1044D000812FE4DE01E09E012D5F3F4F412F6F2DC4
:1044E000CE0101965CDF8B810F900F900F900F90A3
:1044F000DF91CF911F910F91FF9008950F93CF936C
:10450000DF9300D01F92CDB7DEB719821A821B82CB
:104510001C8280E9C3DE00E020E030E040E961E099
:10452000CE010196E5DE811109C002E09E012D5FFA
:104530003F4F41E961E0CE01019631DF8B8190E090
:10454000880F991F959587950F900F900F900F905A
:10455000DF91CF910F9108950F93CF93DF93C0E038
:10456000D0E00FEF2D2F4C2F65E48EEA70DF8AE04C
:1045700090E080DEA8952196CC3F8FE0D80789F7A0
:104580001092772310927623DF91CF910F910895A7
:10459000CF93DF93C0E0D0E0CE010E949C2F8F3FED
:1045A00029F4D0937723C093762305C02B96CC3F74
:1045B0008FE0D80789F7DF91CF9108956FEF0C94C2
:1045C000253108952F923F924F925F926F927F9282
:1045D0008F929F92AF92BF92CF92DF92EF92FF9213
:1045E0000F931F93CF93DF93CDB7DEB76E970FB6C0
:1045F000F894DEBF0FBECDBF81113FC080917623FE
:10460000909177238C3F9F4020F010927723109257
:104610007623409176232091772303E465E48EEAA4
:1046200016DF8091762390917723019690937723DC
:10463000809376238AE090E01DDE8091762390912E
:1046400077238C3F9F4020F010927723109276239F
:10465000409176232091772303E565E48EEAF7DE27
:10466000809176239091772301969093772380937E
:1046700076238AE090E0FEDD0CC2813009F03FC075
:1046800080917623909177238C3F9F4020F0109269
:10469000772310927623409176232091772303E4A9
:1046A00065E48EEAD4DE809176239091772301969B
:1046B00090937723809376238AE090E0DBDD8091EE
:1046C0007623909177238C3F9F4020F010927723A0
:1046D00010927623409176232091772305E465E4B8
:1046E0008EEAB5DE809176239091772301969093A0
:1046F0007723809376238AE090E0BCDDCAC18230C4
:1047000009F03FC080917623909177238C3F9F40A2
:1047100020F01092772310927623409176232091F7
:10472000772304E465E48EEA92DE8091762390910B
:104730007723019690937723809376238AE090E005
:1047400099DD80917623909177238C3F9F4020F0D4
:10475000109277231092762340917623209177232D
:1047600003E565E48EEA73DE8091762390917723EA
:10477000019690937723809376238AE090E07ADD08
:1047800088C1833009F03FC08091762390917723D0
:104790008C3F9F4020F01092772310927623409117
:1047A00076232091772304E465E48EEA50DE80913D
:1047B00076239091772301969093772380937623A5
:1047C0008AE090E057DD80917623909177238C3FAB
:1047D0009F4020F010927723109276234091762309
:1047E0002091772305E465E48EEA31DE809176231B
:1047F00090917723019690937723809376238AE094
:1048000090E038DD46C1843009F03FC080917623C6
:10481000909177238C3F9F4020F010927723109245
:104820007623409176232091772305E465E48EEA90
:104830000EDE8091762390917723019690937723D3
:10484000809376238AE090E015DD80917623909125
:1048500077238C3F9F4020F010927723109276238D
:10486000409176232091772303E565E48EEAEFDD1E
:10487000809176239091772301969093772380936C
:1048800076238AE090E0F6DC04C1853009F03FC071
:1048900080917623909177238C3F9F4020F0109257
:1048A000772310927623409176232091772305E495
:1048B00065E48EEACCDD8091762390917723019692
:1048C00090937723809376238AE090E0D3DC8091E5
:1048D0007623909177238C3F9F4020F0109277238E
:1048E00010927623409176232091772305E465E4A6
:1048F0008EEAADDD80917623909177230196909397
:104900007723809376238AE090E0B4DCC2C08630BF
:1049100009F03FC080917623909177238C3F9F4090
:1049200020F01092772310927623409176232091E5
:10493000772302E465E48EEA8ADD80917623909104
:104940007723019690937723809376238AE090E0F3
:1049500091DC80917623909177238C3F9F4020F0CB
:10496000109277231092762340917623209177231B
:1049700003E465E48EEA6BDD8091762390917723E2
:10498000019690937723809376238AE090E072DCFF
:1049900080C0873009F03FC08091762390917723C3
:1049A0008C3F9F4020F01092772310927623409105
:1049B00076232091772302E465E48EEA48DD809136
:1049C0007623909177230196909377238093762393
:1049D0008AE090E04FDC80917623909177238C3FA2
:1049E0009F4020F0109277231092762340917623F7
:1049F0002091772304E465E48EEA29DD8091762313
:104A000090917723019690937723809376238AE081
:104A100090E030DC3EC080917623909177238C3FEC
:104A20009F4020F0109277231092762340917623B6
:104A3000209177230EE465E48EEA09DD80917623E8
:104A400090917723019690937723809376238AE041
:104A500090E010DC80917623909177238C3F9F40EB
:104A600020F01092772310927623409176232091A4
:104A700077230EE465E48EEAEADC80917623909158
:104A80007723019690937723809376238AE090E0B2
:104A9000F1DB80917922809375230E94E2376B01CC
:104AA0007C014F2D5527662777274E2C8D2CA09102
:104AB0008D22E0E8AE9FD001112480917222817096
:104AC000A82B80917122817089831A8289819A81B1
:104AD000880F991F9A2F982B8091752280FB222492
:104AE00020F8312C220C331C220C331C292AAEE670
:104AF000B2E28C9181708B831C82EB81FC81EE0F82
:104B0000FF1FEE0FFF1FEE0FFF1F822D8E2B9091C8
:104B1000732291709D831E822D813E812295329554
:104B2000307F3227207F3227282E222A80917E2232
:104B300081708F8318868F819885880F991F829541
:104B40009295907F9827807F98278229909176224E
:104B5000917099871A8629843A8400243694279480
:104B60000794369427940794322C202C282AA0915D
:104B70009522E0E8AE9FD0011124809180228770B9
:104B80008A2B9091792291709B871C86EB85FC85FE
:104B9000EE0FFF1FEE0FFF1FEE0FFF1F8E2B9091EA
:104BA0007C2291709D871E862D853E8522953295AB
:104BB000307F3227207F3227282B809193228170EB
:104BC0008F87188A8F859889880F991F829592956B
:104BD000907F9827807F9827822B909194229170C4
:104BE000998B1A8A29893A89002436952795079442
:104BF000369527950794322F202D182F122B809150
:104C00008F2281708B8B1C8AEB89FC89EE0FFF1F32
:104C10008091902281708D8B1E8A8D899E89880F4C
:104C2000991F880F991F8E2BE0918E22E1708E2B99
:104C30009091912291709F8B188EEF89F88DEE0FD5
:104C4000FF1FEE0FFF1FEE0FFF1F8E2B9091922282
:104C50009170998F1A8E298D3A8D22953295307FD9
:104C60003227207F3227282B8091772281708B8FEB
:104C70001C8E8B8D9C8D880F991F82959295907FAD
:104C80009827807F9827822B9091782291709D8F12
:104C90001E8E2D8D3E8D00243695279507943695D2
:104CA00027950794322F202D382E322A8091762393
:104CB000909177238C3F9F4020F0109277231092A1
:104CC00076238091762320917723042F482F65E463
:104CD0008EEABDDB809176239091772301969093A5
:104CE0007723809376238AE090E0C4DA809176235C
:104CF000909177238C3F9F4020F010927723109261
:104D000076234091762320917723042D65E48EEA63
:104D10009EDB809176239091772301969093772361
:104D2000809376238AE090E0A5DA809176239091B3
:104D300077238C3F9F4020F01092772310927623A8
:104D40004091762320917723082D65E48EEA7FDB5E
:104D50008091762390917723019690937723809387
:104D600076238AE090E086DA80917623909177230B
:104D70008C3F9F4020F01092772310927623409131
:104D80007623209177230C2D65E48EEA60DB8091F9
:104D900076239091772301969093772380937623BF
:104DA0008AE090E067DA80917623909177238C3FB8
:104DB0009F4020F010927723109276234091762323
:104DC0002091772300916F2265E48EEA40DB809189
:104DD000762390917723019690937723809376237F
:104DE0008AE090E047DA80917623909177238C3F98
:104DF0009F4020F0109277231092762340917623E3
:104E0000209177230091742265E48EEA20DB809163
:104E1000762390917723019690937723809376233E
:104E20008AE090E027DA80917623909177238C3F77
:104E30009F4020F0109277231092762340917623A2
:104E400020917723022D65E48EEA01DB80917623A1
:104E500090917723019690937723809376238AE02D
:104E600090E008DA80917623909177238C3F9F40E1
:104E700020F0109277231092762340917623209190
:104E80007723012F65E48EEAE2DA80917623909110
:104E90007723019690937723809376238AE090E09E
:104EA000E9D980917623909177238C3F9F4020F021
:104EB00010927723109276234091762320917723C6
:104EC000032D65E48EEAC3DA8091762390917723EF
:104ED000019690937723809376238AE090E0CAD955
:104EE00080917623909177238C3F9F4020F0109201
:104EF00077231092762380917623909177235EDB3F
:104F00008AE090E0B7D96E960FB6F894DEBF0FBE78
:104F1000CDBFDF91CF911F910F91FF90EF90DF9068
:104F2000CF90BF90AF909F908F907F906F905F9049
:104F30004F903F902F9008950F931F93CF93FC01B4
:104F40006081662369F08C01C0E088EC90E00E94EB
:104F5000F705CF5FF801EC0FF11D60816111F5CF0E
:104F6000CF911F910F91089590914223992319F0A9
:104F70009130B9F00895E0EFF2E22DEF32E290E2E5
:104F80009193E217F307E1F78B3521F481E08093E9
:104F9000422308958D3519F51092D32210924223A1
:104FA00008958D3541F41092D3221092422381E06E
:104FB0008093AF2208959091D3229D3048F4E92F39
:104FC000F0E0E051FD4D80839F5F9093D3220895E0
:104FD0001092D322109242238AED92E0ADCF089531
:104FE000CF93C82F682F62956F706A3010F0695C9C
:104FF00001C0605D88EC90E00E94F705CF70CA3078
:1050000018F067E36C0F02C060E36C0F88EC90E06F
:105010000E94F705CF9108951092AF22E091F022FF
:105020008E2F90E0FC01F197E930F105B0F488276C
:10503000ED59FE4F8F4F0C948B4D82E0089583E025
:10504000089584E0089585E0089586E0089587E056
:10505000089588E0089589E008958AEF92E06CDF72
:1050600080E0089581E008951092AF228091F022AF
:105070008133A1F018F4803351F00BC0823319F062
:10508000833319F006C082E0089583E0089584E038
:1050900008958AEF92E050DF85E0089581E0089559
:1050A0000F931F93CF93FC016081662369F08C01FD
:1050B000C0E088EC90E00E94F705CF5FF801EC0FAC
:1050C000F11D60816111F5CFCF911F910F9108956E
:1050D000CF93C62FE5DF8CE093E02EDF8C2F80DFAF
:1050E000CF9108959F92AF92BF92CF92DF92EF92AD
:1050F000FF920F931F93CF93DF93F62E6A0121E067
:10510000209315231092AF22182FB92EC0EFD2E2B0
:10511000AA24A394A80E5BC03091AF223130E1F7EE
:1051200081E3F81621F082E3F816F1F04DC0888192
:105130000E942337E82E89810E942337EE0CEE0C63
:10514000EE0CEE0CE82A0E2D2B2D412F65E48EEA95
:105150007ED96E2DC601BCDF8AE090E08BD810921C
:1051600015231092AF2233C088810E942337E82E86
:1051700089810E942337EE0CEE0CEE0CEE0CE82A2F
:105180000E2D2B2D4A2D65E48EEA61D98A810E946D
:105190002337982E8B810E942337082F6E2DC6014E
:1051A00097DFE92CEE0CEE0CEE0CEE0CE02A0E2D47
:1051B0002B2D412F65E48FEA4AD98E2D11DF1092F5
:1051C00015231092AF2203C089E193E0B5DE309140
:1051D0001523313009F4A0CFDF91CF911F910F91AA
:1051E000FF90EF90DF90CF90BF90AF909F90089589
:1051F0008091B022823051F128F4882359F0813017
:10520000C9F041C0843009F439C060F1853009F437
:105210003FC039C086E493E08FDE84E793E08CDE04
:1052200089EE95E089DE81E08093E92285E0809334
:10523000B022089582EC93E07FDE45E458E062E31B
:105240008CEF9FE04FDF1092B02208958FED93E036
:1052500073DE46E358E062E38EEF9FE043DF109297
:10526000B02208958CEF93E067DE48E258E062E3F5
:1052700080E090E137DF1092B02208951092E92289
:1052800088E194E059DE89E08093C5221092B02233
:1052900008951092AF228091F022823361F028F4B9
:1052A000803389F08133B1F010C0843341F028F0AD
:1052B000853339F00AC082E0089583E0089584E0E0
:1052C000089585E0089587E008958AEF92E034DE3E
:1052D00086E0089581E00895DF92EF92FF920F93A8
:1052E0001F93CF93DF938091B12290E08A30910594
:1052F00008F0EFC5FC018827E459FE4F8F4F0C944E
:105300008B4D6091B7227091B8228091B9220E9492
:10531000D7096091D9227091DA228091DB220E9414
:10532000D7096091EB227091EC228091ED220E94CE
:10533000D7096091BB227091BC228091BD220E944E
:10534000D709609198227091992280919A220E94A7
:10535000D70960916C2370916D2380916E230E9418
:10536000D7096091722370917323809174230E94F6
:10537000D7098CE294E0E0DD8DE597E0DDDD60911A
:10538000662370916723809168230E944A0B8823CB
:1053900051F06091662370916723809168230E9489
:1053A0004A0B8111F6CF6091612370916223809145
:1053B00063230E944A0BE82E6091B4227091B522BB
:1053C0008091B6220E944A0BD82E609112237091D0
:1053D0001323809114230E944A0BF82E60916A22B5
:1053E00070916B2280916C220E944A0B082F609171
:1053F000C1227091C2228091C3220E944A0B182FB1
:105400006091A8227091A9228091AA220E944A0B41
:10541000D82F6091512370915223809153230E9481
:105420004A0BC82F60910F23709110238091112394
:105430000E944A0B21E0D11020E091E0E11090E0C1
:10544000292B91E0F11090E0922B21E0011120E056
:10545000292B91E0111190E0922B21E0D11120E055
:10546000292B91E0C11190E0922B29F491E0811158
:1054700090E0992349F089E394E05EDD85E494E0CF
:105480005BDD1092B12225C56091B7227091B822E0
:105490008091B9220E94930982E694E04DDD81E07B
:1054A0008093B12216C58CE294E046DD8EE694E04E
:1054B00043DD6091612370916223809163230E9498
:1054C0004A0B882351F0609161237091622380918F
:1054D00063230E944A0B8111F6CF6091662370917D
:1054E0006723809168230E944A0BE82E6091B422C2
:1054F0007091B5228091B6220E944A0BD82E6091FD
:10550000122370911323809114230E944A0BF82ECA
:1055100060916A2270916B2280916C220E944A0BEA
:10552000082F6091C1227091C2228091C3220E94F3
:105530004A0B182F6091A8227091A9228091AA226B
:105540000E944A0BD82F6091512370915223809171
:1055500053230E944A0BC82F60910F237091102390
:10556000809111230E944A0B21E0D11020E091E0AC
:10557000E11090E0292B91E0F11090E0922B21E0D6
:10558000011120E0292B91E0111190E0922B21E0F4
:10559000D11120E0292B91E0C11190E0922B29F448
:1055A00091E0811190E0992349F089E394E0C4DC13
:1055B00085E494E0C1DC1092B1228BC46091D922C1
:1055C0007091DA228091DB220E94930982E694E0B6
:1055D000B3DC82E08093B1227CC48CE294E0ACDC4A
:1055E0008DE292E0A9DC6091B4227091B5228091A5
:1055F000B6220E944A0B882351F06091B422709128
:10560000B5228091B6220E944A0B8111F6CF60919B
:10561000662370916723809168230E944A0BE82ECD
:105620006091612370916223809163230E944A0BF1
:10563000D82E6091122370911323809114230E941D
:105640004A0BF82E60916A2270916B2280916C2235
:105650000E944A0B082F6091C1227091C222809152
:10566000C3220E944A0B182F6091A8227091A92290
:105670008091AA220E944A0BD82F609151237091E9
:105680005223809153230E944A0BC82F60910F230D
:1056900070911023809111230E944A0B21E0D110B8
:1056A00020E091E0E11090E0292B91E0F11090E0F2
:1056B000922B21E0011120E0292B91E0111190E0C3
:1056C000922B21E0D11120E0292B91E0C11190E033
:1056D000922B29F491E0811190E0992349F089E31C
:1056E00094E02ADC85E494E027DC1092B122F1C337
:1056F0006091EB227091EC228091ED220E9493093F
:1057000082E694E019DC83E08093B122E2C38CE26C
:1057100094E012DC80E794E00FDC6091122370913A
:105720001323809114230E944A0B882351F0609127
:10573000122370911323809114230E944A0B81112C
:10574000F6CF6091662370916723809168230E9451
:105750004A0BE82E6091612370916223809163234C
:105760000E944A0BD82E6091B4227091B52280918C
:10577000B6220E944A0BF82E60916A2270916B2229
:1057800080916C220E944A0B082F6091C122709177
:10579000C2228091C3220E944A0B182F6091A82236
:1057A0007091A9228091AA220E944A0BD82F609161
:1057B000512370915223809153230E944A0BC82F8A
:1057C00060910F2370911023809111230E944A0B46
:1057D00021E0D11020E091E0E11090E0292B91E050
:1057E000F11090E0922B21E0011120E0292B91E0B3
:1057F000111190E0922B21E0D11120E0292B91E0B2
:10580000C11190E0922B29F491E0811190E099234D
:1058100049F089E394E090DB85E494E08DDB10921D
:10582000B12257C36091BB227091BC228091BD22EE
:105830000E94930982E694E07FDB84E08093B122AA
:1058400048C38CE294E078DB82E794E075DB6091FA
:105850006A2270916B2280916C220E944A0B8823ED
:1058600051F060916A2270916B2280916C220E94AB
:105870004A0B8111F6CF6091662370916723809166
:1058800068230E944A0BE82E609161237091622385
:10589000809163230E944A0BD82E6091B4227091AC
:1058A000B5228091B6220E944A0BF82E60911223F5
:1058B00070911323809114230E944A0B082F60914A
:1058C000C1227091C2228091C3220E944A0B182FDC
:1058D0006091A8227091A9228091AA220E944A0B6D
:1058E000D82F6091512370915223809153230E94AD
:1058F0004A0BC82F60910F237091102380911123C0
:105900000E944A0B21E0D11020E091E0E11090E0EC
:10591000292B91E0F11090E0922B21E0011120E081
:10592000292B91E0111190E0922B21E0D11120E080
:10593000292B91E0C11190E0922B29F491E0811183
:1059400090E0992349F089E394E0F6DA85E494E065
:10595000F3DA1092B122BDC260919822709199221F
:1059600080919A220E94930982E694E0E5DA85E02C
:105970008093B122AEC28CE294E0DEDA84E794E058
:10598000DBDA6091C1227091C2228091C3220E9411
:105990004A0B882351F06091C1227091C2228091FC
:1059A000C3220E944A0B8111F6CF60916623709149
:1059B0006723809168230E944A0BE82E609161233F
:1059C00070916223809163230E944A0BD82E6091CC
:1059D000B4227091B5228091B6220E944A0BF82E13
:1059E0006091122370911323809114230E944A0B1B
:1059F000082F60916A2270916B2280916C220E9424
:105A00004A0B182F6091A8227091A9228091AA2296
:105A10000E944A0BD82F609151237091522380919C
:105A200053230E944A0BC82F60910F2370911023BB
:105A3000809111230E944A0B21E0D11020E091E0D7
:105A4000E11090E0292B91E0F11090E0922B21E001
:105A5000011120E0292B91E0111190E0922B21E01F
:105A6000D11120E0292B91E0C11190E0922B29F473
:105A700091E0811190E0992349F089E394E05CDAA8
:105A800085E494E059DA1092B12223C260916C232C
:105A900070916D2380916E230E94930982E694E0B9
:105AA0004BDA86E08093B12214C28CE294E044DAAF
:105AB00086E794E041DA6091A8227091A922809152
:105AC000AA220E944A0B882351F06091A82270916B
:105AD000A9228091AA220E944A0B8111F6CF6091DF
