S00F0000504E4557454C532E73726563F7
S113000092C1000039C7000064C700008FC7000018
S1130010BAC70000E5C700000C941D080C944A08F8
S11300200C9477080C94A4080C94D1089CC100008B
S11300309AC1000098C1000096C100000C94D33707
S113004092C1000090C100008EC100008CC100006C
S11300508AC1000088C1000086C100000C94A53745
S113006082C1000080C100007EC100007CC100008C
S11300707AC1000078C1000076C1000074C100009C
S113008072C1000070C100006EC100006CC10000AC
S113009087C6000068C1000066C10000DBC3000021
S11300A062C1000060C100000C94D80B5CC1000068
S11300B05AC1000058C1000056C1000054C10000DC
S11300C052C1000050C100004EC100004CC10000EC
S11300D04AC1000048C1000046C1000044C10000FC
S11300E042C1000040C100003EC100003CC100000C
S11300F03AC1000038C1000036C1000034C100001C
S113010032C1000030C100002EC100002CC100002B
S11301102AC1000028C1000026C1000024C100003B
S113012022C1000020C100001EC100001CC100004B
S11301301AC10000D504D105D105D105D105D105D9
S1130140D105D1054C04D105D105D105D105D10581
S1130150D105D1054C04D105D105D105D105D10571
S1130160D105D1057104D105D105D105D105D1053C
S1130170D105D105D504D105D105D105D105D105C8
S1130180D105D1057104D105D105D105D105D1051C
S1130190D105D105D504D105D105D105D105D105A8
S11301A0D105D1056205D105D105D105D105D1050A
S11301B0D105D105DA04D105D105D105D105D10583
S11301C0D105D105D504D105D105D105D105D10578
S11301D0D105D1050305D105D105D105D105D10539
S11301E0D105D1053B05D105D105D105D105D105F1
S11301F0D105D1059605D105D105D105D105D10586
S1130200D105D1059605D105D105D105D105D10575
S1130210D105D1059605D105D105D105D105D10565
S1130220D105D1059605D105D105D105D105D10555
S1130230D105D105A005D105D105D105D105D1053B
S1130240D105D105C505D105D105D105D105D10506
S1130250D105D105A005D105D105D105D105D1051B
S1130260D105D105C505D105D105D105D105D105E6
S1130270D105D105B905D105D105D105D105D105E2
S1130280D105D1056B05D105D105D105D105D10520
S1130290D105D1056B05D105D105D105D105D10510
S11302A0D105D1056F05D105D105D105D105D105FC
S11302B0D105D1058A05D105D105D105D105D105D1
S11302C0D105D105C5055D2848284A284C284E2863
S11302D05028522854285628AC297E2A182BB22B91
S11302E04C2CE62C802D1A2EC42E912FA730BA3018
S11302F0C830D830E830FC301A3109314B324E3234
S1130300713250327432763278327A325232C734A1
S1130310D034E434DA34EE34F83402350C3516359E
S11303202A353435203511241FBECFEFD1E8DEBF86
S1130330CDBF00E00CBF19E0A0E0B2E0EAE3FDE9C4
S113034000E00BBF02C007900D92AA36B107D9F79F
S113035023E2AAE6B9E001C01D92AA32B207E1F78E
S113036060D50C949B4E4CCEF999FECF92BD81BDC5
S1130370F89A80B50895EF92FF920F931F93CF934D
S1130380DF934115510579F08B01040F151FEB0123
S11303907C01E61AF70AC7018C0F9D1FE5DF8993DC
S11303A0C017D107C1F7DF91CF911F910F91FF9033
S11303B0EF900895EF92FF920F931F93CF93DF93E3
S11303C0CDB7DEB761970FB6F894DEBF0FBECDBFD1
S11303D04AE250E068E870E280E090E0CCDF80918F
S11303E0AE209091AF20A091B020B091B120813483
S11303F09C46A546B84709F47BC081E1E7E1F2E0F9
S1130400DE01119601900D928A95E1F70F2EF0EE20
S1130410EF2EFFE1FF2EF02DF701638D748D8CEF2D
S11304209FE00E94492108E810E2F801918380834B
S1130430F701658D768D80E090E10E944921F801F5
S113044095838483F701618D728D8EEF9FE00E9406
S11304504921F8019383828340E250E060E270E036
S11304608EE890E20E94784E8BE0EBE0F2E0AEE89A
S1130470B0E201900D928A95E1F7F80180819181B3
S1130480FC01EF2FFF27E295EF7021E030E02C0F05
S11304903D1FE20FF31F2081F8012587E92FFF2775
S11304A0EF70FF2721E030E02C0F3D1FE20FF31F18
S11304B02081F8012687FC01F295E295EF70EF2781
S11304C0FF70EF27EF70FF2721E030E02C0F3D1F76
S11304D0E20FF31F2081F80127878F709927E1E04D
S11304E0F0E0EC0FFD1FE80FF91F8081F801808B0D
S11304F061960FB6F894DEBF0FBECDBFDF91CF91EA
S11305001F910F91FF90EF900895CF93DF934AE2EC
S113051050E068E870E280E090E02DDF8091AE204A
S11305209091AF20A091B020B091B12081349C462D
S1130530A546B84711F1C8E8D0E28FEF9FEF998341
S113054088839D838C838FE090E09B838A8340E241
S113055050E060E270E08EE890E20E94784E8BE01A
S1130560EBE0F2E0AEE8B0E201900D928A95E1F79B
S113057086E68D878E878F87888B4ED0DF91CF91CB
S1130580089529E08C36920769F04DEE59E0BC01DC
S113059021E04617570739F02F5F4F575F4F24313B
S11305A0C1F701C020E0FC01378531110EC030E0F5
S11305B0F901F695FE2FEE27F795E7952E0F3F1FCD
S11305C0F901E659F64F1082089530E0F901F695E5
S11305D0FE2FEE27F795E795E20FF31FE659F64F46
S11305E0418141504183442319F00C94420C0895F5
S11305F0F901F695FE2FEE27F795E7952E0F3F1F8D
S1130600F901E659F64F10820895FC01618587814E
S113061090850C940D1D0895CF93DF93C8E8D0E224
S1130620888199810E94000C8C819D810E94060C16
S11306308A810E94D01381E00E94CC1388E292E068
S11306400E94461065E073E081E00E940C0CAAE66B
S1130650B9E0E5E7F9E069E873E181E093E041ECB2
S113066052E01C9218961C921E921797EF01229743
S113067088832196888390839F01285F3F4F32832C
S1130680218355834483AF57BF4FEF57FF4FE6177E
S1130690F70739F70E94AC1BDF91CF910895809141
S11306A06A09882359F0EBEEF9E06EE773E181E023
S11306B090E0AC012081211118C002C040E050E05C
S11306C0FA01F695FE2FEE27F795E7954E0F5F1F7B
S11306D0FA01E659F64F81E08083DF01A058BF4F4D
S11306E01C9281838E2F9F2F08950196EF57FF4F01
S11306F0E617F707F1F680E090E00895FC01E05872
S1130700FF4F2081222331F0FC01268702960C94AE
S1130710420C0895FC0110820895CF93DF9370E09A
S11307209C01260F371FF9013297C081D0E0DC2FDE
S1130730CC2731962081C22B6250710926E030E02B
S113074049E352E00E94684D21E0C817D90709F037
S113075020E0822FDF91CF91089581E080938D1363
S113076010927F1380E98093BC0008956115710590
S113077029F180917F13811123C0E7E8F3E17183AC
S11307806083138212821582148281E080937F1326
S1130790FB0184819581892B21F484E080938D135E
S11307A003C082E080938D1385EA8093BC0080911E
S11307B07F138111FCCF80918E13089588EF0895E3
S11307C080E8089570938813609387136115710509
S11307D041F1FB0180859185892B29F180917F135B
S11307E0811123C0E7E8F3E1138212821582148297
S11307F081E080937F13FB0184819581892B21F40F
S113080085E080938D1303C083E080938D1385EA84
S11308108093BC0080917F138111FCCF80918E1353
S1130820089588EF089588EF089580E80895F8946E
S1130830ECEBF0E010821092B900DB0114968C917D
S11308408093B800808181608083789410927E13B5
S113085080E008951F920F920FB60F9211240BB6E9
S11308600F922F933F934F935F936F937F938F9345
S11308709F93AF93BF93EF93FF938091B900887FC9
S113088090E0893C910508F08CC1FC018827E6566C
S1130890FF4F8F4F0C94CC4D80918D139EEF980F8A
S11308A0933060F4E0918713F091881380818E7FF8
S11308B08093BB0085E88093BC008BC1853061F4D4
S11308C0E0918713F0918813808181608093BB004D
S11308D085E88093BC007DC140DF8BEF80938E134D
S11308E078C180918D13843051F5E7E8F3E1848178
S11308F095810190F081E02D208531858217930741
S113090098F426813781AC014F5F5F4F50938C136D
S113091040938B13F901E80FF91F80818093BB008A
S113092085E88093BC0055C184E98093BC00E7E866
S1130930F3E181E08683178210927F134AC19EEF10
S1130940980F923038F5E7E8F3E182819381A08132
S1130950B181A80FB91F11962C91019693838283BC
S11309602093BB0025E82093BC000190F081E02D8A
S1130970248135812817390709F02BC180918D1303
S1130980823021F484E080938D1323C185E0809329
S11309908D131FC1853021F485EA8093BC0019C1F1
S11309A0DCDE8BEF80938E1314C1D7DE8FEF809340
S11309B08E130FC180918D13853001F5E7E8F3E1C3
S11309C0A081B18118968D919C91199701972481EA
S11309D035812817390749F4ECEBF0E080818F7BEF
S11309E08083808185688083F4C0ECEBF0E08081B3
S11309F080648083808185688083EBC0AEDE8BEF6A
S1130A0080938E13E6C02091BB0080918D138530B6
S1130A1069F5E7E8F3E1A081B18116966D917C91C7
S1130A20179784819581AC014F5F5F4F5583448351
S1130A30FB01E80FF91F208318968D919C9119975B
S1130A4001974817590748F4ECEBF0E08081806483
S1130A508083808185688083BCC0ECEBF0E080817A
S1130A608F7B8083808185688083B3C076DE8BEF43
S1130A7080938E13AEC02091BB0080918D1385307E
S1130A80E1F4E7E8F3E1A081B18116964D915C9120
S1130A90179784819581BC016F5F7F4F7583648351
S1130AA0DA01A80FB91F2C9384E98093BC0081E07C
S1130AB08683178210927F138CC04FDE8BEF809356
S1130AC08E1387C0E7E8F3E181E0868386EF8783AE
S1130AD010927F137EC01092831310928213E0E869
S1130AE0F3E1A081B18112962D913C9113978281FB
S1130AF09381AC014F5F5F4F53834283D901A80FA9
S1130B00B91F8C918093BB0085EC8093BC0088E076
S1130B1084835FC0E0E8F3E181E0848382E090E0D5
S1130B209683858385EC8093BC0053C0E0E8F3E1B1
S1130B301382128285EC8093BC0088E0848349C0D0
S1130B402091BB00E0E8F3E1A081B1814D915C917B
S1130B5082819381BC016F5F7F4F73836283DA016B
S1130B60A80FB91F2C9385EC8093BC0088E0848384
S1130B7030C0E0E8F3E181E0848383E090E0968391
S1130B80858385EC8093BC0024C0E0E8F3E181E038
S1130B90848380E98093BC008FEF9FEF96838583E5
S1130BA018C080917E13811109C0E7E8F3E181E068
S1130BB086838BEF878310927F130BC0E0E8F3E109
S1130BC08EEF9FEF9683858381E0848385EC809309
S1130BD0BC00FF91EF91BF91AF919F918F917F9155
S1130BE06F915F914F913F912F910F900BBE0F909A
S1130BF00FBE0F901F9018950F931F93CF93DF9301
S1130C008C01D62FCAE00AC081E090E00E946521E1
S1130C10C15021F482E00E94773704C0F80190812A
S1130C2095FFF2CFF801D68380E0DF91CF911F9139
S1130C300F9108958F929F92AF92BF92CF92DF92BD
S1130C40EF92FF920F931F93CF93DF93EC016A010E
S1130C507B01B901A801689412F8769567955795B8
S1130C6047951694D1F7D901C801072E73E1B695BB
S1130C70A795979587957A95D1F7702DE881E1FF2F
S1130C800BC04A015B01B694A79497948794B695D8
S1130C90A7959795879502C04A015B018C149D0422
S1130CA0AE04BF0478F1C816D906EA06FB0660F163
S1130CB0888181FF10C0CC0CDD1CEE1CFF1CCB0115
S1130CC0BA01A70196010E94AA4DDA01C901019750
S1130CD0A109B10913C0C901B801689413F8969524
S1130CE08795779567951694D1F7A70196010E9489
S1130CF0AA4DDA01C9010197A109B1099D838C8329
S1130D0081E003C080E001C080E0DF91CF911F91BA
S1130D100F91FF90EF90DF90CF90BF90AF909F9096
S1130D208F9008950F931F93CF93DF93EC01FB01F2
S1130D308A818F738A832681358184819A81482FA1
S1130D404370440F997F942B9A8399818470880F00
S1130D50880F9B7F892B89838A818F7C832B8A834D
S1130D608A81922F990F990F990F877F892B8A83F4
S1130D70408151816281738100E012E12AE730E011
S1130D80CE0158DF99819860998399819061998304
S1130D90998190689983DF91CF911F910F91089564
S1130DA01F920F920FB60F9211240BB60F922F932E
S1130DB03F934F935F936F937F938F939F93AF93DF
S1130DC0BF93EF93FF938091CE000E94DF27FF91A2
S1130DD0EF91BF91AF919F918F917F916F915F91AF
S1130DE04F913F912F910F900BBE0F900FBE0F901C
S1130DF01F90189580910820813021F480936F20F2
S1130E00809309200895F894A89599E288E10FB693
S1130E10F894A895809360000FBE90936000789436
S1130E2008950E941A150E940421C4DAF5DBEFE844
S1130E30F3E180E197E2A0E0B0E086839783A087A6
S1130E40B18781E082878AEF96E094878387CF0118
S1130E500E94EB150E942D170E9423208091DC2014
S1130E6090E00E94E220CFDF86E080934D010E9453
S1130E7023150E94091DFBCF1F920F920FB60F92EC
S1130E8011240BB60F922F933F934F935F936F935D
S1130E907F938F939F93AF93BF93EF93FF93E091CF
S1130EA0AE13F091AF13309709F01995FF91EF91BC
S1130EB0BF91AF919F918F917F916F915F914F916E
S1130EC03F912F910F900BBE0F900FBE0F901F906C
S1130ED018951F920F920FB60F9211240BB60F9212
S1130EE02F933F934F935F936F937F938F939F932E
S1130EF0AF93BF93EF93FF93E091AC13F091AD13D5
S1130F00309709F01995FF91EF91BF91AF919F919F
S1130F108F917F916F915F914F913F912F910F909E
S1130F200BBE0F900FBE0F901F9018951F920F923B
S1130F300FB60F9211240BB60F922F933F934F933A
S1130F405F936F937F938F939F93AF93BF93EF932D
S1130F50FF93E091AA13F091AB13309709F0199520
S1130F60FF91EF91BF91AF919F918F917F916F917D
S1130F705F914F913F912F910F900BBE0F900FBE39
S1130F800F901F9018951F920F920FB60F92112475
S1130F900BB60F922F933F934F935F936F937F936F
S1130FA08F939F93AF93BF93EF93FF93E091A81315
S1130FB0F091A913309709F01995FF91EF91BF9122
S1130FC0AF919F918F917F916F915F914F913F91DD
S1130FD02F910F900BBE0F900FBE0F901F9018957E
S1130FE01F920F920FB60F9211240BB60F922F93EC
S1130FF03F934F935F936F937F938F939F93AF939D
S1131000BF93EF93FF93E091A613F091A71330974A
S113101009F01995FF91EF91BF91AF919F918F9135
S11310207F916F915F914F913F912F910F900BBEE4
S11310300F900FBE0F901F9018951F920F920FB62E
S11310400F9211240BB60F922F933F934F935F93FC
S11310506F937F938F939F93AF93BF93EF93FF937C
S1131060E091A413F091A513309709F01995FF911D
S1131070EF91BF91AF919F918F917F916F915F910C
S11310804F913F912F910F900BBE0F900FBE0F9079
S11310901F9018951F920F920FB60F9211240BB642
S11310A00F922F933F934F935F936F937F938F93FD
S11310B09F93AF93BF93EF93FF93E091A213F091AB
S11310C0A313309709F01995FF91EF91BF91AF9158
S11310D09F918F917F916F915F914F913F912F914C
S11310E00F900BBE0F900FBE0F901F9018951F927C
S11310F00F920FB60F9211240BB60F922F933F93BA
S11311004F935F936F937F938F939F93AF93BF930B
S1131110EF93FF93E091A013F091A113309709F09E
S11311201995FF91EF91BF91AF919F918F917F910D
S11311306F915F914F913F912F910F900BBE0F9044
S11311400FBE0F901F9018951F920F920FB60F921B
S113115011240BB60F922F933F934F935F936F938A
S11311607F938F939F93AF93BF93EF93FF93E091FC
S11311709E13F0919F13309709F01995FF91EF9109
S1131180BF91AF919F918F917F916F915F914F919B
S11311903F912F910F900BBE0F900FBE0F901F9099
S11311A018951F920F920FB60F9211240BB60F923F
S11311B02F933F934F935F936F937F938F939F935B
S11311C0AF93BF93EF93FF93E0919C13F0919D1322
S11311D0309709F01995FF91EF91BF91AF919F91CD
S11311E08F917F916F915F914F913F912F910F90CC
S11311F00BBE0F900FBE0F901F901895803111F405
S1131200D99A0895D89A0895803159F4E8E6F0E01F
S1131210808182608083ECE6F0E08081816080835D
S11312200895E8E6F0E0808181608083EBE6F0E0F9
S1131230208181E090E002C0880F991F7A95E2F73F
S1131240822B80830895803131F4ECE6F0E08081D4
S11312508E7F80830895EBE6F0E0208181E090E0CA
S113126002C0880F991F7A95E2F7809582238083C4
S11312700895CF92DF92EF926B01E82EE4DF8E2D7A
S1131280B60126D18E2DB601C5D18E2DB601B6DF9D
S11312908E2DB601B9DFEF90DF90CF900895982F8F
S11312A0811105C05093AF134093AE13089581305C
S11312B029F45093AD134093AC130895823029F46C
S11312C05093AB134093AA130895833029F4509399
S11312D0A9134093A8130895843029F45093A713B5
S11312E04093A6130895853029F45093A513409391
S11312F0A4130895863029F45093A3134093A213A2
S11313000895873029F45093A1134093A0130895AE
S11313108850883028F450939F1340939E13089567
S1131320903121F450939D1340939C13089562309F
S113133009F128F4662341F0613089F0089563309F
S113134021F1643069F1089525B181E090E002C093
S1131350880F991F7A95E2F7822B85B908952BB1EE
S113136081E090E002C0880F991F7A95E2F7822B02
S11313708BB908952EB181E090E002C0880F991FC7
S11313807A95E2F7822B8EB9089521B381E090E03B
S113139002C0880F991F7A95E2F7822B81BB0895CA
S11313A024B381E090E002C0880F991F7A95E2F798
S11313B0822B84BB0895623019F128F4662341F02E
S11313C0613091F00895633039F1643089F1089502
S11313D025B181E090E002C0880F991F7A95E2F769
S11313E08095822385B908952BB181E090E002C0F5
S11313F0880F991F7A95E2F7809582238BB9089517
S11314002EB181E090E002C0880F991F7A95E2F72F
S1131410809582238EB9089521B381E090E002C0C3
S1131420880F991F7A95E2F78095822381BB0895EE
S113143024B381E090E002C0880F991F7A95E2F707
S11314408095822384BB0895623009F128F46623D1
S113145041F0613089F00895633021F1643069F11D
S1131460089525B181E090E002C0880F991F7A9514
S1131470E2F7822785B908952BB181E090E002C09C
S1131480880F991F7A95E2F782278BB908952EB1B8
S113149081E090E002C0880F991F7A95E2F78227D5
S11314A08EB9089521B381E090E002C0880F991F9E
S11314B07A95E2F7822781BB089524B381E090E016
S11314C002C0880F991F7A95E2F7822784BB08959A
S11314D0623061F128F4662349F06130B9F008956F
S11314E06330A1F1643009F441C0089524B181E06E
S11314F090E002C0880F991F7A95E2F78095982FA3
S1131500922394B995B1892385B908952AB181E0CC
S113151090E002C0880F991F7A95E2F78095982F82
S113152092239AB99BB189238BB908952DB181E097
S113153090E002C0880F991F7A95E2F78095982F62
S113154092239DB99EB189238EB9089520B381E079
S113155090E002C0880F991F7A95E2F78095982F42
S1131560922390BB91B3892381BB089523B381E077
S113157090E002C0880F991F7A95E2F78095982F22
S1131580922393BB94B3892384BB0895623009F1F9
S113159028F4662341F0613089F00895633021F125
S11315A0643069F1089524B181E090E002C0880FAD
S11315B0991F7A95E2F7822B84B908952AB181E0C4
S11315C090E002C0880F991F7A95E2F7822B8AB9BE
S11315D008952DB181E090E002C0880F991F7A959B
S11315E0E2F7822B8DB9089520B381E090E002C028
S11315F0880F991F7A95E2F7822B80BB089523B355
S113160081E090E002C0880F991F7A95E2F7822B5F
S113161083BB0895623009F128F4662341F06130F8
S113162089F00895633021F1643069F1089525B19A
S113163081E090E002C0880F991F7A95E2F7822B2F
S113164085B908952BB181E090E002C0880F991FFD
S11316507A95E2F7822B8BB908952EB181E090E060
S113166002C0880F991F7A95E2F7822B8EB90895EC
S113167021B381E090E002C0880F991F7A95E2F7C8
S1131680822B81BB089524B381E090E002C0880FCF
S1131690991F7A95E2F7822B84BB08956230E9F0B2
S11316A028F4662341F0613079F032C06330F1F000
S11316B0643029F12DC083B190E002C095958795DF
S11316C07A95E2F78170089589B190E002C095950A
S11316D087957A95E2F7817008958CB190E002C005
S11316E0959587957A95E2F7817008958FB190E08A
S11316F002C0959587957A95E2F78170089582B333
S113170090E002C0959587957A95E2F781700895E7
S113171080E0089514BE0FB6F894A89580916000F7
S1131720886180936000109260000FBEE1E6F0E0F3
S113173080E880831082789404C0089590E016C0F5
S113174008951092EA2080E197E29093A900809393
S1131750A800E1EAF0E088E08083808182608083F1
S1131760E2E7F0E080818260808308952091A40004
S11317703091A500820F931FEAEAF0E09183808301
S1131780208131818091A8009091A900821793074C
S113179050F42091A8003091A90080819181821B8E
S11317A0930B9183808384E089BBCA9BFECF089509
S11317B01F920F920FB60F9211248F938091EA20FB
S11317C08F5F8093EA208F910F900FBE0F901F9030
S11317D01895EBEEF0E2148215821182108217AA9A
S11317E016AAE1EFF0E281E191E211921192E81779
S11317F0F907D9F7EED5C3D114D13FD040C4089529
S11318009093EC208093EB20E1C708959093EE2011
S11318108093ED20C9C70895E82FF0E0EE0FFF1F75
S1131820EF50FF4D718360830895FBD1DAD64ED01B
S113183083C40895E091B013F091B1133097D9F0B7
S1131840228133812817390789F405C02281338125
S11318502817390759F4DC01AD57BF4F2C9127875E
S113186013962C91208B22E0248305C00190F081F3
S1131870E02D309759F719C108951092B1131092C1
S1131880B0130895FC011482178613821282ABEE02
S1131890B0E2D6968D919C91D7970196D7969C935A
S11318A08E93D6978091B0139091B113009739F429
S11318B011821082F093B113E093B01308959183D1
S11318C08083F093B113E093B01308950F931F93A3
S11318D0CF93DF93E091B013F091B113309709F4F3
S11318E09BC0EF018C81882321F0823009F46EC003
S11318F08DC0A2D08C01009721F482E08C838F8765
S11319008BC09B838A8381E08C83F801E957FF4F66
S11319108AE19CE0918380833197898582FB8827C3
S113192080F980839985D8011B968C911B9790FB35
S113193080F91B968C931B97998593FB992790F9B3
S113194090FB82F91B968C931B97998596959170C1
S113195090FB81F91B968C931B97EBEEF0E284814C
S11319608F5F84831C968C931C97808191811E9633
S11319709C938E931D978D819E8150969C938E93FC
S11319801F978885982F9F7051968C915197807FCF
S1131990892B51968C9351979F819295907F8F704C
S11319A0892B51968C93F801EF57FF4F4C8550E0EB
S11319B06A857B85808191810E946F4EF8019181B7
S11319C08C85890F8183C80127D526C0CE17DF07F0
S11319D041F4888199819093B1138093B0130AC024
S11319E0FC0180819181C817D907D1F78881998139
S11319F091838083EBEEF0E286A997A9019797ABD8
S1131A0086ABED85FE85CE01199506C00990D88177
S1131A10C02D209709F066CFDF91CF911F910F91D0
S1131A200895E2EBF3E186E69EE11082E757FF4F6B
S1131A30E817F907D1F708958091B213882359F074
S1131A40EBE3F4E146E65EE181E090E0BC01208155
S1131A50211122C002C060E070E049E8469F900175
S1131A60479F300D1124C9018E549C4EFC011192E4
S1131A704A95E9F740E1FC014183EF57FF4F2C53AE
S1131A803C4E31832083EBEEF0E226A937A92F5F89
S1131A903F4F37AB26AB08950196E757FF4FE41746
S1131AA0F507A1F680E090E00895FC011082EBEECA
S1131AB0F0E286A997A9019797AB86AB08950097A2
S1131AC041F0FC01E757FF4F8EE1E636F80718F0C6
S1131AD015C0E2EBF3E18081882339F003C08081F3
S1131AE0882319F08E2F9F2F0895E757FF4F8EE11B
S1131AF0E636F807A0F380E090E0089580E090E0F7
S1131B000895FC01DC01AD57BF4F1C92ABEEB0E26F
S1131B1014969C9114979F5F14969C9314979487A2
S1131B208D919C91968785870895DC0119962C9157
S1131B301997222349F01796ED91FC91189720816B
S1131B40211104C003C5089580E0089580E008953C
S1131B50BC01E8E7FEE12AEA3EE140E051E0908181
S1131B60992319F091509083452F3596E217F30786
S1131B70B1F7442319F0CB010C94EB150895E8E771
S1131B80FEE18AEA9EE110823596E817F907D9F753
S1131B90E6E6FEE184E690E0A0E0B0E08683978389
S1131BA0A087B187128688EA9DE09487838765E9D8
S1131BB07DE080E031CE0895CF93DF93DC01ED9199
S1131BC0FC91119721812838F9F420812F7D21344B
S1131BD0D9F412962C912031B8F0EC012DDF009746
S1131BE099F020E2FC0120832A8121832B81ED5787
S1131BF0FF4F20832C81319620834A8150E06881F5
S1131C00798102960E946F4EDF91CF9108956623E9
S1131C1021F022E2FC012083089524E2FC012083C8
S1131C2008952F923F924F925F926F927F928F927C
S1131C309F92AF92BF92CF92DF92EF92FF920F9357
S1131C401F93CF93DF93CDB7DEB72C970FB6F894DD
S1131C50DEBF0FBECDBF00E010E00F2EF4E2DF2E9A
S1131C60F02D0F2EFBEE8F2EF0E29F2EF02DCC24C4
S1131C70C3940F2EF8E74F2EFEE15F2EF02D0F2EAA
S1131C80F4E76F2EFEE17F2EF02D0F2EF6EAEF2EF5
S1131C90FEE1FF2EF02D312C212C5801B9C1D501C4
S1131CA08C91813209F4E1C018F4803241F0B0C162
S1131CB0823209F4DEC0843209F4A8C1A9C1F50155
S1131CC0D082838583FDA4C1258136812F3F3F4F78
S1131CD0C9F4D5011F962D913C915097F401408190
S1131CE051814217530721F02F3F3F4F09F090C114
S1131CF081FF04C081E2D5018C938AC122E2F501FF
S1131D00208386C1D5011F962D913C9150972F3F7A
S1131D103F4F09F084C180FF82C17AC18C012C91AC
S1131D20222309F457C0208131814217530709F057
S1131D3052C0F5019485F801EE0FFF1FEE0FFF1F4F
S1131D40E00FF11FEC58F14E8281891B883040F579
S1131D50F801EE0FFF1FEE0FFF1FE00FF11FEC580D
S1131D60F14E9381292F30E0082E02C03595279536
S1131D700A94E2F720FD4CC1F801EE0FFF1FEE0FAD
S1131D80FF1F0E0F1F1FF801EC58F14E21E030E049
S1131D9002C0220F331F8A95E2F7922B93834FC11F
S1131DA0F801EE0FFF1FEE0FFF1F0E0F1F1FF801AC
S1131DB0EC58F14E9283238130E08195A90102C051
S1131DC0440F551F8A95E2F7CA01816083838FE12E
S1131DD0848335C1BF01019615963596EE15FF052E
S1131DE009F09CCF6115710509F412C1DB0111964C
S1131DF05C934E93F501848512968C9312971396F7
S1131E00CC9213978FE114968C9386E69EE1E3D6E9
S1131E1016C1D5011F968D919C915097F401208194
S1131E20318128173907A1F01B962C9122FD0DC092
S1131E30C50147D3D5011F968D919C915097F4010C
S1131E40208131812817390719F0019609F0E0C083
S1131E50D5011B968C911B9781FF03C081E28C9363
S1131E60D7C022E2F5012083D3C060E0C50117D1B9
S1131E70CFC01092731ED50151962C915197229583
S1131E802F70E22FF0E0EE0FFF1FEF50FF4D019097
S1131E90F081E02D309709F462C01D968D919C91DC
S1131EA01E979A8389831F964D915C9150975C830A
S1131EB04B8351963C9151973F703D832E83AF578E
S1131EC0BF4F6D917C917987688795012E5F3F4F55
S1131ED0261B370BD50111963C911197230F2A87A6
S1131EE0AD57BF4F2C912B8711962C912C87D50180
S1131EF01B962C91622F637022FD02C030E001C05A
S1131F0030E2632B23FD02C030E001C030E4262F11
S1131F10232B4F3F5F4F11F030E001C034E0232BFF
S1131F20D50119964D915C911A978417950711F074
S1131F3090E001C098E0822F892B8F83D5011596FC
S1131F402D913C9116972F3F3F4F11F090E001C027
S1131F5090E1892B8F83CE010196199501C080E011
S1131F60F501938590FF80E0D50117962D913C9162
S1131F7018972F3F3F4F69F4F40140815181D501F7
S1131F801F962D913C9150974217530711F493FFDC
S1131F908C2DF501258136812F3F3F4FA1F1D401CE
S1131FA02D913C912F3F3F4F71F1882361F144DD26
S1131FB08C01009741F1A5DDF80181818D5F81835A
S1131FC0E957FF4F11821082D5011B968C911B9704
S1131FD086958170F801938580FB91F993871D960E
S1131FE08D919C911E97908B8787EF57FF4F01909F
S1131FF0F081E02D10828091731E82831C968C9157
S11320008183C80109D2D501DC9202C0C5014DDD2E
S1132010C50155DD5C01892B09F041CE17C0F501DE
S113202045855685D4018D919C918417950781F33C
S1132030D201F301832D922D632D722D6FCEF50104
S113204087819085019609F0F5CEE3CE2C960FB6E4
S1132050F894DEBF0FBECDBFDF91CF911F910F91DA
S1132060FF90EF90DF90CF90BF90AF909F908F90B4
S11320707F906F905F904F903F902F9008951092B3
S1132080BB1E1092BA1E1092B91E0895FC0190E175
S1132090A1E1B1E201900D929A95E1F708956623CA
S11320A021F020E3FC01208303C021E3FC01208311
S11320B08091BB1E8F5F8093BB1E0895CF93DF93E7
S11320C0C091B91ED091BA1EFE01EF57FF4FA081F7
S11320D0B1817091B71E872F90E06091B81E262FB2
S11320E0613108F020E12223B9F03091B61E46EAAE
S11320F05EE1A80FB91FFA0190818C9189278D9315
S1132100332311F0808303C0908189278083319623
S11321108E2F841B821780F3720F7093B71E621B7D
S11321206093B81E662319F082E3888302C084E3B7
S11321308883DF91CF9108950F931F93CF93DF93FB
S11321408091BB1E882309F4E1C0E091B91EF0918F
S1132150BA1E309709F4D4C08081843309F054C086
S11321608091B71EDF01AF57BF4FCD91DC91C80FEF
S1132170D11DA6EABEE114960D911D912D913C91BD
S113218017974D915D916D917C911397402751273D
S11321906227732718960D911D912D913C911B97E1
S11321A040275127622773271C968D919D910D908E
S11321B0BC91A02D482759276A277B278091B61EFA
S11321C0882351F0488359836A837B8381818C5FA0
S11321D08183CF01DFD10EC081E0088119812A817A
S11321E03B81401751076207730709F080E0682FAD
S11321F0CF010DDD1092BA1E1092B91E8091BB1E44
S113220081508093BB1E82C0823309F07FC083E378
S1132210808361E171E286EA9EE11AD477C0DC0131
S11322202C912053223008F06DC09093BA1E8093F5
S1132230B91EE6EAFEE11C964C911C9750E060E062
S113224070E040835183628373831F964D915C9148
S1132250509760E070E0BA015527442751962C91BD
S1132260519722952F70422B44835583668377833D
S11322701D964D915C911E9760E070E0BA01552760
S1132280442751962C9151972F70422B40875187A8
S1132290628773871B962C911B9715964D915C91C1
S11322A0169760E070E0BA0155274427422B448713
S11322B05587668777872C91213331F411962C91B9
S11322C01197245011962C93FC01EF57FF4F408136
S11322D051819C012E5F3F4F241B350BFC01318142
S11322E0230F2093B81E1092B71E21E030813033A3
S11322F009F020E02093B61E22E3DC012C9306C0F3
S113230080E090E0DCDB009709F089CFDF91CF918A
S11323101F910F910895EF92FF920F931F93CF9304
S11323207C0110E080E090E001E0C3E113C0FC0117
S11323302081213179F4EC57FF4F208131812150E4
S1132340310931832083232B21F4FC01C083102F16
S113235001C0102FB4DB009751F7112311F0C7010E
S11323603AD4CF911F910F91FF90EF900895EF927F
S1132370FF920F931F93CF93DF937C0110E080E0D3
S113238090E001E0D7E1C0E116C0FC0120812631D4
S113239091F4EC57FF4F2081318121503109318371
S11323A02083232B39F4FC01D083ED57FF4FC083E6
S11323B0102F01C0102F83DB009739F7112311F080
S11323C0C70109D4DF91CF911F910F91FF90EF9036
S11323D008951092D71E1092D61EE9ECFEE182E316
S11323E090E0A0E0B0E086839783A087B18712864F
S11323F087EB91E194878387ECEBFEE18AE090E040
S1132400A0E0B0E086839783A087B18712868BE82B
S113241091E1948783870895CF93DF93FC01DC01D6
S1132420AA57BF4F8C9181FF03C092E1908308C0EB
S1132430938591FF03C090E1908302C092E1908361
S1132440DF01AD57BF4F1C9280FF05C08FEF9FEF98
S11324509683858306C08091ED209091EE2096832B
S113246085832785308930872783ABEEB0E28D9151
S11324709C9111979287818715968C9115978F5F00
S113248015968C9384832F3F3F4F81F4EF0181E4B1
S113249098E8938382830E94544EFE01EC57FF4FC9
S11324A08770992701969183808308C081E698E814
S11324B093838283EC57FF4F11821082DF91CF9177
S11324C008950F931F93CF93DF938C01B5DAEC013A
S11324D0892BB9F182E18883F80181818983FE0126
S11324E0ED57FF4F10820E94544EFE01EC57FF4FF0
S11324F08770992701969183808333961182108285
S1132500F801418150E0B8016E5F7F4FCE01029621
S11325100E946F4E81E498E89B838A838FEF9FEF3C
S113252098878F83F801858196819E838D83EBEE56
S1132530F0E2808191819A87898785818F5F858385
S11325408C83DF91CF911F910F910895CF93DF93E7
S1132550FC01C781D08581858330C1F480E090E09F
S113256010C0FC012081263161F4348529813213A5
S113257008C027E120832A81EA57FF4F208381E0A6
S113258006C09DDA009769F780E001C080E0DF9122
S1132590CF91089522E1FC0120830895E091D61E95
S11325A0F091D71E813021F048F0823019F004C038
S11325B080E205C081E203C081E001C080E0DF0168
S11325C0AD57BF4F8C9385E180831092D71E109234
S11325D0D61EEBEEF0E286A997A9019797AB86ABDE
S11325E008959F92AF92BF92CF92DF92EF92FF92A3
S11325F00F931F93CF93DF93C0E0D0E00F2EF4E14D
S1132600AF2EF02D0BEE10E20F2EF7E1DF2EF02DA2
S11326100F2EF6E19F2EF02D0F2EF5E1EF2EF12C6B
S1132620F02D0F2EF3E1CF2EF02D0F2EF1E1BF2E62
S1132630F02D64C088818331F1F028F4803149F0B1
S1132640823159F05BC0853169F1873109F449C0A1
S113265055C061E0CE0123DD51C0FE01EC57FF4FB0
S113266080819181892B29F0B8828CEB9EE1B3D2D1
S113267045C0C88243C08091D61E9091D71E892B35
S113268009F03CC0D093D71EC093D61EA88269819E
S1132690CE010296ADD0F80186A997A9019697AB11
S11326A086AB2CC0FE01ED57FF4F8081811117C00E
S11326B02D853E85F801808191812817390769F4B9
S11326C08B8580FF0AC09882FE01EC57FF4FF18290
S11326D0E08289EC9EE17FD211C0D8820FC0D882FB
S11326E00DC0FE01E957FF4F0190F081E02D3097B6
S11326F019F4CE01DAD902C0CE011995CE01DFD981
S1132700EC01892B09F096CFDF91CF911F910F91A6
S1132710FF90EF90DF90CF90BF90AF909F9008957F
S11327208091D81E982F9F70E4E5F1E08081807F2E
S1132730892B80838091D81E882329F08091D91E0B
S11327408093530108958091D91E982F9F71E8E4D6
S1132750F1E08081807E892B8083089593E09093BB
S11327604201E1E4F1E090819F719830E1F78093B8
S11327704201E1E4F1E090819F719813FCCF089548
S113278088E0ECDF8FEF80934F018091DA1E88237D
S113279011F086E1E3CF08958093DA1EF1CF089516
S11327A08093D91EBDCF0895CF93DF931F921F92BC
S11327B0CDB7DEB79A838983809362018A8180933F
S11327C063010F900F90DF91CF910895CF93DF9322
S11327D01F921F92CDB7DEB79A83898380936001DD
S11327E08A81809361010F900F90DF91CF910895BA
S11327F00F931F93CF938C01C62F89E1AFDF8FEF27
S113280080934F0182E08C0F80938001CC2381F070
S1132810F801C1502C2F30E02F5F3F4FC801820FC9
S1132820931FA1E8B1E021912D93E817F907D9F797
S113283083E080935B1F82E080934201CF911F91DC
S11328400F910895EF92FF920F931F93CF93DF930D
S11328501092560186E082DFC0E0D0E0E12CF12C3A
S113286006E411E081E00E949E0BF801208122958C
S113287026952770237030E00C2E02C0220F331FE0
S11328800A94E2F7E22AF32A2296C031D10551F7DD
S113289088E064DF8BEE8093560172DFC701DF911D
S11328A0CF911F910F91FF90EF900895E9E3F1E02C
S11328B08081816080831092DA1E1092D81E81E09C
S11328C080935B1F88E04ADF8BEE80935601ECE433
S11328D0F1E0808180688083B5DF80936D01089585
S11328E0CF93DF93FB01AB01405F5F4FAFE3B1E0F8
S11328F021912C93E417F507D9F710923C01DC01E0
S11329009C01205F3F4FFC01CEE3D1E0819188839D
S1132910E217F307D9F7ECE3F1E080818068808364
S1132920EDE3F1E0808180FFFDCFEEE3F1E0808113
S11329308D93A217B307D9F7DF91CF9108951F9311
S1132940CF93DF9300D01F921F92CDB7DEB7809153
S11329505B1F823009F465C080914F0183FF3EC044
S1132960A0917B016A2F70E0AB014F5F5F4F80E065
S113297090E020E0FC01E058FE4F3081FC01E5527C
S1132980F14E30832F5F822F90E08417950794F3E4
S11329908BED9EE19A838983A250AB83FB01E552C0
S11329A0F14E80818C83809147018A558D83CE01BD
S11329B0019602D9E1E4F1E080818F718631E1F77B
S11329C0EFE4F1E0808188608083ECE4F1E08081D1
S11329D08F77808380818068808323C080914F01BA
S11329E086FF1FC0809141018F718931A9F4109134
S11329F0420112951695177049F0133021F01530E5
S1132A0021F013E003C011E001C012E0B9DE81E05F
S1132A1080935B1F812FC2DDEFE4F1E0808180644D
S1132A2080830F900F900F900F900F90DF91CF91B4
S1132A301F9108950E948A0B72D038DF0E94E90B1F
S1132A401092450108957BDF0E94150CCFC00895B4
S1132A5047DF34CB08950F931F93CF93DF93EC019B
S1132A6080915C1F90915D1F009709F445C04E81D1
S1132A705F8168857985FC01028113812481358118
S1132A80401751076207730760F0DC0117C0028129
S1132A90138124813581401751076207730768F455
S1132AA003C0FC01A0E0B0E0041B150B260B370BA0
S1132AB002831383248335830AC0DF01401B510B37
S1132AC0620B730BED91FC911197309701F74A83D8
S1132AD05B836C837D83109741F08D919C9111975A
S1132AE099838883CD93DC9315C099838883D0938D
S1132AF05D1FC0935C1F0EC0198218828E819F8156
S1132B00A885B9858A839B83AC83BD83D0935D1FDD
S1132B10C0935C1FDF91CF911F910F910895109284
S1132B205D1F10925C1F0895CF93DF93A0915C1FEB
S1132B30B0915D1F109791F1A817B90751F50AC01C
S1132B408E179F0729F5109731F0208131812D933D
S1132B503C9307C0FC012081318130935D1F209399
S1132B605C1F0190F081E02D3097C1F042815381C8
S1132B7064817581EC018A819B81AC81BD81840F64
S1132B80951FA61FB71F82839383A483B58306C0B2
S1132B90DF01ED91FC911197309791F6DF91CF9180
S1132BA00895E0915C1FF0915D1F309771F0E81774
S1132BB0F90721F40CC08E179F0759F00190F0819A
S1132BC0E02D3097C1F780E0089580E0089581E01A
S1132BD0089581E00895CF93DF93EC01E2DF811142
S1132BE002C0CE0138DFDF91CF910895CF92DF92FA
S1132BF0EF92FF92CF93DF938091EA20882309F428
S1132C0059C08FB7F894C090EA201092EA208FBF81
S1132C10D12CE12CF12CCC0CDD1CEE1CFF1CD701BB
S1132C20C601880F991FAA1FBB1F880F991FAA1FCF
S1132C30BB1FC80ED91EEA1EFB1EC0915C1FD0919B
S1132C405D1F2097B9F18A819B81AC81BD81C81633
S1132C50D906EA06FB0610F1C81AD90AEA0AFB0AE1
S1132C608881998190935D1F80935C1F8A85813050
S1132C7011F4CE01F0DEEB85FC85CE011995C091EF
S1132C805C1FD0915D1F2097A9F08A819B81AC8144
S1132C90BD81C816D906EA06FB06F0F68A819B8137
S1132CA0AC81BD818C199D09AE09BF098A839B83C0
S1132CB0AC83BD83DF91CF91FF90EF90DF90CF90F5
S1132CC0089580914A208F5F80934A20882319F0C9
S1132CD010924A20089581E080936F20089584E73C
S1132CE090E279CF089580912C20813081F485EB96
S1132CF090E21ADF84E08093362010923120109203
S1132D0030200E94850286EC90E265CF08958111FF
S1132D1010C085EB90E208DF81E0809336200E94AA
S1132D20DA010E940C0386EC90E2FEDE8DE090E274
S1132D30FBCE08958EE59FE10C942237089581E03F
S1132D408093082080E492E00C94C7270895809132
S1132D50DB1F823008F06AC08091F21F823049F094
S1132D6018F48130C9F149C08530A1F0863019F1D9
S1132D7044C060914B2070914C2080914D200E9462
S1132D80DB096091292070912A2080912B200E94D8
S1132D90240A43C06091292070912A2080912B201D
S1132DA00E94240A60914B2070914C2080914D2008
S1132DB00E94DB0932C06091292070912A20809101
S1132DC02B200E94240A60914B2070914C2080910A
S1132DD04D200E94240A21C06091292070912A204C
S1132DE080912B200E94240A60914B2070914C20EA
S1132DF080914D200E94DB0910C0609129207091C0
S1132E002A2080912B200E94DB0960914B20709135
S1132E104C2080914D200E94DB098091DB1F8F5F45
S1132E208093DB1F84E790E2D6DE15C060912920F1
S1132E3070912A2080912B200E94DB0960914B2005
S1132E4070914C2080914D200E94DB091092DB1F71
S1132E508EE490E2C0DEA8950895EF92FF920F935E
S1132E601F93CF93DF93E1E8F0E210820F2EF3E09B
S1132E70FF2EF02DF1828BE082836091812070918E
S1132E808220809183204DED5BE10E944F09609187
S1132E90812070918220809183200E943909EAE187
S1132EA0F0E21082C2E0C1838AE0828360911A203A
S1132EB070911B2080911C200E943909EDE1F0E201
S1132EC01082D1E0D18389E0828360911D207091CA
S1132ED01E2080911F200E943909E3ECF0E2108249
S1132EE0118288E082836091C3207091C420809114
S1132EF0C5200E943909E0E7F0E2D0836894EE240B
S1132F00E2F8E182609170207091712080917220CA
S1132F100E94680A609170207091712080917220E3
S1132F200E940A0BE9E2F0E2C08305E001836091AC
S1132F30292070912A2080912B200E94C60AEBE45C
S1132F40F0E2C08317E0118360914B2070914C2014
S1132F5080914D200E94C60AEDE5F0E2C083E18233
S1132F6060915D2070915E2080915F200E94C60A6E
S1132F70EDE2F0E2C083F18260912D2070912E2069
S1132F8080912F200E94C60A00930B2060910A2092
S1132F9070910B2080910C200E94C60A0F2EF6E03F
S1132FA0FF2EF02DF092DF206091DE207091DF2063
S1132FB08091E0200E94C60A1093E5206091E420ED
S1132FC07091E5208091E6200E94C60AE8EDF0E2C7
S1132FD0C08311826091D8207091D9208091DA2029
S1132FE00E94680A6091D8207091D9208091DA20DB
S1132FF00E940A0BE3EDF0E2C083D1836091D320F9
S11330007091D4208091D5200E94680A6091D320C9
S11330107091D4208091D5200E940A0BE6E2F0E260
S1133020C083C1836091262070912720809128203D
S11330300E94680A609126207091272080912820A0
S11330400E940A0BE4E8F0E2D083018360918420BB
S113305070918520809186200E94680A6091842066
S113306070918520809186200E940A0BECEDFFE18F
S1133070D083F1826091DC1F7091DD1F8091DE1F8F
S11330800E94680A6091DC1F7091DD1F8091DE1F31
S11330900E940A0BE3E3F0E2D083118360913320B2
S11330A070913420809135200E94680A6091332009
S11330B070913420809135200E940A0BDF91CF91CA
S11330C01F910F91FF90EF9008950F93CF93DF938B
S11330D080913620823009F4F1C130F4882309F458
S11330E06EC0813051F034C3843009F481C208F4D5
S11330F036C1853009F43FC22BC310922C20C1E0A5
S1133100C093082060910A2070910B2080910C20BC
S11331100E94DB09E0EEFFE11386C38B85E0828B1E
S1133120C18B84EF91E0A0E0B0E080937A2090938B
S11331307B20A0937C20B0937D2088EE93E0A0E0D8
S1133140B0E08093542090935520A0935620B093E0
S113315057208081813081F48091732081110CC0CB
S113316060915D2070915E2080915F200E944E0BE3
S1133170811102C0109236208091E81F813021F025
S11331808091E31F813011F4109236208091E41F66
S1133190813019F485E0809336208091E91F8130D5
S11331A019F482E0809336208091EA1F813009F07F
S11331B0CFC283E08093362010926120C9C28091EF
S11331C06120813031F4809161208F5F8093612090
S11331D002C01092612010922C2081E0809308207C
S11331E0E0EEFFE1828B8AEF90E0A0E0B0E0809314
S11331F07A2090937B20A0937C20B0937D2084EF51
S113320091E0A0E0B0E08093542090935520A093E7
S11332105620B09357208089813021F08091F11F8E
S1133220811114C060910A2070910B2080910C20B0
S11332300E94DB091092EB1F8091B320811106C01C
S113324087E00E940D2381E08093B3208091F01FDA
S113325081110FC08091F11F813059F460910A20CF
S113326070910B2080910C200E94970981E080933B
S1133270EB1F8091D620811106C084E00E940D23AB
S113328081E08093D6208091EA1F813029F483E085
S1133290809336201092D6208091FF1F811116C092
S11332A08091E01F81112AC08091E81F811126C0FE
S11332B08091E31F811122C085E00E940D231092AA
S11332C0D6201092B32081E0809336208091FF1F96
S11332D08130A1F48091E81F813081F460915D20F8
S11332E070915E2080915F200E94DB09E0EEFFE197
S11332F0108613828185813069F504C08091E91FAD
S1133300813011F41092E91F8091E31F813011F58F
S11333108091E41F8130F1F48091472090914820FE
S113332001969093482080934720893E9D4F08F44E
S11333300FC282E090E10E94C72F082F0360009320
S1133340DF1F20E142E065E48EEA0E9452220E94DF
S11333508E33FEC11092482010924720F9C1C0EE6E
S1133360DFE183E08A8B60910A2070910B208091C9
S11333700C200E94970981E08B8710922C20809367
S113338008208091D620811111C082E00E940D2373
S113339081E08093D62084E60E943E3560915D20D2
S11333A070915E2080915F200E9497098091FF1F99
S11333B0813049F583E00E940D2362E081E60E949A
S11333C05E361092D62081E08093612010923620E0
S11333D0C0EEDFE11A8660915D2070915E208091DD
S11333E05F200E94DB091B866091C3207091C4207A
S11333F08091C5200E944E0B91E0811101C090E0A4
S11334009093E01FA5C18091F01F813049F583E0BE
S11334100E940D2362E08EE60E945E361092D62052
S113342081E08093612080933620C0EEDFE11A862C
S113343060915D2070915E2080915F200E94DB0985
S11334401B866091C3207091C4208091C5200E9486
S11334504E0B91E0811101C090E09093E01F78C180
S11334608091EA1F813009F473C183E00E940D2327
S113347062E083E70E945E361092D62081E080935A
S1133480612080933620C0EEDFE11A8660915D20D2
S113349070915E2080915F200E94DB091B86609101
S11334A0C3207091C4208091C5200E944E0B91E0EE
S11334B0811101C090E09093E01F4AC1E0EEFFE16A
S11334C084E0828B10922C2081E08093082082E09B
S11334D0838B8091D620811108C00E940D2381E046
S11334E08093D62083E60E943E358091E01F813090
S11334F0A9F480917320811111C081E00E940D23F1
S113350062E081E60E945E361092D62081E08093CC
S11335106120809336201092E91F1AC18091DA1F2E
S11335209091E11F981788F081E00E940D2362E0DA
S11335308EE60E945E361092D62081E08093612050
S1133540809336201092E91F03C18091E91F8130D6
S113355009F4FEC081E00E940D2362E083E70E942B
S11335605E361092D62081E08093612080933620CD
S11335701092E91FEDC080912C20811108C085EBC9
S113358090E229DB80912C208F5F80932C20809106
S11335904620893080F060911A2070911B20809120
S11335A01C200E944E0B91E0811190E09093E41F47
S11335B01092462003C08F5F809346208091E41FC1
S11335C0811108C085EB90E2AFDA81E08093362068
S11335D010922C208091E01F813009F0B9C08091B5
S11335E073208111B5C01092362010922C20B0C0E7
S11335F08DE790E0A0E0B0E080937A2090937B2068
S1133600A0937C20B0937D208AEF90E0A0E0B0E00E
S11336108093542090935520A0935620B093572024
S11336201092082082E08093F21F8091C2208130A2
S113363031F0C0F1823051F0833089F030C086EC33
S113364090E272DA82E08093C2202CC060E18EE5C1
S11336509FE10E94343783E08093C22023C080918D
S1133660302090913120813523EC920790F08091A5
S1133670DC2081FF0BC08091DC208D7F8093DC20D7
S11336806091DC2082E090E10E9450310E948E33F0
S113369009C00196909331208093302003C088E0C4
S11336A00E94BB34809146208930F0F060911A204A
S11336B070911B2080911C200E944E0B91E081117F
S11336C090E09093E41F6091C3207091C420809196
S11336D0C5200E944E0B91E0811101C090E09093AF
S11336E0E01F1092462003C08F5F80934620809194
S11336F0E41F813051F480912C20813091F485EBCA
S113370090E269DA10922C200CC081110AC08091D9
S11337102C20811103C085EB90E206DA81E08093CE
S11337202C208091E01F813099F4809173208111C5
S11337300FC01092C22081E0809336200E94DA01EB
S11337400E940C038DE090E2EFD986EC90E2ECD974
S1133750DF91CF910F91089580916F20882371F0AC
S113376080916120882319F01092612002C00E9488
S1133770573488E390E22FDA10926F2008958091F5
S1133780EA1F811119C08091E81F813021F08091D6
S1133790E31F813049F460915D2070915E20809137
S11337A05F200C949709089560915D2070915E20CC
S11337B080915F200C94DB09089581E08093E120DF
S11337C0DECF0895CF93DF9380910920882309F4F5
S11337D060C00E945638C0EEDFE18983BAD68E837A
S11337E080EF8F8710920920EBE7F0E08081877FDC
S11337F0808381E680937C00EAE7F0E08081806446
S11338008083808186FDFDCF8091790024E2829FB0
S1133810C00111246FEF70E00E94974D6093E21F86
S11338206091D8207091D9208091DA200E944E0BAB
S113383091E0811101C090E09093FF1F2091E11F5E
S113384030E08091D72090E00A972817390734F4A4
S1133850E0EEFFE181E0808B118A0DC08091D720DA
S113386090E00A96281739071CF01092F01F03C045
S113387082E08093F01F8091E61F8D3318F080E082
S11338800E94BB348091E11F853618F481E00E94C8
S1133890BB3480914920813029F08091E12081302E
S11338A009F0B4C080914620893008F4ACC060911E
S11338B0812070918220809183200E944E0B91E0A0
S11338C0811190E09093E31F5ADF60911A20709168
S11338D01B2080911C200E944E0B91E0811190E0EE
S11338E09093E41F60911D2070911E2080911F20F1
S11338F00E944E0B91E0811101C090E09093E51F6E
S11339006091C3207091C4208091C5200E944E0B09
S113391091E0811101C090E09093E01F6091D82064
S11339207091D9208091DA200E944E0B91E0811190
S113393001C090E09093FF1F6091D3207091D42038
S11339408091D5200E944E0B91E0811190E09093DC
S113395000206091262070912720809128200E94C9
S11339604E0B91E0811190E09093012060918420AE
S113397070918520809186200E944E0B91E08111E8
S113398090E0909302206091DC1F7091DD1F809184
S1133990DE1F0E944E0B91E0811190E09093032072
S11339A06091332070913420809135200E944E0B19
S11339B091E0811190E0909304208091E81F813080
S11339C021F08091E31F813039F48091E01F81114F
S11339D003C085E00E94BB34109249201092462017
S11339E08091E01F811106C08091FF1F811102C0E8
S11339F0109273208091E120813041F480936F20F4
S1133A001092E12003C08F5F80934620DF91CF9115
S1133A100895D8DE5ADBA0CE08958F929F92AF927C
S1133A20BF92FF920F931F93CF93DF93CDB7DEB76F
S1133A3029970FB6F894DEBF0FBECDBF8C01F62ECA
S1133A400E948D0380932821882309F4CDC248E085
S1133A5050E062E572E0C8010E94624E892BA1F435
S1133A608091362081110AC08091E81F813031F4A1
S1133A7083E00E94BB34FF24F394BAC20E947D34D5
S1133A807EDEFF24F394B4C248E050E06BE572E0BC
S1133A90C8010E94624E892BA1F4809136208130A6
S1133AA051F48091E81F811106C083E00E94BB3469
S1133AB0FF24F3949DC20E94873461DEFF24F394B3
S1133AC097C248E050E064E672E0C8010E94624E8A
S1133AD0892B09F050C02FE02F1530F084E00E94AC
S1133AE0BB34FF24F39484C26EEF6F0DC8010E94AF
S1133AF03837F82E882309F479C2F801218530E09B
S1133B002053310988EE93E0289FA001299F500D8E
S1133B10389F500D1124228530E02053310964E68A
S1133B20629FC001639F900D1124840F951F24850B
S1133B3030E020533109AC01420F531F238530E09C
S1133B4020533109C901880F991F220F331F220FF7
S1133B50331F220F331F280F391FCA01820F931FEF
S1133B608D3FFFE09F0720F084E00E94BB3440C2F9
S1133B700E9490343DC248E050E06DE672E0C80116
S1133B800E94624E892B81F480913620811106C0F7
S1133B9083E00E94BB34FF24F3942AC281E0809323
S1133BA0E91FFF24F39424C248E050E066E772E082
S1133BB0C8010E94624E892B79F4809136208111CC
S1133BC006C083E00E94BB34FF24F39411C2109218
S1133BD0E91FFF24F3940CC248E050E06FE772E061
S1133BE0C8010E94624E892B81F480913620811194
S1133BF006C083E00E94BB34FF24F394F9C181E042
S1133C008093EA1FFF24F394F3C148E050E068E88E
S1133C1072E0C8010E94624E892B79F480913620AB
S1133C20811106C083E00E94BB34FF24F394E0C1F9
S1133C301092EA1FFF24F394DBC148E050E061E9ED
S1133C4072E0C8010E94624E892B09F092C023E100
S1133C502F1530F086E00E94BB34FF24F394C8C1D2
S1133C606EEF6F0DC8010E943837F82E882309F4CF
S1133C707AC0F801A185B0E0D09720E03AEC4AE997
S1133C805BE30E94E94D4B015C01A285B0E0D09753
S1133C9020E031EE45EF55E00E94E94D860E971E77
S1133CA0A81EB91E828990E0C097092E000CAA0BA9
S1133CB0BB0B880E991EAA1EBB1EA385B0E0D0972D
S1133CC020E836E948E950E00E94E94D860E971E47
S1133CD0A81EB91EA485B0E0D09720E432E44FE0DA
S1133CE050E00E94E94D860E971EA81EB91EA585B8
S1133CF0B0E0D09720EA36E841E050E00E94E94D78
S1133D00860E971EA81EB91EA685B0E0D09720E1A6
S1133D1037E20E94E34D860E971EA81EB91EA785A2
S1133D20B0E0D09728EE33E00E94E34D860E971E54
S1133D30A81EB91EA089B0E0D09724E630E00E9406
S1133D40E34D860E971EA81EB91EA189B0E0D09738
S1133D502AE030E00E94E34D680D791D8A1D9B1D09
S1133D600E94513545C187E00E94BB34FF24F3947F
S1133D703FC148E050E06AE972E0C8010E94624E27
S1133D80892B39F488E390E20E949415FF24F3947C
S1133D902FC148E050E063EA72E0C8010E94624E1D
S1133DA0892B29F40E945935FF24F39421C148E05A
S1133DB050E06CEA72E0C8010E94624E892B29F43B
S1133DC00E948E33FF24F39413C148E050E065EB66
S1133DD072E0C8010E94624E892B29F40E94623568
S1133DE0FF24F39405C148E050E06EEB72E0C80193
S1133DF00E94624E892B71F5F1E1FF1530F084E0E9
S1133E000E94BB34FF24F394F3C06EEF6F0DC8011E
S1133E100E943837F82E8823B9F0CE01019626E0A7
S1133E20FC0111922A95E9F7F8012185298322855D
S1133E302A8323852B8324852C8325852D8326851E
S1133E402E830E948635D4C084E00E94BB34FF24B4
S1133E50F394CEC048E050E067EC72E0C8010E94E1
S1133E60624E892B09F5FDE0FF1530F08BE00E94CE
S1133E70BB34FF24F394BCC06EEF6F0DC8010E94E5
S1133E803837F82E882351F0F8018185898382859B
S1133E908A83CE0101960E94B035AAC084E00E94B4
S1133EA0BB34FF24F394A4C048E050E060ED72E01A
S1133EB0C8010E94624E892BA1F485EB90E20E9416
S1133EC0941584E080933620109231201092302093
S1133ED00E94850286EC90E20E94EB15FF24F39485
S1133EE087C048E050E069ED72E0C8010E94624E6C
S1133EF0892B49F480E20E94C63580E20E94123682
S1133F00FF24F39475C048E050E062EE72E0C8010B
S1133F100E94624E892B29F40E94D136FF24F39427
S1133F2067C048E050E06BEE72E0C8010E94624E48
S1133F30892B29F40E94FD36FF24F39459C048E0EC
S1133F4050E064EF72E0C8010E94624E892B09F0D0
S1133F5045C0FBE1FF1530F088E00E94BB34FF242C
S1133F60F39446C06EEF6F0DC8010E943837F82EE7
S1133F70882371F1D8011996EEE5FFE1CF01805F46
S1133F802D919191291729F089E00E94BB34F12CDD
S1133F902FC08E13F5CFCE01019629E0FC011192BA
S1133FA02A95E9F7F801238D2983248D2A83258D09
S1133FB02B83268D2C83278D2D8320A12E830E9475
S1133FC08F3381E08093C22088EE93E07ED110C0CD
S1133FD08AE00E94BB34FF24F3940AC08BE00E9461
S1133FE0BB34FF24F39404C0F12C02C0FF24F394E7
S1133FF08F2D29960FB6F894DEBF0FBECDBFDF918B
S1134000CF911F910F91FF90BF90AF909F908F9091
S113401008950F93CF93DF931F921F92CDB7DEB70E
S1134020198288E08A838FEB64D100E12EE53FE1B9
S11340304FEB62E0CE010196DDD10F900F90DF913E
S1134040CF910F9108950F931F93CF93C1E0C09325
S11340504920C0937320C0930920C0936F20C0935C
S1134060E120109246201092DB1F10922C20109217
S1134070D620C09336201092E7201092E9201092A7
S1134080E82010924A2010923220C0930820109207
S1134090B3201092C22010926120109248201092F6
S11340A0472087E880937A000E94F8379CD264E026
S11340B072E088EC90E00E949206E4E7F0E284EF7C
S11340C091E0A0E0B0E086839783A087B187128651
S11340D087EA96E194878387CF010E94EB15EEE48B
S11340E0F0E288EE93E0A0E0B0E086839783A087B7
S11340F0B18712868FE696E1948783870E94544E97
S1134100E8E3F0E200E911E0B8010E94974D8C5910
S11341109F4F092E000CAA0BBB0B86839783A087A5
S1134120B187128681E696E1948783870E94544E74
S1134130EDE0F0E2B8010E94974D8C599F4F092E93
S1134140000CAA0BBB0B86839783A087B1871286CA
S11341508FE996E194878387E6ECF0E288E893E1BF
S1134160A0E0B0E086839783A087B187C2872AE95D
S113417036E134872387E5EBF0E286839783A087D3
S1134180B187128683E796E1948783870E942C384F
S113419040DF6091702070917120809172200E94A4
S11341A04E0B811108C0E0EEFFE1178286E0838B9D
S11341B00E94F33103C081E08093E71FCF911F91E8
S11341C00F9108958091DC2081FF0EC084E08093DC
S11341D0362010923120109230200E94850286EC05
S11341E090E20C94EB15089581E0809336200895B5
S11341F00F93062F292F482F65E48EEA53D18AE0C6
S113420090E063D00F91089582E090E10E94C72F5F
S11342108093DC2084E090E10E94C72F8093D72014
S113422083E090E10E94C72F8093DA1F8091DC2005
S113423080FF2EC061E08CEF9FE0DADF60E08DEF5D
S11342409FE0D6DF60E18EEF9FE0D2DF60E08FEF8A
S11342509FE0CEDF64E380E090E1CADF62E181E0C9
S113426090E1C6DF6FE883E090E1C2DF66E684E0B8
S113427090E1BEDF9CD18091DC208E7F8093DC2096
S11342806091DC2082E090E1B3DF8AE090E01DC021
S113429008951F93CF93DF93D82F192F41E0480F30
S11342A0292F65E48FEA29D1C82F212F4D2F65E4EA
S11342B08FEA23D12C2F30E0322F2227A901482B5B
S11342C0CA01DF91CF911F91089528EE33E0AC012C
S11342D0429FC001439F900D529F900D112400975F
S11342E039F020E030E02F5F3F4F28173907D9F726
S11342F008950F931F93CF93DF9300D000D0CDB7D1
S1134300DEB7BE016F5F7F4F96E0FB0111929A9575
S1134310E9F708E418EE21E030E009831A832B83DF
S11343203C838E8388E18D8388EB90E00E941704A0
S113433026960FB6F894DEBF0FBECDBFDF91CF91A6
S11343401F910F910895EF92FF920F931F93CF93B4
S1134350DF93CDB7DEB72A970FB6F894DEBF0FBE52
S1134360CDBFF9019E012F5F3F4F79012AE0D701AC
S11343701D922A95E9F74983DC013C913A83462F43
S113438050E05E834D83F887EF8310E01A87098736
S11343906130C9F0623029F411968C918A833B8391
S11343A012C0633081F4FC0121812B8382818C83D0
S11343B00AC081E090E089DF115031F481E00E946D
S11343C0773781E00AC01AE0BE016F5F7F4F88EB48
S11343D090E00E94B6038111ECCF2A960FB6F894B0
S11343E0DEBF0FBECDBFDF91CF911F910F91FF9024
S11343F0EF900895EF92FF920F931F93CF93DF9363
S1134400CDB7DEB72A970FB6F894DEBF0FBECDBF87
S1134410F9019E012F5F3F4F79012AE0D7011D92D8
S11344202A95E9F74983DC013C913A83462F50E011
S11344305E834D83F887EF8310E01A870987613024
S1134440C9F0623029F411968C918A833B8312C09F
S1134450633081F4FC0121812B8382818C830AC027
S113446081E090E032DF115031F481E00E9477372F
S113447083E00BC01AE0BE016F5F7F4F88EB90E0D2
S11344800E94E2038111ECCF82E02A960FB6F894E1
S1134490DEBF0FBECDBFDF91CF911F910F91FF9073
S11344A0EF900895FF920F931F93CF93DF9300D063
S11344B0CDB7DEB7182F653419F0FF24F39403C089
S11344C06894FF24F1F849832A830B83812F11DF39
S11344D001E09E012D5F3F4F412F6F2DCE010196CC
S11344E032DF85E090E0F1DE0F900F900F90DF91C6
S11344F0CF911F910F91FF900895FF920F931F93F7
S1134500CF93DF9300D01F92CDB7DEB7182F653459
S113451019F0FF24F39403C06894FF24F1F849834D
S11345202A831B821C82812FE4DE01E09E012D5F21
S11345303F4F412F6F2DCE0101965CDF8B810F9091
S11345400F900F900F90DF91CF911F910F91FF90DB
S113455008950F93CF93DF9300D01F92CDB7DEB7AA
S113456019821A821B821C8280E9C3DE00E020E0EB
S113457030E040E961E0CE010196E5DE811109C039
S113458002E09E012D5F3F4F41E961E0CE010196BB
S113459031DF8B8190E0880F991F959587950F9057
S11345A00F900F900F90DF91CF910F9108950F937B
S11345B0CF93DF93C0E0D0E00FEF2D2F4C2F65E4B5
S11345C08EEA70DF8AE090E080DEA8952196CC3FE9
S11345D08FE0D80789F71092E9201092E820DF9144
S11345E0CF910F910895CF93DF93C0E0D0E0CE0137
S11345F00E94C72F8F3F29F4D093E920C093E8206D
S113460005C02B96CC3F8FE0D80789F7DF91CF9177
S113461008956FEF0C94503108952F923F924F926A
S11346205F926F927F928F929F92AF92BF92CF923E
S1134630DF92EF92FF920F931F93CF93DF93CDB747
S1134640DEB76E970FB6F894DEBF0FBECDBF8111F3
S11346503FC08091E8209091E9208C3F9F4020F05A
S11346601092E9201092E8204091E8202091E9205E
S113467003E465E48EEA16DF8091E8209091E92056
S113468001969093E9208093E8208AE090E01DDE73
S11346908091E8209091E9208C3F9F4020F0109277
S11346A0E9201092E8204091E8202091E92003E5D8
S11346B065E48EEAF7DE8091E8209091E920019686
S11346C09093E9208093E8208AE090E0FEDD0CC21C
S11346D0813009F03FC08091E8209091E9208C3F1F
S11346E09F4020F01092E9201092E8204091E820A9
S11346F02091E92003E465E48EEAD4DE8091E82089
S11347009091E92001969093E9208093E8208AE033
S113471090E0DBDD8091E8209091E9208C3F9F4080
S113472020F01092E9201092E8204091E820209196
S1134730E92005E465E48EEAB5DE8091E8209091F5
S1134740E92001969093E9208093E8208AE090E0A4
S1134750BCDDCAC1823009F03FC08091E82090914D
S1134760E9208C3F9F4020F01092E9201092E8202D
S11347704091E8202091E92004E465E48EEA92DE89
S11347808091E8209091E92001969093E92080930C
S1134790E8208AE090E099DD8091E8209091E9207A
S11347A08C3F9F4020F01092E9201092E820409125
S11347B0E8202091E92003E565E48EEA73DE809128
S11347C0E8209091E92001969093E9208093E820D5
S11347D08AE090E07ADD88C1833009F03FC080919F
S11347E0E8209091E9208C3F9F4020F01092E9202E
S11347F01092E8204091E8202091E92004E465E447
S11348008EEA50DE8091E8209091E9200196909301
S1134810E9208093E8208AE090E057DD8091E82049
S11348209091E9208C3F9F4020F01092E920109253
S1134830E8204091E8202091E92005E465E48EEA2F
S113484031DE8091E8209091E92001969093E9204F
S11348508093E8208AE090E038DD46C1843009F096
S11348603FC08091E8209091E9208C3F9F4020F048
S11348701092E9201092E8204091E8202091E9204C
S113488005E465E48EEA0EDE8091E8209091E9204B
S113489001969093E9208093E8208AE090E015DD6A
S11348A08091E8209091E9208C3F9F4020F0109265
S11348B0E9201092E8204091E8202091E92003E5C6
S11348C065E48EEAEFDD8091E8209091E92001967D
S11348D09093E9208093E8208AE090E0F6DC04C11C
S11348E0853009F03FC08091E8209091E9208C3F09
S11348F09F4020F01092E9201092E8204091E82097
S11349002091E92005E465E48EEACCDD8091E8207D
S11349109091E92001969093E9208093E8208AE021
S113492090E0D3DC8091E8209091E9208C3F9F4077
S113493020F01092E9201092E8204091E820209184
S1134940E92005E465E48EEAADDD8091E8209091EC
S1134950E92001969093E9208093E8208AE090E092
S1134960B4DCC2C0863009F03FC08091E820909149
S1134970E9208C3F9F4020F01092E9201092E8201B
S11349804091E8202091E92002E465E48EEA8ADD82
S11349908091E8209091E92001969093E9208093FA
S11349A0E8208AE090E091DC8091E8209091E92071
S11349B08C3F9F4020F01092E9201092E820409113
S11349C0E8202091E92003E465E48EEA6BDD809120
S11349D0E8209091E92001969093E9208093E820C3
S11349E08AE090E072DC80C0873009F03FC080919B
S11349F0E8209091E9208C3F9F4020F01092E9201C
S1134A001092E8204091E8202091E92002E465E436
S1134A108EEA48DD8091E8209091E92001969093F8
S1134A20E9208093E8208AE090E04FDC8091E82040
S1134A309091E9208C3F9F4020F01092E920109241
S1134A40E8204091E8202091E92004E465E48EEA1E
S1134A5029DD8091E8209091E92001969093E92046
S1134A608093E8208AE090E030DC3EC08091E8202A
S1134A709091E9208C3F9F4020F01092E920109201
S1134A80E8204091E8202091E9200EE465E48EEAD4
S1134A9009DD8091E8209091E92001969093E92026
S1134AA08093E8208AE090E010DC8091E8209091E7
S1134AB0E9208C3F9F4020F01092E9201092E820DA
S1134AC04091E8202091E9200EE465E48EEAEADCD6
S1134AD08091E8209091E92001969093E9208093B9
S1134AE0E8208AE090E0F1DB8091EB1F8093E720DF
S1134AF00E9423386B017C014F2D552766277727A9
S1134B004E2C8D2CA091FF1FE0E8AE9FD001112404
S1134B108091E41F8170A82B8091E31F81708983A9
S1134B201A8289819A81880F991F9A2F982B8091D4
S1134B30E71F80FB222420F8312C220C331C220C8A
S1134B40331C292AA0EEBFE18C9181708B831C82D7
S1134B50EB81FC81EE0FFF1FEE0FFF1FEE0FFF1F17
S1134B60822D8E2B9091E51F91709D831E822D8145
S1134B703E8122953295307F3227207F3227282E9E
S1134B80222A8091F01F81708F8318868F819885E7
S1134B90880F991F82959295907F9827807F9827F8
S1134BA082299091E81F917099871A8629843A8402
S1134BB00024369427940794369427940794322C2F
S1134BC0202C282AA0910720E0E8AE9FD0011124D0
S1134BD08091F21F87708A2B9091EB1F91709B87B5
S1134BE01C86EB85FC85EE0FFF1FEE0FFF1FEE0FFB
S1134BF0FF1F8E2B9091EE1F91709D871E862D8531
S1134C003E8522953295307F3227207F3227282B0C
S1134C108091052081708F87188A8F859889880FE5
S1134C20991F82959295907F9827807F9827822B51
S1134C30909106209170998B1A8A29893A890024C7
S1134C40369527950794369527950794322F202D6E
S1134C50182F122B8091012081708B8B1C8AEB8979
S1134C60FC89EE0FFF1F8091022081708D8B1E8ABC
S1134C708D899E89880F991F880F991F8E2BE0912B
S1134C800020E1708E2B9091032091709F8B188EE1
S1134C90EF89F88DEE0FFF1FEE0FFF1FEE0FFF1FC2
S1134CA08E2B909104209170998F1A8E298D3A8DB4
S1134CB022953295307F3227207F3227282B80910E
S1134CC0E91F81708B8F1C8E8B8D9C8D880F991F93
S1134CD082959295907F9827807F9827822B909138
S1134CE0EA1F91709D8F1E8E2D8D3E8D002436956A
S1134CF027950794369527950794322F202D382E23
S1134D00322A8091E8209091E9208C3F9F4020F046
S1134D101092E9201092E8208091E8202091E92067
S1134D20042F482F65E48EEABDDB8091E820909142
S1134D30E92001969093E9208093E8208AE090E0AE
S1134D40C4DA8091E8209091E9208C3F9F4020F0C4
S1134D501092E9201092E8204091E8202091E92067
S1134D60042D65E48EEA9EDB8091E8209091E92091
S1134D7001969093E9208093E8208AE090E0A5DAF8
S1134D808091E8209091E9208C3F9F4020F0109280
S1134D90E9201092E8204091E8202091E920082D94
S1134DA065E48EEA7FDB8091E8209091E92001960A
S1134DB09093E9208093E8208AE090E086DA80915D
S1134DC0E8209091E9208C3F9F4020F01092E92048
S1134DD01092E8204091E8202091E9200C2D65E410
S1134DE08EEA60DB8091E8209091E920019690930F
S1134DF0E9208093E8208AE090E067DA8091E82057
S1134E009091E9208C3F9F4020F01092E92010926D
S1134E10E8204091E8202091E9200091E11F65E419
S1134E208EEA40DB8091E8209091E92001969093EE
S1134E30E9208093E8208AE090E047DA8091E82036
S1134E409091E9208C3F9F4020F01092E92010922D
S1134E50E8204091E8202091E9200091E61F65E4D4
S1134E608EEA20DB8091E8209091E92001969093CE
S1134E70E9208093E8208AE090E027DA8091E82016
S1134E809091E9208C3F9F4020F01092E9201092ED
S1134E90E8204091E8202091E920022D65E48EEA83
S1134EA001DB8091E8209091E92001969093E9201C
S1134EB08093E8208AE090E008DA8091E8209091DD
S1134EC0E9208C3F9F4020F01092E9201092E820C6
S1134ED04091E8202091E920012F65E48EEAE2DA8E
S1134EE08091E8209091E92001969093E9208093A5
S1134EF0E8208AE090E0E9D98091E8209091E920C7
S1134F008C3F9F4020F01092E9201092E8204091BD
S1134F10E8202091E920032D65E48EEAC3DA80912C
S1134F20E8209091E92001969093E9208093E8206D
S1134F308AE090E0CAD98091E8209091E9208C3FE2
S1134F409F4020F01092E9201092E8208091E82000
S1134F509091E9205EDB8AE090E0B7D96E960FB6B7
S1134F60F894DEBF0FBECDBFDF91CF911F910F919B
S1134F70FF90EF90DF90CF90BF90AF909F908F9075
S1134F807F906F905F904F903F902F9008950F9374
S1134F901F93CF93FC016081662369F08C01C0E00C
S1134FA088EC90E00E94FC05CF5FF801EC0FF11D46
S1134FB060816111F5CFCF911F910F910895909168
S1134FC0B420992319F09130B9F00895E2E6F0E2A3
S1134FD02FE630E290E29193E217F307E1F78B3585
S1134FE021F481E08093B42008958D3519F5109251
S1134FF045201092B42008958D3541F41092452037
S11350001092B42081E0809321200895909145204E
S11350109D3048F4E92FF0E0EE59FF4D80839F5F07
S1135020909345200895109245201092B4208DEF5E
S113503092E0ADCF0895CF93C82F682F62956F701B
S11350406A3010F0695C01C0605D88EC90E00E94F9
S1135050FC05CF70CA3018F067E36C0F02C060E340
S11350606C0F88EC90E00E94FC05CF91089510929B
S11350702120E09162208E2F90E0FC01F197E9302D
S1135080F105B0F48827ED59FE4F8F4F0C94CC4DA9
S113509082E0089583E0089584E0089585E008950A
S11350A086E0089587E0089588E0089589E00895EA
S11350B08DE193E06CDF80E0089581E00895109223
S11350C02120809162208133A1F018F4803351F0C3
S11350D00BC0823319F0833319F006C082E00895BF
S11350E083E0089584E008958DE193E050DF85E046
S11350F0089581E008950F931F93CF93FC0160817D
S1135100662369F08C01C0E088EC90E00E94FC0505
S1135110CF5FF801EC0FF11D60816111F5CFCF91E4
S11351201F910F910895CF93C62FE5DF8FE293E08F
S11351302EDF8C2F80DFCF9108959F92AF92BF9284
S1135140CF92DF92EF92FF920F931F93CF93DF934F
S1135150F62E6A0121E02093872010922120182F37
S1135160B92EC2E6D0E2AA24A394A80E5BC0309163
S113517021203130E1F781E3F81621F082E3F816BB
S1135180F1F04DC088810E946437E82E89810E9425
S11351906437EE0CEE0CEE0CEE0CE82A0E2D2B2DE3
S11351A0412F65E48EEA7ED96E2DC601BCDF8AE00C
S11351B090E08BD8109287201092212033C08881F0
S11351C00E946437E82E89810E946437EE0CEE0C4D
S11351D0EE0CEE0CE82A0E2D2B2D4A2D65E48EEAFA
S11351E061D98A810E946437982E8B810E9464372A
S11351F0082F6E2DC60197DFE92CEE0CEE0CEE0C99
S1135200EE0CE02A0E2D2B2D412F65E48FEA4AD9AE
S11352108E2D11DF109287201092212003C08CE381
S113522093E0B5DE30918720313009F4A0CFDF91CF
S1135230CF911F910F91FF90EF90DF90CF90BF908F
S1135240AF909F90089580912220823051F128F4EC
S1135250882359F08130C9F041C0843009F439C041
S113526060F1853009F43FC039C089E693E08FDEF0
S113527087E993E08CDE8AE096E089DE81E0809322
S11352805B2085E080932220089585EE93E07FDE05
S113529046E658E062E38CEF9FE04FDF1092222055
S11352A0089582E094E073DE47E558E062E38EEF10
S11352B09FE043DF1092222008958FE194E067DE9F
S11352C049E458E062E380E090E137DF1092222065
S11352D0089510925B208BE394E059DE89E080937B
S11352E0372010922220089510922120809162206C
S11352F0823361F028F4803389F08133B1F010C037
S1135300843341F028F0853339F00AC082E00895EF
S113531083E0089584E0089585E0089587E0089582
S11353208DE193E034DE86E0089581E00895DF9214
S1135330EF92FF920F931F93CF93DF9380912320DB
S113534090E08A30910508F0EFC5FC018827E45904
S1135350FE4F8F4F0C94CC4D6091292070912A20E0
S113536080912B200E94DB0960914B2070914C208E
S113537080914D200E94DB0960915D2070915E2038
S113538080915F200E94DB0960912D2070912E2076
S113539080912F200E94DB0960910A2070910B20DC
S11353A080910C200E94DB096091DE207091DF2047
S11353B08091E0200E94DB096091E4207091E52057
S11353C08091E6200E94DB098FE494E0E0DD8EE723
S11353D097E0DDDD6091D8207091D9208091DA20AA
S11353E00E944E0B882351F06091D8207091D920EF
S11353F08091DA200E944E0B8111F6CF6091D32068
S11354007091D4208091D5200E944E0BE82E60919B
S1135410262070912720809128200E944E0BD82EA0
S11354206091842070918520809186200E944E0B8B
S1135430F82E6091DC1F7091DD1F8091DE1F0E94A9
S11354404E0B082F609133207091342080913520C9
S11354500E944E0B182F60911A2070911B2080918E
S11354601C200E944E0BD82F6091C3207091C42041
S11354708091C5200E944E0BC82F609181207091AD
S11354808220809183200E944E0B21E0D11020E0E5
S113549091E0E11090E0292B91E0F11090E0922B43
S11354A021E0011120E0292B91E0111190E0922BD1
S11354B021E0D11120E0292B91E0C11190E0922B41
S11354C029F491E0811190E0992349F08CE594E06E
S11354D05EDD88E694E05BDD1092232025C56091B3
S11354E0292070912A2080912B200E94970985E819
S11354F094E04DDD81E08093232016C58FE494E091
S113550046DD81E994E043DD6091D3207091D4209D
S11355108091D5200E944E0B882351F06091D320B6
S11355207091D4208091D5200E944E0B8111F6CF2A
S11355306091D8207091D9208091DA200E944E0B7E
S1135540E82E6091262070912720809128200E94C7
S11355504E0BD82E609184207091852080918620F6
S11355600E944E0BF82E6091DC1F7091DD1F80911C
S1135570DE1F0E944E0B082F60913320709134205F
S1135580809135200E944E0B182F60911A20709143
S11355901B2080911C200E944E0BD82F6091C320A9
S11355A07091C4208091C5200E944E0BC82F609139
S11355B0812070918220809183200E944E0B21E0F3
S11355C0D11020E091E0E11090E0292B91E0F1105E
S11355D090E0922B21E0011120E0292B91E01111A0
S11355E090E0922B21E0D11120E0292B91E0C11110
S11355F090E0922B29F491E0811190E0992349F0F5
S11356008CE594E0C4DC88E694E0C1DC10922320AD
S11356108BC460914B2070914C2080914D200E944E
S1135620970985E894E0B3DC82E0809323207CC46E
S11356308FE494E0ACDC8EE392E0A9DC6091262058
S113564070912720809128200E944E0B882351F0CE
S11356506091262070912720809128200E944E0B73
S11356608111F6CF6091D8207091D9208091DA20F1
S11356700E944E0BE82E6091D3207091D42080912B
S1135680D5200E944E0BD82E6091842070918520E5
S1135690809186200E944E0BF82E6091DC1F709141
S11356A0DD1F8091DE1F0E944E0B082F6091332076
S11356B070913420809135200E944E0B182F6091F8
S11356C01A2070911B2080911C200E944E0BD82F11
S11356D06091C3207091C4208091C5200E944E0B1C
S11356E0C82F6091812070918220809183200E9434
S11356F04E0B21E0D11020E091E0E11090E0292B45
S113570091E0F11090E0922B21E0011120E0292B8F
S113571091E0111190E0922B21E0D11120E0292B8E
S113572091E0C11190E0922B29F491E0811190E075
S1135730992349F08CE594E02ADC88E694E027DCA0
S113574010922320F1C360915D2070915E208091BE
S11357505F200E94970985E894E019DC83E0809338
S11357602320E2C38FE494E012DC83E994E00FDCAD
S11357706091842070918520809186200E944E0B38
S1135780882351F060918420709185208091862037
S11357900E944E0B8111F6CF6091D8207091D920D0
S11357A08091DA200E944E0BE82E6091D3207091F4
S11357B0D4208091D5200E944E0BD82E60912620B3
S11357C070912720809128200E944E0BF82E609122
S11357D0DC1F7091DD1F8091DE1F0E944E0B082F8D
S11357E06091332070913420809135200E944E0BBB
S11357F0182F60911A2070911B2080911C200E9408
S11358004E0BD82F6091C3207091C4208091C52085
S11358100E944E0BC82F609181207091822080914C
S113582083200E944E0B21E0D11020E091E0E11092
S113583090E0292B91E0F11090E0922B21E00111EE
S113584020E0292B91E0111190E0922B21E0D1115D
S113585020E0292B91E0C11190E0922B29F491E0F2
S1135860811190E0992349F08CE594E090DB88E67F
S113587094E08DDB1092232057C360912D2070910A
S11358802E2080912F200E94970985E894E07FDBE9
S113589084E08093232048C38FE494E078DB85E997
S11358A094E075DB6091DC1F7091DD1F8091DE1F39
S11358B00E944E0B882351F06091DC1F7091DD1F14
S11358C08091DE1F0E944E0B8111F6CF6091D8208B
S11358D07091D9208091DA200E944E0BE82E6091BD
S11358E0D3207091D4208091D5200E944E0BD82EC5
S11358F06091262070912720809128200E944E0BD1
S1135900F82E6091842070918520809186200E94D9
S11359104E0B082F609133207091342080913520F4
S11359200E944E0B182F60911A2070911B208091B9
S11359301C200E944E0BD82F6091C3207091C4206C
S11359408091C5200E944E0BC82F609181207091D8
S11359508220809183200E944E0B21E0D11020E010
S113596091E0E11090E0292B91E0F11090E0922B6E
S113597021E0011120E0292B91E0111190E0922BFC
S113598021E0D11120E0292B91E0C11190E0922B6C
S113599029F491E0811190E0992349F08CE594E099
S11359A0F6DA88E694E0F3DA10922320BDC260911F
S11359B00A2070910B2080910C200E94970985E8A1
S11359C094E0E5DA85E080932320AEC28FE494E08E
S11359D0DEDA87E994E0DBDA6091332070913420D9
S11359E0809135200E944E0B882351F06091332022
S11359F070913420809135200E944E0B8111F6CF96
S1135A006091D8207091D9208091DA200E944E0BA9
S1135A10E82E6091D3207091D4208091D5200E94EB
S1135A204E0BD82E6091262070912720809128203B
S1135A300E944E0BF82E60918420709185208091F5
S1135A4086200E944E0B082F6091DC1F7091DD1F91
S1135A508091DE1F0E944E0B182F60911A207091C6
S1135A601B2080911C200E944E0BD82F6091C320D4
S1135A707091C4208091C5200E944E0BC82F609164
S1135A80812070918220809183200E944E0B21E01E
S1135A90D11020E091E0E11090E0292B91E0F11089
S1135AA090E0922B21E0011120E0292B91E01111CB
S1135AB090E0922B21E0D11120E0292B91E0C1113B
S1135AC090E0922B29F491E0811190E0992349F020
S1135AD08CE594E05CDA88E694E059DA10922320AD
S1135AE023C26091DE207091DF208091E0200E942B
S1135AF0970985E894E04BDA86E08093232014C26A
S1135B008FE494E044DA89E994E041DA60911A2060
S1135B1070911B2080911C200E944E0B882351F011
S1135B2060911A2070911B2080911C200E944E0BC2
S1135B308111F6CF6091D8207091D9208091DA201C
S1135B400E944E0BE82E6091D3207091D420809156
S1135B50D5200E944E0BD82E6091262070912720CC
S1135B60809128200E944E0BF82E60918420709121
S1135B708520809186200E944E0B082F6091DC1FA7
S1135B807091DD1F8091DE1F0E944E0B182F6091D3
S1135B90332070913420809135200E944E0BD82FF1
S1135BA06091C3207091C4208091C5200E944E0B47
S1135BB0C82F6091812070918220809183200E945F
S1135BC04E0B21E0D11020E091E0E11090E0292B70
S1135BD091E0F11090E0922B21E0011120E0292BBB
S1135BE091E0111190E0922B21E0D11120E0292BBA
S1135BF091E0C11190E0922B29F491E0811190E0A1
S1135C00992349F08CE594E0C2D988E694E0BFD9A1
S1135C101092232089C16091E4207091E520809145
S1135C20E6200E94970985E894E0B1D987E0809343
S1135C3023207AC18FE494E0AAD987E392E0A7D91C
S1135C406091C3207091C4208091C5200E944E0BA6
S1135C50882351F06091C3207091C4208091C520A5
S1135C600E944E0B8111F6CF6091D8207091D920FB
S1135C708091DA200E944E0BE82E6091D32070911F
S1135C80D4208091D5200E944E0BD82E60912620DE
S1135C9070912720809128200E944E0BF82E60914D
S1135CA0842070918520809186200E944E0B082FBD
S1135CB06091DC1F7091DD1F8091DE1F0E944E0BEE
S1135CC0182F6091332070913420809135200E94E8
S1135CD04E0BD82F60911A2070911B2080911C20AC
S1135CE00E944E0BC82F6091812070918220809178
