:1000000092C1000039C7000064C700008FC700001C
:10001000BAC70000E5C700000C941D080C944A08FC
:100020000C9477080C94A4080C94D1089CC100008F
:100030009AC1000098C1000096C100000C940938D4
:1000400092C1000090C100008EC100008CC1000070
:100050008AC1000088C1000086C100000C94DB3713
:1000600082C1000080C100007EC100007CC1000090
:100070007AC1000078C1000076C1000074C10000A0
:1000800072C1000070C100006EC100006CC10000B0
:1000900087C6000068C1000066C10000DBC3000025
:1000A00062C1000060C100000C94D80B5CC100006C
:1000B0005AC1000058C1000056C1000054C10000E0
:1000C00052C1000050C100004EC100004CC10000F0
:1000D0004AC1000048C1000046C1000044C1000000
:1000E00042C1000040C100003EC100003CC1000010
:1000F0003AC1000038C1000036C1000034C1000020
:1001000032C1000030C100002EC100002CC100002F
:100110002AC1000028C1000026C1000024C100003F
:1001200022C1000020C100001EC100001CC100004F
:100130001AC10000D504D105D105D105D105D105DD
:10014000D105D1054C04D105D105D105D105D10585
:10015000D105D1054C04D105D105D105D105D10575
:10016000D105D1057104D105D105D105D105D10540
:10017000D105D105D504D105D105D105D105D105CC
:10018000D105D1057104D105D105D105D105D10520
:10019000D105D105D504D105D105D105D105D105AC
:1001A000D105D1056205D105D105D105D105D1050E
:1001B000D105D105DA04D105D105D105D105D10587
:1001C000D105D105D504D105D105D105D105D1057C
:1001D000D105D1050305D105D105D105D105D1053D
:1001E000D105D1053B05D105D105D105D105D105F5
:1001F000D105D1059605D105D105D105D105D1058A
:10020000D105D1059605D105D105D105D105D10579
:10021000D105D1059605D105D105D105D105D10569
:10022000D105D1059605D105D105D105D105D10559
:10023000D105D105A005D105D105D105D105D1053F
:10024000D105D105C505D105D105D105D105D1050A
:10025000D105D105A005D105D105D105D105D1051F
:10026000D105D105C505D105D105D105D105D105EA
:10027000D105D105B905D105D105D105D105D105E6
:10028000D105D1056B05D105D105D105D105D10524
:10029000D105D1056B05D105D105D105D105D10514
:1002A000D105D1056F05D105D105D105D105D10500
:1002B000D105D1058A05D105D105D105D105D105D5
:1002C000D105D105C50589287428762878287A288B
:1002D0007C287E2880288228D829AA2A442BDE2B35
:1002E000782C122DAC2D462EF02EBD2FD330E630BB
:1002F000F4300431143128314631353177327A32D5
:100300009D327C32A032A232A432A6327E32F33445
:10031000FC34103506351A3524352E35383542353E
:10032000563560354C3511241FBECFEFD1E8DEBF06
:10033000CDBF00E00CBF19E0A0E0B2E0E6EAFDE9C5
:1003400000E00BBF02C007900D92A237B107D9F7AA
:1003500023E2A2E7B9E001C01D92A233B207E1F7A0
:1003600060D50C94D14E4CCEF999FECF92BD81BD93
:10037000F89A80B50895EF92FF920F931F93CF9351
:10038000DF934115510579F08B01040F151FEB0127
:100390007C01E61AF70AC7018C0F9D1FE5DF8993E0
:1003A000C017D107C1F7DF91CF911F910F91FF9037
:1003B000EF900895EF92FF920F931F93CF93DF93E7
:1003C000CDB7DEB761970FB6F894DEBF0FBECDBFD5
:1003D0004AE250E060E970E280E090E0CCDF80919A
:1003E000B6209091B720A091B820B091B920813467
:1003F0009C46A546B84709F47BC081E1E7E1F2E0FD
:10040000DE01119601900D928A95E1F70F2EF8EE1C
:10041000EF2EFFE1FF2EF02DF701638D748D8CEF31
:100420009FE00E94752100E910E2F801918380832A
:10043000F701658D768D80E090E10E947521F801CD
:1004400095838483F701618D728D8EEF9FE00E940A
:100450007521F8019383828340E250E060E270E00E
:1004600086E990E20E94AE4E8BE0EBE0F2E0A6E976
:10047000B0E201900D928A95E1F7F80180819181B7
:10048000FC01EF2FFF27E295EF7021E030E02C0F09
:100490003D1FE20FF31F2081F8012587E92FFF2779
:1004A000EF70FF2721E030E02C0F3D1FE20FF31F1C
:1004B0002081F8012687FC01F295E295EF70EF2785
:1004C000FF70EF27EF70FF2721E030E02C0F3D1F7A
:1004D000E20FF31F2081F80127878F709927E1E051
:1004E000F0E0EC0FFD1FE80FF91F8081F801808B11
:1004F00061960FB6F894DEBF0FBECDBFDF91CF91EE
:100500001F910F91FF90EF900895CF93DF934AE2F0
:1005100050E060E970E280E090E02DDF8091B6204D
:100520009091B720A091B820B091B92081349C4619
:10053000A546B84711F1C0E9D0E28FEF9FEF99834C
:1005400088839D838C838FE090E09B838A8340E245
:1005500050E060E270E086E990E20E94AE4E8BE0EF
:10056000EBE0F2E0A6E9B0E201900D928A95E1F7A6
:1005700086E68D878E878F87888B4ED0DF91CF91CF
:10058000089529E08437920769F045EF59E0BC01EE
:1005900021E04617570739F02F5F4F575F4F24313F
:1005A000C1F701C020E0FC01378531110EC030E0F9
:1005B000F901F695FE2FEE27F795E7952E0F3F1FD1
:1005C000F901EE58F64F1082089530E0F901F695E2
:1005D000FE2FEE27F795E795E20FF31FEE58F64F43
:1005E000418141504183442319F00C94420C0895F9
:1005F000F901F695FE2FEE27F795E7952E0F3F1F91
:10060000F901EE58F64F10820895FC01618587814B
:1006100090850C940D1D0895CF93DF93C0E9D0E22F
:10062000888199810E94000C8C819D810E94060C1A
:100630008A810E94D01381E00E94CC1388E292E06C
:100640000E94461065E073E081E00E940C0CA2E776
:10065000B9E0EDE7F9E061E973E181E093E041ECB5
:1006600052E01C9218961C921E921797EF01229747
:1006700088832196888390839F01285F3F4F328330
:10068000218355834483AF57BF4FEF57FF4FE61782
:10069000F70739F70E94AC1BDF91CF910895809145
:1006A0007209882359F0E3EFF9E066E873E181E02D
:1006B00090E0AC012081211118C002C040E050E060
:1006C000FA01F695FE2FEE27F795E7954E0F5F1F7F
:1006D000FA01EE58F64F81E08083DF01A058BF4F4A
:1006E0001C9281838E2F9F2F08950196EF57FF4F05
:1006F000E617F707F1F680E090E00895FC01E05876
:10070000FF4F2081222331F0FC01268702960C94B2
:10071000420C0895FC0110820895CF93DF9370E09E
:100720009C01260F371FF9013297C081D0E0DC2FE2
:10073000CC2731962081C22B6250710926E030E02F
:1007400049E352E00E949E4D21E0C817D90709F005
:1007500020E0822FDF91CF91089581E0809395135F
:100760001092871380E98093BC000895611571058C
:1007700029F180918713811123C0EFE8F3E17183A0
:100780006083138212821582148281E08093871322
:10079000FB0184819581892B21F484E0809395135A
:1007A00003C082E08093951385EA8093BC0080911A
:1007B00087138111FCCF80919613089588EF0895D7
:1007C00080E808957093901360938F1361157105FD
:1007D00041F1FB0180859185892B29F18091871357
:1007E000811123C0EFE8F3E1138212821582148293
:1007F00081E080938713FB0184819581892B21F40B
:1008000085E08093951303C083E08093951385EA78
:100810008093BC00809187138111FCCF8091961347
:10082000089588EF089588EF089580E80895F89472
:10083000ECEBF0E010821092B900DB0114968C9181
:100840008093B800808181608083789410928613B1
:1008500080E008951F920F920FB60F9211240BB6ED
:100860000F922F933F934F935F936F937F938F9349
:100870009F93AF93BF93EF93FF938091B900887FCD
:1008800090E0893C910508F08CC1FC018827E65670
:10089000FF4F8F4F0C94024E809195139EEF980F4F
:1008A000933060F4E0918F13F091901380818E7FEC
:1008B0008093BB0085E88093BC008BC1853061F4D8
:1008C000E0918F13F0919013808181608093BB0041
:1008D00085E88093BC007DC140DF8BEF8093961349
:1008E00078C180919513843051F5EFE8F3E184816C
:1008F00095810190F081E02D208531858217930745
:1009000098F426813781AC014F5F5F4F5093941369
:1009100040939313F901E80FF91F80818093BB0086
:1009200085E88093BC0055C184E98093BC00EFE862
:10093000F3E181E086831782109287134AC19EEF0C
:10094000980F923038F5EFE8F3E182819381A0812E
:10095000B181A80FB91F11962C91019693838283C0
:100960002093BB0025E82093BC000190F081E02D8E
:10097000248135812817390709F02BC180919513FF
:10098000823021F484E08093951323C185E0809325
:1009900095131FC1853021F485EA8093BC0019C1ED
:1009A000DCDE8BEF8093961314C1D7DE8FEF80933C
:1009B00096130FC180919513853001F5EFE8F3E1AF
:1009C000A081B18118968D919C91199701972481EE
:1009D00035812817390749F4ECEBF0E080818F7BF3
:1009E0008083808185688083F4C0ECEBF0E08081B7
:1009F00080648083808185688083EBC0AEDE8BEF6E
:100A000080939613E6C02091BB00809195138530AA
:100A100069F5EFE8F3E1A081B18116966D917C91C3
:100A2000179784819581AC014F5F5F4F5583448355
:100A3000FB01E80FF91F208318968D919C9119975F
:100A400001974817590748F4ECEBF0E08081806487
:100A50008083808185688083BCC0ECEBF0E080817E
:100A60008F7B8083808185688083B3C076DE8BEF47
:100A700080939613AEC02091BB0080919513853072
:100A8000E1F4EFE8F3E1A081B18116964D915C911C
:100A9000179784819581BC016F5F7F4F7583648355
:100AA000DA01A80FB91F2C9384E98093BC0081E080
:100AB00086831782109287138CC04FDE8BEF809352
:100AC000961387C0EFE8F3E181E0868386EF8783A2
:100AD000109287137EC010928B1310928A13E8E84D
:100AE000F3E1A081B18112962D913C9113978281FF
:100AF0009381AC014F5F5F4F53834283D901A80FAD
:100B0000B91F8C918093BB0085EC8093BC0088E07A
:100B100084835FC0E8E8F3E181E0848382E090E0D1
:100B20009683858385EC8093BC0053C0E8E8F3E1AD
:100B30001382128285EC8093BC0088E0848349C0D4
:100B40002091BB00E8E8F3E1A081B1814D915C9177
:100B500082819381BC016F5F7F4F73836283DA016F
:100B6000A80FB91F2C9385EC8093BC0088E0848388
:100B700030C0E8E8F3E181E0848383E090E096838D
:100B8000858385EC8093BC0024C0E8E8F3E181E034
:100B9000848380E98093BC008FEF9FEF96838583E9
:100BA00018C080918613811109C0EFE8F3E181E05C
:100BB00086838BEF8783109287130BC0E8E8F3E1FD
:100BC0008EEF9FEF9683858381E0848385EC80930D
:100BD000BC00FF91EF91BF91AF919F918F917F9159
:100BE0006F915F914F913F912F910F900BBE0F909E
:100BF0000FBE0F901F9018950F931F93CF93DF9305
:100C00008C01D62FCAE00AC081E090E00E949121B9
:100C1000C15021F482E00E94AD3704C0F8019081F8
:100C200095FFF2CFF801D68380E0DF91CF911F913D
:100C30000F9108958F929F92AF92BF92CF92DF92C1
:100C4000EF92FF920F931F93CF93DF93EC016A0112
:100C50007B01B901A801689412F8769567955795BC
:100C600047951694D1F7D901C801072E73E1B695BF
:100C7000A795979587957A95D1F7702DE881E1FF33
:100C80000BC04A015B01B694A79497948794B695DC
:100C9000A7959795879502C04A015B018C149D0426
:100CA000AE04BF0478F1C816D906EA06FB0660F167
:100CB000888181FF10C0CC0CDD1CEE1CFF1CCB0119
:100CC000BA01A70196010E94E04DDA01C90101971E
:100CD000A109B10913C0C901B801689413F8969528
:100CE0008795779567951694D1F7A70196010E948D
:100CF000E04DDA01C9010197A109B1099D838C83F7
:100D000081E003C080E001C080E0DF91CF911F91BE
:100D10000F91FF90EF90DF90CF90BF90AF909F909A
:100D20008F9008950F931F93CF93DF93EC01FB01F6
:100D30008A818F738A832681358184819A81482FA5
:100D40004370440F997F942B9A8399818470880F04
:100D5000880F9B7F892B89838A818F7C832B8A8351
:100D60008A81922F990F990F990F877F892B8A83F8
:100D7000408151816281738100E012E12AE730E015
:100D8000CE0158DF99819860998399819061998308
:100D9000998190689983DF91CF911F910F91089568
:100DA0001F920F920FB60F9211240BB60F922F9332
:100DB0003F934F935F936F937F938F939F93AF93E3
:100DC000BF93EF93FF938091CE000E940B28FF9179
:100DD000EF91BF91AF919F918F917F916F915F91B3
:100DE0004F913F912F910F900BBE0F900FBE0F9020
:100DF0001F90189580911020813021F480937720E6
:100E0000809311200895F894A89599E288E10FB68F
:100E1000F894A895809360000FBE9093600078943A
:100E200008950E941A150E943021C4DAF5DBE7E923
:100E3000F3E180E197E2A0E0B0E086839783A087AA
:100E4000B18781E082878AEF96E094878387CF011C
:100E50000E94EB150E942D170E944F208091E420E4
:100E600090E00E940E21CFDF86E080934D010E942A
:100E700023150E94091DFBCF1F920F920FB60F92F0
:100E800011240BB60F922F933F934F935F936F9361
:100E90007F938F939F93AF93BF93EF93FF93E091D3
:100EA000B613F091B713309709F01995FF91EF91B0
:100EB000BF91AF919F918F917F916F915F914F9172
:100EC0003F912F910F900BBE0F900FBE0F901F9070
:100ED00018951F920F920FB60F9211240BB60F9216
:100EE0002F933F934F935F936F937F938F939F9332
:100EF000AF93BF93EF93FF93E091B413F091B513C9
:100F0000309709F01995FF91EF91BF91AF919F91A3
:100F10008F917F916F915F914F913F912F910F90A2
:100F20000BBE0F900FBE0F901F9018951F920F923F
:100F30000FB60F9211240BB60F922F933F934F933E
:100F40005F936F937F938F939F93AF93BF93EF9331
:100F5000FF93E091B213F091B313309709F0199514
:100F6000FF91EF91BF91AF919F918F917F916F9181
:100F70005F914F913F912F910F900BBE0F900FBE3D
:100F80000F901F9018951F920F920FB60F92112479
:100F90000BB60F922F933F934F935F936F937F9373
:100FA0008F939F93AF93BF93EF93FF93E091B01311
:100FB000F091B113309709F01995FF91EF91BF911E
:100FC000AF919F918F917F916F915F914F913F91E1
:100FD0002F910F900BBE0F900FBE0F901F90189582
:100FE0001F920F920FB60F9211240BB60F922F93F0
:100FF0003F934F935F936F937F938F939F93AF93A1
:10100000BF93EF93FF93E091AE13F091AF1330973E
:1010100009F01995FF91EF91BF91AF919F918F9139
:101020007F916F915F914F913F912F910F900BBEE8
:101030000F900FBE0F901F9018951F920F920FB632
:101040000F9211240BB60F922F933F934F935F9300
:101050006F937F938F939F93AF93BF93EF93FF9380
:10106000E091AC13F091AD13309709F01995FF9111
:10107000EF91BF91AF919F918F917F916F915F9110
:101080004F913F912F910F900BBE0F900FBE0F907D
:101090001F9018951F920F920FB60F9211240BB646
:1010A0000F922F933F934F935F936F937F938F9301
:1010B0009F93AF93BF93EF93FF93E091AA13F091A7
:1010C000AB13309709F01995FF91EF91BF91AF9154
:1010D0009F918F917F916F915F914F913F912F9150
:1010E0000F900BBE0F900FBE0F901F9018951F9280
:1010F0000F920FB60F9211240BB60F922F933F93BE
:101100004F935F936F937F938F939F93AF93BF930F
:10111000EF93FF93E091A813F091A913309709F092
:101120001995FF91EF91BF91AF919F918F917F9111
:101130006F915F914F913F912F910F900BBE0F9048
:101140000FBE0F901F9018951F920F920FB60F921F
:1011500011240BB60F922F933F934F935F936F938E
:101160007F938F939F93AF93BF93EF93FF93E09100
:10117000A613F091A713309709F01995FF91EF91FD
:10118000BF91AF919F918F917F916F915F914F919F
:101190003F912F910F900BBE0F900FBE0F901F909D
:1011A00018951F920F920FB60F9211240BB60F9243
:1011B0002F933F934F935F936F937F938F939F935F
:1011C000AF93BF93EF93FF93E091A413F091A51316
:1011D000309709F01995FF91EF91BF91AF919F91D1
:1011E0008F917F916F915F914F913F912F910F90D0
:1011F0000BBE0F900FBE0F901F901895803111F409
:10120000D99A0895D89A0895803159F4E8E6F0E023
:10121000808182608083ECE6F0E080818160808361
:101220000895E8E6F0E0808181608083EBE6F0E0FD
:10123000208181E090E002C0880F991F7A95E2F743
:10124000822B80830895803131F4ECE6F0E08081D8
:101250008E7F80830895EBE6F0E0208181E090E0CE
:1012600002C0880F991F7A95E2F7809582238083C8
:101270000895CF92DF92EF926B01E82EE4DF8E2D7E
:10128000B60126D18E2DB601C5D18E2DB601B6DFA1
:101290008E2DB601B9DFEF90DF90CF900895982F93
:1012A000811105C05093B7134093B6130895813050
:1012B00029F45093B5134093B4130895823029F460
:1012C0005093B3134093B2130895833029F450938D
:1012D000B1134093B0130895843029F45093AF13A1
:1012E0004093AE130895853029F45093AD13409385
:1012F000AC130895863029F45093AB134093AA138E
:101300000895873029F45093A9134093A8130895A2
:101310008850883028F45093A7134093A61308955B
:10132000903121F45093A5134093A4130895623093
:1013300009F128F4662341F0613089F008956330A3
:1013400021F1643069F1089525B181E090E002C097
:10135000880F991F7A95E2F7822B85B908952BB1F2
:1013600081E090E002C0880F991F7A95E2F7822B06
:101370008BB908952EB181E090E002C0880F991FCB
:101380007A95E2F7822B8EB9089521B381E090E03F
:1013900002C0880F991F7A95E2F7822B81BB0895CE
:1013A00024B381E090E002C0880F991F7A95E2F79C
:1013B000822B84BB0895623019F128F4662341F032
:1013C000613091F00895633039F1643089F1089506
:1013D00025B181E090E002C0880F991F7A95E2F76D
:1013E0008095822385B908952BB181E090E002C0F9
:1013F000880F991F7A95E2F7809582238BB908951B
:101400002EB181E090E002C0880F991F7A95E2F733
:10141000809582238EB9089521B381E090E002C0C7
:10142000880F991F7A95E2F78095822381BB0895F2
:1014300024B381E090E002C0880F991F7A95E2F70B
:101440008095822384BB0895623009F128F46623D5
:1014500041F0613089F00895633021F1643069F121
:10146000089525B181E090E002C0880F991F7A9518
:10147000E2F7822785B908952BB181E090E002C0A0
:10148000880F991F7A95E2F782278BB908952EB1BC
:1014900081E090E002C0880F991F7A95E2F78227D9
:1014A0008EB9089521B381E090E002C0880F991FA2
:1014B0007A95E2F7822781BB089524B381E090E01A
:1014C00002C0880F991F7A95E2F7822784BB08959E
:1014D000623061F128F4662349F06130B9F0089573
:1014E0006330A1F1643009F441C0089524B181E072
:1014F00090E002C0880F991F7A95E2F78095982FA7
:10150000922394B995B1892385B908952AB181E0D0
:1015100090E002C0880F991F7A95E2F78095982F86
:1015200092239AB99BB189238BB908952DB181E09B
:1015300090E002C0880F991F7A95E2F78095982F66
:1015400092239DB99EB189238EB9089520B381E07D
:1015500090E002C0880F991F7A95E2F78095982F46
:10156000922390BB91B3892381BB089523B381E07B
:1015700090E002C0880F991F7A95E2F78095982F26
:10158000922393BB94B3892384BB0895623009F1FD
:1015900028F4662341F0613089F00895633021F129
:1015A000643069F1089524B181E090E002C0880FB1
:1015B000991F7A95E2F7822B84B908952AB181E0C8
:1015C00090E002C0880F991F7A95E2F7822B8AB9C2
:1015D00008952DB181E090E002C0880F991F7A959F
:1015E000E2F7822B8DB9089520B381E090E002C02C
:1015F000880F991F7A95E2F7822B80BB089523B359
:1016000081E090E002C0880F991F7A95E2F7822B63
:1016100083BB0895623009F128F4662341F06130FC
:1016200089F00895633021F1643069F1089525B19E
:1016300081E090E002C0880F991F7A95E2F7822B33
:1016400085B908952BB181E090E002C0880F991F01
:101650007A95E2F7822B8BB908952EB181E090E064
:1016600002C0880F991F7A95E2F7822B8EB90895F0
:1016700021B381E090E002C0880F991F7A95E2F7CC
:10168000822B81BB089524B381E090E002C0880FD3
:10169000991F7A95E2F7822B84BB08956230E9F0B6
:1016A00028F4662341F0613079F032C06330F1F004
:1016B000643029F12DC083B190E002C095958795E3
:1016C0007A95E2F78170089589B190E002C095950E
:1016D00087957A95E2F7817008958CB190E002C009
:1016E000959587957A95E2F7817008958FB190E08E
:1016F00002C0959587957A95E2F78170089582B337
:1017000090E002C0959587957A95E2F781700895EB
:1017100080E0089514BE0FB6F894A89580916000FB
:10172000886180936000109260000FBEE1E6F0E0F7
:1017300080E880831082789404C0089590E016C0F9
:1017400008951092F22080E197E29093A90080938F
:10175000A800E1EAF0E088E08083808182608083F5
:10176000E2E7F0E080818260808308952091A40008
:101770003091A500820F931FEAEAF0E09183808305
:10178000208131818091A8009091A9008217930750
:1017900050F42091A8003091A90080819181821B92
:1017A000930B9183808384E089BBCA9BFECF08950D
:1017B0001F920F920FB60F9211248F938091F220F7
:1017C0008F5F8093F2208F910F900FBE0F901F902C
:1017D0001895E3EFF0E2148215821182108217AAA5
:1017E00016AAE9EFF0E289E191E211921192E8176D
:1017F000F907D9F7EED5C3D114D13FD040C408952D
:101800009093F4208093F320E1C708959093F620FD
:101810008093F520C9C70895E82FF0E0EE0FFF1F71
:10182000E750FF4D718360830895FBD1DAD64ED027
:1018300083C40895E091B813F091B9133097D9F0AB
:10184000228133812817390789F405C02281338129
:101850002817390759F4DC01AD57BF4F2C91278762
:1018600013962C91208B22E0248305C00190F081F7
:10187000E02D309759F719C108951092B9131092BD
:10188000B8130895FC011482178613821282A3EF05
:10189000B0E2D6968D919C91D7970196D7969C935E
:1018A0008E93D6978091B8139091B913009739F41D
:1018B00011821082F093B913E093B81308959183C5
:1018C0008083F093B913E093B81308950F931F9397
:1018D000CF93DF93E091B813F091B913309709F4E7
:1018E0009BC0EF018C81882321F0823009F46EC007
:1018F0008DC0A2D08C01009721F482E08C838F8769
:101900008BC09B838A8381E08C83F801E957FF4F6A
:101910008AE19CE0918380833197898582FB8827C7
:1019200080F980839985D8011B968C911B9790FB39
:1019300080F91B968C931B97998593FB992790F9B7
:1019400090FB82F91B968C931B97998596959170C5
:1019500090FB81F91B968C931B97E3EFF0E2848157
:101960008F5F84831C968C931C97808191811E9637
:101970009C938E931D978D819E8150969C938E9300
:101980001F978885982F9F7051968C915197807FD3
:10199000892B51968C9351979F819295907F8F7050
:1019A000892B51968C93F801EF57FF4F4C8550E0EF
:1019B0006A857B85808191810E94A54EF801918185
:1019C0008C85890F8183C80127D526C0CE17DF07F4
:1019D00041F4888199819093B9138093B8130AC018
:1019E000FC0180819181C817D907D1F7888199813D
:1019F00091838083E3EFF0E286A997A9019797ABE3
:101A000086ABED85FE85CE01199506C00990D8817B
:101A1000C02D209709F066CFDF91CF911F910F91D4
:101A20000895EAEBF3E18EE69EE11082E757FF4F5F
:101A3000E817F907D1F708958091BA13882359F070
:101A4000E3E4F4E14EE65EE181E090E0BC01208158
:101A5000211122C002C060E070E049E8469F900179
:101A6000479F300D1124C90186549C4EFC011192F0
:101A70004A95E9F740E1FC014183EF57FF4F2453BA
:101A80003C4E31832083E3EFF0E226A937A92F5F94
:101A90003F4F37AB26AB08950196E757FF4FE4174A
:101AA000F507A1F680E090E00895FC011082E3EFD5
:101AB000F0E286A997A9019797AB86AB08950097A6
:101AC00041F0FC01E757FF4F8EE1EE36F80718F0C2
:101AD00015C0EAEBF3E18081882339F003C08081EF
:101AE000882319F08E2F9F2F0895E757FF4F8EE11F
:101AF000EE36F807A0F380E090E0089580E090E0F3
:101B00000895FC01DC01AD57BF4F1C92A3EFB0E27A
:101B100014969C9114979F5F14969C9314979487A6
:101B20008D919C91968785870895DC0119962C915B
:101B30001997222349F01796ED91FC91189720816F
:101B4000211104C003C5089580E0089580E0089540
:101B5000BC01E0E8FEE122EB3EE140E051E0908193
:101B6000992319F091509083452F3596E217F3078A
:101B7000B1F7442319F0CB010C94EB150895E0E87C
:101B8000FEE182EB9EE110823596E817F907D9F75E
:101B9000EEE6FEE184E690E0A0E0B0E08683978385
:101BA000A087B187128688EA9DE09487838765E9DC
:101BB0007DE080E031CE0895CF93DF93DC01ED919D
:101BC000FC91119721812838F9F420812F7D21344F
:101BD000D9F412962C912031B8F0EC012DDF00974A
:101BE00099F020E2FC0120832A8121832B81ED578B
:101BF000FF4F20832C81319620834A8150E06881F9
:101C0000798102960E94A54EDF91CF9108956623B7
:101C100021F022E2FC012083089524E2FC012083CC
:101C200008952F923F924F925F926F927F928F9280
:101C30009F92AF92BF92CF92DF92EF92FF920F935B
:101C40001F93CF93DF93CDB7DEB72C970FB6F894E1
:101C5000DEBF0FBECDBF00E010E00F2EF4E2DF2E9E
:101C6000F02D0F2EF3EF8F2EF0E29F2EF02DCC24CF
:101C7000C3940F2EF0E84F2EFEE15F2EF02D0F2EB5
:101C8000FCE76F2EFEE17F2EF02D0F2EFEEAEF2EE9
:101C9000FEE1FF2EF02D312C212C5801B9C1D501C8
:101CA0008C91813209F4E1C018F4803241F0B0C166
:101CB000823209F4DEC0843209F4A8C1A9C1F50159
:101CC000D082838583FDA4C1258136812F3F3F4F7C
:101CD000C9F4D5011F962D913C915097F401408194
:101CE00051814217530721F02F3F3F4F09F090C118
:101CF00081FF04C081E2D5018C938AC122E2F50103
:101D0000208386C1D5011F962D913C9150972F3F7E
:101D10003F4F09F084C180FF82C17AC18C012C91B0
:101D2000222309F457C0208131814217530709F05B
:101D300052C0F5019485F801EE0FFF1FEE0FFF1F53
:101D4000E00FF11FE458F14E8281891B883040F585
:101D5000F801EE0FFF1FEE0FFF1FE00FF11FE45819
:101D6000F14E9381292F30E0082E02C0359527953A
:101D70000A94E2F720FD4CC1F801EE0FFF1FEE0FB1
:101D8000FF1F0E0F1F1FF801E458F14E21E030E055
:101D900002C0220F331F8A95E2F7922B93834FC123
:101DA000F801EE0FFF1FEE0FFF1F0E0F1F1FF801B0
:101DB000E458F14E9283238130E08195A90102C05D
:101DC000440F551F8A95E2F7CA01816083838FE132
:101DD000848335C1BF01019615963596EE15FF0532
:101DE00009F09CCF6115710509F412C1DB01119650
:101DF0005C934E93F501848512968C9312971396FB
:101E0000CC9213978FE114968C938EE69EE1E3D6E5
:101E100016C1D5011F968D919C915097F401208198
:101E2000318128173907A1F01B962C9122FD0DC096
:101E3000C50147D3D5011F968D919C915097F40110
:101E4000208131812817390719F0019609F0E0C087
:101E5000D5011B968C911B9781FF03C081E28C9367
:101E6000D7C022E2F5012083D3C060E0C50117D1BD
:101E7000CFC010927B1ED50151962C91519722957F
:101E80002F70E22FF0E0EE0FFF1FE750FF4D0190A3
:101E9000F081E02D309709F462C01D968D919C91E0
:101EA0001E979A8389831F964D915C9150975C830E
:101EB0004B8351963C9151973F703D832E83AF5792
:101EC000BF4F6D917C917987688795012E5F3F4F59
:101ED000261B370BD50111963C911197230F2A87AA
:101EE000AD57BF4F2C912B8711962C912C87D50184
:101EF0001B962C91622F637022FD02C030E001C05E
:101F000030E2632B23FD02C030E001C030E4262F15
:101F1000232B4F3F5F4F11F030E001C034E0232B03
:101F2000D50119964D915C911A978417950711F078
:101F300090E001C098E0822F892B8F83D501159600
:101F40002D913C9116972F3F3F4F11F090E001C02B
:101F500090E1892B8F83CE010196199501C080E015
:101F6000F501938590FF80E0D50117962D913C9166
:101F700018972F3F3F4F69F4F40140815181D501FB
:101F80001F962D913C9150974217530711F493FFE0
:101F90008C2DF501258136812F3F3F4FA1F1D401D2
:101FA0002D913C912F3F3F4F71F1882361F144DD2A
:101FB0008C01009741F1A5DDF80181818D5F81835E
:101FC000E957FF4F11821082D5011B968C911B9708
:101FD00086958170F801938580FB91F993871D9612
:101FE0008D919C911E97908B8787EF57FF4F0190A3
:101FF000F081E02D108280917B1E82831C968C9153
:102000008183C80109D2D501DC9202C0C5014DDD32
:10201000C50155DD5C01892B09F041CE17C0F501E2
:1020200045855685D4018D919C918417950781F340
:10203000D201F301832D922D632D722D6FCEF50108
:1020400087819085019609F0F5CEE3CE2C960FB6E8
:10205000F894DEBF0FBECDBFDF91CF911F910F91DE
:10206000FF90EF90DF90CF90BF90AF909F908F90B8
:102070007F906F905F904F903F902F9008951092B7
:10208000C31E1092C21E1092C11E0895FC0190E161
:10209000A9E1B1E201900D929A95E1F708956623C6
:1020A00021F020E3FC01208303C021E3FC01208315
:1020B0008091C31E8F5F8093C31E0895CF93DF93DB
:1020C000C091C11ED091C21EFE01EF57FF4FA081EB
:1020D000B1817091BF1E872F90E06091C01E262FA6
:1020E000613108F020E12223B9F03091BE1E4EEAA2
:1020F0005EE1A80FB91FFA0190818C9189278D9319
:10210000332311F0808303C0908189278083319627
:102110008E2F841B821780F3720F7093BF1E621B79
:102120006093C01E662319F082E3888302C084E3B3
:102130008883DF91CF9108950F931F93CF93DF93FF
:102140008091C31E882309F4E1C0E091C11EF09183
:10215000C21E309709F4D4C08081843309F054C082
:102160008091BF1EDF01AF57BF4FCD91DC91C80FEB
:10217000D11DAEEABEE114960D911D912D913C91B9
:1021800017974D915D916D917C9113974027512741
:102190006227732718960D911D912D913C911B97E5
:1021A00040275127622773271C968D919D910D9092
:1021B000BC91A02D482759276A277B278091BE1EF6
:1021C000882351F0488359836A837B8381818C5FA4
:1021D0008183CF01DFD10EC081E0088119812A817E
:1021E0003B81401751076207730709F080E0682FB1
:1021F000CF010DDD1092C21E1092C11E8091C31E30
:1022000081508093C31E82C0823309F07FC083E374
:10221000808369E171E28EEA9EE11AD477C0DC0125
:102220002C912053223008F06DC09093C21E8093F1
:10223000C11EEEEAFEE11C964C911C9750E060E056
:1022400070E040835183628373831F964D915C914C
:10225000509760E070E0BA015527442751962C91C1
:10226000519722952F70422B448355836683778341
:102270001D964D915C911E9760E070E0BA01552764
:10228000442751962C9151972F70422B40875187AC
:10229000628773871B962C911B9715964D915C91C5
:1022A000169760E070E0BA0155274427422B448717
:1022B0005587668777872C91213331F411962C91BD
:1022C0001197245011962C93FC01EF57FF4F40813A
:1022D00051819C012E5F3F4F241B350BFC01318146
:1022E000230F2093C01E1092BF1E21E03081303397
:1022F00009F020E02093BE1E22E3DC012C9306C0EF
:1023000080E090E0DCDB009709F089CFDF91CF918E
:102310001F910F910895EF92FF920F931F93CF9308
:102320007C0110E080E090E001E0C3E113C0FC011B
:102330002081213179F4EC57FF4F208131812150E8
:10234000310931832083232B21F4FC01C083102F1A
:1023500001C0102FB4DB009751F7112311F0C70112
:102360003AD4CF911F910F91FF90EF900895EF9283
:10237000FF920F931F93CF93DF937C0110E080E0D7
:1023800090E001E0D7E1C0E116C0FC0120812631D8
:1023900091F4EC57FF4F2081318121503109318375
:1023A0002083232B39F4FC01D083ED57FF4FC083EA
:1023B000102F01C0102F83DB009739F7112311F084
:1023C000C70109D4DF91CF911F910F91FF90EF903A
:1023D00008951092DF1E1092DE1EE1EDFEE182E311
:1023E00090E0A0E0B0E086839783A087B187128653
:1023F00087EB91E194878387E4ECFEE18AE090E04B
:10240000A0E0B0E086839783A087B18712868BE82F
:1024100091E1948783870895CF93DF93FC01DC01DA
:10242000AA57BF4F8C9181FF03C092E1908308C0EF
:10243000938591FF03C090E1908302C092E1908365
:10244000DF01AD57BF4F1C9280FF05C08FEF9FEF9C
:102450009683858306C08091F5209091F62096831F
:1024600085832785308930872783A3EFB0E28D915C
:102470009C9111979287818715968C9115978F5F04
:1024800015968C9384832F3F3F4F81F4EF0181E4B5
:1024900098E8938382830E948A4EFE01EC57FF4F97
:1024A0008770992701969183808308C081E698E818
:1024B00093838283EC57FF4F11821082DF91CF917B
:1024C00008950F931F93CF93DF938C01B5DAEC013E
:1024D000892BB9F182E18883F80181818983FE012A
:1024E000ED57FF4F10820E948A4EFE01EC57FF4FBE
:1024F0008770992701969183808333961182108289
:10250000F801418150E0B8016E5F7F4FCE01029625
:102510000E94A54E81E498E89B838A838FEF9FEF0A
:1025200098878F83F801858196819E838D83E3EF61
:10253000F0E2808191819A87898785818F5F858389
:102540008C83DF91CF911F910F910895CF93DF93EB
:10255000FC01C781D08581858330C1F480E090E0A3
:1025600010C0FC012081263161F4348529813213A9
:1025700008C027E120832A81EA57FF4F208381E0AA
:1025800006C09DDA009769F780E001C080E0DF9126
:10259000CF91089522E1FC0120830895E091DE1E91
:1025A000F091DF1E813021F048F0823019F004C034
:1025B00080E205C081E203C081E001C080E0DF016C
:1025C000AD57BF4F8C9385E180831092DF1E109230
:1025D000DE1EE3EFF0E286A997A9019797AB86ABE1
:1025E00008959F92AF92BF92CF92DF92EF92FF92A7
:1025F0000F931F93CF93DF93C0E0D0E00F2EF4E151
:10260000AF2EF02D03EF10E20F2EF7E1DF2EF02DAD
:102610000F2EF6E19F2EF02D0F2EF5E1EF2EF12C6F
:10262000F02D0F2EF3E1CF2EF02D0F2EF1E1BF2E66
:10263000F02D64C088818331F1F028F4803149F0B5
:10264000823159F05BC0853169F1873109F449C0A5
:1026500055C061E0CE0123DD51C0FE01EC57FF4FB4
:1026600080819181892B29F0B88284EC9EE1B3D2DC
:1026700045C0C88243C08091DE1E9091DF1E892B29
:1026800009F03CC0D093DF1EC093DE1EA882698192
:10269000CE010296ADD0F80186A997A9019697AB15
:1026A00086AB2CC0FE01ED57FF4F8081811117C012
:1026B0002D853E85F801808191812817390769F4BD
:1026C0008B8580FF0AC09882FE01EC57FF4FF18294
:1026D000E08281ED9EE17FD211C0D8820FC0D88206
:1026E0000DC0FE01E957FF4F0190F081E02D3097BA
:1026F00019F4CE01DAD902C0CE011995CE01DFD985
:10270000EC01892B09F096CFDF91CF911F910F91AA
:10271000FF90EF90DF90CF90BF90AF909F90089583
:102720008091E01E982F9F70E4E5F1E08081807F2A
:10273000892B80838091E01E882329F08091E11EFF
:102740008093530108958091E11E982F9F71E8E4D2
:10275000F1E08081807E892B8083089593E09093BF
:102760004201E1E4F1E090819F719830E1F78093BC
:102770004201E1E4F1E090819F719813FCCF08954C
:1027800088E0ECDF8FEF80934F018091E21E882379
:1027900011F086E1E3CF08958093E21EF1CF089512
:1027A0008093E11EBDCF0895CF93DF931F921F92B8
:1027B000CDB7DEB79A838983809362018A81809343
:1027C00063010F900F90DF91CF910895CF93DF9326
:1027D0001F921F92CDB7DEB79A83898380936001E1
:1027E0008A81809361010F900F90DF91CF910895BE
:1027F0000F931F93CF938C01C62F89E1AFDF8FEF2B
:1028000080934F0182E08C0F80938001CC2381F074
:10281000F801C1502C2F30E02F5F3F4FC801820FCD
:10282000931FA1E8B1E021912D93E817F907D9F79B
:1028300083E08093631F82E080934201CF911F91D8
:102840000F910895EF92FF920F931F93CF93DF9311
:102850001092560186E082DFC0E0D0E0E12CF12C3E
:1028600006E411E081E00E949E0BF8012081229590
:1028700026952770237030E00C2E02C0220F331FE4
:102880000A94E2F7E22AF32A2296C031D10551F7E1
:1028900088E064DF8BEE8093560172DFC701DF9121
:1028A000CF911F910F91FF90EF900895E9E3F1E030
:1028B0008081816080831092E21E1092E01E81E090
:1028C0008093631F88E04ADF8BEE80935601ECE42F
:1028D000F1E0808180688083B5DF80936D01089589
:1028E000CF93DF93FB01AB01405F5F4FAFE3B1E0FC
:1028F00021912C93E417F507D9F710923C01DC01E4
:102900009C01205F3F4FFC01CEE3D1E081918883A1
:10291000E217F307D9F7ECE3F1E080818068808368
:10292000EDE3F1E0808180FFFDCFEEE3F1E0808117
:102930008D93A217B307D9F7DF91CF9108951F9315
:10294000CF93DF9300D01F921F92CDB7DEB7809157
:10295000631F823009F465C080914F0183FF3EC040
:10296000A0917B016A2F70E0AB014F5F5F4F80E069
:1029700090E020E0FC01E058FE4F3081FC01ED5179
:10298000F14E30832F5F822F90E08417950794F3E8
:1029900083EE9EE19A838983A250AB83FB01ED51C4
:1029A000F14E80818C83809147018A558D83CE01C1
:1029B000019602D9E1E4F1E080818F718631E1F77F
:1029C000EFE4F1E0808188608083ECE4F1E08081D5
:1029D0008F77808380818068808323C080914F01BE
:1029E00086FF1FC0809141018F718931A9F4109138
:1029F000420112951695177049F0133021F01530E9
:102A000021F013E003C011E001C012E0B9DE81E063
:102A10008093631F812FC2DDEFE4F1E08081806449
:102A200080830F900F900F900F900F90DF91CF91B8
:102A30001F9108950E948A0B72D038DF0E94E90B23
:102A40001092450108957BDF0E94150CCFC00895B8
:102A500047DF34CB08950F931F93CF93DF93EC019F
:102A60008091641F9091651F009709F445C04E81C5
:102A70005F8168857985FC0102811381248135811C
:102A8000401751076207730760F0DC0117C002812D
:102A9000138124813581401751076207730768F459
:102AA00003C0FC01A0E0B0E0041B150B260B370BA4
:102AB00002831383248335830AC0DF01401B510B3B
:102AC000620B730BED91FC911197309701F74A83DC
:102AD0005B836C837D83109741F08D919C9111975E
:102AE00099838883CD93DC9315C099838883D09391
:102AF000651FC093641F0EC0198218828E819F814A
:102B0000A885B9858A839B83AC83BD83D093651FD9
:102B1000C093641FDF91CF911F910F910895109280
:102B2000651F1092641F0895CF93DF93A091641FD7
:102B3000B091651F109791F1A817B90751F50AC018
:102B40008E179F0729F5109731F0208131812D9341
:102B50003C9307C0FC01208131813093651F209395
:102B6000641F0190F081E02D3097C1F042815381C4
:102B700064817581EC018A819B81AC81BD81840F68
:102B8000951FA61FB71F82839383A483B58306C0B6
:102B9000DF01ED91FC911197309791F6DF91CF9184
:102BA0000895E091641FF091651F309771F0E81768
:102BB000F90721F40CC08E179F0759F00190F0819E
:102BC000E02D3097C1F780E0089580E0089581E01E
:102BD000089581E00895CF93DF93EC01E2DF811146
:102BE00002C0CE0138DFDF91CF910895CF92DF92FE
:102BF000EF92FF92CF93DF938091F220882309F424
:102C000059C08FB7F894C090F2201092F2208FBF75
:102C1000D12CE12CF12CCC0CDD1CEE1CFF1CD701BF
:102C2000C601880F991FAA1FBB1F880F991FAA1FD3
:102C3000BB1FC80ED91EEA1EFB1EC091641FD09197
:102C4000651F2097B9F18A819B81AC81BD81C8162F
:102C5000D906EA06FB0610F1C81AD90AEA0AFB0AE5
:102C6000888199819093651F8093641F8A85813044
:102C700011F4CE01F0DEEB85FC85CE011995C091F3
:102C8000641FD091651F2097A9F08A819B81AC8138
:102C9000BD81C816D906EA06FB06F0F68A819B813B
:102CA000AC81BD818C199D09AE09BF098A839B83C4
:102CB000AC83BD83DF91CF91FF90EF90DF90CF90F9
:102CC0000895809152208F5F80935220882319F0BD
:102CD00010925220089581E08093772008958CE728
:102CE00090E279CF089580913420813081F48DEB8A
:102CF00090E21ADF84E080933E20109239201092F7
:102D000038200E9485028EEC90E265CF08958111F3
:102D100010C08DEB90E208DF81E080933E200E949E
:102D2000DA010E940C038EEC90E2FEDE85E190E277
:102D3000FBCE089586E69FE10C945837089581E014
:102D40008093102080E492E00C94F3270895809102
:102D5000E31F823008F06AC08091FA1F823049F088
:102D600018F48130C9F149C08530A1F0863019F1DD
:102D700044C06091532070915420809155200E944E
:102D8000DB096091312070913220809133200E94C4
:102D9000240A43C060913120709132208091332009
:102DA0000E94240A609153207091542080915520F4
:102DB0000E94DB0932C060913120709132208091F5
:102DC00033200E94240A60915320709154208091F6
:102DD00055200E94240A21C0609131207091322038
:102DE000809133200E94240A6091532070915420D6
:102DF000809155200E94DB0910C0609131207091B4
:102E00003220809133200E94DB0960915320709121
:102E10005420809155200E94DB098091E31F8F5F31
:102E20008093E31F8CE790E2D6DE15C060913120DD
:102E300070913220809133200E94DB0960915320F1
:102E400070915420809155200E94DB091092E31F5D
:102E500086E590E2C0DEA8950895EF92FF920F9369
:102E60001F93CF93DF93E9E8F0E210820F2EF3E097
:102E7000FF2EF02DF1828BE082836091892070918A
:102E80008A2080918B204DED5BE10E944F0960917B
:102E9000892070918A2080918B200E943909E2E27A
:102EA000F0E21082C2E0C1838AE082836091222036
:102EB00070912320809124200E943909E5E2F0E2FC
:102EC0001082D1E0D18389E08283609125207091C6
:102ED0002620809127200E943909EBECF0E2108235
:102EE000118288E082836091CB207091CC20809108
:102EF000CD200E943909E8E7F0E2D0836894EE24FF
:102F0000E2F8E182609178207091792080917A20B6
:102F10000E94680A609178207091792080917A20CF
:102F20000E940A0BE1E3F0E2C08305E001836091B7
:102F3000312070913220809133200E94C60AE3E54F
:102F4000F0E2C08317E01183609153207091542008
:102F5000809155200E94C60AE5E6F0E2C083E18236
:102F60006091652070916620809167200E94C60A5A
:102F7000E5E3F0E2C083F182609135207091362064
:102F8000809137200E94C60A00931320609112207E
:102F900070911320809114200E94C60A0F2EF6E033
:102FA000FF2EF02DF092E7206091E6207091E7204F
:102FB0008091E8200E94C60A1093ED206091EC20D9
:102FC0007091ED208091EE200E94C60AE0EEF0E2C2
:102FD000C08311826091E0207091E1208091E22015
:102FE0000E94680A6091E0207091E1208091E220C7
:102FF0000E940A0BEBEDF0E2C083D1836091DB20ED
:103000007091DC208091DD200E94680A6091DB20B5
:103010007091DC208091DD200E940A0BEEE2F0E24C
:10302000C083C18360912E2070912F208091302029
:103030000E94680A60912E2070912F20809130208C
:103040000E940A0BECE8F0E2D083018360918C20AF
:1030500070918D2080918E200E94680A60918C2052
:1030600070918D2080918E200E940A0BE4EEFFE18A
:10307000D083F1826091E41F7091E51F8091E61F7B
:103080000E94680A6091E41F7091E51F8091E61F1D
:103090000E940A0BEBE3F0E2D083118360913B20A6
:1030A00070913C2080913D200E94680A60913B20F5
:1030B00070913C2080913D200E940A0BDF91CF91BE
:1030C0001F910F91FF90EF9008950F93CF93DF938F
:1030D00080913E20823009F4F1C130F4882309F454
:1030E0006EC0813051F034C3843009F481C208F4D9
:1030F00036C1853009F43FC22BC310923420C1E0A1
:10310000C0931020609112207091132080911420A0
:103110000E94DB09E8EEFFE11386C38B85E0828B1A
:10312000C18B84EF91E0A0E0B0E080938220909387
:103130008320A0938420B093852088EE93E0A0E0C4
:10314000B0E080935C2090935D20A0935E20B093CC
:103150005F208081813081F480917B2081110CC0BF
:103160006091652070916620809167200E944E0BCF
:10317000811102C010923E208091F01F813021F019
:103180008091EB1F813011F410923E208091EC1F52
:10319000813019F485E080933E208091F11F8130C9
:1031A00019F482E080933E208091F21F813009F073
:1031B000CFC283E080933E2010926920C9C28091E3
:1031C0006920813031F4809169208F5F809369207C
:1031D00002C0109269201092342081E08093102068
:1031E000E8EEFFE1828B8AEF90E0A0E0B0E0809310
:1031F000822090938320A0938420B093852084EF35
:1032000091E0A0E0B0E080935C2090935D20A093DB
:103210005E20B0935F208089813021F08091F91F7A
:10322000811114C06091122070911320809114209C
:103230000E94DB091092F31F8091BB20811106C010
:1032400087E00E94392381E08093BB208091F81FA2
:1032500081110FC08091F91F813059F460911220C3
:1032600070911320809114200E94970981E080932F
:10327000F31F8091DE20811106C084E00E94392373
:1032800081E08093DE208091F21F813029F483E079
:1032900080933E201092DE2080910720811116C07D
:1032A0008091E81F81112AC08091F01F811126C0F2
:1032B0008091EB1F811122C085E00E94392310927A
:1032C000DE201092BB2081E080933E208091072079
:1032D0008130A1F48091F01F813081F460916520EC
:1032E00070916620809167200E94DB09E8EEFFE183
:1032F000108613828185813069F504C08091F11FA9
:10330000813011F41092F11F8091EB1F813011F583
:103310008091EC1F8130F1F480914F2090915020EA
:1033200001969093502080934F20893E9D4F08F442
:103330000FC282E090E10E94F32F082F03600093F8
:10334000E71F20E142E065E48EEA0E947E220E94AF
:10335000BA33FEC11092502010924F20F9C1C8EE2E
:10336000DFE183E08A8B60911220709113208091BD
:1033700014200E94970981E08B871092342080935B
:1033800010208091DE20811111C082E00E9439233B
:1033900081E08093DE2084E60E946A35609165209A
:1033A00070916620809167200E9497098091072084
:1033B000813049F583E00E94392362E081E60E9472
:1033C00094361092DE2081E08093692010923E2096
:1033D000C8EEDFE11A8660916520709166208091C9
:1033E00067200E94DB091B866091CB207091CC2066
:1033F0008091CD200E944E0B91E0811101C090E0A0
:103400009093E81FA5C18091F81F813049F583E0B2
:103410000E94392362E08EE60E9494361092DE20EC
:1034200081E08093692080933E20C8EEDFE11A8618
:103430006091652070916620809167200E94DB0971
:103440001B866091CB207091CC208091CD200E9472
:103450004E0B91E0811101C090E09093E81F78C17C
:103460008091F21F813009F473C183E00E943923F7
:1034700062E083E70E9494361092DE2081E0809320
:10348000692080933E20C8EEDFE11A8660916520B6
:1034900070916620809167200E94DB091B866091F5
:1034A000CB207091CC208091CD200E944E0B91E0DA
:1034B000811101C090E09093E81F4AC1E8EEFFE15E
:1034C00084E0828B1092342081E08093102082E08F
:1034D000838B8091DE20811108C00E94392381E016
:1034E0008093DE2083E60E946A358091E81F813058
:1034F000A9F480917B20811111C081E00E943923C1
:1035000062E081E60E9494361092DE2081E0809392
:10351000692080933E201092F11F1AC18091E21F12
:103520009091E91F981788F081E00E94392362E0AA
:103530008EE60E9494361092DE2081E0809369200E
:1035400080933E201092F11F03C18091F11F8130C2
:1035500009F4FEC081E00E94392362E083E70E9403
:1035600094361092DE2081E08093692080933E2083
:103570001092F11FEDC080913420811108C08DEBB5
:1035800090E229DB809134208F5F809334208091FA
:103590004E20893080F0609122207091232080910C
:1035A00024200E944E0B91E0811190E09093EC1F3B
:1035B00010924E2003C08F5F80934E208091EC1FAD
:1035C000811108C08DEB90E2AFDA81E080933E205C
:1035D000109234208091E81F813009F0B9C08091A9
:1035E0007B208111B5C010923E2010923420B0C0D3
:1035F0008DE790E0A0E0B0E080938220909383205C
:10360000A0938420B09385208AEF90E0A0E0B0E002
:1036100080935C2090935D20A0935E20B0935F2008
:103620001092102082E08093FA1F8091CA2081308E
:1036300031F0C0F1823051F0833089F030C08EEC2F
:1036400090E272DA82E08093CA202CC060E186E6C4
:103650009FE10E946A3783E08093CA2023C0809153
:10366000382090913920813523EC920790F0809199
:10367000E42081FF0BC08091E4208D7F8093E420C3
:103680006091E42082E090E10E947C310E94BA3394
:1036900009C00196909339208093382003C088E0B8
:1036A0000E94E73480914E208930F0F06091222012
:1036B00070912320809124200E944E0B91E0811173
:1036C00090E09093EC1F6091CB207091CC20809182
:1036D000CD200E944E0B91E0811101C090E09093AB
:1036E000E81F10924E2003C08F5F80934E20809180
:1036F000EC1F813051F480913420813091F48DEBB6
:1037000090E269DA109234200CC081110AC08091D5
:103710003420811103C08DEB90E206DA81E08093C2
:1037200034208091E81F813099F480917B208111B1
:103730000FC01092CA2081E080933E200E94DA01DF
:103740000E940C0385E190E2EFD98EEC90E2ECD977
:10375000DF91CF910F91089580917720882371F0A8
:1037600080916920882319F01092692002C00E947C
:10377000833480E490E22FDA1092772008958091CC
:10378000F21F811119C08091F01F813021F08091CA
:10379000EB1F813049F46091652070916620809123
:1037A00067200C94970908956091652070916620B8
:1037B000809167200C94DB09089581E08093E920D3
:1037C000DECF0895CF93DF9380911120882309F4F1
:1037D00060C00E948C38C8EEDFE18983E6D68E8314
:1037E00080EF8F8710921120EBE7F0E08081877FD8
:1037F000808381E680937C00EAE7F0E0808180644A
:103800008083808186FDFDCF8091790024E2829FB4
:10381000C00111246FEF70E00E94CD4D6093EA1F4C
:103820006091E0207091E1208091E2200E944E0B97
:1038300091E0811101C090E0909307202091E91F51
:1038400030E08091DF2090E00A972817390734F4A0
:10385000E8EEFFE181E0808B118A0DC08091DF20CE
:1038600090E00A96281739071CF01092F81F03C041
:1038700082E08093F81F8091EE1F8D3318F080E076
:103880000E94E7348091E91F853618F481E00E9498
:10389000E73480915120813029F08091E9208130F6
:1038A00009F0B4C080914E20893008F4ACC060911A
:1038B000892070918A2080918B200E944E0B91E08C
:1038C000811190E09093EB1F5ADF6091222070915C
:1038D0002320809124200E944E0B91E0811190E0E2
:1038E0009093EC1F609125207091262080912720D5
:1038F0000E944E0B91E0811101C090E09093ED1F6A
:103900006091CB207091CC208091CD200E944E0BF5
:1039100091E0811101C090E09093E81F6091E02058
:103920007091E1208091E2200E944E0B91E0811184
:1039300001C090E0909307206091DB207091DC2023
:103940008091DD200E944E0B91E0811190E09093D8
:10395000082060912E2070912F20809130200E94AD
:103960004E0B91E0811190E09093092060918C20A2
:1039700070918D2080918E200E944E0B91E08111DC
:1039800090E090930A206091E41F7091E51F809170
:10399000E61F0E944E0B91E0811190E090930B2066
:1039A00060913B2070913C2080913D200E944E0B05
:1039B00091E0811190E090930C208091F01F813074
:1039C00021F08091EB1F813039F48091E81F811143
:1039D00003C085E00E94E7341092512010924E20DF
:1039E0008091E81F811106C080910720811102C0DB
:1039F00010927B208091E920813041F480937720E0
:103A00001092E92003C08F5F80934E20DF91CF9109
:103A10000895D8DE5ADBA0CE08958F929F92AF9280
:103A2000BF92FF920F931F93CF93DF93CDB7DEB773
:103A300029970FB6F894DEBF0FBECDBF8C01F62ECE
:103A40000E948D0380933021882309F4F9C248E055
:103A500050E062E572E0C8010E94984E892BA1F403
:103A600080913E2081110AC08091F01F813031F495
:103A700083E00E94E734FF24F394E6C20E94A93455
:103A80007EDEFF24F394E0C248E050E06BE572E094
:103A9000C8010E94984E892BA1F480913E2081306C
:103AA00051F48091F01F811106C083E00E94E73439
:103AB000FF24F394C9C20E94B33461DEFF24F3945F
:103AC000C3C248E050E064E672E0C8010E94984E2C
:103AD000892B09F050C02FE02F1530F084E00E94B0
:103AE000E734FF24F394B0C26EEF6F0DC8010E945B
:103AF0006E37F82E882309F4A5C2F801218530E03D
:103B00002053310988EE93E0289FA001299F500D92
:103B1000389F500D1124228530E02053310964E68E
:103B2000629FC001639F900D1124840F951F24850F
:103B300030E020533109AC01420F531F238530E0A0
:103B400020533109C901880F991F220F331F220FFB
:103B5000331F220F331F280F391FCA01820F931FF3
:103B60008D3FFFE09F0720F084E00E94E7346CC2A5
:103B70000E94BC3469C248E050E06DE672E0C801C2
:103B80000E94984E892B81F480913E20811106C0BD
:103B900083E00E94E734FF24F39456C281E08093CF
:103BA000F11FFF24F39450C248E050E066E772E052
:103BB000C8010E94984E892B79F480913E20811192
:103BC00006C083E00E94E734FF24F3943DC21092C4
:103BD000F11FFF24F39438C248E050E06FE772E031
:103BE000C8010E94984E892B81F480913E2081115A
:103BF00006C083E00E94E734FF24F39425C281E0ED
:103C00008093F21FFF24F3941FC248E050E068E85D
:103C100072E0C8010E94984E892B79F480913E2071
:103C2000811106C083E00E94E734FF24F3940CC2A4
:103C30001092F21FFF24F39407C248E050E061E9BC
:103C400072E0C8010E94984E892B09F092C023E1CE
:103C50002F1530F086E00E94E734FF24F394F4C17E
:103C60006EEF6F0DC8010E946E37F82E882309F49D
:103C70007AC0F801A185B0E0D09720E03AEC4AE99B
:103C80005BE30E941F4E4B015C01A285B0E0D09720
:103C900020E031EE45EF55E00E941F4E860E971E44
:103CA000A81EB91E828990E0C097092E000CAA0BAD
:103CB000BB0B880E991EAA1EBB1EA385B0E0D09731
:103CC00020E836E948E950E00E941F4E860E971E14
:103CD000A81EB91EA485B0E0D09720E432E44FE0DE
:103CE00050E00E941F4E860E971EA81EB91EA58585
:103CF000B0E0D09720EA36E841E050E00E941F4E45
:103D0000860E971EA81EB91EA685B0E0D09720E1AA
:103D100037E20E94194E860E971EA81EB91EA7856F
:103D2000B0E0D09728EE33E00E94194E860E971E21
:103D3000A81EB91EA089B0E0D09724E630E00E940A
:103D4000194E860E971EA81EB91EA189B0E0D09705
:103D50002AE030E00E94194E680D791D8A1D9B1DD6
:103D60000E947D3571C187E00E94E734FF24F394FF
:103D70006BC148E050E06AE972E0C8010E94984EC9
:103D8000892B39F480E490E20E949415FF24F39487
:103D90005BC148E050E063EA72E0C8010E94984EBF
:103DA000892B29F40E948535FF24F3944DC148E006
:103DB00050E06CEA72E0C8010E94984E892B29F409
:103DC0000E94BA33FF24F3943FC148E050E065EB12
:103DD00072E0C8010E94984E892B29F40E948E350A
:103DE000FF24F39431C148E050E06EEB72E0C8016B
:103DF0000E94984E892B91F5F3E1FF1530F084E095
:103E00000E94E734FF24F3941FC16EEF6F0DC801C9
:103E10000E946E37F82E8823D9F0CE01019628E053
:103E2000FC0111922A95E9F7F80121852983228561
:103E30002A8323852B8324852C8325852D83268522
:103E40002E8327852F83208928870E94B235FCC0C6
:103E500084E00E94E734FF24F394F6C048E050E089
:103E600067EC72E0C8010E94984E892B09F5FDE0CD
:103E7000FF1530F08BE00E94E734FF24F394E4C098
:103E80006EEF6F0DC8010E946E37F82E882351F037
:103E9000F8018185898382858A83CE0101960E94FB
:103EA000E635D2C084E00E94E734FF24F394CCC00E
:103EB00048E050E060ED72E0C8010E94984E892B06
:103EC000A1F48DEB90E20E94941584E080933E2053
:103ED00010923920109238200E9485028EEC90E2D8
:103EE0000E94EB15FF24F394AFC048E050E069ED69
:103EF00072E0C8010E94984E892B49F480E20E942A
:103F0000FC3580E20E944836FF24F3949DC048E0CF
:103F100050E062EE72E0C8010E94984E892B29F4AD
:103F20000E940737FF24F3948FC048E050E06BEE07
:103F300072E0C8010E94984E892B29F40E94333701
:103F4000FF24F39481C048E050E064EF72E0C801C0
:103F50000E94984E892B09F045C0FBE1FF1530F017
:103F600088E00E94E734FF24F3946EC06EEF6F0D7B
:103F7000C8010E946E37F82E882371F1D801199676
:103F8000E6E6FFE1CF01805F2D919191291729F09D
:103F900089E00E94E734F12C57C08E13F5CFCE0193
:103FA000019629E0FC0111922A95E9F7F801238D89
:103FB0002983248D2A83258D2B83268D2C83278D81
:103FC0002D8320A12E830E94BB3381E08093CA20E1
:103FD00088EE93E0A6D138C08AE00E94E734FF243F
:103FE000F39432C048E050E06DEF72E0C8010E94E7
:103FF000984E892BF9F4F7E0FF1530F088E00E9425
:10400000E734FF24F39420C0F8013996A6E6BFE117
:10401000CD01805F21919D91291729F089E00E94AF
:10402000E734F12C11C08A13F5CF0E94BA33FF2474
:10403000F3940AC08BE00E94E734FF24F39404C099
:10404000F12C02C0FF24F3948F2D29960FB6F8941B
:10405000DEBF0FBECDBFDF91CF911F910F91FF90BB
:10406000BF90AF909F908F9008950F93CF93DF9361
:104070001F921F92CDB7DEB7198288E08A838FEB3B
:1040800064D100E126E63FE14FEB62E0CE0101960C
:10409000DDD10F900F90DF91CF910F9108950F9385
:1040A0001F93CF93C1E0C0935120C0937B20C09356
:1040B0001120C0937720C093E92010924E201092D7
:1040C000E31F109234201092DE20C0933E20109205
:1040D000EF201092F1201092F020109252201092B6
:1040E0003A20C09310201092BB201092CA20109248
:1040F00069201092502010924F2087E880937A0018
:104100000E942E389CD264E072E088EC90E00E941D
:104110009206ECE7F0E284EF91E0A0E0B0E0868365
:104120009783A087B187128687EA96E19487838771
:10413000CF010E94EB15E6E5F0E288EE93E0A0E007
:10414000B0E086839783A087B18712868FE696E1D9
:10415000948783870E948A4EE0E4F0E200E911E050
:10416000B8010E94CD4D8C599F4F092E000CAA0B0F
:10417000BB0B86839783A087B187128681E696E181
:10418000948783870E948A4EE5E1F0E2B8010E949D
:10419000CD4D8C599F4F092E000CAA0BBB0B86836B
:1041A0009783A087B18712868FE996E194878387EA
:1041B000EEECF0E288E893E1A0E0B0E0868397833C
:1041C000A087B187C2872AE936E134872387EDEBE0
:1041D000F0E286839783A087B187128683E796E112
:1041E000948783870E94623840DF609178207091C5
:1041F000792080917A200E944E0B811108C0E8EE50
:10420000FFE1178286E0838B0E941F3203C081E0AA
:104210008093EF1FCF911F910F9108958091E4201B
:1042200081FF0EC084E080933E20109239201092CE
:1042300038200E9485028EEC90E20C94EB150895D4
:1042400081E080933E2008950F93062F292F482F59
:1042500065E48EEA53D18AE090E063D00F9108952F
:1042600082E090E10E94F32F8093E42084E090E1CB
:104270000E94F32F8093DF2083E090E10E94F32FD0
:104280008093E21F8091E42080FF2EC061E08CEFDC
:104290009FE0DADF60E08DEF9FE0D6DF60E18EEF38
:1042A0009FE0D2DF60E08FEF9FE0CEDF64E380E04D
:1042B00090E1CADF62E181E090E1C6DF6FE883E070
:1042C00090E1C2DF66E684E090E1BEDF9CD18091A0
:1042D000E4208E7F8093E4206091E42082E090E1EE
:1042E000B3DF8AE090E01DC008951F93CF93DF9362
:1042F000D82F192F41E0480F292F65E48FEA29D1E3
:10430000C82F212F4D2F65E48FEA23D12C2F30E0C9
:10431000322F2227A901482BCA01DF91CF911F918B
:10432000089528EE33E0AC01429FC001439F900DF9
:10433000529F900D1124009739F020E030E02F5F5C
:104340003F4F28173907D9F708950F931F93CF933D
:10435000DF9300D000D0CDB7DEB7BE016F5F7F4FD7
:1043600096E0FB0111929A95E9F708E418EE21E036
:1043700030E009831A832B833C838E8388E18D830D
:1043800088EB90E00E94170426960FB6F894DEBFE3
:104390000FBECDBFDF91CF911F910F910895EF9286
:1043A000FF920F931F93CF93DF93CDB7DEB72A977A
:1043B0000FB6F894DEBF0FBECDBFF9019E012F5F8F
:1043C0003F4F79012AE0D7011D922A95E9F74983E9
:1043D000DC013C913A83462F50E05E834D83F887A1
:1043E000EF8310E01A8709876130C9F0623029F441
:1043F00011968C918A833B8312C0633081F4FC0157
:1044000021812B8382818C830AC081E090E089DF47
:10441000115031F481E00E94AD3781E00AC01AE00A
:10442000BE016F5F7F4F88EB90E00E94B603811161
:10443000ECCF2A960FB6F894DEBF0FBECDBFDF914A
:10444000CF911F910F91FF90EF900895EF92FF92FF
:104450000F931F93CF93DF93CDB7DEB72A970FB695
:10446000F894DEBF0FBECDBFF9019E012F5F3F4F15
:1044700079012AE0D7011D922A95E9F74983DC01E9
:104480003C913A83462F50E05E834D83F887EF835B
:1044900010E01A8709876130C9F0623029F411965B
:1044A0008C918A833B8312C0633081F4FC012181AB
:1044B0002B8382818C830AC081E090E032DF11502F
:1044C00031F481E00E94AD3783E00BC01AE0BE01F9
:1044D0006F5F7F4F88EB90E00E94E2038111ECCF89
:1044E00082E02A960FB6F894DEBF0FBECDBFDF91F3
:1044F000CF911F910F91FF90EF900895FF920F932E
:104500001F93CF93DF9300D0CDB7DEB7182F65345C
:1045100019F0FF24F39403C06894FF24F1F8498351
:104520002A830B83812F11DF01E09E012D5F3F4F16
:10453000412F6F2DCE01019632DF85E090E0F1DE54
:104540000F900F900F90DF91CF911F910F91FF90DF
:104550000895FF920F931F93CF93DF9300D01F9284
:10456000CDB7DEB7182F653419F0FF24F39403C0DC
:104570006894FF24F1F849832A831B821C82812FCF
:10458000E4DE01E09E012D5F3F4F412F6F2DCE01F4
:1045900001965CDF8B810F900F900F900F90DF9151
:1045A000CF911F910F91FF9008950F93CF93DF93B9
:1045B00000D01F92CDB7DEB719821A821B821C82EF
:1045C00080E9C3DE00E020E030E040E961E0CE01B8
:1045D0000196E5DE811109C002E09E012D5F3F4F8B
:1045E00041E961E0CE01019631DF8B8190E0880FD7
:1045F000991F959587950F900F900F900F90DF91D1
:10460000CF910F9108950F93CF93DF93C0E0D0E047
:104610000FEF2D2F4C2F65E48EEA70DF8AE090E0DB
:1046200080DEA8952196CC3F8FE0D80789F71092BD
:10463000F1201092F020DF91CF910F910895CF9348
:10464000DF93C0E0D0E0CE010E94F32F8F3F29F42A
:10465000D093F120C093F02005C02B96CC3F8FE083
:10466000D80789F7DF91CF9108956FEF0C947C31D3
:1046700008952F923F924F925F926F927F928F9206
:104680009F92AF92BF92CF92DF92EF92FF920F93E1
:104690001F93CF93DF93CDB7DEB76E970FB6F89425
:1046A000DEBF0FBECDBF81113FC08091F020909141
:1046B000F1208C3F9F4020F01092F1201092F020CA
:1046C0004091F0202091F12003E465E48EEA16DFAA
:1046D0008091F0209091F12001969093F1208093A9
:1046E000F0208AE090E01DDE8091F0209091F12092
:1046F0008C3F9F4020F01092F1201092F0204091CA
:10470000F0202091F12003E565E48EEAF7DE809148
:10471000F0209091F12001969093F1208093F02069
:104720008AE090E0FEDD0CC2813009F03FC080914C
:10473000F0209091F1208C3F9F4020F01092F120CA
:104740001092F0204091F0202091F12003E465E4E4
:104750008EEAD4DE8091F0209091F1200196909322
:10476000F1208093F0208AE090E0DBDD8091F02062
:104770009091F1208C3F9F4020F01092F1201092F8
:10478000F0204091F0202091F12005E465E48EEACC
:10479000B5DE8091F0209091F12001969093F12068
:1047A0008093F0208AE090E0BCDDCAC1823009F03D
:1047B0003FC08091F0209091F1208C3F9F4020F0ED
:1047C0001092F1201092F0204091F0202091F120E1
:1047D00004E465E48EEA92DE8091F0209091F1206D
:1047E00001969093F1208093F0208AE090E099DD8B
:1047F0008091F0209091F1208C3F9F4020F010920A
:10480000F1201092F0204091F0202091F12003E55A
:1048100065E48EEA73DE8091F0209091F12001969C
:104820009093F1208093F0208AE090E07ADD88C1B7
:10483000833009F03FC08091F0209091F1208C3FAF
:104840009F4020F01092F1201092F0204091F02033
:104850002091F12004E465E48EEA50DE8091F0209E
:104860009091F12001969093F1208093F0208AE0BE
:1048700090E057DD8091F0209091F1208C3F9F4097
:1048800020F01092F1201092F0204091F020209121
:10489000F12005E465E48EEA31DE8091F02090910C
:1048A000F12001969093F1208093F0208AE090E02F
:1048B00038DD46C1843009F03FC08091F0209091EE
:1048C000F1208C3F9F4020F01092F1201092F020B8
:1048D0004091F0202091F12005E465E48EEA0EDE9F
:1048E0008091F0209091F12001969093F120809397
:1048F000F0208AE090E015DD8091F0209091F12089
:104900008C3F9F4020F01092F1201092F0204091B7
:10491000F0202091F12003E565E48EEAEFDD80913F
:10492000F0209091F12001969093F1208093F02057
:104930008AE090E0F6DC04C1853009F03FC0809148
:10494000F0209091F1208C3F9F4020F01092F120B8
:104950001092F0204091F0202091F12005E465E4D0
:104960008EEACCDD8091F0209091F1200196909319
:10497000F1208093F0208AE090E0D3DC8091F02059
:104980009091F1208C3F9F4020F01092F1201092E6
:10499000F0204091F0202091F12005E465E48EEABA
:1049A000ADDD8091F0209091F12001969093F1205F
:1049B0008093F0208AE090E0B4DCC2C0863009F039
:1049C0003FC08091F0209091F1208C3F9F4020F0DB
:1049D0001092F1201092F0204091F0202091F120CF
:1049E00002E465E48EEA8ADD8091F0209091F12066
:1049F00001969093F1208093F0208AE090E091DC82
:104A00008091F0209091F1208C3F9F4020F01092F7
:104A1000F1201092F0204091F0202091F12003E449
:104A200065E48EEA6BDD8091F0209091F120019693
:104A30009093F1208093F0208AE090E072DC80C0B7
:104A4000873009F03FC08091F0209091F1208C3F99
:104A50009F4020F01092F1201092F0204091F02021
:104A60002091F12002E465E48EEA48DD8091F02097
:104A70009091F12001969093F1208093F0208AE0AC
:104A800090E04FDC8091F0209091F1208C3F9F408E
:104A900020F01092F1201092F0204091F02020910F
:104AA000F12004E465E48EEA29DD8091F020909104
:104AB000F12001969093F1208093F0208AE090E01D
:104AC00030DC3EC08091F0209091F1208C3F9F40DF
:104AD00020F01092F1201092F0204091F0202091CF
:104AE000F1200EE465E48EEA09DD8091F0209091DA
:104AF000F12001969093F1208093F0208AE090E0DD
:104B000010DC8091F0209091F1208C3F9F4020F0AC
:104B10001092F1201092F0204091F0202091F1208D
:104B20000EE465E48EEAEADC8091F0209091F120B9
:104B300001969093F1208093F0208AE090E0F1DBE1
:104B40008091F31F8093EF200E9459386B017C0104
:104B50004F2D5527662777274E2C8D2CA0910720A7
:104B6000E0E8AE9FD00111248091EC1F8170A82B4A
:104B70008091EB1F817089831A8289819A81880FC5
:104B8000991F9A2F982B8091EF1F80FB222420F8E9
:104B9000312C220C331C220C331C292AA8EEBFE135
:104BA0008C9181708B831C82EB81FC81EE0FFF1F47
:104BB000EE0FFF1FEE0FFF1F822D8E2B9091ED1F2A
:104BC00091709D831E822D813E8122953295307F8A
:104BD0003227207F3227282E222A8091F81F8170C9
:104BE0008F8318868F819885880F991F829592955B
:104BF000907F9827807F982782299091F01F91704D
:104C000099871A8629843A84002436942794079435
:104C1000369427940794322C202C282AA0910F2018
:104C2000E0E8AE9FD00111248091FA1F87708A2B93
:104C30009091F31F91709B871C86EB85FC85EE0F8E
:104C4000FF1FEE0FFF1FEE0FFF1F8E2B9091F61F21
:104C500091709D871E862D853E8522953295307FE9
:104C60003227207F3227282B80910D2081708F875B
:104C7000188A8F859889880F991F82959295907FC1
:104C80009827807F9827822B90910E209170998B86
:104C90001A8A29893A8900243695279507943695EA
:104CA00027950794322F202D182F122B8091092041
:104CB00081708B8B1C8AEB89FC89EE0FFF1F809122
:104CC0000A2081708D8B1E8A8D899E89880F991F7D
:104CD000880F991F8E2BE0910820E1708E2B909108
:104CE0000B2091709F8B188EEF89F88DEE0FFF1FB0
:104CF000EE0FFF1FEE0FFF1F8E2B90910C20917077
:104D0000998F1A8E298D3A8D22953295307F3227D0
:104D1000207F3227282B8091F11F81708B8F1C8E72
:104D20008B8D9C8D880F991F82959295907F9827E7
:104D3000807F9827822B9091F21F91709D8F1E8EFD
:104D40002D8D3E8D00243695279507943695279511
:104D50000794322F202D382E322A8091F020909106
:104D6000F1208C3F9F4020F01092F1201092F02013
:104D70008091F0202091F120042F482F65E48EEAE5
:104D8000BDDB8091F0209091F12001969093F1206D
:104D90008093F0208AE090E0C4DA8091F020909136
:104DA000F1208C3F9F4020F01092F1201092F020D3
:104DB0004091F0202091F120042D65E48EEA9EDBE5
:104DC0008091F0209091F12001969093F1208093B2
:104DD000F0208AE090E0A5DA8091F0209091F12017
:104DE0008C3F9F4020F01092F1201092F0204091D3
:104DF000F0202091F120082D65E48EEA7FDB809180
:104E0000F0209091F12001969093F1208093F02072
:104E10008AE090E086DA8091F0209091F1208C3F3A
:104E20009F4020F01092F1201092F0204091F0204D
:104E30002091F1200C2D65E48EEA60DB8091F0205A
:104E40009091F12001969093F1208093F0208AE0D8
:104E500090E067DA8091F0209091F1208C3F9F40A4
:104E600020F01092F1201092F0204091F02020913B
:104E7000F1200091E91F65E48EEA40DB8091F0208B
:104E80009091F12001969093F1208093F0208AE098
:104E900090E047DA8091F0209091F1208C3F9F4084
:104EA00020F01092F1201092F0204091F0202091FB
:104EB000F1200091EE1F65E48EEA20DB8091F02066
:104EC0009091F12001969093F1208093F0208AE058
:104ED00090E027DA8091F0209091F1208C3F9F4064
:104EE00020F01092F1201092F0204091F0202091BB
:104EF000F120022D65E48EEA01DB8091F020909193
:104F0000F12001969093F1208093F0208AE090E0C8
:104F100008DA8091F0209091F1208C3F9F4020F0A2
:104F20001092F1201092F0204091F0202091F12079
:104F3000012F65E48EEAE2DA8091F0209091F12071
:104F400001969093F1208093F0208AE090E0E9D9D7
:104F50008091F0209091F1208C3F9F4020F01092A2
:104F6000F1201092F0204091F0202091F120032DAB
:104F700065E48EEAC3DA8091F0209091F1200196E9
:104F80009093F1208093F0208AE090E0CAD980913C
:104F9000F0209091F1208C3F9F4020F01092F12062
:104FA0001092F0208091F0209091F1205EDB8AE059
:104FB00090E0B7D96E960FB6F894DEBF0FBECDBFA6
:104FC000DF91CF911F910F91FF90EF90DF90CF90E5
:104FD000BF90AF909F908F907F906F905F904F9019
:104FE0003F902F9008950F931F93CF93FC01608102
:104FF000662369F08C01C0E088EC90E00E94FC051B
:10500000CF5FF801EC0FF11D60816111F5CFCF91F9
:105010001F910F9108959091BC20992319F0913020
:10502000B9F00895EAE6F0E227E730E290E29193E2
:10503000E217F307E1F78B3521F481E08093BC2080
:1050400008958D3519F510924D201092BC200895C9
:105050008D3541F410924D201092BC2081E0809358
:105060002920089590914D209D3048F4E92FF0E0DB
:10507000E659FF4D80839F5F90934D2008951092D5
:105080004D201092BC2086E093E0ADCF0895CF93E1
:10509000C82F682F62956F706A3010F0695C01C08C
:1050A000605D88EC90E00E94FC05CF70CA3018F07B
:1050B00067E36C0F02C060E36C0F88EC90E00E9425
:1050C000FC05CF91089510922920E0916A208E2F3F
:1050D00090E0FC01F197E930F105B0F48827ED5933
:1050E000FE4F8F4F0C94024E82E0089583E00895A6
:1050F00084E0089585E0089586E0089587E00895A6
:1051000088E0089589E0089586E293E06CDF80E00E
:10511000089581E008951092292080916A208133BA
:10512000A1F018F4803351F00BC0823319F08333AF
:1051300019F006C082E0089583E0089584E00895A0
:1051400086E293E050DF85E0089581E008950F93B3
:105150001F93CF93FC016081662369F08C01C0E04E
:1051600088EC90E00E94FC05CF5FF801EC0FF11D88
:1051700060816111F5CFCF911F910F910895CF9369
:10518000C62FE5DF88E393E02EDF8C2F80DFCF9101
:1051900008959F92AF92BF92CF92DF92EF92FF92CB
:1051A0000F931F93CF93DF93F62E6A0121E0209394
:1051B0008F2010922920182FB92ECAE6D0E2AA24F7
:1051C000A394A80E5BC0309129203130E1F781E330
:1051D000F81621F082E3F816F1F04DC088810E94A4
:1051E0009A37E82E89810E949A37EE0CEE0CEE0C6D
:1051F000EE0CE82A0E2D2B2D412F65E48EEA7ED988
:105200006E2DC601BCDF8AE090E08BD810928F2013
:105210001092292033C088810E949A37E82E898114
:105220000E949A37EE0CEE0CEE0CEE0CE82A0E2DD6
:105230002B2D4A2D65E48EEA61D98A810E949A3726
:10524000982E8B810E949A37082F6E2DC60197DF0A
:10525000E92CEE0CEE0CEE0CEE0CE02A0E2D2B2DB4
:10526000412F65E48FEA4AD98E2D11DF10928F20ED
:105270001092292003C085E493E0B5DE30918F20A1
:10528000313009F4A0CFDF91CF911F910F91FF90A2
:10529000EF90DF90CF90BF90AF909F900895809156
:1052A0002A20823051F128F4882359F08130C9F046
:1052B00041C0843009F439C060F1853009F43FC041
:1052C00039C082E793E08FDE80EA93E08CDE83E1F1
:1052D00096E089DE81E08093632085E080932A2038
:1052E00008958EEE93E07FDE4FE658E062E38CEFA8
:1052F0009FE04FDF10922A2008958BE094E073DE48
:1053000040E658E062E38EEF9FE043DF10922A20F0
:10531000089588E294E067DE42E558E062E380E0C9
:1053200090E137DF10922A2008951092632084E4E0
:1053300094E059DE89E080933F2010922A2008955E
:105340001092292080916A20823361F028F4803302
:1053500089F08133B1F010C0843341F028F08533F7
:1053600039F00AC082E0089583E0089584E008954A
:1053700085E0089587E0089586E293E034DE86E0D4
:10538000089581E00895DF92EF92FF920F931F93AB
:10539000CF93DF9380912B2090E08A30910508F025
:1053A000EFC5FC018827E459FE4F8F4F0C94024E45
:1053B0006091312070913220809133200E94DB096E
:1053C0006091532070915420809155200E94DB09F8
:1053D0006091652070916620809167200E94DB09B2
:1053E0006091352070913620809137200E94DB0932
:1053F0006091122070911320809114200E94DB098B
:105400006091E6207091E7208091E8200E94DB09FE
:105410006091EC207091ED208091EE200E94DB09DC
:1054200088E594E0E0DD87E897E0DDDD6091E0204D
:105430007091E1208091E2200E944E0B882351F070
:105440006091E0207091E1208091E2200E944E0B5B
:105450008111F6CF6091DB207091DC208091DD20FE
:105460000E944E0BE82E60912E2070912F2080918B
:1054700030200E944E0BD82E60918C2070918D2090
:1054800080918E200E944E0BF82E6091E41F709147
:10549000E51F8091E61F0E944E0B082F60913B2074
:1054A00070913C2080913D200E944E0B182F6091FE
:1054B000222070912320809124200E944E0BD82F0F
:1054C0006091CB207091CC208091CD200E944E0B1A
:1054D000C82F6091892070918A2080918B200E9432
:1054E0004E0B21E0D11020E091E0E11090E0292B5B
:1054F00091E0F11090E0922B21E0011120E0292BA6
:1055000091E0111190E0922B21E0D11120E0292BA4
:1055100091E0C11190E0922B29F491E0811190E08B
:10552000992349F085E694E05EDD81E794E05BDD58
:1055300010922B2025C560913120709132208091EE
:1055400033200E9497098EE894E04DDD81E080933E
:105550002B2016C588E594E046DD8AE994E043DD1A
:105560006091DB207091DC208091DD200E944E0B49
:10557000882351F06091DB207091DC208091DD2048
:105580000E944E0B8111F6CF6091E0207091E120D6
:105590008091E2200E944E0BE82E60912E207091A7
:1055A0002F20809130200E944E0BD82E60918C20AD
:1055B00070918D2080918E200E944E0BF82E60916C
:1055C000E41F7091E51F8091E61F0E944E0B082F8B
:1055D00060913B2070913C2080913D200E944E0BB9
:1055E000182F6091222070912320809124200E9406
:1055F0004E0BD82F6091CB207091CC208091CD2084
:105600000E944E0BC82F6091892070918A20809152
:105610008B200E944E0B21E0D11020E091E0E110A0
:1056200090E0292B91E0F11090E0922B21E0011104
:1056300020E0292B91E0111190E0922B21E0D11173
:1056400020E0292B91E0C11190E0922B29F491E008
:10565000811190E0992349F085E694E0C4DC81E76C
:1056600094E0C1DC10922B208BC460915320709188
:105670005420809155200E9497098EE894E0B3DC75
:1056800082E080932B207CC488E594E0ACDC8EE340
:1056900092E0A9DC60912E2070912F208091302023
:1056A0000E944E0B882351F060912E2070912F2084
:1056B000809130200E944E0B8111F6CF6091E02046
:1056C0007091E1208091E2200E944E0BE82E6091C3
:1056D000DB207091DC208091DD200E944E0BD82EC3
:1056E00060918C2070918D2080918E200E944E0BB5
:1056F000F82E6091E41F7091E51F8091E61F0E94D3
:105700004E0B082F60913B2070913C2080913D20F2
:105710000E944E0B182F60912220709123208091BF
:1057200024200E944E0BD82F6091CB207091CC206A
:105730008091CD200E944E0BC82F609189207091DE
:105740008A2080918B200E944E0B21E0D11020E016
:1057500091E0E11090E0292B91E0F11090E0922B84
:1057600021E0011120E0292B91E0111190E0922B12
:1057700021E0D11120E0292B91E0C11190E0922B82
:1057800029F491E0811190E0992349F085E694E0B5
:105790002ADC81E794E027DC10922B20F1C3609192
:1057A000652070916620809167200E9497098EE89D
:1057B00094E019DC83E080932B20E2C388E594E039
:1057C00012DC8CE994E00FDC60918C2070918D20CC
:1057D00080918E200E944E0B882351F060918C2086
:1057E00070918D2080918E200E944E0B8111F6CFFA
:1057F0006091E0207091E1208091E2200E944E0BA8
:10580000E82E6091DB207091DC208091DD200E94E9
:105810004E0BD82E60912E2070912F208091302039
:105820000E944E0BF82E6091E41F7091E51F80914D
:10583000E61F0E944E0B082F60913B2070913C2088
:1058400080913D200E944E0B182F60912220709174
:105850002320809124200E944E0BD82F6091CB20D2
:105860007091CC208091CD200E944E0BC82F60916A
:10587000892070918A2080918B200E944E0B21E01C
:10588000D11020E091E0E11090E0292B91E0F1109F
:1058900090E0922B21E0011120E0292B91E01111E1
:1058A00090E0922B21E0D11120E0292B91E0C11151
:1058B00090E0922B29F491E0811190E0992349F036
:1058C00085E694E090DB81E794E08DDB10922B205D
:1058D00057C36091352070913620809137200E9407
:1058E00097098EE894E07FDB84E080932B2048C307
:1058F00088E594E078DB8EE994E075DB6091E41F45
:105900007091E51F8091E61F0E944E0B882351F095
:105910006091E41F7091E51F8091E61F0E944E0B7D
:105920008111F6CF6091E0207091E1208091E2201A
:105930000E944E0BE82E6091DB207091DC2080915C
:10594000DD200E944E0BD82E60912E2070912F20CA
:10595000809130200E944E0BF82E60918C20709127
:105960008D2080918E200E944E0B082F60913B204D
:1059700070913C2080913D200E944E0B182F609129
:10598000222070912320809124200E944E0BD82F3A
:105990006091CB207091CC208091CD200E944E0B45
:1059A000C82F6091892070918A2080918B200E945D
:1059B0004E0B21E0D11020E091E0E11090E0292B86
:1059C00091E0F11090E0922B21E0011120E0292BD1
:1059D00091E0111190E0922B21E0D11120E0292BD0
:1059E00091E0C11190E0922B29F491E0811190E0B7
:1059F000992349F085E694E0F6DA81E794E0F3DA5A
:105A000010922B20BDC260911220709113208091C2
:105A100014200E9497098EE894E0E5DA85E08093EF
:105A20002B20AEC288E594E0DEDA80EA94E0DBDA8F
:105A300060913B2070913C2080913D200E944E0B54
:105A4000882351F060913B2070913C2080913D2053
:105A50000E944E0B8111F6CF6091E0207091E12001
:105A60008091E2200E944E0BE82E6091DB20709125
:105A7000DC208091DD200E944E0BD82E60912E20DC
:105A800070912F20809130200E944E0BF82E609153
:105A90008C2070918D2080918E200E944E0B082FBB
:105AA0006091E41F7091E51F8091E61F0E944E0BEC
:105AB000182F6091222070912320809124200E9431
:105AC0004E0BD82F6091CB207091CC208091CD20AF
:105AD0000E944E0BC82F6091892070918A2080917E
