:1000000091C1000034C700005FC700008AC700002C
:10001000B5C70000E0C700000C9418080C94450810
:100020000C9472080C949F080C94CC089BC100009F
:1000300099C1000097C1000095C100000C94783769
:1000400091C100008FC100008DC100008BC1000074
:1000500089C1000087C1000085C100000C944A37A7
:1000600081C100007FC100007DC100007BC1000094
:1000700079C1000077C1000075C1000073C10000A4
:1000800071C100006FC100006DC100006BC10000B4
:1000900081C6000067C1000065C10000D5C3000033
:1000A00061C100005FC100000C94D30B5BC1000074
:1000B00059C1000057C1000055C1000053C10000E4
:1000C00051C100004FC100004DC100004BC10000F4
:1000D00049C1000047C1000045C1000043C1000004
:1000E00041C100003FC100003DC100003BC1000014
:1000F00039C1000037C1000035C1000033C1000024
:1001000031C100002FC100002DC100002BC1000033
:1001100029C1000027C1000025C1000023C1000043
:1001200021C100001FC100001DC100001BC1000053
:1001300019C10000CF04CB05CB05CB05CB05CB0502
:10014000CB05CB054604CB05CB05CB05CB05CB05B5
:10015000CB05CB054604CB05CB05CB05CB05CB05A5
:10016000CB05CB056B04CB05CB05CB05CB05CB0570
:10017000CB05CB05CF04CB05CB05CB05CB05CB05FC
:10018000CB05CB056B04CB05CB05CB05CB05CB0550
:10019000CB05CB05CF04CB05CB05CB05CB05CB05DC
:1001A000CB05CB055C05CB05CB05CB05CB05CB053E
:1001B000CB05CB05D404CB05CB05CB05CB05CB05B7
:1001C000CB05CB05CF04CB05CB05CB05CB05CB05AC
:1001D000CB05CB05FD04CB05CB05CB05CB05CB056E
:1001E000CB05CB053505CB05CB05CB05CB05CB0525
:1001F000CB05CB059005CB05CB05CB05CB05CB05BA
:10020000CB05CB059005CB05CB05CB05CB05CB05A9
:10021000CB05CB059005CB05CB05CB05CB05CB0599
:10022000CB05CB059005CB05CB05CB05CB05CB0589
:10023000CB05CB059A05CB05CB05CB05CB05CB056F
:10024000CB05CB05BF05CB05CB05CB05CB05CB053A
:10025000CB05CB059A05CB05CB05CB05CB05CB054F
:10026000CB05CB05BF05CB05CB05CB05CB05CB051A
:10027000CB05CB05B305CB05CB05CB05CB05CB0516
:10028000CB05CB056505CB05CB05CB05CB05CB0554
:10029000CB05CB056505CB05CB05CB05CB05CB0544
:1002A000CB05CB056905CB05CB05CB05CB05CB0530
:1002B000CB05CB058405CB05CB05CB05CB05CB0505
:1002C000CB05CB05BF052828132815281728192882
:1002D0001B281D281F2821287429462AE02A7A2B4A
:1002E000142CAE2C482DE22D8C2E592F6F308230DD
:1002F0009030A030B030D530C430063209322C32C4
:100300000B322F323132333235320D3282348B346C
:100310009F349534A934B334BD34C734D134E53473
:10032000EF34DB3411241FBECFEFD1E8DEBFCDBFE9
:1003300000E00CBF19E0A0E0B2E0E4E8FCE900E076
:100340000BBF02C007900D92A434B107D9F725E284
:10035000A4E4B9E001C01D92AA39B207E1F75BD568
:100360000C94404E4DCEF999FECF92BD81BDF89AC6
:1003700080B50895EF92FF920F931F93CF93DF9371
:100380004115510579F08B01040F151FEB017C011C
:10039000E61AF70AC7018C0F9D1FE5DF8993C01786
:1003A000D107C1F7DF91CF911F910F91FF90EF908F
:1003B0000895EF92FF920F931F93CF93DF93CDB7E2
:1003C000DEB761970FB6F894DEBF0FBECDBF4AE22D
:1003D00050E068E073E280E090E0CCDF80912E2373
:1003E00090912F23A0913023B091312381349C46EA
:1003F000A546B84709F47BC081E1E7E1F2E0DE0100
:10040000119601900D928A95E1F70F2EF0E6EF2EEE
:10041000F2E2FF2EF02DF701638D748D8CEF9FE0DB
:100420000E94142108E013E2F80191838083F70110
:10043000658D768D80E090E10E941421F80195830E
:100440008483F701618D728D8EEF9FE00E941421ED
:10045000F8019383828340E250E060E270E08EE036
:1004600093E20E941D4E8BE0EBE0F2E0AEE0B3E2DF
:1004700001900D928A95E1F7F80180819181FC014C
:10048000EF2FFF27E295EF7021E030E02C0F3D1FAA
:10049000E20FF31F2081F8012587E92FFF27EF7076
:1004A000FF2721E030E02C0F3D1FE20FF31F2081DA
:1004B000F8012687FC01F295E295EF70EF27FF70B7
:1004C000EF27EF70FF2721E030E02C0F3D1FE20FF8
:1004D000F31F2081F80127878F709927E1E0F0E072
:1004E000EC0FFD1FE80FF91F8081F801808B6196EA
:1004F0000FB6F894DEBF0FBECDBFDF91CF911F9135
:100500000F91FF90EF900895CF93DF934AE250E070
:1005100068E073E280E090E02DDF80912E239091DF
:100520002F23A0913023B091312381349C46A546DE
:10053000B84711F1C8E0D3E28FEF9FEF998388832A
:100540009D838C838FE090E09B838A8340E250E020
:1005500060E270E08EE093E20E941D4E8BE0EBE0E3
:10056000F2E0AEE0B3E201900D928A95E1F786E603
:100570008D878E878F87888B4ED0DF91CF9108959E
:1005800029E08634920769F047EC59E0BC0121E08C
:100590004617570739F02F5F4F575F4F2431C1F788
:1005A00001C020E0FC01378531110EC030E0F901B7
:1005B000F695FE2FEE27F795E7952E0F3F1FF901D1
:1005C000EC5BF64F1082089530E0F901F695FE2FAE
:1005D000EE27F795E795E20FF31FEC5BF64F4181AD
:1005E00041504183442319F00C943E0C0895F901C5
:1005F000F695FE2FEE27F795E7952E0F3F1FF90191
:10060000EC5BF64F10820895FC016185878190852F
:100610000C94191D0895CF93DF93C8E0D3E288812D
:1006200099810E94FB0B8C819D810E94020C8A8122
:100630000E941E1481E00E941A1464E073E081E0BD
:100640000E94090CA4E4B9E0EFE4F9E063E673E189
:1006500081E040EC52E01C9218961C921E92179773
:10066000EF01229788832196888380839F01285FEA
:100670003F4F3283218355834483AF57BF4FEF579A
:10068000FF4FE617F70739F70E94B81BDF91CF91AC
:10069000089580914409882359F0E5ECF9E068E574
:1006A00073E181E090E0AC012081211118C002C00B
:1006B00040E050E0FA01F695FE2FEE27F795E7951A
:1006C0004E0F5F1FFA01EC5BF64F81E08083DF0184
:1006D000A058BF4F1C9281838E2F9F2F08950196A3
:1006E000EF57FF4FE617F707F1F680E090E0089527
:1006F000FC01E058FF4F2081222331F0FC012687C6
:1007000002960C943E0C0895FC0110820895CF933C
:10071000DF9370E09C01260F371FF9013297C081EB
:10072000D0E0DC2FCC2731962081C22B625071099A
:1007300026E030E048E252E00E940D4D21E0C8176B
:10074000D90709F020E0822FDF91CF91089581E051
:10075000809367131092591380E98093BC00089529
:100760006115710529F180915913811123C0E1E6CA
:10077000F3E171836083138212821582148281E017
:1007800080935913FB0184819581892B21F484E0A6
:100790008093671303C082E08093671385EA809398
:1007A000BC00809159138111FCCF8091681308958A
:1007B00088EF089580E80895709362136093611341
:1007C0006115710541F1FB0180859185892B29F126
:1007D00080915913811123C0E1E6F3E11382128263
:1007E0001582148281E080935913FB0184819581E5
:1007F000892B21F485E08093671303C083E0809305
:10080000671385EA8093BC00809159138111FCCF56
:1008100080916813089588EF089588EF089580E81F
:100820000895F894ECEBF0E010821092B900DB012F
:1008300014968C918093B800808181608083789435
:100840001092581380E008951F920F920FB60F92E6
:1008500011240BB60F922F933F934F935F936F9397
:100860007F938F939F93AF93BF93EF93FF93809169
:10087000B900887F90E0893C910508F08CC1FC01AB
:100880008827E656FF4F8F4F0C94714D8091671368
:100890009EEF980F933060F4E0916113F091621332
:1008A00080818E7F8093BB0085E88093BC008BC1E4
:1008B000853061F4E0916113F09162138081816071
:1008C0008093BB0085E88093BC007DC140DF8BEF47
:1008D0008093681378C180916713843051F5E1E605
:1008E000F3E1848195810190F081E02D20853185AF
:1008F0008217930798F426813781AC014F5F5F4FD1
:100900005093661340936513F901E80FF91F808136
:100910008093BB0085E88093BC0055C184E9809337
:10092000BC00E1E6F3E181E086831782109259135F
:100930004AC19EEF980F923038F5E1E6F3E18281EB
:100940009381A081B181A80FB91F11962C910196B6
:10095000938382832093BB0025E82093BC00019001
:10096000F081E02D248135812817390709F02BC14A
:1009700080916713823021F484E08093671323C150
:1009800085E0809367131FC1853021F485EA809349
:10099000BC0019C1DCDE8BEF8093681314C1D7DE75
:1009A0008FEF809368130FC180916713853001F535
:1009B000E1E6F3E1A081B18118968D919C911997A0
:1009C0000197248135812817390749F4ECEBF0E0D1
:1009D00080818F7B8083808185688083F4C0ECEB8D
:1009E000F0E0808180648083808185688083EBC0B3
:1009F000AEDE8BEF80936813E6C02091BB00809140
:100A00006713853069F5E1E6F3E1A081B1811696BF
:100A10006D917C91179784819581AC014F5F5F4FF9
:100A200055834483FB01E80FF91F208318968D91AD
:100A30009C91199701974817590748F4ECEBF0E09F
:100A4000808180648083808185688083BCC0ECEB7A
:100A5000F0E080818F7B8083808185688083B3C054
:100A600076DE8BEF80936813AEC02091BB0080913F
:100A700067138530E1F4E1E6F3E1A081B1811696D8
:100A80004D915C91179784819581BC016F5F7F4F79
:100A900075836483DA01A80FB91F2C9384E98093CE
:100AA000BC0081E086831782109259138CC04FDE00
:100AB0008BEF8093681387C0E1E6F3E181E08683E2
:100AC00086EF8783109259137EC010925D131092A7
:100AD0005C13EAE5F3E1A081B18112962D913C917E
:100AE000139782819381AC014F5F5F4F53834283A1
:100AF000D901A80FB91F8C918093BB0085EC80931E
:100B0000BC0088E084835FC0EAE5F3E181E0848390
:100B100082E090E09683858385EC8093BC0053C08F
:100B2000EAE5F3E11382128285EC8093BC0088E051
:100B3000848349C02091BB00EAE5F3E1A081B18143
:100B40004D915C9182819381BC016F5F7F4F738374
:100B50006283DA01A80FB91F2C9385EC8093BC0047
:100B600088E0848330C0EAE5F3E181E0848383E0B8
:100B700090E09683858385EC8093BC0024C0EAE5F1
:100B8000F3E181E0848380E98093BC008FEF9FEFE5
:100B90009683858318C080915813811109C0E1E6BE
:100BA000F3E181E086838BEF8783109259130BC0AA
:100BB000EAE5F3E18EEF9FEF9683858381E08483FE
:100BC00085EC8093BC00FF91EF91BF91AF919F9115
:100BD0008F917F916F915F914F913F912F910F90E6
:100BE0000BBE0F900FBE0F901F9018950F931F9381
:100BF000CF93DF938C01D62FCAE00AC081E090E04A
:100C00000E943021C15021F482E00E941C3704C0B0
:100C1000F801908195FFF2CFF801D68380E0DF9153
:100C2000CF911F910F9108958F929F92AF92BF9293
:100C3000CF92DF92EF92FF920F931F93CF93DF93A8
:100C4000EC016A017B01B901A801689412F876955C
:100C50006795579547951694D1F7D901C801072E86
:100C600073E1B695A795979587957A95D1F7702DED
:100C7000E881E1FF0BC04A015B01B694A794979409
:100C80008794B695A7959795879502C04A015B0111
:100C90008C149D04AE04BF0478F1C816D906EA0688
:100CA000FB0660F1888181FF10C0CC0CDD1CEE1CBE
:100CB000FF1CCB01BA01A70196010E944F4DDA013A
:100CC000C9010197A109B10913C0C901B80168940C
:100CD00013F896958795779567951694D1F7A701A0
:100CE00096010E944F4DDA01C9010197A109B1098E
:100CF0009D838C8381E003C080E001C080E0DF91B0
:100D0000CF911F910F91FF90EF90DF90CF90BF9008
:100D1000AF909F908F9008950F931F93CF93DF9381
:100D2000EC01FB018A818F738A832681358184815E
:100D30009A81482F4370440F997F942B9A8399810D
:100D40008470880F880F9B7F892B89838A818F7C91
:100D5000832B8A838A81922F990F990F990F877F0E
:100D6000892B8A83408151816281738100E012E185
:100D70002AE730E0CE0158DF998198609983998104
:100D800090619983998190689983DF91CF911F91A8
:100D90000F9108951F920F920FB60F9211240BB668
:100DA0000F922F933F934F935F936F937F938F9304
:100DB0009F93AF93BF93EF93FF938091CE000E94D8
:100DC000AA27FF91EF91BF91AF919F918F917F9152
:100DD0006F915F914F913F912F910F900BBE0F90AC
:100DE0000FBE0F901F90189580918822813021F4BA
:100DF0008093EF22809389220895F894A89599E230
:100E000088E10FB6F894A895809360000FBE909388
:100E10006000789408950E9439150E94CF20C9DAA5
:100E2000FADBE9E6F3E188E893E1A0E0B0E086834D
:100E30009783A087B18781E0828784EF96E09487CB
:100E40008387CF010E9407160E9448170E94EE1F59
:100E500080915C2390E00E94AD20CFDF85E08093FD
:100E60004D010E9442150E94151DA895FACF1F92B0
:100E70000F920FB60F9211240BB60F922F933F9340
:100E80004F935F936F937F938F939F93AF93BF9392
:100E9000EF93FF93E0918813F0918913309709F055
:100EA0001995FF91EF91BF91AF919F918F917F9194
:100EB0006F915F914F913F912F910F900BBE0F90CB
:100EC0000FBE0F901F9018951F920F920FB60F92A2
:100ED00011240BB60F922F933F934F935F936F9311
:100EE0007F938F939F93AF93BF93EF93FF93E09183
:100EF0008613F0918713309709F01995FF91EF91C0
:100F0000BF91AF919F918F917F916F915F914F9121
:100F10003F912F910F900BBE0F900FBE0F901F901F
:100F200018951F920F920FB60F9211240BB60F92C5
:100F30002F933F934F935F936F937F938F939F93E1
:100F4000AF93BF93EF93FF93E0918413F0918513D8
:100F5000309709F01995FF91EF91BF91AF919F9153
:100F60008F917F916F915F914F913F912F910F9052
:100F70000BBE0F900FBE0F901F9018951F920F92EF
:100F80000FB60F9211240BB60F922F933F934F93EE
:100F90005F936F937F938F939F93AF93BF93EF93E1
:100FA000FF93E0918213F0918313309709F0199524
:100FB000FF91EF91BF91AF919F918F917F916F9131
:100FC0005F914F913F912F910F900BBE0F900FBEED
:100FD0000F901F9018951F920F920FB60F92112429
:100FE0000BB60F922F933F934F935F936F937F9323
:100FF0008F939F93AF93BF93EF93FF93E0918013F1
:10100000F0918113309709F01995FF91EF91BF91FD
:10101000AF919F918F917F916F915F914F913F9190
:101020002F910F900BBE0F900FBE0F901F90189531
:101030001F920F920FB60F9211240BB60F922F939F
:101040003F934F935F936F937F938F939F93AF9350
:10105000BF93EF93FF93E0917E13F0917F1330974E
:1010600009F01995FF91EF91BF91AF919F918F91E9
:101070007F916F915F914F913F912F910F900BBE98
:101080000F900FBE0F901F9018951F920F920FB6E2
:101090000F9211240BB60F922F933F934F935F93B0
:1010A0006F937F938F939F93AF93BF93EF93FF9330
:1010B000E0917C13F0917D13309709F01995FF9121
:1010C000EF91BF91AF919F918F917F916F915F91C0
:1010D0004F913F912F910F900BBE0F900FBE0F902D
:1010E0001F9018951F920F920FB60F9211240BB6F6
:1010F0000F922F933F934F935F936F937F938F93B1
:101100009F93AF93BF93EF93FF93E0917A13F09186
:101110007B13309709F01995FF91EF91BF91AF9133
:101120009F918F917F916F915F914F913F912F91FF
:101130000F900BBE0F900FBE0F901F9018951F922F
:101140000F920FB60F9211240BB60F922F933F936D
:101150004F935F936F937F938F939F93AF93BF93BF
:10116000EF93FF93E0917813F0917913309709F0A2
:101170001995FF91EF91BF91AF919F918F917F91C1
:101180006F915F914F913F912F910F900BBE0F90F8
:101190000FBE0F901F9018951F920F920FB60F92CF
:1011A00011240BB60F922F933F934F935F936F933E
:1011B0007F938F939F93AF93BF93EF93FF93E091B0
:1011C0007613F0917713309709F01995FF91EF910D
:1011D000BF91AF919F918F917F916F915F914F914F
:1011E0003F912F910F900BBE0F900FBE0F901F904D
:1011F0001895803111F4D99A0895D89A08958031BC
:1012000059F4E8E6F0E0808182608083ECE6F0E06B
:101210008081816080830895E8E6F0E080818160CC
:101220008083EBE6F0E0208181E090E002C0880F4F
:10123000991F7A95E2F7822B80830895803131F4EB
:10124000ECE6F0E080818E7F80830895EBE6F0E0AD
:10125000208181E090E002C0880F991F7A95E2F723
:101260008095822380830895CF92DF92EF926B0165
:10127000E82EE4DF8E2DB60126D18E2DB601C5D124
:101280008E2DB601B6DF8E2DB601B9DFEF90DF905F
:10129000CF900895982F811105C0509389134093E2
:1012A00088130895813029F450938713409386134F
:1012B0000895823029F45093851340938413089540
:1012C000833029F45093831340938213089584301C
:1012D00029F450938113409380130895853029F4A5
:1012E00050937F1340937E130895863029F45093D2
:1012F0007D1340937C130895873029F450937B131A
:1013000040937A1308958850883028F450937913C5
:10131000409378130895903121F4509377134093BC
:1013200076130895623009F128F4662341F06130A4
:1013300089F00895633021F1643069F1089525B191
:1013400081E090E002C0880F991F7A95E2F7822B26
:1013500085B908952BB181E090E002C0880F991FF4
:101360007A95E2F7822B8BB908952EB181E090E057
:1013700002C0880F991F7A95E2F7822B8EB90895E3
:1013800021B381E090E002C0880F991F7A95E2F7BF
:10139000822B81BB089524B381E090E002C0880FC6
:1013A000991F7A95E2F7822B84BB0895623019F178
:1013B00028F4662341F0613091F00895633039F1EB
:1013C000643089F1089525B181E090E002C0880F72
:1013D000991F7A95E2F78095822385B908952BB1FC
:1013E00081E090E002C0880F991F7A95E2F780951E
:1013F00082238BB908952EB181E090E002C0880F5E
:10140000991F7A95E2F7809582238EB9089521B3CA
:1014100081E090E002C0880F991F7A95E2F78095ED
:10142000822381BB089524B381E090E002C0880F3D
:10143000991F7A95E2F78095822384BB08956230E4
:1014400009F128F4662341F0613089F00895633092
:1014500021F1643069F1089525B181E090E002C086
:10146000880F991F7A95E2F7822785B908952BB1E5
:1014700081E090E002C0880F991F7A95E2F78227F9
:101480008BB908952EB181E090E002C0880F991FBA
:101490007A95E2F782278EB9089521B381E090E032
:1014A00002C0880F991F7A95E2F7822781BB0895C1
:1014B00024B381E090E002C0880F991F7A95E2F78B
:1014C000822784BB0895623061F128F4662349F0D5
:1014D0006130B9F008956330A1F1643009F441C07E
:1014E000089524B181E090E002C0880F991F7A9599
:1014F000E2F78095982F922394B995B1892385B905
:1015000008952AB181E090E002C0880F991F7A9572
:10151000E2F78095982F92239AB99BB189238BB9D2
:1015200008952DB181E090E002C0880F991F7A954F
:10153000E2F78095982F92239DB99EB189238EB9A9
:10154000089520B381E090E002C0880F991F7A953A
:10155000E2F78095982F922390BB91B3892381BBAA
:10156000089523B381E090E002C0880F991F7A9517
:10157000E2F78095982F922393BB94B3892384BB81
:101580000895623009F128F4662341F0613089F052
:101590000895633021F1643069F1089524B181E048
:1015A00090E002C0880F991F7A95E2F7822B84B9E8
:1015B00008952AB181E090E002C0880F991F7A95C2
:1015C000E2F7822B8AB908952DB181E090E002C044
:1015D000880F991F7A95E2F7822B8DB9089520B371
:1015E00081E090E002C0880F991F7A95E2F7822B84
:1015F00080BB089523B381E090E002C0880F991F5B
:101600007A95E2F7822B83BB0895623009F128F4C2
:10161000662341F0613089F00895633021F1643030
:1016200069F1089525B181E090E002C0880F991F0B
:101630007A95E2F7822B85B908952BB181E090E08D
:1016400002C0880F991F7A95E2F7822B8BB9089513
:101650002EB181E090E002C0880F991F7A95E2F7E1
:10166000822B8EB9089521B381E090E002C0880FEB
:10167000991F7A95E2F7822B81BB089524B381E00C
:1016800090E002C0880F991F7A95E2F7822B84BB05
:1016900008956230E9F028F4662341F0613079F072
:1016A00032C06330F1F0643029F12DC083B190E095
:1016B00002C0959587957A95E2F78170089589B172
:1016C00090E002C0959587957A95E2F7817008952C
:1016D0008CB190E002C0959587957A95E2F781707C
:1016E00008958FB190E002C0959587957A95E2F7BD
:1016F0008170089582B390E002C0959587957A95A0
:10170000E2F78170089580E0089514BE0FB6F89452
:10171000A8958091600088618093600010926000BD
:101720000FBEE1E6F0E080E880831082789404C088
:10173000089590E016C0089510926A2380E197E220
:101740009093A9008093A800E1EAF0E088E080830C
:10175000808182608083E2E7F0E080818260808324
:1017600008952091A4003091A500820F931FEAEA0A
:10177000F0E091838083208131818091A800909155
:10178000A9008217930750F42091A8003091A90076
:1017900080819181821B930B9183808384E089BB3C
:1017A000CA9BFECF08951F920F920FB60F9211247D
:1017B0008F9380916A238F5F80936A238F910F901C
:1017C0000FBE0F901F901895EBE6F3E2148215827E
:1017D0001182108217A216A2E1E7F3E281E993E2F7
:1017E00011921192E817F907D9F74FD665D30DD1A9
:1017F00040D08FC1089590936C2380936B230C94F9
:101800003414089590936E2380936D230C942214C6
:101810000895E82FF0E0EE0FFF1FEF58FC4D7183A5
:101820006083089591D32FD74DC00895E0918A1316
:10183000F0918B133097D9F0228133812817390723
:1018400089F405C0228133812817390759F4DC0156
:10185000AD57BF4F2C91278713962C91208B22E0F8
:10186000248305C00190F081E02D309759F711C114
:10187000089510928B1310928A130895FC0114821C
:10188000178613821282ABE6B3E296968D919C91F5
:101890009797019697969C938E93969780918A132B
:1018A00090918B13009739F411821082F0938B136F
:1018B000E0938A13089591838083F0938B13E093D0
:1018C0008A1308950F931F93CF93DF93E0918A13A8
:1018D000F0918B13309709F493C0EF018C8188232A
:1018E00021F0823009F466C085C09AD08C0100973F
:1018F00021F482E08C838F8783C09B838A8381E07D
:101900008C83F801E957FF4F86E19CE09183808347
:101910003197898582FB882780F980839985D80152
:101920001B968C911B9790FB80F91B968C931B97B1
:10193000998593FB992790F990FB82F91B968C93DC
:101940001B97EBE6F3E284818F5F84831C968C9374
:101950001C97808191811E969C938E931D978D81FB
:101960009E8150969C938E931F978885982F9F7089
:1019700051968C915197807F892B51968C935197DA
:101980009F819295907F8F70892B51968C93F8014F
:10199000EF57FF4F4C8550E06A857B8580819181B0
:1019A0000E94144EF80191818C85890F8183C801B2
:1019B0008FD526C0CE17DF0741F488819981909397
:1019C0008B1380938A130AC0FC0180819181C81710
:1019D000D907D1F78881998191838083EBE6F3E27F
:1019E00086A197A1019797A386A3ED85FE85CE01D9
:1019F000199506C00990D881C02D209709F06ECFA7
:101A0000DF91CF911F910F910895ECE8F3E180E40D
:101A10009EE11082E757FF4FE817F907D1F70895C5
:101A200080918C13882359F0E5E1F4E140E45EE114
:101A300081E090E0BC012081211122C002C060E061
:101A400070E049E8469F9001479F300D1124C9017D
:101A500084579C4EFC0111924A95E9F740E1FC0144
:101A60004183EF57FF4F22563C4E31832083EBE6F4
:101A7000F3E226A137A12F5F3F4F37A326A3089596
:101A80000196E757FF4FE417F507A1F680E090E0D5
:101A90000895FC011082EBE6F3E286A197A101977D
:101AA00097A386A30895009741F0FC01E757FF4FE5
:101AB0008EE1E034F80718F015C0ECE8F3E180811E
:101AC000882339F003C08081882319F08E2F9F2F3F
:101AD0000895E757FF4F8EE1E034F807A0F380E068
:101AE00090E0089580E090E00895FC01DC01AD579E
:101AF000BF4F1C92ABE6B3E214969C9114979F5F84
:101B000014969C93149794878D919C9196878587C2
:101B10000895A5E4BEE180E090E04FEF5FEFFD01A6
:101B2000349751834083FC01EE0FFF1FEE0FFF1F20
:101B3000EE0FFF1FE81BF90BE05CF14E20812E7FBA
:101B400020831C92019617968436910541F70895DB
:101B50000F931F93CF93DF93E1E4FEE120E030E0A9
:101B6000062F10E04081518148175907B1F4D9017F
:101B7000AA0FBB1FAA0FBB1FAA0FBB1FA21BB30B31
:101B8000A05CB14E4C9146954170C42F40E0D42FDB
:101B9000C017D10711F4CD0108C02F5F3F4F379612
:101BA00024363105F9F680E090E0DF91CF911F9166
:101BB0000F910895CF93DF93E5E4FEE121E031E258
:101BC000C0E0D0E0DF0115978C9180FD0BC08081D3
:101BD000882369F0209729F09D81891718F4ED0179
:101BE00001C0ED013796E217F30761F7DE018C9132
:101BF0008D7080638C9380E815968C931597CD013A
:101C0000DF91CF910895FC01808180FD05C08FEFA9
:101C10009FEF92838183158208959ADF009721F0C8
:101C2000FC018381948108958FEF9FEF089590DFE9
:101C3000009709F0E8CF08950F931F93CF93DF9398
:101C4000FC010185128511232CF4858596850817E2
:101C50001907E1F5858196810196C1F1EF0160E0F8
:101C60008585968575DFFC01892BA1F08F8198858C
:101C70000196F9F420916B2330916C238F8598891C
:101C800028173907B1F41483038380818F70806330
:101C900080830AC08FDFFC018D859E8592838183BE
:101CA00089859A8594838383CD57DF4F8881868386
:101CB0000DC08381948108171907B1F3DE01AD5778
:101CC000BF4F9C9186818917F0F2EECFDF91CF91C3
:101CD0001F910F910895CF93DF93FC018785908921
:101CE0008F3F2FEF9207D9F1EF01638563FB6627E2
:101CF00060F92EDFDC01892B91F18C9180FD2FC0E2
:101D0000FE01ED57FF4F8081811119C08C918F70BA
:101D100080638C9315968C9115978F5F15968C9395
:101D20008F3FE9F4E5E4FEE121E031E28081869530
:101D30008F5F80833796E217F307C1F710C09C913D
:101D4000892F82958F70815F8F70282F2295207F39
:101D50009F70922B9C93811102C0CD0154DFDF91C3
:101D6000CF910895CF93DF93FC01878590898F3FB2
:101D70002FEF920729F48FEF9FEF908787830EC094
:101D8000238522FF03C09087878308C0EF01638506
:101D900063FB662760F941DF98878F83DF91CF91DE
:101DA0000895AF92BF92CF92DF92EF92FF921F936E
:101DB000CF93DF93EC011B8513FB112710F9CF8420
:101DC000D888612FC60129DF019659F0FE01E95735
:101DD000FF4F11821082319782E08083CE0178D349
:101DE00022C0AD84BE841CDE7C010097D1F07DDE74
:101DF000F70181818A5F8183E957FF4F1182108249
:101E0000F701B08AA786EF57FF4F0190F081E02DD0
:101E100081E08083B282A182D482C3821583C7010C
:101E200057D3CE0136DEDF91CF911F91FF90EF9017
:101E3000DF90CF90BF90AF900895DC011796ED91A1
:101E4000FC91189719968C91863031F465818381C5
:101E50009481EDDE81E0089580E00895DC0119961B
:101E60002C911997222371F01796ED91FC911897F8
:101E70002081222319F0213019F006C0BDC3089536
:101E8000DCCF089580E0089580E00895BC01EEE085
:101E9000F1E220E431E240E051E09081992319F031
:101EA00091509083452F3596E217F307B1F74423FD
:101EB00011F0CB01ACC60895EEE0F1E280E491E2CE
:101EC00010823596E817F907D9F7ECEFF0E284E6CF
:101ED00090E0A0E0B0E086839783A087B187128668
:101EE00086E49FE0948783876EE27FE080E091CC78
:101EF0000895CF93DF93DC01ED91FC91119721813F
:101F00002838F9F420812F7D2134D9F412962C91B0
:101F10002031B8F0EC0184DD009799F020E2FC015B
:101F200020832A8121832B81ED57FF4F20832C8131
:101F3000319620834A8150E06881798102960E941F
:101F4000144EDF91CF9108952F923F924F925F925E
:101F50006F927F928F929F92AF92BF92CF92DF92B9
:101F6000EF92FF920F931F93CF93DF93CDB7DEB71E
:101F70002E970FB6F894DEBF0FBECDBF00E010E085
:101F80000F2EF4E2DF2EF02D0F2EFBE68F2EF3E264
:101F90009F2EF02D6894CC24C4F80F2EFEE04F2E17
:101FA000F1E25F2EF02D0F2EFAE06F2EF1E27F2E80
:101FB000F02D0F2EFCE3EF2EF1E2FF2EF02D312C51
:101FC000212C5801DDC1D5018C91823209F407C161
:101FD00018F4803241F0D4C1833209F4CCC1843288
:101FE00009F4CCC1CDC1F501D0828385982F9A70B8
:101FF00009F0C6C1258136812F3F3F4F91F4D501AD
:102000001F968D919C915097F40120813181281762
:10201000390719F0019609F0B3C1E2E2D501EC935A
:10202000AFC1D5011F962D913C9150972F3F3F4F47
:1020300011F480FDA5C1F40120813181D5011D96E7
:102040008D919C911E972817390709F499C1C501F4
:10205000F3DDF301432D522D632D722D5E864D86E7
:10206000AD85BE858C91882309F46CC0D5011D9681
:102070002D913C911E97808191812817390709F095
:1020800062C0F5019485FA01EE0FFF1FEE0FFF1FEE
:10209000E40FF51FE65FFE4D8281891B8830C8F58D
:1020A000FA01EE0FFF1FEE0FFF1FE40FF51FE65FB3
:1020B000FE4D9381292F30E0082E02C035952795DB
:1020C0000A94E2F720FF12C0D4012D913C91F50152
:1020D000878190852817390709F052C1638563FB12
:1020E000662760F987859089A2DD4AC1FA01EE0F63
:1020F000FF1FEE0FFF1FE40FF51FE65FFE4D21E00F
:1021000030E002C0220F331F8A95E2F7922B9383AF
:102110003EC1FA01EE0FFF1FEE0FFF1FE40FF51F88
:10212000E65FFE4D9283238130E08195A90102C0D4
:10213000440F551F8A95E2F7CA01816083838FE1BE
:10214000848325C1BF014F5F5F4F8D859E850596B6
:102150009E878D873596EE15FF0509F081CF6115B5
:10216000710509F40DC1D5011D968D919C911E97A5
:10217000FB01918380831C968C91828321E02383D1
:102180008FE184838CEF90E242D501C1D4012D917F
:102190003C91F501878590892817390781F043859F
:1021A00042FD0BC0C501E3D1D4012D913C91F50155
:1021B000878590892817390711F0019621F4E2E20A
:1021C000D501EC93DDC0D50117968D919C911897A0
:1021D0002817390709F0D4C083E28C93D1C010923C
:1021E0000921F501218922952F70E22FF0E0EE0FF1
:1021F000FF1FEF58FC4D0190F081E02D309709F45E
:1022000063C0D5011D968D919C911E979A838983F9
:102210001F964D915C9150975C834B8351963C91F6
:1022200051973F703D832E83AF57BF4F6D917C9187
:102230007987688795012E5F3F4F261B370BD501A5
:1022400011963C911197230F2A87AD57BF4F2C91C0
:102250002B8711962C912C87D5011B962C91622FE0
:10226000637022FD02C030E001C030E2632B23FD29
:1022700002C030E001C030E4262F232B4F3F5F4FD8
:1022800011F030E001C034E0232BD50119964D91B7
:102290005C911A978417950711F090E001C098E0BF
:1022A000822F892B8F83D50115962D913C911697FE
:1022B0002F3F3F4F11F090E001C09C2D892B8F8361
:1022C000CE010196199501C080E0F501938590FF3C
:1022D00080E0D50117962D913C9118972F3F3F4FE5
:1022E00069F4F40140815181D5011F962D913C91F3
:1022F00050974217530711F493FF81E0F5012581B0
:1023000036812F3F3F4FA1F1D4012D913C912F3FBA
:102310003F4F71F1882361F183DB8C01009741F11C
:10232000E4DBF80181818D5F8183E957FF4F1182E2
:102330001082D5011B968C911B9786958170F801B0
:10234000938580FB91F993871D968D919C911E97A3
:10235000908B8787EF57FF4F0190F081E02D10821F
:102360008091092182831C968C918183C801B0D011
:10237000D501DC9205C0C50114DD02C0C50189DBB1
:10238000C50191DB5C01892B09F01DCE07C0F50169
:1023900087819085019609F007CFF8CE2E960FB66B
:1023A000F894DEBF0FBECDBFDF91CF911F910F918B
:1023B000FF90EF90DF90CF90BF90AF909F908F9065
:1023C0007F906F905F904F903F902F900895EF9285
:1023D000FF920F931F93CF937C0110E080E090E079
:1023E00001E0C3E113C0FC012081213179F4EC57F5
:1023F000FF4F208131812150310931832083232BEC
:1024000021F4FC01C083102F01C0102F4CDB00977A
:1024100051F7112311F0C701FAD3CF911F910F91FA
:10242000FF90EF900895EF92FF920F931F93CF9339
:10243000DF937C0110E080E090E001E0D7E1C0E1B3
:1024400016C0FC012081263191F4EC57FF4F20810A
:1024500031812150310931832083232B39F4FC0150
:10246000D083ED57FF4FC083102F01C0102F1BDB0F
:10247000009739F7112311F0C701C9D3DF91CF912C
:102480001F910F91FF90EF90089510925721109295
:102490005621E9E4F1E282E390E0A0E0B0E0868337
:1024A0009783A087B187128683E192E1948783871F
:1024B000ECE3F1E28AE090E0A0E0B0E0868397836D
:1024C000A087B187128687EE91E19487838708956C
:1024D000CF93DF93EC01FC01EA57FF4F808181FF2E
:1024E00003C092E1988302C092E19883FE01ED5708
:1024F000FF4F108280FF05C02FEF3FEF3E832D83FB
:1025000006C020916D2330916E233E832D8385700C
:1025100019F4CE0127DC04C08F85988998878F83B2
:10252000EBE6F3E2808191819A87898785818F5FCD
:1025300085838C838F819885019671F481E498E876
:102540009B838A830E94F94DCC57DF4F8770992770
:1025500001969983888308C081E698E89B838A83E3
:10256000CC57DF4F19821882DF91CF9108950F93D6
:102570001F93CF93DF938C0153DAEC01892BB9F1D0
:1025800082E18883F80181818983FE01ED57FF4F45
:1025900010820E94F94DFE01EC57FF4F877099277A
:1025A000019691838083339611821082F8014181D4
:1025B00050E0B8016E5F7F4FCE0102960E94144E2C
:1025C00081E498E89B838A838FEF9FEF98878F83BE
:1025D000F801858196819E838D83EBE6F3E280810D
:1025E00091819A87898785818F5F85838C83DF912D
:1025F000CF911F910F910895CF93DF93FC01C78175
:10260000D08581858330C1F480E090E010C0FC016A
:102610002081263161F434852981321308C027E1F5
:1026200020832A81EA57FF4F208381E006C03BDAEE
:10263000009769F780E001C080E0DF91CF910895B5
:10264000E0915621F0915721813021F048F08230FD
:1026500019F004C080E205C081E203C081E001C03E
:1026600080E0DF01AD57BF4F8C9385E180831092EE
:10267000572110925621EBE6F3E286A197A101972C
:1026800097A386A308959F92AF92BF92CF92DF92B5
:10269000EF92FF920F931F93CF93DF93C0E0D0E0B0
:1026A0000F2EF4E1AF2EF02D0BE613E20F2EF7E123
:1026B000DF2EF02D0F2EF6E19F2EF02D0F2EF5E1DF
:1026C000EF2EF12CF02D0F2EF3E1CF2EF02D0F2E4B
:1026D000F1E1BF2EF02D60C088818331C1F018F484
:1026E000823139F059C0853149F1873109F445C04B
:1026F00053C0FE01EC57FF4F80819181892B29F057
:10270000B8828CE391E283D247C0C88245C08091F1
:10271000562190915721892B09F03EC0D093572123
:10272000C0935621A8826981CE010296AFD0F801EC
:1027300086A197A1019697A386A32EC0FE01ED570F
:10274000FF4F8081811117C02D853E85F801808162
:1027500091812817390769F48B8580FF0AC0988218
:10276000FE01EC57FF4FF182E08289E491E24FD203
:1027700013C0D88211C0D8820FC0CE01ACDAFE01DE
:10278000E957FF4F0190F081E02D309719F4CE0109
:1027900080D902C0CE011995CE0185D9EC01892BD3
:1027A00009F09ACFDF91CF911F910F91FF90EF9099
:1027B000DF90CF90BF90AF909F9008958091582167
:1027C000982F9F70E4E5F1E08081807F892B8083E2
:1027D00080915821882329F08091592180935301B9
:1027E000089580915921982F9F71E8E4F1E080814C
:1027F000807E892B8083089593E090934201E1E4E9
:10280000F1E090819F719830E1F780934201E1E41B
:10281000F1E090819F719813FCCF089588E0ECDF80
:102820008FEF80934F0180915A21882311F086E128
:10283000E3CF089580935A21F1CF089580935921D1
:10284000BDCF0895CF93DF931F921F92CDB7DEB710
:102850009A838983809362018A81809363010F90B8
:102860000F90DF91CF910895CF93DF931F921F9226
:10287000CDB7DEB79A838983809360018A81809384
:1028800061010F900F90DF91CF9108950F931F93E7
:10289000CF938C01C62F89E1AFDF8FEF80934F017B
:1028A00082E08C0F80938001CC2381F0F801C1502D
:1028B0002C2F30E02F5F3F4FC801820F931FA1E8FC
:1028C000B1E021912D93E817F907D9F783E08093C0
:1028D000DB2182E080934201CF911F910F910895F7
:1028E000EF92FF920F931F93CF93DF9310925601B5
:1028F00086E082DFC0E0D0E0E12CF12C06E411E0BC
:1029000081E00E94990BF80120812295269527707D
:10291000237030E00C2E02C0220F331F0A94E2F71E
:10292000E22AF32A2296C031D10551F788E064DF0C
:102930008BEE8093560172DFC701DF91CF911F911B
:102940000F91FF90EF900895E9E3F1E080818160BD
:10295000808310925A211092582181E08093DB21CC
:1029600088E04ADF8BEE80935601ECE4F1E0808151
:1029700080688083B5DF80936D0108951F93CF93A6
:10298000DF9300D01F921F92CDB7DEB78091DB217D
:10299000823009F465C080914F0183FF3EC0A09151
:1029A0007B016A2F70E0AB014F5F5F4F80E090E0EA
:1029B00020E0FC01E058FE4F3081FC01E55AFE4D5D
:1029C00030832F5F822F90E08417950794F38BE577
:1029D00091E29A838983A250AB83FB01E55AFE4DB5
:1029E00080818C83809147018A558D83CE01019629
:1029F00080DAE1E4F1E080818F718631E1F7EFE484
:102A0000F1E0808188608083ECE4F1E080818F7761
:102A1000808380818068808323C080914F0186FFFE
:102A20001FC0809141018F718931A9F41091420139
:102A300012951695177049F0133021F0153021F0DA
:102A400013E003C011E001C012E0E8DE81E08093F2
:102A5000DB21812FF5DDEFE4F1E08081806480836C
:102A60000F900F900F900F900F90DF91CF911F91CB
:102A700008950E94850B6FD067DF0E94E40B1092CF
:102A8000450108957BDF0E94120CCCC008950F937E
:102A90001F93CF93DF93EC018091DC219091DD2196
:102AA000009709F445C04E815F8168857985FC01F6
:102AB0000281138124813581401751076207730712
:102AC00060F0DC0117C00281138124813581401739
:102AD00051076207730768F403C0FC01A0E0B0E08F
:102AE000041B150B260B370B0283138324833583BA
:102AF0000AC0DF01401B510B620B730BED91FC917F
:102B00001197309701F74A835B836C837D8310971D
:102B100041F08D919C91119799838883CD93DC939B
:102B200015C099838883D093DD21C093DC210EC02A
:102B3000198218828E819F81A885B9858A839B839B
:102B4000AC83BD83D093DD21C093DC21DF91CF9195
:102B50001F910F9108951092DD211092DC210895AC
:102B6000CF93DF93A091DC21B091DD21109791F1FB
:102B7000A817B90751F50AC08E179F0729F51097B6
:102B800031F0208131812D933C9307C0FC012081DD
:102B900031813093DD212093DC210190F081E02D03
:102BA0003097C1F04281538164817581EC018A8143
:102BB0009B81AC81BD81840F951FA61FB71F8283A7
:102BC0009383A483B58306C0DF01ED91FC91119737
:102BD000309791F6DF91CF910895E091DC21F0914B
:102BE000DD21309771F0E817F90721F40CC08E173A
:102BF0009F0759F00190F081E02D3097C1F780E0F8
:102C0000089580E0089581E0089581E00895CF93CC
:102C1000DF93EC01E2DF811102C0CE0138DFDF91EA
:102C2000CF910895CF92DF92EF92FF92CF93DF93EF
:102C300080916A23882309F459C08FB7F894C09013
:102C40006A2310926A238FBFD12CE12CF12CCC0C7B
:102C5000DD1CEE1CFF1CD701C601880F991FAA1F9F
:102C6000BB1F880F991FAA1FBB1FC80ED91EEA1EC3
:102C7000FB1EC091DC21D091DD212097B9F18A8122
:102C80009B81AC81BD81C816D906EA06FB0610F10E
:102C9000C81AD90AEA0AFB0A888199819093DD2132
:102CA0008093DC218A85813011F4CE01F0DEEB8542
:102CB000FC85CE011995C091DC21D091DD212097B2
:102CC000A9F08A819B81AC81BD81C816D906EA062C
:102CD000FB06F0F68A819B81AC81BD818C199D0930
:102CE000AE09BF098A839B83AC83BD83DF91CF91FB
:102CF000FF90EF90DF90CF9008958091CA228F5F70
:102D00008093CA22882319F01092CA22089581E084
:102D10008093EF22089584EF92E279CF0895809115
:102D2000AC22813081F485E393E21ADF84E0809362
:102D3000B6221092B1221092B0220E94840286E440
:102D400093E265CF0895811110C085E393E208DF17
:102D500081E08093B6220E94D9010E940B0386E491
:102D600093E2FEDE8DE892E2FBCE08958EED91E2D5
:102D70000C94C736089581E0809388228FE292E018
:102D80000C949227089580915B22823008F06AC0EB
:102D900080917222823049F018F48130C9F149C023
:102DA0008530A1F0863019F144C06091CB2270913A
:102DB000CC228091CD220E94D6096091A9227091E7
:102DC000AA228091AB220E941F0A43C06091A922CF
:102DD0007091AA228091AB220E941F0A6091CB229F
:102DE0007091CC228091CD220E94D60932C0609190
:102DF000A9227091AA228091AB220E941F0A6091A1
:102E0000CB227091CC228091CD220E941F0A21C03A
:102E10006091A9227091AA228091AB220E941F0A80
:102E20006091CB227091CC228091CD220E94D60954
:102E300010C06091A9227091AA228091AB220E94B9
:102E4000D6096091CB227091CC228091CD220E9434
:102E5000D60980915B228F5F80935B2284EF92E2A0
:102E6000D6CE08956091A9227091AA228091AB22BA
:102E70000E94D6096091CB227091CC228091CD2204
:102E80000E94D60910925B228EEC92E2C0CE089589
:102E9000EF92FF920F931F93CF93DF93E1E0F3E262
:102EA00010820F2EF3E0FF2EF02DF1828BE0828353
:102EB00060910123709102238091032349EE5BE12D
:102EC0000E944A096091012370910223809103239B
:102ED0000E943409EAE9F2E21082C2E0C1838AE08A
:102EE000828360919A2270919B2280919C220E9401
:102EF0003409EDE9F2E21082D1E0D18389E08283E6
:102F000060919D2270919E2280919F220E9434099F
:102F1000E3E4F3E21082118288E08283609143232C
:102F200070914423809145230E943409E0EFF2E23E
:102F3000D0836894EE24E2F8E1826091F0227091EF
:102F4000F1228091F2220E94630A6091F022709136
:102F5000F1228091F2220E94050BE9EAF2E2C0839D
:102F600005E001836091A9227091AA228091AB2291
:102F70000E94C10AEBECF2E2C08317E0118360917A
:102F8000CB227091CC228091CD220E94C10AEDED1E
:102F9000F2E2C083E1826091DD227091DE228091B5
:102FA000DF220E94C10AEDEAF2E2C083F182609161
:102FB000AD227091AE228091AF220E94C10A00938F
:102FC0008B2260918A2270918B2280918C220E94A8
:102FD000C10A0F2EF6E0FF2EF02DF0925F236091D4
:102FE0005E2370915F23809160230E94C10A109339
:102FF00065236091642370916523809166230E940C
:10300000C10AE8E5F3E2C083118260915823709110
:10301000592380915A230E94630A6091582370912A
:10302000592380915A230E94050BE3E5F3E2C08304
:10303000D1836091532370915423809155230E9432
:10304000630A6091532370915423809155230E9409
:10305000050BE6EAF2E2C083C1836091A62270917B
:10306000A7228091A8220E94630A6091A6227091F3
:10307000A7228091A8220E94050BE4E0F3E2D0830E
:1030800001836091042370910523809106230E949F
:10309000630A6091042370910523809106230E94A6
:1030A000050BECE5F2E2D083F18260915C22709135
:1030B0005D2280915E220E94630A60915C22709181
:1030C0005D2280915E220E94050BE3EBF2E2D08349
:1030D00011836091B3227091B4228091B5220E9435
:1030E000630A6091B3227091B4228091B5220E944C
:1030F000050BDF91CF911F910F91FF90EF900895F5
:103100000F93CF93DF938091B622823009F4F1C1FF
:1031100030F4882309F46EC0813051F025C3843027
:1031200009F481C208F436C1853009F43FC21CC3DA
:103130001092AC22C1E0C093882260918A227091E3
:103140008B2280918C220E94D609E0E6F2E213865F
:10315000C38B85E0828BC18B84EF91E0A0E0B0E06F
:103160008093FA229093FB22A093FC22B093FD223D
:1031700088EE93E0A0E0B0E08093D4229093D52233
:10318000A093D622B093D7228081813081F48091A0
:10319000F32281110CC06091DD227091DE228091BA
:1031A000DF220E94490B811102C01092B622809149
:1031B0006822813021F080916322813011F41092D5
:1031C000B62280916422813019F485E08093B62282
:1031D00080916922813019F482E08093B622809137
:1031E0006A22813009F0C0C283E08093B622109237
:1031F000E122BAC28091E122813031F48091E12252
:103200008F5F8093E12202C01092E1221092AC22E3
:1032100081E080938822E0E6F2E2828B8AEF90E000
:10322000A0E0B0E08093FA229093FB22A093FC22CE
:10323000B093FD2284EF91E0A0E0B0E08093D4222F
:103240009093D522A093D622B093D7228089813043
:1032500021F080917122811114C060918A227091B5
:103260008B2280918C220E94D60910926B22809131
:103270003323811106C087E00E94D82281E0809329
:1032800033238091702281110FC08091712281308F
:1032900059F460918A2270918B2280918C220E9435
:1032A000920981E080936B2280915623811106C0A0
:1032B00084E00E94D82281E08093562380916A2284
:1032C000813029F483E08093B622109256238091B6
:1032D0007F22811116C08091602281112AC08091C5
:1032E0006822811126C080916322811122C085E06D
:1032F0000E94D822109256231092332381E08093AB
:10330000B62280917F228130A1F4809168228130A1
:1033100081F46091DD227091DE228091DF220E9493
:10332000D609E0E6F2E2108613828185813069F5E4
:1033300004C080916922813011F410926922809139
:103340006322813011F5809164228130F1F4809103
:10335000C7229091C82201969093C8228093C722D9
:10336000893E9D4F08F400C282E090E10E948F2FB9
:10337000082F036000935F2220E142E065E48EEABB
:103380000E941D220E944933EFC11092C822109260
:10339000C722EAC1C0E6D2E283E08A8B60918A222A
:1033A00070918B2280918C220E94920981E08B8700
:1033B0001092AC228093882280915623811111C0F3
:1033C00082E00E94D82281E08093562384E60E9406
:1033D000F9346091DD227091DE228091DF220E941B
:1033E000920980917F22813049F583E00E94D822A2
:1033F00062E081E60E9403361092562381E08093BA
:10340000E1221092B622C0E6D2E21A866091DD2255
:103410007091DE228091DF220E94D6091B86609186
:10342000432370914423809145230E94490B91E0EE
:10343000811101C090E09093602296C1809170222A
:10344000813049F583E00E94D82262E08EE60E9436
:1034500003361092562381E08093E1228093B622B6
:10346000C0E6D2E21A866091DD227091DE22809160
:10347000DF220E94D6091B8660914323709144236A
:10348000809145230E94490B91E0811101C090E099
:103490009093602269C180916A22813009F464C1ED
:1034A00083E00E94D82262E083E70E9403361092F4
:1034B000562381E08093E1228093B622C0E6D2E2D7
:1034C0001A866091DD227091DE228091DF220E94B7
:1034D000D6091B8660914323709144238091452334
:1034E0000E94490B91E0811101C090E0909360220D
:1034F0003BC1E0E6F2E284E0828B1092AC2281E0F4
:103500008093882282E0838B80915623811108C0AA
:103510000E94D82281E08093562383E60E94F934EA
:10352000809160228130A9F48091F322811111C031
:1035300081E00E94D82262E081E60E940336109268
:10354000562381E08093E1228093B6221092692273
:103550000BC180915A2290916122981788F081E0E6
:103560000E94D82262E08EE60E9403361092562313
:1035700081E08093E1228093B62210926922F4C008
:1035800080916922813009F4EFC081E00E94D82245
:1035900062E083E70E9403361092562381E0809315
:1035A000E1228093B62210926922DEC08091AC2283
:1035B000811108C085E393E22ADB8091AC228F5F02
:1035C0008093AC228091C622893080F060919A224B
:1035D00070919B2280919C220E94490B91E0811165
:1035E00090E0909364221092C62203C08F5F809374
:1035F000C62280916422811108C085E393E2B0DA8B
:1036000081E08093B6221092AC22809160228130BA
:1036100009F0AAC08091F3228111A6C01092B622AF
:103620001092AC22A1C08DE790E0A0E0B0E08093C2
:10363000FA229093FB22A093FC22B093FD228AEF02
:1036400090E0A0E0B0E08093D4229093D522A093A4
:10365000D622B093D7221092882282E080937222E1
:1036600080914223813031F0C0F1823051F08330BB
:1036700089F030C086E493E273DA82E080934223DB
:103680002CC060E18EED91E20E94D93683E08093F8
:10369000422323C08091B0229091B122813523EC46
:1036A000920790F080915C2381FF0BC080915C2396
:1036B0008D7F80935C2360915C2382E090E10E9487
:1036C0000B310E94493309C001969093B122809337
:1036D000B02203C088E00E9476348091C6228930EF
:1036E00080F060919A2270919B2280919C220E948E
:1036F000490B91E0811190E0909364221092C622D0
:1037000003C08F5F8093C62280916422813051F480
:103710008091AC22813091F485E393E278DA1092C3
:10372000AC220CC081110AC08091AC22811103C06F
:1037300085E393E215DA81E08093AC2280916022E8
:10374000813091F48091F32281110EC010924223B6
:103750001092B6220E94D9010E940B038DE892E2DA
:10376000FFD986E493E2FCD9DF91CF910F910895C0
:103770008091EF22882371F08091E122882319F053
:103780001092E12202C00E94123488EB92E23FDAEA
:103790001092EF22089580916A22811119C08091C0
:1037A0006822813021F080916322813049F4609158
:1037B000DD227091DE228091DF220C94920908951F
:1037C0006091DD227091DE228091DF220C94D60977
:1037D000089581E080936123DECF0895CF93DF9336
:1037E00080918922882309F460C00E94FB37C0E6DB
:1037F000D2E2898379D68E8380EF8F8710928922D7
:10380000EBE7F0E08081877F808381E680937C0016
:10381000EAE7F0E0808180648083808186FDFDCFCF
:103820008091790024E2829FC00111246FEF70E043
:103830000E943C4D609362226091582370915923FD
:1038400080915A230E94490B91E0811101C090E0C0
:1038500090937F222091612230E08091572390E065
:1038600041972817390734F4E0E6F2E281E0808BD3
:10387000118A0DC08091572390E04196281739078F
:103880001CF01092702203C082E08093702280911D
:1038900066228D3318F080E00E9476348091612298
:1038A000853618F481E00E9476348091C9228130F7
:1038B00029F080916123813009F0B4C08091C62243
:1038C000893008F4ACC0609101237091022380918B
:1038D00003230E94490B91E0811190E090936322B1
:1038E0005ADF60919A2270919B2280919C220E94C3
:1038F000490B91E0811190E09093642260919D22A8
:1039000070919E2280919F220E94490B91E081112B
:1039100001C090E09093652260914323709144230D
:10392000809145230E94490B91E0811101C090E0F4
:1039300090936022609158237091592380915A236B
:103940000E94490B91E0811101C090E090937F2289
:103950006091532370915423809155230E94490B09
:1039600091E0811190E0909380226091A622709165
:10397000A7228091A8220E94490B91E0811190E03A
:1039800090938122609104237091052380910623F6
:103990000E94490B91E0811190E090938222609106
:1039A0005C2270915D2280915E220E94490B91E021
:1039B000811190E0909383226091B3227091B422A0
:1039C0008091B5220E94490B91E0811190E0909383
:1039D000842280916822813021F08091632281309D
:1039E00039F480916022811103C085E00E94763411
:1039F0001092C9221092C62280916022811106C0C5
:103A000080917F22811102C01092F3228091612364
:103A1000813041F48093EF221092612303C08F5FC5
:103A20008093C622DF91CF910895D8DE69DBA0CEC6
:103A300008958F929F92AF92BF92FF920F931F9320
:103A4000CF93DF93CDB7DEB729970FB6F894DEBFDB
:103A50000FBECDBF8C01F62E0E9487038093982362
:103A6000882309F48CC248E050E061E472E0C801A8
:103A70000E94074E892BA1F48091B62281110AC0C1
:103A800080916822813031F483E00E947634FF24F3
:103A9000F39479C20E9438347EDEFF24F39473C21B
:103AA00048E050E06AE472E0C8010E94074E892BAA
:103AB000A1F48091B622813051F480916822811165
:103AC00006C083E00E947634FF24F3945CC20E9417
:103AD000423461DEFF24F39456C248E050E063E5CF
:103AE00072E0C8010E94074E892B09F050C02FE0F8
:103AF0002F1530F084E00E947634FF24F39443C203
:103B00006EEF6F0DC8010E94DD36F82E882309F490
:103B100038C2F801218530E02053310988EE93E066
:103B2000289FA001299F500D389F500D11242285F8
:103B300030E02053310964E6629FC001639F900D1D
:103B40001124840F951F248530E020533109AC01E6
:103B5000420F531F238530E020533109C901880FDC
:103B6000991F220F331F220F331F220F331F280FDD
:103B7000391FCA01820F931F8D3FFFE09F0720F07E
:103B800084E00E947634FFC10E944B34FCC148E0BF
:103B900050E06CE572E0C8010E94074E892B81F469
:103BA0008091B622811106C083E00E947634FF2402
:103BB000F394E9C181E080936922FF24F394E3C187
:103BC00048E050E065E672E0C8010E94074E892B8C
:103BD00079F48091B622811106C083E00E94763488
:103BE000FF24F394D0C110926922FF24F394CBC137
:103BF00048E050E06EE672E0C8010E94074E892B53
:103C000081F48091B622811106C083E00E9476344F
:103C1000FF24F394B8C181E080936A22FF24F394D7
:103C2000B2C148E050E067E772E0C8010E94074E69
:103C3000892B79F48091B622811106C083E00E941D
:103C40007634FF24F3949FC110926A22FF24F394E8
:103C50009AC148E050E060E872E0C8010E94074E57
:103C6000892B09F092C023E12F1530F086E00E94E5
:103C70007634FF24F39487C16EEF6F0DC8010E9464
:103C8000DD36F82E882309F47AC0F801A185B0E06A
:103C9000D09720E03AEC4AE95BE30E948E4D4B015D
:103CA0005C01A285B0E0D09720E031EE45EF55E011
:103CB0000E948E4D860E971EA81EB91E828990E026
:103CC000C097092E000CAA0BBB0B880E991EAA1ECA
:103CD000BB1EA385B0E0D09720E836E948E950E064
:103CE0000E948E4D860E971EA81EB91EA485B0E0B8
:103CF000D09720E432E44FE050E00E948E4D860ED3
:103D0000971EA81EB91EA585B0E0D09720EA36E818
:103D100041E050E00E948E4D860E971EA81EB91EEF
:103D2000A685B0E0D09720E137E20E94884D860E4C
:103D3000971EA81EB91EA785B0E0D09728EE33E0E5
:103D40000E94884D860E971EA81EB91EA089B0E05D
:103D5000D09724E630E00E94884D860E971EA81E5C
:103D6000B91EA189B0E0D0972AE030E00E94884DCA
:103D7000680D791D8A1D9B1D0E940C3504C187E0CA
:103D80000E947634FF24F394FEC048E050E069E8D6
:103D900072E0C8010E94074E892B39F488EB92E249
:103DA0000E94B015FF24F394EEC048E050E062E9B1
:103DB00072E0C8010E94074E892B29F40E94143535
:103DC000FF24F394E0C048E050E06BE972E0C801E2
:103DD0000E94074E892B29F40E944933FF24F39453
:103DE000D2C048E050E064EA72E0C8010E94074E89
:103DF000892B29F40E941D35FF24F394C4C048E0A8
:103E000050E06DEA72E0C8010E94074E892BA1F5CF
:103E1000F4E1FF1530F084E00E947634FF24F3943F
:103E2000B2C06EEF6F0DC8010E94DD36F82E8823F8
:103E3000E9F0CE01019629E0FC0111922A95E9F7FB
:103E4000F8012185298322852A8323852B832485D4
:103E50002C8325852D8326852E8327852F832089F6
:103E60002887218929870E9441358DC084E00E94DE
:103E70007634FF24F39487C048E050E066EB72E0AC
:103E8000C8010E94074E892B49F480E20E946B35DD
:103E900080E20E94B735FF24F39475C048E050E0FB
:103EA0006FEB72E0C8010E94074E892B29F40E9433
:103EB0007636FF24F39467C048E050E068EC72E087
:103EC000C8010E94074E892B29F40E94A236FF24C4
:103ED000F39459C048E050E061ED72E0C8010E94DF
:103EE000074E892B09F045C0FBE1FF1530F088E053
:103EF0000E947634FF24F39446C06EEF6F0DC80124
:103F00000E94DD36F82E882371F1D8011996EEED66
:103F1000F1E2CF01805F2D919191291729F089E07D
:103F20000E947634F12C2FC08E13F5CFCE0101966E
:103F300029E0FC0111922A95E9F7F801238D2983E4
:103F4000248D2A83258D2B83268D2C83278D2D83ED
:103F500020A12E830E944A3381E08093422388EE81
:103F600093E07ED110C08AE00E947634FF24F3945F
:103F70000AC08BE00E947634FF24F39404C0F12C35
:103F800002C0FF24F3948F2D29960FB6F894DEBF5C
:103F90000FBECDBFDF91CF911F910F91FF90BF90CA
:103FA000AF909F908F9008950F93CF93DF931F92C0
:103FB0001F92CDB7DEB7198288E08A838FEB64D178
:103FC00000E12EED31E24FEB62E0CE010196DDD152
:103FD0000F900F90DF91CF910F9108950F931F9342
:103FE000CF93C1E0C093C922C093F322C09389222A
:103FF000C093EF22C09361231092C62210925B22DD
:104000001092AC2210925623C093B62210926723CE
:1040100010926923109268231092CA221092B22241
:10402000C093882210923323109242231092E122EF
:104030001092C8221092C72287E880937A000E94CB
:104040009D379CD264E072E088EC90E00E948C0680
:10405000E4EFF2E284EF91E0A0E0B0E086839783A2
:10406000A087B187128683EC96E194878387CF017E
:104070000E940716EEECF2E288EE93E0A0E0B0E0DA
:1040800086839783A087B18712868BE896E1948711
:1040900083870E94F94DE8EBF2E200E911E0B801F4
:1040A0000E943C4D8C599F4F092E000CAA0BBB0B54
:1040B00086839783A087B18712868DE796E19487E0
:1040C00083870E94F94DEDE8F2E2B8010E943C4D71
:1040D0008C599F4F092E000CAA0BBB0B868397832C
:1040E000A087B18712868BEB96E194878387E6E4FD
:1040F000F3E288E893E1A0E0B0E086839783A087AD
:10410000B187C28726EB36E134872387E5E3F3E204
:1041100086839783A087B18712868FE896E194877C
:1041200083870E94D13740DF6091F0227091F122A5
:104130008091F2220E94490B811108C0E0E6F2E270
:10414000178286E0838B0E94AE3103C081E08093AA
:104150006722CF911F910F91089580915C2381FF79
:104160000EC084E08093B6221092B1221092B02249
:104170000E94840286E493E20C940716089581E07D
:104180008093B62208950F93062F292F482F65E4B8
:104190008EEA53D18AE090E063D00F91089582E0D7
:1041A00090E10E948F2F80935C2384E090E10E9435
:1041B0008F2F8093572383E090E10E948F2F80936D
:1041C0005A2280915C2380FF2EC061E08CEF9FE03B
:1041D000DADF60E08DEF9FE0D6DF60E18EEF9FE0F9
:1041E000D2DF60E08FEF9FE0CEDF64E380E090E11C
:1041F000CADF62E181E090E1C6DF6EEE83E090E12C
:10420000C2DF6AEA84E090E1BEDF9CD180915C234A
:104210008E7F80935C2360915C2382E090E1B3DF2A
:104220008AE090E01DC008951F93CF93DF93D82FAD
:10423000192F41E0480F292F65E48FEA29D1C82FB3
:10424000212F4D2F65E48FEA23D12C2F30E0322F20
:104250002227A901482BCA01DF91CF911F91089510
:1042600028EE33E0AC01429FC001439F900D529F66
:10427000900D1124009739F020E030E02F5F3F4F80
:1042800028173907D9F708950F931F93CF93DF931A
:1042900000D000D0CDB7DEB7BE016F5F7F4F96E094
:1042A000FB0111929A95E9F708E418EE21E030E05D
:1042B00009831A832B833C838E8388E18D8388EB6B
:1042C00090E00E94110426960FB6F894DEBF0FBE50
:1042D000CDBFDF91CF911F910F910895EF92FF9283
:1042E0000F931F93CF93DF93CDB7DEB72A970FB607
:1042F000F894DEBF0FBECDBFF9019E012F5F3F4F87
:1043000079012AE0D7011D922A95E9F74983DC015A
:104310003C913A83462F50E05E834D83F887EF83CC
:1043200010E01A8709876130C9F0623029F41196CC
:104330008C918A833B8312C0633081F4FC0121811C
:104340002B8382818C830AC081E090E089DF115049
:1043500031F481E00E941C3781E00AC01AE0BE01FE
:104360006F5F7F4F88EB90E00E94B0038111ECCF2C
:104370002A960FB6F894DEBF0FBECDBFDF91CF9166
:104380001F910F91FF90EF900895EF92FF920F937E
:104390001F93CF93DF93CDB7DEB72A970FB6F8946C
:1043A000DEBF0FBECDBFF9019E012F5F3F4F7901E8
:1043B0002AE0D7011D922A95E9F74983DC013C9157
:1043C0003A83462F50E05E834D83F887EF8310E0F9
:1043D0001A8709876130C9F0623029F411968C91EF
:1043E0008A833B8312C0633081F4FC0121812B83DB
:1043F00082818C830AC081E090E032DF115031F479
:1044000081E00E941C3783E00BC01AE0BE016F5FA1
:104410007F4F88EB90E00E94DC038111ECCF82E0BB
:104420002A960FB6F894DEBF0FBECDBFDF91CF91B5
:104430001F910F91FF90EF900895FF920F931F939C
:10444000CF93DF9300D0CDB7DEB7182F653419F0C6
:10445000FF24F39403C06894FF24F1F849832A836E
:104460000B83812F11DF01E09E012D5F3F4F412F14
:104470006F2DCE01019632DF85E090E0F1DE0F90E6
:104480000F900F90DF91CF911F910F91FF900895A2
:10449000FF920F931F93CF93DF9300D01F92CDB75E
:1044A000DEB7182F653419F0FF24F39403C0689425
:1044B000FF24F1F849832A831B821C82812FE4DECA
:1044C00001E09E012D5F3F4F412F6F2DCE010196E0
:1044D0005CDF8B810F900F900F900F90DF91CF9149
:1044E0001F910F91FF9008950F93CF93DF9300D00A
:1044F0001F92CDB7DEB719821A821B821C8280E917
:10450000C3DE00E020E030E040E961E0CE0101964A
:10451000E5DE811109C002E09E012D5F3F4F41E9B8
:1045200061E0CE01019631DF8B8190E0880F991F09
:10453000959587950F900F900F900F90DF91CF91E9
:104540000F9108950F93CF93DF93C0E0D0E00FEF6A
:104550002D2F4C2F65E48EEA70DF8AE090E080DE3C
:10456000A8952196CC3F8FE0D80789F71092692350
:1045700010926823DF91CF910F910895CF93DF932D
:10458000C0E0D0E0CE010E948F2F8F3F29F4D0935E
:104590006923C093682305C02B96CC3F8FE0D807D2
:1045A00089F7DF91CF9108956FEF0C940B31089547
:1045B0002F923F924F925F926F927F928F929F9233
:1045C000AF92BF92CF92DF92EF92FF920F931F9321
:1045D000CF93DF93CDB7DEB76E970FB6F894DEBFFB
:1045E0000FBECDBF81113FC0809168239091692398
:1045F0008C3F9F4020F010926923109268234091D5
:1046000068232091692303E465E48EEA16DF809134
:10461000682390916923019690936923809368237E
:104620008AE090E01DDE80916823909169238C3FA1
:104630009F4020F0109269231092682340916823D4
:104640002091692303E565E48EEAF7DE8091682313
:1046500090916923019690936923809368238AE05F
:1046600090E0FEDD0CC2813009F03FC080916823EC
:10467000909169238C3F9F4020F010926923109203
:104680006823409168232091692303E465E48EEA5E
:10469000D4DE8091682390916923019690936923D9
:1046A000809368238AE090E0DBDD8091682390911D
:1046B00069238C3F9F4020F0109269231092682359
:1046C000409168232091692305E465E48EEAB5DE14
:1046D0008091682390916923019690936923809338
:1046E00068238AE090E0BCDDCAC1823009F03FC097
:1046F00080916823909169238C3F9F4020F0109215
:10470000692310926823409168232091692304E46F
:1047100065E48EEA92DE8091682390916923019688
:1047200090936923809368238AE090E099DD8091DB
:104730006823909169238C3F9F4020F01092692359
:1047400010926823409168232091692303E565E472
:104750008EEA73DE8091682390916923019690938D
:104760006923809368238AE090E07ADD88C18330F2
:1047700009F03FC080916823909169238C3F9F404E
:1047800020F01092692310926823409168232091B1
:10479000692304E465E48EEA50DE809168239091F9
:1047A0006923019690936923809368238AE090E0BF
:1047B00057DD80916823909169238C3F9F4020F0C2
:1047C00010926923109268234091682320916923F5
:1047D00005E465E48EEA31DE8091682390916923D7
:1047E000019690936923809368238AE090E038DDF6
:1047F00046C1843009F03FC08091682390916923BD
:104800008C3F9F4020F010926923109268234091C2
:1048100068232091692305E465E48EEA0EDE809129
:10482000682390916923019690936923809368236C
:104830008AE090E015DD80916823909169238C3F98
:104840009F4020F0109269231092682340916823C2
:104850002091692303E565E48EEAEFDD809168230A
:1048600090916923019690936923809368238AE04D
:1048700090E0F6DC04C1853009F03FC080916823E8
:10488000909169238C3F9F4020F0109269231092F1
:104890006823409168232091692305E465E48EEA4A
:1048A000CCDD8091682390916923019690936923D0
:1048B000809368238AE090E0D3DC80916823909114
:1048C00069238C3F9F4020F0109269231092682347
:1048D000409168232091692305E465E48EEAADDD0B
:1048E0008091682390916923019690936923809326
:1048F00068238AE090E0B4DCC2C0863009F03FC093
:1049000080916823909169238C3F9F4020F0109202
:10491000692310926823409168232091692302E45F
:1049200065E48EEA8ADD809168239091692301967F
:1049300090936923809368238AE090E091DC8091D2
:104940006823909169238C3F9F4020F01092692347
:1049500010926823409168232091692303E465E461
:104960008EEA6BDD80916823909169230196909384
:104970006923809368238AE090E072DC80C08730EE
:1049800009F03FC080916823909169238C3F9F403C
:1049900020F010926923109268234091682320919F
:1049A000692302E465E48EEA48DD809168239091F2
:1049B0006923019690936923809368238AE090E0AD
:1049C0004FDC80916823909169238C3F9F4020F0B9
:1049D00010926923109268234091682320916923E3
:1049E00004E465E48EEA29DD8091682390916923CF
:1049F000019690936923809368238AE090E030DCED
:104A00003EC080916823909169238C3F9F4020F0A5
:104A100010926923109268234091682320916923A2
:104A20000EE465E48EEA09DD8091682390916923A4
:104A3000019690936923809368238AE090E010DCCC
:104A400080916823909169238C3F9F4020F01092C1
:104A500069231092682340916823209169230EE412
:104A600065E48EEAEADC80916823909169230196DF
:104A700090936923809368238AE090E0F1DB809132
:104A80006B22809367230E94C8376B017C014F2DF6
:104A90005527662777274E2C8D2CA0917F22E0E8A2
:104AA000AE9FD0011124809164228170A82B809147
:104AB0006322817089831A8289819A81880F991F64
:104AC0009A2F982B8091672280FB222420F8312C8A
:104AD000220C331C220C331C292AA0E6B2E28C9152
:104AE00081708B831C82EB81FC81EE0FFF1FEE0F28
:104AF000FF1FEE0FFF1F822D8E2B9091652291706C
:104B00009D831E822D813E8122953295307F3227F2
:104B1000207F3227282E222A8091702281708F8355
:104B200018868F819885880F991F82959295907F1E
:104B30009827807F98278229909168229170998781
:104B40001A8629843A84002436942794079436944C
:104B500027940794322C202C282AA0918722E0E861
:104B6000AE9FD00111248091722287708A2B909180
:104B70006B2291709B871C86EB85FC85EE0FFF1FD7
:104B8000EE0FFF1FEE0FFF1F8E2B90916E22917084
:104B90009D871E862D853E8522953295307F322752
:104BA000207F3227282B8091852281708F87188A59
:104BB0008F859889880F991F82959295907F982765
:104BC000807F9827822B909186229170998B1A8AE8
:104BD00029893A8900243695279507943695279593
:104BE0000794322F202D182F122B80918122817053
:104BF0008B8B1C8AEB89FC89EE0FFF1F8091822230
:104C000081708D8B1E8A8D899E89880F991F880FD0
:104C1000991F8E2BE0918022E1708E2B9091832240
:104C200091709F8B188EEF89F88DEE0FFF1FEE0F9E
:104C3000FF1FEE0FFF1F8E2B909184229170998F92
:104C40001A8E298D3A8D22953295307F3227207F1A
:104C50003227282B8091692281708B8F1C8E8B8D3F
:104C60009C8D880F991F82959295907F9827807FC1
:104C70009827822B90916A2291709D8F1E8E2D8D88
:104C80003E8D0024369527950794369527950794F1
:104C9000322F202D382E322A80916823909169235B
:104CA0008C3F9F4020F010926923109268238091DE
:104CB000682320916923042F482F65E48EEABDDB29
:104CC0008091682390916923019690936923809342
:104CD00068238AE090E0C4DA809168239091692388
:104CE0008C3F9F4020F010926923109268234091DE
:104CF000682320916923042D65E48EEA9EDB809170
:104D00006823909169230196909369238093682387
:104D10008AE090E0A5DA80916823909169238C3F26
:104D20009F4020F0109269231092682340916823DD
:104D300020916923082D65E48EEA7FDB809168234A
:104D400090916923019690936923809368238AE068
:104D500090E086DA80916823909169238C3F9F4090
:104D600020F01092692310926823409168232091CB
:104D700069230C2D65E48EEA60DB809168239091B5
:104D80006923019690936923809368238AE090E0D9
:104D900067DA80916823909169238C3F9F4020F0CF
:104DA000109269231092682340916823209169230F
:104DB0000091612265E48EEA40DB80916823909146
:104DC0006923019690936923809368238AE090E099
:104DD00047DA80916823909169238C3F9F4020F0AF
:104DE00010926923109268234091682320916923CF
:104DF0000091662265E48EEA20DB80916823909121
:104E00006923019690936923809368238AE090E058
:104E100027DA80916823909169238C3F9F4020F08E
:104E2000109269231092682340916823209169238E
:104E3000022D65E48EEA01DB80916823909169235D
:104E4000019690936923809368238AE090E008DAC2
:104E500080916823909169238C3F9F4020F01092AD
:104E60006923109268234091682320916923012FC0
:104E700065E48EEAE2DA80916823909169230196D5
:104E800090936923809368238AE090E0E9D9809128
:104E90006823909169238C3F9F4020F010926923F2
:104EA000109268234091682320916923032D65E4C3
:104EB0008EEAC3DA809168239091692301969093DA
:104EC0006923809368238AE090E0CAD9809168239F
:104ED000909169238C3F9F4020F01092692310929B
:104EE000682380916823909169235EDB8AE090E0DB
:104EF000B7D96E960FB6F894DEBF0FBECDBFDF9167
:104F0000CF911F910F91FF90EF90DF90CF90BF90C6
:104F1000AF909F908F907F906F905F904F903F9059
:104F20002F9008950F931F93CF93FC016081662308
:104F300069F08C01C0E088EC90E00E94F605CF5F3C
:104F4000F801EC0FF11D60816111F5CFCF911F9138
:104F50000F91089590913423992319F09130B9F06D
:104F60000895E2EEF2E22FEE32E290E29193E21740
:104F7000F307E1F78B3521F481E080933423089522
:104F80008D3519F51092C5221092342308958D3570
:104F900041F41092C5221092342381E08093A12223
:104FA00008959091C5229D3048F4E92FF0E0EE512C
:104FB000FD4D80839F5F9093C52208951092C52276
:104FC000109234238AED92E0ADCF0895CF93C82F8D
:104FD000682F62956F706A3010F0695C01C0605D87
:104FE00088EC90E00E94F605CF70CA3018F067E3B5
:104FF0006C0F02C060E36C0F88EC90E00E94F60535
:10500000CF9108951092A122E091E2228E2F90E09C
:10501000FC01F197E930F105B0F48827ED59FE4F16
:105020008F4F0C94714D82E0089583E0089584E0E1
:10503000089585E0089586E0089587E0089588E062
:10504000089589E008958AEF92E06CDF80E008958A
:1050500081E008951092A1228091E2228133A1F093
:1050600018F4803351F00BC0823319F0833319F0F8
:1050700006C082E0089583E0089584E008958AEFF1
:1050800092E050DF85E0089581E008950F931F932B
:10509000CF93FC016081662369F08C01C0E088EC4D
:1050A00090E00E94F605CF5FF801EC0FF11D6081E2
:1050B0006111F5CFCF911F910F910895CF93C62F16
:1050C000E5DF8CE093E02EDF8C2F80DFCF91089519
:1050D0009F92AF92BF92CF92DF92EF92FF920F9387
:1050E0001F93CF93DF93F62E6A0121E020930723CD
:1050F0001092A122182FB92EC2EED2E2AA24A394B4
:10510000A80E5BC03091A1223130E1F781E3F8169F
:1051100021F082E3F816F1F04DC088810E94093732
:10512000E82E89810E940937EE0CEE0CEE0CEE0C95
:10513000E82A0E2D2B2D412F65E48EEA7ED96E2DA7
:10514000C601BCDF8AE090E08BD810920723109252
:10515000A12233C088810E940937E82E89810E94EC
:105160000937EE0CEE0CEE0CEE0CE82A0E2D2B2D72
:105170004A2D65E48EEA61D98A810E940937982E0A
:105180008B810E940937082F6E2DC60197DFE92C0D
:10519000EE0CEE0CEE0CEE0CE02A0E2D2B2D412F1A
:1051A00065E48FEA4AD98E2D11DF10920723109201
:1051B000A12203C089E193E0B5DE309107233130AD
:1051C00009F4A0CFDF91CF911F910F91FF90EF9045
:1051D000DF90CF90BF90AF909F9008958091A222D2
:1051E000823051F128F4882359F08130C9F041C050
:1051F000843009F439C060F1853009F43FC039C00A
:1052000086E493E08FDE84E793E08CDE8CED95E01E
:1052100089DE81E08093DB2285E08093A2220895DD
:1052200082EC93E07FDE48E358E062E38CEF9FE09E
:105230004FDF1092A22208958FED93E073DE49E2D2
:1052400058E062E38EEF9FE043DF1092A2220895C0
:105250008CEF93E067DE4BE158E062E380E090E1A1
:1052600037DF1092A22208951092DB2288E194E0A9
:1052700059DE89E08093B7221092A22208951092FD
:10528000A1228091E222823359F028F4803371F018
:10529000813399F00DC0833329F0843329F008C09D
:1052A00082E0089583E0089584E0089586E00895FB
:1052B0008AEF92E037DE85E0089581E00895DF927D
:1052C000EF92FF920F931F93CF93DF938091A322CE
:1052D00090E08A30910508F0EFC5FC018827E45979
:1052E000FE4F8F4F0C94714D6091A9227091AA22AC
:1052F0008091AB220E94D6096091CB227091CC2282
:105300008091CD220E94D6096091DD227091DE222B
:105310008091DF220E94D6096091AD227091AE2269
:105320008091AF220E94D60960918A2270918B22CF
:1053300080918C220E94D60960915E2370915F2338
:10534000809160230E94D609609164237091652347
:10535000809166230E94D6098CE294E0E3DD80E52B
:1053600097E0E0DD609158237091592380915A2392
:105370000E94490B882351F0609158237091592362
:1053800080915A230E94490B8111F6CF60915323DB
:1053900070915423809155230E94490BE82E60910F
:1053A000A6227091A7228091A8220E94490BD82E94
:1053B0006091042370910523809106230E94490B7C
:1053C000F82E60915C2270915D2280915E220E9495
:1053D000490B082F6091B3227091B4228091B522BD
:1053E0000E94490B182F60919A2270919B22809104
:1053F0009C220E94490BD82F609143237091442333
:10540000809145230E94490BC82F60910123709120
:105410000223809103230E94490B21E0D11020E058
:1054200091E0E11090E0292B91E0F11090E0922BB7
:1054300021E0011120E0292B91E0111190E0922B45
:1054400021E0D11120E0292B91E0C11190E0922BB5
:1054500029F491E0811190E0992349F089E394E0E7
:1054600061DD85E494E05EDD1092A32225C56091A4
:10547000A9227091AA228091AB220E94920982E611
:1054800094E050DD81E08093A32216C58CE294E085
:1054900049DD8EE694E046DD6091532370915423FC
:1054A000809155230E94490B882351F0609153232A
:1054B00070915423809155230E94490B8111F6CF9E
:1054C000609158237091592380915A230E94490B6F
:1054D000E82E6091A6227091A7228091A8220E94B6
:1054E000490BD82E609104237091052380910623E7
:1054F0000E94490BF82E60915C2270915D22809190
:105500005E220E94490B082F6091B3227091B42251
:105510008091B5220E94490B182F60919A227091B8
:105520009B2280919C220E94490BD82F609143239B
:1055300070914423809145230E94490BC82F6091AC
:10554000012370910223809103230E94490B21E0E3
:10555000D11020E091E0E11090E0292B91E0F110D2
:1055600090E0922B21E0011120E0292B91E0111114
:1055700090E0922B21E0D11120E0292B91E0C11184
:1055800090E0922B29F491E0811190E0992349F069
:1055900089E394E0C7DC85E494E0C4DC1092A322A4
:1055A0008BC46091CB227091CC228091CD220E943D
:1055B000920982E694E0B6DC82E08093A3227CC468
:1055C0008CE294E0AFDC8DE292E0ACDC6091A6224C
:1055D0007091A7228091A8220E94490B882351F044
:1055E0006091A6227091A7228091A8220E94490B67
:1055F0008111F6CF609158237091592380915A23DD
:105600000E94490BE82E609153237091542380919E
:1056100055230E94490BD82E6091042370910523D5
:10562000809106230E94490BF82E60915C227091B4
:105630005D2280915E220E94490B082F6091B32267
:105640007091B4228091B5220E94490B182F60916D
:105650009A2270919B2280919C220E94490BD82F04
:105660006091432370914423809145230E94490B0C
:10567000C82F6091012370910223809103230E941F
:10568000490B21E0D11020E091E0E11090E0292BBE
:1056900091E0F11090E0922B21E0011120E0292B04
:1056A00091E0111190E0922B21E0D11120E0292B03
:1056B00091E0C11190E0922B29F491E0811190E0EA
:1056C000992349F089E394E02DDC85E494E02ADC19
:1056D0001092A322F1C36091DD227091DE228091AD
:1056E000DF220E94920982E694E01CDC83E0809332
:1056F000A322E2C38CE294E015DC80E794E012DCA4
:105700006091042370910523809106230E94490B28
:10571000882351F060910423709105238091062322
:105720000E94490B8111F6CF609158237091592343
:1057300080915A230E94490BE82E60915323709167
:105740005423809155230E94490BD82E6091A622A4
:105750007091A7228091A8220E94490BF82E609197
:105760005C2270915D2280915E220E94490B082F7D
:105770006091B3227091B4228091B5220E94490BAE
:10578000182F60919A2270919B2280919C220E94F6
:10579000490BD82F60914323709144238091452376
:1057A0000E94490BC82F60910123709102238091C0
:1057B00003230E94490B21E0D11020E091E0E11089
:1057C00090E0292B91E0F11090E0922B21E0011163
:1057D00020E0292B91E0111190E0922B21E0D111D2
:1057E00020E0292B91E0C11190E0922B29F491E067
:1057F000811190E0992349F089E394E093DB85E4FB
:1058000094E090DB1092A32257C36091AD22709177
:10581000AE228091AF220E94920982E694E082DB60
:1058200084E08093A32248C38CE294E07BDB82E790
:1058300094E078DB60915C2270915D2280915E2221
:105840000E94490B882351F060915C2270915D2287
:1058500080915E220E94490B8111F6CF60915823FE
:105860007091592380915A230E94490BE82E609130
:10587000532370915423809155230E94490BD82EB5
:105880006091A6227091A7228091A8220E94490BC4
:10589000F82E6091042370910523809106230E94C5
:1058A000490B082F6091B3227091B4228091B522E8
:1058B0000E94490B182F60919A2270919B2280912F
:1058C0009C220E94490BD82F60914323709144235E
:1058D000809145230E94490BC82F6091012370914C
:1058E0000223809103230E94490B21E0D11020E084
:1058F00091E0E11090E0292B91E0F11090E0922BE3
:1059000021E0011120E0292B91E0111190E0922B70
:1059100021E0D11120E0292B91E0C11190E0922BE0
:1059200029F491E0811190E0992349F089E394E012
:10593000F9DA85E494E0F6DA1092A322BDC2609110
:105940008A2270918B2280918C220E94920982E699
:1059500094E0E8DA85E08093A322AEC28CE294E082
:10596000E1DA84E794E0DEDA6091B3227091B42248
:105970008091B5220E94490B882351F06091B32297
:105980007091B4228091B5220E94490B8111F6CF0B
:10599000609158237091592380915A230E94490B9A
:1059A000E82E6091532370915423809155230E94D7
:1059B000490BD82E6091A6227091A7228091A8222F
:1059C0000E94490BF82E6091042370910523809169
:1059D00006230E94490B082F60915C2270915D2282
:1059E00080915E220E94490B182F60919A2270913B
:1059F0009B2280919C220E94490BD82F60914323C7
:105A000070914423809145230E94490BC82F6091D7
:105A1000012370910223809103230E94490B21E00E
:105A2000D11020E091E0E11090E0292B91E0F110FD
:105A300090E0922B21E0011120E0292B91E011113F
:105A400090E0922B21E0D11120E0292B91E0C111AF
:105A500090E0922B29F491E0811190E0992349F094
:105A600089E394E05FDA85E494E05CDA1092A322A3
:105A700023C260915E2370915F23809160230E9416
:105A8000920982E694E04EDA86E08093A32214C263
:105A90008CE294E047DA86E794E044DA60919A2257
:105AA00070919B2280919C220E94490B882351F087
:105AB00060919A2270919B2280919C220E94490BB6
:105AC0008111F6CF609158237091592380915A2308
:105AD0000E94490BE82E60915323709154238091CA
