:1000000092C1000039C7000064C700008FC700001C
:10001000BAC70000E5C700000C941D080C944A08FC
:100020000C9477080C94A4080C94D1089CC100008F
:100030009AC1000098C1000096C100000C9450398C
:1000400092C1000090C100008EC100008CC1000070
:100050008AC1000088C1000086C100000C942239CA
:1000600082C1000080C100007EC100007CC1000090
:100070007AC1000078C1000076C1000074C10000A0
:1000800072C1000070C100006EC100006CC10000B0
:1000900087C6000068C1000066C10000DBC3000025
:1000A00062C1000060C100000C94D80B5CC100006C
:1000B0005AC1000058C1000056C1000054C10000E0
:1000C00052C1000050C100004EC100004CC10000F0
:1000D0004AC1000048C1000046C1000044C1000000
:1000E00042C1000040C100003EC100003CC1000010
:1000F0003AC1000038C1000036C1000034C1000020
:1001000032C1000030C100002EC100002CC100002F
:100110002AC1000028C1000026C1000024C100003F
:1001200022C1000020C100001EC100001CC100004F
:100130001AC10000D504D105D105D105D105D105DD
:10014000D105D1054C04D105D105D105D105D10585
:10015000D105D1054C04D105D105D105D105D10575
:10016000D105D1057104D105D105D105D105D10540
:10017000D105D105D504D105D105D105D105D105CC
:10018000D105D1057104D105D105D105D105D10520
:10019000D105D105D504D105D105D105D105D105AC
:1001A000D105D1056205D105D105D105D105D1050E
:1001B000D105D105DA04D105D105D105D105D10587
:1001C000D105D105D504D105D105D105D105D1057C
:1001D000D105D1050305D105D105D105D105D1053D
:1001E000D105D1053B05D105D105D105D105D105F5
:1001F000D105D1059605D105D105D105D105D1058A
:10020000D105D1059605D105D105D105D105D10579
:10021000D105D1059605D105D105D105D105D10569
:10022000D105D1059605D105D105D105D105D10559
:10023000D105D105A005D105D105D105D105D1053F
:10024000D105D105C505D105D105D105D105D1050A
:10025000D105D105A005D105D105D105D105D1051F
:10026000D105D105C505D105D105D105D105D105EA
:10027000D105D105B905D105D105D105D105D105E6
:10028000D105D1056B05D105D105D105D105D10524
:10029000D105D1056B05D105D105D105D105D10514
:1002A000D105D1056F05D105D105D105D105D10500
:1002B000D105D1058A05D105D105D105D105D105D5
:1002C000D105D105C50570295B295D295F29612903
:1002D0006329652967296929BF2A912B2B2CC52CF5
:1002E0005F2DF92D932E2D2FD72FA430BB31CE317A
:1002F000DC31EC31FC3110322E321D325F3362338F
:100300008533643388338A338C338E3366330F36C8
:1003100018362C362236363640364A3654365E3655
:1003200072367C36683611241FBECFEFD1E8DEBFAF
:10033000CDBF00E00CBF19E0A0E0B2E0E4E3F0EADA
:1003400000E00BBF02C007900D92AE38B107D9F79D
:1003500023E2AEE8B9E001C01D92AE34B207E1F786
:1003600060D50C9418504CCEF999FECF92BD81BD4A
:10037000F89A80B50895EF92FF920F931F93CF9351
:10038000DF934115510579F08B01040F151FEB0127
:100390007C01E61AF70AC7018C0F9D1FE5DF8993E0
:1003A000C017D107C1F7DF91CF911F910F91FF9037
:1003B000EF900895EF92FF920F931F93CF93DF93E7
:1003C000CDB7DEB761970FB6F894DEBF0FBECDBFD5
:1003D0004AE250E06CEA70E280E090E0CCDF80918D
:1003E000D2209091D320A091D420B091D5208134F7
:1003F0009C46A546B84709F47BC081E1E7E1F2E0FD
:10040000DE01119601900D928A95E1F70F2EF4E02E
:10041000EF2EF0E2FF2EF02DF701638D748D8CEF3F
:100420009FE00E945C220CEA10E2F8019183808335
:10043000F701658D768D80E090E10E945C22F801E5
:1004400095838483F701618D728D8EEF9FE00E940A
:100450005C22F8019383828340E250E060E270E026
:1004600082EB90E20E94F54F8BE0EBE0F2E0A2EB32
:10047000B0E201900D928A95E1F7F80180819181B7
:10048000FC01EF2FFF27E295EF7021E030E02C0F09
:100490003D1FE20FF31F2081F8012587E92FFF2779
:1004A000EF70FF2721E030E02C0F3D1FE20FF31F1C
:1004B0002081F8012687FC01F295E295EF70EF2785
:1004C000FF70EF27EF70FF2721E030E02C0F3D1F7A
:1004D000E20FF31F2081F80127878F709927E1E051
:1004E000F0E0EC0FFD1FE80FF91F8081F801808B11
:1004F00061960FB6F894DEBF0FBECDBFDF91CF91EE
:100500001F910F91FF90EF900895CF93DF934AE2F0
:1005100050E06CEA70E280E090E02DDF8091D22024
:100520009091D320A091D420B091D52081349C46C5
:10053000A546B84711F1CCEAD0E28FEF9FEF99833F
:1005400088839D838C838FE090E09B838A8340E245
:1005500050E060E270E082EB90E20E94F54F8BE0A9
:10056000EBE0F2E0A2EBB0E201900D928A95E1F7A8
:1005700086E68D878E878F87888B4ED0DF91CF91CF
:10058000089529E08039920769F041E15AE0BC0101
:1005900021E04617570739F02F5F4F575F4F24313F
:1005A000C1F701C020E0FC01378531110EC030E0F9
:1005B000F901F695FE2FEE27F795E7952E0F3F1FD1
:1005C000F901E257F64F1082089530E0F901F695EF
:1005D000FE2FEE27F795E795E20FF31FE257F64F50
:1005E000418141504183442319F00C94420C0895F9
:1005F000F901F695FE2FEE27F795E7952E0F3F1F91
:10060000F901E257F64F10820895FC016185878158
:1006100090850C940D1D0895CF93DF93CCEAD0E222
:10062000888199810E94000C8C819D810E94060C1A
:100630008A810E94D01381E00E94CC1388E292E06C
:100640000E94461065E073E081E00E940C0CAEE869
:10065000B9E0E9E9F9E06DEA73E181E093E041ECAA
:1006600052E01C9218961C921E921797EF01229747
:1006700088832196888390839F01285F3F4F328330
:10068000218355834483AF57BF4FEF57FF4FE61782
:10069000F70739F70E94AC1BDF91CF910895809145
:1006A0008E09882359F0EFE0FAE062EA73E181E015
:1006B00090E0AC012081211118C002C040E050E060
:1006C000FA01F695FE2FEE27F795E7954E0F5F1F7F
:1006D000FA01E257F64F81E08083DF01A058BF4F57
:1006E0001C9281838E2F9F2F08950196EF57FF4F05
:1006F000E617F707F1F680E090E00895FC01E05876
:10070000FF4F2081222331F0FC01268702960C94B2
:10071000420C0895FC0110820895CF93DF9370E09E
:100720009C01260F371FF9013297C081D0E0DC2FE2
:10073000CC2731962081C22B6250710926E030E02F
:1007400049E352E00E94E54E21E0C817D90709F0BD
:1007500020E0822FDF91CF91089581E08093B11343
:100760001092A31380E98093BC0008956115710570
:1007700029F18091A313811123C0EBEAF3E1718386
:100780006083138212821582148281E08093A31306
:10079000FB0184819581892B21F484E08093B1133E
:1007A00003C082E08093B11385EA8093BC008091FE
:1007B000A3138111FCCF8091B213089588EF08959F
:1007C00080E808957093AC136093AB1361157105C5
:1007D00041F1FB0180859185892B29F18091A3133B
:1007E000811123C0EBEAF3E1138212821582148295
:1007F00081E08093A313FB0184819581892B21F4EF
:1008000085E08093B11303C083E08093B11385EA40
:100810008093BC008091A3138111FCCF8091B2130F
:10082000089588EF089588EF089580E80895F89472
:10083000ECEBF0E010821092B900DB0114968C9181
:100840008093B80080818160808378941092A21395
:1008500080E008951F920F920FB60F9211240BB6ED
:100860000F922F933F934F935F936F937F938F9349
:100870009F93AF93BF93EF93FF938091B900887FCD
:1008800090E0893C910508F08CC1FC018827E65670
:10089000FF4F8F4F0C94494F8091B1139EEF980FEB
:1008A000933060F4E091AB13F091AC1380818E7FB4
:1008B0008093BB0085E88093BC008BC1853061F4D8
:1008C000E091AB13F091AC13808181608093BB0009
:1008D00085E88093BC007DC140DF8BEF8093B2132D
:1008E00078C18091B113843051F5EBEAF3E1848152
:1008F00095810190F081E02D208531858217930745
:1009000098F426813781AC014F5F5F4F5093B0134D
:100910004093AF13F901E80FF91F80818093BB006A
:1009200085E88093BC0055C184E98093BC00EBEA64
:10093000F3E181E0868317821092A3134AC19EEFF0
:10094000980F923038F5EBEAF3E182819381A08130
:10095000B181A80FB91F11962C91019693838283C0
:100960002093BB0025E82093BC000190F081E02D8E
:10097000248135812817390709F02BC18091B113E3
:10098000823021F484E08093B11323C185E0809309
:10099000B1131FC1853021F485EA8093BC0019C1D1
:1009A000DCDE8BEF8093B21314C1D7DE8FEF809320
:1009B000B2130FC18091B113853001F5EBEAF3E179
:1009C000A081B18118968D919C91199701972481EE
:1009D00035812817390749F4ECEBF0E080818F7BF3
:1009E0008083808185688083F4C0ECEBF0E08081B7
:1009F00080648083808185688083EBC0AEDE8BEF6E
:100A00008093B213E6C02091BB008091B113853072
:100A100069F5EBEAF3E1A081B18116966D917C91C5
:100A2000179784819581AC014F5F5F4F5583448355
:100A3000FB01E80FF91F208318968D919C9119975F
:100A400001974817590748F4ECEBF0E08081806487
:100A50008083808185688083BCC0ECEBF0E080817E
:100A60008F7B8083808185688083B3C076DE8BEF47
:100A70008093B213AEC02091BB008091B11385303A
:100A8000E1F4EBEAF3E1A081B18116964D915C911E
:100A9000179784819581BC016F5F7F4F7583648355
:100AA000DA01A80FB91F2C9384E98093BC0081E080
:100AB000868317821092A3138CC04FDE8BEF809336
:100AC000B21387C0EBEAF3E181E0868386EF878388
:100AD0001092A3137EC01092A7131092A613E4EAFB
:100AE000F3E1A081B18112962D913C9113978281FF
:100AF0009381AC014F5F5F4F53834283D901A80FAD
:100B0000B91F8C918093BB0085EC8093BC0088E07A
:100B100084835FC0E4EAF3E181E0848382E090E0D3
:100B20009683858385EC8093BC0053C0E4EAF3E1AF
:100B30001382128285EC8093BC0088E0848349C0D4
:100B40002091BB00E4EAF3E1A081B1814D915C9179
:100B500082819381BC016F5F7F4F73836283DA016F
:100B6000A80FB91F2C9385EC8093BC0088E0848388
:100B700030C0E4EAF3E181E0848383E090E096838F
:100B8000858385EC8093BC0024C0E4EAF3E181E036
:100B9000848380E98093BC008FEF9FEF96838583E9
:100BA00018C08091A213811109C0EBEAF3E181E042
:100BB00086838BEF87831092A3130BC0E4EAF3E1E3
:100BC0008EEF9FEF9683858381E0848385EC80930D
:100BD000BC00FF91EF91BF91AF919F918F917F9159
:100BE0006F915F914F913F912F910F900BBE0F909E
:100BF0000FBE0F901F9018950F931F93CF93DF9305
:100C00008C01D62FCAE00AC081E090E00E947822D1
:100C1000C15021F482E00E94F43804C0F8019081B0
:100C200095FFF2CFF801D68380E0DF91CF911F913D
:100C30000F9108958F929F92AF92BF92CF92DF92C1
:100C4000EF92FF920F931F93CF93DF93EC016A0112
:100C50007B01B901A801689412F8769567955795BC
:100C600047951694D1F7D901C801072E73E1B695BF
:100C7000A795979587957A95D1F7702DE881E1FF33
:100C80000BC04A015B01B694A79497948794B695DC
:100C9000A7959795879502C04A015B018C149D0426
:100CA000AE04BF0478F1C816D906EA06FB0660F167
:100CB000888181FF10C0CC0CDD1CEE1CFF1CCB0119
:100CC000BA01A70196010E94274FDA01C9010197D5
:100CD000A109B10913C0C901B801689413F8969528
:100CE0008795779567951694D1F7A70196010E948D
:100CF000274FDA01C9010197A109B1099D838C83AE
:100D000081E003C080E001C080E0DF91CF911F91BE
:100D10000F91FF90EF90DF90CF90BF90AF909F909A
:100D20008F9008950F931F93CF93DF93EC01FB01F6
:100D30008A818F738A832681358184819A81482FA5
:100D40004370440F997F942B9A8399818470880F04
:100D5000880F9B7F892B89838A818F7C832B8A8351
:100D60008A81922F990F990F990F877F892B8A83F8
:100D7000408151816281738100E012E12AE730E015
:100D8000CE0158DF99819860998399819061998308
:100D9000998190689983DF91CF911F910F91089568
:100DA0001F920F920FB60F9211240BB60F922F9332
:100DB0003F934F935F936F937F938F939F93AF93E3
:100DC000BF93EF93FF938091CE000E94F228FF9192
:100DD000EF91BF91AF919F918F917F916F915F91B3
:100DE0004F913F912F910F900BBE0F900FBE0F9020
:100DF0001F90189580912C20813021F480939320AE
:100E000080932D200895F894A89599E288E10FB673
:100E1000F894A895809360000FBE9093600078943A
:100E200008950E941A150E941722C4DAF5DBE3EB3D
:100E3000F3E180E197E2A0E0B0E086839783A087AA
:100E4000B18781E082878AEF96E094878387CF011C
:100E50000E94EB150E942D170E94362180910021DF
:100E600090E00E94F521CFDF86E080934D010E9443
:100E700023150E94091DFBCF1F920F920FB60F92F0
:100E800011240BB60F922F933F934F935F936F9361
:100E90007F938F939F93AF93BF93EF93FF93E091D3
:100EA000D213F091D313309709F01995FF91EF9178
:100EB000BF91AF919F918F917F916F915F914F9172
:100EC0003F912F910F900BBE0F900FBE0F901F9070
:100ED00018951F920F920FB60F9211240BB60F9216
:100EE0002F933F934F935F936F937F938F939F9332
:100EF000AF93BF93EF93FF93E091D013F091D11391
:100F0000309709F01995FF91EF91BF91AF919F91A3
:100F10008F917F916F915F914F913F912F910F90A2
:100F20000BBE0F900FBE0F901F9018951F920F923F
:100F30000FB60F9211240BB60F922F933F934F933E
:100F40005F936F937F938F939F93AF93BF93EF9331
:100F5000FF93E091CE13F091CF13309709F01995DC
:100F6000FF91EF91BF91AF919F918F917F916F9181
:100F70005F914F913F912F910F900BBE0F900FBE3D
:100F80000F901F9018951F920F920FB60F92112479
:100F90000BB60F922F933F934F935F936F937F9373
:100FA0008F939F93AF93BF93EF93FF93E091CC13F5
:100FB000F091CD13309709F01995FF91EF91BF9102
:100FC000AF919F918F917F916F915F914F913F91E1
:100FD0002F910F900BBE0F900FBE0F901F90189582
:100FE0001F920F920FB60F9211240BB60F922F93F0
:100FF0003F934F935F936F937F938F939F93AF93A1
:10100000BF93EF93FF93E091CA13F091CB13309706
:1010100009F01995FF91EF91BF91AF919F918F9139
:101020007F916F915F914F913F912F910F900BBEE8
:101030000F900FBE0F901F9018951F920F920FB632
:101040000F9211240BB60F922F933F934F935F9300
:101050006F937F938F939F93AF93BF93EF93FF9380
:10106000E091C813F091C913309709F01995FF91D9
:10107000EF91BF91AF919F918F917F916F915F9110
:101080004F913F912F910F900BBE0F900FBE0F907D
:101090001F9018951F920F920FB60F9211240BB646
:1010A0000F922F933F934F935F936F937F938F9301
:1010B0009F93AF93BF93EF93FF93E091C613F0918B
:1010C000C713309709F01995FF91EF91BF91AF9138
:1010D0009F918F917F916F915F914F913F912F9150
:1010E0000F900BBE0F900FBE0F901F9018951F9280
:1010F0000F920FB60F9211240BB60F922F933F93BE
:101100004F935F936F937F938F939F93AF93BF930F
:10111000EF93FF93E091C413F091C513309709F05A
:101120001995FF91EF91BF91AF919F918F917F9111
:101130006F915F914F913F912F910F900BBE0F9048
:101140000FBE0F901F9018951F920F920FB60F921F
:1011500011240BB60F922F933F934F935F936F938E
:101160007F938F939F93AF93BF93EF93FF93E09100
:10117000C213F091C313309709F01995FF91EF91C5
:10118000BF91AF919F918F917F916F915F914F919F
:101190003F912F910F900BBE0F900FBE0F901F909D
:1011A00018951F920F920FB60F9211240BB60F9243
:1011B0002F933F934F935F936F937F938F939F935F
:1011C000AF93BF93EF93FF93E091C013F091C113DE
:1011D000309709F01995FF91EF91BF91AF919F91D1
:1011E0008F917F916F915F914F913F912F910F90D0
:1011F0000BBE0F900FBE0F901F901895803111F409
:10120000D99A0895D89A0895803159F4E8E6F0E023
:10121000808182608083ECE6F0E080818160808361
:101220000895E8E6F0E0808181608083EBE6F0E0FD
:10123000208181E090E002C0880F991F7A95E2F743
:10124000822B80830895803131F4ECE6F0E08081D8
:101250008E7F80830895EBE6F0E0208181E090E0CE
:1012600002C0880F991F7A95E2F7809582238083C8
:101270000895CF92DF92EF926B01E82EE4DF8E2D7E
:10128000B60126D18E2DB601C5D18E2DB601B6DFA1
:101290008E2DB601B9DFEF90DF90CF900895982F93
:1012A000811105C05093D3134093D2130895813018
:1012B00029F45093D1134093D0130895823029F428
:1012C0005093CF134093CE130895833029F4509355
:1012D000CD134093CC130895843029F45093CB134D
:1012E0004093CA130895853029F45093C91340934D
:1012F000C8130895863029F45093C7134093C6133A
:101300000895873029F45093C5134093C41308956A
:101310008850883028F45093C3134093C213089523
:10132000903121F45093C1134093C013089562305B
:1013300009F128F4662341F0613089F008956330A3
:1013400021F1643069F1089525B181E090E002C097
:10135000880F991F7A95E2F7822B85B908952BB1F2
:1013600081E090E002C0880F991F7A95E2F7822B06
:101370008BB908952EB181E090E002C0880F991FCB
:101380007A95E2F7822B8EB9089521B381E090E03F
:1013900002C0880F991F7A95E2F7822B81BB0895CE
:1013A00024B381E090E002C0880F991F7A95E2F79C
:1013B000822B84BB0895623019F128F4662341F032
:1013C000613091F00895633039F1643089F1089506
:1013D00025B181E090E002C0880F991F7A95E2F76D
:1013E0008095822385B908952BB181E090E002C0F9
:1013F000880F991F7A95E2F7809582238BB908951B
:101400002EB181E090E002C0880F991F7A95E2F733
:10141000809582238EB9089521B381E090E002C0C7
:10142000880F991F7A95E2F78095822381BB0895F2
:1014300024B381E090E002C0880F991F7A95E2F70B
:101440008095822384BB0895623009F128F46623D5
:1014500041F0613089F00895633021F1643069F121
:10146000089525B181E090E002C0880F991F7A9518
:10147000E2F7822785B908952BB181E090E002C0A0
:10148000880F991F7A95E2F782278BB908952EB1BC
:1014900081E090E002C0880F991F7A95E2F78227D9
:1014A0008EB9089521B381E090E002C0880F991FA2
:1014B0007A95E2F7822781BB089524B381E090E01A
:1014C00002C0880F991F7A95E2F7822784BB08959E
:1014D000623061F128F4662349F06130B9F0089573
:1014E0006330A1F1643009F441C0089524B181E072
:1014F00090E002C0880F991F7A95E2F78095982FA7
:10150000922394B995B1892385B908952AB181E0D0
:1015100090E002C0880F991F7A95E2F78095982F86
:1015200092239AB99BB189238BB908952DB181E09B
:1015300090E002C0880F991F7A95E2F78095982F66
:1015400092239DB99EB189238EB9089520B381E07D
:1015500090E002C0880F991F7A95E2F78095982F46
:10156000922390BB91B3892381BB089523B381E07B
:1015700090E002C0880F991F7A95E2F78095982F26
:10158000922393BB94B3892384BB0895623009F1FD
:1015900028F4662341F0613089F00895633021F129
:1015A000643069F1089524B181E090E002C0880FB1
:1015B000991F7A95E2F7822B84B908952AB181E0C8
:1015C00090E002C0880F991F7A95E2F7822B8AB9C2
:1015D00008952DB181E090E002C0880F991F7A959F
:1015E000E2F7822B8DB9089520B381E090E002C02C
:1015F000880F991F7A95E2F7822B80BB089523B359
:1016000081E090E002C0880F991F7A95E2F7822B63
:1016100083BB0895623009F128F4662341F06130FC
:1016200089F00895633021F1643069F1089525B19E
:1016300081E090E002C0880F991F7A95E2F7822B33
:1016400085B908952BB181E090E002C0880F991F01
:101650007A95E2F7822B8BB908952EB181E090E064
:1016600002C0880F991F7A95E2F7822B8EB90895F0
:1016700021B381E090E002C0880F991F7A95E2F7CC
:10168000822B81BB089524B381E090E002C0880FD3
:10169000991F7A95E2F7822B84BB08956230E9F0B6
:1016A00028F4662341F0613079F032C06330F1F004
:1016B000643029F12DC083B190E002C095958795E3
:1016C0007A95E2F78170089589B190E002C095950E
:1016D00087957A95E2F7817008958CB190E002C009
:1016E000959587957A95E2F7817008958FB190E08E
:1016F00002C0959587957A95E2F78170089582B337
:1017000090E002C0959587957A95E2F781700895EB
:1017100080E0089514BE0FB6F894A89580916000FB
:10172000886180936000109260000FBEE1E6F0E0F7
:1017300080E880831082789404C0089590E016C0F9
:10174000089510920E2180E197E29093A900809372
:10175000A800E1EAF0E088E08083808182608083F5
:10176000E2E7F0E080818260808308952091A40008
:101770003091A500820F931FEAEAF0E09183808305
:10178000208131818091A8009091A9008217930750
:1017900050F42091A8003091A90080819181821B92
:1017A000930B9183808384E089BBCA9BFECF08950D
:1017B0001F920F920FB60F9211248F9380910E21DA
:1017C0008F5F80930E218F910F900FBE0F901F900F
:1017D0001895EFE0F1E2148215821182108217AAA7
:1017E00016AAE5E1F1E285E391E211921192E81780
:1017F000F907D9F7EED5C3D114D13FD040C408952D
:101800009093102180930F21E1C7089590931221A6
:1018100080931121C9C70895E82FF0E0EE0FFF1F54
:10182000EB5EFE4D718360830895FBD1DAD64ED016
:1018300083C40895E091D413F091D5133097D9F073
:10184000228133812817390789F405C02281338129
:101850002817390759F4DC01AD57BF4F2C91278762
:1018600013962C91208B22E0248305C00190F081F7
:10187000E02D309759F719C108951092D5131092A1
:10188000D4130895FC011482178613821282AFE0EC
:10189000B1E2D6968D919C91D7970196D7969C935D
:1018A0008E93D6978091D4139091D513009739F4E5
:1018B00011821082F093D513E093D413089591838D
:1018C0008083F093D513E093D41308950F931F935F
:1018D000CF93DF93E091D413F091D513309709F4AF
:1018E0009BC0EF018C81882321F0823009F46EC007
:1018F0008DC0A2D08C01009721F482E08C838F8769
:101900008BC09B838A8381E08C83F801E957FF4F6A
:101910008AE19CE0918380833197898582FB8827C7
:1019200080F980839985D8011B968C911B9790FB39
:1019300080F91B968C931B97998593FB992790F9B7
:1019400090FB82F91B968C931B97998596959170C5
:1019500090FB81F91B968C931B97EFE0F1E2848159
:101960008F5F84831C968C931C97808191811E9637
:101970009C938E931D978D819E8150969C938E9300
:101980001F978885982F9F7051968C915197807FD3
:10199000892B51968C9351979F819295907F8F7050
:1019A000892B51968C93F801EF57FF4F4C8550E0EF
:1019B0006A857B85808191810E94EC4FF80191813D
:1019C0008C85890F8183C80127D526C0CE17DF07F4
:1019D00041F4888199819093D5138093D4130AC0E0
:1019E000FC0180819181C817D907D1F7888199813D
:1019F00091838083EFE0F1E286A997A9019797ABE5
:101A000086ABED85FE85CE01199506C00990D8817B
:101A1000C02D209709F066CFDF91CF911F910F91D4
:101A20000895E6EDF3E18AE89EE11082E757FF4F63
:101A3000E817F907D1F708958091D613882359F054
:101A4000EFE5F4E14AE85EE181E090E0BC0120814D
:101A5000211122C002C060E070E049E8469F900179
:101A6000479F300D1124C9018A529C4EFC011192EE
:101A70004A95E9F740E1FC014183EF57FF4F2851B8
:101A80003C4E31832083EFE0F1E226A937A92F5F96
:101A90003F4F37AB26AB08950196E757FF4FE4174A
:101AA000F507A1F680E090E00895FC011082EFE0D8
:101AB000F1E286A997A9019797AB86AB08950097A5
:101AC00041F0FC01E757FF4F8EE1EA38F80718F0C4
:101AD00015C0E6EDF3E18081882339F003C08081F1
:101AE000882319F08E2F9F2F0895E757FF4F8EE11F
:101AF000EA38F807A0F380E090E0089580E090E0F5
:101B00000895FC01DC01AD57BF4F1C92AFE0B1E27C
:101B100014969C9114979F5F14969C9314979487A6
:101B20008D919C91968785870895DC0119962C915B
:101B30001997222349F01796ED91FC91189720816F
:101B4000211104C003C5089580E0089580E0089540
:101B5000BC01ECE9FEE12EEC3EE140E051E0908179
:101B6000992319F091509083452F3596E217F3078A
:101B7000B1F7442319F0CB010C94EB150895ECE96F
:101B8000FEE18EEC9EE110823596E817F907D9F751
:101B9000EAE8FEE184E690E0A0E0B0E08683978387
:101BA000A087B187128688EA9DE09487838765E9DC
:101BB0007DE080E031CE0895CF93DF93DC01ED919D
:101BC000FC91119721812838F9F420812F7D21344F
:101BD000D9F412962C912031B8F0EC012DDF00974A
:101BE00099F020E2FC0120832A8121832B81ED578B
:101BF000FF4F20832C81319620834A8150E06881F9
:101C0000798102960E94EC4FDF91CF91089566236F
:101C100021F022E2FC012083089524E2FC012083CC
:101C200008952F923F924F925F926F927F928F9280
:101C30009F92AF92BF92CF92DF92EF92FF920F935B
:101C40001F93CF93DF93CDB7DEB72C970FB6F894E1
:101C5000DEBF0FBECDBF00E010E00F2EF4E2DF2E9E
:101C6000F02D0F2EFFE08F2EF1E29F2EF02DCC24D1
:101C7000C3940F2EFCE94F2EFEE15F2EF02D0F2EA8
:101C8000F8E96F2EFEE17F2EF02D0F2EFAECEF2EED
:101C9000FEE1FF2EF02D312C212C5801B9C1D501C8
:101CA0008C91813209F4E1C018F4803241F0B0C166
:101CB000823209F4DEC0843209F4A8C1A9C1F50159
:101CC000D082838583FDA4C1258136812F3F3F4F7C
:101CD000C9F4D5011F962D913C915097F401408194
:101CE00051814217530721F02F3F3F4F09F090C118
:101CF00081FF04C081E2D5018C938AC122E2F50103
:101D0000208386C1D5011F962D913C9150972F3F7E
:101D10003F4F09F084C180FF82C17AC18C012C91B0
:101D2000222309F457C0208131814217530709F05B
:101D300052C0F5019485F801EE0FFF1FEE0FFF1F53
:101D4000E00FF11FE856F14E8281891B883040F583
:101D5000F801EE0FFF1FEE0FFF1FE00FF11FE85617
:101D6000F14E9381292F30E0082E02C0359527953A
:101D70000A94E2F720FD4CC1F801EE0FFF1FEE0FB1
:101D8000FF1F0E0F1F1FF801E856F14E21E030E053
:101D900002C0220F331F8A95E2F7922B93834FC123
:101DA000F801EE0FFF1FEE0FFF1F0E0F1F1FF801B0
:101DB000E856F14E9283238130E08195A90102C05B
:101DC000440F551F8A95E2F7CA01816083838FE132
:101DD000848335C1BF01019615963596EE15FF0532
:101DE00009F09CCF6115710509F412C1DB01119650
:101DF0005C934E93F501848512968C9312971396FB
:101E0000CC9213978FE114968C938AE89EE1E3D6E7
:101E100016C1D5011F968D919C915097F401208198
:101E2000318128173907A1F01B962C9122FD0DC096
:101E3000C50147D3D5011F968D919C915097F40110
:101E4000208131812817390719F0019609F0E0C087
:101E5000D5011B968C911B9781FF03C081E28C9367
:101E6000D7C022E2F5012083D3C060E0C50117D1BD
:101E7000CFC01092971ED50151962C915197229563
:101E80002F70E22FF0E0EE0FFF1FEB5EFE4D019092
:101E9000F081E02D309709F462C01D968D919C91E0
:101EA0001E979A8389831F964D915C9150975C830E
:101EB0004B8351963C9151973F703D832E83AF5792
:101EC000BF4F6D917C917987688795012E5F3F4F59
:101ED000261B370BD50111963C911197230F2A87AA
:101EE000AD57BF4F2C912B8711962C912C87D50184
:101EF0001B962C91622F637022FD02C030E001C05E
:101F000030E2632B23FD02C030E001C030E4262F15
:101F1000232B4F3F5F4F11F030E001C034E0232B03
:101F2000D50119964D915C911A978417950711F078
:101F300090E001C098E0822F892B8F83D501159600
:101F40002D913C9116972F3F3F4F11F090E001C02B
:101F500090E1892B8F83CE010196199501C080E015
:101F6000F501938590FF80E0D50117962D913C9166
:101F700018972F3F3F4F69F4F40140815181D501FB
:101F80001F962D913C9150974217530711F493FFE0
:101F90008C2DF501258136812F3F3F4FA1F1D401D2
:101FA0002D913C912F3F3F4F71F1882361F144DD2A
:101FB0008C01009741F1A5DDF80181818D5F81835E
:101FC000E957FF4F11821082D5011B968C911B9708
:101FD00086958170F801938580FB91F993871D9612
:101FE0008D919C911E97908B8787EF57FF4F0190A3
:101FF000F081E02D10828091971E82831C968C9137
:102000008183C80109D2D501DC9202C0C5014DDD32
:10201000C50155DD5C01892B09F041CE17C0F501E2
:1020200045855685D4018D919C918417950781F340
:10203000D201F301832D922D632D722D6FCEF50108
:1020400087819085019609F0F5CEE3CE2C960FB6E8
:10205000F894DEBF0FBECDBFDF91CF911F910F91DE
:10206000FF90EF90DF90CF90BF90AF909F908F90B8
:102070007F906F905F904F903F902F9008951092B7
:10208000DF1E1092DE1E1092DD1E0895FC0190E10D
:10209000A5E3B1E201900D929A95E1F708956623C8
:1020A00021F020E3FC01208303C021E3FC01208315
:1020B0008091DF1E8F5F8093DF1E0895CF93DF93A3
:1020C000C091DD1ED091DE1EFE01EF57FF4FA081B3
:1020D000B1817091DB1E872F90E06091DC1E262F6E
:1020E000613108F020E12223B9F03091DA1E4AEC88
:1020F0005EE1A80FB91FFA0190818C9189278D9319
:10210000332311F0808303C0908189278083319627
:102110008E2F841B821780F3720F7093DB1E621B5D
:102120006093DC1E662319F082E3888302C084E397
:102130008883DF91CF9108950F931F93CF93DF93FF
:102140008091DF1E882309F4E1C0E091DD1EF0914B
:10215000DE1E309709F4D4C08081843309F054C066
:102160008091DB1EDF01AF57BF4FCD91DC91C80FCF
:10217000D11DAAECBEE114960D911D912D913C91BB
:1021800017974D915D916D917C9113974027512741
:102190006227732718960D911D912D913C911B97E5
:1021A00040275127622773271C968D919D910D9092
:1021B000BC91A02D482759276A277B278091DA1EDA
:1021C000882351F0488359836A837B8381818C5FA4
:1021D0008183CF01DFD10EC081E0088119812A817E
:1021E0003B81401751076207730709F080E0682FB1
:1021F000CF010DDD1092DE1E1092DD1E8091DF1EDC
:1022000081508093DF1E82C0823309F07FC083E358
:10221000808365E371E28AEC9EE11AD477C0DC0129
:102220002C912053223008F06DC09093DE1E8093D5
:10223000DD1EEAECFEE11C964C911C9750E060E03C
:1022400070E040835183628373831F964D915C914C
:10225000509760E070E0BA015527442751962C91C1
:10226000519722952F70422B448355836683778341
:102270001D964D915C911E9760E070E0BA01552764
:10228000442751962C9151972F70422B40875187AC
:10229000628773871B962C911B9715964D915C91C5
:1022A000169760E070E0BA0155274427422B448717
:1022B0005587668777872C91213331F411962C91BD
:1022C0001197245011962C93FC01EF57FF4F40813A
:1022D00051819C012E5F3F4F241B350BFC01318146
:1022E000230F2093DC1E1092DB1E21E0308130335F
:1022F00009F020E02093DA1E22E3DC012C9306C0D3
:1023000080E090E0DCDB009709F089CFDF91CF918E
:102310001F910F910895EF92FF920F931F93CF9308
:102320007C0110E080E090E001E0C3E113C0FC011B
:102330002081213179F4EC57FF4F208131812150E8
:10234000310931832083232B21F4FC01C083102F1A
:1023500001C0102FB4DB009751F7112311F0C70112
:102360003AD4CF911F910F91FF90EF900895EF9283
:10237000FF920F931F93CF93DF937C0110E080E0D7
:1023800090E001E0D7E1C0E116C0FC0120812631D8
:1023900091F4EC57FF4F2081318121503109318375
:1023A0002083232B39F4FC01D083ED57FF4FC083EA
:1023B000102F01C0102F83DB009739F7112311F084
:1023C000C70109D4DF91CF911F910F91FF90EF903A
:1023D00008951092FB1E1092FA1EEDEEFEE182E3CC
:1023E00090E0A0E0B0E086839783A087B187128653
:1023F00087EB91E194878387E0EEFEE18AE090E04D
:10240000A0E0B0E086839783A087B18712868BE82F
:1024100091E1948783870895CF93DF93FC01DC01DA
:10242000AA57BF4F8C9181FF03C092E1908308C0EF
:10243000938591FF03C090E1908302C092E1908365
:10244000DF01AD57BF4F1C9280FF05C08FEF9FEF9C
:102450009683858306C080911121909112219683E5
:1024600085832785308930872783AFE0B1E28D915E
:102470009C9111979287818715968C9115978F5F04
:1024800015968C9384832F3F3F4F81F4EF0181E4B5
:1024900098E8938382830E94D14FFE01EC57FF4F4F
:1024A0008770992701969183808308C081E698E818
:1024B00093838283EC57FF4F11821082DF91CF917B
:1024C00008950F931F93CF93DF938C01B5DAEC013E
:1024D000892BB9F182E18883F80181818983FE012A
:1024E000ED57FF4F10820E94D14FFE01EC57FF4F76
:1024F0008770992701969183808333961182108289
:10250000F801418150E0B8016E5F7F4FCE01029625
:102510000E94EC4F81E498E89B838A838FEF9FEFC2
:1025200098878F83F801858196819E838D83EFE064
:10253000F1E2808191819A87898785818F5F858388
:102540008C83DF91CF911F910F910895CF93DF93EB
:10255000FC01C781D08581858330C1F480E090E0A3
:1025600010C0FC012081263161F4348529813213A9
:1025700008C027E120832A81EA57FF4F208381E0AA
:1025800006C09DDA009769F780E001C080E0DF9126
:10259000CF91089522E1FC0120830895E091FA1E75
:1025A000F091FB1E813021F048F0823019F004C018
:1025B00080E205C081E203C081E001C080E0DF016C
:1025C000AD57BF4F8C9385E180831092FB1E109214
:1025D000FA1EEFE0F1E286A997A9019797AB86ABC7
:1025E00008959F92AF92BF92CF92DF92EF92FF92A7
:1025F0000F931F93CF93DF93C0E0D0E00F2EF4E151
:10260000AF2EF02D0FE011E20F2EF7E1DF2EF02DAF
:102610000F2EF6E19F2EF02D0F2EF5E1EF2EF12C6F
:10262000F02D0F2EF3E1CF2EF02D0F2EF1E1BF2E66
:10263000F02D64C088818331F1F028F4803149F0B5
:10264000823159F05BC0853169F1873109F449C0A5
:1026500055C061E0CE0123DD51C0FE01EC57FF4FB4
:1026600080819181892B29F0B88280EE9EE1B3D2DE
:1026700045C0C88243C08091FA1E9091FB1E892BF1
:1026800009F03CC0D093FB1EC093FA1EA88269815A
:10269000CE010296ADD0F80186A997A9019697AB15
:1026A00086AB2CC0FE01ED57FF4F8081811117C012
:1026B0002D853E85F801808191812817390769F4BD
:1026C0008B8580FF0AC09882FE01EC57FF4FF18294
:1026D000E0828DEE9EE17FD211C0D8820FC0D882F9
:1026E0000DC0FE01E957FF4F0190F081E02D3097BA
:1026F00019F4CE01DAD902C0CE011995CE01DFD985
:10270000EC01892B09F096CFDF91CF911F910F91AA
:10271000FF90EF90DF90CF90BF90AF909F90089583
:102720008091FC1E982F9F70E4E5F1E08081807F0E
:10273000892B80838091FC1E882329F08091FD1EC7
:102740008093530108958091FD1E982F9F71E8E4B6
:10275000F1E08081807E892B8083089593E09093BF
:102760004201E1E4F1E090819F719830E1F78093BC
:102770004201E1E4F1E090819F719813FCCF08954C
:1027800088E0ECDF8FEF80934F018091FE1E88235D
:1027900011F086E1E3CF08958093FE1EF1CF0895F6
:1027A0008093FD1EBDCF0895CF93DF931F921F929C
:1027B000CDB7DEB79A838983809362018A81809343
:1027C00063010F900F90DF91CF910895CF93DF9326
:1027D0001F921F92CDB7DEB79A83898380936001E1
:1027E0008A81809361010F900F90DF91CF910895BE
:1027F0000F931F93CF938C01C62F89E1AFDF8FEF2B
:1028000080934F0182E08C0F80938001CC2381F074
:10281000F801C1502C2F30E02F5F3F4FC801820FCD
:10282000931FA1E8B1E021912D93E817F907D9F79B
:1028300083E080937F1F82E080934201CF911F91BC
:102840000F910895EF92FF920F931F93CF93DF9311
:102850001092560186E082DFC0E0D0E0E12CF12C3E
:1028600006E411E081E00E949E0BF8012081229590
:1028700026952770237030E00C2E02C0220F331FE4
:102880000A94E2F7E22AF32A2296C031D10551F7E1
:1028900088E064DF8BEE8093560172DFC701DF9121
:1028A000CF911F910F91FF90EF900895E9E3F1E030
:1028B0008081816080831092FE1E1092FC1E81E058
:1028C00080937F1F88E04ADF8BEE80935601ECE413
:1028D000F1E0808180688083B5DF80936D01089589
:1028E000CF93DF93FB01AB01405F5F4FAFE3B1E0FC
:1028F00021912C93E417F507D9F710923C01DC01E4
:102900009C01205F3F4FFC01CEE3D1E081918883A1
:10291000E217F307D9F7ECE3F1E080818068808368
:10292000EDE3F1E0808180FFFDCFEEE3F1E0808117
:102930008D93A217B307D9F7DF91CF9108951F9315
:10294000CF93DF9300D01F921F92CDB7DEB7809157
:102950007F1F823009F465C080914F0183FF3EC024
:10296000A0917B016A2F70E0AB014F5F5F4F80E069
:1029700090E020E0FC01E058FE4F3081FC01E15086
:10298000F14E30832F5F822F90E08417950794F3E8
:102990008FEF9EE19A838983A250AB83FB01E150C4
:1029A000F14E80818C83809147018A558D83CE01C1
:1029B000019602D9E1E4F1E080818F718631E1F77F
:1029C000EFE4F1E0808188608083ECE4F1E08081D5
:1029D0008F77808380818068808323C080914F01BE
:1029E00086FF1FC0809141018F718931A9F4109138
:1029F000420112951695177049F0133021F01530E9
:102A000021F013E003C011E001C012E0B9DE81E063
:102A100080937F1F812FC2DDEFE4F1E0808180642D
:102A200080830F900F900F900F900F90DF91CF91B8
:102A30001F9108950E948A0B72D038DF0E94E90B23
:102A40001092450108957BDF0E94150CCFC00895B8
:102A500047DF34CB08950F931F93CF93DF93EC019F
:102A60008091801F9091811F009709F445C04E818D
:102A70005F8168857985FC0102811381248135811C
:102A8000401751076207730760F0DC0117C002812D
:102A9000138124813581401751076207730768F459
:102AA00003C0FC01A0E0B0E0041B150B260B370BA4
:102AB00002831383248335830AC0DF01401B510B3B
:102AC000620B730BED91FC911197309701F74A83DC
:102AD0005B836C837D83109741F08D919C9111975E
:102AE00099838883CD93DC9315C099838883D09391
:102AF000811FC093801F0EC0198218828E819F8112
:102B0000A885B9858A839B83AC83BD83D093811FBD
:102B1000C093801FDF91CF911F910F910895109264
:102B2000811F1092801F0895CF93DF93A091801F83
:102B3000B091811F109791F1A817B90751F50AC0FC
:102B40008E179F0729F5109731F0208131812D9341
:102B50003C9307C0FC01208131813093811F209379
:102B6000801F0190F081E02D3097C1F042815381A8
:102B700064817581EC018A819B81AC81BD81840F68
:102B8000951FA61FB71F82839383A483B58306C0B6
:102B9000DF01ED91FC911197309791F6DF91CF9184
:102BA0000895E091801FF091811F309771F0E81730
:102BB000F90721F40CC08E179F0759F00190F0819E
:102BC000E02D3097C1F780E0089580E0089581E01E
:102BD000089581E00895CF93DF93EC01E2DF811146
:102BE00002C0CE0138DFDF91CF910895CF92DF92FE
:102BF000EF92FF92CF93DF9380910E21882309F407
:102C000059C08FB7F894C0900E2110920E218FBF3B
:102C1000D12CE12CF12CCC0CDD1CEE1CFF1CD701BF
:102C2000C601880F991FAA1FBB1F880F991FAA1FD3
:102C3000BB1FC80ED91EEA1EFB1EC091801FD0917B
:102C4000811F2097B9F18A819B81AC81BD81C81613
:102C5000D906EA06FB0610F1C81AD90AEA0AFB0AE5
:102C6000888199819093811F8093801F8A8581300C
:102C700011F4CE01F0DEEB85FC85CE011995C091F3
:102C8000801FD091811F2097A9F08A819B81AC8100
:102C9000BD81C816D906EA06FB06F0F68A819B813B
:102CA000AC81BD818C199D09AE09BF098A839B83C4
:102CB000AC83BD83DF91CF91FF90EF90DF90CF90F9
:102CC000089580916E208F5F80936E20882319F085
:102CD00010926E20089581E080939320089588E9F2
:102CE00090E279CF089580915020813081F489ED70
:102CF00090E21ADF84E080935A20109255201092BF
:102D000054200E9485028AEE90E265CF08958111D9
:102D100010C089ED90E208DF81E080935A200E9484
:102D2000DA010E940C038AEE90E2FEDE81E390E27B
:102D3000FBCE089582E89FE10C949F38089581E0CE
:102D400080932C2080E492E00C94DA2808958091FE
:102D5000FF1F823008F06AC080911620823049F04F
:102D600018F48130C9F149C08530A1F0863019F1DD
:102D700044C060916F2070917020809171200E94FA
:102D8000DB0960914D2070914E2080914F200E9470
:102D9000240A43C060914D2070914E2080914F20B5
:102DA0000E94240A60916F207091702080917120A0
:102DB0000E94DB0932C060914D2070914E208091BD
:102DC0004F200E94240A60916F20709170208091A2
:102DD00071200E94240A21C060914D2070914E20E4
:102DE00080914F200E94240A60916F207091702082
:102DF000809171200E94DB0910C060914D2070917C
:102E00004E2080914F200E94DB0960916F207091CD
:102E10007020809171200E94DB098091FF1F8F5FDD
:102E20008093FF1F88E990E2D6DE15C060914D20A7
:102E300070914E2080914F200E94DB0960916F209D
:102E400070917020809171200E94DB091092FF1F09
:102E500082E790E2C0DEA8950895EF92FF920F936B
:102E60001F93CF93DF93E5EAF0E210820F2EF3E099
:102E7000FF2EF02DF1828BE082836091A52070916E
:102E8000A6208091A7204DED5BE10E944F09609143
:102E9000A5207091A6208091A7200E943909EEE319
:102EA000F0E21082C2E0C1838AE0828360913E201A
:102EB00070913F20809140200E943909E1E4F0E2C6
:102EC0001082D1E0D18389E08283609141207091AA
:102ED0004220809143200E943909E7EEF0E21082FF
:102EE000118288E082836091E7207091E8208091D0
:102EF000E9200E943909E4E9F0E2D0836894EE24E5
:102F0000E2F8E18260919420709195208091962062
:102F10000E94680A6091942070919520809196207B
:102F20000E940A0BEDE4F0E2C08305E001836091AA
:102F30004D2070914E2080914F200E94C60AEFE6EE
:102F4000F0E2C08317E0118360916F2070917020D0
:102F5000809171200E94C60AE1E8F0E2C083E1821C
:102F60006091812070918220809183200E94C60A06
:102F7000E1E5F0E2C083F18260915120709152202E
:102F8000809153200E94C60A00932F2060912E202A
:102F900070912F20809130200E94C60A0F2EF6E0FB
:102FA000FF2EF02DF09203216091022170910321F8
:102FB000809104210E94C60A109309216091082182
:102FC0007091092180910A210E94C60AECEFF0E27B
:102FD000C08311826091FC207091FD208091FE20C1
:102FE0000E94680A6091FC207091FD208091FE2073
:102FF0000E940A0BE7EFF0E2C083D1836091F720D3
:103000007091F8208091F9200E94680A6091F72061
:103010007091F8208091F9200E940A0BEAE4F0E216
:10302000C083C18360914A2070914B2080914C20D5
:103030000E94680A60914A2070914B2080914C2038
:103040000E940A0BE8EAF0E2D08301836091A82095
:103050007091A9208091AA200E94680A6091A820FE
:103060007091A9208091AA200E940A0BE0E0F0E272
:10307000D083F18260910020709101208091022024
:103080000E94680A609100207091012080910220C6
:103090000E940A0BE7E5F0E2D0831183609157208C
:1030A00070915820809159200E94680A60915720A1
:1030B00070915820809159200E940A0BDF91CF9186
:1030C0001F910F91FF90EF9008950F93CF93DF938F
:1030D00080915A20823009F4F1C130F4882309F438
:1030E0006EC0813051F034C3843009F481C208F4D9
:1030F00036C1853009F43FC22BC310925020C1E085
:10310000C0932C2060912E2070912F208091302030
:103110000E94DB09E4E0F0E21386C38B85E0828B3A
:10312000C18B84EF91E0A0E0B0E080939E2090936B
:103130009F20A093A020B093A12088EE93E0A0E070
:10314000B0E08093782090937920A0937A20B09378
:103150007B208081813081F48091972081110CC087
:103160006091812070918220809183200E944E0B7B
:10317000811102C010925A2080910C20813021F0E0
:1031800080910720813011F410925A2080910820FC
:10319000813019F485E080935A2080910D20813090
:1031A00019F482E080935A2080910E20813009F03A
:1031B000CFC283E080935A2010928520C9C28091AB
:1031C0008520813031F4809185208F5F8093852028
:1031D00002C0109285201092502081E080932C2014
:1031E000E4E0F0E2828B8AEF90E0A0E0B0E0809330
:1031F0009E2090939F20A093A020B093A12084EFC5
:1032000091E0A0E0B0E08093782090937920A093A3
:103210007A20B0937B208089813021F08091152025
:10322000811114C060912E2070912F208091302048
:103230000E94DB0910920F208091D720811106C0D7
:1032400087E00E94202481E08093D7208091142081
:1032500081110FC080911520813059F460912E208A
:1032600070912F20809130200E94970981E08093F7
:103270000F208091FA20811106C084E00E94202452
:1032800081E08093FA2080910E20813029F483E040
:1032900080935A201092FA2080912320811116C029
:1032A0008091042081112AC080910C20811126C0B8
:1032B00080910720811122C085E00E942024109275
:1032C000FA201092D72081E080935A208091232009
:1032D0008130A1F480910C20813081F460918120B3
:1032E00070918220809183200E94DB09E4E0F0E26B
:1032F000108613828185813069F504C080910D208C
:10330000813011F410920D2080910720813011F549
:10331000809108208130F1F480916B2090916C2095
:10332000019690936C2080936B20893E9D4F08F40A
:103330000FC282E090E10E94DA30082F0360009310
:10334000032020E142E065E48EEA0E9465230E94AA
:10335000A234FEC110926C2010926B20F9C1C4E01F
:10336000D0E283E08A8B60912E2070912F20809193
:1033700030200E94970981E08B8710925020809323
:103380002C208091FA20811111C082E00E9420241B
:1033900081E08093FA2084E60E9486366091812045
:1033A00070918220809183200E9497098091232030
:1033B000813049F583E00E94202462E081E60E948A
:1033C000DB371092FA2081E08093852010925A20FA
:1033D000C4E0D0E21A8660918120709182208091B1
:1033E00083200E94DB091B866091E7207091E82012
:1033F0008091E9200E944E0B91E0811101C090E084
:1034000090930420A5C180911420813049F583E078
:103410000E94202462E08EE60E94DB371092FA20A0
:1034200081E08093852080935A20C4E0D0E21A8600
:103430006091812070918220809183200E94DB091D
:103440001B866091E7207091E8208091E9200E941E
:103450004E0B91E0811101C090E09093042078C15F
:1034600080910E20813009F473C183E00E942024F2
:1034700062E083E70E94DB371092FA2081E08093BC
:10348000852080935A20C4E0D0E21A866091812082
:1034900070918220809183200E94DB091B866091BD
:1034A000E7207091E8208091E9200E944E0B91E086
:1034B000811101C090E0909304204AC1E4E0F0E261
:1034C00084E0828B1092502081E080932C2082E057
:1034D000838B8091FA20811108C00E94202481E012
:1034E0008093FA2083E60E94863680910420813002
:1034F000A9F480919720811111C081E00E942024BD
:1035000062E081E60E94DB371092FA2081E080932E
:10351000852080935A2010920D201AC18091FE1FA1
:1035200090910520981788F081E00E94202462E0A5
:103530008EE60E94DB371092FA2081E0809385208E
:1035400080935A2010920D2003C180910D2081306C
:1035500009F4FEC081E00E94202462E083E70E941B
:10356000DB371092FA2081E08093852080935A20E7
:1035700010920D20EDC080915020811108C089ED7E
:1035800090E229DB809150208F5F809350208091C2
:103590006A20893080F060913E2070913F208091B8
:1035A00040200E944E0B91E0811190E09093082002
:1035B00010926A2003C08F5F80936A208091082058
:1035C000811108C089ED90E2AFDA81E080935A2042
:1035D0001092502080910420813009F0B9C0809170
:1035E00097208111B5C010925A2010925020B0C07F
:1035F0008DE790E0A0E0B0E080939E2090939F2024
:10360000A093A020B093A1208AEF90E0A0E0B0E0CA
:103610008093782090937920A0937A20B0937B2098
:1036200010922C2082E0809316208091E620813039
:1036300031F0C0F1823051F0833089F030C08AEE31
:1036400090E272DA82E08093E6202CC060E182E8AA
:103650009FE10E94B13883E08093E62023C08091EF
:10366000542090915520813523EC920790F0809161
:10367000002181FF0BC0809100218D7F809300216C
:103680006091002182E090E10E9464320E94A234A5
:1036900009C00196909355208093542003C088E080
:1036A0000E94033680916A208930F0F060913E20BC
:1036B00070913F20809140200E944E0B91E081113B
:1036C00090E0909308206091E7207091E82080912D
:1036D000E9200E944E0B91E0811101C090E090938F
:1036E000042010926A2003C08F5F80936A2080912B
:1036F0000820813051F480915020813091F489ED7F
:1037000090E269DA109250200CC081110AC08091B9
:103710005020811103C089ED90E206DA81E08093A8
:10372000502080910420813099F48091972081115C
:103730000FC01092E62081E080935A200E94DA01A7
:103740000E940C0381E390E2EFD98AEE90E2ECD97B
:10375000DF91CF910F91089580919320882371F08C
:1037600080918520882319F01092852002C00E9444
:103770006B358CE590E22FDA1092932008958091BA
:103780000E20811119C080910C20813021F0809190
:103790000720813049F460918120709182208091CE
:1037A00083200C9497090895609181207091822064
:1037B000809183200C94DB09089581E0809305219A
:1037C000DECF0895CF93DF9380912D20882309F4D5
:1037D00060C00E94D339C4E0D0E28983CDD78E8304
:1037E00080EF8F8710922D20EBE7F0E08081877FBC
:1037F000808381E680937C00EAE7F0E0808180644A
:103800008083808186FDFDCF8091790024E2829FB4
:10381000C00111246FEF70E00E94144F60930620E6
:103820006091FC207091FD208091FE200E944E0B43
:1038300091E0811101C090E0909323202091052018
:1038400030E08091FB2090E00A972817390734F484
:10385000E4E0F0E281E0808B118A0DC08091FB20D2
:1038600090E00A96281739071CF01092142003C024
:1038700082E08093142080910A208D3318F080E03C
:103880000E94033680910520853618F481E00E945D
:10389000033680916D20813029F08091052181309F
:1038A00009F0B4C080916A20893008F4ACC06091FE
:1038B000A5207091A6208091A7200E944E0B91E038
:1038C000811190E0909307205ADF60913E20709123
:1038D0003F20809140200E944E0B91E0811190E0AA
:1038E0009093082060914120709142208091432064
:1038F0000E944E0B91E0811101C090E0909309204D
:103900006091E7207091E8208091E9200E944E0BA1
:1039100091E0811101C090E0909304206091FC201F
:103920007091FD208091FE200E944E0B91E081114C
:1039300001C090E0909323206091F7207091F820CF
:103940008091F9200E944E0B91E0811190E09093BC
:10395000242060914A2070914B2080914C200E943D
:103960004E0B91E0811190E0909325206091A8206A
:103970007091A9208091AA200E944E0B91E08111A4
:1039800090E090932620609100207091012080911A
:1039900002200E944E0B91E0811190E0909327202D
:1039A0006091572070915820809159200E944E0BB1
:1039B00091E0811190E09093282080910C2081303B
:1039C00021F080910720813039F480910420811109
:1039D00003C085E00E94033610926D2010926A2089
:1039E00080910420811106C080912320811102C0A2
:1039F0001092972080910521813041F4809393208B
:103A00001092052103C08F5F80936A20DF91CF91D0
:103A10000895D8DE5ADBA0CE08954F925F926F9240
:103A20007F92AF92BF92CF92DF92EF92FF920F936D
:103A30001F93CF93DF93CDB7DEB729970FB6F894D6
:103A4000DEBF0FBECDBF8C01B62EEDB6FEB60E9416
:103A50008D0380934C21882309F4CCC348E050E0C7
:103A600062E572E0C8010E94DF4F892BA1F48091CA
:103A70005A2081110AC080910C20813031F483E0FA
:103A80000E940336AA24A394BCC30E94913577DE1A
:103A9000AA24A394B6C348E050E06BE572E0C801E5
:103AA0000E94DF4F892BA1F480915A20813051F47C
:103AB00080910C20811106C083E00E940336AA2465
:103AC000A3949FC30E949B355ADEAA24A39499C352
:103AD00048E050E064E672E0C8010E94DF4F892BA5
:103AE00009F050C02FE02B1530F084E00E9403361F
:103AF000AA24A39486C36EEF6B0DC8010E94B5384B
:103B0000A82E882309F478C3F801218530E02053DA
:103B1000310988EE93E0289FA001299F500D389F1E
:103B2000500D1124228530E02053310964E6629F54
:103B3000C001639F900D1124840F951F248530E0F0
:103B400020533109AC01420F531F238530E020532D
:103B50003109C901880F991F220F331F220F331F0C
:103B6000220F331F280F391FCA01820F931F8D3F69
:103B7000FFE09F0720F084E00E94033642C30E94CA
:103B8000A4353FC348E050E06DE672E0C8010E94F2
:103B9000DF4F892B81F480915A20811106C083E088
:103BA0000E940336AA24A3942CC381E080930D20A5
:103BB000AA24A39426C348E050E066E772E0C80157
:103BC0000E94DF4F892B79F480915A20811106C021
:103BD00083E00E940336AA24A39413C310920D20FD
:103BE000AA24A3940EC348E050E06FE772E0C80136
:103BF0000E94DF4F892B81F480915A20811106C0E9
:103C000083E00E940336AA24A394FBC281E0809340
:103C10000E20AA24A394F5C248E050E068E872E0C0
:103C2000C8010E94DF4F892B79F480915A208111BD
:103C300006C083E00E940336AA24A394E2C2109235
:103C40000E20AA24A394DDC248E050E061E972E0AE
:103C5000C8010E94DF4F892B09F092C023E12B1588
:103C600030F086E00E940336AA24A394CAC26EEF05
:103C70006B0DC8010E94B538A82E882309F47AC0BC
:103C8000F801A185B0E0D09720E03AEC4AE95BE387
:103C90000E94664F2B013C01A285B0E0D09720E046
:103CA00031EE45EF55E00E94664F460E571E681EE6
:103CB000791E828990E0C097092E000CAA0BBB0BDD
:103CC000480E591E6A1E7B1EA385B0E0D09720E8DF
:103CD00036E948E950E00E94664F460E571E681EBE
:103CE000791EA485B0E0D09720E432E44FE050E0A4
:103CF0000E94664F460E571E681E791EA585B0E0CD
:103D0000D09720EA36E841E050E00E94664F460E28
:103D1000571E681E791EA685B0E0D09720E137E2D5
:103D20000E94604F460E571E681E791EA785B0E0A0
:103D3000D09728EE33E00E94604F460E571E681E53
:103D4000791EA089B0E0D09724E630E00E94604F51
:103D5000460E571E681E791EA189B0E0D0972AE052
:103D600030E00E94604F640D751D861D971D0E94F6
:103D7000993647C287E00E940336AA24A39441C221
:103D800048E050E06AE972E0C8010E94DF4F892BE9
:103D900039F48CE590E20E949415AA24A39431C2D0
:103DA00048E050E063EA72E0C8010E94DF4F892BCF
:103DB00029F40E94A136AA24A39423C248E050E02B
:103DC0006CEA72E0C8010E94DF4F892B29F40E943F
:103DD000A234AA24A39415C248E050E065EB72E037
:103DE000C8010E94DF4F892B29F40E94AA36AA2419
:103DF000A39407C248E050E06EEB72E0C8010E9455
:103E0000DF4F892B91F5F3E1FB1530F084E00E9440
:103E10000336AA24A394F5C16EEF6B0DC8010E946E
:103E2000B538A82E8823D9F0CE01019628E0FC01F0
:103E300011922A95E9F7F8012185298322852A83A1
:103E400023852B8324852C8325852D8326852E830E
:103E500027852F83208928870E94CE36D2C184E00F
:103E60000E940336AA24A394CCC148E050E067EC3A
:103E700072E0C8010E94DF4F892B09F5FDE0FB15B8
:103E800030F08BE00E940336AA24A394BAC16EEFEF
:103E90006B0DC8010E94B538A82E882351F0F80197
:103EA0008185898382858A83CE0101960E942D3780
:103EB000A8C184E00E940336AA24A394A2C148E0CA
:103EC00050E060ED72E0C8010E94DF4F892BA1F441
:103ED00089ED90E20E94941584E080935A2010921C
:103EE0005520109254200E9485028AEE90E20E9492
:103EF000EB15AA24A39485C148E050E069ED72E077
:103F0000C8010E94DF4F892B49F480E20E944337A9
:103F100080E20E948F37AA24A39473C148E050E046
:103F200062EE72E0C8010E94DF4F892B29F40E94E3
:103F30004E38AA24A39465C148E050E06BEE72E0CD
:103F4000C8010E94DF4F892B29F40E947A38AA24E5
:103F5000A39457C148E050E064EF72E0C8010E94AA
:103F6000DF4F892B09F045C0FBE1FB1530F088E0FD
:103F70000E940336AA24A39444C16EEF6B0DC801BE
:103F80000E94B538A82E882371F1D8011996E2E86D
:103F9000FFE1CF01805F2D919191291729F089E0F0
:103FA0000E940336A12C2DC18E13F5CFCE010196B0
:103FB00029E0FC0111922A95E9F7F801238D298364
:103FC000248D2A83258D2B83268D2C83278D2D836D
:103FD00020A12E830E94A33481E08093E62088EE06
:103FE00093E086D20EC18AE00E940336AA24A394ED
:103FF00008C148E050E06DEF72E0C8010E94DF4F59
:10400000892BF9F4F7E0FB1530F088E00E940336C5
:10401000AA24A394F6C0D8011996E2E8FFE1CF01E3
:10402000805F2D919191291729F089E00E94033634
:10403000A12CE7C08E13F5CF0E94A234AA24A3942A
:10404000E0C048E050E066E073E0C8010E94DF4F46
:10405000892B09F056C02FE02B1530F084E00E9428
:104060000336AA24A394CDC06EEF6B0DC8010E9445
:10407000B538A82E882309F4C2C0F801818590E0E4
:10408000C09728EE33E0829FA001839F500D929F3E
:10409000500D1124828590E0C09764E6689F9001DE
:1040A000699F300D1124240F351F848590E0C0973F
:1040B000820F931F438550E0405351097AE0749F6B
:1040C0009001759F300D1124820F931F2585205379
:1040D0006685279F600D112460539C010BC021153C
:1040E000F0E23F0728F084E00E940336A12C89C04B
:1040F0002F5F3F4F422F481B461788F30E94CF3552
:1041000080C048E050E06FE073E0C8010E94DF4FDC
:10411000892B09F069C02FE02B1530F084E00E9454
:104120000336AA24A3946DC06EEF6B0DC8010E94E4
:10413000B538A82E882309F451C0CDB6DEB6F801F3
:104140004185628570E0762F66278385680F711D33
:104150004930E8F52B2D30E021513109842F90E0D2
:1041600028173907A1F58DB79EB7841B91090FB6A3
:10417000F8949EBF0FBE8DBF0196DC01FC0101C00B
:1041800011922E2F2A1B2417D8F3045F1F4FF8011A
:1041900002C021912D932E2F201B2417D0F39B01B9
:1041A0000AC02115E0E23E0720F084E00E940336B9
:1041B0000EC02F5F3F4F522F561B541790F30E9493
:1041C00002370FB6F894DEBE0FBECDBE1AC00FB6D2
:1041D000F894DEBE0FBECDBEA12C13C084E00E94B9
:1041E0000336AA24A3940DC08BE00E940336AA24B0
:1041F000A39407C0A12C05C0AA24A39402C0AA249A
:10420000A3948A2D0FB6F894FEBE0FBEEDBE29967C
:104210000FB6F894DEBF0FBECDBFDF91CF911F91D7
:104220000F91FF90EF90DF90CF90BF90AF907F9075
:104230006F905F904F9008950F93CF93DF931F92ED
:104240001F92CDB7DEB7198288E08A838FEB64D1E5
:1042500000E122E83FE14FEB62E0CE010196DDD1C3
:104260000F900F90DF91CF910F9108950F931F93AF
:10427000CF93C1E0C0936D20C0939720C0932D20B1
:10428000C0939320C093052110926A201092FF1FC3
:10429000109250201092FA20C0935A2010920B21B5
:1042A00010920D2110920C2110926E201092562027
:1042B000C0932C201092D7201092E62010928520D7
:1042C00010926C2010926B2087E880937A000E94F5
:1042D00075399CD264E072E088EC90E00E9492060E
:1042E000E8E9F0E284EF91E0A0E0B0E08683978314
:1042F000A087B187128687EA96E194878387CF01EA
:104300000E94EB15E2E7F0E288EE93E0A0E0B0E077
:1043100086839783A087B18712868FE696E194877C
:1043200083870E94D14FECE5F0E200E911E0B8018B
:104330000E94144F8C599F4F092E000CAA0BBB0BE7
:1043400086839783A087B187128681E696E194875A
:1043500083870E94D14FE1E3F0E2B8010E94144F3D
:104360008C599F4F092E000CAA0BBB0B8683978399
:10437000A087B18712868FE996E194878387EAEE5A
:10438000F0E288E893E1A0E0B0E086839783A0871D
:10439000B187C2872AE936E134872387E9EDF0E265
:1043A00086839783A087B187128683E796E19487F7
:1043B00083870E94A93940DF6091942070919520F5
:1043C000809196200E944E0B811108C0E4E0F0E23B
:1043D000178286E0838B0E94073303C081E08093BD
:1043E0000B20CF911F910F9108958091002181FFA3
:1043F0000EC084E080935A201092552010925420D1
:104400000E9485028AEE90E20C94EB15089581E0FB
:1044100080935A2008950F93062F292F482F65E483
:104420008EEA53D18AE090E063D00F91089582E044
:1044300090E10E94DA308093002184E090E10E94B4
:10444000DA308093FB2083E090E10E94DA308093A1
:10445000FE1F8091002180FF2EC061E08CEF9FE065
:10446000DADF60E08DEF9FE0D6DF60E18EEF9FE066
:10447000D2DF60E08FEF9FE0CEDF64E380E090E189
:10448000CADF62E181E090E1C6DF6FE883E090E19E
:10449000C2DF66E684E090E1BEDF9CD1809100211E
:1044A0008E7F809300216091002182E090E1B3DF54
:1044B0008AE090E01DC008951F93CF93DF93D82F1B
:1044C000192F41E0480F292F65E48FEA29D1C82F21
:1044D000212F4D2F65E48FEA23D12C2F30E0322F8E
:1044E0002227A901482BCA01DF91CF911F9108957E
:1044F00028EE33E0AC01429FC001439F900D529FD4
:10450000900D1124009739F020E030E02F5F3F4FED
:1045100028173907D9F708950F931F93CF93DF9387
:1045200000D000D0CDB7DEB7BE016F5F7F4F96E001
:10453000FB0111929A95E9F708E418EE21E030E0CA
:1045400009831A832B833C838E8388E18D8388EBD8
:1045500090E00E94170426960FB6F894DEBF0FBEB7
:10456000CDBFDF91CF911F910F910895EF92FF92F0
:104570000F931F93CF93DF93CDB7DEB72A970FB674
:10458000F894DEBF0FBECDBFF9019E012F5F3F4FF4
:1045900079012AE0D7011D922A95E9F74983DC01C8
:1045A0003C913A83462F50E05E834D83F887EF833A
:1045B00010E01A8709876130C9F0623029F411963A
:1045C0008C918A833B8312C0633081F4FC0121818A
:1045D0002B8382818C830AC081E090E089DF1150B7
:1045E00031F481E00E94F43881E00AC01AE0BE0193
:1045F0006F5F7F4F88EB90E00E94B6038111ECCF94
:104600002A960FB6F894DEBF0FBECDBFDF91CF91D3
:104610001F910F91FF90EF900895EF92FF920F93EB
:104620001F93CF93DF93CDB7DEB72A970FB6F894D9
:10463000DEBF0FBECDBFF9019E012F5F3F4F790155
:104640002AE0D7011D922A95E9F74983DC013C91C4
:104650003A83462F50E05E834D83F887EF8310E066
:104660001A8709876130C9F0623029F411968C915C
:104670008A833B8312C0633081F4FC0121812B8348
:1046800082818C830AC081E090E032DF115031F4E6
:1046900081E00E94F43883E00BC01AE0BE016F5F36
:1046A0007F4F88EB90E00E94E2038111ECCF82E023
:1046B0002A960FB6F894DEBF0FBECDBFDF91CF9123
:1046C0001F910F91FF90EF900895FF920F931F930A
:1046D000CF93DF9300D0CDB7DEB7182F653419F034
:1046E000FF24F39403C06894FF24F1F849832A83DC
:1046F0000B83812F11DF01E09E012D5F3F4F412F82
:104700006F2DCE01019632DF85E090E0F1DE0F9053
:104710000F900F90DF91CF911F910F91FF9008950F
:10472000FF920F931F93CF93DF9300D01F92CDB7CB
:10473000DEB7182F653419F0FF24F39403C0689492
:10474000FF24F1F849832A831B821C82812FE4DE37
:1047500001E09E012D5F3F4F412F6F2DCE0101964D
:104760005CDF8B810F900F900F900F90DF91CF91B6
:104770001F910F91FF9008950F93CF93DF9300D077
:104780001F92CDB7DEB719821A821B821C8280E984
:10479000C3DE00E020E030E040E961E0CE010196B8
:1047A000E5DE811109C002E09E012D5F3F4F41E926
:1047B00061E0CE01019631DF8B8190E0880F991F77
:1047C000959587950F900F900F900F90DF91CF9157
:1047D0000F9108950F93CF93DF93C0E0D0E00FEFD8
:1047E0002D2F4C2F65E48EEA70DF8AE090E080DEAA
:1047F000A8952196CC3F8FE0D80789F710920D211C
:1048000010920C21DF91CF910F910895CF93DF93F8
:10481000C0E0D0E0CE010E94DA308F3F29F4D0937F
:104820000D21C0930C2105C02B96CC3F8FE0D807FB
:1048300089F7DF91CF9108956FEF0C94643208955A
:104840002F923F924F925F926F927F928F929F92A0
:10485000AF92BF92CF92DF92EF92FF920F931F938E
:10486000CF93DF93CDB7DEB76E970FB6F894DEBF68
:104870000FBECDBF81113FC080910C2190910D21C1
:104880008C3F9F4020F010920D2110920C214091FE
:104890000C2120910D2103E465E48EEA16DF80915E
:1048A0000C2190910D21019690930D2180930C2164
:1048B0008AE090E01DDE80910C2190910D218C3FCB
:1048C0009F4020F010920D2110920C2140910C215C
:1048D00020910D2103E565E48EEAF7DE80910C213D
:1048E00090910D21019690930D2180930C218AE0E7
:1048F00090E0FEDD0CC2813009F03FC080910C21B8
:1049000090910D218C3F9F4020F010920D2110922C
:104910000C2140910C2120910D2103E465E48EEAE5
:10492000D4DE80910C2190910D21019690930D2160
:1049300080930C218AE090E0DBDD80910C21909146
:104940000D218C3F9F4020F010920D2110920C21E0
:1049500040910C2120910D2105E465E48EEAB5DE3D
:1049600080910C2190910D21019690930D218093BF
:104970000C218AE090E0BCDDCAC1823009F03FC062
:1049800080910C2190910D218C3F9F4020F010923E
:104990000D2110920C2140910C2120910D2104E455
:1049A00065E48EEA92DE80910C2190910D210196B2
:1049B00090930D2180930C218AE090E099DD809105
:1049C0000C2190910D218C3F9F4020F010920D21E1
:1049D00010920C2140910C2120910D2103E565E4FA
:1049E0008EEA73DE80910C2190910D2101969093B7
:1049F0000D2180930C218AE090E07ADD88C183301C
:104A000009F03FC080910C2190910D218C3F9F4077
:104A100020F010920D2110920C2140910C21209138
:104A20000D2104E465E48EEA50DE80910C21909122
:104A30000D21019690930D2180930C218AE090E046
:104A400057DD80910C2190910D218C3F9F4020F0EB
:104A500010920D2110920C2140910C2120910D21DA
:104A600005E465E48EEA31DE80910C2190910D2100
:104A7000019690930D2180930C218AE090E038DD1F
:104A800046C1843009F03FC080910C2190910D21E6
:104A90008C3F9F4020F010920D2110920C214091EC
:104AA0000C2120910D2105E465E48EEA0EDE809153
:104AB0000C2190910D21019690930D2180930C2152
:104AC0008AE090E015DD80910C2190910D218C3FC2
:104AD0009F4020F010920D2110920C2140910C214A
:104AE00020910D2103E565E48EEAEFDD80910C2134
:104AF00090910D21019690930D2180930C218AE0D5
:104B000090E0F6DC04C1853009F03FC080910C21B3
:104B100090910D218C3F9F4020F010920D2110921A
:104B20000C2140910C2120910D2105E465E48EEAD1
:104B3000CCDD80910C2190910D21019690930D2157
:104B400080930C218AE090E0D3DC80910C2190913D
:104B50000D218C3F9F4020F010920D2110920C21CE
:104B600040910C2120910D2105E465E48EEAADDD34
:104B700080910C2190910D21019690930D218093AD
:104B80000C218AE090E0B4DCC2C0863009F03FC05E
:104B900080910C2190910D218C3F9F4020F010922C
:104BA0000D2110920C2140910C2120910D2102E445
:104BB00065E48EEA8ADD80910C2190910D210196A9
:104BC00090930D2180930C218AE090E091DC8091FC
:104BD0000C2190910D218C3F9F4020F010920D21CF
:104BE00010920C2140910C2120910D2103E465E4E9
:104BF0008EEA6BDD80910C2190910D2101969093AE
:104C00000D2180930C218AE090E072DC80C0873017
:104C100009F03FC080910C2190910D218C3F9F4065
:104C200020F010920D2110920C2140910C21209126
:104C30000D2102E465E48EEA48DD80910C2190911B
:104C40000D21019690930D2180930C218AE090E034
:104C50004FDC80910C2190910D218C3F9F4020F0E2
:104C600010920D2110920C2140910C2120910D21C8
:104C700004E465E48EEA29DD80910C2190910D21F8
:104C8000019690930D2180930C218AE090E030DC16
:104C90003EC080910C2190910D218C3F9F4020F0CF
:104CA00010920D2110920C2140910C2120910D2188
:104CB0000EE465E48EEA09DD80910C2190910D21CE
:104CC000019690930D2180930C218AE090E010DCF6
:104CD00080910C2190910D218C3F9F4020F01092EB
:104CE0000D2110920C2140910C2120910D210EE4F8
:104CF00065E48EEAEADC80910C2190910D21019609
:104D000090930D2180930C218AE090E0F1DB80915B
:104D10000F2080930B210E94A0396B017C014F2D45
:104D20005527662777274E2C8D2CA0912320E0E86D
:104D3000AE9FD0011124809108208170A82B809112
:104D40000720817089831A8289819A81880F991F2F
:104D50009A2F982B80910B2080FB222420F8312C55
:104D6000220C331C220C331C292AA4E0B0E28C91C3
:104D700081708B831C82EB81FC81EE0FFF1FEE0F95
:104D8000FF1FEE0FFF1F822D8E2B90910920917037
:104D90009D831E822D813E8122953295307F322760
:104DA000207F3227282E222A8091142081708F8321
:104DB00018868F819885880F991F82959295907F8C
:104DC0009827807F9827822990910C20917099874D
:104DD0001A8629843A8400243694279407943694BA
:104DE00027940794322C202C282AA0912B20E0E82D
:104DF000AE9FD00111248091162087708A2B90914C
:104E00000F2091709B871C86EB85FC85EE0FFF1FA2
:104E1000EE0FFF1FEE0FFF1F8E2B9091122091704F
:104E20009D871E862D853E8522953295307F3227BF
:104E3000207F3227282B8091292081708F87188A24
:104E40008F859889880F991F82959295907F9827D2
:104E5000807F9827822B90912A209170998B1A8AB3
:104E600029893A8900243695279507943695279500
:104E70000794322F202D182F122B8091252081701E
:104E80008B8B1C8AEB89FC89EE0FFF1F80912620FB
:104E900081708D8B1E8A8D899E89880F991F880F3E
:104EA000991F8E2BE0912420E1708E2B909127206A
:104EB00091709F8B188EEF89F88DEE0FFF1FEE0F0C
:104EC000FF1FEE0FFF1F8E2B909128209170998F5E
:104ED0001A8E298D3A8D22953295307F3227207F88
:104EE0003227282B80910D2081708B8F1C8E8B8D0B
:104EF0009C8D880F991F82959295907F9827807F2F
:104F00009827822B90910E2091709D8F1E8E2D8D53
:104F10003E8D00243695279507943695279507945E
:104F2000322F202D382E322A80910C2190910D2184
:104F30008C3F9F4020F010920D2110920C21809107
:104F40000C2120910D21042F482F65E48EEABDDB52
:104F500080910C2190910D21019690930D218093C9
:104F60000C218AE090E0C4DA80910C2190910D210F
:104F70008C3F9F4020F010920D2110920C21409107
:104F80000C2120910D21042D65E48EEA9EDB809199
:104F90000C2190910D21019690930D2180930C216D
:104FA0008AE090E0A5DA80910C2190910D218C3F50
:104FB0009F4020F010920D2110920C2140910C2165
:104FC00020910D21082D65E48EEA7FDB80910C2174
:104FD00090910D21019690930D2180930C218AE0F0
:104FE00090E086DA80910C2190910D218C3F9F40BA
:104FF00020F010920D2110920C2140910C21209153
:105000000D210C2D65E48EEA60DB80910C219091DE
:105010000D21019690930D2180930C218AE090E060
:1050200067DA80910C2190910D218C3F9F4020F0F8
:1050300010920D2110920C2140910C2120910D21F4
:105040000091052065E48EEA40DB80910C2190916F
:105050000D21019690930D2180930C218AE090E020
:1050600047DA80910C2190910D218C3F9F4020F0D8
:1050700010920D2110920C2140910C2120910D21B4
:1050800000910A2065E48EEA20DB80910C2190914A
:105090000D21019690930D2180930C218AE090E0E0
:1050A00027DA80910C2190910D218C3F9F4020F0B8
:1050B00010920D2110920C2140910C2120910D2174
:1050C000022D65E48EEA01DB80910C2190910D2187
:1050D000019690930D2180930C218AE090E008DAEC
:1050E00080910C2190910D218C3F9F4020F01092D7
:1050F0000D2110920C2140910C2120910D21012FA6
:1051000065E48EEAE2DA80910C2190910D210196FE
:1051100090930D2180930C218AE090E0E9D9809151
:105120000C2190910D218C3F9F4020F010920D2179
:1051300010920C2140910C2120910D21032D65E44A
:105140008EEAC3DA80910C2190910D210196909303
:105150000D2180930C218AE090E0CAD980910C2126
:1051600090910D218C3F9F4020F010920D211092C4
:105170000C2180910C2190910D215EDB8AE090E062
:10518000B7D96E960FB6F894DEBF0FBECDBFDF91D4
:10519000CF911F910F91FF90EF90DF90CF90BF9034
:1051A000AF909F908F907F906F905F904F903F90C7
:1051B0002F9008950F931F93CF93FC016081662376
:1051C00069F08C01C0E088EC90E00E94FC05CF5FA4
:1051D000F801EC0FF11D60816111F5CFCF911F91A6
:1051E0000F9108959091D820992319F09130B9F03A
:1051F0000895E6E8F0E223E930E290E29193E217C5
:10520000F307E1F78B3521F481E08093D8200895EE
:105210008D3519F5109269201092D82008958D359A
:1052200041F4109269201092D82081E080934520AB
:105230000895909169209D3048F4E92FF0E0EA57F5
:10524000FF4D80839F5F909369200895109269209D
:105250001092D82088E193E0ADCF0895CF93C82F66
:10526000682F62956F706A3010F0695C01C0605DF4
:1052700088EC90E00E94FC05CF70CA3018F067E31C
:105280006C0F02C060E36C0F88EC90E00E94FC059C
:10529000CF91089510924520E09186208E2F90E0C6
:1052A000FC01F197E930F105B0F48827ED59FE4F84
:1052B0008F4F0C94494F82E0089583E0089584E075
:1052C000089585E0089586E0089587E0089588E0D0
:1052D000089589E0089588E393E06CDF80E0089505
:1052E00081E0089510924520809186208133A1F0BD
:1052F00018F4803351F00BC0823319F0833319F066
:1053000006C082E0089583E0089584E0089588E36C
:1053100093E050DF85E0089581E008950F931F9397
:10532000CF93FC016081662369F08C01C0E088ECBA
:1053300090E00E94FC05CF5FF801EC0FF11D608149
:105340006111F5CFCF911F910F910895CF93C62F83
:10535000E5DF8AE493E02EDF8C2F80DFCF91089584
:105360009F92AF92BF92CF92DF92EF92FF920F93F4
:105370001F93CF93DF93F62E6A0121E02093AB2099
:1053800010924520182FB92EC6E8D0E2AA24A39483
:10539000A80E5BC0309145203130E1F781E3F8166B
:1053A00021F082E3F816F1F04DC088810E94E138C7
:1053B000E82E89810E94E138EE0CEE0CEE0CEE0C2A
:1053C000E82A0E2D2B2D412F65E48EEA7ED96E2D15
:1053D000C601BCDF8AE090E08BD81092AB2010921F
:1053E000452033C088810E94E138E82E89810E94DF
:1053F000E138EE0CEE0CEE0CEE0CE82A0E2D2B2D07
:105400004A2D65E48EEA61D98A810E94E138982E9E
:105410008B810E94E138082F6E2DC60197DFE92CA1
:10542000EE0CEE0CEE0CEE0CE02A0E2D2B2D412F87
:1054300065E48FEA4AD98E2D11DF1092AB201092CD
:10544000452003C087E593E0B5DE3091AB203130D5
:1054500009F4A0CFDF91CF911F910F91FF90EF90B2
:10546000DF90CF90BF90AF909F900895809146209D
:10547000823051F128F4882359F08130C9F041C0BD
:10548000843009F439C060F1853009F43FC039C077
:1054900084E893E08FDE82EB93E08CDE85E296E099
:1054A00089DE81E080937F2085E080934620089507
:1054B00080E094E07FDE41E858E062E38CEF9FE01B
:1054C0004FDF1092462008958DE194E073DE42E7AD
:1054D00058E062E38EEF9FE043DF1092462008958C
:1054E0008AE394E067DE44E658E062E380E090E11E
:1054F00037DF10924620089510927F2086E594E0D1
:1055000059DE89E080935B20109246200895109226
:10551000452080918620823361F028F4803389F021
:105520008133B1F010C0843341F028F0853339F075
:105530000AC082E0089583E0089584E0089585E03C
:10554000089587E0089588E393E034DE86E00895C7
:1055500081E00895DF92EF92FF920F931F93CF9314
:10556000DF938091472090E08A30910508F0EFC5E5
:10557000FC018827E459FE4F8F4F0C94494F6091EE
:105580004D2070914E2080914F200E94DB09609148
:105590006F2070917020809171200E94DB096091D2
:1055A000812070918220809183200E94DB0960918C
:1055B000512070915220809153200E94DB0960910C
:1055C0002E2070912F20809130200E94DB09609165
:1055D000022170910321809104210E94DB096091D6
:1055E00008217091092180910A210E94DB098AE635
:1055F00094E0E0DD89E997E0DDDD6091FC207091C9
:10560000FD208091FE200E944E0B882351F0609176
:10561000FC207091FD208091FE200E944E0B811194
:10562000F6CF6091F7207091F8208091F9200E94C8
:105630004E0BE82E60914A2070914B2080914C20B7
:105640000E944E0BD82E6091A8207091A9208091C5
:10565000AA200E944E0BF82E60910020709101202C
:10566000809102200E944E0B082F6091572070916C
:105670005820809159200E944E0B182F60913E2097
:1056800070913F20809140200E944E0BD82F609156
:10569000E7207091E8208091E9200E944E0BC82FEE
:1056A0006091A5207091A6208091A7200E944E0BAA
:1056B00021E0D11020E091E0E11090E0292B91E071
:1056C000F11090E0922B21E0011120E0292B91E0D4
:1056D000111190E0922B21E0D11120E0292B91E0D3
:1056E000C11190E0922B29F491E0811190E099236F
:1056F00049F087E794E05EDD83E894E05BDD10929B
:10570000472025C560914D2070914E2080914F20FB
:105710000E94970980EA94E04DDD81E08093472064
:1057200016C58AE694E046DD8CEA94E043DD60919C
:10573000F7207091F8208091F9200E944E0B882369
:1057400051F06091F7207091F8208091F9200E942B
:105750004E0B8111F6CF6091FC207091FD2080915D
:10576000FE200E944E0BE82E60914A2070914B2043
:1057700080914C200E944E0BD82E6091A8207091F1
:10578000A9208091AA200E944E0BF82E6091002043
:1057900070910120809102200E944E0B082F609191
:1057A000572070915820809159200E944E0B182F3D
:1057B00060913E2070913F20809140200E944E0BCE
:1057C000D82F6091E7207091E8208091E9200E9415
:1057D0004E0BC82F6091A5207091A6208091A72024
:1057E0000E944E0B21E0D11020E091E0E11090E00A
:1057F000292B91E0F11090E0922B21E0011120E0A3
:10580000292B91E0111190E0922B21E0D11120E0A1
:10581000292B91E0C11190E0922B29F491E08111A4
:1058200090E0992349F087E794E0C4DC83E894E0B2
:10583000C1DC109247208BC460916F207091702062
:10584000809171200E94970980EA94E0B3DC82E0A5
:10585000809347207CC48AE694E0ACDC8EE392E03F
:10586000A9DC60914A2070914B2080914C200E94CD
:105870004E0B882351F060914A2070914B2080910B
:105880004C200E944E0B8111F6CF6091FC2070914C
:10589000FD208091FE200E944E0BE82E6091F720A3
:1058A0007091F8208091F9200E944E0BD82E6091C3
:1058B000A8207091A9208091AA200E944E0BF82E5A
:1058C0006091002070910120809102200E944E0B77
:1058D000082F6091572070915820809159200E9484
:1058E0004E0B182F60913E2070913F2080914020F8
:1058F0000E944E0BD82F6091E7207091E820809194
:10590000E9200E944E0BC82F6091A5207091A6201F
:105910008091A7200E944E0B21E0D11020E091E061
:10592000E11090E0292B91E0F11090E0922B21E022
:10593000011120E0292B91E0111190E0922B21E040
:10594000D11120E0292B91E0C11190E0922B29F494
:1059500091E0811190E0992349F087E794E02ADCF7
:1059600083E894E027DC10924720F1C36091812006
:1059700070918220809183200E94970980EA94E0B0
:1059800019DC83E080934720E2C38AE694E012DCCE
:105990008EEA94E00FDC6091A8207091A92080919C
:1059A000AA200E944E0B882351F06091A82070918C
:1059B000A9208091AA200E944E0B8111F6CF609100
:1059C000FC207091FD208091FE200E944E0BE82E5D
:1059D0006091F7207091F8208091F9200E944E0B81
:1059E000D82E60914A2070914B2080914C200E94CB
:1059F0004E0BF82E609100207091012080910220C2
:105A00000E944E0B082F6091572070915820809172
:105A100059200E944E0B182F60913E2070913F201C
:105A2000809140200E944E0BD82F6091E72070910A
:105A3000E8208091E9200E944E0BC82F6091A5209C
:105A40007091A6208091A7200E944E0B21E0D110DA
:105A500020E091E0E11090E0292B91E0F11090E03E
:105A6000922B21E0011120E0292B91E0111190E00F
:105A7000922B21E0D11120E0292B91E0C11190E07F
:105A8000922B29F491E0811190E0992349F087E766
:105A900094E090DB83E894E08DDB1092472057C3BD
:105AA0006091512070915220809153200E9497095B
:105AB00080EA94E07FDB84E08093472048C38AE655
:105AC00094E078DB80EB94E075DB609100207091CE
:105AD0000120809102200E944E0B882351F060919A
