S00F0000504E4557454C532E73726563F7
S113000099C100000C9421080C944E080C947B08B0
S11300100C94A8080C94D5080C9402090C942F098C
S11300200C945C090C9489090C94B609A3C10000D2
S1130030A1C100009FC100009DC100000C94ED3AD5
S113004099C1000097C1000095C1000093C1000050
S113005091C100008FC100008DC100000C94BF3A13
S113006089C1000087C1000085C1000083C1000070
S113007081C100007FC100007DC100007BC1000080
S113008079C1000077C1000075C1000073C1000090
S11300906CC700006FC100006DC10000C0C4000047
S11300A069C1000067C100000C94BD0C63C100006D
S11300B061C100005FC100005DC100005BC10000C0
S11300C059C1000057C1000055C1000053C10000D0
S11300D051C100004FC100004DC100004BC10000E0
S11300E049C1000047C1000045C1000043C10000F0
S11300F041C100003FC100003DC100003BC1000000
S113010039C1000037C1000035C1000033C100000F
S113011031C100002FC100002DC100002BC100001F
S113012029C1000027C1000025C1000023C100002F
S113013021C10000BA05B606B606B606B606B6066E
S1130140B606B6063105B606B606B606B606B60651
S1130150B606B6063105B606B606B606B606B60641
S1130160B606B6065605B606B606B606B606B6060C
S1130170B606B606BA05B606B606B606B606B60698
S1130180B606B6065605B606B606B606B606B606EC
S1130190B606B606BA05B606B606B606B606B60678
S11301A0B606B6064706B606B606B606B606B606DA
S11301B0B606B606BF05B606B606B606B606B60653
S11301C0B606B606BA05B606B606B606B606B60648
S11301D0B606B606E805B606B606B606B606B6060A
S11301E0B606B6062006B606B606B606B606B606C1
S11301F0B606B6067B06B606B606B606B606B60656
S1130200B606B6067B06B606B606B606B606B60645
S1130210B606B6067B06B606B606B606B606B60635
S1130220B606B6067B06B606B606B606B606B60625
S1130230B606B6068506B606B606B606B606B6060B
S1130240B606B606AA06B606B606B606B606B606D6
S1130250B606B6068506B606B606B606B606B606EB
S1130260B606B606AA06B606B606B606B606B606B6
S1130270B606B6069E06B606B606B606B606B606B2
S1130280B606B6065006B606B606B606B606B606F0
S1130290B606B6065006B606B606B606B606B606E0
S11302A0B606B6065406B606B606B606B606B606CC
S11302B0B606B6066F06B606B606B606B606B606A1
S11302C0B606B606AA06BD195B193C1B8D1AD61BC9
S11302D0991B871CFB2AE62AE82AEA2AEC2AEE2A3A
S11302E0F02AF22AF42A4A2C1C2DB62D502EEA2E7E
S11302F0842F1E30B83062312F324633593367337E
S1130300773387339B33B933A833EA34ED3410356C
S1130310EF341335153517351935F1349A37A337BA
S1130320B737AD37C137CB37D537DF37E937FD3787
S11303300738F33711241FBECFEFD1E8DEBFCDBF9E
S113034000E00CBF19E0A0E0B2E0EEE6F3EA00E062
S11303500BBF02C007900D92A63BB107D9F723E269
S1130360A6EBB9E001C01D92A637B207E1F73ED66D
S11303700C94B55145CEF999FECF92BD81BDF89A42
S113038080B50895EF92FF920F931F93CF93DF935D
S11303904115510579F08B01040F151FEB017C0108
S11303A0E61AF70AC7018C0F9D1FE5DF8993C01772
S11303B0D107C1F7DF91CF911F910F91FF90EF907B
S11303C00895EF92FF920F931F93CF93DF93CDB7CE
S11303D0DEB761970FB6F894DEBF0FBECDBF4AE219
S11303E050E064ED70E280E090E0CCDF8091FA2090
S11303F09091FB20A091FC20B091FD2081349C467B
S1130400A546B84709F47BC081E1E7E1F2E0DE01EB
S1130410119601900D928A95E1F70F2EFCE2EF2ED2
S1130420F0E2FF2EF02DF701638D748D8CEF9FE0C9
S11304300E94E72304ED10E2F80191838083F70121
S1130440658D768D80E090E10E94E723F801958325
S11304508483F701618D728D8EEF9FE00E94E72304
S1130460F8019383828340E250E060E270E08AED19
S113047090E20E9492518BE0EBE0F2E0AAEDB0E250
S113048001900D928A95E1F7F80180819181FC0138
S1130490EF2FFF27E295EF7021E030E02C0F3D1F96
S11304A0E20FF31F2081F8012587E92FFF27EF7062
S11304B0FF2721E030E02C0F3D1FE20FF31F2081C6
S11304C0F8012687FC01F295E295EF70EF27FF70A3
S11304D0EF27EF70FF2721E030E02C0F3D1FE20FE4
S11304E0F31F2081F80127878F709927E1E0F0E05E
S11304F0EC0FFD1FE80FF91F8081F801808B6196D6
S11305000FB6F894DEBF0FBECDBFDF91CF911F9120
S11305100F91FF90EF900895CF93DF934AE250E05C
S113052064ED70E280E090E02DDF8091FA209091FC
S1130530FB20A091FC20B091FD2081349C46A5466F
S1130540B84711F1C4EDD0E28FEF9FEF9983888310
S11305509D838C838FE090E09B838A8340E250E00C
S113056060E270E08AED90E20E9492518BE0EBE051
S1130570F2E0AAEDB0E201900D928A95E1F786E6E9
S11305808D878E878F87888BEBD0DF91CF910895ED
S1130590EF92FF920F931F93CF93DF93CDB7DEB704
S11305A061970FB6F894DEBF0FBECDBF4AE250E0AC
S11305B064ED70E280E090E0E5DE8091FA209091B5
S11305C0FB20A091FC20B091FD2081349C46A546DF
S11305D0B84709F46CC081E1E7E1F2E0DE0111966D
S11305E001900D928A95E1F760914720709148201F
S11305F08CEF9FE00E94E7238C010F2EF4EDEF2E89
S1130600F0E2FF2EF02DF701918380838FEF9FEFAF
S11306109583848380E190E09383828340E250E079
S113062060E270E08AED90E20E9492518BE0EBE090
S1130630F2E0AAEDB0E201900D928A95E1F7F8019B
S1130640EF2FFF27E295EF7081E090E08C0F9D1F64
S1130650E80FF91F8081F7018587E12FFF27EF70ED
S1130660FF2781E090E08C0F9D1FE80FF91F808128
S1130670F7018687F801F295E295EF70EF27FF7096
S1130680EF27EF70FF2781E090E08C0F9D1FE80FAC
S1130690F91F8081F70187870F701127E1E0F0E0EF
S11306A0EC0FFD1FE00FF11F8081F701808BD9D083
S11306B061960FB6F894DEBF0FBECDBFDF91CF9128
S11306C01F910F91FF90EF90089529E0883B9207C6
S11306D069F049E35AE0BC0121E04617570739F0B5
S11306E02F5F4F575F4F2431C1F701C020E0FC0159
S11306F0378531110EC030E0F901F695FE2FEE2753
S1130700F795E7952E0F3F1FF901EA54F64F108233
S1130710089530E0F901F695FE2FEE27F795E79559
S1130720E20FF31FEA54F64F4181415041834423C1
S113073019F00C94270D0895F901F695FE2FEE2774
S1130740F795E7952E0F3F1FF901EA54F64F1082F3
S11307500895FC016185878190850C940D1E089590
S1130760CF93DF93C4EDD0E2888199810E94E50C98
S11307708C819D810E94EB0C8A810E94B51481E0DA
S11307800E94B11488E292E00E942B1169EA73E09E
S113079081E00E94F10CA6EBB9E0E1ECF9E065ED33
S11307A073E181E093E045E653E01C9218961C92B5
S11307B01E921797EF01229788832196888390834E
S11307C09F01285F3F4F3283218355834483AF5772
S11307D0BF4FEF57FF4FE617F70739F70E94AB1CDF
S11307E0DF91CF9108958091B609882359F0E7E30A
S11307F0FAE06AEC73E181E090E0AC012081211120
S113080018C002C040E050E0FA01F695FE2FEE2732
S1130810F795E7954E0F5F1FFA01EA54F64F81E012
S11308208083DF01A058BF4F1C9281838E2F9F2F9E
S113083008950196EF57FF4FE617F707F1F680E0AA
S113084090E00895FC01E058FF4F2081222331F00D
S1130850FC01268702960C94270D0895FC01108252
S11308600895CF93DF93C4EDD0E2888199810E94EB
S1130870E50C8C819D810E94EB0C8A810E94B51449
S113088081E00E94B11488E292E00E942B1169EA8F
S113089073E081E00E94F10CA6EBB9E0E1ECF9E031
S11308A065ED73E181E097E045E653E01C9218960C
S11308B01C921E921797EF012297888321968883B2
S11308C090839F01285F3F4F328321835583448364
S11308D0AF57BF4FEF57FF4FE617F70739F7DF91D1
S11308E0CF910895CF93DF9370E09C01260F371FBB
S11308F0F9013297C081D0E0DC2FCC2731962081DA
S1130900C22B6250710926E030E049E352E00E94B4
S1130910825021E0C817D90709F020E0822FDF9127
S1130920CF91089581E08093D9131092CB1380E97D
S11309308093BC0008956115710529F18091CB1352
S1130940811123C0E3EDF3E171836083138212828A
S11309501582148281E08093CB13FB0184819581FD
S1130960892B21F484E08093D91303C082E080931F
S1130970D91385EA8093BC008091CB138111FCCFFD
S11309808091DA13089588EF089580E808957093AC
S1130990D4136093D3136115710541F1FB01808574
S11309A09185892B29F18091CB13811123C0E3ED2B
S11309B0F3E1138212821582148281E08093CB13B7
S11309C0FB0184819581892B21F485E08093D913DF
S11309D003C083E08093D91385EA8093BC0080919F
S11309E0CB138111FCCF8091DA13089588EF089519
S11309F088EF089580E80895F894ECEBF0E0108215
S1130A001092B900DB0114968C918093B800808118
S1130A108160808378941092CA1380E008951F92B5
S1130A200F920FB60F9211240BB60F922F933F9390
S1130A304F935F936F937F938F939F93AF93BF93E2
S1130A40EF93FF938091B900887F90E0893C9105F2
S1130A5008F08CC1FC018827E656FF4F8F4F0C9499
S1130A60E6508091D9139EEF980F933060F4E09193
S1130A70D313F091D41380818E7F8093BB0085E8DB
S1130A808093BC008BC1853061F4E091D313F09165
S1130A90D413808181608093BB0085E88093BC007F
S1130AA07DC140DF8BEF8093DA1378C18091D91335
S1130AB0843051F5E3EDF3E1848195810190F08177
S1130AC0E02D208531858217930798F4268137819C
S1130AD0AC014F5F5F4F5093D8134093D713F90184
S1130AE0E80FF91F80818093BB0085E88093BC00E8
S1130AF055C184E98093BC00E3EDF3E181E0868392
S1130B0017821092CB134AC19EEF980F923038F59A
S1130B10E3EDF3E182819381A081B181A80FB91F34
S1130B2011962C910196938382832093BB0025E830
S1130B302093BC000190F081E02D24813581281799
S1130B40390709F02BC18091D913823021F484E054
S1130B508093D91323C185E08093D9131FC18530B5
S1130B6021F485EA8093BC0019C1DCDE8BEF80930D
S1130B70DA1314C1D7DE8FEF8093DA130FC180919B
S1130B80D913853001F5E3EDF3E1A081B181189625
S1130B908D919C91199701972481358128173907E4
S1130BA049F4ECEBF0E080818F7B80838081856861
S1130BB08083F4C0ECEBF0E08081806480838081EA
S1130BC085688083EBC0AEDE8BEF8093DA13E6C0DA
S1130BD02091BB008091D913853069F5E3EDF3E1F1
S1130BE0A081B18116966D917C911797848195812E
S1130BF0AC014F5F5F4F55834483FB01E80FF91F3E
S1130C00208318968D919C9119970197481759073D
S1130C1048F4ECEBF0E08081806480838081856817
S1130C208083BCC0ECEBF0E080818F7B808380818B
S1130C3085688083B3C076DE8BEF8093DA13AEC011
S1130C402091BB008091D9138530E1F4E3EDF3E109
S1130C50A081B18116964D915C91179784819581FD
S1130C60BC016F5F7F4F75836483DA01A80FB91FDE
S1130C702C9384E98093BC0081E0868317821092D0
S1130C80CB138CC04FDE8BEF8093DA1387C0E3ED78
S1130C90F3E181E0868386EF87831092CB137EC0D5
S1130CA01092CF131092CE13ECECF3E1A081B1813A
S1130CB012962D913C91139782819381AC014F5FE1
S1130CC05F4F53834283D901A80FB91F8C9180933E
S1130CD0BB0085EC8093BC0088E084835FC0ECECAF
S1130CE0F3E181E0848382E090E09683858385EC60
S1130CF08093BC0053C0ECECF3E11382128285ECC8
S1130D008093BC0088E0848349C02091BB00ECEC54
S1130D10F3E1A081B1814D915C9182819381BC0109
S1130D206F5F7F4F73836283DA01A80FB91F2C931F
S1130D3085EC8093BC0088E0848330C0ECECF3E164
S1130D4081E0848383E090E09683858385EC8093BF
S1130D50BC0024C0ECECF3E181E0848380E980935F
S1130D60BC008FEF9FEF9683858318C08091CA13D0
S1130D70811109C0E3EDF3E181E086838BEF878382
S1130D801092CB130BC0ECECF3E18EEF9FEF968344
S1130D90858381E0848385EC8093BC00FF91EF918F
S1130DA0BF91AF919F918F917F916F915F914F917F
S1130DB03F912F910F900BBE0F900FBE0F901F907D
S1130DC018950F931F93CF93DF938C01D62FCAE00E
S1130DD00AC081E090E00E940324C15021F482E023
S1130DE00E94913A04C0F801908195FFF2CFF80176
S1130DF0D68380E0DF91CF911F910F9108958F9258
S1130E009F92AF92BF92CF92DF92EF92FF920F9395
S1130E101F93CF93DF93EC016A017B01B901A80111
S1130E20689412F876956795579547951694D1F777
S1130E30D901C801072E73E1B695A79597958795B3
S1130E407A95D1F7702DE881E1FF0BC04A015B016F
S1130E50B694A79497948794B695A79597958795F4
S1130E6002C04A015B018C149D04AE04BF0478F1F6
S1130E70C816D906EA06FB0660F1888181FF10C016
S1130E80CC0CDD1CEE1CFF1CCB01BA01A7019601A2
S1130E900E94C450DA01C9010197A109B10913C024
S1130EA0C901B801689413F8969587957795679565
S1130EB01694D1F7A70196010E94C450DA01C90122
S1130EC00197A109B1099D838C8381E003C080E06F
S1130ED001C080E0DF91CF911F910F91FF90EF90BF
S1130EE0DF90CF90BF90AF909F908F9008950F9315
S1130EF01F93CF93DF93EC01FB018A818F738A8365
S1130F002681358184819A81482F4370440F997FCB
S1130F10942B9A8399818470880F880F9B7F892BE7
S1130F2089838A818F7C832B8A838A81922F990F6C
S1130F30990F990F877F892B8A8340815181628120
S1130F40738100E012E12AE730E0CE0158DF998195
S1130F509860998399819061998399819068998324
S1130F60DF91CF911F910F9108951F920F920FB6A9
S1130F700F9211240BB60F922F933F934F935F93CD
S1130F806F937F938F939F93AF93BF93EF93FF934D
S1130F908091CE000E947D2AFF91EF91BF91AF9185
S1130FA09F918F917F916F915F914F913F912F917D
S1130FB00F900BBE0F900FBE0F901F90189580914D
S1130FC05420813021F48093BB20809355200895D0
S1130FD0F894A89599E288E10FB6F894A8958093BF
S1130FE060000FBE90936000789408950E94FF15EE
S1130FF00E94A223E6D9B4DBEBEDF3E180E197E2B2
S1131000A0E0B0E086839783A087B18781E08287E0
S11310108FED97E094878387CF010E94D0160E94BA
S113102012180E94C1228091282190E00E948023FE
S1131030CFDF86E080934D010E9408160E94091EAE
S1131040FBCF1F920F920FB60F9211240BB60F9283
S11310502F933F934F935F936F937F938F939F93BC
S1131060AF93BF93EF93FF93E091FA13F091FB13C7
S1131070309709F01995FF91EF91BF91AF919F912E
S11310808F917F916F915F914F913F912F910F902D
S11310900BBE0F900FBE0F901F9018951F920F92CA
S11310A00FB60F9211240BB60F922F933F934F93C9
S11310B05F936F937F938F939F93AF93BF93EF93BC
S11310C0FF93E091F813F091F913309709F0199513
S11310D0FF91EF91BF91AF919F918F917F916F910C
S11310E05F914F913F912F910F900BBE0F900FBEC8
S11310F00F901F9018951F920F920FB60F92112404
S11311000BB60F922F933F934F935F936F937F93FD
S11311108F939F93AF93BF93EF93FF93E091F61355
S1131120F091F713309709F01995FF91EF91BF9162
S1131130AF919F918F917F916F915F914F913F916B
S11311402F910F900BBE0F900FBE0F901F9018950C
S11311501F920F920FB60F9211240BB60F922F937A
S11311603F934F935F936F937F938F939F93AF932B
S1131170BF93EF93FF93E091F413F091F51330973D
S113118009F01995FF91EF91BF91AF919F918F91C4
S11311907F916F915F914F913F912F910F900BBE73
S11311A00F900FBE0F901F9018951F920F920FB6BD
S11311B00F9211240BB60F922F933F934F935F938B
S11311C06F937F938F939F93AF93BF93EF93FF930B
S11311D0E091F213F091F313309709F01995FF9110
S11311E0EF91BF91AF919F918F917F916F915F919B
S11311F04F913F912F910F900BBE0F900FBE0F9008
S11312001F9018951F920F920FB60F9211240BB6D0
S11312100F922F933F934F935F936F937F938F938B
S11312209F93AF93BF93EF93FF93E091F013F091EB
S1131230F113309709F01995FF91EF91BF91AF9198
S11312409F918F917F916F915F914F913F912F91DA
S11312500F900BBE0F900FBE0F901F9018951F920A
S11312600F920FB60F9211240BB60F922F933F9348
S11312704F935F936F937F938F939F93AF93BF939A
S1131280EF93FF93E091EE13F091EF13309709F091
S11312901995FF91EF91BF91AF919F918F917F919C
S11312A06F915F914F913F912F910F900BBE0F90D3
S11312B00FBE0F901F9018951F920F920FB60F92AA
S11312C011240BB60F922F933F934F935F936F9319
S11312D07F938F939F93AF93BF93EF93FF93E0918B
S11312E0EC13F091ED13309709F01995FF91EF91FC
S11312F0BF91AF919F918F917F916F915F914F912A
S11313003F912F910F900BBE0F900FBE0F901F9027
S113131018951F920F920FB60F9211240BB60F92CD
S11313202F933F934F935F936F937F938F939F93E9
S1131330AF93BF93EF93FF93E091EA13F091EB1314
S1131340309709F01995FF91EF91BF91AF919F915B
S11313508F917F916F915F914F913F912F910F905A
S11313600BBE0F900FBE0F901F9018951F920F92F7
S11313700FB60F9211240BB60F922F933F934F93F6
S11313805F936F937F938F939F93AF93BF93EF93E9
S1131390FF93E091E813F091E913309709F0199560
S11313A0FF91EF91BF91AF919F918F917F916F9139
S11313B05F914F913F912F910F900BBE0F900FBEF5
S11313C00F901F901895803111F4D99A0895D89AE6
S11313D00895803159F4E8E6F0E0808182608083EA
S11313E0ECE6F0E08081816080830895E8E6F0E037
S11313F0808181608083EBE6F0E0208181E090E0F1
S113140002C0880F991F7A95E2F7822B8083089592
S1131410803131F4ECE6F0E080818E7F80830895A2
S1131420EBE6F0E0208181E090E002C0880F991F94
S11314307A95E2F78095822380830895CF92DF9294
S1131440EF926B01E82EE4DF8E2DB60126D18E2DAE
S1131450B601C5D18E2DB601B6DF8E2DB601B9DF2A
S1131460EF90DF90CF900895982F811105C050938D
S1131470FB134093FA130895813029F45093F91320
S11314804093F8130895823029F45093F71340934E
S1131490F6130895833029F45093F5134093F4130D
S11314A00895843029F45093F3134093F21308956C
S11314B0853029F45093F1134093F0130895863046
S11314C029F45093EF134093EE130895873029F4D1
S11314D05093ED134093EC1308958850883028F40A
S11314E05093EB134093EA130895903121F45093F1
S11314F0E9134093E8130895623009F128F4662350
S113150041F0613089F00895633021F1643069F16C
S1131510089525B181E090E002C0880F991F7A9563
S1131520E2F7822B85B908952BB181E090E002C0E7
S1131530880F991F7A95E2F7822B8BB908952EB103
S113154081E090E002C0880F991F7A95E2F7822B20
S11315508EB9089521B381E090E002C0880F991FED
S11315607A95E2F7822B81BB089524B381E090E061
S113157002C0880F991F7A95E2F7822B84BB0895E5
S1131580623019F128F4662341F0613091F0089536
S1131590633039F1643089F1089525B181E090E038
S11315A002C0880F991F7A95E2F78095822385B946
S11315B008952BB181E090E002C0880F991F7A95BD
S11315C0E2F7809582238BB908952EB181E090E0F3
S11315D002C0880F991F7A95E2F7809582238EB90D
S11315E0089521B381E090E002C0880F991F7A9595
S11315F0E2F78095822381BB089524B381E090E0D3
S113160002C0880F991F7A95E2F78095822384BBE4
S11316100895623009F128F4662341F0613089F0BD
S11316200895633021F1643069F1089525B181E0B2
S113163090E002C0880F991F7A95E2F7822785B956
S113164008952BB181E090E002C0880F991F7A952C
S1131650E2F782278BB908952EB181E090E002C0B1
S1131660880F991F7A95E2F782278EB9089521B3DE
S113167081E090E002C0880F991F7A95E2F78227F3
S113168081BB089524B381E090E002C0880F991FC4
S11316907A95E2F7822784BB0895623061F128F4D9
S11316A0662349F06130B9F008956330A1F16430E4
S11316B009F441C0089524B181E090E002C0880F8C
S11316C0991F7A95E2F78095982F922394B995B152
S11316D0892385B908952AB181E090E002C0880F7A
S11316E0991F7A95E2F78095982F92239AB99BB126
S11316F089238BB908952DB181E090E002C0880F51
S1131700991F7A95E2F78095982F92239DB99EB1FF
S113171089238EB9089520B381E090E002C0880F38
S1131720991F7A95E2F78095982F922390BB91B3F5
S1131730892381BB089523B381E090E002C0880F20
S1131740991F7A95E2F78095982F922393BB94B3CF
S1131750892384BB0895623009F128F4662341F09B
S1131760613089F00895633021F1643069F108959E
S113177024B181E090E002C0880F991F7A95E2F7C6
S1131780822B84B908952AB181E090E002C0880FC9
S1131790991F7A95E2F7822B8AB908952DB181E0D9
S11317A090E002C0880F991F7A95E2F7822B8DB9D9
S11317B0089520B381E090E002C0880F991F7A95C4
S11317C0E2F7822B80BB089523B381E090E002C04E
S11317D0880F991F7A95E2F7822B83BB08956230B4
S11317E009F128F4662341F0613089F008956330EB
S11317F021F1643069F1089525B181E090E002C0DF
S1131800880F991F7A95E2F7822B85B908952BB139
S113181081E090E002C0880F991F7A95E2F7822B4D
S11318208BB908952EB181E090E002C0880F991F12
S11318307A95E2F7822B8EB9089521B381E090E086
S113184002C0880F991F7A95E2F7822B81BB089515
S113185024B381E090E002C0880F991F7A95E2F7E3
S1131860822B84BB08956230E9F028F4662341F0AA
S1131870613079F032C06330F1F0643029F12DC069
S113188083B190E002C0959587957A95E2F78170CF
S1131890089589B190E002C0959587957A95E2F70D
S11318A0817008958CB190E002C0959587957A95E2
S11318B0E2F7817008958FB190E002C09595879505
S11318C07A95E2F78170089582B390E002C095950D
S11318D087957A95E2F78170089580E0089514BEA3
S11318E00FB6F894A8958091600088618093600099
S11318F0109260000FBEE1E6F0E080E88083108281
S1131900789404C0089590E016C00895109236218A
S113191080E197E29093A9008093A800E1EAF0E0C7
S113192088E08083808182608083E2E7F0E08081C8
S11319308260808308952091A4003091A500820FD5
S1131940931FEAEAF0E091838083208131818091C2
S1131950A8009091A9008217930750F42091A80041
S11319603091A90080819181821B930B91838083A4
S113197084E089BBCA9BFECF08951F920F920FB6D5
S11319800F9211248F93809136218F5F809336219B
S11319908F910F900FBE0F901F901895E7E3F1E21F
S11319A0148215821182108217AA16AAEDE3F1E2BD
S11319B08DE591E211921192E817F907D9F7EED566
S11319C0C3D114D13FD040C408959093382180935B
S11319D03721E1C7089590933A2180933921C9C7EB
S11319E00895E82FF0E0EE0FFF1FE35CFE4D7183D6
S11319F060830895FBD1DAD64ED083C40895E09174
S1131A00FC13F091FD133097D9F02281338128170C
S1131A10390789F405C0228133812817390759F41D
S1131A20DC01AD57BF4F2C91278713962C91208B47
S1131A3022E0248305C00190F081E02D309759F70E
S1131A4019C108951092FD131092FC130895FC011E
S1131A501482178613821282A7E3B1E2D6968D917F
S1131A609C91D7970196D7969C938E93D697809105
S1131A70FC139091FD13009739F411821082F093B6
S1131A80FD13E093FC13089591838083F093FD1379
S1131A90E093FC1308950F931F93CF93DF93E0918A
S1131AA0FC13F091FD13309709F49BC0EF018C8176
S1131AB0882321F0823009F46EC08DC0A2D08C013D
S1131AC0009721F482E08C838F878BC09B838A8369
S1131AD081E08C83F801E957FF4F8FEF9CE09183FD
S1131AE080833197898582FB882780F98083998553
S1131AF0D8011B968C911B9790FB80F91B968C93B5
S1131B001B97998593FB992790F990FB82F91B9673
S1131B108C931B9799859695917090FB81F91B96F0
S1131B208C931B97E7E3F1E284818F5F84831C9697
S1131B308C931C97808191811E969C938E931D9704
S1131B408D819E8150969C938E931F978885982FA4
S1131B509F7051968C915197807F892B51968C93CD
S1131B6051979F819295907F8F70892B51968C937A
S1131B70F801EF57FF4F4C8550E06A857B858081E3
S1131B8091810E948951F80191818C85890F81830B
S1131B90C80127D526C0CE17DF0741F48881998173
S1131BA09093FD138093FC130AC0FC018081918102
S1131BB0C817D907D1F78881998191838083E7E396
S1131BC0F1E286A997A9019797AB86ABED85FE85CF
S1131BD0CE01199506C00990D881C02D209709F02F
S1131BE066CFDF91CF911F910F910895EEEFF3E14E
S1131BF082EB9EE11082E757FF4FE817F907D1F710
S1131C0008958091FE13882359F0E7E8F4E142EB4C
S1131C105EE181E090E0BC012081211122C002C07C
S1131C2060E070E049E8469F9001479F300D112421
S1131C30C90182509C4EFC0111924A95E9F740E19A
S1131C40FC014183EF57FF4F205F3B4E31832083DC
S1131C50E7E3F1E226A937A92F5F3F4F37AB26AB65
S1131C6008950196E757FF4FE417F507A1F680E0C2
S1131C7090E00895FC011082E7E3F1E286A997A9B8
S1131C80019797AB86AB0895009741F0FC01E757A5
S1131C90FF4F8EE1E23BF80718F015C0EEEFF3E1D9
S1131CA08081882339F003C08081882319F08E2F26
S1131CB09F2F0895E757FF4F8EE1E23BF807A0F30B
S1131CC080E090E0089580E090E00895FC01DC015C
S1131CD0AD57BF4F1C92A7E3B1E214969C911497A1
S1131CE09F5F14969C93149794878D919C919687EB
S1131CF085870895DC0119962C911997222349F0C0
S1131D001796ED91FC9118972081211104C003C509
S1131D10089580E0089580E00895BC01E4ECFEE1BC
S1131D2026EF3EE140E051E09081992319F0915073
S1131D309083452F3596E217F307B1F7442319F042
S1131D40CB010C94D0160895E4ECFEE186EF9EE1FD
S1131D5010823596E817F907D9F7E2EBFEE184E63D
S1131D6090E0A0E0B0E086839783A087B1871286D5
S1131D708DE89EE0948783876AE77EE080E031CE39
S1131D800895CF93DF93DC01ED91FC9111972181AC
S1131D902838F9F420812F7D2134D9F412962C911E
S1131DA02031B8F0EC012DDF009799F020E2FC011E
S1131DB020832A8121832B81ED57FF4F20832C819F
S1131DC0319620834A8150E06881798102960E948D
S1131DD08951DF91CF910895662321F022E2FC011D
S1131DE02083089524E2FC01208308952F923F92DA
S1131DF04F925F926F927F928F929F92AF92BF9217
S1131E00CF92DF92EF92FF920F931F93CF93DF93C2
S1131E10CDB7DEB72C970FB6F894DEBF0FBECDBF9B
S1131E2000E010E00F2EF4E2DF2EF02D0F2EF7E38A
S1131E308F2EF1E29F2EF02DCC24C3940F2EF4ECC0
S1131E404F2EFEE15F2EF02D0F2EF0EC6F2EFEE1F3
S1131E507F2EF02D0F2EF2EFEF2EFEE1FF2EF02D50
S1131E60312C212C5801B9C1D5018C91813209F44E
S1131E70E1C018F4803241F0B0C1823209F4DEC00E
S1131E80843209F4A8C1A9C1F501D082838583FDF8
S1131E90A4C1258136812F3F3F4FC9F4D5011F9638
S1131EA02D913C915097F401408151814217530781
S1131EB021F02F3F3F4F09F090C181FF04C081E220
S1131EC0D5018C938AC122E2F501208386C1D50114
S1131ED01F962D913C9150972F3F3F4F09F084C19D
S1131EE080FF82C17AC18C012C91222309F457C04E
S1131EF0208131814217530709F052C0F5019485BE
S1131F00F801EE0FFF1FEE0FFF1FE00FF11FE0546B
S1131F10F14E8281891B883040F5F801EE0FFF1FD6
S1131F20EE0FFF1FE00FF11FE054F14E9381292FB4
S1131F3030E0082E02C0359527950A94E2F720FD7B
S1131F404CC1F801EE0FFF1FEE0FFF1F0E0F1F1FF6
S1131F50F801E054F14E21E030E002C0220F331FBB
S1131F608A95E2F7922B93834FC1F801EE0FFF1F7E
S1131F70EE0FFF1F0E0F1F1FF801E054F14E928366
S1131F80238130E08195A90102C0440F551F8A9531
S1131F90E2F7CA01816083838FE1848335C1BF0185
S1131FA0019615963596EE15FF0509F09CCF61153F
S1131FB0710509F412C1DB0111965C934E93F5018E
S1131FC0848512968C9312971396CC9213978FE173
S1131FD014968C9382EB9EE1E3D616C1D5011F962D
S1131FE08D919C915097F4012081318128173907F4
S1131FF0A1F01B962C9122FD0DC0C50147D3D5013C
S11320001F968D919C915097F4012081318128175E
S1132010390719F0019609F0E0C0D5011B968C919F
S11320201B9781FF03C081E28C93D7C022E2F501A4
S11320302083D3C060E0C50117D1CFC01092BF1E6A
S1132040D50151962C91519722952F70E22FF0E0F3
S1132050EE0FFF1FE35CFE4D0190F081E02D309701
S113206009F462C01D968D919C911E979A83898371
S11320701F964D915C9150975C834B8351963C9194
S113208051973F703D832E83AF57BF4F6D917C9125
S11320907987688795012E5F3F4F261B370BD50143
S11320A011963C911197230F2A87AD57BF4F2C915E
S11320B02B8711962C912C87D5011B962C91622F7E
S11320C0637022FD02C030E001C030E2632B23FDC7
S11320D002C030E001C030E4262F232B4F3F5F4F76
S11320E011F030E001C034E0232BD50119964D9155
S11320F05C911A978417950711F090E001C098E05D
S1132100822F892B8F83D50115962D913C9116979B
S11321102F3F3F4F11F090E001C090E1892B8F8356
S1132120CE010196199501C080E0F501938590FFD9
S113213080E0D50117962D913C9118972F3F3F4F82
S113214069F4F40140815181D5011F962D913C9190
S113215050974217530711F493FF8C2DF5012581F5
S113216036812F3F3F4FA1F1D4012D913C912F3F58
S11321703F4F71F1882361F144DD8C01009741F1F7
S1132180A5DDF80181818D5F8183E957FF4F1182BD
S11321901082D5011B968C911B9786958170F8014E
S11321A0938580FB91F993871D968D919C911E9741
S11321B0908B8787EF57FF4F0190F081E02D1082BD
S11321C08091BF1E82831C968C918183C80109D2A1
S11321D0D501DC9202C0C5014DDDC50155DD5C01B0
S11321E0892B09F041CE17C0F50145855685D401E8
S11321F08D919C918417950781F3D201F301832D6E
S1132200922D632D722D6FCEF501878190850196F5
S113221009F0F5CEE3CE2C960FB6F894DEBF0FBED0
S1132220CDBFDF91CF911F910F91FF90EF90DF9081
S1132230CF90BF90AF909F908F907F906F905F9062
S11322404F903F902F9008951092071F1092061FF1
S11322501092051F0895FC0190E1ADE5B1E20190F3
S11322600D929A95E1F70895662321F020E3FC018D
S1132270208303C021E3FC0120838091071F8F5F2B
S11322808093071F0895CF93DF93C091051FD091CA
S1132290061FFE01EF57FF4FA081B1817091031F0C
S11322A0872F90E06091041F262F613108F020E110
S11322B02223B9F03091021F42EF5EE1A80FB91F4B
S11322C0FA0190818C9189278D93332311F08083B7
S11322D003C090818927808331968E2F841B8217B7
S11322E080F3720F7093031F621B6093041F6623B5
S11322F019F082E3888302C084E38883DF91CF915D
S113230008950F931F93CF93DF938091071F882322
S113231009F4E1C0E091051FF091061F309709F41C
S1132320D4C08081843309F054C08091031FDF013D
S1132330AF57BF4FCD91DC91C80FD11DA2EFBEE1C5
S113234014960D911D912D913C9117974D915D918E
S11323506D917C9113974027512762277327189614
S11323600D911D912D913C911B9740275127622778
S113237073271C968D919D910D90BC91A02D48279B
S113238059276A277B278091021F882351F04883AD
S113239059836A837B8381818C5F8183CF01DFD101
S11323A00EC081E0088119812A813B8140175107C1
S11323B06207730709F080E0682FCF010DDD1092EA
S11323C0061F1092051F8091071F81508093071FDD
S11323D082C0823309F07FC083E380836DE571E2BC
S11323E082EF9EE11AD477C0DC012C912053223075
S11323F008F06DC09093061F8093051FE2EFFEE185
S11324001C964C911C9750E060E070E0408351832F
S1132410628373831F964D915C91509760E070E0E6
S1132420BA015527442751962C91519722952F7024
S1132430422B44835583668377831D964D915C912B
S11324401E9760E070E0BA015527442751962C91FD
S113245051972F70422B40875187628773871B9651
S11324602C911B9715964D915C91169760E070E046
S1132470BA0155274427422B4487558766877787B7
S11324802C91213331F411962C91119724501196EB
S11324902C93FC01EF57FF4F408151819C012E5F2B
S11324A03F4F241B350BFC013181230F2093041F64
S11324B01092031F21E03081303309F020E0209393
S11324C0021F22E3DC012C9306C080E090E0DCDBF9
S11324D0009709F089CFDF91CF911F910F91089553
S11324E0EF92FF920F931F93CF937C0110E080E053
S11324F090E001E0C3E113C0FC012081213179F4B3
S1132500EC57FF4F208131812150310931832083E1
S1132510232B21F4FC01C083102F01C0102FB4DB46
S1132520009751F7112311F0C7013AD4CF911F91AD
S11325300F91FF90EF900895EF92FF920F931F93E6
S1132540CF93DF937C0110E080E090E001E0D7E1DD
S1132550C0E116C0FC012081263191F4EC57FF4FF5
S1132560208131812150310931832083232B39F497
S1132570FC01D083ED57FF4FC083102F01C0102FF3
S113258083DB009739F7112311F0C70109D4DF91D8
S1132590CF911F910F91FF90EF9008951092231FF8
S11325A01092221FE5E1FFE182E390E0A0E0B0E0B9
S11325B086839783A087B18712868CE992E19487FA
S11325C08387E8E0FFE18AE090E0A0E0B0E0868362
S11325D09783A087B187128680E792E194878387E7
S11325E00895CF93DF93FC01DC01AA57BF4F8C9170
S11325F081FF03C092E1908308C0938591FF03C0DB
S113260090E1908302C092E19083DF01AD57BF4F08
S11326101C9280FF05C08FEF9FEF9683858306C0D1
S11326208091392190913A21968385832785308939
S113263030872783A7E3B1E28D919C91119792870C
S1132640818715968C9115978F5F15968C9384834B
S11326502F3F3F4F81F4EF0181E498E89383828315
S11326600E946E51FE01EC57FF4F87709927019627
S11326709183808308C081E698E893838283EC5732
S1132680FF4F11821082DF91CF9108950F931F9312
S1132690CF93DF938C01B5DAEC01892BB9F182E198
S11326A08883F80181818983FE01ED57FF4F1082F1
S11326B00E946E51FE01EC57FF4F877099270196D7
S11326C091838083339611821082F801418150E016
S11326D0B8016E5F7F4FCE0102960E94895181E45A
S11326E098E89B838A838FEF9FEF98878F83F80105
S11326F0858196819E838D83E7E3F1E280819181D8
S11327009A87898785818F5F85838C83DF91CF91B9
S11327101F910F910895CF93DF93FC01C781D0855A
S113272081858330C1F480E090E010C0FC012081F9
S1132730263161F434852981321308C027E12083CE
S11327402A81EA57FF4F208381E006C09DDA009773
S113275069F780E001C080E0DF91CF91089522E124
S1132760FC0120830895E091221FF091231F813002
S113277021F048F0823019F004C080E205C081E203
S113278003C081E001C080E0DF01AD57BF4F8C93EF
S113279085E180831092231F1092221FE7E3F1E268
S11327A086A997A9019797AB86AB08959F92AF929C
S11327B0BF92CF92DF92EF92FF920F931F93CF932A
S11327C0DF93C0E0D0E00F2EF4E1AF2EF02D07E34D
S11327D011E20F2EF7E1DF2EF02D0F2EF6E19F2EE2
S11327E0F02D0F2EF5E1EF2EF12CF02D0F2EF3E14D
S11327F0CF2EF02D0F2EF1E1BF2EF02D64C0888175
S11328008331F1F028F4803149F0823159F05BC012
S1132810853169F1873109F449C055C061E0CE01C1
S113282023DD51C0FE01EC57FF4F80819181892B3C
S113283029F0B88288E09FE1B3D245C0C88243C082
S11328408091221F9091231F892B09F03CC0D093C3
S1132850231FC093221FA8826981CE010296ADD0A6
S1132860F80186A997A9019697AB86AB2CC0FE0107
S1132870ED57FF4F8081811117C02D853E85F801EA
S1132880808191812817390769F48B8580FF0AC0FC
S11328909882FE01EC57FF4FF182E08285E19FE1CF
S11328A07FD211C0D8820FC0D8820DC0FE01E95773
S11328B0FF4F0190F081E02D309719F4CE01DAD961
S11328C002C0CE011995CE01DFD9EC01892B09F0A4
S11328D096CFDF91CF911F910F91FF90EF90DF90F2
S11328E0CF90BF90AF909F9008958091241F982F10
S11328F09F70E4E5F1E08081807F892B8083809163
S1132900241F882329F08091251F80935301089563
S11329108091251F982F9F71E8E4F1E08081807EEB
S1132920892B8083089593E090934201E1E4F1E0E0
S113293090819F719830E1F780934201E1E4F1E0E6
S113294090819F719813FCCF089588E0ECDF8FEF9E
S113295080934F018091261F882311F086E1E3CFF5
S113296008958093261FF1CF08958093251FBDCF2E
S11329700895CF93DF931F921F92CDB7DEB79A834A
S11329808983809362018A81809363010F900F9001
S1132990DF91CF910895CF93DF931F921F92CDB70C
S11329A0DEB79A838983809360018A818093610171
S11329B00F900F90DF91CF9108950F931F93CF93B2
S11329C08C01C62F89E1AFDF8FEF80934F0182E046
S11329D08C0F80938001CC2381F0F801C1502C2FFF
S11329E030E02F5F3F4FC801820F931FA1E8B1E091
S11329F021912D93E817F907D9F783E08093A71F56
S1132A0082E080934201CF911F910F910895EF923C
S1132A10FF920F931F93CF93DF931092560186E09A
S1132A2082DFC0E0D0E0E12CF12C06E411E081E08B
S1132A300E94830CF801208122952695277023702B
S1132A4030E00C2E02C0220F331F0A94E2F7E22A70
S1132A50F32A2296C031D10551F788E064DF8BEE6A
S1132A608093560172DFC701DF91CF911F910F91BF
S1132A70FF90EF900895E9E3F1E080818160808325
S1132A801092261F1092241F81E08093A71F88E0D4
S1132A904ADF8BEE80935601ECE4F1E0808180689C
S1132AA08083B5DF80936D010895CF93DF93FB019D
S1132AB0AB01405F5F4FAFE3B1E021912C93E4178A
S1132AC0F507D9F710923C01DC019C01205F3F4FD0
S1132AD0FC01CEE3D1E081918883E217F307D9F7B3
S1132AE0ECE3F1E0808180688083EDE3F1E08081B4
S1132AF080FFFDCFEEE3F1E080818D93A217B30751
S1132B00D9F7DF91CF9108951F93CF93DF9300D02E
S1132B101F921F92CDB7DEB78091A71F823009F4B0
S1132B2065C080914F0183FF3EC0A0917B016A2F55
S1132B3070E0AB014F5F5F4F80E090E020E0FC016C
S1132B40E058FE4F3081FC01E95DF04E30832F5F89
S1132B50822F90E08417950794F387E29FE19A838C
S1132B608983A250AB83FB01E95DF04E80818C83A5
S1132B70809147018A558D83CE01019602D9E1E403
S1132B80F1E080818F718631E1F7EFE4F1E080813B
S1132B9088608083ECE4F1E080818F77808380819A
S1132BA08068808323C080914F0186FF1FC080917D
S1132BB041018F718931A9F4109142011295169542
S1132BC0177049F0133021F0153021F013E003C0E1
S1132BD011E001C012E0B9DE81E08093A71F812FCC
S1132BE0C2DDEFE4F1E08081806480830F900F9078
S1132BF00F900F900F90DF91CF911F9108950E9435
S1132C006F0C72D038DF0E94CE0C109245010895EB
S1132C107BDF0E94FA0CCFC0089547DF34CB0895C0
S1132C200F931F93CF93DF93EC018091A81F909192
S1132C30A91F009709F445C04E815F816885798595
S1132C40FC010281138124813581401751076207F9
S1132C50730760F0DC0117C0028113812481358180
S1132C60401751076207730768F403C0FC01A0E032
S1132C70B0E0041B150B260B370B0283138324834C
S1132C8035830AC0DF01401B510B620B730BED91BE
S1132C90FC911197309701F74A835B836C837D83A2
S1132CA0109741F08D919C91119799838883CD93CE
S1132CB0DC9315C099838883D093A91FC093A81F60
S1132CC00EC0198218828E819F81A885B9858A8356
S1132CD09B83AC83BD83D093A91FC093A81FDF91AE
S1132CE0CF911F910F9108951092A91F1092A81FC0
S1132CF00895CF93DF93A091A81FB091A91F1097B7
S1132D0091F1A817B90751F50AC08E179F0729F545
S1132D10109731F0208131812D933C9307C0FC0141
S1132D20208131813093A91F2093A81F0190F08145
S1132D30E02D3097C1F04281538164817581EC01AB
S1132D408A819B81AC81BD81840F951FA61FB71F0B
S1132D5082839383A483B58306C0DF01ED91FC9144
S1132D601197309791F6DF91CF910895E091A81FC4
S1132D70F091A91F309771F0E817F90721F40CC0FE
S1132D808E179F0759F00190F081E02D3097C1F71D
S1132D9080E0089580E0089581E0089581E0089539
S1132DA0CF93DF93EC01E2DF811102C0CE0138DF63
S1132DB0DF91CF910895CF92DF92EF92FF92CF935C
S1132DC0DF9380913621882309F459C08FB7F89492
S1132DD0C0903621109236218FBFD12CE12CF12CDA
S1132DE0CC0CDD1CEE1CFF1CD701C601880F991FFB
S1132DF0AA1FBB1F880F991FAA1FBB1FC80ED91E6D
S1132E00EA1EFB1EC091A81FD091A91F2097B9F1FB
S1132E108A819B81AC81BD81C816D906EA06FB066E
S1132E2010F1C81AD90AEA0AFB0A88819981909399
S1132E30A91F8093A81F8A85813011F4CE01F0DE8A
S1132E40EB85FC85CE011995C091A81FD091A91FCF
S1132E502097A9F08A819B81AC81BD81C816D906CF
S1132E60EA06FB06F0F68A819B81AC81BD818C1950
S1132E709D09AE09BF098A839B83AC83BD83DF911F
S1132E80CF91FF90EF90DF90CF900895809196209E
S1132E908F5F80939620882319F0109296200895CE
S1132EA081E08093BB20089580EC90E279CF08956F
S1132EB080917820813081F481E091E21ADF84E00E
S1132EC08093822010927D2010927C200E948C029C
S1132ED082E191E265CF0895811110C081E091E211
S1132EE008DF81E0809382200E94E1010E94B00308
S1132EF082E191E2FEDE89E590E2FBCE08958AEA62
S1132F009FE10C942A3A089581E08093542080E450
S1132F1092E00C94652A089580912720823008F06D
S1132F206AC080913E20823049F018F48130C9F1A2
S1132F3049C08530A1F0863019F144C060919720D2
S1132F4070919820809199200E94C00A6091752008
S1132F5070917620809177200E94090B43C0609184
S1132F60752070917620809177200E94090B6091E2
S1132F70972070919820809199200E94C00A32C0B5
S1132F806091752070917620809177200E94090BC2
S1132F906091972070919820809199200E94090B4C
S1132FA021C06091752070917620809177200E94D5
S1132FB0090B6091972070919820809199200E942C
S1132FC0C00A10C06091752070917620809177209E
S1132FD00E94C00A60919720709198208091992056
S1132FE00E94C00A809127208F5F8093272080EC65
S1132FF090E2D6DE15C060917520709176208091A4
S113300077200E94C00A6091972070919820809147
S113301099200E94C00A109227208AE990E2C0DE1B
S1133020A8950895EF92FF920F931F93CF93DF9388
S1133030EDECF0E210820F2EF3E0FF2EF02DF18282
S11330408BE082836091CD207091CE208091CF203F
S11330504CED5CE10E94340A6091CD207091CE2049
S11330608091CF200E941E0AE6E6F0E21082C2E0C0
S1133070C1838AE082836091662070916720809189
S113308068200E941E0AE9E6F0E21082D1E0D183B2
S113309089E082836091692070916A2080916B201D
S11330A00E941E0AEFE0F1E21082118288E082831E
S11330B060910F2170911021809111210E941E0AAC
S11330C0ECEBF0E2D0836894EE24E2F8E1826091C4
S11330D0BC207091BD208091BE200E944D0B609158
S11330E0BC207091BD208091BE200E94EF0BE5E7CB
S11330F0F0E2C08305E00183609175207091762031
S1133100809177200E94AB0BE7E9F0E2C08317E0DF
S113311011836091972070919820809199200E944A
S1133120AB0BE9EAF0E2C083E1826091A9207091DF
S1133130AA208091AB200E94AB0BE9E7F0E2C083A8
S1133140F1826091792070917A2080917B200E9495
S1133150AB0B0093572060915620709157208091BB
S113316058200E94AB0B0F2EF6E0FF2EF02DF092AC
S11331702B2160912A2170912B2180912C210E9476
S1133180AB0B1093312160913021709131218091EA
S113319032210E94AB0BE4E2F1E2C0831182609120
S11331A0242170912521809126210E944D0B60914C
S11331B0242170912521809126210E94EF0BEFE1BB
S11331C0F1E2C083D18360911F217091202180910D
S11331D021210E944D0B60911F217091202180912B
S11331E021210E94EF0BE2E7F0E2C083C1836091EA
S11331F0722070917320809174200E944D0B609115
S1133200722070917320809174200E94EF0BE0ED86
S1133210F0E2D08301836091D0207091D12080911D
S1133220D2200E944D0B6091D0207091D1208091CA
S1133230D2200E94EF0BE8E2F0E2D083F1826091A9
S113324028207091292080912A200E944D0B6091A2
S113325028207091292080912A200E94EF0BEFE70B
S1133260F0E2D083118360917F207091802080915F
S113327081200E944D0B60917F207091802080916D
S113328081200E94EF0BDF91CF911F910F91FF904E
S1133290EF9008950F93CF93DF938091822090E075
S11332A08730910508F053C3FC018827ED59FE4F80
S11332B08F4F0C94E65010927820C1E0C0935420B4
S11332C06091562070915720809158200E94C00A26
S11332D0ECE2F0E21386C38B85E0828BC18B84EF32
S11332E091E0A0E0B0E08093C6209093C720A09323
S11332F0C820B093C92088EE93E0A0E0B0E08093AA
S1133300A0209093A120A093A220B093A320808119
S1133310813081F48091BF2081110CC06091A9207B
S11333207091AA208091AB200E94330C811102C0BD
S11333301092822080913420813021F080912F20BE
S1133340813011F41092822080913020813019F460
S113335085E08093822080913520813019F482E0C9
S11333608093822080913620813009F0F0C283E07E
S1133370809382201092AD20EAC28091AD208130EA
S113338031F48091AD208F5F8093AD2002C0109204
S1133390AD201092782081E080935420ECE2F0E29A
S11333A0828B8AEF90E0A0E0B0E08093C6209093F7
S11333B0C720A093C820B093C92084EF91E0A0E077
S11333C0B0E08093A0209093A120A093A220B0937A
S11333D0A3208089813021F080913D20811114C087
S11333E06091562070915720809158200E94C00A05
S11333F0109237208091FF20811106C087E00E943F
S1133400AB2581E08093FF2080913C2081110FC087
S113341080913D20813059F460915620709157205D
S1133420809158200E947C0A81E08093372080910B
S11334302221811106C084E00E94AB2581E08093A3
S1133440222180913620813029F483E080938220E8
S11334501092222180914B20811116C080912C2042
S113346081112AC080913420811126C080912F209F
S1133470811122C085E00E94AB2510922221109276
S1133480FF2081E08093822080914B208130A1F441
S113349080913420813081F46091A9207091AA2018
S11334A08091AB200E94C00AECE2F0E21086138205
S11334B08185813069F504C080913520813011F413
S11334C01092352080912F20813011F58091302089
S11334D08130F1F4809193209091942001969093FF
S11334E0942080939320893E9D4F08F430C282E05B
S11334F090E10E946532082F036000932B2020E1A5
S113350042E065E48EEA0E94F0240E942D361FC238
S113351010929420109293201AC2CCE2D0E283E05D
S11335208A8B6091562070915720809158200E9478
S11335307C0A81E08B8710927820809354208091BC
S11335402221811111C082E00E94AB2581E0809389
S1133550222184E60E9411386091A9207091AA204A
S11335608091AB200E947C0A80914B20813049F5E8
S113357083E00E94AB2562E081E60E9466391092E6
S1133580222181E08093AD2010928220CCE2D0E20F
S11335901A866091A9207091AA208091AB200E9484
S11335A0C00A1B8660910F21709110218091112116
S11335B00E94330C91E0811101C090E090932C2083
S11335C0C6C180913C20813049F583E00E94AB253F
S11335D062E08EE60E9466391092222181E0809397
S11335E0AD2080938220CCE2D0E21A866091A9209B
S11335F07091AA208091AB200E94C00A1B86609122
S11336000F2170911021809111210E94330C91E0BF
S1133610811101C090E090932C2099C180913620B3
S1133620813009F494C183E00E94AB2562E083E712
S11336300E9466391092222181E08093AD2080930C
S11336408220CCE2D0E21A866091A9207091AA204F
S11336508091AB200E94C00A1B8660910F2170915B
S11336601021809111210E94330C91E0811101C03D
S113367090E090932C206BC1ECE2F0E284E0828B2A
S11336801092782081E08093542082E0838B809193
S11336902221811108C00E94AB2581E08093222160
S11336A083E60E94113880912C208130A9F4809106
S11336B0BF20811111C081E00E94AB2562E081E648
S11336C00E9466391092222181E08093AD2080937C
S11336D08220109235203BC18091262090912D208C
S11336E0981788F081E00E94AB2562E08EE60E9484
S11336F066391092222181E08093AD20809382204C
S11337001092352024C180913520813009F41FC1E5
S113371081E00E94AB2562E083E70E946639109243
S1133720222181E08093AD20809382201092352065
S11337300EC180917820811108C081E091E230DBD4
S1133740809178208F5F80937820809192208930B7
S113375080F06091662070916720809168200E94BB
S1133760330C91E0811190E09093302010929220DC
S113377003C08F5F8093922080913020811108C014
S113378081E091E2B6DA81E0809382201092782081
S113379080912C20813009F0DAC08091BF20811102
S11337A0D6C01092822010927820D1C08DE790E08C
S11337B0A0E0B0E08093C6209093C720A093C820D7
S11337C0B093C9208AEF90E0A0E0B0E08093A020FD
S11337D09093A120A093A220B093A32010925420F0
S11337E082E080933E2080910E21813031F0C0F13F
S11337F0823051F0833089F030C082E191E279DA8D
S113380082E080930E212CC060E18AEA9FE10E944D
S11338104E3A83E080930E2123C080917C209091C6
S11338207D20813523EC920790F08091282181FF3F
S11338300BC0809128218D7F8093282160912821BD
S113384082E090E10E94EF330E942D3609C0019678
S113385090937D2080937C2003C088E00E948E3763
S1133860809192208930F0F06091662070916720F9
S1133870809168200E94330C91E0811190E0909334
S1133880302060910F2170911021809111210E94AC
S1133890330C91E0811101C090E090932C201092A0
S11338A0922003C08F5F80939220809130208130DA
S11338B051F480917820813091F481E091E270DAC2
S11338C0109278200CC081110AC080917820811157
S11338D003C081E091E20DDA81E080937820809149
S11338E02C208130A1F58091BF20811130C010922D
S11338F00E2181E0809382200E94E1010E94B003A6
S113390089E590E2F6D982E191E2F3D920C0809171
S11339107C2090917D2082309105A0F081E08093FD
S1133920822010927D2010927C200E94E1010E944E
S1133930B0036091562070915720809158200E94C6
S1133940C00A05C0019690937D2080937C20DF916E
S1133950CF910F9108958091BB20882371F08091BD
S1133960AD20882319F01092AD2002C00E94F636D3
S113397084E890E215DA1092BB20089580913620F5
S1133980811119C080913420813021F080912F2041
S1133990813049F46091A9207091AA208091AB20D4
S11339A00C947C0A08956091A9207091AA208091BA
S11339B0AB200C94C00A089581E080932D21DECFC2
S11339C00895CF93DF9380915520882309F461C033
S11339D00E94703BCCE2D0E289830E9447258E830B
S11339E080EF8F8710925520EBE7F0E08081877F8E
S11339F0808381E680937C00EAE7F0E08081806444
S1133A008083808186FDFDCF8091790024E2829FAE
S1133A10C00111246FEF70E00E94B15060932E201A
S1133A206091242170912521809126210E94330CDC
S1133A3091E0811101C090E090934B2020912D20C2
S1133A4030E08091232190E00A972817390734F455
S1133A50ECE2F0E281E0808B118A0DC08091232199
S1133A6090E00A96281739071CF010923C2003C0F6
S1133A7082E080933C20809132208D3318F080E0E6
S1133A800E948E3780912D20853618F481E00E94A3
S1133A908E3780919520813029F080912D218130BD
S1133AA009F0B4C080919220893008F4ACC06091D0
S1133AB0CD207091CE208091CF200E94330C91E0D4
S1133AC0811190E090932F2059DF609166207091CE
S1133AD06720809168200E94330C91E0811190E06E
S1133AE0909330206091692070916A2080916B20BE
S1133AF00E94330C91E0811101C090E09093312039
S1133B0060910F2170911021809111210E94330C3A
S1133B1091E0811101C090E090932C2060912421C8
S1133B2070912521809126210E94330C91E081110E
S1133B3001C090E090934B2060911F21709120214F
S1133B40809121210E94330C91E0811190E09093A7
S1133B504C206091722070917320809174200E9497
S1133B60330C91E0811190E090934D206091D0202E
S1133B707091D1208091D2200E94330C91E0811168
S1133B8090E090934E20609128207091292080919C
S1133B902A200E94330C91E0811190E090934F20F1
S1133BA060917F2070918020809181200E94330C4D
S1133BB091E0811190E090935020809134208130E5
S1133BC021F080912F20813039F480912C208111B3
S1133BD003C085E00E948E371092952010929220A7
S1133BE080912C20811106C080914B20811102C04C
S1133BF01092BF2080912D21813041F48093BB200D
S1133C0010922D2103C08F5F80939220DF91CF917A
S1133C100895D7DE3FDB9FCE08958F929F92AF9297
S1133C20BF92CF92DF92EF92FF920F931F93CF93A5
S1133C30DF93CDB7DEB72D970FB6F894DEBF0FBE76
S1133C40CDBF8C01F62ECDB6DEB60E9472048093F1
S1133C507421882309F45BC448E050E062E572E013
S1133C60C8010E947C51892BA1F48091822081118A
S1133C700AC080913420813031F483E00E948E3771
S1133C80EE24E3944BC40E941C3778DEEE24E394C4
S1133C9045C448E050E06BE572E0C8010E947C51E5
S1133CA0892BA1F480918220813051F480913420B9
S1133CB0811106C083E00E948E37EE24E3942EC463
S1133CC00E9426375BDEEE24E39428C448E050E0EB
S1133CD064E672E0C8010E947C51892B09F050C04F
S1133CE02FE02F1530F084E00E948E37EE24E39409
S1133CF015C46EEF6F0DC8010E94523AE82E882356
S1133D0009F407C4F801218530E02053310988EE15
S1133D1093E0289FA001299F500D389F500D112436
S1133D20228530E02053310964E6629FC001639F1D
S1133D30900D1124840F951F248530E02053310900
S1133D40AC01420F531F238530E020533109C901D0
S1133D50880F991F220F331F220F331F220F331F87
S1133D60280F391FCA01820F931F8D3FFFE09F0761
S1133D7020F084E00E948E37D1C30E942F37CEC337
S1133D8048E050E06DE672E0C8010E947C51892B46
S1133D9081F480918220811106C083E00E948E37D5
S1133DA0EE24E394BBC381E080933520EE24E394B6
S1133DB0B5C348E050E066E772E0C8010E947C5158
S1133DC0892B79F480918220811106C083E00E94BE
S1133DD08E37EE24E394A2C310923520EE24E394AC
S1133DE09DC348E050E06FE772E0C8010E947C5137
S1133DF0892B81F480918220811106C083E00E9486
S1133E008E37EE24E3948AC381E080933620EE2437
S1133E10E39484C348E050E068E872E0C8010E947B
S1133E207C51892B79F480918220811106C083E032
S1133E300E948E37EE24E39471C310923620EE2450
S1133E40E3946CC348E050E061E972E0C8010E9469
S1133E507C51892B09F092C023E12F1530F086E0C4
S1133E600E948E37EE24E39459C36EEF6F0DC801A0
S1133E700E94523AE82E882309F47AC0F801A185F9
S1133E80B0E0D09720E03AEC4AE95BE30E940351AA
S1133E904B015C01A285B0E0D09720E031EE45EF04
S1133EA055E00E940351860E971EA81EB91E8289F2
S1133EB090E0C097092E000CAA0BBB0B880E991E2C
S1133EC0AA1EBB1EA385B0E0D09720E836E948E9D6
S1133ED050E00E940351860E971EA81EB91EA485A9
S1133EE0B0E0D09720E432E44FE050E00E94035168
S1133EF0860E971EA81EB91EA585B0E0D09720EAAD
S1133F0036E841E050E00E940351860E971EA81E39
S1133F10B91EA685B0E0D09720E137E20E94FD509B
S1133F20860E971EA81EB91EA785B0E0D09728EE6E
S1133F3033E00E94FD50860E971EA81EB91EA0896C
S1133F40B0E0D09724E630E00E94FD50860E971E24
S1133F50A81EB91EA189B0E0D0972AE030E00E94E3
S1133F60FD50680D791D8A1D9B1D0E942438D6C200
S1133F7087E00E948E37EE24E394D0C248E050E0FC
S1133F806AE972E0C8010E947C51892B39F484E803
S1133F9090E20E947916EE24E394C0C248E050E017
S1133FA063EA72E0C8010E947C51892B29F40E94C3
S1133FB02C38EE24E394B2C248E050E06CEA72E09C
S1133FC0C8010E947C51892B29F40E942D36EE24CD
S1133FD0E394A4C248E050E065EB72E0C8010E949B
S1133FE07C51892B29F40E943538EE24E39496C23F
S1133FF048E050E06EEB72E0C8010E947C51892BCE
S113400091F5F3E1FF1530F084E00E948E37EE2441
S1134010E39484C26EEF6F0DC8010E94523AE82EF9
S11340208823D9F0CE01019628E0FC0111922A954B
S1134030E9F7F8012185298322852A8323852B83A7
S113404024852C8325852D8326852E8327852F8300
S1134050208928870E94593861C284E00E948E37E3
S1134060EE24E3945BC248E050E067EC72E0C801E0
S11340700E947C51892B09F5FDE0FF1530F08BE09F
S11340800E948E37EE24E39449C26EEF6F0DC8018F
S11340900E94523AE82E882351F0F80181858983E1
S11340A082858A83CE0101960E94B83837C284E0A3
S11340B00E948E37EE24E39431C248E050E060ED74
S11340C072E0C8010E947C51892BA1F481E091E245
S11340D00E94791684E08093822010927D201092B1
S11340E07C200E948C0282E191E20E94D016EE2490
S11340F0E39414C248E050E069ED72E0C8010E9404
S11341007C51892B49F480E20E94CE3880E20E94DF
S11341101A39EE24E39402C248E050E062EE72E001
S1134120C8010E947C51892B29F40E94D939EE24BC
S1134130E394F4C148E050E06BEE72E0C8010E94E1
S11341407C51892B29F40E94053AEE24E394E6C1BC
S113415048E050E064EF72E0C8010E947C51892B72
S113416009F045C0FBE1FF1530F088E00E948E376E
S1134170EE24E394D3C16EEF6F0DC8010E94523A4E
S1134180E82E882371F1D8011996EAEAFFE1CF01FC
S1134190805F2D919191291729F089E00E948E3733
S11341A0E12CBCC18E13F5CFCE01019629E0FC01B0
S11341B011922A95E9F7F801238D2983248D2A8306
S11341C0258D2B83268D2C83278D2D8320A12E8353
S11341D00E942E3681E080930E2188EE93E013D363
S11341E09DC18AE00E948E37EE24E39497C148E093
S11341F050E06DEF72E0C8010E947C51892BF9F404
S1134200F7E0FF1530F088E00E948E37EE24E39447
S113421085C1D8011996EAEAFFE1CF01805F2D91AB
S11342209191291729F089E00E948E37E12C76C1FB
S11342308E13F5CF0E942D36EE24E3946FC148E02F
S113424050E066E073E0C8010E947C51892B09F0BC
S113425056C02FE02F1530F084E00E948E37EE24F4
S1134260E3945CC16EEF6F0DC8010E94523AE82ED0
S1134270882309F451C1F801818590E0C09728EEA4
S113428033E0829FA001839F500D929F500D112413
S1134290828590E0C09764E6689F9001699F300D25
S11342A01124240F351F848590E0C097820F931F3B
S11342B0438550E0405351097AE0749F9001759F03
S11342C0300D1124820F931F258520536685279F67
S11342D0600D112460539C010BC02115F0E23F07CF
S11342E028F084E00E948E37E12C18C12F5F3F4FE5
S11342F0422F481B461788F30E945A370FC148E0E3
S113430050E06FE073E0C8010E947C51892B09F0F2
S113431068C02FE02F1530F084E00E948E37EE2421
S1134320E394FCC06EEF6F0DC8010E94523AE82E70
S1134330882309F450C0ADB6BEB6F8014185628544
S113434070E0762F66278385680F711D4930E0F58C
S11343508F2D90E04197242F30E082179307A1F529
S11343608DB79EB7841B91090FB6F8949EBF0FBEFC
S11343708DBF0196DC01FC0101C011922E2F2A1B76
S11343802417D8F3045F1F4FF80102C021912D9325
S11343902E2F201B2417D0F39B010AC02115E0E225
S11343A03E0720F084E00E948E370EC02F5F3F4FFF
S11343B0522F561B541790F30E948D380FB6F89461
S11343C0BEBE0FBEADBEAAC00FB6F894BEBE0FBE31
S11343D0ADBEE12CA3C084E00E948E37EE24E394AA
S11343E09DC048E050E068E173E0C8010E947C5140
S11343F0892BB9F40E94C80284E690E004D28AEAC8
S11344009FE10E943C3A86E080938220609156208E
S113441070915720809158200E947C0AEE24E394E6
S11344207DC048E050E061E273E0C8010E947C5125
S1134430892B09F044C086E080938220FBE1FF15BC
S113444030F088E00E948E37EE24E39467C06EEF6C
S11344506F0DC8010E94523A882359F1D801199668
S1134460EAEAFFE1CF01805F2D919191291729F0AC
S113447089E00E948E37E12C51C08E13F5CFCE0116
S1134480019629E0FC0111922A95E9F7F801238DA0
S11344902983248D2A83258D2B83268D2C83278D98
S11344A02D8320A12E830E942E3688EE93E0ABD17B
S11344B0FFCF8AE00E948E37EE24E3942FC048E0B9
S11344C050E06AE273E0C8010E947C51892BC9F470
S11344D02DE0E3E3F3E0CE010196DC0101900D92BF
S11344E02A95E1F7FC0101900020E9F73197BF011B
S11344F0681B790B4AE253E00E945236EE24E3949F
S11345000DC08BE00E948E37EE24E39407C0E12CAB
S113451005C0EE24E39402C0EE24E3948E2D0FB67E
S1134520F894DEBE0FBECDBE2D960FB6F894DEBF56
S11345300FBECDBFDF91CF911F910F91FF90EF90F0
S1134540DF90CF90BF90AF909F908F9008950F937E
S1134550CF93DF931F921F92CDB7DEB7198288E005
S11345608A838FEB64D100E12AEA3FE14FEB62E0FA
S1134570CE010196DDD10F900F90DF91CF910F9175
S113458008950F931F93CF93C1E0C0939520C093D8
S1134590BF20C0935520C093BB20C0932D211092FF
S11345A09220109227201092782010922221C093FA
S11345B082201092332110923521109234211092CE
S11345C0962010927E20C09354201092FF201092C7
S11345D00E211092AD20109294201092932087E81F
S11345E080937A000E94123B9CD264E072E088ECD3
S11345F090E00E947707E0ECF0E284EF91E0A0E025
S1134600B0E086839783A087B18712868CE897E110
S113461094878387CF010E94D016EAE9F0E288EEFE
S113462093E0A0E0B0E086839783A087B1871286E9
S113463084E597E1948783870E946E51E4E8F0E271
S113464000E911E0B8010E94B1508C599F4F092E26
S1134650000CAA0BBB0B86839783A087B1871286B5
S113466086E497E1948783870E946E51E9E5F0E23E
S1134670B8010E94B1508C599F4F092E000CAA0B0F
S1134680BB0B86839783A087B187128684E897E162
S113469094878387E2E1F1E288E893E1A0E0B0E067
S11346A086839783A087B187C2872FE737E1348752
S11346B02387E1E0F1E286839783A087B18712869E
S11346C088E597E1948783870E94463B40DF6091A9
S11346D0BC207091BD208091BE200E94330C8111BA
S11346E008C0ECE2F0E2178286E0838B0E949234E9
S11346F003C081E080933320CF911F910F910895DF
S11347008091282181FF0EC084E080938220109242
S11347107D2010927C200E948C0282E191E20C9414
S1134720D016089581E08093822008950F93062F78
S1134730292F482F65E48EEA53D18AE090E063D0B4
S11347400F91089582E090E10E94653280932821C0
S113475084E090E10E9465328093232183E090E11C
S11347600E946532809326208091282180FF2EC0EC
S113477061E08CEF9FE0DADF60E08DEF9FE0D6DF51
S113478060E18EEF9FE0D2DF60E08FEF9FE0CEDF4D
S113479064E380E090E1CADF62E181E090E1C6DF9A
S11347A06FE883E090E1C2DF66E684E090E1BEDF7B
S11347B09CD1809128218E7F80932821609128218B
S11347C082E090E1B3DF8AE090E01DC008951F937A
S11347D0CF93DF93D82F192F41E0480F292F65E499
S11347E08FEA29D1C82F212F4D2F65E48FEA23D1D9
S11347F02C2F30E0322F2227A901482BCA01DF9148
S1134800CF911F91089528EE33E0AC01429FC0017F
S1134810439F900D529F900D1124009739F020E092
S113482030E02F5F3F4F28173907D9F708950F93CA
S11348301F93CF93DF9300D000D0CDB7DEB7BE0176
S11348406F5F7F4F96E0FB0111929A95E9F708E4B8
S113485018EE21E030E009831A832B833C838E8396
S113486088E18D8388EB90E00E94FC0426960FB6C5
S1134870F894DEBF0FBECDBFDF91CF911F910F9192
S11348800895EF92FF920F931F93CF93DF93CDB7C9
S1134890DEB72A970FB6F894DEBF0FBECDBFF9017D
S11348A09E012F5F3F4F79012AE0D7011D922A957F
S11348B0E9F74983DC013C913A83462F50E05E835B
S11348C04D83F887EF8310E01A8709876130C9F0B8
S11348D0623029F411968C918A833B8312C0633031
S11348E081F4FC0121812B8382818C830AC081E0C5
S11348F090E089DF115031F481E00E94913A81E027
S11349000AC01AE0BE016F5F7F4F88EB90E00E94FF
S11349109B048111ECCF2A960FB6F894DEBF0FBE2C
S1134920CDBFDF91CF911F910F91FF90EF9008952C
S1134930EF92FF920F931F93CF93DF93CDB7DEB720
S11349402A970FB6F894DEBF0FBECDBFF9019E01C2
S11349502F5F3F4F79012AE0D7011D922A95E9F78D
S11349604983DC013C913A83462F50E05E834D83BA
S1134970F887EF8310E01A8709876130C9F0623045
S113498029F411968C918A833B8312C0633081F49D
S1134990FC0121812B8382818C830AC081E090E019
S11349A032DF115031F481E00E94913A83E00BC070
S11349B01AE0BE016F5F7F4F88EB90E00E94C7044E
S11349C08111ECCF82E02A960FB6F894DEBF0FBEB9
S11349D0CDBFDF91CF911F910F91FF90EF9008957C
S11349E0FF920F931F93CF93DF9300D0CDB7DEB721
S11349F0182F653419F0FF24F39403C06894FF243E
S1134A00F1F849832A830B83812F11DF01E09E0192
S1134A102D5F3F4F412F6F2DCE01019632DF85E090
S1134A2090E0F1DE0F900F900F90DF91CF911F91E6
S1134A300F91FF900895FF920F931F93CF93DF93ED
S1134A4000D01F92CDB7DEB7182F653419F0FF24BC
S1134A50F39403C06894FF24F1F849832A831B82EA
S1134A601C82812FE4DE01E09E012D5F3F4F412F28
S1134A706F2DCE0101965CDF8B810F900F900F900C
S1134A800F90DF91CF911F910F91FF9008950F9395
S1134A90CF93DF9300D01F92CDB7DEB719821A826D
S1134AA01B821C8280E9C3DE00E020E030E040E9A4
S1134AB061E0CE010196E5DE811109C002E09E01AC
S1134AC02D5F3F4F41E961E0CE01019631DF8B81DB
S1134AD090E0880F991F959587950F900F900F90F0
S1134AE00F90DF91CF910F9108950F93CF93DF93A0
S1134AF0C0E0D0E00FEF2D2F4C2F65E48EEA70DF7D
S1134B008AE090E080DEA8952196CC3F8FE0D8071C
S1134B1089F71092352110923421DF91CF910F91B2
S1134B200895CF93DF93C0E0D0E0CE010E946532B8
S1134B308F3F29F4D0933521C093342105C02B969F
S1134B40CC3F8FE0D80789F7DF91CF9108956FEFBD
S1134B500C94EF3308952F923F924F925F926F928D
S1134B607F928F929F92AF92BF92CF92DF92EF92F9
S1134B70FF920F931F93CF93DF93CDB7DEB76E975A
S1134B800FB6F894DEBF0FBECDBF81113FC0809138
S1134B903421909135218C3F9F4020F01092352193
S1134BA010923421409134212091352103E465E4AD
S1134BB08EEA16DF809134219091352101969093ED
S1134BC03521809334218AE090E01DDE80913421E8
S1134BD0909135218C3F9F4020F010923521109206
S1134BE03421409134212091352103E565E48EEA96
S1134BF0F7DE8091342190913521019690933521EF
S1134C00809334218AE090E0FEDD0CC2813009F00B
S1134C103FC080913421909135218C3F9F4020F0FA
S1134C201092352110923421409134212091352164
S1134C3003E465E48EEAD4DE809134219091352139
S1134C40019690933521809334218AE090E0DBDD56
S1134C5080913421909135218C3F9F4020F0109217
S1134C60352110923421409134212091352105E4DD
S1134C7065E48EEAB5DE8091342190913521019668
S1134C8090933521809334218AE090E0BCDDCAC141
S1134C90823009F03FC080913421909135218C3FBE
S1134CA09F4020F0109235211092342140913421FC
S1134CB02091352104E465E48EEA92DE809134216A
S1134CC090913521019690933521809334218AE087
S1134CD090E099DD80913421909135218C3F9F4063
S1134CE020F01092352110923421409134212091EA
S1134CF0352103E565E48EEA73DE809134219091D9
S1134D003521019690933521809334218AE090E0F7
S1134D107ADD88C1833009F03FC0809134219091BD
S1134D2035218C3F9F4020F0109235211092342180
S1134D30409134212091352104E465E48EEA50DE6B
S1134D40809134219091352101969093352180935F
S1134D5034218AE090E057DD80913421909135210F
S1134D608C3F9F4020F010923521109234214091C5
S1134D7034212091352105E465E48EEA31DE809109
S1134D8034219091352101969093352180933421DB
S1134D908AE090E038DD46C1843009F03FC080915C
S1134DA03421909135218C3F9F4020F01092352181
S1134DB010923421409134212091352105E465E499
S1134DC08EEA0EDE809134219091352101969093E4
S1134DD03521809334218AE090E015DD80913421DF
S1134DE0909135218C3F9F4020F0109235211092F4
S1134DF03421409134212091352103E565E48EEA84
S1134E00EFDD8091342190913521019690933521E5
S1134E10809334218AE090E0F6DC04C1853009F007
S1134E203FC080913421909135218C3F9F4020F0E8
S1134E301092352110923421409134212091352152
S1134E4005E465E48EEACCDD80913421909135212E
S1134E50019690933521809334218AE090E0D3DC4D
S1134E6080913421909135218C3F9F4020F0109205
S1134E70352110923421409134212091352105E4CB
S1134E8065E48EEAADDD809134219091352101965F
S1134E9090933521809334218AE090E0B4DCC2C041
S1134EA0863009F03FC080913421909135218C3FA8
S1134EB09F4020F0109235211092342140913421EA
S1134EC02091352102E465E48EEA8ADD8091342163
S1134ED090913521019690933521809334218AE075
S1134EE090E091DC80913421909135218C3F9F405A
S1134EF020F01092352110923421409134212091D8
S1134F00352103E465E48EEA6BDD809134219091D0
S1134F103521019690933521809334218AE090E0E5
S1134F2072DC80C0873009F03FC0809134219091B9
S1134F3035218C3F9F4020F010923521109234216E
S1134F40409134212091352102E465E48EEA48DD64
S1134F50809134219091352101969093352180934D
S1134F6034218AE090E04FDC809134219091352106
S1134F708C3F9F4020F010923521109234214091B3
S1134F8034212091352104E465E48EEA29DD809101
S1134F9034219091352101969093352180933421C9
S1134FA08AE090E030DC3EC080913421909135213C
S1134FB08C3F9F4020F01092352110923421409173
S1134FC03421209135210EE465E48EEA09DD8091D7
S1134FD03421909135210196909335218093342189
S1134FE08AE090E010DC80913421909135218C3F4F
S1134FF09F4020F0109235211092342140913421A9
S1135000209135210EE465E48EEAEADC80913421B6
S113501090913521019690933521809334218AE033
S113502090E0F1DB80913720809333210E943D3B57
S11350306B017C014F2D5527662777274E2C8D2C2D
S1135040A0914B20E0E8AE9FD00111248091302044
S11350508170A82B80912F20817089831A82898185
S11350609A81880F991F9A2F982B8091332080FB67
S1135070222420F8312C220C331C220C331C292A24
S1135080ACE2B0E28C9181708B831C82EB81FC8159
S1135090EE0FFF1FEE0FFF1FEE0FFF1F822D8E2B53
S11350A09091312091709D831E822D813E812295A5
S11350B03295307F3227207F3227282E222A809172
S11350C03C2081708F8318868F819885880F991F63
S11350D082959295907F9827807F98278229909136
S11350E03420917099871A8629843A84002436944E
S11350F027940794369427940794322C202C282A3A
S1135100A0915320E0E8AE9FD001112480913E206D
S113511087708A2B9091372091709B871C86EB8532
S1135120FC85EE0FFF1FEE0FFF1FEE0FFF1F8E2BF0
S113513090913A2091709D871E862D853E852295FB
S11351403295307F3227207F3227282B80915120BF
S113515081708F87188A8F859889880F991F829507
S11351609295907F9827807F9827822B9091522048
S11351709170998B1A8A29893A8900243695279542
S11351800794369527950794322F202D182F122B2C
S113519080914D2081708B8B1C8AEB89FC89EE0FEA
S11351A0FF1F80914E2081708D8B1E8A8D899E8970
S11351B0880F991F880F991F8E2BE0914C20E17066
S11351C08E2B90914F2091709F8B188EEF89F88DC4
S11351D0EE0FFF1FEE0FFF1FEE0FFF1F8E2B9091A0
S11351E050209170998F1A8E298D3A8D229532957F
S11351F0307F3227207F3227282B80913520817001
S11352008B8F1C8E8B8D9C8D880F991F8295929508
S1135210907F9827807F9827822B909136209170D9
S11352209D8F1E8E2D8D3E8D0024369527950794D7
S1135230369527950794322F202D382E322A8091C7
S11352403421909135218C3F9F4020F010923521DC
S1135250109234218091342120913521042F482F3C
S113526065E48EEABDDB809134219091352101966D
S113527090933521809334218AE090E0C4DA8091C0
S11352803421909135218C3F9F4020F0109235219C
S1135290109234214091342120913521042D65E46C
S11352A08EEA9EDB80913421909135210196909372
S11352B03521809334218AE090E0A5DA809134216D
S11352C0909135218C3F9F4020F01092352110920F
S11352D034214091342120913521082D65E48EEA52
S11352E07FDB809134219091352101969093352173
S11352F0809334218AE090E086DA80913421909181
S113530035218C3F9F4020F010923521109234219A
S113531040913421209135210C2D65E48EEA60DB27
S11353208091342190913521019690933521809379
S113533034218AE090E067DA80913421909135211C
S11353408C3F9F4020F010923521109234214091DF
S113535034212091352100912D2065E48EEA40DB33
S11353608091342190913521019690933521809339
S113537034218AE090E047DA8091342190913521FC
S11353808C3F9F4020F0109235211092342140919F
S11353903421209135210091322065E48EEA20DB0E
S11353A080913421909135210196909335218093F9
S11353B034218AE090E027DA8091342190913521DC
S11353C08C3F9F4020F0109235211092342140915F
S11353D0342120913521022D65E48EEA01DB809190
S11353E03421909135210196909335218093342175
S11353F08AE090E008DA80913421909135218C3F45
S11354009F4020F010923521109234214091342194
S113541020913521012F65E48EEAE2DA809134216E
S113542090913521019690933521809334218AE01F
S113543090E0E9D980913421909135218C3F9F40AF
S113544020F0109235211092342140913421209182
S11354503521032D65E48EEAC3DA809134219091DD
S11354603521019690933521809334218AE090E090
S1135470CAD980913421909135218C3F9F4020F0EE
S1135480109235211092342180913421909135214C
S11354905EDB8AE090E0B7D96E960FB6F894DEBF73
S11354A00FBECDBFDF91CF911F910F91FF90EF9071
S11354B0DF90CF90BF90AF909F908F907F906F9030
S11354C05F904F903F902F9008950F931F93CF9329
S11354D0FC016081662369F08C01C0E088EC90E0F7
S11354E00E94E106CF5FF801EC0FF11D60816111AC
S11354F0F5CFCF911F910F91089590910021992399
S113550019F09130B9F00895EEEAF0E22BEB30E2B5
S113551090E29193E217F307E1F78B3521F481E0F0
S11355208093002108958D3519F5109291201092E1
S1135530002108958D3541F410929120109200219C
S113554081E080936D200895909191209D3048F4DE
S1135550E92FF0E0E255FF4D80839F5F9093912007
S11355600895109291201092002180E493E0ADCF31
S11355700895CF93C82F682F62956F706A3010F02A
S1135580695C01C0605D88EC90E00E94E106CF7028
S1135590CA3018F067E36C0F02C060E36C0F88EC4C
S11355A090E00E94E106CF91089510926D20E09161
S11355B0AE208E2F90E0FC01F197E930F105B0F4B4
S11355C08827E659FE4F8F4F0C94E65082E00895E9
S11355D083E0089584E0089585E0089586E00895C1
S11355E087E0089588E0089589E0089580E693E0CF
S11355F06CDF80E0089581E0089510926D20809121
S1135600AE208133A1F018F4803351F00BC0823303
S113561019F0833319F006C082E0089583E00895F9
S113562084E0089580E693E050DF85E0089581E00A
S113563008950F931F93CF93FC016081662369F053
S11356408C01C0E088EC90E00E94E106CF5FF80195
S1135650EC0FF11D60816111F5CFCF911F910F9176
S11356600895CF93C62FE5DF82E793E02EDF8C2FDA
S113567080DFCF9108959F92AF92BF92CF92DF9235
S1135680EF92FF920F931F93CF93DF93F62E6A014D
S113569021E02093D32010926D20182FB92ECEEA4A
S11356A0D0E2AA24A394A80E5BC030916D203130BF
S11356B0E1F781E3F81621F082E3F816F1F04DC02A
S11356C088810E947E3AE82E89810E947E3AEE0CFF
S11356D0EE0CEE0CEE0CE82A0E2D2B2D412F65E47A
S11356E08EEA7ED96E2DC601BCDF8AE090E08BD8AD
S11356F01092D32010926D2033C088810E947E3A8C
S1135700E82E89810E947E3AEE0CEE0CEE0CEE0C33
S1135710E82A0E2D2B2D4A2D65E48EEA61D98A8163
S11357200E947E3A982E8B810E947E3A082F6E2D1D
S1135730C60197DFE92CEE0CEE0CEE0CEE0CE02A21
S11357400E2D2B2D412F65E48FEA4AD98E2D11DFC2
S11357501092D32010926D2003C08FE793E0B5DE42
S11357603091D320313009F4A0CFDF91CF911F9134
S11357700F91FF90EF90DF90CF90BF90AF909F90EC
S1135780089580916E20823051F128F4882359F0D5
S11357908130C9F041C0843009F439C060F18530EA
S11357A009F43FC039C08CEA93E08FDE8AED93E0C0
S11357B08CDE8DE496E089DE81E08093A72085E08D
S11357C080936E20089588E294E07FDE49EA58E0F1
S11357D062E38CEF9FE04FDF10926E20089585E422
S11357E094E073DE4AE958E062E38EEF9FE043DF22
S11357F010926E20089582E694E067DE4CE858E04B
S113580062E380E090E137DF10926E2008951092F9
S1135810A7208EE794E059DE89E0809383201092DC
S11358206E20089510926D208091AE20823361F035
S113583028F4803389F08133B1F010C0843341F00F
S113584028F0853339F00AC082E0089583E0089592
S113585084E0089585E0089587E0089580E693E064
S113586034DE86E0089581E00895DF92EF92FF929E
S11358700F931F93CF93DF9380916F2090E08A3032
S1135880910508F0EFC5FC018827ED58FE4F8F4FB6
S11358900C94E65060917520709176208091772069
S11358A00E94C00A6091972070919820809199205D
S11358B00E94C00A6091A9207091AA208091AB2017
S11358C00E94C00A6091792070917A2080917B2097
S11358D00E94C00A609156207091572080915820F0
S11358E00E94C00A60912A2170912B2180912C2161
S11358F00E94C00A6091302170913121809132213F
S11359000E94C00A82E994E0E0DD81EC97E0DDDDED
S11359106091242170912521809126210E94330CCD
S1135920882351F0609124217091252180912621B2
S11359300E94330C8111F6CF60911F2170912021B8
S1135940809121210E94330CE82E60917220709185
S11359507320809174200E94330CD82E6091D02043
S11359607091D1208091D2200E94330CF82E609146
S113597028207091292080912A200E94330C082F1E
S113598060917F2070918020809181200E94330C4F
S1135990182F6091662070916720809168200E9482
S11359A0330CD82F60910F21709110218091112117
S11359B00E94330CC82F6091CD207091CE2080912D
S11359C0CF200E94330C21E0D11020E091E0E110BF
S11359D090E0292B91E0F11090E0922B21E001114D
S11359E020E0292B91E0111190E0922B21E0D111BC
S11359F020E0292B91E0C11190E0922B29F491E051
S1135A00811190E0992349F08FE994E05EDD8BEAFF
S1135A1094E05BDD10926F2025C560917520709134
S1135A207620809177200E947C0A88EC94E04DDDFA
S1135A3081E080936F2016C582E994E046DD84ED11
S1135A4094E043DD60911F217091202180912121F8
S1135A500E94330C882351F060911F217091202102
S1135A60809121210E94330C8111F6CF6091242171
S1135A7070912521809126210E94330CE82E60919B
S1135A80722070917320809174200E94330CD82E60
S1135A906091D0207091D1208091D2200E94330C4B
S1135AA0F82E609128207091292080912A200E944C
S1135AB0330C082F60917F20709180208091812089
S1135AC00E94330C182F609166207091672080919A
S1135AD068200E94330CD82F60910F2170911021FF
S1135AE0809111210E94330CC82F6091CD207091B8
S1135AF0CE208091CF200E94330C21E0D11020E0F1
S1135B0091E0E11090E0292B91E0F11090E0922BCC
S1135B1021E0011120E0292B91E0111190E0922B5A
S1135B2021E0D11120E0292B91E0C11190E0922BCA
S1135B3029F491E0811190E0992349F08FE994E0F0
S1135B40C4DC8BEA94E0C1DC10926F208BC46091BA
S1135B50972070919820809199200E947C0A88EC6B
S1135B6094E0B3DC82E080936F207CC482E994E00B
S1135B70ACDC8EE392E0A9DC60917220709173201A
S1135B80809174200E94330C882351F0609172201C
S1135B9070917320809174200E94330C8111F6CF90
S1135BA06091242170912521809126210E94330C3B
S1135BB0E82E60911F2170912021809121210E9463
S1135BC0330CD82E6091D0207091D1208091D220B6
S1135BD00E94330CF82E6091282070912920809126
S1135BE02A200E94330C082F60917F20709180201E
S1135BF0809181200E94330C182F6091662070914F
S1135C006720809168200E94330CD82F60910F2167
S1135C1070911021809111210E94330CC82F609142
S1135C20CD207091CE208091CF200E94330C21E0B2
S1135C30D11020E091E0E11090E0292B91E0F110E7
S1135C4090E0922B21E0011120E0292B91E0111129
S1135C5090E0922B21E0D11120E0292B91E0C11199
S1135C6090E0922B29F491E0811190E0992349F07E
S1135C708FE994E02ADC8BEA94E027DC10926F2011
S1135C80F1C36091A9207091AA208091AB200E9459
S1135C907C0A88EC94E019DC83E080936F20E2C3F3
S1135CA082E994E012DC86ED94E00FDC6091D02070
S1135CB07091D1208091D2200E94330C882351F01E
S1135CC06091D0207091D1208091D2200E94330C19
S1135CD08111F6CF60912421709125218091262194
S1135CE00E94330CE82E60911F2170912021809135
