S00F0000504E4557454C532E73726563F7
S113000092C1000035C7000060C700008BC7000024
S1130010B6C70000E1C700000C9419080C94460808
S11300200C9473080C94A0080C94CD089CC1000097
S11300309AC1000098C1000096C100000C948F374B
S113004092C1000090C100008EC100008CC100006C
S11300508AC1000088C1000086C100000C94613789
S113006082C1000080C100007EC100007CC100008C
S11300707AC1000078C1000076C1000074C100009C
S113008072C1000070C100006EC100006CC10000AC
S113009083C6000068C1000066C10000D7C3000029
S11300A062C1000060C100000C94D40B5CC100006C
S11300B05AC1000058C1000056C1000054C10000DC
S11300C052C1000050C100004EC100004CC10000EC
S11300D04AC1000048C1000046C1000044C10000FC
S11300E042C1000040C100003EC100003CC100000C
S11300F03AC1000038C1000036C1000034C100001C
S113010032C1000030C100002EC100002CC100002B
S11301102AC1000028C1000026C1000024C100003B
S113012022C1000020C100001EC100001CC100004B
S11301301AC10000D104CD05CD05CD05CD05CD05F1
S1130140CD05CD054804CD05CD05CD05CD05CD05A1
S1130150CD05CD054804CD05CD05CD05CD05CD0591
S1130160CD05CD056D04CD05CD05CD05CD05CD055C
S1130170CD05CD05D104CD05CD05CD05CD05CD05E8
S1130180CD05CD056D04CD05CD05CD05CD05CD053C
S1130190CD05CD05D104CD05CD05CD05CD05CD05C8
S11301A0CD05CD055E05CD05CD05CD05CD05CD052A
S11301B0CD05CD05D604CD05CD05CD05CD05CD05A3
S11301C0CD05CD05D104CD05CD05CD05CD05CD0598
S11301D0CD05CD05FF04CD05CD05CD05CD05CD055A
S11301E0CD05CD053705CD05CD05CD05CD05CD0511
S11301F0CD05CD059205CD05CD05CD05CD05CD05A6
S1130200CD05CD059205CD05CD05CD05CD05CD0595
S1130210CD05CD059205CD05CD05CD05CD05CD0585
S1130220CD05CD059205CD05CD05CD05CD05CD0575
S1130230CD05CD059C05CD05CD05CD05CD05CD055B
S1130240CD05CD05C105CD05CD05CD05CD05CD0526
S1130250CD05CD059C05CD05CD05CD05CD05CD053B
S1130260CD05CD05C105CD05CD05CD05CD05CD0506
S1130270CD05CD05B505CD05CD05CD05CD05CD0502
S1130280CD05CD056705CD05CD05CD05CD05CD0540
S1130290CD05CD056705CD05CD05CD05CD05CD0530
S11302A0CD05CD056B05CD05CD05CD05CD05CD051C
S11302B0CD05CD058605CD05CD05CD05CD05CD05F1
S11302C0CD05CD05C105AF279A279C279E27A027DA
S11302D0A227A427A627A827FE28D0296A2A042B08
S11302E09E2B382CD22C6C2D162EE32EFA2F0D308B
S11302F01B302B303B304F306D305C309E31A131A0
S1130300C431A331C731C931CB31CD31A5314E34DC
S113031057346B34613475347F34893493349D3469
S1130320B134BB34A73411241FBECFEFD1E8DEBFF4
S1130330CDBF00E00CBF19E0A0E0B2E0E2EBFCE9C5
S113034000E00BBF02C007900D92AE37B107D9F79A
S113035023E2AEE7B9E001C01D92A831B207E1F78C
S11303605CD50C94574E4CCEF999FECF92BD81BD0D
S1130370F89A80B50895EF92FF920F931F93CF934D
S1130380DF934115510579F08B01040F151FEB0123
S11303907C01E61AF70AC7018C0F9D1FE5DF8993DC
S11303A0C017D107C1F7DF91CF911F910F91FF9033
S11303B0EF900895EF92FF920F931F93CF93DF93E3
S11303C0CDB7DEB761970FB6F894DEBF0FBECDBFD1
S11303D04AE250E066E870E280E090E0CCDF809191
S11303E0AC209091AD20A091AE20B091AF2081348B
S11303F09C46A546B84709F47BC081E1E7E1F2E0F9
S1130400DE01119601900D928A95E1F70F2EFEED13
S1130410EF2EFFE1FF2EF02DF701638D748D8CEF2D
S11304209FE00E949B2006E810E2F80191838083FC
S1130430F701658D768D80E090E10E949B20F801A4
S113044095838483F701618D728D8EEF9FE00E9406
S11304509B20F8019383828340E250E060E270E0E5
S11304608CE890E20E94344E8BE0EBE0F2E0ACE8E2
S1130470B0E201900D928A95E1F7F80180819181B3
S1130480FC01EF2FFF27E295EF7021E030E02C0F05
S11304903D1FE20FF31F2081F8012587E92FFF2775
S11304A0EF70FF2721E030E02C0F3D1FE20FF31F18
S11304B02081F8012687FC01F295E295EF70EF2781
S11304C0FF70EF27EF70FF2721E030E02C0F3D1F76
S11304D0E20FF31F2081F80127878F709927E1E04D
S11304E0F0E0EC0FFD1FE80FF91F8081F801808B0D
S11304F061960FB6F894DEBF0FBECDBFDF91CF91EA
S11305001F910F91FF90EF900895CF93DF934AE2EC
S113051050E066E870E280E090E02DDF8091AC204E
S11305209091AD20A091AE20B091AF2081349C4633
S1130530A546B84711F1C6E8D0E28FEF9FEF998343
S113054088839D838C838FE090E09B838A8340E241
S113055050E060E270E08CE890E20E94344E8BE060
S1130560EBE0F2E0ACE8B0E201900D928A95E1F79D
S113057086E68D878E878F87888B4ED0DF91CF91CB
S1130580089529E08038920769F041E05AE0BC01FF
S113059021E04617570739F02F5F4F575F4F24313B
S11305A0C1F701C020E0FC01378531110EC030E0F5
S11305B0F901F695FE2FEE27F795E7952E0F3F1FCD
S11305C0F901E258F64F1082089530E0F901F695EA
S11305D0FE2FEE27F795E795E20FF31FE258F64F4B
S11305E0418141504183442319F00C943C0C0895FB
S11305F0F901F695FE2FEE27F795E7952E0F3F1F8D
S1130600F901E258F64F10820895FC016185878153
S113061090850C944C1B0895CF93DF93C6E8D0E2E9
S1130620888199810E94FB0B8C819D810E94010C21
S11306308A810E94451281E00E94411265E073E0C4
S113064081E00E94070CAEE7B9E0E9E8F9E06DE962
S113065073E181E093E041EC52E01C9218961C9205
S11306601E921797EF01229788832196888390839F
S11306709F01285F3F4F3283218355834483AF57C3
S1130680BF4FEF57FF4FE617F70739F70E94EB19F3
S1130690DF91CF91089580917E09882359F0EFEF7F
S11306A0F9E062E973E181E090E0AC01208121117D
S11306B018C002C040E050E0FA01F695FE2FEE2784
S11306C0F795E7954E0F5F1FFA01E258F64F81E068
S11306D08083DF01A058BF4F1C9281838E2F9F2FF0
S11306E008950196EF57FF4FE617F707F1F680E0FC
S11306F090E00895FC01E058FF4F2081222331F05F
S1130700FC01268702960C943C0C0895FC0110828F
S11307100895CF93DF9370E09C01260F371FF901F2
S11307203297C081D0E0DC2FCC2731962081C22BB8
S11307306250710926E030E048E252E00E94244D04
S113074021E0C817D90709F020E0822FDF91CF916B
S1130750089581E08093A1131092931380E980930C
S1130760BC0008956115710529F1809193138111DD
S113077023C0EBE9F3E17183608313821282158253
S1130780148281E080939313FB0184819581892BEA
S113079021F484E08093A11303C082E08093A11329
S11307A085EA8093BC00809193138111FCCF8091E2
S11307B0A213089588EF089580E8089570939C1318
S11307C060939B136115710541F1FB01808591854F
S11307D0892B29F180919313811123C0EBE9F3E173
S11307E0138212821582148281E080939313FB0199
S11307F084819581892B21F485E08093A11303C022
S113080083E08093A11385EA8093BC0080919313C5
S11308108111FCCF8091A213089588EF089588EF89
S1130820089580E80895F894ECEBF0E010821092BB
S1130830B900DB0114968C918093B80080818160AB
S1130840808378941092921380E008951F920F92FF
S11308500FB60F9211240BB60F922F933F934F9321
S11308605F936F937F938F939F93AF93BF93EF9314
S1130870FF938091B900887F90E0893C910508F04E
S11308808CC1FC018827E656FF4F8F4F0C94884D8E
S11308908091A1139EEF980F933060F4E0919B1325
S11308A0F0919C1380818E7F8093BB0085E88093B8
S11308B0BC008BC1853061F4E0919B13F0919C13D3
S11308C0808181608093BB0085E88093BC007DC1FA
S11308D040DF8BEF8093A21378C18091A113843001
S11308E051F5EBE9F3E1848195810190F081E02DEC
S11308F0208531858217930798F426813781AC01CE
S11309004F5F5F4F5093A01340939F13F901E80F7B
S1130910F91F80818093BB0085E88093BC0055C19A
S113092084E98093BC00EBE9F3E181E086831782DC
S1130930109293134AC19EEF980F923038F5EBE969
S1130940F3E182819381A081B181A80FB91F11962F
S11309502C910196938382832093BB0025E82093F6
S1130960BC000190F081E02D2481358128173907DE
S113097009F02BC18091A113823021F484E080938B
S1130980A11323C185E08093A1131FC1853021F4F5
S113099085EA8093BC0019C1DCDE8BEF8093A2133F
S11309A014C1D7DE8FEF8093A2130FC18091A113DE
S11309B0853001F5EBE9F3E1A081B18118968D91C1
S11309C09C9119970197248135812817390749F497
S11309D0ECEBF0E080818F7B80838081856880836D
S11309E0F4C0ECEBF0E080818064808380818568D2
S11309F08083EBC0AEDE8BEF8093A213E6C0209120
S1130A00BB008091A113853069F5EBE9F3E1A08186
S1130A10B18116966D917C91179784819581AC0173
S1130A204F5F5F4F55834483FB01E80FF91F208319
S1130A3018968D919C91199701974817590748F476
S1130A40ECEBF0E080818064808380818568808322
S1130A50BCC0ECEBF0E080818F7B80838081856873
S1130A608083B3C076DE8BEF8093A213AEC0209157
S1130A70BB008091A1138530E1F4EBE9F3E1A0819F
S1130A80B18116964D915C91179784819581BC0133
S1130A906F5F7F4F75836483DA01A80FB91F2C93AE
S1130AA084E98093BC0081E08683178210929313BB
S1130AB08CC04FDE8BEF8093A21387C0EBE9F3E188
S1130AC081E0868386EF8783109293137EC0109211
S1130AD0971310929613E4E9F3E1A081B181129681
S1130AE02D913C91139782819381AC014F5F5F4FAD
S1130AF053834283D901A80FB91F8C918093BB0003
S1130B0085EC8093BC0088E084835FC0E4E9F3E172
S1130B1081E0848382E090E09683858385EC8093F2
S1130B20BC0053C0E4E9F3E11382128285EC8093A4
S1130B30BC0088E0848349C02091BB00E4E9F3E170
S1130B40A081B1814D915C9182819381BC016F5FE1
S1130B507F4F73836283DA01A80FB91F2C9385EC4E
S1130B608093BC0088E0848330C0E4E9F3E181E051
S1130B70848383E090E09683858385EC8093BC0036
S1130B8024C0E4E9F3E181E0848380E98093BC003C
S1130B908FEF9FEF9683858318C080919213811104
S1130BA009C0EBE9F3E181E086838BEF8783109240
S1130BB093130BC0E4E9F3E18EEF9FEF96838583F3
S1130BC081E0848385EC8093BC00FF91EF91BF9119
S1130BD0AF919F918F917F916F915F914F913F91D1
S1130BE02F910F900BBE0F900FBE0F901F90189572
S1130BF00F931F93CF93DF938C01D62FCAE00AC0C3
S1130C0081E090E00E94B720C15021F482E00E946C
S1130C10333704C0F801908195FFF2CFF801D683F1
S1130C2080E0DF91CF911F910F9108958F929F9251
S1130C30AF92BF92CF92DF92EF92FF920F931F93E6
S1130C40CF93DF93EC016A017B01B901A801689499
S1130C5012F876956795579547951694D1F7D9016B
S1130C60C801072E73E1B695A795979587957A9550
S1130C70D1F7702DE881E1FF0BC04A015B01B69406
S1130C80A79497948794B695A7959795879502C04E
S1130C904A015B018C149D04AE04BF0478F1C816AC
S1130CA0D906EA06FB0660F1888181FF10C0CC0CEE
S1130CB0DD1CEE1CFF1CCB01BA01A70196010E94AA
S1130CC0664DDA01C9010197A109B10913C0C9012F
S1130CD0B801689413F89695879577956795169457
S1130CE0D1F7A70196010E94664DDA01C901019767
S1130CF0A109B1099D838C8381E003C080E001C018
S1130D0080E0DF91CF911F910F91FF90EF90DF90E2
S1130D10CF90BF90AF909F908F9008950F931F93A3
S1130D20CF93DF93EC01FB018A818F738A83268141
S1130D30358184819A81482F4370440F997F942B85
S1130D409A8399818470880F880F9B7F892B89836C
S1130D508A818F7C832B8A838A81922F990F990FA2
S1130D60990F877F892B8A834081518162817381A6
S1130D7000E012E12AE730E0CE0158DF9981986063
S1130D809983998190619983998190689983DF917E
S1130D90CF911F910F9108951F920F920FB60F924A
S1130DA011240BB60F922F933F934F935F936F933E
S1130DB07F938F939F93AF93BF93EF93FF93809110
S1130DC0CE000E943127FF91EF91BF91AF919F9187
S1130DD08F917F916F915F914F913F912F910F90E0
S1130DE00BBE0F900FBE0F901F9018958091062098
S1130DF0813021F480936D20809307200895F89426
S1130E00A89599E288E10FB6F894A89580936000BC
S1130E100FBE90936000789408950E945F130E941F
S1130E205620C8DAF9DBE3EAF3E180E197E2A0E0D7
S1130E30B0E086839783A087B18781E0828786EFBD
S1130E4096E094878387CF010E942A140E946C1530
S1130E500E94751F8091DA2090E00E943420CFDF39
S1130E6086E080934D010E9466130E94481BFBCFCD
S1130E701F920F920FB60F9211240BB60F922F935D
S1130E803F934F935F936F937F938F939F93AF930E
S1130E90BF93EF93FF93E091C213F091C313309784
S1130EA009F01995FF91EF91BF91AF919F918F91A7
S1130EB07F916F915F914F913F912F910F900BBE56
S1130EC00F900FBE0F901F9018951F920F920FB6A0
S1130ED00F9211240BB60F922F933F934F935F936E
S1130EE06F937F938F939F93AF93BF93EF93FF93EE
S1130EF0E091C013F091C113309709F01995FF9157
S1130F00EF91BF91AF919F918F917F916F915F917D
S1130F104F913F912F910F900BBE0F900FBE0F90EA
S1130F201F9018951F920F920FB60F9211240BB6B3
S1130F300F922F933F934F935F936F937F938F936E
S1130F409F93AF93BF93EF93FF93E091BE13F09100
S1130F50BF13309709F01995FF91EF91BF91AF91AD
S1130F609F918F917F916F915F914F913F912F91BD
S1130F700F900BBE0F900FBE0F901F9018951F92ED
S1130F800F920FB60F9211240BB60F922F933F932B
S1130F904F935F936F937F938F939F93AF93BF937D
S1130FA0EF93FF93E091BC13F091BD13309709F0D8
S1130FB01995FF91EF91BF91AF919F918F917F917F
S1130FC06F915F914F913F912F910F900BBE0F90B6
S1130FD00FBE0F901F9018951F920F920FB60F928D
S1130FE011240BB60F922F933F934F935F936F93FC
S1130FF07F938F939F93AF93BF93EF93FF93E0916E
S1131000BA13F091BB13309709F01995FF91EF9142
S1131010BF91AF919F918F917F916F915F914F910C
S11310203F912F910F900BBE0F900FBE0F901F900A
S113103018951F920F920FB60F9211240BB60F92B0
S11310402F933F934F935F936F937F938F939F93CC
S1131050AF93BF93EF93FF93E091B813F091B9135B
S1131060309709F01995FF91EF91BF91AF919F913E
S11310708F917F916F915F914F913F912F910F903D
S11310800BBE0F900FBE0F901F9018951F920F92DA
S11310900FB60F9211240BB60F922F933F934F93D9
S11310A05F936F937F938F939F93AF93BF93EF93CC
S11310B0FF93E091B613F091B713309709F01995A7
S11310C0FF91EF91BF91AF919F918F917F916F911C
S11310D05F914F913F912F910F900BBE0F900FBED8
S11310E00F901F9018951F920F920FB60F92112414
S11310F00BB60F922F933F934F935F936F937F930E
S11311008F939F93AF93BF93EF93FF93E091B413A7
S1131110F091B513309709F01995FF91EF91BF91B4
S1131120AF919F918F917F916F915F914F913F917B
S11311302F910F900BBE0F900FBE0F901F9018951C
S11311401F920F920FB60F9211240BB60F922F938A
S11311503F934F935F936F937F938F939F93AF933B
S1131160BF93EF93FF93E091B213F091B3133097D1
S113117009F01995FF91EF91BF91AF919F918F91D4
S11311807F916F915F914F913F912F910F900BBE83
S11311900F900FBE0F901F9018951F920F920FB6CD
S11311A00F9211240BB60F922F933F934F935F939B
S11311B06F937F938F939F93AF93BF93EF93FF931B
S11311C0E091B013F091B113309709F01995FF91A4
S11311D0EF91BF91AF919F918F917F916F915F91AB
S11311E04F913F912F910F900BBE0F900FBE0F9018
S11311F01F901895803111F4D99A0895D89A0895BA
S1131200803159F4E8E6F0E0808182608083ECE686
S1131210F0E08081816080830895E8E6F0E08081D9
S113122081608083EBE6F0E0208181E090E002C001
S1131230880F991F7A95E2F7822B80830895803175
S113124031F4ECE6F0E080818E7F80830895EBE654
S1131250F0E0208181E090E002C0880F991F7A9528
S1131260E2F78095822380830895CF92DF92EF92F4
S11312706B01E82EE4DF8E2DB60126D18E2DB6014A
S1131280C5D18E2DB601B6DF8E2DB601B9DFEF9034
S1131290DF90CF900895982F811105C05093C31308
S11312A04093C2130895813029F45093C11340939D
S11312B0C0130895823029F45093BF134093BE1392
S11312C00895833029F45093BD134093BC130895BB
S11312D0843029F45093BB134093BA130895853096
S11312E029F45093B9134093B8130895863029F420
S11312F05093B7134093B6130895873029F450934D
S1131300B5134093B41308958850883028F450934B
S1131310B3134093B2130895903121F45093B11351
S11313204093B0130895623009F128F4662341F024
S1131330613089F00895633021F1643069F10895D2
S113134025B181E090E002C0880F991F7A95E2F7F9
S1131350822B85B908952BB181E090E002C0880FFB
S1131360991F7A95E2F7822B8BB908952EB181E00B
S113137090E002C0880F991F7A95E2F7822B8EB90C
S1131380089521B381E090E002C0880F991F7A95F7
S1131390E2F7822B81BB089524B381E090E002C080
S11313A0880F991F7A95E2F7822B84BB08956230E7
S11313B019F128F4662341F0613091F00895633007
S11313C039F1643089F1089525B181E090E002C0DB
S11313D0880F991F7A95E2F78095822385B908953D
S11313E02BB181E090E002C0880F991F7A95E2F753
S11313F0809582238BB908952EB181E090E002C0DC
S1131400880F991F7A95E2F7809582238EB9089503
S113141021B381E090E002C0880F991F7A95E2F72A
S11314208095822381BB089524B381E090E002C0BB
S1131430880F991F7A95E2F78095822384BB0895DB
S1131440623009F128F4662341F0613089F008958F
S1131450633021F1643069F1089525B181E090E0B1
S113146002C0880F991F7A95E2F7822785B90895FB
S11314702BB181E090E002C0880F991F7A95E2F7C2
S113148082278BB908952EB181E090E002C0880FC5
S1131490991F7A95E2F782278EB9089521B381E0E6
S11314A090E002C0880F991F7A95E2F7822781BBEA
S11314B0089524B381E090E002C0880F991F7A95C3
S11314C0E2F7822784BB0895623061F128F4662331
S11314D049F06130B9F008956330A1F1643009F442
S11314E041C0089524B181E090E002C0880F991FA3
S11314F07A95E2F78095982F922394B995B1892330
S113150085B908952AB181E090E002C0880F991F3F
S11315107A95E2F78095982F92239AB99BB1892303
S11315208BB908952DB181E090E002C0880F991F16
S11315307A95E2F78095982F92239DB99EB18923DD
S11315408EB9089520B381E090E002C0880F991FFE
S11315507A95E2F78095982F922390BB91B38923D3
S113156081BB089523B381E090E002C0880F991FE6
S11315707A95E2F78095982F922393BB94B38923AD
S113158084BB0895623009F128F4662341F0613088
S113159089F00895633021F1643069F1089524B12C
S11315A081E090E002C0880F991F7A95E2F7822BC0
S11315B084B908952AB181E090E002C0880F991F90
S11315C07A95E2F7822B8AB908952DB181E090E0F3
S11315D002C0880F991F7A95E2F7822B8DB908957E
S11315E020B381E090E002C0880F991F7A95E2F75A
S11315F0822B80BB089523B381E090E002C0880F62
S1131600991F7A95E2F7822B83BB0895623009F122
S113161028F4662341F0613089F00895633021F1A4
S1131620643069F1089525B181E090E002C0880F2B
S1131630991F7A95E2F7822B85B908952BB181E041
S113164090E002C0880F991F7A95E2F7822B8BB93C
S113165008952EB181E090E002C0880F991F7A9519
S1131660E2F7822B8EB9089521B381E090E002C0A5
S1131670880F991F7A95E2F7822B81BB089524B3D2
S113168081E090E002C0880F991F7A95E2F7822BDF
S113169084BB08956230E9F028F4662341F0613098
S11316A079F032C06330F1F0643029F12DC083B198
S11316B090E002C0959587957A95E2F78170089538
S11316C089B190E002C0959587957A95E2F781708B
S11316D008958CB190E002C0959587957A95E2F7CC
S11316E0817008958FB190E002C0959587957A95A1
S11316F0E2F78170089582B390E002C095958795D2
S11317007A95E2F78170089580E0089514BE0FB6CB
S1131710F894A8958091600088618093600010928D
S113172060000FBEE1E6F0E080E8808310827894E8
S113173004C0089590E016C008951092E82080E156
S113174097E29093A9008093A800E1EAF0E088E092
S11317508083808182608083E2E7F0E08081826020
S1131760808308952091A4003091A500820F931FD7
S1131770EAEAF0E091838083208131818091A8009E
S11317809091A9008217930750F42091A8003091FA
S1131790A90080819181821B930B9183808384E0D3
S11317A089BBCA9BFECF08951F920F920FB60F926A
S11317B011248F938091E8208F5F8093E8208F918C
S11317C00F900FBE0F901F901895E9EEF0E214826F
S11317D015821182108217A216A2EFEEF0E28FE0BA
S11317E091E211921192E817F907D9F777D4B8D199
S11317F00AD13DC008959093EA208093E9205BC606
S113180008959093EC208093EB2043C60895E82F2D
S1131810F0E0EE0FFF1FE151FF4D718360830895E7
S1131820E7D15AD54DC00895E091C413F091C51382
S11318303097D9F0228133812817390789F405C0FC
S1131840228133812817390759F4DC01AD57BF4F82
S11318502C91278713962C91208B22E0248305C09A
S11318600190F081E02D309759F711C1089510923D
S1131870C5131092C4130895FC01148217861382B1
S11318801282A9EEB0E296968D919C91979701965B
S113189097969C938E9396978091C4139091C513B9
S11318A0009739F411821082F093C513E093C413A6
S11318B0089591838083F093C513E093C41308952E
S11318C00F931F93CF93DF93E091C413F091C5134B
S11318D0309709F493C0EF018C81882321F0823082
S11318E009F466C085C09AD08C01009721F482E087
S11318F08C838F8783C09B838A8381E08C83F801E8
S1131900E957FF4F84E19CE0918380833197898577
S113191082FB882780F980839985D8011B968C9156
S11319201B9790FB80F91B968C931B97998593FBCF
S1131930992790F990FB82F91B968C931B97E9EEFB
S1131940F0E284818F5F84831C968C931C97808142
S113195091811E969C938E931D978D819E815096A6
S11319609C938E931F978885982F9F7051968C9186
S11319705197807F892B51968C9351979F81929593
S1131980907F8F70892B51968C93F801EF57FF4FFE
S11319904C8550E06A857B85808191810E942B4E25
S11319A0F80191818C85890F8183C801BAD326C03F
S11319B0CE17DF0741F4888199819093C5138093F2
S11319C0C4130AC0FC0180819181C817D907D1F7DB
S11319D08881998191838083E9EEF0E286A197A1C1
S11319E0019797A386A3ED85FE85CE01199506C0C0
S11319F00990D881C02D209709F06ECFDF91CF9147
S1131A001F910F910895E6ECF3E18AE79EE11082BD
S1131A10E757FF4FE817F907D1F708958091C613E8
S1131A20882359F0EFE4F4E14AE75EE181E090E0D5
S1131A30BC012081211122C002C060E070E049E8AD
S1131A40469F9001479F300D1124C9018A539C4E33
S1131A50FC0111924A95E9F740E1FC014183EF57FB
S1131A60FF4F28523C4E31832083E9EEF0E226A159
S1131A7037A12F5F3F4F37A326A308950196E75759
S1131A80FF4FE417F507A1F680E090E00895FC010C
S1131A901082E9EEF0E286A197A1019797A386A3AD
S1131AA00895009741F0FC01E757FF4F8EE1EA37B4
S1131AB0F80718F015C0E6ECF3E18081882339F0CB
S1131AC003C08081882319F08E2F9F2F0895E75734
S1131AD0FF4F8EE1EA37F807A0F380E090E0089525
S1131AE080E090E00895FC01DC01AD57BF4F1C92EB
S1131AF0A9EEB0E214969C9114979F5F14969C9360
S1131B00149794878D919C91968785870895DC011D
S1131B1019962C911997222349F01796ED91FC916F
S1131B2018972081211104C090C3089580E008957E
S1131B3080E00895BC01ECE8FEE12EEB3EE140E0DC
S1131B4051E09081992319F091509083452F359657
S1131B50E217F307B1F7442311F0CB017BC60895D4
S1131B60ECE8FEE18EEB9EE110823596E817F9076A
S1131B70D9F7EAE7FEE184E690E0A0E0B0E08683EE
S1131B809783A087B18712868AE99DE0948783872B
S1131B9067E87DE080E03BCE0895CF93DF93DC01DE
S1131BA0ED91FC91119721812838F9F420812F7D42
S1131BB02134D9F412962C912031B8F0EC012EDFA7
S1131BC0009799F020E2FC0120832A8121832B8154
S1131BD0ED57FF4F20832C81319620834A8150E0BA
S1131BE06881798102960E942B4EDF91CF910895EE
S1131BF02F923F924F925F926F927F928F929F9219
S1131C00AF92BF92CF92DF92EF92FF920F931F9306
S1131C10CF93DF93CDB7DEB72C970FB6F894DEBF22
S1131C200FBECDBF00E010E00F2EF4E2DF2EF02D4A
S1131C300F2EF9EE8F2EF0E29F2EF02D6894CC2417
S1131C40C4F80F2EFCE84F2EFEE15F2EF02D0F2E70
S1131C50F8E86F2EFEE17F2EF02D0F2EFAEBEF2E1B
S1131C60FEE1FF2EF02D312C212C5801A2C1D5010B
S1131C708C91823209F4CFC0843209F498C1803245
S1131C8009F097C1DC921B968C911B97982F9A7040
S1131C9009F08FC115962D913C9116972F3F3F4F18
S1131CA081F4F50187859089D4012D913C91281701
S1131CB0390719F0019609F07CC122E2F50120836D
S1131CC078C1D5011F962D913C9150972F3F3F4FDE
S1131CD009F076C180FF74C16CC18C012C91222360
S1131CE009F456C0208131814217530709F051C0CD
S1131CF0F5019485F801EE0FFF1FEE0FFF1FE00FB3
S1131D00F11FE857F14E8281891B883038F5F801BC
S1131D10EE0FFF1FEE0FFF1FE00FF11FE857F14E0C
S1131D209381292F30E0082E02C0359527950A9417
S1131D30E2F720FD3EC1F801EE0FFF1FEE0FFF1F7B
S1131D40E00FF11FE857F14E21E030E002C0220F0E
S1131D50331F8A95E2F7922B938342C1F801EE0F69
S1131D60FF1FEE0FFF1F0E0F1F1FF801E857F14E64
S1131D709283238130E08195A90102C0440F551F4D
S1131D808A95E2F7CA01816083838FE1848328C145
S1131D90BF01019615963596EE15FF0509F09DCF06
S1131DA06115710509F405C1DB0111965C934E932D
S1131DB0F501848512968C931297F1E01396FC93A7
S1131DC013978FE114968C938AE79EE143D508C15B
S1131DD0D5011F968D919C915097F40120813181FA
S1131DE028173907A1F01B962C9122FD0DC0C501BF
S1131DF0E7D1D5011F968D919C915097F4012081D4
S1131E0031812817390719F0019609F0D2C0E2E2AE
S1131E10D501EC93CEC01092871ED50151962C911A
S1131E20519722952F70E22FF0E0EE0FFF1FE15142
S1131E30FF4D0190F081E02D309709F461C01D96AB
S1131E408D919C911E979A8389831F964D915C91E5
S1131E5050975C834B8351963C9151973F703D83DF
S1131E602E83AF57BF4F6D917C9179876887950119
S1131E702E5F3F4F261B370BD50111963C911197CE
S1131E80230F2A87AD57BF4F2C912B8711962C9186
S1131E902C87D5011B963C91632F637032FD02C0E1
S1131EA020E001C020E2262B33FD02C030E001C057
S1131EB030E4232B4F3F5F4F11F030E001C034E09A
S1131EC0232BD50119964D915C911A978417950788
S1131ED011F090E001C098E0822F892B8F83D50107
S1131EE015962D913C9116972F3F3F4F11F090E09E
S1131EF001C09C2D892B8F83CE010196199501C0B9
S1131F0080E0F501938590FF80E0D50117962D912F
S1131F103C9118972F3F3F4F69F4F4014081518160
S1131F20D5011F962D913C9150974217530711F4F8
S1131F3093FF81E0F501258136812F3F3F4FA1F1C9
S1131F40D4012D913C912F3F3F4F71F1882361F1D2
S1131F5065DD8C01009741F1C6DDF80181818D5F5B
S1131F608183E957FF4F11821082D5011B968C9112
S1131F701B9786958170F801938580FB91F993876F
S1131F801D968D919C911E97908B8787EF57FF4FDD
S1131F900190F081E02D10828091871E82831C962F
S1131FA08C918183C801BDD0D501DC9202C0C501EA
S1131FB06EDDC50176DD5C01892B09F058CE17C0B2
S1131FC0F50145855685D4018D919C91841795071B
S1131FD081F3D201F301832D922D632D722D7DCED9
S1131FE0F50187819085019609F003CFF1CE2C96F7
S1131FF00FB6F894DEBF0FBECDBFDF91CF911F9116
S11320000F91FF90EF90DF90CF90BF90AF909F9093
S11320108F907F906F905F904F903F902F90089596
S1132020EF92FF920F931F93CF937C0110E080E017
S113203090E001E0C3E113C0FC012081213179F477
S1132040EC57FF4F208131812150310931832083A6
S1132050232B21F4FC01C083102F01C0102F21DD9C
S1132060009751F7112311F0C701F4D3CF911F91B9
S11320700F91FF90EF900895EF92FF920F931F93AB
S1132080CF93DF937C0110E080E090E001E0D7E1A2
S1132090C0E116C0FC012081263191F4EC57FF4FBA
S11320A0208131812150310931832083232B39F45C
S11320B0FC01D083ED57FF4FC083102F01C0102FB8
S11320C0F0DC009739F7112311F0C701C3D3DF9176
S11320D0CF911F910F91FF90EF9008951092D51E0C
S11320E01092D41EE7ECFEE182E390E0A0E0B0E0C1
S11320F086839783A087B18712868CE390E19487C7
S11321008387EAEBFEE18AE090E0A0E0B0E086831A
S11321109783A087B187128680E190E194878387B3
S11321200895CF93DF93FC01DC01AA57BF4F8C9134
S113213081FF03C092E1908302C092E19083DF01AA
S1132140AD57BF4F1C9280FF05C08FEF9FEF968362
S1132150858306C08091EB209091EC209683858343
S11321602785308930872783A9EEB0E28D919C9131
S113217011979287818715968C9115978F5F159685
S11321808C9384832F3F3F4F81F4EF0181E498E8DF
S1132190938382830E94104EFE01EC57FF4F877099
S11321A0992701969183808308C081E698E89383F8
S11321B08283EC57FF4F11821082DF91CF910895F3
S11321C00F931F93CF93DF938C0128DCEC01892BB1
S11321D0B9F182E18883F80181818983FE01ED5799
S11321E0FF4F10820E94104EFE01EC57FF4F877084
S11321F09927019691838083339611821082F80186
S1132200418150E0B8016E5F7F4FCE0102960E947B
S11322102B4E81E498E89B838A838FEF9FEF988706
S11322208F83F801858196819E838D83E9EEF0E2A8
S1132230808191819A87898785818F5F85838C834B
S1132240DF91CF911F910F910895CF93DF93FC01FC
S1132250C781D08581858330C1F480E090E010C0CF
S1132260FC012081263161F434852981321308C0B0
S113227027E120832A81EA57FF4F208381E006C0AB
S113228010DC009769F780E001C080E0DF91CF9116
S11322900895E091D41EF091D51E813021F048F0CC
S11322A0823019F004C080E205C081E203C081E0FD
S11322B001C080E0DF01AD57BF4F8C9385E180837F
S11322C01092D51E1092D41EE9EEF0E286A197A1D9
S11322D0019797A386A308959F92AF92BF92CF923E
S11322E0DF92EF92FF920F931F93CF93DF93C0E09F
S11322F0D0E00F2EF4E1AF2EF02D09EE10E20F2EF8
S1132300F7E1DF2EF02D0F2EF6E19F2EF02D0F2E8C
S1132310F5E1EF2EF12CF02D0F2EF3E1CF2EF02D61
S11323200F2EF1E1BF2EF02D5EC088818331C1F004
S113233018F4823139F057C0853149F1873109F4F5
S113234045C051C0FE01EC57FF4F80819181892B1C
S113235029F0B8828AEB9EE17DD245C0C88243C091
S11323608091D41E9091D51E892B09F03CC0D09346
S1132370D51EC093D41EA8826981CE010296ADD029
S1132380F80186A197A1019697A386A32CC0FE010C
S1132390ED57FF4F8081811117C02D853E85F801CF
S11323A0808191812817390769F48B8580FF0AC0E1
S11323B09882FE01EC57FF4FF182E08287EC9EE1A8
S11323C049D211C0D8820FC0D8820DC0FE01E9578E
S11323D0FF4F0190F081E02D309719F4CE0157DBC7
S11323E002C0CE011995CE015CDBEC01892B09F00A
S11323F09CCFDF91CF911F910F91FF90EF90DF90D1
S1132400CF90BF90AF909F9008958091D61E982F43
S11324109F70E4E5F1E08081807F892B8083809147
S1132420D61E882329F08091D71E809353010895E6
S11324308091D71E982F9F71E8E4F1E08081807E1F
S1132440892B8083089593E090934201E1E4F1E0C5
S113245090819F719830E1F780934201E1E4F1E0CB
S113246090819F719813FCCF089588E0ECDF8FEF83
S113247080934F018091D81E882311F086E1E3CF29
S113248008958093D81EF1CF08958093D71EBDCFB1
S11324900895CF93DF931F921F92CDB7DEB79A832F
S11324A08983809362018A81809363010F900F90E6
S11324B0DF91CF910895CF93DF931F921F92CDB7F1
S11324C0DEB79A838983809360018A818093610156
S11324D00F900F90DF91CF9108950F931F93CF9397
S11324E08C01C62F89E1AFDF8FEF80934F0182E02B
S11324F08C0F80938001CC2381F0F801C1502C2FE4
S113250030E02F5F3F4FC801820F931FA1E8B1E075
S113251021912D93E817F907D9F783E08093591F88
S113252082E080934201CF911F910F910895EF9221
S1132530FF920F931F93CF93DF931092560186E07F
S113254082DFC0E0D0E0E12CF12C06E411E081E070
S1132550F1D8F8012081229526952770237030E068
S11325600C2E02C0220F331F0A94E2F7E22AF32A48
S11325702296C031D10559F788E065DF8BEE809350
S1132580560173DFC701DF91CF911F910F91FF9027
S1132590EF900895E9E3F1E08081816080831092F7
S11325A0D81E1092D61E81E08093591F88E04BDF1D
S11325B08BEE80935601ECE4F1E0808180688083A7
S11325C0B6DF80936D0108951F93CF93DF9300D0FE
S11325D01F921F92CDB7DEB78091591F823009F444
S11325E065C080914F0183FF3EC0A0917B016A2F9B
S11325F070E0AB014F5F5F4F80E090E020E0FC01B2
S1132600E058FE4F3081FC01E752F14E30832F5FDA
S1132610822F90E08417950794F389ED9EE19A83C5
S11326208983A250AB83FB01E752F14E80818C83F6
S1132630809147018A558D83CE010196AEDAE1E49B
S1132640F1E080818F718631E1F7EFE4F1E0808180
S113265088608083ECE4F1E080818F7780838081DF
S11326608068808323C080914F0186FF1FC08091C2
S113267041018F718931A9F4109142011295169587
S1132680177049F0133021F0153021F013E003C026
S113269011E001C012E0E9DE81E08093591F812F2F
S11326A0F8DDEFE4F1E08081806480830F900F9087
S11326B00F900F900F90DF91CF911F91089526D81E
S11326C06DD068DF82D81092450108957DDFA8D8C7
S11326D0CCC008950F931F93CF93DF93EC018091A7
S11326E05A1F90915B1F009709F445C04E815F818A
S11326F068857985FC010281138124813581401725
S113270051076207730760F0DC0117C0028113816F
S113271024813581401751076207730768F403C0A9
S1132720FC01A0E0B0E0041B150B260B370B028361
S11327301383248335830AC0DF01401B510B620BD2
S1132740730BED91FC911197309701F74A835B83EA
S11327506C837D83109741F08D919C91119799839F
S11327608883CD93DC9315C099838883D0935B1FB2
S1132770C0935A1F0EC0198218828E819F81A8852A
S1132780B9858A839B83AC83BD83D0935B1FC0933D
S11327905A1FDF91CF911F910F91089510925B1FE3
S11327A010925A1F0895CF93DF93A0915A1FB091AE
S11327B05B1F109791F1A817B90751F50AC08E173E
S11327C09F0729F5109731F0208131812D933C9397
S11327D007C0FC012081318130935B1F20935A1F75
S11327E00190F081E02D3097C1F0428153816481E2
S11327F07581EC018A819B81AC81BD81840F951F19
S1132800A61FB71F82839383A483B58306C0DF0109
S1132810ED91FC911197309791F6DF91CF91089546
S1132820E0915A1FF0915B1F309771F0E817F90798
S113283021F40CC08E179F0759F00190F081E02D10
S11328403097C1F780E0089580E0089581E008950D
S113285081E00895CF93DF93EC01E2DF811102C0A0
S1132860CE0138DFDF91CF910895CF92DF92EF92BE
S1132870FF92CF93DF938091E820882309F459C015
S11328808FB7F894C090E8201092E8208FBFD12C25
S1132890E12CF12CCC0CDD1CEE1CFF1CD701C60175
S11328A0880F991FAA1FBB1F880F991FAA1FBB1F40
S11328B0C80ED91EEA1EFB1EC0915A1FD0915B1F81
S11328C02097B9F18A819B81AC81BD81C816D90654
S11328D0EA06FB0610F1C81AD90AEA0AFB0A88813B
S11328E0998190935B1F80935A1F8A85813011F4DC
S11328F0CE01F0DEEB85FC85CE011995C0915A1FFF
S1132900D0915B1F2097A9F08A819B81AC81BD8106
S1132910C816D906EA06FB06F0F68A819B81AC81CB
S1132920BD818C199D09AE09BF098A839B83AC8341
S1132930BD83DF91CF91FF90EF90DF90CF9008950A
S1132940809148208F5F80934820882319F010924B
S11329504820089581E080936D20089582E790E2F5
S113296079CF089580912A20813081F483EB90E21D
S11329701ADF84E08093342010922F2010922E20AE
S11329800E94850284EC90E265CF0895811110C005
S113299083EB90E208DF81E0809334200E94DA0127
S11329A00E940C0384EC90E2FEDE8BE090E2FBCE0E
S11329B008958CE59FE10C94DE36089581E08093C0
S11329C006208FE292E00C94192708958091D91F74
S11329D0823008F06AC08091F01F823049F018F408
S11329E08130C9F149C08530A1F0863019F144C065
S11329F06091492070914A2080914B200E94D70910
S1132A006091272070912820809129200E94200A1B
S1132A1043C06091272070912820809129200E9432
S1132A20200A6091492070914A2080914B200E9495
S1132A30D70932C0609127207091282080912920E5
S1132A400E94200A6091492070914A2080914B2075
S1132A500E94200A21C06091272070912820809133
S1132A6029200E94200A6091492070914A20809177
S1132A704B200E94D70910C0609127207091282014
S1132A80809129200E94D7096091492070914A20A1
S1132A9080914B200E94D7098091D91F8F5F80932A
S1132AA0D91F82E790E2D6DE15C06091272070918D
S1132AB02820809129200E94D70960914920709193
S1132AC04A2080914B200E94D7091092D91F8CE490
S1132AD090E2C0DEA8950895EF92FF920F931F93A2
S1132AE0CF93DF93EFE7F0E210820F2EF3E0FF2E97
S1132AF0F02DF1828BE0828360917F2070918020A1
S1132B00809181204CE15AE10E944B0960917F2021
S1132B1070918020809181200E943509E8E1F0E2E3
S1132B201082C2E0C1838AE0828360911820709190
S1132B30192080911A200E943509EBE1F0E21082FD
S1132B40D1E0D18389E0828360911B2070911C20A5
S1132B5080911D200E943509E1ECF0E2108211827F
S1132B6088E082836091C1207091C2208091C3204B
S1132B700E943509EEE6F0E2D0836894EE24E2F890
S1132B80E18260916E2070916F20809170200E948C
S1132B90640A60916E2070916F20809170200E9471
S1132BA0060BE7E2F0E2C08305E001836091272091
S1132BB070912820809129200E94C20AE9E4F0E261
S1132BC0C08317E011836091492070914A2080915D
S1132BD04B200E94C20AEBE5F0E2C083E1826091DF
S1132BE05B2070915C2080915D200E94C20AEBE220
S1132BF0F0E2C083F18260912B2070912C208091AF
S1132C002D200E94C20A009309206091082070912F
S1132C10092080910A200E94C20A0F2EF6E0FF2E9E
S1132C20F02DF092DD206091DC207091DD20809108
S1132C30DE200E94C20A1093E3206091E22070918A
S1132C40E3208091E4200E94C20AE6EDF0E2C08312
S1132C5011826091D6207091D7208091D8200E9453
S1132C60640A6091D6207091D7208091D8200E9468
S1132C70060BE1EDF0E2C083D1836091D120709125
S1132C80D2208091D3200E94640A6091D120709157
S1132C90D2208091D3200E94060BE4E2F0E2C083AC
S1132CA0C1836091242070912520809126200E9468
S1132CB0640A6091242070912520809126200E942E
S1132CC0060BE2E8F0E2D0830183609182207091E8
S1132CD08320809184200E94640A609182207091F4
S1132CE08320809184200E94060BEAEDFFE1D083CB
S1132CF0F1826091DA1F7091DB1F8091DC1F0E94CA
S1132D00640A6091DA1F7091DB1F8091DC1F0E94BE
S1132D10060BE1E3F0E2D0831183609131207091DE
S1132D203220809133200E94640A60913120709196
S1132D303220809133200E94060BDF91CF911F91A6
S1132D400F91FF90EF9008950F93CF93DF938091AD
S1132D503420823009F4F1C130F4882309F46EC0C0
S1132D60813051F034C3843009F481C208F436C18F
S1132D70853009F43FC22BC310922A20C1E0C093CE
S1132D800620609108207091092080910A200E94F9
S1132D90D709EEEDFFE11386C38B85E0828BC18BEF
S1132DA084EF91E0A0E0B0E08093782090937920C4
S1132DB0A0937A20B0937B2088EE93E0A0E0B0E06B
S1132DC08093522090935320A0935420B093552085
S1132DD08081813081F48091712081110CC06091D7
S1132DE05B2070915C2080915D200E944A0B8111D0
S1132DF002C0109234208091E61F813021F080912E
S1132E00E11F813011F4109234208091E21F81304F
S1132E1019F485E0809334208091E71F813019F400
S1132E2082E0809334208091E81F813009F0CFC282
S1132E3083E08093342010925F20C9C280915F2088
S1132E40813031F480915F208F5F80935F2002C0D6
S1132E5010925F2010922A2081E080930620EEEDEC
S1132E60FFE1828B8AEF90E0A0E0B0E080937820CD
S1132E7090937920A0937A20B0937B2084EF91E003
S1132E80A0E0B0E08093522090935320A09354206C
S1132E90B09355208089813021F08091EF1F8111FA
S1132EA014C0609108207091092080910A200E942A
S1132EB0D7091092E91F8091B120811106C087E0E3
S1132EC00E945F2281E08093B1208091EE1F8111E6
S1132ED00FC08091EF1F813059F4609108207091E8
S1132EE0092080910A200E94930981E08093E91FC0
S1132EF08091D420811106C084E00E945F2281E089
S1132F008093D4208091E81F813029F483E080935A
S1132F1034201092D4208091FD1F811116C080911D
S1132F20DE1F81112AC08091E61F811126C0809185
S1132F30E11F811122C085E00E945F221092D420FB
S1132F401092B12081E0809334208091FD1F813064
S1132F50A1F48091E61F813081F460915B2070912F
S1132F605C2080915D200E94D709EEEDFFE1108680
S1132F7013828185813069F504C08091E71F813017
S1132F8011F41092E71F8091E11F813011F58091B7
S1132F90E21F8130F1F48091452090914620019602
S1132FA09093462080934520893E9D4F08F40FC29C
S1132FB082E090E10E94192F082F03600093DD1F27
S1132FC020E142E065E48EEA0E94A4210E94E132FD
S1132FD0FEC11092462010924520F9C1CEEDDFE1EA
S1132FE083E08A8B609108207091092080910A20E7
S1132FF00E94930981E08B8710922A2080930620F7
S11330008091D420811111C082E00E945F2281E06E
S11330108093D42084E60E94C53460915B20709133
S11330205C2080915D200E9493098091FD1F813076
S113303049F583E00E945F2262E081E60E941A362D
S11330401092D42081E080935F2010923420CEED42
S1133050DFE11A8660915B2070915C2080915D2095
S11330600E94D7091B866091C1207091C220809173
S1133070C3200E944A0B91E0811101C090E090931B
S1133080DE1FA5C18091EE1F813049F583E00E94C7
S11330905F2262E08EE60E941A361092D42081E00C
S11330A080935F2080933420CEEDDFE11A86609117
S11330B05B2070915C2080915D200E94D7091B8663
S11330C06091C1207091C2208091C3200E944A0B5C
S11330D091E0811101C090E09093DE1F78C180914E
S11330E0E81F813009F473C183E00E945F2262E02B
S11330F083E70E941A361092D42081E080935F20E7
S113310080933420CEEDDFE11A8660915B207091CC
S11331105C2080915D200E94D7091B866091C120AC
S11331207091C2208091C3200E944A0B91E08111CA
S113313001C090E09093DE1F4AC1EEEDFFE184E010
S1133140828B10922A2081E08093062082E0838B78
S11331508091D420811108C00E945F2281E0809375
S1133160D42083E60E94C5348091DE1F8130A9F407
S113317080917120811111C081E00E945F2262E080
S113318081E60E941A361092D42081E080935F2059
S1133190809334201092E71F1AC18091D81F909118
S11331A0DF1F981788F081E00E945F2262E08EE6BC
S11331B00E941A361092D42081E080935F2080937D
S11331C034201092E71F03C18091E71F813009F476
S11331D0FEC081E00E945F2262E083E70E941A360B
S11331E01092D42081E080935F2080933420109249
S11331F0E71FEDC080912A20811108C083EB90E283
S113320029DB80912A208F5F80932A20809144209B
S1133210893080F0609118207091192080911A20D3
S11332200E944A0B91E0811190E09093E21F10926A
S1133230442003C08F5F809344208091E21F81115A
S113324008C083EB90E2AFDA81E0809334201092DF
S11332502A208091DE1F813009F0B9C0809171204D
S11332608111B5C01092342010922A20B0C08DE78D
S113327090E0A0E0B0E08093782090937920A09330
S11332807A20B0937B208AEF90E0A0E0B0E08093B6
S1133290522090935320A0935420B0935520109221
S11332A0062082E08093F01F8091C020813031F0AD
S11332B0C0F1823051F0833089F030C084EC90E268
S11332C072DA82E08093C0202CC060E18CE59FE13B
S11332D00E94F03683E08093C02023C080912E208A
S11332E090912F20813523EC920790F08091DA2081
S11332F081FF0BC08091DA208D7F8093DA2060916A
S1133300DA2082E090E10E94A3300E94E13209C0F9
S1133310019690932F2080932E2003C088E00E9472
S11333204234809144208930F0F0609118207091EB
S1133330192080911A200E944A0B91E0811190E09B
S11333409093E21F6091C1207091C2208091C320AC
S11333500E944A0B91E0811101C090E09093DE1F1E
S11333601092442003C08F5F809344208091E21F19
S1133370813051F480912A20813091F483EB90E2E2
S113338069DA10922A200CC081110AC080912A2087
S1133390811103C083EB90E206DA81E080932A2056
S11333A08091DE1F813099F48091712081110FC0CA
S11333B01092C02081E0809334200E94DA010E94A0
S11333C00C038BE090E2EFD984EC90E2ECD9DF912E
S11333D0CF910F91089580916D20882371F0809191
S11333E05F20882319F010925F2002C00E94AA3344
S11333F086E390E22FDA10926D2008958091E81F01
S1133400811119C08091E61F813021F08091E11F64
S1133410813049F460915B2070915C2080915D2043
S11334200C949309089560915B2070915C208091C5
S11334305D200C94D709089581E08093DF20DECFCE
S11334400895CF93DF9380910720882309F460C007
S11334500E941238CEEDDFE18983CDD78E8380EFD1
S11334608F8710920720EBE7F0E08081877F8083CD
S113347081E680937C00EAE7F0E0808180648083C9
S1133480808186FDFDCF8091790024E2829FC00176
S113349011246FEF70E00E94534D6093E01F609120
S11334A0D6207091D7208091D8200E944A0B91E0B9
S11334B0811101C090E09093FD1F2091DF1F30E047
S11334C08091D52090E00A972817390734F4EEED5F
S11334D0FFE181E0808B118A0DC08091D52090E0BE
S11334E00A96281739071CF01092EE1F03C082E0D9
S11334F08093EE1F8091E41F8D3318F080E00E94CA
S113350042348091DF1F853618F481E00E944234F2
S113351080914720813029F08091DF20813009F0AB
S1133520B4C080914420893008F4ACC060917F20FD
S113353070918020809181200E944A0B91E081113A
S113354090E09093E11F5ADF609118207091192048
S113355080911A200E944A0B91E0811190E090938F
S1133560E21F60911B2070911C2080911D200E94FD
S11335704A0B91E0811101C090E09093E31F6091A8
S1133580C1207091C2208091C3200E944A0B91E017
S1133590811101C090E09093DE1F6091D62070915C
S11335A0D7208091D8200E944A0B91E0811101C05C
S11335B090E09093FD1F6091D1207091D220809172
S11335C0D3200E944A0B91E0811190E09093FE1F5A
S11335D06091242070912520809126200E944A0B1E
S11335E091E0811190E09093FF1F6091822070918F
S11335F08320809184200E944A0B91E0811190E005
S1133600909300206091DA1F7091DB1F8091DC1F82
S11336100E944A0B91E0811190E090930120609107
S1133620312070913220809133200E944A0B91E026
S1133630811190E0909302208091E61F813021F067
S11336408091E11F813039F48091DE1F811103C024
S113365085E00E94423410924720109244208091C9
S1133660DE1F811106C08091FD1F811102C01092DE
S113367071208091DF20813041F480936D2010927D
S1133680DF2003C08F5F80934420DF91CF910895A2
S1133690D8DE5ADBA0CE08954F925F926F927F924C
S11336A0AF92BF92CF92DF92EF92FF920F931F934C
S11336B0CF93DF93CDB7DEB729970FB6F894DEBF6B
S11336C00FBECDBF8C01B62EEDB6FEB60E948903A7
S11336D080931621882309F4CCC348E050E061E4C8
S11336E072E0C8010E941E4E892BA1F480913420FF
S11336F081110AC08091E61F813031F483E00E9479
S11337004234AA24A394BCC30E94D03377DEAA24F3
S1133710A394B6C348E050E06AE472E0C8010E9492
S11337201E4E892BA1F480913420813051F4809174
S1133730E61F811106C083E00E944234AA24A394A8
S11337409FC30E94DA335ADEAA24A39499C348E0A3
S113375050E063E572E0C8010E941E4E892B09F017
S113376050C02FE02B1530F084E00E944234AA248C
S1133770A39486C36EEF6B0DC8010E94F436A82E85
S1133780882309F478C3F801218530E020533109F6
S113379088EE93E0289FA001299F500D389F500D7B
S11337A01124228530E02053310964E6629FC00170
S11337B0639F900D1124840F951F248530E02053BE
S11337C03109AC01420F531F238530E020533109E6
S11337D0C901880F991F220F331F220F331F220F95
S11337E0331F280F391FCA01820F931F8D3FFFE03B
S11337F09F0720F084E00E94423442C30E94E333D6
S11338003FC348E050E06CE572E0C8010E941E4EE0
S1133810892B81F480913420811106C083E00E94B9
S11338204234AA24A3942CC381E08093E71FAA24E2
S1133830A39426C348E050E065E672E0C8010E9404
S11338401E4E892B79F480913420811106C083E0C7
S11338500E944234AA24A39413C31092E71FAA24FB
S1133860A3940EC348E050E06EE672E0C8010E94E3
S11338701E4E892B81F480913420811106C083E08F
S11338800E944234AA24A394FBC281E08093E81FDF
S1133890AA24A394F5C248E050E067E772E0C801A7
S11338A00E941E4E892B79F480913420811106C028
S11338B083E00E944234AA24A394E2C21092E81F37
S11338C0AA24A394DDC248E050E060E872E0C80195
S11338D00E941E4E892B09F092C023E12B1530F073
S11338E086E00E944234AA24A394CAC26EEF6B0DF0
S11338F0C8010E94F436A82E882309F47AC0F8017E
S1133900A185B0E0D09720E03AEC4AE95BE30E945D
S1133910A54D2B013C01A285B0E0D09720E031EE0B
S113392045EF55E00E94A54D460E571E681E791EB0
S1133930828990E0C097092E000CAA0BBB0B480E9D
S1133940591E6A1E7B1EA385B0E0D09720E836E995
S113395048E950E00E94A54D460E571E681E791E88
S1133960A485B0E0D09720E432E44FE050E00E9418
S1133970A54D460E571E681E791EA585B0E0D0974A
S113398020EA36E841E050E00E94A54D460E571E5D
S1133990681E791EA685B0E0D09720E137E20E9428
S11339A09F4D460E571E681E791EA785B0E0D0971E
S11339B028EE33E00E949F4D460E571E681E791E66
S11339C0A089B0E0D09724E630E00E949F4D460ED7
S11339D0571E681E791EA189B0E0D0972AE030E016
S11339E00E949F4D640D751D861D971D0E94D8343D
S11339F047C287E00E944234AA24A39441C248E00B
S1133A0050E069E872E0C8010E941E4E892B39F427
S1133A1086E390E20E94D313AA24A39431C248E01F
S1133A2050E062E972E0C8010E941E4E892B29F41D
S1133A300E94E034AA24A39423C248E050E06BE936
S1133A4072E0C8010E941E4E892B29F40E94E132C3
S1133A50AA24A39415C248E050E064EA72E0C801C5
S1133A600E941E4E892B29F40E94E934AA24A394AF
S1133A7007C248E050E06DEA72E0C8010E941E4EA1
S1133A80892B91F5F3E1FB1530F084E00E94423478
S1133A90AA24A394F5C16EEF6B0DC8010E94F436FD
S1133AA0A82E8823D9F0CE01019628E0FC011192BA
S1133AB02A95E9F7F8012185298322852A8323851C
S1133AC02B8324852C8325852D8326852E8327858A
S1133AD02F83208928870E940D35D2C184E00E945B
S1133AE04234AA24A394CCC148E050E066EB72E0CF
S1133AF0C8010E941E4E892B09F5FDE0FB1530F02C
S1133B008BE00E944234AA24A394BAC16EEF6B0DD9
S1133B10C8010E94F436A82E882351F0F80181854B
S1133B20898382858A83CE0101960E946C35A8C15F
S1133B3084E00E944234AA24A394A2C148E050E045
S1133B406FEB72E0C8010E941E4E892BA1F483EB37
S1133B5090E20E94D31384E08093342010922F20AB
S1133B6010922E200E94850284EC90E20E942A1476
S1133B70AA24A39485C148E050E068EC72E0C8012F
S1133B800E941E4E892B49F480E20E94823580E215
S1133B900E94CE35AA24A39473C148E050E061ED9D
S1133BA072E0C8010E941E4E892B29F40E948D36B2
S1133BB0AA24A39465C148E050E06AED72E0C8010C
S1133BC00E941E4E892B29F40E94B936AA24A3947C
S1133BD057C148E050E063EE72E0C8010E941E4EF7
S1133BE0892B09F045C0FBE1FB1530F088E00E9409
S1133BF04234AA24A39444C16EEF6B0DC8010E9401
S1133C00F436A82E882371F1D8011996ECE5FFE16A
S1133C10CF01805F2D919191291729F089E00E94AD
S1133C204234A12C2DC18E13F5CFCE01019629E08B
S1133C30FC0111922A95E9F7F801238D2983248D3B
S1133C402A83258D2B83268D2C83278D2D8320A1DC
S1133C502E830E94E23281E08093C02088EE93E0BC
S1133C6086D20EC18AE00E944234AA24A39408C1D9
S1133C7048E050E06CEE72E0C8010E941E4E892BB1
S1133C80F9F4F7E0FB1530F088E00E944234AA24EE
S1133C90A394F6C0D8011996ECE5FFE1CF01805F4B
S1133CA02D919191291729F089E00E944234A12C89
S1133CB0E7C08E13F5CF0E94E132AA24A394E0C09A
S1133CC048E050E065EF72E0C8010E941E4E892B67
S1133CD009F056C02FE02B1530F084E00E944234E6
S1133CE0AA24A394CDC06EEF6B0DC8010E94F436D4
S1133CF0A82E882309F4C2C0F801818590E0C097FA
S1133D0028EE33E0829FA001839F500D929F500DB7
S1133D101124828590E0C09764E6689F9001699FB2
S1133D20300D1124240F351F848590E0C097820F35
S1133D30931F438550E0405351097AE0749F9001EA
S1133D40759F300D1124820F931F2585205366859E
S1133D50279F600D112460539C010BC02115F0E2D4
S1133D603F0728F084E00E944234A12C89C02F5FD1
S1133D703F4F422F481B461788F30E940E3480C0E1
S1133D8048E050E06EEF72E0C8010E941E4E892B9D
S1133D9009F069C02FE02B1530F084E00E94423412
S1133DA0AA24A3946DC06EEF6B0DC8010E94F43673
S1133DB0A82E882309F451C0CDB6DEB6F80141859A
S1133DC0628570E0762F66278385680F711D493000
S1133DD0E8F52B2D30E021513109842F90E028178C
S1133DE03907A1F58DB79EB7841B91090FB6F894D6
S1133DF09EBF0FBE8DBF0196DC01FC0101C0119274
S1133E002E2F2A1B2417D8F3045F1F4FF80102C07A
S1133E1021912D932E2F201B2417D0F39B010AC030
S1133E202115E0E23E0720F084E00E9442340EC0F7
S1133E302F5F3F4F522F561B541790F30E9441356A
S1133E400FB6F894DEBE0FBECDBE1AC00FB6F894FE
S1133E50DEBE0FBECDBEA12C13C084E00E9442344E
S1133E60AA24A3940DC08BE00E944234AA24A394F4
S1133E7007C0A12C05C0AA24A39402C0AA24A39419
S1133E808A2D0FB6F894FEBE0FBEEDBE29960FB66E
S1133E90F894DEBF0FBECDBFDF91CF911F910F917C
S1133EA0FF90EF90DF90CF90BF90AF907F906F9096
S1133EB05F904F9008950F93CF93DF931F921F92BB
S1133EC0CDB7DEB7198288E08A838FEB64D100E135
S1133ED02CE53FE14FEB62E0CE010196DDD10F907E
S1133EE00F90DF91CF910F9108950F931F93CF936C
S1133EF0C1E0C0934720C0937120C0930720C093B2
S1133F006D20C093DF20109244201092D91F10928C
S1133F102A201092D420C09334201092E5201092CD
S1133F20E7201092E6201092482010923020C0938F
S1133F3006201092B1201092C02010925F2010929F
S1133F4046201092452087E880937A000E94B43777
S1133F509CD264E072E088EC90E00E948E06E2E776
S1133F60F0E284EF91E0A0E0B0E086839783A0873D
S1133F70B187128686EE94E194878387CF010E94ED
S1133F802A14ECE4F0E288EE93E0A0E0B0E086834B
S1133F909783A087B18712868EEA94E194878387FA
S1133FA00E94104EE6E3F0E200E911E0B8010E943D
S1133FB0534D8C599F4F092E000CAA0BBB0B8683C3
S1133FC09783A087B187128680EA94E194878387D8
S1133FD00E94104EEBE0F0E2B8010E94534D8C5960
S1133FE09F4F092E000CAA0BBB0B86839783A087D7
S1133FF0B18712868EED94E194878387E4ECF0E236
S113400088E893E1A0E0B0E086839783A087B18736
S1134010C28729ED34E134872387E3EBF0E286831A
S11340209783A087B187128682EB94E19487838774
S11340300E94E83740DF60916E2070916F2080917C
S113404070200E944A0B811108C0EEEDFFE1178237
S113405086E0838B0E94463103C081E08093E51F94
S1134060CF911F910F9108958091DA2081FF0EC0A6
S113407084E08093342010922F2010922E200E94EE
S1134080850284EC90E20C942A14089581E08093D4
S1134090342008950F93062F292F482F65E48EEAC4
S11340A053D18AE090E063D00F91089582E090E1CB
S11340B00E94192F8093DA2084E090E10E94192F46
S11340C08093D52083E090E10E94192F8093D81F1C
S11340D08091DA2080FF2EC061E08CEF9FE0DADF70
S11340E060E08DEF9FE0D6DF60E18EEF9FE0D2DFEE
S11340F060E08FEF9FE0CEDF64E380E090E1CADF11
S113410062E181E090E1C6DF6FE883E090E1C2DF25
S113411066E684E090E1BEDF9CD18091DA208E7F58
S11341208093DA206091DA2082E090E1B3DF8AE0C4
S113413090E01DC008951F93CF93DF93D82F192FBC
S113414041E0480F292F65E48FEA29D1C82F212F98
S11341504D2F65E48FEA23D12C2F30E0322F222714
S1134160A901482BCA01DF91CF911F91089528EE30
S113417033E0AC01429FC001439F900D529F900DCC
S11341801124009739F020E030E02F5F3F4F2817CB
S11341903907D9F708950F931F93CF93DF9300D076
S11341A000D0CDB7DEB7BE016F5F7F4F96E0FB0155
S11341B011929A95E9F708E418EE21E030E00983BA
S11341C01A832B833C838E8388E18D8388EB90E074
S11341D00E94130426960FB6F894DEBF0FBECDBF1F
S11341E0DF91CF911F910F910895EF92FF920F935A
S11341F01F93CF93DF93CDB7DEB72A970FB6F8940A
S1134200DEBF0FBECDBFF9019E012F5F3F4F790185
S11342102AE0D7011D922A95E9F74983DC013C91F4
S11342203A83462F50E05E834D83F887EF8310E096
S11342301A8709876130C9F0623029F411968C918C
S11342408A833B8312C0633081F4FC0121812B8378
S113425082818C830AC081E090E089DF115031F4BF
S113426081E00E94333781E00AC01AE0BE016F5F2B
S11342707F4F88EB90E00E94B2038111ECCF2A9625
S11342800FB6F894DEBF0FBECDBFDF91CF911F9163
S11342900F91FF90EF900895EF92FF920F931F9369
S11342A0CF93DF93CDB7DEB72A970FB6F894DEBF6E
S11342B00FBECDBFF9019E012F5F3F4F79012AE068
S11342C0D7011D922A95E9F74983DC013C913A8391
S11342D0462F50E05E834D83F887EF8310E01A8702
S11342E009876130C9F0623029F411968C918A8370
S11342F03B8312C0633081F4FC0121812B838281D2
S11343008C830AC081E090E032DF115031F481E007
S11343100E94333783E00BC01AE0BE016F5F7F4F0A
S113432088EB90E00E94DE038111ECCF82E02A96B4
S11343300FB6F894DEBF0FBECDBFDF91CF911F91B2
S11343400F91FF90EF900895FF920F931F93CF93D7
S1134350DF9300D0CDB7DEB7182F653419F0FF24F2
S1134360F39403C06894FF24F1F849832A830B83F0
S1134370812F11DF01E09E012D5F3F4F412F6F2DF3
S1134380CE01019632DF85E090E0F1DE0F900F90D0
S11343900F90DF91CF911F910F91FF900895FF929D
S11343A00F931F93CF93DF9300D01F92CDB7DEB747
S11343B0182F653419F0FF24F39403C06894FF2484
S11343C0F1F849832A831B821C82812FE4DE01E0F9
S11343D09E012D5F3F4F412F6F2DCE0101965CDF73
S11343E08B810F900F900F900F90DF91CF911F91C1
S11343F00F91FF9008950F93CF93DF9300D01F92F6
S1134400CDB7DEB719821A821B821C8280E9C3DE13
S113441000E020E030E040E961E0CE010196E5DE15
S1134420811109C002E09E012D5F3F4F41E961E027
S1134430CE01019631DF8B8190E0880F991F95950D
S113444087950F900F900F900F90DF91CF910F9160
S113445008950F93CF93DF93C0E0D0E00FEF2D2F9B
S11344604C2F65E48EEA70DF8AE090E080DEA89548
S11344702196CC3F8FE0D80789F71092E72010925D
S1134480E620DF91CF910F910895CF93DF93C0E0A1
S1134490D0E0CE010E94192F8F3F29F4D093E7205A
S11344A0C093E62005C02B96CC3F8FE0D80789F750
S11344B0DF91CF9108956FEF0C94A33008952F925C
S11344C03F924F925F926F927F928F929F92AF92A0
S11344D0BF92CF92DF92EF92FF920F931F93CF93ED
S11344E0DF93CDB7DEB76E970FB6F894DEBF0FBE7D
S11344F0CDBF81113FC08091E6209091E7208C3F91
S11345009F4020F01092E7201092E6204091E62090
S11345102091E72003E465E48EEA16DF8091E6202B
S11345209091E72001969093E7208093E6208AE01B
S113453090E01DDE8091E6209091E7208C3F9F4023
S113454020F01092E7201092E6204091E62020917E
S1134550E72003E565E48EEAF7DE8091E62090919A
S1134560E72001969093E7208093E6208AE090E08C
S1134570FEDD0CC2813009F03FC08091E6209091AD
S1134580E7208C3F9F4020F01092E7201092E62015
S11345904091E6202091E72003E465E48EEAD4DE2E
S11345A08091E6209091E72001969093E7208093F4
S11345B0E6208AE090E0DBDD8091E6209091E72020
S11345C08C3F9F4020F01092E7201092E62040910B
S11345D0E6202091E72005E465E48EEAB5DE8091CB
S11345E0E6209091E72001969093E7208093E620BF
S11345F08AE090E0BCDDCAC1823009F03FC08091FE
S1134600E6209091E7208C3F9F4020F01092E72015
S11346101092E6204091E6202091E72004E465E42E
S11346208EEA92DE8091E6209091E72001969093A5
S1134630E7208093E6208AE090E099DD8091E620EF
S11346409091E7208C3F9F4020F01092E720109239
S1134650E6204091E6202091E72003E565E48EEA18
S113466073DE8091E6209091E72001969093E720F5
S11346708093E6208AE090E07ADD88C1833009F0F7
S11346803FC08091E6209091E7208C3F9F4020F02E
S11346901092E7201092E6204091E6202091E72036
S11346A004E465E48EEA50DE8091E6209091E720F0
S11346B001969093E7208093E6208AE090E057DD0E
S11346C08091E6209091E7208C3F9F4020F010924B
S11346D0E7201092E6204091E6202091E72005E4AF
S11346E065E48EEA31DE8091E6209091E720019620
S11346F09093E7208093E6208AE090E038DD46C17D
S1134700843009F03FC08091E6209091E7208C3FEF
S11347109F4020F01092E7201092E6204091E6207E
S11347202091E72005E465E48EEA0EDE8091E62020
S11347309091E72001969093E7208093E6208AE009
S113474090E015DD8091E6209091E7208C3F9F401A
S113475020F01092E7201092E6204091E62020916C
S1134760E72003E565E48EEAEFDD8091E620909191
S1134770E72001969093E7208093E6208AE090E07A
S1134780F6DC04C1853009F03FC08091E6209091A9
S1134790E7208C3F9F4020F01092E7201092E62003
S11347A04091E6202091E72005E465E48EEACCDD23
S11347B08091E6209091E72001969093E7208093E2
S11347C0E6208AE090E0D3DC8091E6209091E72017
S11347D08C3F9F4020F01092E7201092E6204091F9
S11347E0E6202091E72005E465E48EEAADDD8091C2
S11347F0E6209091E72001969093E7208093E620AD
S11348008AE090E0B4DCC2C0863009F03FC08091F9
S1134810E6209091E7208C3F9F4020F01092E72003
S11348201092E6204091E6202091E72002E465E41E
S11348308EEA8ADD8091E6209091E720019690939C
S1134840E7208093E6208AE090E091DC8091E620E6
S11348509091E7208C3F9F4020F01092E720109227
S1134860E6204091E6202091E72003E465E48EEA07
S11348706BDD8091E6209091E72001969093E720EC
S11348808093E6208AE090E072DC80C0873009F0F3
S11348903FC08091E6209091E7208C3F9F4020F01C
S11348A01092E7201092E6204091E6202091E72024
S11348B002E465E48EEA48DD8091E6209091E720E9
S11348C001969093E7208093E6208AE090E04FDC05
S11348D08091E6209091E7208C3F9F4020F0109239
S11348E0E7201092E6204091E6202091E72004E49E
S11348F065E48EEA29DD8091E6209091E720019617
S11349009093E7208093E6208AE090E030DC3EC07C
S11349108091E6209091E7208C3F9F4020F01092F8
S1134920E7201092E6204091E6202091E7200EE453
S113493065E48EEA09DD8091E6209091E7200196F6
S11349409093E7208093E6208AE090E010DC809149
S1134950E6209091E7208C3F9F4020F01092E720C2
S11349601092E6204091E6202091E7200EE465E4D1
S11349708EEAEADC8091E6209091E72001969093FC
S1134980E7208093E6208AE090E0F1DB8091E91F44
S11349908093E5200E94DF376B017C014F2D552762
S11349A0662777274E2C8D2CA091FD1FE0E8AE9F43
S11349B0D00111248091E21F8170A82B8091E11F06
S11349C0817089831A8289819A81880F991F9A2F0D
S11349D0982B8091E51F80FB222420F8312C220C97
S11349E0331C220C331C292AAEEDBFE18C9181705B
S11349F08B831C82EB81FC81EE0FFF1FEE0FFF1FE8
S1134A00EE0FFF1F822D8E2B9091E31F91709D83DB
S1134A101E822D813E8122953295307F3227207F60
S1134A203227282E222A8091EE1F81708F831886C8
S1134A308F819885880F991F82959295907F9827EA
S1134A40807F982782299091E61F917099871A8612
S1134A5029843A840024369427940794369427941E
S1134A600794322C202C282AA0910520E0E8AE9F40
S1134A70D00111248091F01F87708A2B9091E91F37
S1134A8091709B871C86EB85FC85EE0FFF1FEE0F54
S1134A90FF1FEE0FFF1F8E2B9091EC1F91709D87CF
S1134AA01E862D853E8522953295307F3227207FC4
S1134AB03227282B8091032081708F87188A8F8555
S1134AC09889880F991F82959295907F9827807F67
S1134AD09827822B909104209170998B1A8A2989A6
S1134AE03A89002436952795079436952795079497
S1134AF0322F202D182F122B8091FF1F81708B8B4A
S1134B001C8AEB89FC89EE0FFF1F809100208170C5
S1134B108D8B1E8A8D899E89880F991F880F991FF6
S1134B208E2BE091FE1FE1708E2B909101209170ED
S1134B309F8B188EEF89F88DEE0FFF1FEE0FFF1F6E
S1134B40EE0FFF1F8E2B909102209170998F1A8E79
S1134B50298D3A8D22953295307F3227207F322756
S1134B60282B8091E71F81708B8F1C8E8B8D9C8DE1
S1134B70880F991F82959295907F9827807F982718
S1134B80822B9091E81F91709D8F1E8E2D8D3E8DEE
S1134B900024369527950794369527950794322F48
S1134BA0202D382E322A8091E6209091E7208C3FE8
S1134BB09F4020F01092E7201092E6208091E6209A
S1134BC02091E720042F482F65E48EEABDDB809115
S1134BD0E6209091E72001969093E7208093E620C9
S1134BE08AE090E0C4DA8091E6209091E7208C3F3F
S1134BF09F4020F01092E7201092E6204091E6209A
S1134C002091E720042D65E48EEA9EDB8091E62066
S1134C109091E72001969093E7208093E6208AE024
S1134C2090E0A5DA8091E6209091E7208C3F9F40A8
S1134C3020F01092E7201092E6204091E620209187
S1134C40E720082D65E48EEA7FDB8091E6209091D1
S1134C50E72001969093E7208093E6208AE090E095
S1134C6086DA8091E6209091E7208C3F9F4020F0E7
S1134C701092E7201092E6204091E6202091E72050
S1134C800C2D65E48EEA60DB8091E6209091E720AC
S1134C9001969093E7208093E6208AE090E067DA1B
S1134CA08091E6209091E7208C3F9F4020F0109265
S1134CB0E7201092E6204091E6202091E720009121
S1134CC0DF1F65E48EEA40DB8091E6209091E720C7
S1134CD001969093E7208093E6208AE090E047DAFB
S1134CE08091E6209091E7208C3F9F4020F0109225
S1134CF0E7201092E6204091E6202091E7200091E1
S1134D00E41F65E48EEA20DB8091E6209091E720A1
S1134D1001969093E7208093E6208AE090E027DADA
S1134D208091E6209091E7208C3F9F4020F01092E4
S1134D30E7201092E6204091E6202091E720022D02
S1134D4065E48EEA01DB8091E6209091E7200196EC
S1134D509093E7208093E6208AE090E008DA80913F
S1134D60E6209091E7208C3F9F4020F01092E720AE
S1134D701092E6204091E6202091E720012F65E47F
S1134D808EEAE2DA8091E6209091E72001969093F2
S1134D90E7208093E6208AE090E0E9D98091E6203C
S1134DA09091E7208C3F9F4020F01092E7201092D2
S1134DB0E6204091E6202091E720032D65E48EEA69
S1134DC0C3DA8091E6209091E72001969093E72042
S1134DD08093E6208AE090E0CAD98091E620909101
S1134DE0E7208C3F9F4020F01092E7201092E620AD
S1134DF08091E6209091E7205EDB8AE090E0B7D9CD
S1134E006E960FB6F894DEBF0FBECDBFDF91CF9183
S1134E101F910F91FF90EF90DF90CF90BF90AF90D4
S1134E209F908F907F906F905F904F903F902F90C6
S1134E3008950F931F93CF93FC016081662369F05B
S1134E408C01C0E088EC90E00E94F805CF5FF80187
S1134E50EC0FF11D60816111F5CFCF911F910F917E
S1134E6008959091B220992319F09130B9F00895E2
S1134E70E0E6F0E22DE630E290E29193E217F307E8
S1134E80E1F78B3521F481E08093B22008958D35CC
S1134E9019F5109243201092B22008958D3541F4F3
S1134EA0109243201092B22081E080931F20089535
S1134EB0909143209D3048F4E92FF0E0E05AFF4DF3
S1134EC080839F5F90934320089510924320109213
S1134ED0B22087E093E0ADCF0895CF93C82F682F19
S1134EE062956F706A3010F0695C01C0605D88EC97
S1134EF090E00E94F805CF70CA3018F067E36C0F99
S1134F0002C060E36C0F88EC90E00E94F805CF913A
S1134F10089510921F20E09160208E2F90E0FC01F4
S1134F20F197E930F105B0F48827ED59FE4F8F4F22
S1134F300C94884D82E0089583E0089584E00895F8
S1134F4085E0089586E0089587E0089588E008954F
S1134F5089E0089587E293E06CDF80E0089581E0C2
S1134F60089510921F20809160208133A1F018F4DD
S1134F70803351F00BC0823319F0833319F006C02B
S1134F8082E0089583E0089584E0089587E293E041
S1134F9050DF85E0089581E008950F931F93CF9328
S1134FA0FC016081662369F08C01C0E088EC90E02C
S1134FB00E94F805CF5FF801EC0FF11D60816111CB
S1134FC0F5CFCF911F910F910895CF93C62FE5DFB1
S1134FD089E393E02EDF8C2F80DFCF9108959F9299
S1134FE0AF92BF92CF92DF92EF92FF920F931F93F3
S1134FF0CF93DF93F62E6A0121E02093852010924F
S11350001F20182FB92EC0E6D0E2AA24A394A80E1C
S11350105BC030911F203130E1F781E3F81621F0B5
S113502082E3F816F1F04DC088810E942037E82E03
S113503089810E942037EE0CEE0CEE0CEE0CE82A6F
S11350400E2D2B2D412F65E48EEA7ED96E2DC601DF
S1135050BCDF8AE090E08BD81092852010921F204C
S113506033C088810E942037E82E89810E9420372E
S1135070EE0CEE0CEE0CEE0CE82A0E2D2B2D4A2D28
S113508065E48EEA61D98A810E942037982E8B814B
S11350900E942037082F6E2DC60197DFE92CEE0CF5
S11350A0EE0CEE0CEE0CE02A0E2D2B2D412F65E4B8
S11350B08FEA4AD98E2D11DF1092852010921F207D
S11350C003C086E493E0B5DE30918520313009F4E5
S11350D0A0CFDF91CF911F910F91FF90EF90DF90C0
S11350E0CF90BF90AF909F90089580912020823000
S11350F051F128F4882359F08130C9F041C084303B
S113510009F439C060F1853009F43FC039C083E740
S113511093E08FDE81EA93E08CDE86E196E089DE1F
S113512081E08093592085E08093202008958FEEBC
S113513093E07FDE42E758E062E38CEF9FE04FDFCD
S11351401092202008958CE094E073DE43E658E04A
S113515062E38EEF9FE043DF10922020089589E2FE
S113516094E067DE45E558E062E380E090E137DFF4
S11351701092202008951092592085E494E059DE7D
S113518089E08093352010922020089510921F20EA
S113519080916020823361F028F4803389F0813378
S11351A0B1F010C0843341F028F0853339F00AC0DF
S11351B082E0089583E0089584E0089585E00895E9
S11351C087E0089587E293E034DE86E0089581E085
S11351D00895DF92EF92FF920F931F93CF93DF9383
S11351E08091212090E08A30910508F0EFC5FC0100
S11351F08827E459FE4F8F4F0C94884D60912720E7
S113520070912820809129200E94D709609149201B
S113521070914A2080914B200E94D70960915B20B5
S113522070915C2080915D200E94D70960912B20B1
S113523070912C2080912D200E94D7096091082024
S11352407091092080910A200E94D7096091DC2086
S11352507091DD208091DE200E94D7096091E220C8
S11352607091E3208091E4200E94D70989E594E0BD
S1135270E0DD8AE897E0DDDD6091D6207091D720EB
S11352808091D8200E944A0B882351F06091D62047
S11352907091D7208091D8200E944A0B8111F6CFBB
S11352A06091D1207091D2208091D3200E944A0B2A
S11352B0E82E6091242070912520809126200E9460
S11352C04A0BD82E60918220709183208091842093
S11352D00E944A0BF82E6091DA1F7091DB1F8091B7
S11352E0DC1F0E944A0B082F6091312070913220FC
S11352F0809133200E944A0B182F609118207091DE
S1135300192080911A200E944A0BD82F6091C12045
S11353107091C2208091C3200E944A0BC82F6091D3
S11353207F2070918020809181200E944A0B21E08F
S1135330D11020E091E0E11090E0292B91E0F110F0
S113534090E0922B21E0011120E0292B91E0111132
S113535090E0922B21E0D11120E0292B91E0C111A2
S113536090E0922B29F491E0811190E0992349F087
S113537086E694E05EDD82E794E05BDD1092212016
S113538025C56091272070912820809129200E94B2
S113539093098FE894E04DDD81E08093212016C5C8
S11353A089E594E046DD8BE994E043DD6091D1200A
S11353B07091D2208091D3200E944A0B882351F00F
S11353C06091D1207091D2208091D3200E944A0B09
S11353D08111F6CF6091D6207091D7208091D8208A
S11353E00E944A0BE82E6091242070912520809120
S11353F026200E944A0BD82E60918220709183202F
S1135400809184200E944A0BF82E6091DA1F7091DB
S1135410DB1F8091DC1F0E944A0B082F6091312012
S113542070913220809133200E944A0B182F609192
S113543018207091192080911A200E944A0BD82FAD
S11354406091C1207091C2208091C3200E944A0BB8
S1135450C82F60917F2070918020809181200E94CC
S11354604A0B21E0D11020E091E0E11090E0292BDB
S113547091E0F11090E0922B21E0011120E0292B22
S113548091E0111190E0922B21E0D11120E0292B21
S113549091E0C11190E0922B29F491E0811190E008
S11354A0992349F086E694E0C4DC82E794E0C1DC09
S11354B0109221208BC46091492070914A208091E0
S11354C04B200E9493098FE894E0B3DC82E0809340
S11354D021207CC489E594E0ACDC8DE292E0A9DC77
S11354E06091242070912520809126200E944A0BEF
S11354F0882351F0609124207091252080912620EA
S11355000E944A0B8111F6CF6091D6207091D7206A
S11355108091D8200E944A0BE82E6091D12070918E
S1135520D2208091D3200E944A0BD82E60918220F1
S113553070918320809184200E944A0BF82E609100
S1135540DA1F7091DB1F8091DC1F0E944A0B082F29
S11355506091312070913220809133200E944A0B57
S1135560182F609118207091192080911A200E94A0
S11355704A0BD82F6091C1207091C2208091C32022
S11355800E944A0BC82F60917F20709180208091E7
S113559081200E944A0B21E0D11020E091E0E1102B
S11355A090E0292B91E0F11090E0922B21E0011181
S11355B020E0292B91E0111190E0922B21E0D111F0
S11355C020E0292B91E0C11190E0922B29F491E085
S11355D0811190E0992349F086E694E02ADC82E781
S11355E094E027DC10922120F1C360915B2070913C
S11355F05C2080915D200E9493098FE894E019DC7F
S113560083E080932120E2C389E594E012DC8DE9F4
S113561094E00FDC6091822070918320809184203B
S11356200E944A0B882351F060918220709183205C
S1135630809184200E944A0B8111F6CF6091D6207C
S11356407091D7208091D8200E944A0BE82E609157
S1135650D1207091D2208091D3200E944A0BD82E61
S11356606091242070912520809126200E944A0B6D
S1135670F82E6091DA1F7091DB1F8091DC1F0E946D
S11356804A0B082F60913120709132208091332091
S11356900E944A0B182F6091182070911920809154
S11356A01A200E944A0BD82F6091C1207091C22009
S11356B08091C3200E944A0BC82F60917F20709173
S11356C08020809181200E944A0B21E0D11020E0AB
S11356D091E0E11090E0292B91E0F11090E0922B01
S11356E021E0011120E0292B91E0111190E0922B8F
S11356F021E0D11120E0292B91E0C11190E0922BFF
S113570029F491E0811190E0992349F086E694E030
S113571090DB82E794E08DDB1092212057C36091E7
S11357202B2070912C2080912D200E9493098FE8CA
S113573094E07FDB84E08093212048C389E594E0F2
S113574078DB8FE994E075DB6091DA1F7091DB1FE1
S11357508091DC1F0E944A0B882351F06091DA1F6C
S11357607091DB1F8091DC1F0E944A0B8111F6CFE0
S11357706091D6207091D7208091D8200E944A0B46
S1135780E82E6091D1207091D2208091D3200E9484
S11357904A0BD82E609124207091252080912620D8
S11357A00E944A0BF82E6091822070918320809190
S11357B084200E944A0B082F60913120709132207E
S11357C0809133200E944A0B182F60911820709109
S11357D0192080911A200E944A0BD82F6091C12071
S11357E07091C2208091C3200E944A0BC82F6091FF
S11357F07F2070918020809181200E944A0B21E0BB
S1135800D11020E091E0E11090E0292B91E0F1101B
S113581090E0922B21E0011120E0292B91E011115D
S113582090E0922B21E0D11120E0292B91E0C111CD
S113583090E0922B29F491E0811190E0992349F0B2
S113584086E694E0F6DA82E794E0F3DA1092212017
S1135850BDC2609108207091092080910A200E94A5
S113586093098FE894E0E5DA85E080932120AEC2C5
S113587089E594E0DEDA81EA94E0DBDA60913120B4
S113588070913220809133200E944A0B882351F07A
S11358906091312070913220809133200E944A0B14
S11358A08111F6CF6091D6207091D7208091D820B5
S11358B00E944A0BE82E6091D1207091D2208091F1
S11358C0D3200E944A0BD82E609124207091252069
S11358D0809126200E944A0BF82E609182207091BC
S11358E08320809184200E944A0B082F6091DA1F44
S11358F07091DB1F8091DC1F0E944A0B182F60916E
S113590018207091192080911A200E944A0BD82FD8
S11359106091C1207091C2208091C3200E944A0BE3
S1135920C82F60917F2070918020809181200E94F7
S11359304A0B21E0D11020E091E0E11090E0292B06
S113594091E0F11090E0922B21E0011120E0292B4D
S113595091E0111190E0922B21E0D11120E0292B4C
S113596091E0C11190E0922B29F491E0811190E033
S1135970992349F086E694E05CDA82E794E059DA08
S11359801092212023C26091DC207091DD2080914F
S1135990DE200E9493098FE894E04BDA86E080933E
S11359A0212014C289E594E044DA83EA94E041DAE0
S11359B0609118207091192080911A200E944A0B3E
S11359C0882351F0609118207091192080911A2039
S11359D00E944A0B8111F6CF6091D6207091D72096
S11359E08091D8200E944A0BE82E6091D1207091BA
S11359F0D2208091D3200E944A0BD82E609124207B
S1135A0070912520809126200E944A0BF82E6091E7
S1135A10822070918320809184200E944A0B082F59
S1135A206091DA1F7091DB1F8091DC1F0E944A0B8A
S1135A30182F6091312070913220809133200E9480
S1135A404A0BD82F6091C1207091C2208091C3204D
S1135A500E944A0BC82F60917F2070918020809112
S1135A6081200E944A0B21E0D11020E091E0E11056
S1135A7090E0292B91E0F11090E0922B21E00111AC
S1135A8020E0292B91E0111190E0922B21E0D1111B
S1135A9020E0292B91E0C11190E0922B29F491E0B0
S1135AA0811190E0992349F086E694E0C2D982E717
S1135AB094E0BFD91092212089C16091E2207091B5
S1135AC0E3208091E4200E9493098FE894E0B1D907
S1135AD087E0809321207AC189E594E0AAD985EAF8
S1135AE094E0A7D96091C1207091C2208091C32015
S1135AF00E944A0B882351F06091C1207091C2200A
S1135B008091C3200E944A0B8111F6CF6091D62068
S1135B107091D7208091D8200E944A0BE82E609182
S1135B20D1207091D2208091D3200E944A0BD82E8C
S1135B306091242070912520809126200E944A0B98
S1135B40F82E6091822070918320809184200E949D
S1135B504A0B082F6091DA1F7091DB1F8091DC1FC4
S1135B600E944A0B182F609131207091322080914D
S1135B7033200E944A0BD82F60911820709119206D
S1135B8080911A200E944A0BC82F60917F20709147
S1135B908020809181200E944A0B21E0D11020E0D6
S1135BA091E0E11090E0292B91E0F11090E0922B2C
S1135BB021E0011120E0292B91E0111190E0922BBA
S1135BC021E0D11120E0292B91E0C11190E0922B2A
S1135BD029F491E0811190E0992349F086E694E05C
S1135BE028D982E794E025D910922120EFC0609152
S1135BF008207091092080910A200E94D7096091A1
S1135C00DC207091DD208091DE200E94D709609114
S1135C10E2207091E3208091E4200E94D7098FE86C
S1135C2094E007D988E080932120D0C089E594E0EE
S1135C3000D987EA94E0FDD860917F20709180209C
S1135C40809181200E944A0B882351F060917F202B
S1135C5070918020809181200E944A0B8111F6CF9F
S1135C606091D6207091D7208091D8200E944A0B51
S1135C70E82E6091D1207091D2208091D3200E948F
S1135C804A0BD82E609124207091252080912620E3
S1135C900E944A0BF82E609182207091832080919B
S1135CA084200E944A0B082F6091DA1F7091DB1F39
S1135CB08091DC1F0E944A0B182F60913120709153
S1135CC03220809133200E944A0BD82F60911820F3
S1135CD07091192080911A200E944A0BC82F60915C
S1135CE0C1207091C2208091C3200E944A0B21E000
