:1000000092C1000035C7000060C700008BC7000028
:10001000B6C70000E1C700000C9419080C9446080C
:100020000C9473080C94A0080C94CD089CC100009B
:100030009AC1000098C1000096C100000C94EF37EF
:1000400092C1000090C100008EC100008CC1000070
:100050008AC1000088C1000086C100000C94C1372D
:1000600082C1000080C100007EC100007CC1000090
:100070007AC1000078C1000076C1000074C10000A0
:1000800072C1000070C100006EC100006CC10000B0
:1000900082C6000068C1000066C10000D6C300002F
:1000A00062C1000060C100000C94D40B5CC1000070
:1000B0005AC1000058C1000056C1000054C10000E0
:1000C00052C1000050C100004EC100004CC10000F0
:1000D0004AC1000048C1000046C1000044C1000000
:1000E00042C1000040C100003EC100003CC1000010
:1000F0003AC1000038C1000036C1000034C1000020
:1001000032C1000030C100002EC100002CC100002F
:100110002AC1000028C1000026C1000024C100003F
:1001200022C1000020C100001EC100001CC100004F
:100130001AC10000D004CC05CC05CC05CC05CC05FB
:10014000CC05CC054704CC05CC05CC05CC05CC05AD
:10015000CC05CC054704CC05CC05CC05CC05CC059D
:10016000CC05CC056C04CC05CC05CC05CC05CC0568
:10017000CC05CC05D004CC05CC05CC05CC05CC05F4
:10018000CC05CC056C04CC05CC05CC05CC05CC0548
:10019000CC05CC05D004CC05CC05CC05CC05CC05D4
:1001A000CC05CC055D05CC05CC05CC05CC05CC0536
:1001B000CC05CC05D504CC05CC05CC05CC05CC05AF
:1001C000CC05CC05D004CC05CC05CC05CC05CC05A4
:1001D000CC05CC05FE04CC05CC05CC05CC05CC0566
:1001E000CC05CC053605CC05CC05CC05CC05CC051D
:1001F000CC05CC059105CC05CC05CC05CC05CC05B2
:10020000CC05CC059105CC05CC05CC05CC05CC05A1
:10021000CC05CC059105CC05CC05CC05CC05CC0591
:10022000CC05CC059105CC05CC05CC05CC05CC0581
:10023000CC05CC059B05CC05CC05CC05CC05CC0567
:10024000CC05CC05C005CC05CC05CC05CC05CC0532
:10025000CC05CC059B05CC05CC05CC05CC05CC0547
:10026000CC05CC05C005CC05CC05CC05CC05CC0512
:10027000CC05CC05B405CC05CC05CC05CC05CC050E
:10028000CC05CC056605CC05CC05CC05CC05CC054C
:10029000CC05CC056605CC05CC05CC05CC05CC053C
:1002A000CC05CC056A05CC05CC05CC05CC05CC0528
:1002B000CC05CC058505CC05CC05CC05CC05CC05FD
:1002C000CC05CC05C00579286428662868286A28EA
:1002D0006C286E2870287228C8299A2A342BCE2BB5
:1002E000682C022D9C2D362EE02EAD2FC330D6303B
:1002F000E430F430043118313631253167326A3256
:100300008D326C3290329232943296326E32E334C5
:10031000EC340035F6340A3514351E3528353235BF
:10032000463550353C3511241FBECFEFD1E8DEBF36
:10033000CDBF00E00CBF19E0A0E0B2E0E2E7FDE9CC
:1003400000E00BBF02C007900D92AA35B107D9F7A4
:1003500025E2AAE5B9E001C01D92A03BB207E1F792
:100360005BD50C94B74E4CCEF999FECF92BD81BDB2
:10037000F89A80B50895EF92FF920F931F93CF9351
:10038000DF934115510579F08B01040F151FEB0127
:100390007C01E61AF70AC7018C0F9D1FE5DF8993E0
:1003A000C017D107C1F7DF91CF911F910F91FF9037
:1003B000EF900895EF92FF920F931F93CF93DF93E7
:1003C000CDB7DEB761970FB6F894DEBF0FBECDBFD5
:1003D0004AE250E06EE173E280E090E0CCDF809191
:1003E000442390914523A0914623B0914723813423
:1003F0009C46A546B84709F47BC081E1E7E1F2E0FD
:10040000DE01119601900D928A95E1F70F2EF6E725
:10041000EF2EF2E2FF2EF02DF701638D748D8CEF3D
:100420009FE00E9465210EE113E2F8019183808331
:10043000F701658D768D80E090E10E946521F801DD
:1004400095838483F701618D728D8EEF9FE00E940A
:100450006521F8019383828340E250E060E270E01E
:1004600084E293E20E94944E8BE0EBE0F2E0A4E29F
:10047000B3E201900D928A95E1F7F80180819181B4
:10048000FC01EF2FFF27E295EF7021E030E02C0F09
:100490003D1FE20FF31F2081F8012587E92FFF2779
:1004A000EF70FF2721E030E02C0F3D1FE20FF31F1C
:1004B0002081F8012687FC01F295E295EF70EF2785
:1004C000FF70EF27EF70FF2721E030E02C0F3D1F7A
:1004D000E20FF31F2081F80127878F709927E1E051
:1004E000F0E0EC0FFD1FE80FF91F8081F801808B11
:1004F00061960FB6F894DEBF0FBECDBFDF91CF91EE
:100500001F910F91FF90EF900895CF93DF934AE2F0
:1005100050E06EE173E280E090E02DDF80914423B3
:1005200090914523A0914623B091472381349C4666
:10053000A546B84711F1CEE1D3E28FEF9FEF998343
:1005400088839D838C838FE090E09B838A8340E245
:1005500050E060E270E084E293E20E94944E8BE00F
:10056000EBE0F2E0A4E2B3E201900D928A95E1F7AC
:1005700086E68D878E878F87888B4ED0DF91CF91CF
:10058000089529E08C35920769F04DED59E0BC01E2
:1005900021E04617570739F02F5F4F575F4F24313F
:1005A000C1F701C020E0FC01378531110EC030E0F9
:1005B000F901F695FE2FEE27F795E7952E0F3F1FD1
:1005C000F901E65AF64F1082089530E0F901F695E8
:1005D000FE2FEE27F795E795E20FF31FE65AF64F49
:1005E000418141504183442319F00C943F0C0895FC
:1005F000F901F695FE2FEE27F795E7952E0F3F1F91
:10060000F901E65AF64F10820895FC016185878151
:1006100090850C94291D0895CF93DF93CEE1D3E20A
:10062000888199810E94FC0B8C819D810E94030C22
:100630008A810E941F1481E00E941B1465E073E010
:1006400081E00E940A0CAAE5B9E0E5E6F9E069E775
:1006500073E181E041EC52E01C9218961C921E92CC
:100660001797EF01229788832196888380839F01C3
:10067000285F3F4F3283218355834483AF57BF4F59
:10068000EF57FF4FE617F70739F70E94C81BDF91B6
:10069000CF91089580915A09882359F0EBEDF9E044
:1006A0006EE673E181E090E0AC012081211118C079
:1006B00002C040E050E0FA01F695FE2FEE27F795D4
:1006C000E7954E0F5F1FFA01E65AF64F81E08083EF
:1006D000DF01A058BF4F1C9281838E2F9F2F08955A
:1006E0000196EF57FF4FE617F707F1F680E090E02D
:1006F0000895FC01E058FF4F2081222331F0FC01D6
:10070000268702960C943F0C0895FC0110820895F0
:10071000CF93DF9370E09C01260F371FF9013297CA
:10072000C081D0E0DC2FCC2731962081C22B6250D3
:10073000710926E030E048E252E00E94844D21E059
:10074000C817D90709F020E0822FDF91CF910895D3
:1007500081E080937D1310926F1380E98093BC0039
:1007600008956115710529F180916F13811123C0DE
:10077000E7E7F3E1718360831382128215821482AA
:1007800081E080936F13FB0184819581892B21F493
:1007900084E080937D1303C082E080937D1385EA1B
:1007A0008093BC0080916F138111FCCF80917E13E8
:1007B000089588EF089580E8089570937813609302
:1007C00077136115710541F1FB0180859185892BB6
:1007D00029F180916F13811123C0E7E7F3E11382C0
:1007E00012821582148281E080936F13FB01848151
:1007F0009581892B21F485E080937D1303C083E0EC
:1008000080937D1385EA8093BC0080916F138111E2
:10081000FCCF80917E13089588EF089588EF0895A6
:1008200080E80895F894ECEBF0E010821092B900A3
:10083000DB0114968C918093B80080818160808365
:10084000789410926E1380E008951F920F920FB665
:100850000F9211240BB60F922F933F934F935F93F8
:100860006F937F938F939F93AF93BF93EF93FF9378
:100870008091B900887F90E0893C910508F08CC197
:10088000FC018827E656FF4F8F4F0C94E84D80916E
:100890007D139EEF980F933060F4E0917713F09101
:1008A000781380818E7F8093BB0085E88093BC00A5
:1008B0008BC1853061F4E0917713F09178138081DA
:1008C00081608093BB0085E88093BC007DC140DFE0
:1008D0008BEF80937E1378C180917D13843051F526
:1008E000E7E7F3E1848195810190F081E02D208597
:1008F00031858217930798F426813781AC014F5FC9
:100900005F4F50937C1340937B13F901E80FF91F5D
:1009100080818093BB0085E88093BC0055C184E949
:100920008093BC00E7E7F3E181E0868317821092B1
:100930006F134AC19EEF980F923038F5E7E7F3E165
:1009400082819381A081B181A80FB91F11962C914A
:100950000196938382832093BB0025E82093BC00FB
:100960000190F081E02D248135812817390709F0A5
:100970002BC180917D13823021F484E080937D131C
:1009800023C185E080937D131FC1853021F485EA62
:100990008093BC0019C1DCDE8BEF80937E1314C101
:1009A000D7DE8FEF80937E130FC180917D1385304A
:1009B00001F5E7E7F3E1A081B18118968D919C9153
:1009C00019970197248135812817390749F4ECEBF1
:1009D000F0E080818F7B8083808185688083F4C094
:1009E000ECEBF0E080818064808380818568808387
:1009F000EBC0AEDE8BEF80937E13E6C02091BB0090
:100A000080917D13853069F5E7E7F3E1A081B1813D
:100A100016966D917C91179784819581AC014F5FFB
:100A20005F4F55834483FB01E80FF91F208318961D
:100A30008D919C91199701974817590748F4ECEB51
:100A4000F0E0808180648083808185688083BCC081
:100A5000ECEBF0E080818F7B8083808185688083F0
:100A6000B3C076DE8BEF80937E13AEC02091BB00C7
:100A700080917D138530E1F4E7E7F3E1A081B18156
:100A800016964D915C91179784819581BC016F5F9B
:100A90007F4F75836483DA01A80FB91F2C9384E913
:100AA0008093BC0081E08683178210926F138CC004
:100AB0004FDE8BEF80937E1387C0E7E7F3E181E0A1
:100AC000868386EF878310926F137EC01092731314
:100AD00010927213E0E7F3E1A081B18112962D919B
:100AE0003C91139782819381AC014F5F5F4F538399
:100AF0004283D901A80FB91F8C918093BB0085EC6C
:100B00008093BC0088E084835FC0E0E7F3E181E08C
:100B1000848382E090E09683858385EC8093BC009B
:100B200053C0E0E7F3E11382128285EC8093BC00AE
:100B300088E0848349C02091BB00E0E7F3E1A08115
:100B4000B1814D915C9182819381BC016F5F7F4F38
:100B500073836283DA01A80FB91F2C9385EC80930D
:100B6000BC0088E0848330C0E0E7F3E181E0848367
:100B700083E090E09683858385EC8093BC0024C05D
:100B8000E0E7F3E181E0848380E98093BC008FEFAC
:100B90009FEF9683858318C080916E13811109C0E1
:100BA000E7E7F3E181E086838BEF878310926F1391
:100BB0000BC0E0E7F3E18EEF9FEF9683858381E042
:100BC000848385EC8093BC00FF91EF91BF91AF913E
:100BD0009F918F917F916F915F914F913F912F9155
:100BE0000F900BBE0F900FBE0F901F9018950F9394
:100BF0001F93CF93DF938C01D62FCAE00AC081E008
:100C000090E00E948121C15021F482E00E9493373C
:100C100004C0F801908195FFF2CFF801D68380E0FF
:100C2000DF91CF911F910F9108958F929F92AF9274
:100C3000BF92CF92DF92EF92FF920F931F93CF93C9
:100C4000DF93EC016A017B01B901A801689412F8F5
:100C500076956795579547951694D1F7D901C801B0
:100C6000072E73E1B695A795979587957A95D1F755
:100C7000702DE881E1FF0BC04A015B01B694A79497
:100C800097948794B695A7959795879502C04A0142
:100C90005B018C149D04AE04BF0478F1C816D9061C
:100CA000EA06FB0660F1888181FF10C0CC0CDD1CD8
:100CB000EE1CFF1CCB01BA01A70196010E94C64D94
:100CC000DA01C9010197A109B10913C0C901B8012D
:100CD000689413F896958795779567951694D1F74C
:100CE000A70196010E94C64DDA01C9010197A10929
:100CF000B1099D838C8381E003C080E001C080E066
:100D0000DF91CF911F910F91FF90EF90DF90CF90E7
:100D1000BF90AF909F908F9008950F931F93CF93A4
:100D2000DF93EC01FB018A818F738A8326813581F1
:100D300084819A81482F4370440F997F942B9A8322
:100D400099818470880F880F9B7F892B89838A8182
:100D50008F7C832B8A838A81922F990F990F990F09
:100D6000877F892B8A83408151816281738100E072
:100D700012E12AE730E0CE0158DF9981986099832B
:100D8000998190619983998190689983DF91CF913E
:100D90001F910F9108951F920F920FB60F92112479
:100DA0000BB60F922F933F934F935F936F937F9365
:100DB0008F939F93AF93BF93EF93FF938091CE0058
:100DC0000E94FB27FF91EF91BF91AF919F918F916F
:100DD0007F916F915F914F913F912F910F900BBE3B
:100DE0000F900FBE0F901F90189580919E2281301A
:100DF00021F48093052380939F220895F894A89569
:100E000099E288E10FB6F894A895809360000FBE30
:100E100090936000789408950E943A150E942021D2
:100E2000C9DAFADBEFE7F3E180E197E2A0E0B0E0B6
:100E300086839783A087B18781E0828785EF96E0DC
:100E400094878387CF010E9408160E9449170E9449
:100E50003F208091722390E00E94FE20CFDF86E049
:100E600080934D010E9443150E94251DA895FACF3D
:100E70001F920F920FB60F9211240BB60F922F9361
:100E80003F934F935F936F937F938F939F93AF9312
:100E9000BF93EF93FF93E0919E13F0919F133097D0
:100EA00009F01995FF91EF91BF91AF919F918F91AB
:100EB0007F916F915F914F913F912F910F900BBE5A
:100EC0000F900FBE0F901F9018951F920F920FB6A4
:100ED0000F9211240BB60F922F933F934F935F9372
:100EE0006F937F938F939F93AF93BF93EF93FF93F2
:100EF000E0919C13F0919D13309709F01995FF91A3
:100F0000EF91BF91AF919F918F917F916F915F9181
:100F10004F913F912F910F900BBE0F900FBE0F90EE
:100F20001F9018951F920F920FB60F9211240BB6B7
:100F30000F922F933F934F935F936F937F938F9372
:100F40009F93AF93BF93EF93FF93E0919A13F09128
:100F50009B13309709F01995FF91EF91BF91AF91D5
:100F60009F918F917F916F915F914F913F912F91C1
:100F70000F900BBE0F900FBE0F901F9018951F92F1
:100F80000F920FB60F9211240BB60F922F933F932F
:100F90004F935F936F937F938F939F93AF93BF9381
:100FA000EF93FF93E0919813F0919913309709F024
:100FB0001995FF91EF91BF91AF919F918F917F9183
:100FC0006F915F914F913F912F910F900BBE0F90BA
:100FD0000FBE0F901F9018951F920F920FB60F9291
:100FE00011240BB60F922F933F934F935F936F9300
:100FF0007F938F939F93AF93BF93EF93FF93E09172
:101000009613F0919713309709F01995FF91EF918E
:10101000BF91AF919F918F917F916F915F914F9110
:101020003F912F910F900BBE0F900FBE0F901F900E
:1010300018951F920F920FB60F9211240BB60F92B4
:101040002F933F934F935F936F937F938F939F93D0
:10105000AF93BF93EF93FF93E0919413F0919513A7
:10106000309709F01995FF91EF91BF91AF919F9142
:101070008F917F916F915F914F913F912F910F9041
:101080000BBE0F900FBE0F901F9018951F920F92DE
:101090000FB60F9211240BB60F922F933F934F93DD
:1010A0005F936F937F938F939F93AF93BF93EF93D0
:1010B000FF93E0919213F0919313309709F01995F3
:1010C000FF91EF91BF91AF919F918F917F916F9120
:1010D0005F914F913F912F910F900BBE0F900FBEDC
:1010E0000F901F9018951F920F920FB60F92112418
:1010F0000BB60F922F933F934F935F936F937F9312
:101100008F939F93AF93BF93EF93FF93E0919013CF
:10111000F0919113309709F01995FF91EF91BF91DC
:10112000AF919F918F917F916F915F914F913F917F
:101130002F910F900BBE0F900FBE0F901F90189520
:101140001F920F920FB60F9211240BB60F922F938E
:101150003F934F935F936F937F938F939F93AF933F
:10116000BF93EF93FF93E0918E13F0918F1330971D
:1011700009F01995FF91EF91BF91AF919F918F91D8
:101180007F916F915F914F913F912F910F900BBE87
:101190000F900FBE0F901F9018951F920F920FB6D1
:1011A0000F9211240BB60F922F933F934F935F939F
:1011B0006F937F938F939F93AF93BF93EF93FF931F
:1011C000E0918C13F0918D13309709F01995FF91F0
:1011D000EF91BF91AF919F918F917F916F915F91AF
:1011E0004F913F912F910F900BBE0F900FBE0F901C
:1011F0001F901895803111F4D99A0895D89A0895BE
:10120000803159F4E8E6F0E0808182608083ECE68A
:10121000F0E08081816080830895E8E6F0E08081DD
:1012200081608083EBE6F0E0208181E090E002C005
:10123000880F991F7A95E2F7822B80830895803179
:1012400031F4ECE6F0E080818E7F80830895EBE658
:10125000F0E0208181E090E002C0880F991F7A952C
:10126000E2F78095822380830895CF92DF92EF92F8
:101270006B01E82EE4DF8E2DB60126D18E2DB6014E
:10128000C5D18E2DB601B6DF8E2DB601B9DFEF9038
:10129000DF90CF900895982F811105C050939F1330
:1012A00040939E130895813029F450939D134093E9
:1012B0009C130895823029F450939B1340939A1302
:1012C0000895833029F45093991340939813089507
:1012D000843029F4509397134093961308958530E2
:1012E00029F450939513409394130895863029F46C
:1012F00050939313409392130895873029F4509399
:1013000091134093901308958850883028F4509397
:101310008F1340938E130895903121F450938D13C1
:1013200040938C130895623009F128F4662341F04C
:10133000613089F00895633021F1643069F10895D6
:1013400025B181E090E002C0880F991F7A95E2F7FD
:10135000822B85B908952BB181E090E002C0880FFF
:10136000991F7A95E2F7822B8BB908952EB181E00F
:1013700090E002C0880F991F7A95E2F7822B8EB910
:10138000089521B381E090E002C0880F991F7A95FB
:10139000E2F7822B81BB089524B381E090E002C084
:1013A000880F991F7A95E2F7822B84BB08956230EB
:1013B00019F128F4662341F0613091F0089563300B
:1013C00039F1643089F1089525B181E090E002C0DF
:1013D000880F991F7A95E2F78095822385B9089541
:1013E0002BB181E090E002C0880F991F7A95E2F757
:1013F000809582238BB908952EB181E090E002C0E0
:10140000880F991F7A95E2F7809582238EB9089507
:1014100021B381E090E002C0880F991F7A95E2F72E
:101420008095822381BB089524B381E090E002C0BF
:10143000880F991F7A95E2F78095822384BB0895DF
:10144000623009F128F4662341F0613089F0089593
:10145000633021F1643069F1089525B181E090E0B5
:1014600002C0880F991F7A95E2F7822785B90895FF
:101470002BB181E090E002C0880F991F7A95E2F7C6
:1014800082278BB908952EB181E090E002C0880FC9
:10149000991F7A95E2F782278EB9089521B381E0EA
:1014A00090E002C0880F991F7A95E2F7822781BBEE
:1014B000089524B381E090E002C0880F991F7A95C7
:1014C000E2F7822784BB0895623061F128F4662335
:1014D00049F06130B9F008956330A1F1643009F446
:1014E00041C0089524B181E090E002C0880F991FA7
:1014F0007A95E2F78095982F922394B995B1892334
:1015000085B908952AB181E090E002C0880F991F43
:101510007A95E2F78095982F92239AB99BB1892307
:101520008BB908952DB181E090E002C0880F991F1A
:101530007A95E2F78095982F92239DB99EB18923E1
:101540008EB9089520B381E090E002C0880F991F02
:101550007A95E2F78095982F922390BB91B38923D7
:1015600081BB089523B381E090E002C0880F991FEA
:101570007A95E2F78095982F922393BB94B38923B1
:1015800084BB0895623009F128F4662341F061308C
:1015900089F00895633021F1643069F1089524B130
:1015A00081E090E002C0880F991F7A95E2F7822BC4
:1015B00084B908952AB181E090E002C0880F991F94
:1015C0007A95E2F7822B8AB908952DB181E090E0F7
:1015D00002C0880F991F7A95E2F7822B8DB9089582
:1015E00020B381E090E002C0880F991F7A95E2F75E
:1015F000822B80BB089523B381E090E002C0880F66
:10160000991F7A95E2F7822B83BB0895623009F126
:1016100028F4662341F0613089F00895633021F1A8
:10162000643069F1089525B181E090E002C0880F2F
:10163000991F7A95E2F7822B85B908952BB181E045
:1016400090E002C0880F991F7A95E2F7822B8BB940
:1016500008952EB181E090E002C0880F991F7A951D
:10166000E2F7822B8EB9089521B381E090E002C0A9
:10167000880F991F7A95E2F7822B81BB089524B3D6
:1016800081E090E002C0880F991F7A95E2F7822BE3
:1016900084BB08956230E9F028F4662341F061309C
:1016A00079F032C06330F1F0643029F12DC083B19C
:1016B00090E002C0959587957A95E2F7817008953C
:1016C00089B190E002C0959587957A95E2F781708F
:1016D00008958CB190E002C0959587957A95E2F7D0
:1016E000817008958FB190E002C0959587957A95A5
:1016F000E2F78170089582B390E002C095958795D6
:101700007A95E2F78170089580E0089514BE0FB6CF
:10171000F894A89580916000886180936000109291
:1017200060000FBEE1E6F0E080E8808310827894EC
:1017300004C0089590E016C008951092802380E1BF
:1017400097E29093A9008093A800E1EAF0E088E096
:101750008083808182608083E2E7F0E08081826024
:10176000808308952091A4003091A500820F931FDB
:10177000EAEAF0E091838083208131818091A800A2
:101780009091A9008217930750F42091A8003091FE
:10179000A90080819181821B930B9183808384E0D7
:1017A00089BBCA9BFECF08951F920F920FB60F926E
:1017B00011248F93809180238F5F809380238F915A
:1017C0000F900FBE0F901F901895E1E8F3E214827E
:1017D00015821182108217A216A2E7E8F3E287EAC7
:1017E00093E211921192E817F907D9F74FD665D312
:1017F0000DD140D08FC1089590938223809381238F
:101800000C943514089590938423809383230C942F
:1018100023140895E82FF0E0EE0FFF1FE957FC4D69
:1018200071836083089591D32FD74DC00895E091BF
:10183000A013F091A1133097D9F02281338128179A
:10184000390789F405C0228133812817390759F4F3
:10185000DC01AD57BF4F2C91278713962C91208B1D
:1018600022E0248305C00190F081E02D309759F7E4
:1018700011C108951092A1131092A0130895FC01B4
:101880001482178613821282A1E8B3E296968D9194
:101890009C919797019697969C938E93969780919B
:1018A000A0139091A113009739F411821082F09344
:1018B000A113E093A013089591838083F093A11363
:1018C000E093A01308950F931F93CF93DF93E091BC
:1018D000A013F091A113309709F493C0EF018C810C
:1018E000882321F0823009F466C085C09AD08C012B
:1018F000009721F482E08C838F8783C09B838A8347
:1019000081E08C83F801E957FF4F87E19CE09183E8
:1019100080833197898582FB882780F98083998528
:10192000D8011B968C911B9790FB80F91B968C938A
:101930001B97998593FB992790F990FB82F91B9649
:101940008C931B97E1E8F3E284818F5F84831C967C
:101950008C931C97808191811E969C938E931D97EA
:101960008D819E8150969C938E931F978885982F8A
:101970009F7051968C915197807F892B51968C93B3
:1019800051979F819295907F8F70892B51968C9360
:10199000F801EF57FF4F4C8550E06A857B858081C9
:1019A00091810E948B4EF80191818C85890F8183F2
:1019B000C8018FD526C0CE17DF0741F488819981F1
:1019C0009093A1138093A0130AC0FC0180819181A0
:1019D000C817D907D1F78881998191838083E1E87D
:1019E000F3E286A197A1019797A386A3ED85FE85D3
:1019F000CE01199506C00990D881C02D209709F015
:101A00006ECFDF91CF911F910F910895E2EAF3E13C
:101A100086E59EE11082E757FF4FE817F907D1F7F7
:101A200008958091A213882359F0EBE2F4E146E592
:101A30005EE181E090E0BC012081211122C002C062
:101A400060E070E049E8469F9001479F300D112407
:101A5000C9018E559C4EFC0111924A95E9F740E16F
:101A6000FC014183EF57FF4F2C543C4E31832083C0
:101A7000E1E8F3E226A137A12F5F3F4F37A326A36A
:101A800008950196E757FF4FE417F507A1F680E0A8
:101A900090E00895FC011082E1E8F3E286A197A1AD
:101AA000019797A386A30895009741F0FC01E7579B
:101AB000FF4F8EE1E635F80718F015C0E2EAF3E1D2
:101AC0008081882339F003C08081882319F08E2F0C
:101AD0009F2F0895E757FF4F8EE1E635F807A0F3F3
:101AE00080E090E0089580E090E00895FC01DC0142
:101AF000AD57BF4F1C92A1E8B3E214969C91149786
:101B00009F5F14969C93149794878D919C919687D0
:101B100085870895ABE5BEE180E090E04FEF5FEF91
:101B2000FD01349751834083FC01EE0FFF1FEE0F40
:101B3000FF1FEE0FFF1FE81BF90BEA5AF14E208141
:101B40002E7F20831C92019617968436910541F7CB
:101B500008950F931F93CF93DF93E7E5FEE120E015
:101B600030E0062F10E04081518148175907B1F449
:101B7000D901AA0FBB1FAA0FBB1FAA0FBB1FA21B15
:101B8000B30BAA5AB14E4C9146954170C42F40E018
:101B9000D42FC017D10711F4CD0108C02F5F3F4FDC
:101BA000379624363105F9F680E090E0DF91CF9149
:101BB0001F910F910895CF93DF93EBE5FEE127E1AD
:101BC00031E2C0E0D0E0DF0115978C9180FD0BC0C1
:101BD0008081882369F0209729F09D81891718F466
:101BE000ED0101C0ED013796E217F30761F7DE0161
:101BF0008C918D7080638C9380E815968C931597EB
:101C0000CD01DF91CF910895FC01808180FD05C059
:101C10008FEF9FEF92838183158208959ADF00975B
:101C200021F0FC018381948108958FEF9FEF089547
:101C300090DF009709F0E8CF08950F931F93CF939B
:101C4000DF93FC010185128511232CF4858596858F
:101C500008171907E1F5858196810196C1F1EF0119
:101C600060E08585968575DFFC01892BA1F08F8169
:101C700098850196F9F420918123309182238F85F4
:101C8000988928173907B1F41483038380818F70F2
:101C9000806380830AC08FDFFC018D859E859283DF
:101CA000818389859A8594838383CD57DF4F88818B
:101CB00086830DC08381948108171907B1F3DE0173
:101CC000AD57BF4F9C9186818917F0F2EECFDF911F
:101CD000CF911F910F910895CF93DF93FC018785DA
:101CE00090898F3F2FEF9207D9F1EF01638563FB56
:101CF000662760F92EDFDC01892B91F18C9180FD44
:101D00002FC0FE01ED57FF4F8081811119C08C91CA
:101D10008F7080638C9315968C9115978F5F1596B5
:101D20008C938F3FE9F4EBE5FEE127E131E280811E
:101D300086958F5F80833796E217F307C1F710C04F
:101D40009C91892F82958F70815F8F70282F2295AB
:101D5000207F9F70922B9C93811102C0CD0154DF94
:101D6000DF91CF910895CF93DF93FC018785908910
:101D70008F3F2FEF920729F48FEF9FEF9087878394
:101D80000EC0238522FF03C09087878308C0EF0120
:101D9000638563FB662760F941DF98878F83DF9156
:101DA000CF910895AF92BF92CF92DF92EF92FF92C0
:101DB0001F93CF93DF93EC011B8513FB112710F9C1
:101DC000CF84D888612FC60129DF019659F0FE0122
:101DD000E957FF4F11821082319782E08083CE0154
:101DE00078D322C0AD84BE841CDE7C010097D1F084
:101DF0007DDEF70181818A5F8183E957FF4F118280
:101E00001082F701B08AA786EF57FF4F0190F0814B
:101E1000E02D81E08083B282A182D482C3821583C7
:101E2000C70157D3CE0136DEDF91CF911F91FF90CE
:101E3000EF90DF90CF90BF90AF900895DC011796A0
:101E4000ED91FC91189719968C91863031F465814B
:101E500083819481EDDE81E0089580E00895DC01C6
:101E600019962C911997222371F01796ED91FC91F8
:101E700018972081222319F0213019F006C0BDC324
:101E80000895DCCF089580E0089580E00895BC01B6
:101E9000E4E2F1E226E531E240E051E0908199236D
:101EA00019F091509083452F3596E217F307B1F75B
:101EB000442311F0CB01ACC60895E4E2F1E286E5DB
:101EC00091E210823596E817F907D9F7E2E1F1E2DD
:101ED00084E690E0A0E0B0E086839783A087B18796
:101EE000128687E49FE0948783876FE27FE080E03B
:101EF00091CC0895CF93DF93DC01ED91FC91119784
:101F000021812838F9F420812F7D2134D9F41296CB
:101F10002C912031B8F0EC0184DD009799F020E29B
:101F2000FC0120832A8121832B81ED57FF4F2083E1
:101F30002C81319620834A8150E068817981029614
:101F40000E948B4EDF91CF9108952F923F924F9236
:101F50005F926F927F928F929F92AF92BF92CF9239
:101F6000DF92EF92FF920F931F93CF93DF93CDB742
:101F7000DEB72E970FB6F894DEBF0FBECDBF00E0E0
:101F800010E00F2EF4E2DF2EF02D0F2EF1E88F2E51
:101F9000F3E29F2EF02D6894CC24C4F80F2EF4E2C7
:101FA0004F2EF1E25F2EF02D0F2EF0E26F2EF1E2B8
:101FB0007F2EF02D0F2EF2E5EF2EF1E2FF2EF02D09
:101FC000312C212C5801DDC1D5018C91823209F4CC
:101FD00007C118F4803241F0D4C1833209F4CCC176
:101FE000843209F4CCC1CDC1F501D0828385982F0C
:101FF0009A7009F0C6C1258136812F3F3F4F91F479
:10200000D5011F968D919C915097F40120813181CB
:102010002817390719F0019609F0B3C1E2E2D5019A
:10202000EC93AFC1D5011F962D913C9150972F3F56
:102030003F4F11F480FDA5C1F40120813181D5010C
:102040001D968D919C911E972817390709F499C107
:10205000C501F3DDF301432D522D632D722D5E86F4
:102060004D86AD85BE858C91882309F46CC0D50161
:102070001D962D913C911E978081918128173907DB
:1020800009F062C0F5019485FA01EE0FFF1FEE0F13
:10209000FF1FE40FF51FE05EFE4D8281891B883033
:1020A000C8F5FA01EE0FFF1FEE0FFF1FE40FF51F3B
:1020B000E05EFE4D9381292F30E0082E02C0359559
:1020C00027950A94E2F720FF12C0D4012D913C918C
:1020D000F501878190852817390709F052C163857A
:1020E00063FB662760F987859089A2DD4AC1FA0102
:1020F000EE0FFF1FEE0FFF1FE40FF51FE05EFE4D1A
:1021000021E030E002C0220F331F8A95E2F7922BC4
:1021100093833EC1FA01EE0FFF1FEE0FFF1FE40F86
:10212000F51FE05EFE4D9283238130E08195A90189
:1021300002C0440F551F8A95E2F7CA01816083836C
:102140008FE1848325C1BF014F5F5F4F8D859E85E1
:1021500005969E878D873596EE15FF0509F081CF90
:102160006115710509F40DC1D5011D968D919C91E4
:102170001E97FB01918380831C968C91828321E0C2
:1021800023838FE1848382E191E242D501C1D401AE
:102190002D913C91F501878590892817390781F0A9
:1021A000438542FD0BC0C501E3D1D4012D913C9183
:1021B000F501878590892817390711F0019621F4D8
:1021C000E2E2D501EC93DDC0D50117968D919C918B
:1021D00018972817390709F0D4C083E28C93D1C02F
:1021E00010921F21F501218922952F70E22FF0E036
:1021F000EE0FFF1FE957FC4D0190F081E02D309765
:1022000009F463C0D5011D968D919C911E979A8308
:1022100089831F964D915C9150975C834B835196B7
:102220003C9151973F703D832E83AF57BF4F6D91C7
:102230007C917987688795012E5F3F4F261B370B6E
:10224000D50111963C911197230F2A87AD57BF4FA7
:102250002C912B8711962C912C87D5011B962C91B4
:10226000622F637022FD02C030E001C030E2632BB8
:1022700023FD02C030E001C030E4262F232B4F3F66
:102280005F4F11F030E001C034E0232BD5011996E7
:102290004D915C911A978417950711F090E001C059
:1022A00098E0822F892B8F83D50115962D913C9133
:1022B00016972F3F3F4F11F090E001C09C2D892BC6
:1022C0008F83CE010196199501C080E0F5019385B9
:1022D00090FF80E0D50117962D913C9118972F3FE4
:1022E0003F4F69F4F40140815181D5011F962D9132
:1022F0003C9150974217530711F493FF81E0F50189
:10230000258136812F3F3F4FA1F1D4012D913C9182
:102310002F3F3F4F71F1882361F183DB8C010097E0
:1023200041F1E4DBF80181818D5F8183E957FF4F43
:1023300011821082D5011B968C911B978695817016
:10234000F801938580FB91F993871D968D919C915F
:102350001E97908B8787EF57FF4F0190F081E02DFC
:10236000108280911F2182831C968C918183C801E9
:10237000B0D0D501DC9205C0C50114DD02C0C50195
:1023800089DBC50191DB5C01892B09F01DCE07C0FB
:10239000F50187819085019609F007CFF8CE2E963A
:1023A0000FB6F894DEBF0FBECDBFDF91CF911F9166
:1023B0000F91FF90EF90DF90CF90BF90AF909F90E4
:1023C0008F907F906F905F904F903F902F900895E7
:1023D000EF92FF920F931F93CF937C0110E080E068
:1023E00090E001E0C3E113C0FC012081213179F4C8
:1023F000EC57FF4F208131812150310931832083F7
:10240000232B21F4FC01C083102F01C0102F4CDBC3
:10241000009751F7112311F0C701FAD3CF911F9103
:102420000F91FF90EF900895EF92FF920F931F93FB
:10243000CF93DF937C0110E080E090E001E0D7E1F2
:10244000C0E116C0FC012081263191F4EC57FF4F0A
:10245000208131812150310931832083232B39F4AC
:10246000FC01D083ED57FF4FC083102F01C0102F08
:102470001BDB009739F7112311F0C701C9D3DF9196
:10248000CF911F910F91FF90EF90089510926D21C1
:1024900010926C21EFE5F1E282E390E0A0E0B0E081
:1024A00086839783A087B187128684E192E194871F
:1024B0008387E2E5F1E28AE090E0A0E0B0E0868385
:1024C0009783A087B187128688EE91E194878387EE
:1024D0000895CF93DF93EC01FC01EA57FF4F808111
:1024E00081FF03C092E1988302C092E19883FE01CC
:1024F000ED57FF4F108280FF05C02FEF3FEF3E8367
:102500002D8306C020918323309184233E832D8325
:10251000857019F4CE0127DC04C08F8598899887CF
:102520008F83E1E8F3E2808191819A8789878581B1
:102530008F5F85838C838F819885019671F481E408
:1025400098E89B838A830E94704ECC57DF4F877038
:10255000992701969983888308C081E698E89B8330
:102560008A83CC57DF4F19821882DF91CF9108956B
:102570000F931F93CF93DF938C0153DAEC01892BD8
:10258000B9F182E18883F80181818983FE01ED57E9
:10259000FF4F10820E94704EFE01EC57FF4F877074
:1025A0009927019691838083339611821082F801D6
:1025B000418150E0B8016E5F7F4FCE0102960E94CC
:1025C0008B4E81E498E89B838A838FEF9FEF9887F7
:1025D0008F83F801858196819E838D83E1E8F3E204
:1025E000808191819A87898785818F5F85838C839C
:1025F000DF91CF911F910F910895CF93DF93FC014D
:10260000C781D08581858330C1F480E090E010C01F
:10261000FC012081263161F434852981321308C000
:1026200027E120832A81EA57FF4F208381E006C0FB
:102630003BDA009769F780E001C080E0DF91CF913D
:102640000895E0916C21F0916D21813021F048F0E6
:10265000823019F004C080E205C081E203C081E04D
:1026600001C080E0DF01AD57BF4F8C9385E18083CF
:1026700010926D2110926C21E1E8F3E286A197A1FE
:10268000019797A386A308959F92AF92BF92CF928E
:10269000DF92EF92FF920F931F93CF93DF93C0E0EF
:1026A000D0E00F2EF4E1AF2EF02D01E813E20F2E53
:1026B000F7E1DF2EF02D0F2EF6E19F2EF02D0F2EDD
:1026C000F5E1EF2EF12CF02D0F2EF3E1CF2EF02DB2
:1026D0000F2EF1E1BF2EF02D60C088818331C1F053
:1026E00018F4823139F059C0853149F1873109F444
:1026F00045C053C0FE01EC57FF4F80819181892B6B
:1027000029F0B88282E591E283D247C0C88245C0F1
:1027100080916C2190916D21892B09F03EC0D0935E
:102720006D21C0936C21A8826981CE010296AFD041
:10273000F80186A197A1019697A386A32EC0FE015A
:10274000ED57FF4F8081811117C02D853E85F8011F
:10275000808191812817390769F48B8580FF0AC031
:102760009882FE01EC57FF4FF182E0828FE591E203
:102770004FD213C0D88211C0D8820FC0CE01ACDABC
:10278000FE01E957FF4F0190F081E02D309719F4D9
:10279000CE0180D902C0CE011995CE0185D9EC01B8
:1027A000892B09F09ACFDF91CF911F910F91FF9064
:1027B000EF90DF90CF90BF90AF909F900895809161
:1027C0006E21982F9F70E4E5F1E08081807F892B56
:1027D000808380916E21882329F080916F218093DE
:1027E0005301089580916F21982F9F71E8E4F1E0E3
:1027F0008081807E892B8083089593E090934201AD
:10280000E1E4F1E090819F719830E1F7809342011B
:10281000E1E4F1E090819F719813FCCF089588E086
:10282000ECDF8FEF80934F0180917021882311F0AE
:1028300086E1E3CF089580937021F1CF08958093CE
:102840006F21BDCF0895CF93DF931F921F92CDB715
:10285000DEB79A838983809362018A8180936301C2
:102860000F900F90DF91CF910895CF93DF931F9238
:102870001F92CDB7DEB79A838983809360018A81E6
:10288000809361010F900F90DF91CF9108950F9386
:102890001F93CF938C01C62F89E1AFDF8FEF809319
:1028A0004F0182E08C0F80938001CC2381F0F801EE
:1028B000C1502C2F30E02F5F3F4FC801820F931F74
:1028C000A1E8B1E021912D93E817F907D9F783E04A
:1028D0008093F12182E080934201CF911F910F916B
:1028E0000895EF92FF920F931F93CF93DF9310926F
:1028F000560186E082DFC0E0D0E0E12CF12C06E456
:1029000011E081E00E949A0BF80120812295269522
:102910002770237030E00C2E02C0220F331F0A9460
:10292000E2F7E22AF32A2296C031D10551F788E076
:1029300064DF8BEE8093560172DFC701DF91CF9188
:102940001F910F91FF90EF900895E9E3F1E08081EE
:10295000816080831092702110926E2181E08093BB
:10296000F12188E04ADF8BEE80935601ECE4F1E040
:10297000808180688083B5DF80936D0108951F9307
:10298000CF93DF9300D01F921F92CDB7DEB7809117
:10299000F121823009F465C080914F0183FF3EC070
:1029A000A0917B016A2F70E0AB014F5F5F4F80E029
:1029B00090E020E0FC01E058FE4F3081FC01EF5830
:1029C000FE4D30832F5F822F90E08417950794F39C
:1029D00081E791E29A838983A250AB83FB01EF5890
:1029E000FE4D80818C83809147018A558D83CE0175
:1029F000019680DAE1E4F1E080818F718631E1F7C0
:102A0000EFE4F1E0808188608083ECE4F1E0808194
:102A10008F77808380818068808323C080914F017D
:102A200086FF1FC0809141018F718931A9F41091F7
:102A3000420112951695177049F0133021F01530A8
:102A400021F013E003C011E001C012E0E8DE81E0F4
:102A50008093F121812FF5DDEFE4F1E08081806446
:102A600080830F900F900F900F900F90DF91CF9178
:102A70001F9108950E94860B6FD067DF0E94E50BBF
:102A80001092450108957BDF0E94130CCCC008957D
:102A90000F931F93CF93DF93EC018091F2219091DC
:102AA000F321009709F445C04E815F8168857985DF
:102AB000FC0102811381248135814017510762078F
:102AC000730760F0DC0117C0028113812481358116
:102AD000401751076207730768F403C0FC01A0E0C8
:102AE000B0E0041B150B260B370B028313832483E2
:102AF00035830AC0DF01401B510B620B730BED9154
:102B0000FC911197309701F74A835B836C837D8337
:102B1000109741F08D919C91119799838883CD9363
:102B2000DC9315C099838883D093F321C093F2215D
:102B30000EC0198218828E819F81A885B9858A83EB
:102B40009B83AC83BD83D093F321C093F221DF91AB
:102B5000CF911F910F9108951092F3211092F221BD
:102B60000895CF93DF93A091F221B091F3211097B4
:102B700091F1A817B90751F50AC08E179F0729F5DB
:102B8000109731F0208131812D933C9307C0FC01D7
:102B9000208131813093F3212093F2210190F08143
:102BA000E02D3097C1F04281538164817581EC0141
:102BB0008A819B81AC81BD81840F951FA61FB71FA1
:102BC00082839383A483B58306C0DF01ED91FC91DA
:102BD0001197309791F6DF91CF910895E091F2210E
:102BE000F091F321309771F0E817F90721F40CC048
:102BF0008E179F0759F00190F081E02D3097C1F7B3
:102C000080E0089580E0089581E0089581E00895CE
:102C1000CF93DF93EC01E2DF811102C0CE0138DFF8
:102C2000DF91CF910895CF92DF92EF92FF92CF93F1
:102C3000DF9380918023882309F459C08FB7F894DB
:102C4000C0908023109280238FBFD12CE12CF12CD7
:102C5000CC0CDD1CEE1CFF1CD701C601880F991F90
:102C6000AA1FBB1F880F991FAA1FBB1FC80ED91E02
:102C7000EA1EFB1EC091F221D091F3212097B9F1F9
:102C80008A819B81AC81BD81C816D906EA06FB0604
:102C900010F1C81AD90AEA0AFB0A8881998190932F
:102CA000F3218093F2218A85813011F4CE01F0DE88
:102CB000EB85FC85CE011995C091F221D091F321CD
:102CC0002097A9F08A819B81AC81BD81C816D90665
:102CD000EA06FB06F0F68A819B81AC81BD818C19E6
:102CE0009D09AE09BF098A839B83AC83BD83DF91B5
:102CF000CF91FF90EF90DF90CF9008958091E022E8
:102D00008F5F8093E022882319F01092E0220895CB
:102D100081E08093052308958AE093E279CF0895B6
:102D20008091C222813081F48BE493E21ADF84E047
:102D30008093CC221092C7221092C6220E94850254
:102D40008CE593E265CF0895811110C08BE493E286
:102D500008DF81E08093CC220E94DA010E940C03FC
:102D60008CE593E2FEDE83EA92E2FBCE089584EFE7
:102D700091E20C943E37089581E080939E228FE289
:102D800092E00C94E327089580917122823008F03C
:102D90006AC080918822823049F018F48130C9F1EC
:102DA00049C08530A1F0863019F144C06091E1221C
:102DB0007091E2228091E3220E94D7096091BF22A4
:102DC0007091C0228091C1220E94200A43C060916C
:102DD000BF227091C0228091C1220E94200A60917E
:102DE000E1227091E2228091E3220E94D70932C051
:102DF0006091BF227091C0228091C1220E94200A5E
:102E00006091E1227091E2228091E3220E94200AE7
:102E100021C06091BF227091C0228091C1220E9486
:102E2000200A6091E1227091E2228091E3220E94C7
:102E3000D70910C06091BF227091C0228091C12239
:102E40000E94D7096091E1227091E2228091E322F1
:102E50000E94D709809171228F5F809371228AE04E
:102E600093E2D6CE08956091BF227091C0228091E6
:102E7000C1220E94D7096091E1227091E2228091E3
:102E8000E3220E94D7091092712284EE92E2C0CE12
:102E90000895EF92FF920F931F93CF93DF93E7E193
:102EA000F3E210820F2EF3E0FF2EF02DF1828BE083
:102EB000828360911723709118238091192349EF21
:102EC0005BE10E944B096091172370911823809158
:102ED00019230E943509E0EBF2E21082C2E0C183BF
:102EE0008AE082836091B0227091B1228091B222F7
:102EF0000E943509E3EBF2E21082D1E0D18389E050
:102F000082836091B3227091B4228091B5220E9495
:102F10003509E9E5F3E21082118288E0828360914D
:102F2000592370915A2380915B230E943509E6E072
:102F3000F3E2D0836894EE24E2F8E1826091062304
:102F400070910723809108230E94640A60910623F0
:102F500070910723809108230E94060BEFEBF2E2A9
:102F6000C08305E001836091BF227091C0228091EF
:102F7000C1220E94C20AE1EEF2E2C08317E011838F
:102F80006091E1227091E2228091E3220E94C20AC4
:102F9000E3EFF2E2C083E1826091F3227091F422C8
:102FA0008091F5220E94C20AE3ECF2E2C083F18232
:102FB0006091C3227091C4228091C5220E94C20AEE
:102FC0000093A1226091A0227091A1228091A2225F
:102FD0000E94C20A0F2EF6E0FF2EF02DF09275230C
:102FE0006091742370917523809176230E94C20AA8
:102FF00010937B2360917A2370917B2380917C23B3
:103000000E94C20AEEE6F3E2C083118260916E2351
:1030100070916F23809170230E94640A60916E23E7
:1030200070916F23809170230E94060BE9E6F3E212
:10303000C083D1836091692370916A2380916B234F
:103040000E94640A6091692370916A2380916B23C6
:103050000E94060BECEBF2E2C083C1836091BC22BC
:103060007091BD228091BE220E94640A6091BC22B0
:103070007091BD228091BE220E94060BEAE1F3E22C
:10308000D083018360911A2370911B2380911C23AC
:103090000E94640A60911A2370911B2380911C2363
:1030A0000E94060BE2E7F2E2D083F1826091722285
:1030B00070917322809174220E94640A609172223E
:1030C00070917322809174220E94060BE9ECF2E267
:1030D000D08311836091C9227091CA228091CB2242
:1030E0000E94640A6091C9227091CA228091CB2209
:1030F0000E94060BDF91CF911F910F91FF90EF90EF
:1031000008950F93CF93DF938091CC22823009F4FE
:10311000F1C130F4882309F46EC0813051F034C31A
:10312000843009F481C208F436C1853009F43FC205
:103130002BC31092C222C1E0C0939E226091A022B4
:103140007091A1228091A2220E94D709E6E7F2E2C3
:103150001386C38B85E0828BC18B84EF91E0A0E066
:10316000B0E08093102390931123A0931223B09387
:10317000132388EE93E0A0E0B0E08093EA229093DE
:10318000EB22A093EC22B093ED228081813081F478
:103190008091092381110CC06091F3227091F42277
:1031A0008091F5220E944A0B811102C01092CC221C
:1031B00080917E22813021F080917922813011F43A
:1031C0001092CC2280917A22813019F485E080938C
:1031D000CC2280917F22813019F482E08093CC222E
:1031E00080918022813009F0CFC283E08093CC228D
:1031F0001092F722C9C28091F722813031F4809178
:10320000F7228F5F8093F72202C01092F72210926C
:10321000C22281E080939E22E6E7F2E2828B8AEF6F
:1032200090E0A0E0B0E08093102390931123A0934E
:103230001223B093132384EF91E0A0E0B0E08093D9
:10324000EA229093EB22A093EC22B093ED228089A6
:10325000813021F080918722811114C06091A022D9
:103260007091A1228091A2220E94D70910928122FE
:1032700080914923811106C087E00E94292381E0C3
:10328000809349238091862281110FC080918722EB
:10329000813059F46091A0227091A1228091A222E4
:1032A0000E94930981E08093812280916C23811197
:1032B00006C084E00E94292381E080936C238091E2
:1032C0008022813029F483E08093CC2210926C23F9
:1032D00080919522811116C08091762281112AC099
:1032E00080917E22811126C080917922811122C095
:1032F00085E00E94292310926C231092492381E0DB
:103300008093CC22809195228130A1F480917E22FD
:10331000813081F46091F3227091F4228091F52242
:103320000E94D709E6E7F2E2108613828185813098
:1033300069F504C080917F22813011F410927F22C0
:1033400080917922813011F580917A228130F1F4D7
:103350008091DD229091DE2201969093DE2280936F
:10336000DD22893E9D4F08F40FC282E090E10E9469
:10337000E32F082F03600093752220E142E065E40B
:103380008EEA0E946E220E94AA33FEC11092DE22B3
:103390001092DD22F9C1C6E7D2E283E08A8B609108
:1033A000A0227091A1228091A2220E94930981E023
:1033B0008B871092C22280939E2280916C23811170
:1033C00011C082E00E94292381E080936C2384E66F
:1033D0000E945A356091F3227091F4228091F52277
:1033E0000E94930980919522813049F583E00E94E3
:1033F000292362E081E60E947A3610926C2381E0F4
:103400008093F7221092CC22C6E7D2E21A8660910E
:10341000F3227091F4228091F5220E94D7091B8635
:103420006091592370915A2380915B230E944A0B2B
:1034300091E0811101C090E090937622A5C1809126
:103440008622813049F583E00E94292362E08EE6DE
:103450000E947A3610926C2381E08093F722809349
:10346000CC22C6E7D2E21A866091F3227091F42250
:103470008091F5220E94D7091B8660915923709193
:103480005A2380915B230E944A0B91E0811101C075
:1034900090E09093762278C180918022813009F467
:1034A00073C183E00E94292362E083E70E947A3699
:1034B00010926C2381E08093F7228093CC22C6E7A0
:1034C000D2E21A866091F3227091F4228091F52263
:1034D0000E94D7091B866091592370915A238091CD
:1034E0005B230E944A0B91E0811101C090E0909310
:1034F00076224AC1E6E7F2E284E0828B1092C22291
:1035000081E080939E2282E0838B80916C238111E5
:1035100008C00E94292381E080936C2383E60E94E7
:103520005A35809176228130A9F480910923811146
:1035300011C081E00E94292362E081E60E947A3670
:1035400010926C2381E08093F7228093CC2210921A
:103550007F221AC18091702290917722981788F06B
:1035600081E00E94292362E08EE60E947A36109262
:103570006C2381E08093F7228093CC2210927F22EB
:1035800003C180917F22813009F4FEC081E00E9456
:10359000292362E083E70E947A3610926C2381E04F
:1035A0008093F7228093CC2210927F22EDC08091ED
:1035B000C222811108C08BE493E22ADB8091C222EF
:1035C0008F5F8093C2228091DC22893080F06091ED
:1035D000B0227091B1228091B2220E944A0B91E0F8
:1035E000811190E090937A221092DC2203C08F5FC9
:1035F0008093DC2280917A22811108C08BE493E2CF
:10360000B0DA81E08093CC221092C222809176229F
:10361000813009F0B9C0809109238111B5C01092A1
:10362000CC221092C222B0C08DE790E0A0E0B0E0C2
:103630008093102390931123A0931223B09313230C
:103640008AEF90E0A0E0B0E08093EA229093EB2232
:10365000A093EC22B093ED2210929E2282E0809300
:10366000882280915823813031F0C0F1823051F0AE
:10367000833089F030C08CE593E273DA82E0809386
:1036800058232CC060E184EF91E20E94503783E020
:103690008093582323C08091C6229091C722813500
:1036A00023EC920790F08091722381FF0BC08091F0
:1036B00072238D7F809372236091722382E090E168
:1036C0000E946C310E94AA3309C001969093C722D0
:1036D0008093C62203C088E00E94D7348091DC2208
:1036E0008930F0F06091B0227091B1228091B222C5
:1036F0000E944A0B91E0811190E090937A226091B0
:10370000592370915A2380915B230E944A0B91E0C8
:10371000811101C090E0909376221092DC2203C0C8
:103720008F5F8093DC2280917A22813051F48091E6
:10373000C222813091F48BE493E26ADA1092C222C1
:103740000CC081110AC08091C222811103C08BE498
:1037500093E207DA81E08093C22280917622813061
:1037600099F48091092381110FC01092582381E0B0
:103770008093CC220E94DA010E940C0383EA92E239
:10378000F0D98CE593E2EDD9DF91CF910F910895B7
:1037900080910523882371F08091F722882319F006
:1037A0001092F72202C00E9473348EEC92E230DA5B
:1037B00010920523089580918022811119C0809173
:1037C0007E22813021F080917922813049F460910C
:1037D000F3227091F4228091F5220C9493090895BC
:1037E0006091F3227091F4228091F5220C94D70914
:1037F000089581E080937723DECF0895CF93DF9300
:1038000080919F22882309F460C00E947238C6E725
:10381000D2E28983BAD68E8380EF8F8710929F225F
:10382000EBE7F0E08081877F808381E680937C00F6
:10383000EAE7F0E0808180648083808186FDFDCFAF
:103840008091790024E2829FC00111246FEF70E023
:103850000E94B34D6093782260916E2370916F2324
:10386000809170230E944A0B91E0811101C090E089
:10387000909395222091772230E080916D2390E003
:103880000A972817390734F4E6E7F2E281E0808BE3
:10389000118A0DC080916D2390E00A962817390790
:1038A0001CF01092862203C082E0809386228091D1
:1038B0007C228D3318F080E00E94D73480917722EB
:1038C000853618F481E00E94D7348091DF22813060
:1038D00029F080917723813009F0B4C08091DC22F7
:1038E000893008F4ACC0609117237091182380913F
:1038F00019230E944A0B91E0811190E09093792264
:103900005ADF6091B0227091B1228091B2220E9460
:103910004A0B91E0811190E090937A226091B3225A
:103920007091B4228091B5220E944A0B91E08111DE
:1039300001C090E090937B226091592370915A23AB
:1039400080915B230E944A0B91E0811101C090E0BD
:103950009093762260916E2370916F2380917023F3
:103960000E944A0B91E0811101C090E09093952252
:103970006091692370916A2380916B230E944A0BA6
:1039800091E0811190E0909396226091BC22709119
:10399000BD228091BE220E944A0B91E0811190E0ED
:1039A0009093972260911A2370911B2380911C237E
:1039B0000E944A0B91E0811190E0909398226091CF
:1039C000722270917322809174220E944A0B91E0BE
:1039D000811190E0909399226091C9227091CA223E
:1039E0008091CB220E944A0B91E0811190E090934C
:1039F0009A2280917E22813021F08091792281303B
:103A000039F480917622811103C085E00E94D73479
:103A10001092DF221092DC2280917622811106C062
:103A200080919522811102C0109209238091772301
:103A3000813041F4809305231092772303C08F5F78
:103A40008093DC22DF91CF910895D8DE5ADBA0CE9F
:103A500008958F929F92AF92BF92FF920F931F9300
:103A6000CF93DF93CDB7DEB729970FB6F894DEBFBB
:103A70000FBECDBF8C01F62E0E9488038093AE232B
:103A8000882309F4CDC248E050E061E472E0C80147
:103A90000E947E4E892BA1F48091CC2281110AC014
:103AA00080917E22813031F483E00E94D734FF245C
:103AB000F394BAC20E9499347EDEFF24F394B4C218
:103AC00048E050E06AE472E0C8010E947E4E892B13
:103AD000A1F48091CC22813051F480917E22811119
:103AE00006C083E00E94D734FF24F3949DC20E9455
:103AF000A33461DEFF24F39497C248E050E063E50D
:103B000072E0C8010E947E4E892B09F050C02FE060
:103B10002F1530F084E00E94D734FF24F39484C240
:103B20006EEF6F0DC8010E945437F82E882309F4F8
:103B300079C2F801218530E02053310988EE93E005
:103B4000289FA001299F500D389F500D11242285D8
:103B500030E02053310964E6629FC001639F900DFD
:103B60001124840F951F248530E020533109AC01C6
:103B7000420F531F238530E020533109C901880FBC
:103B8000991F220F331F220F331F220F331F280FBD
:103B9000391FCA01820F931F8D3FFFE09F0720F05E
:103BA00084E00E94D73440C20E94AC343DC248E059
:103BB00050E06CE572E0C8010E947E4E892B81F4D2
:103BC0008091CC22811106C083E00E94D734FF246B
:103BD000F3942AC281E080937F22FF24F39424C2CD
:103BE00048E050E065E672E0C8010E947E4E892BF5
:103BF00079F48091CC22811106C083E00E94D734F1
:103C0000FF24F39411C210927F22FF24F3940CC27C
:103C100048E050E06EE672E0C8010E947E4E892BBB
:103C200081F48091CC22811106C083E00E94D734B8
:103C3000FF24F394F9C181E080938022FF24F39460
:103C4000F3C148E050E067E772E0C8010E947E4E91
:103C5000892B79F48091CC22811106C083E00E94E7
:103C6000D734FF24F394E0C110928022FF24F39410
:103C7000DBC148E050E060E872E0C8010E947E4E7F
:103C8000892B09F092C023E12F1530F086E00E94C5
:103C9000D734FF24F394C8C16EEF6F0DC8010E94A2
:103CA0005437F82E882309F47AC0F801A185B0E0D2
:103CB000D09720E03AEC4AE95BE30E94054E4B01C5
:103CC0005C01A285B0E0D09720E031EE45EF55E0F1
:103CD0000E94054E860E971EA81EB91E828990E08E
:103CE000C097092E000CAA0BBB0B880E991EAA1EAA
:103CF000BB1EA385B0E0D09720E836E948E950E044
:103D00000E94054E860E971EA81EB91EA485B0E01F
:103D1000D09720E432E44FE050E00E94054E860E3A
:103D2000971EA81EB91EA585B0E0D09720EA36E8F8
:103D300041E050E00E94054E860E971EA81EB91E57
:103D4000A685B0E0D09720E137E20E94FF4D860EB5
:103D5000971EA81EB91EA785B0E0D09728EE33E0C5
:103D60000E94FF4D860E971EA81EB91EA089B0E0C6
:103D7000D09724E630E00E94FF4D860E971EA81EC5
:103D8000B91EA189B0E0D0972AE030E00E94FF4D33
:103D9000680D791D8A1D9B1D0E946D3545C187E008
:103DA0000E94D734FF24F3943FC148E050E069E813
:103DB00072E0C8010E947E4E892B39F48EEC92E2AB
:103DC0000E94B115FF24F3942FC148E050E062E94E
:103DD00072E0C8010E947E4E892B29F40E9475353D
:103DE000FF24F39421C148E050E06BE972E0C80180
:103DF0000E947E4E892B29F40E94AA33FF24F3945B
:103E000013C148E050E064EA72E0C8010E947E4EAF
:103E1000892B29F40E947E35FF24F39405C148E0E4
:103E200050E06DEA72E0C8010E947E4E892B71F568
:103E3000F1E1FF1530F084E00E94D734FF24F394C1
:103E4000F3C06EEF6F0DC8010E945437F82E88231F
:103E5000B9F0CE01019626E0FC0111922A95E9F70E
:103E6000F8012185298322852A8323852B832485B4
:103E70002C8325852D8326852E830E94A235D4C0D0
:103E800084E00E94D734FF24F394CEC048E050E091
:103E900066EB72E0C8010E947E4E892B09F5FDE0B9
:103EA000FF1530F08BE00E94D734FF24F394BCC0A0
:103EB0006EEF6F0DC8010E945437F82E882351F021
:103EC000F8018185898382858A83CE0101960E94CB
:103ED000CC35AAC084E00E94D734FF24F394A4C058
:103EE00048E050E06FEB72E0C8010E947E4E892BE3
:103EF000A1F48BE493E20E94B11584E08093CC227C
:103F00001092C7221092C6220E9485028CE593E28D
:103F10000E940816FF24F39487C048E050E068EC44
:103F200072E0C8010E947E4E892B49F480E20E9413
:103F3000E23580E20E942E36FF24F39475C048E0FB
:103F400050E061ED72E0C8010E947E4E892B29F499
:103F50000E94ED36FF24F39467C048E050E06AED1C
:103F600072E0C8010E947E4E892B29F40E94193705
:103F7000FF24F39459C048E050E063EE72E0C801BA
:103F80000E947E4E892B09F045C0FBE1FF1530F001
:103F900088E00E94D734FF24F39446C06EEF6F0D83
:103FA000C8010E945437F82E882371F1D801199660
:103FB000E4EFF1E2CF01805F2D919191291729F073
:103FC00089E00E94D734F12C2FC08E13F5CFCE019B
:103FD000019629E0FC0111922A95E9F7F801238D59
:103FE0002983248D2A83258D2B83268D2C83278D51
:103FF0002D8320A12E830E94AB3381E08093582330
:1040000088EE93E07ED110C08AE00E94D734FF246E
:10401000F3940AC08BE00E94D734FF24F39404C0C9
:10402000F12C02C0FF24F3948F2D29960FB6F8943B
:10403000DEBF0FBECDBFDF91CF911F910F91FF90DB
:10404000BF90AF909F908F9008950F93CF93DF9381
:104050001F921F92CDB7DEB7198288E08A838FEB5B
:1040600064D100E124EF31E24FEB62E0CE01019632
:10407000DDD10F900F90DF91CF910F9108950F93A5
:104080001F93CF93C1E0C093DF22C0930923C09355
:104090009F22C0930523C09377231092DC221092B5
:1040A00071221092C22210926C23C093CC221092E3
:1040B0007D2310927F2310927E231092E022109293
:1040C000C822C0939E221092492310925823109226
:1040D000F7221092DE221092DD2287E880937A0088
:1040E0000E9414389CD264E072E088EC90E00E9458
:1040F0008D06EAE0F3E284EF91E0A0E0B0E0868391
:104100009783A087B187128684EC96E19487838792
:10411000CF010E940816E4EEF2E288EE93E0A0E000
:10412000B0E086839783A087B18712868CE896E1FA
:10413000948783870E94704EEEECF2E200E911E072
:10414000B8010E94B34D8C599F4F092E000CAA0B49
:10415000BB0B86839783A087B18712868EE796E193
:10416000948783870E94704EE3EAF2E2B8010E94CE
:10417000B34D8C599F4F092E000CAA0BBB0B8683A5
:104180009783A087B18712868CEB96E1948783870B
:10419000ECE5F3E288E893E1A0E0B0E08683978362
:1041A000A087B187C28727EB36E134872387EBE40A
:1041B000F3E286839783A087B187128680E996E130
:1041C000948783870E94483840DF6091062370916E
:1041D0000723809108230E944A0B811108C0E6E75B
:1041E000F2E2178286E0838B0E940F3203C081E0E7
:1041F00080937D22CF911F910F910895809172231A
:1042000081FF0EC084E08093CC221092C7221092CE
:10421000C6220E9485028CE593E20C94081608954C
:1042200081E08093CC2208950F93062F292F482FE9
:1042300065E48EEA53D18AE090E063D00F9108954F
:1042400082E090E10E94E32F8093722384E090E16A
:104250000E94E32F80936D2383E090E10E94E32F7F
:10426000809370228091722380FF2EC061E08CEFDA
:104270009FE0DADF60E08DEF9FE0D6DF60E18EEF58
:104280009FE0D2DF60E08FEF9FE0CEDF64E380E06D
:1042900090E1CADF62E181E090E1C6DF6FE883E090
:1042A00090E1C2DF66E684E090E1BEDF9CD18091C0
:1042B00072238E7F809372236091722382E090E15B
:1042C000B3DF8AE090E01DC008951F93CF93DF9382
:1042D000D82F192F41E0480F292F65E48FEA29D103
:1042E000C82F212F4D2F65E48FEA23D12C2F30E0EA
:1042F000322F2227A901482BCA01DF91CF911F91AC
:10430000089528EE33E0AC01429FC001439F900D19
:10431000529F900D1124009739F020E030E02F5F7C
:104320003F4F28173907D9F708950F931F93CF935D
:10433000DF9300D000D0CDB7DEB7BE016F5F7F4FF7
:1043400096E0FB0111929A95E9F708E418EE21E056
:1043500030E009831A832B833C838E8388E18D832D
:1043600088EB90E00E94120426960FB6F894DEBF08
:104370000FBECDBFDF91CF911F910F910895EF92A6
:10438000FF920F931F93CF93DF93CDB7DEB72A979A
:104390000FB6F894DEBF0FBECDBFF9019E012F5FAF
:1043A0003F4F79012AE0D7011D922A95E9F7498309
:1043B000DC013C913A83462F50E05E834D83F887C1
:1043C000EF8310E01A8709876130C9F0623029F461
:1043D00011968C918A833B8312C0633081F4FC0177
:1043E00021812B8382818C830AC081E090E089DF68
:1043F000115031F481E00E94933781E00AC01AE045
:10440000BE016F5F7F4F88EB90E00E94B103811186
:10441000ECCF2A960FB6F894DEBF0FBECDBFDF916A
:10442000CF911F910F91FF90EF900895EF92FF921F
:104430000F931F93CF93DF93CDB7DEB72A970FB6B5
:10444000F894DEBF0FBECDBFF9019E012F5F3F4F35
:1044500079012AE0D7011D922A95E9F74983DC0109
:104460003C913A83462F50E05E834D83F887EF837B
:1044700010E01A8709876130C9F0623029F411967B
:104480008C918A833B8312C0633081F4FC012181CB
:104490002B8382818C830AC081E090E032DF11504F
:1044A00031F481E00E94933783E00BC01AE0BE0133
:1044B0006F5F7F4F88EB90E00E94DD038111ECCFAE
:1044C00082E02A960FB6F894DEBF0FBECDBFDF9113
:1044D000CF911F910F91FF90EF900895FF920F934E
:1044E0001F93CF93DF9300D0CDB7DEB7182F65347D
:1044F00019F0FF24F39403C06894FF24F1F8498372
:104500002A830B83812F11DF01E09E012D5F3F4F36
:10451000412F6F2DCE01019632DF85E090E0F1DE74
:104520000F900F900F90DF91CF911F910F91FF90FF
:104530000895FF920F931F93CF93DF9300D01F92A4
:10454000CDB7DEB7182F653419F0FF24F39403C0FC
:104550006894FF24F1F849832A831B821C82812FEF
:10456000E4DE01E09E012D5F3F4F412F6F2DCE0114
:1045700001965CDF8B810F900F900F900F90DF9171
:10458000CF911F910F91FF9008950F93CF93DF93D9
:1045900000D01F92CDB7DEB719821A821B821C820F
:1045A00080E9C3DE00E020E030E040E961E0CE01D8
:1045B0000196E5DE811109C002E09E012D5F3F4FAB
:1045C00041E961E0CE01019631DF8B8190E0880FF7
:1045D000991F959587950F900F900F900F90DF91F1
:1045E000CF910F9108950F93CF93DF93C0E0D0E068
:1045F0000FEF2D2F4C2F65E48EEA70DF8AE090E0FC
:1046000080DEA8952196CC3F8FE0D80789F71092DD
:104610007F2310927E23DF91CF910F910895CF9346
:10462000DF93C0E0D0E0CE010E94E32F8F3F29F45A
:10463000D0937F23C0937E2305C02B96CC3F8FE081
:10464000D80789F7DF91CF9108956FEF0C946C3103
:1046500008952F923F924F925F926F927F928F9226
:104660009F92AF92BF92CF92DF92EF92FF920F9301
:104670001F93CF93DF93CDB7DEB76E970FB6F89445
:10468000DEBF0FBECDBF81113FC080917E239091D0
:104690007F238C3F9F4020F010927F2310927E2337
:1046A00040917E2320917F2303E465E48EEA16DFA8
:1046B00080917E2390917F23019690937F23809316
:1046C0007E238AE090E01DDE80917E2390917F23FF
:1046D0008C3F9F4020F010927F2310927E234091C8
:1046E0007E2320917F2303E565E48EEAF7DE809147
:1046F0007E2390917F23019690937F2380937E2346
:104700008AE090E0FEDD0CC2813009F03FC080916C
:104710007E2390917F238C3F9F4020F010927F2337
:1047200010927E2340917E2320917F2303E465E451
:104730008EEAD4DE80917E2390917F230196909320
:104740007F2380937E238AE090E0DBDD80917E23CF
:1047500090917F238C3F9F4020F010927F231092F6
:104760007E2340917E2320917F2305E465E48EEA39
:10477000B5DE80917E2390917F23019690937F23D5
:1047800080937E238AE090E0BCDDCAC1823009F0CC
:104790003FC080917E2390917F238C3F9F4020F0EB
:1047A00010927F2310927E2340917E2320917F23BD
:1047B00004E465E48EEA92DE80917E2390917F236B
:1047C000019690937F2380937E238AE090E099DD89
:1047D00080917E2390917F238C3F9F4020F0109208
:1047E0007F2310927E2340917E2320917F2303E537
:1047F00065E48EEA73DE80917E2390917F2301969B
:1048000090937F2380937E238AE090E07ADD88C1B5
:10481000833009F03FC080917E2390917F238C3FAD
:104820009F4020F010927F2310927E2340917E23A0
:1048300020917F2304E465E48EEA50DE80917E239C
:1048400090917F23019690937F2380937E238AE02B
:1048500090E057DD80917E2390917F238C3F9F4095
:1048600020F010927F2310927E2340917E2320918E
:104870007F2305E465E48EEA31DE80917E2390910A
:104880007F23019690937F2380937E238AE090E09C
:1048900038DD46C1843009F03FC080917E2390917D
:1048A0007F238C3F9F4020F010927F2310927E2325
:1048B00040917E2320917F2305E465E48EEA0EDE9D
:1048C00080917E2390917F23019690937F23809304
:1048D0007E238AE090E015DD80917E2390917F23F6
:1048E0008C3F9F4020F010927F2310927E234091B6
:1048F0007E2320917F2303E565E48EEAEFDD80913E
:104900007E2390917F23019690937F2380937E2333
:104910008AE090E0F6DC04C1853009F03FC0809168
:104920007E2390917F238C3F9F4020F010927F2325
:1049300010927E2340917E2320917F2305E465E43D
:104940008EEACCDD80917E2390917F230196909317
:104950007F2380937E238AE090E0D3DC80917E23C6
:1049600090917F238C3F9F4020F010927F231092E4
:104970007E2340917E2320917F2305E465E48EEA27
:10498000ADDD80917E2390917F23019690937F23CC
:1049900080937E238AE090E0B4DCC2C0863009F0C8
:1049A0003FC080917E2390917F238C3F9F4020F0D9
:1049B00010927F2310927E2340917E2320917F23AB
:1049C00002E465E48EEA8ADD80917E2390917F2364
:1049D000019690937F2380937E238AE090E091DC80
:1049E00080917E2390917F238C3F9F4020F01092F6
:1049F0007F2310927E2340917E2320917F2303E426
:104A000065E48EEA6BDD80917E2390917F23019691
:104A100090937F2380937E238AE090E072DC80C0B5
:104A2000873009F03FC080917E2390917F238C3F97
:104A30009F4020F010927F2310927E2340917E238E
:104A400020917F2302E465E48EEA48DD80917E2395
:104A500090917F23019690937F2380937E238AE019
:104A600090E04FDC80917E2390917F238C3F9F408C
:104A700020F010927F2310927E2340917E2320917C
:104A80007F2304E465E48EEA29DD80917E23909102
:104A90007F23019690937F2380937E238AE090E08A
:104AA00030DC3EC080917E2390917F238C3F9F40DD
:104AB00020F010927F2310927E2340917E2320913C
:104AC0007F230EE465E48EEA09DD80917E239091D8
:104AD0007F23019690937F2380937E238AE090E04A
:104AE00010DC80917E2390917F238C3F9F4020F0AB
:104AF00010927F2310927E2340917E2320917F236A
:104B00000EE465E48EEAEADC80917E2390917F23B7
:104B1000019690937F2380937E238AE090E0F1DBDF
:104B20008091812280937D230E943F386B017C011C
:104B30004F2D5527662777274E2C8D2CA091952237
:104B4000E0E8AE9FD001112480917A228170A82BD9
:104B500080917922817089831A8289819A81880F54
:104B6000991F9A2F982B80917D2280FB222420F878
:104B7000312C220C331C220C331C292AA6E7B2E26A
:104B80008C9181708B831C82EB81FC81EE0FFF1F67
:104B9000EE0FFF1FEE0FFF1F822D8E2B90917B22B9
:104BA00091709D831E822D813E8122953295307FAA
:104BB0003227207F3227282E222A80918622817058
:104BC0008F8318868F819885880F991F829592957B
:104BD000907F9827807F9827822990917E229170DC
:104BE00099871A8629843A84002436942794079456
:104BF000369427940794322C202C282AA0919D22A9
:104C0000E0E8AE9FD00111248091882287708A2B22
:104C10009091812291709B871C86EB85FC85EE0F1D
:104C2000FF1FEE0FFF1FEE0FFF1F8E2B90918422B0
:104C300091709D871E862D853E8522953295307F09
:104C40003227207F3227282B80919B2281708F87EB
:104C5000188A8F859889880F991F82959295907FE1
:104C60009827807F9827822B90919C229170998B16
:104C70001A8A29893A89002436952795079436950A
:104C800027950794322F202D182F122B80919722D1
:104C900081708B8B1C8AEB89FC89EE0FFF1F809142
:104CA000982281708D8B1E8A8D899E89880F991F0D
:104CB000880F991F8E2BE0919622E1708E2B909198
:104CC000992291709F8B188EEF89F88DEE0FFF1F40
:104CD000EE0FFF1FEE0FFF1F8E2B90919A22917007
:104CE000998F1A8E298D3A8D22953295307F3227F1
:104CF000207F3227282B80917F2281708B8F1C8E02
:104D00008B8D9C8D880F991F82959295907F982707
:104D1000807F9827822B9091802291709D8F1E8E8C
:104D20002D8D3E8D00243695279507943695279531
:104D30000794322F202D382E322A80917E23909195
:104D40007F238C3F9F4020F010927F2310927E2380
:104D500080917E2320917F23042F482F65E48EEAE3
:104D6000BDDB80917E2390917F23019690937F23DA
:104D700080937E238AE090E0C4DA80917E23909134
:104D80007F238C3F9F4020F010927F2310927E2340
:104D900040917E2320917F23042D65E48EEA9EDBE3
:104DA00080917E2390917F23019690937F2380931F
:104DB0007E238AE090E0A5DA80917E2390917F2384
:104DC0008C3F9F4020F010927F2310927E234091D1
:104DD0007E2320917F23082D65E48EEA7FDB80917E
:104DE0007E2390917F23019690937F2380937E234F
:104DF0008AE090E086DA80917E2390917F238C3F39
:104E00009F4020F010927F2310927E2340917E23BA
:104E100020917F230C2D65E48EEA60DB80917E2358
:104E200090917F23019690937F2380937E238AE045
:104E300090E067DA80917E2390917F238C3F9F40A2
:104E400020F010927F2310927E2340917E232091A8
:104E50007F230091772265E48EEA40DB80917E23F8
:104E600090917F23019690937F2380937E238AE005
:104E700090E047DA80917E2390917F238C3F9F4082
:104E800020F010927F2310927E2340917E23209168
:104E90007F2300917C2265E48EEA20DB80917E23D3
:104EA00090917F23019690937F2380937E238AE0C5
:104EB00090E027DA80917E2390917F238C3F9F4062
:104EC00020F010927F2310927E2340917E23209128
:104ED0007F23022D65E48EEA01DB80917E23909191
:104EE0007F23019690937F2380937E238AE090E036
:104EF00008DA80917E2390917F238C3F9F4020F0A1
:104F000010927F2310927E2340917E2320917F2355
:104F1000012F65E48EEAE2DA80917E2390917F236F
:104F2000019690937F2380937E238AE090E0E9D9D5
:104F300080917E2390917F238C3F9F4020F01092A0
:104F40007F2310927E2340917E2320917F23032D87
:104F500065E48EEAC3DA80917E2390917F230196E7
:104F600090937F2380937E238AE090E0CAD980913A
:104F70007E2390917F238C3F9F4020F010927F23CF
:104F800010927E2380917E2390917F235EDB8AE0C6
:104F900090E0B7D96E960FB6F894DEBF0FBECDBFC6
:104FA000DF91CF911F910F91FF90EF90DF90CF9005
:104FB000BF90AF909F908F907F906F905F904F9039
:104FC0003F902F9008950F931F93CF93FC01608122
:104FD000662369F08C01C0E088EC90E00E94F70540
:104FE000CF5FF801EC0FF11D60816111F5CFCF911A
:104FF0001F910F91089590914A23992319F09130B0
:10500000B9F00895E8EFF2E225E033E290E29193FF
:10501000E217F307E1F78B3521F481E080934A230F
:1050200008958D3519F51092DB2210924A230895C8
:105030008D3541F41092DB2210924A2381E0809357
:10504000B72208959091DB229D3048F4E92FF0E0DB
:10505000E850FD4D80839F5F9093DB22089510926E
:10506000DB2210924A238CEE92E0ADCF0895CF93CD
:10507000C82F682F62956F706A3010F0695C01C0AC
:10508000605D88EC90E00E94F705CF70CA3018F0A0
:1050900067E36C0F02C060E36C0F88EC90E00E9445
:1050A000F705CF9108951092B722E091F8228E2F44
:1050B00090E0FC01F197E930F105B0F48827ED5953
:1050C000FE4F8F4F0C94E84D82E0089583E00895E1
:1050D00084E0089585E0089586E0089587E00895C6
:1050E00088E0089589E008958CE093E06CDF80E02B
:1050F000089581E008951092B7228091F8228133BB
:10510000A1F018F4803351F00BC0823319F08333CF
:1051100019F006C082E0089583E0089584E00895C0
:105120008CE093E050DF85E0089581E008950F93CF
:105130001F93CF93FC016081662369F08C01C0E06E
:1051400088EC90E00E94F705CF5FF801EC0FF11DAD
:1051500060816111F5CFCF911F910F910895CF9389
:10516000C62FE5DF8EE193E02EDF8C2F80DFCF911D
:1051700008959F92AF92BF92CF92DF92EF92FF92EB
:105180000F931F93CF93DF93F62E6A0121E02093B4
:105190001D231092B722182FB92EC8EFD2E2AA24ED
:1051A000A394A80E5BC03091B7223130E1F781E3C0
:1051B000F81621F082E3F816F1F04DC088810E94C4
:1051C0008037E82E89810E948037EE0CEE0CEE0CC1
:1051D000EE0CE82A0E2D2B2D412F65E48EEA7ED9A8
:1051E0006E2DC601BCDF8AE090E08BD810921D23A3
:1051F0001092B72233C088810E948037E82E8981BF
:105200000E948037EE0CEE0CEE0CEE0CE82A0E2D10
:105210002B2D4A2D65E48EEA61D98A810E94803760
:10522000982E8B810E948037082F6E2DC60197DF44
:10523000E92CEE0CEE0CEE0CEE0CE02A0E2D2B2DD4
:10524000412F65E48FEA4AD98E2D11DF10921D237C
:105250001092B72203C08BE293E0B5DE30911D239C
:10526000313009F4A0CFDF91CF911F910F91FF90C2
:10527000EF90DF90CF90BF90AF909F900895809176
:10528000B822823051F128F4882359F08130C9F0D6
:1052900041C0843009F439C060F1853009F43FC061
:1052A00039C088E593E08FDE86E893E08CDE8BEFF3
:1052B00095E089DE81E08093F12285E08093B82239
:1052C000089584ED93E07FDE47E558E062E38CEFDC
:1052D0009FE04FDF1092B822089581EF93E073DED4
:1052E00048E458E062E38EEF9FE043DF1092B8227B
:1052F00008958EE094E067DE4AE358E062E380E0E0
:1053000090E137DF1092B82208951092F1228AE2DC
:1053100094E059DE89E08093CD221092B82208955E
:105320001092B7228091F822823361F028F4803302
:1053300089F08133B1F010C0843341F028F0853317
:1053400039F00AC082E0089583E0089584E008956A
:1053500085E0089587E008958CE093E034DE86E0F0
:10536000089581E00895DF92EF92FF920F931F93CB
:10537000CF93DF938091B92290E08A30910508F0B5
:10538000EFC5FC018827E459FE4F8F4F0C94E84D80
:105390006091BF227091C0228091C1220E94D709E2
:1053A0006091E1227091E2228091E3220E94D7096C
:1053B0006091F3227091F4228091F5220E94D70926
:1053C0006091C3227091C4228091C5220E94D709A6
:1053D0006091A0227091A1228091A2220E94D709FF
:1053E0006091742370917523809176230E94D70970
:1053F00060917A2370917B2380917C230E94D7094E
:105400008EE394E0E0DD8FE697E0DDDD60916E23D2
:1054100070916F23809170230E944A0B882351F072
:1054200060916E2370916F23809170230E944A0BCC
:105430008111F6CF6091692370916A2380916B236B
:105440000E944A0BE82E6091BC227091BD2280918F
:10545000BE220E944A0BD82E60911A2370911B2302
:1054600080911C230E944A0BF82E60917222709149
:105470007322809174220E944A0B082F6091C922E6
:105480007091CA228091CB220E944A0B182F609102
:10549000B0227091B1228091B2220E944A0BD82F83
:1054A0006091592370915A2380915B230E944A0B8B
:1054B000C82F6091172370911823809119230E949F
:1054C0004A0B21E0D11020E091E0E11090E0292B7F
:1054D00091E0F11090E0922B21E0011120E0292BC6
:1054E00091E0111190E0922B21E0D11120E0292BC5
:1054F00091E0C11190E0922B29F491E0811190E0AC
:10550000992349F08BE494E05EDD87E594E05BDD70
:105510001092B92225C56091BF227091C02280915E
:10552000C1220E94930984E794E04DDD81E08093DD
:10553000B92216C58EE394E046DD80E894E043DDB1
:105540006091692370916A2380916B230E944A0BBA
:10555000882351F06091692370916A2380916B23B5
:105560000E944A0B8111F6CF60916E2370916F23D8
:10557000809170230E944A0BE82E6091BC227091AA
:10558000BD228091BE220E944A0BD82E60911A2320
:1055900070911B2380911C230E944A0BF82E60916E
:1055A000722270917322809174220E944A0B082FFC
:1055B0006091C9227091CA228091CB220E944A0B2D
:1055C000182F6091B0227091B1228091B2220E9476
:1055D0004A0BD82F6091592370915A2380915B23F5
:1055E0000E944A0BC82F6091172370911823809155
:1055F00019230E944A0B21E0D11020E091E0E11034
:1056000090E0292B91E0F11090E0922B21E0011124
:1056100020E0292B91E0111190E0922B21E0D11193
:1056200020E0292B91E0C11190E0922B29F491E028
:10563000811190E0992349F08BE494E0C4DC87E584
:1056400094E0C1DC1092B9228BC46091E122709188
:10565000E2228091E3220E94930984E794E0B3DC84
:1056600082E08093B9227CC48EE394E0ACDC8DE2CE
:1056700092E0A9DC6091BC227091BD228091BE2293
:105680000E944A0B882351F06091BC227091BD2288
:105690008091BE220E944A0B8111F6CF60916E2349
:1056A00070916F23809170230E944A0BE82E6091C5
:1056B000692370916A2380916B230E944A0BD82E34
:1056C00060911A2370911B2380911C230E944A0B26
:1056D000F82E6091722270917322809174220E9440
:1056E0004A0B082F6091C9227091CA228091CB2267
:1056F0000E944A0B182F6091B0227091B1228091C4
:10570000B2220E944A0BD82F6091592370915A23DC
:1057100080915B230E944A0BC82F609117237091E0
:105720001823809119230E944A0B21E0D11020E018
:1057300091E0E11090E0292B91E0F11090E0922BA4
:1057400021E0011120E0292B91E0111190E0922B32
:1057500021E0D11120E0292B91E0C11190E0922BA2
:1057600029F491E0811190E0992349F08BE494E0D1
:105770002ADC87E594E027DC1092B922F1C360911E
:10578000F3227091F4228091F5220E94930984E71C
:1057900094E019DC83E08093B922E2C38EE394E0C5
:1057A00012DC82E894E00FDC60911A2370911B23D5
:1057B00080911C230E944A0B882351F060911A2388
:1057C00070911B2380911C230E944A0B8111F6CFFC
:1057D00060916E2370916F23809170230E944A0B19
:1057E000E82E6091692370916A2380916B230E9457
:1057F0004A0BD82E6091BC227091BD228091BE22AE
:105800000E944A0BF82E609172227091732280914F
:1058100074220E944A0B082F6091C9227091CA22FB
:105820008091CB220E944A0B182F6091B022709178
:10583000B1228091B2220E944A0BD82F6091592345
:1058400070915A2380915B230E944A0BC82F60916C
:10585000172370911823809119230E944A0B21E08D
:10586000D11020E091E0E11090E0292B91E0F110BF
:1058700090E0922B21E0011120E0292B91E0111101
:1058800090E0922B21E0D11120E0292B91E0C11171
:1058900090E0922B29F491E0811190E0992349F056
:1058A0008BE494E090DB87E594E08DDB1092B922E5
:1058B00057C36091C3227091C4228091C5220E9477
:1058C000930984E794E07FDB84E08093B92248C3A6
:1058D0008EE394E078DB84E894E075DB60917222DB
:1058E00070917322809174220E944A0B882351F098
:1058F0006091722270917322809174220E944A0BEF
:105900008111F6CF60916E2370916F238091702387
:105910000E944A0BE82E6091692370916A2380915E
:105920006B230E944A0BD82E6091BC227091BD223D
:105930008091BE220E944A0BF82E60911A2370912A
:105940001B2380911C230E944A0B082F6091C922BF
:105950007091CA228091CB220E944A0B182F60912D
:10596000B0227091B1228091B2220E944A0BD82FAE
:105970006091592370915A2380915B230E944A0BB6
:10598000C82F6091172370911823809119230E94CA
:105990004A0B21E0D11020E091E0E11090E0292BAA
:1059A00091E0F11090E0922B21E0011120E0292BF1
:1059B00091E0111190E0922B21E0D11120E0292BF0
:1059C00091E0C11190E0922B29F491E0811190E0D7
:1059D000992349F08BE494E0F6DA87E594E0F3DA72
:1059E0001092B922BDC26091A0227091A122809133
:1059F000A2220E94930984E794E0E5DA85E080938F
:105A0000B922AEC28EE394E0DEDA86E894E0DBDA17
:105A10006091C9227091CA228091CB220E944A0BC8
:105A2000882351F06091C9227091CA228091CB22C3
:105A30000E944A0B8111F6CF60916E2370916F2303
:105A4000809170230E944A0BE82E60916923709127
:105A50006A2380916B230E944A0BD82E6091BC224E
:105A60007091BD228091BE220E944A0BF82E609157
:105A70001A2370911B2380911C230E944A0B082F2C
:105A80006091722270917322809174220E944A0B5D
:105A9000182F6091B0227091B1228091B2220E94A1
:105AA0004A0BD82F6091592370915A2380915B2320
:105AB0000E944A0BC82F6091172370911823809180
:105AC00019230E944A0B21E0D11020E091E0E1105F
:105AD00090E0292B91E0F11090E0922B21E0011150
