S00F0000504E4557454C532E73726563F7
S113000099C100000C9421080C944E080C947B08B0
S11300100C94A8080C94D5080C9402090C942F098C
S11300200C945C090C9489090C94B609A3C10000D2
S1130030A1C100009FC100009DC100000C94893F34
S113004099C1000097C1000095C1000093C1000050
S113005091C100008FC100008DC100000C945B3F72
S113006089C1000087C1000085C1000083C1000070
S113007081C100007FC100007DC100007BC1000080
S113008079C1000077C1000075C1000073C1000090
S11300906CC700006FC100006DC10000C0C4000047
S11300A069C1000067C100000C94BE0C63C100006C
S11300B061C100005FC100005DC100005BC10000C0
S11300C059C1000057C1000055C1000053C10000D0
S11300D051C100004FC100004DC100004BC10000E0
S11300E049C1000047C1000045C1000043C10000F0
S11300F041C100003FC100003DC100003BC1000000
S113010039C1000037C1000035C1000033C100000F
S113011031C100002FC100002DC100002BC100001F
S113012029C1000027C1000025C1000023C100002F
S113013021C10000BA05B606B606B606B606B6066E
S1130140B606B6063105B606B606B606B606B60651
S1130150B606B6063105B606B606B606B606B60641
S1130160B606B6065605B606B606B606B606B6060C
S1130170B606B606BA05B606B606B606B606B60698
S1130180B606B6065605B606B606B606B606B606EC
S1130190B606B606BA05B606B606B606B606B60678
S11301A0B606B6064706B606B606B606B606B606DA
S11301B0B606B606BF05B606B606B606B606B60653
S11301C0B606B606BA05B606B606B606B606B60648
S11301D0B606B606E805B606B606B606B606B6060A
S11301E0B606B6062006B606B606B606B606B606C1
S11301F0B606B6067B06B606B606B606B606B60656
S1130200B606B6067B06B606B606B606B606B60645
S1130210B606B6067B06B606B606B606B606B60635
S1130220B606B6067B06B606B606B606B606B60625
S1130230B606B6068506B606B606B606B606B6060B
S1130240B606B606AA06B606B606B606B606B606D6
S1130250B606B6068506B606B606B606B606B606EB
S1130260B606B606AA06B606B606B606B606B606B6
S1130270B606B6069E06B606B606B606B606B606B2
S1130280B606B6065006B606B606B606B606B606F0
S1130290B606B6065006B606B606B606B606B606E0
S11302A0B606B6065406B606B606B606B606B606CC
S11302B0B606B6066F06B606B606B606B606B606A1
S11302C0B606B606AA06591EF71DD81F291F7220A6
S11302D035202321972F822F842F862F882F8A2F32
S11302E08C2F8E2F902FE630B8315232EC32863379
S11302F02034BA345435FE35CB36E237F53703387B
S11303001338233837385538443886398939AC3965
S11303108B39AF39B139B339B5398D39363C3F3CB6
S1130320533C493C5D3C673C713C7B3C853C993C7F
S1130330A33C8F3C11241FBECFEFD1E8DEBFCDBF5D
S113034000E00CBF19E0A0E0B2E0E6EAFCEA00E05D
S11303500BBF02C007900D92A63BB107D9F72AE262
S1130360A6EBB9E001C01D92A33BB207E1F73ED66C
S11303700C94515645CEF999FECF92BD81BDF89AA1
S113038080B50895EF92FF920F931F93CF93DF935D
S11303904115510579F08B01040F151FEB017C0108
S11303A0E61AF70AC7018C0F9D1FE5DF8993C01772
S11303B0D107C1F7DF91CF911F910F91FF90EF907B
S11303C00895EF92FF920F931F93CF93DF93CDB7CE
S11303D0DEB761970FB6F894DEBF0FBECDBF4AE219
S11303E050E061E178E280E090E0CCDF8091372852
S11303F090913828A0913928B0913A2881349C46AC
S1130400A546B84709F47BC081E1E7E1F2E0DE01EB
S1130410119601900D928A95E1F70F2EF9E6EF2ED1
S1130420F7E2FF2EF02DF701638D748D8CEF9FE0C2
S11304300E94832801E118E2F80191838083F70187
S1130440658D768D80E090E10E948328F801958384
S11304508483F701618D728D8EEF9FE00E94832863
S1130460F8019383828340E250E060E270E087E128
S113047098E20E942E568BE0EBE0F2E0A7E1B8E2AE
S113048001900D928A95E1F7F80180819181FC0138
S1130490EF2FFF27E295EF7021E030E02C0F3D1F96
S11304A0E20FF31F2081F8012587E92FFF27EF7062
S11304B0FF2721E030E02C0F3D1FE20FF31F2081C6
S11304C0F8012687FC01F295E295EF70EF27FF70A3
S11304D0EF27EF70FF2721E030E02C0F3D1FE20FE4
S11304E0F31F2081F80127878F709927E1E0F0E05E
S11304F0EC0FFD1FE80FF91F8081F801808B6196D6
S11305000FB6F894DEBF0FBECDBFDF91CF911F9120
S11305100F91FF90EF900895CF93DF934AE250E05C
S113052061E178E280E090E02DDF809137289091BE
S11305303828A0913928B0913A2881349C46A546A0
S1130540B84711F1C1E1D8E28FEF9FEF9983888317
S11305509D838C838FE090E09B838A8340E250E00C
S113056060E270E087E198E20E942E568BE0EBE0B7
S1130570F2E0A7E1B8E201900D928A95E1F786E6F0
S11305808D878E878F87888BEBD0DF91CF910895ED
S1130590EF92FF920F931F93CF93DF93CDB7DEB704
S11305A061970FB6F894DEBF0FBECDBF4AE250E0AC
S11305B061E178E280E090E0E5DE80913728909177
S11305C03828A0913928B0913A2881349C46A54610
S11305D0B84709F46CC081E1E7E1F2E0DE0111966D
S11305E001900D928A95E1F7609184277091852797
S11305F08CEF9FE00E9483288C010F2EF1E1EF2EF7
S1130600F8E2FF2EF02DF701918380838FEF9FEFA7
S11306109583848380E190E09383828340E250E079
S113062060E270E087E198E20E942E568BE0EBE0F6
S1130630F2E0A7E1B8E201900D928A95E1F7F801A2
S1130640EF2FFF27E295EF7081E090E08C0F9D1F64
S1130650E80FF91F8081F7018587E12FFF27EF70ED
S1130660FF2781E090E08C0F9D1FE80FF91F808128
S1130670F7018687F801F295E295EF70EF27FF7096
S1130680EF27EF70FF2781E090E08C0F9D1FE80FAC
S1130690F91F8081F70187870F701127E1E0F0E0EF
S11306A0EC0FFD1FE00FF11F8081F701808BD9D083
S11306B061960FB6F894DEBF0FBECDBFDF91CF9128
S11306C01F910F91FF90EF90089529E0883B9207C6
S11306D069F049E35AE0BC0121E04617570739F0B5
S11306E02F5F4F575F4F2431C1F701C020E0FC0159
S11306F0378531110EC030E0F901F695FE2FEE2753
S1130700F795E7952E0F3F1FF901EA54F64F108233
S1130710089530E0F901F695FE2FEE27F795E79559
S1130720E20FF31FEA54F64F4181415041834423C1
S113073019F00C94300D0895F901F695FE2FEE276B
S1130740F795E7952E0F3F1FF901EA54F64F1082F3
S11307500895FC016185878190850C94A9220895F0
S1130760CF93DF93C1E1D8E2888199810E94EA0C9A
S11307708C819D810E94F10C8A810E94511981E033
S11307800E944D1988E292E00E94B51569EA73E06F
S113079081E00E94F80CA6EBB9E0E1ECF9E065ED2C
S11307A073E181E093E045E653E01C9218961C92B5
S11307B01E921797EF01229788832196888390834E
S11307C09F01285F3F4F3283218355834483AF5772
S11307D0BF4FEF57FF4FE617F70739F70E9447213E
S11307E0DF91CF9108958091B609882359F0E7E30A
S11307F0FAE06AEC73E181E090E0AC012081211120
S113080018C002C040E050E0FA01F695FE2FEE2732
S1130810F795E7954E0F5F1FFA01EA54F64F81E012
S11308208083DF01A058BF4F1C9281838E2F9F2F9E
S113083008950196EF57FF4FE617F707F1F680E0AA
S113084090E00895FC01E058FF4F2081222331F00D
S1130850FC01268702960C94300D0895FC01108249
S11308600895CF93DF93C1E1D8E2888199810E94F2
S1130870EA0C8C819D810E94F10C8A810E9451199D
S113088081E00E944D1988E292E00E94B51569EA60
S113089073E081E00E94F80CA6EBB9E0E1ECF9E02A
S11308A065ED73E181E097E045E653E01C9218960C
S11308B01C921E921797EF012297888321968883B2
S11308C090839F01285F3F4F328321835583448364
S11308D0AF57BF4FEF57FF4FE617F70739F7DF91D1
S11308E0CF910895CF93DF9370E09C01260F371FBB
S11308F0F9013297C081D0E0DC2FCC2731962081DA
S1130900C22B6250710926E030E049E352E00E94B4
S11309101E5521E0C817D90709F020E0822FDF9186
S1130920CF91089581E08093D9131092CB1380E97D
S11309308093BC0008956115710529F18091CB1352
S1130940811123C0E3EDF3E171836083138212828A
S11309501582148281E08093CB13FB0184819581FD
S1130960892B21F484E08093D91303C082E080931F
S1130970D91385EA8093BC008091CB138111FCCFFD
S11309808091DA13089588EF089580E808957093AC
S1130990D4136093D3136115710541F1FB01808574
S11309A09185892B29F18091CB13811123C0E3ED2B
S11309B0F3E1138212821582148281E08093CB13B7
S11309C0FB0184819581892B21F485E08093D913DF
S11309D003C083E08093D91385EA8093BC0080919F
S11309E0CB138111FCCF8091DA13089588EF089519
S11309F088EF089580E80895F894ECEBF0E0108215
S1130A001092B900DB0114968C918093B800808118
S1130A108160808378941092CA1380E008951F92B5
S1130A200F920FB60F9211240BB60F922F933F9390
S1130A304F935F936F937F938F939F93AF93BF93E2
S1130A40EF93FF938091B900887F90E0893C9105F2
S1130A5008F08CC1FC018827E656FF4F8F4F0C9499
S1130A6082558091D9139EEF980F933060F4E091F2
S1130A70D313F091D41380818E7F8093BB0085E8DB
S1130A808093BC008BC1853061F4E091D313F09165
S1130A90D413808181608093BB0085E88093BC007F
S1130AA07DC140DF8BEF8093DA1378C18091D91335
S1130AB0843051F5E3EDF3E1848195810190F08177
S1130AC0E02D208531858217930798F4268137819C
S1130AD0AC014F5F5F4F5093D8134093D713F90184
S1130AE0E80FF91F80818093BB0085E88093BC00E8
S1130AF055C184E98093BC00E3EDF3E181E0868392
S1130B0017821092CB134AC19EEF980F923038F59A
S1130B10E3EDF3E182819381A081B181A80FB91F34
S1130B2011962C910196938382832093BB0025E830
S1130B302093BC000190F081E02D24813581281799
S1130B40390709F02BC18091D913823021F484E054
S1130B508093D91323C185E08093D9131FC18530B5
S1130B6021F485EA8093BC0019C1DCDE8BEF80930D
S1130B70DA1314C1D7DE8FEF8093DA130FC180919B
S1130B80D913853001F5E3EDF3E1A081B181189625
S1130B908D919C91199701972481358128173907E4
S1130BA049F4ECEBF0E080818F7B80838081856861
S1130BB08083F4C0ECEBF0E08081806480838081EA
S1130BC085688083EBC0AEDE8BEF8093DA13E6C0DA
S1130BD02091BB008091D913853069F5E3EDF3E1F1
S1130BE0A081B18116966D917C911797848195812E
S1130BF0AC014F5F5F4F55834483FB01E80FF91F3E
S1130C00208318968D919C9119970197481759073D
S1130C1048F4ECEBF0E08081806480838081856817
S1130C208083BCC0ECEBF0E080818F7B808380818B
S1130C3085688083B3C076DE8BEF8093DA13AEC011
S1130C402091BB008091D9138530E1F4E3EDF3E109
S1130C50A081B18116964D915C91179784819581FD
S1130C60BC016F5F7F4F75836483DA01A80FB91FDE
S1130C702C9384E98093BC0081E0868317821092D0
S1130C80CB138CC04FDE8BEF8093DA1387C0E3ED78
S1130C90F3E181E0868386EF87831092CB137EC0D5
S1130CA01092CF131092CE13ECECF3E1A081B1813A
S1130CB012962D913C91139782819381AC014F5FE1
S1130CC05F4F53834283D901A80FB91F8C9180933E
S1130CD0BB0085EC8093BC0088E084835FC0ECECAF
S1130CE0F3E181E0848382E090E09683858385EC60
S1130CF08093BC0053C0ECECF3E11382128285ECC8
S1130D008093BC0088E0848349C02091BB00ECEC54
S1130D10F3E1A081B1814D915C9182819381BC0109
S1130D206F5F7F4F73836283DA01A80FB91F2C931F
S1130D3085EC8093BC0088E0848330C0ECECF3E164
S1130D4081E0848383E090E09683858385EC8093BF
S1130D50BC0024C0ECECF3E181E0848380E980935F
S1130D60BC008FEF9FEF9683858318C08091CA13D0
S1130D70811109C0E3EDF3E181E086838BEF878382
S1130D801092CB130BC0ECECF3E18EEF9FEF968344
S1130D90858381E0848385EC8093BC00FF91EF918F
S1130DA0BF91AF919F918F917F916F915F914F917F
S1130DB03F912F910F900BBE0F900FBE0F901F907D
S1130DC018950F931F93CF93DF938C01D62FCAE00E
S1130DD00AC081E090E00E949F28C15021F482E083
S1130DE00E942D3F04C0F801908195FFF2CFF801D5
S1130DF0D68380E0DF91CF911F910F9108958F9258
S1130E009F92AF92BF92CF92DF92EF92FF920F9395
S1130E101F93CF93DF93EC016A017B01B901A80111
S1130E20689412F876956795579547951694D1F777
S1130E30D901C801072E73E1B695A79597958795B3
S1130E407A95D1F7702DE881E1FF0BC04A015B016F
S1130E50B694A79497948794B695A79597958795F4
S1130E6002C04A015B018C149D04AE04BF0478F1F6
S1130E70C816D906EA06FB0660F1888181FF10C016
S1130E80CC0CDD1CEE1CFF1CCB01BA01A7019601A2
S1130E900E946055DA01C9010197A109B10913C083
S1130EA0C901B801689413F8969587957795679565
S1130EB01694D1F7A70196010E946055DA01C90181
S1130EC00197A109B1099D838C8381E003C080E06F
S1130ED001C080E0DF91CF911F910F91FF90EF90BF
S1130EE0DF90CF90BF90AF909F908F9008950F9315
S1130EF01F93CF93DF93EC01FB018A818F738A8365
S1130F002681358184819A81482F4370440F997FCB
S1130F10942B9A8399818470880F880F9B7F892BE7
S1130F2089838A818F7C832B8A838A81922F990F6C
S1130F30990F990F877F892B8A8340815181628120
S1130F40738100E012E12AE730E0CE0158DF998195
S1130F509860998399819061998399819068998324
S1130F60DF91CF911F910F9108951F920F920FB6A9
S1130F700F9211240BB60F922F933F934F935F93CD
S1130F806F937F938F939F93AF93BF93EF93FF934D
S1130F908091CE000E94192FFF91EF91BF91AF91E4
S1130FA09F918F917F916F915F914F913F912F917D
S1130FB00F900BBE0F900FBE0F901F90189580914D
S1130FC09127813021F48093F82780939227089504
S1130FD0F894A89599E288E10FB6F894A8958093BF
S1130FE060000FBE90936000789408950E949B1A4D
S1130FF00E943E28E6D9B4DBEBEDF3E180E197E211
S1131000A0E0B0E086839783A087B18781E08287E0
S11310108FED97E094878387CF010E946C1B0E9419
S1131020AE1C0E945D278091652890E00E941C28D8
S1131030CFDF86E080934D010E94A41A0E94A5226E
S1131040FBCF1F920F920FB60F9211240BB60F9283
S11310502F933F934F935F936F937F938F939F93BC
S1131060AF93BF93EF93FF93E091FA13F091FB13C7
S1131070309709F01995FF91EF91BF91AF919F912E
S11310808F917F916F915F914F913F912F910F902D
S11310900BBE0F900FBE0F901F9018951F920F92CA
S11310A00FB60F9211240BB60F922F933F934F93C9
S11310B05F936F937F938F939F93AF93BF93EF93BC
S11310C0FF93E091F813F091F913309709F0199513
S11310D0FF91EF91BF91AF919F918F917F916F910C
S11310E05F914F913F912F910F900BBE0F900FBEC8
S11310F00F901F9018951F920F920FB60F92112404
S11311000BB60F922F933F934F935F936F937F93FD
S11311108F939F93AF93BF93EF93FF93E091F61355
S1131120F091F713309709F01995FF91EF91BF9162
S1131130AF919F918F917F916F915F914F913F916B
S11311402F910F900BBE0F900FBE0F901F9018950C
S11311501F920F920FB60F9211240BB60F922F937A
S11311603F934F935F936F937F938F939F93AF932B
S1131170BF93EF93FF93E091F413F091F51330973D
S113118009F01995FF91EF91BF91AF919F918F91C4
S11311907F916F915F914F913F912F910F900BBE73
S11311A00F900FBE0F901F9018951F920F920FB6BD
S11311B00F9211240BB60F922F933F934F935F938B
S11311C06F937F938F939F93AF93BF93EF93FF930B
S11311D0E091F213F091F313309709F01995FF9110
S11311E0EF91BF91AF919F918F917F916F915F919B
S11311F04F913F912F910F900BBE0F900FBE0F9008
S11312001F9018951F920F920FB60F9211240BB6D0
S11312100F922F933F934F935F936F937F938F938B
S11312209F93AF93BF93EF93FF93E091F013F091EB
S1131230F113309709F01995FF91EF91BF91AF9198
S11312409F918F917F916F915F914F913F912F91DA
S11312500F900BBE0F900FBE0F901F9018951F920A
S11312600F920FB60F9211240BB60F922F933F9348
S11312704F935F936F937F938F939F93AF93BF939A
S1131280EF93FF93E091EE13F091EF13309709F091
S11312901995FF91EF91BF91AF919F918F917F919C
S11312A06F915F914F913F912F910F900BBE0F90D3
S11312B00FBE0F901F9018951F920F920FB60F92AA
S11312C011240BB60F922F933F934F935F936F9319
S11312D07F938F939F93AF93BF93EF93FF93E0918B
S11312E0EC13F091ED13309709F01995FF91EF91FC
S11312F0BF91AF919F918F917F916F915F914F912A
S11313003F912F910F900BBE0F900FBE0F901F9027
S113131018951F920F920FB60F9211240BB60F92CD
S11313202F933F934F935F936F937F938F939F93E9
S1131330AF93BF93EF93FF93E091EA13F091EB1314
S1131340309709F01995FF91EF91BF91AF919F915B
S11313508F917F916F915F914F913F912F910F905A
S11313600BBE0F900FBE0F901F9018951F920F92F7
S11313700FB60F9211240BB60F922F933F934F93F6
S11313805F936F937F938F939F93AF93BF93EF93E9
S1131390FF93E091E813F091E913309709F0199560
S11313A0FF91EF91BF91AF919F918F917F916F9139
S11313B05F914F913F912F910F900BBE0F900FBEF5
S11313C00F901F901895803111F4D99A0895D89AE6
S11313D00895803159F4E8E6F0E0808182608083EA
S11313E0ECE6F0E08081816080830895E8E6F0E037
S11313F0808181608083EBE6F0E0208181E090E0F1
S113140002C0880F991F7A95E2F7822B8083089592
S1131410803131F4ECE6F0E080818E7F80830895A2
S1131420EBE6F0E0208181E090E002C0880F991F94
S11314307A95E2F78095822380830895CF92DF9294
S1131440EF926B01E82EE4DF8E2DB60126D18E2DAE
S1131450B601C5D18E2DB601B6DF8E2DB601B9DF2A
S1131460EF90DF90CF900895982F811105C050938D
S1131470FB134093FA130895813029F45093F91320
S11314804093F8130895823029F45093F71340934E
S1131490F6130895833029F45093F5134093F4130D
S11314A00895843029F45093F3134093F21308956C
S11314B0853029F45093F1134093F0130895863046
S11314C029F45093EF134093EE130895873029F4D1
S11314D05093ED134093EC1308958850883028F40A
S11314E05093EB134093EA130895903121F45093F1
S11314F0E9134093E8130895623009F128F4662350
S113150041F0613089F00895633021F1643069F16C
S1131510089525B181E090E002C0880F991F7A9563
S1131520E2F7822B85B908952BB181E090E002C0E7
S1131530880F991F7A95E2F7822B8BB908952EB103
S113154081E090E002C0880F991F7A95E2F7822B20
S11315508EB9089521B381E090E002C0880F991FED
S11315607A95E2F7822B81BB089524B381E090E061
S113157002C0880F991F7A95E2F7822B84BB0895E5
S1131580623019F128F4662341F0613091F0089536
S1131590633039F1643089F1089525B181E090E038
S11315A002C0880F991F7A95E2F78095822385B946
S11315B008952BB181E090E002C0880F991F7A95BD
S11315C0E2F7809582238BB908952EB181E090E0F3
S11315D002C0880F991F7A95E2F7809582238EB90D
S11315E0089521B381E090E002C0880F991F7A9595
S11315F0E2F78095822381BB089524B381E090E0D3
S113160002C0880F991F7A95E2F78095822384BBE4
S11316100895623009F128F4662341F0613089F0BD
S11316200895633021F1643069F1089525B181E0B2
S113163090E002C0880F991F7A95E2F7822785B956
S113164008952BB181E090E002C0880F991F7A952C
S1131650E2F782278BB908952EB181E090E002C0B1
S1131660880F991F7A95E2F782278EB9089521B3DE
S113167081E090E002C0880F991F7A95E2F78227F3
S113168081BB089524B381E090E002C0880F991FC4
S11316907A95E2F7822784BB0895623061F128F4D9
S11316A0662349F06130B9F008956330A1F16430E4
S11316B009F441C0089524B181E090E002C0880F8C
S11316C0991F7A95E2F78095982F922394B995B152
S11316D0892385B908952AB181E090E002C0880F7A
S11316E0991F7A95E2F78095982F92239AB99BB126
S11316F089238BB908952DB181E090E002C0880F51
S1131700991F7A95E2F78095982F92239DB99EB1FF
S113171089238EB9089520B381E090E002C0880F38
S1131720991F7A95E2F78095982F922390BB91B3F5
S1131730892381BB089523B381E090E002C0880F20
S1131740991F7A95E2F78095982F922393BB94B3CF
S1131750892384BB0895623009F128F4662341F09B
S1131760613089F00895633021F1643069F108959E
S113177024B181E090E002C0880F991F7A95E2F7C6
S1131780822B84B908952AB181E090E002C0880FC9
S1131790991F7A95E2F7822B8AB908952DB181E0D9
S11317A090E002C0880F991F7A95E2F7822B8DB9D9
S11317B0089520B381E090E002C0880F991F7A95C4
S11317C0E2F7822B80BB089523B381E090E002C04E
S11317D0880F991F7A95E2F7822B83BB08956230B4
S11317E009F128F4662341F0613089F008956330EB
S11317F021F1643069F1089525B181E090E002C0DF
S1131800880F991F7A95E2F7822B85B908952BB139
S113181081E090E002C0880F991F7A95E2F7822B4D
S11318208BB908952EB181E090E002C0880F991F12
S11318307A95E2F7822B8EB9089521B381E090E086
S113184002C0880F991F7A95E2F7822B81BB089515
S113185024B381E090E002C0880F991F7A95E2F7E3
S1131860822B84BB08956230E9F028F4662341F0AA
S1131870613079F032C06330F1F0643029F12DC069
S113188083B190E002C0959587957A95E2F78170CF
S1131890089589B190E002C0959587957A95E2F70D
S11318A0817008958CB190E002C0959587957A95E2
S11318B0E2F7817008958FB190E002C09595879505
S11318C07A95E2F78170089582B390E002C095950D
S11318D087957A95E2F78170089580E0089514BEA3
S11318E00FB6F894A8958091600088618093600099
S11318F0109260000FBEE1E6F0E080E8808381E0B2
S11319008083789404C0089590E016C008951092DE
S1131910732880E197E29093A9008093A800E1EAFC
S1131920F0E088E08083808182608083E2E7F0E0F9
S113193080818260808308952091A4003091A50065
S1131940820F931FEAEAF0E0918380832081318142
S11319508091A8009091A9008217930750F42091D8
S1131960A8003091A90080819181821B930B9183FF
S1131970808384E089BBCA9BFECF08951F920F9297
S11319800FB60F9211248F93809173288F5F8093E9
S113199073288F910F900FBE0F901F901895E4E756
S11319A0F8E2148215821182108217AA16AAEAE7B5
S11319B0F8E28AE998E211921192E817F907D9F747
S11319C00E945B1722D61CD146D09ED10E94AE1530
S11319D0AEC4089590937528809374280C94671965
S11319E0089590937728809376280C945519089538
S11319F0E82FF0E0EE0FFF1FE658F74D7183608388
S1131A00089555D60E946D184FD00C940B16089566
S1131A10E091FC13F091FD133097D9F022813381CA
S1131A202817390789F405C022813381281739071B
S1131A3059F4DC01AD57BF4F2C91278713962C9195
S1131A40208B22E0248305C00190F081E02D3097A3
S1131A5059F71AC108951092FD131092FC130895BA
S1131A60FC011482178613821282A4E7B8E2D69688
S1131A708D919C91D7970196D7969C938E93D697E8
S1131A808091FC139091FD13009739F41182108218
S1131A90F093FD13E093FC13089591838083F093F6
S1131AA0FD13E093FC1308950F931F93CF93DF93DB
S1131AB0E091FC13F091FD13309709F49CC0EF0101
S1131AC08C81882321F0823009F46FC08EC0A3D0AA
S1131AD08C01009721F482E08C838F878CC09B83D8
S1131AE08A8381E08C83F801E957FF4F88E09DE009
S1131AF0918380833197898582FB882780F980834D
S1131B009985D8011B968C911B9790FB80F91B96A5
S1131B108C931B97998593FB992790F990FB82F9F5
S1131B201B968C931B9799859695917090FB81F9E0
S1131B301B968C931B97E4E7F8E284818F5F848380
S1131B401C968C931C97808191811E969C938E93F6
S1131B501D978D819E8150969C938E931F978885A7
S1131B60982F9F7051968C915197807F892B519615
S1131B708C9351979F819295907F8F70892B51966A
S1131B808C93F801EF57FF4F4C8550E06A857B85B5
S1131B90808191810E942556F80191818C85890F5D
S1131BA08183C8010E947E1726C0CE17DF0741F447
S1131BB0888199819093FD138093FC130AC0FC01E2
S1131BC080819181C817D907D1F788819981918340
S1131BD08083E4E7F8E286A997A9019797AB86ABDF
S1131BE0ED85FE85CE01199506C00990D881C02DDA
S1131BF0209709F065CFDF91CF911F910F91089540
S1131C00EEEFF3E182EB9EE11082E757FF4FE81716
S1131C10F907D1F708958091FE13882359F0E7E876
S1131C20F4E142EB5EE181E090E0BC01208121110E
S1131C3022C002C060E070E049E8469F9001479FDF
S1131C40300D1124C90182509C4EFC0111924A9519
S1131C50E9F740E1FC014183EF57FF4F205F3B4E22
S1131C6031832083E4E7F8E226A937A92F5F3F4FA9
S1131C7037AB26AB08950196E757FF4FE417F507F6
S1131C80A1F680E090E00895FC011082E4E7F8E218
S1131C9086A997A9019797AB86AB0895009741F061
S1131CA0FC01E757FF4F8EE1E23BF80718F015C03F
S1131CB0EEEFF3E18081882339F003C0808188232B
S1131CC019F08E2F9F2F0895E757FF4F8EE1E23BC7
S1131CD0F807A0F380E090E0089580E090E0089594
S1131CE0FC01DC01AD57BF4F1C92A4E7B8E2149687
S1131CF09C9114979F5F14969C93149794878D914D
S1131D009C91968785870895A7EBBEE180E090E0DB
S1131D104FEF5FEFFD01349751834083FC01EE0FD9
S1131D20FF1FEE0FFF1FEE0FFF1FE81BF90BEE5412
S1131D30F14E20812E7F20831C92019617968F3FAF
S1131D40910541F708950F931F93CF93DF93E3EB2E
S1131D50FEE120E030E0062F10E040815181481779
S1131D605907B1F4D901AA0FBB1FAA0FBB1FAA0FB1
S1131D70BB1FA21BB30BAE54B14E4C9146954170A0
S1131D80C42F40E0D42FC017D10711F4CD0108C0EF
S1131D902F5F3F4F37962F3F3105F9F680E090E0F3
S1131DA0DF91CF911F910F910895CF93DF93E7EBCC
S1131DB0FEE120EB35E2C0E0D0E0DF0115978C9125
S1131DC080FD0BC08081882369F0209729F09D81D4
S1131DD0891718F4ED0101C0ED013796E217F307F6
S1131DE061F7DE018C918D7080638C9380E8159689
S1131DF08C931597CD01DF91CF910895FC018081DB
S1131E0080FD05C08FEF9FEF928381831582089533
S1131E109ADF009721F0FC018381948108958FEF6C
S1131E209FEF0895EF92FF920F931F93CF93DF9349
S1131E308C01C62F7A01D22F86DFFC01892B11F485
S1131E40B4DFFC0112830183F482E3828081C0FB4E
S1131E5081F98F708063808380E88583D683DF91E6
S1131E60CF911F910F91FF90EF9008956CDF009731
S1131E7009F0C4CF08950895CF93DF93FC018785BB
S1131E8090898F3F2FEF9207D9F1EF01638563FBB0
S1131E90662760F958DFDC01892B91F18C9180FD74
S1131EA02FC0FE01ED57FF4F8081811119C08C9125
S1131EB08F7080638C9315968C9115978F5F159610
S1131EC08C938F3FE9F4E7EBFEE120EB35E2808170
S1131ED086958F5F80833796E217F307C1F710C0AA
S1131EE09C91892F82958F70815F8F70282F229506
S1131EF0207F9F70922B9C93811102C0CD017EDFC5
S1131F00DF91CF910895CF93DF93FC01878590896A
S1131F108F3F2FEF920729F48FEF9FEF90878783EE
S1131F2012C0238522FF03C0908787830CC0EF0172
S1131F30638563FB662760F96BDF98878F8301965F
S1131F4011F4CE0110D2DF91CF910895AF92BF92D8
S1131F50CF92DF92EF92FF921F93CF93DF93EC0126
S1131F601B8513FB112710F9CF84D888612FC60174
S1131F704FDF019659F0FE01E957FF4F118210829D
S1131F80319782E08083CE01B9D722C0AD84BE846C
S1131F9042DE7C010097D1F0A3DEF70181818A5FE4
S1131FA08183E957FF4F11821082F701B08AA78617
S1131FB0EF57FF4F0190F081E02D81E08083B282E2
S1131FC0A182D482C3821583C70198D7CE015CDE77
S1131FD0DF91CF911F91FF90EF90DF90CF90BF9052
S1131FE0AF900895DC011796ED91FC91189719961E
S1131FF08C91863031F465818381948137DF81E06F
S1132000089580E00895CF92DF92EF92FF920F93AC
S11320101F93CF93DF93E8EBF5E2ACEBB5E20FEE61
S113202015E220E030E06901C185D285CD2BB1F005
S1132030C081D181C817D90789F4E280F380E616FC
S1132040F70661F45C91541309C02BE02C9DC00188
S11320502D9D900D112488549A4D09C02F5F3F4F38
S11320603B961B96E017F107F1F680E090E0DF91D4
S1132070CF911F910F91FF90EF90DF90CF90089533
S1132080CF93DF938091C1259091C225892B51F084
S1132090ECECF5E281E090E0AC0120813181232B6E
S11320A071F402C040E050E08BE0849FE001859F22
S11320B0D00D1124C854DA4D209749F41AC0019662
S11320C03B968530910541F7C0E0D0E012C08BE02B
S11320D0849FF001859FF00D1124E854FA4D178276
S11320E0108688EE93E0928781878BEA95E20E94BE
S11320F06C1BCE01DF91CF9108952F923F924F92A6
S11321005F926F927F928F929F92AF92BF92CF9283
S1132110DF92EF92FF920F931F93CF93DF9300D040
S1132120CDB7DEB73C0188EB95E29B838A830F2E03
S1132130F0EC8F2EF5E29F2EF02D0F2EFFEEEF2EFA
S1132140F5E2FF2EF02D312C0F2EF4E7AF2EF8E23E
S1132150BF2EF02D22242394CA80DB80F6018185D2
S113216092858536910530F084569109928781874E
S1132170322C39C0EA81FB8112861186208131819B
S1132180F501808191812817390769F5F401F081FF
S1132190F98300E010E0240184E0481A51081EC0CD
S11321A0F80180818034D1F4F60122813381F80171
S11321B0878590892817390789F4838583FB8827C5
S11321C080F9F2019081981309C0F981FF2319F075
S11321D0C80194D603C061E1C80151D7C8015EDDCE
S11321E08C01892BE9F68A819B810B969B838A83D8
S11321F09BE0890E911CEA81FB81EE15FF0509F035
S1132200ABCF332019F0C3010E946C1B0F900F90C9
S11322100F90DF91CF911F910F91FF90EF90DF907E
S1132220CF90BF90AF909F908F907F906F905F9072
S11322304F903F902F900895FF920F931F93CF9349
S1132240DF938C01F62EE7DCEC01009751F148DDB9
S11322508981895F8983FE01E957FF4F11821082CA
S11322608B8584608B878FEF9FEF988B8F87369752
S11322700190F081E02D82E08083D8018D919C91C2
S113228011979283818312968D919C9113979483D5
S1132290838314968C918583F682CE012FD681E0B8
S11322A001C080E0DF91CF911F910F91FF900895BD
S11322B0EF92FF920F931F93CF93DF938C01E62E3F
S11322C0F42EA9DCEC01009759F10ADD8981885FBD
S11322D08983FE01E957FF4F11821082319784E010
S11322E08083D80115968D919C911697988B8F8732
S11322F035970190F081E02D83E080838D919C914E
S113230011979283818312968D919C911397948354
S1132310838314968C918583E682F782CE01EED571
S1132320DF91CF911F910F91FF90EF900895E8EB0B
S1132330F5E212861186158A148A10A2178E13A646
S113234012A616AA15AAEBEAF5E284E690E0A0E04C
S1132350B0E086839783A087B18712868DE790E1EA
S1132360948783870895CF93DF93EC014B8543FBD8
S1132370442740F96F857889809174289091752855
S113238042DE892B19F080E4888321C079DE00972E
S1132390D9F02091742830917528FC013183208371
S11323A02F853889338322832B8523FB222720F929
S11323B024832FEF3FEF368325836FEF3DDF8823A0
S11323C019F080E4888303C061E1CE0158D6DF911F
S11323D0CF910895AF92BF92CF92DF92EF92FF9286
S11323E00F931F93CF93DF93FC01C781D085818521
S11323F0873009F055C04D8141115EC06B817C81ED
S1132400209174283091752889819A812817390779
S113241009F448C06217730729F033230CF444C04D
S1132420B12C02C0BB24B3948F01C2842E81C29EFE
S1132430600111246B817C81E6DD7C01009729F029
S1132440FC0187818D1528F031C01ADE7C01892BAF
S113245079F189819A81F701918380838B819C81B1
S1132460938382838D818483F80180819181F70134
S113247096838583D782BB2071F0F8014081518116
S11324802D2D60E089819A81CDDC4FEF6D2DC70140
S11324900FDF81E01CC06D2DC701CEDE81E017C0C7
S11324A080E015C081E013C081E011C081E00FC05D
S11324B081E00DC081E00BC089819A81209174284C
S11324C0309175288217930709F0A7CFF3CFDF91D6
S11324D0CF911F910F91FF90EF90DF90CF90BF901D
S11324E0AF900895CF92DF92EF92FF920F931F93D4
S11324F0CF93DF93FC01C781D0852185283009F073
S113250040C08C016B817C814D8189819A817BDD06
S11325107C01F801C2848F81E114F104A1F19E8150
S1132520F7012085291788F5908749815A812091E0
S11325307428309175284217530751F4F8014081EB
S113254051812E816D818B819C816CDC81E01EC068
S11325508C9D60011124F801408151812D2D6D81E4
S11325608B819C815FDCF70145815681278160E086
S113257089819A8157DC4D2D6E81C70199DE81E0F6
S113258005C080E003C081E001C081E0DF91CF910C
S11325901F910F91FF90EF90DF90CF900895DC0191
S11325A019962C9119972223A9F01796ED91FC9175
S11325B018972081213041F028F0223039F023305F
S11325C039F00AC037C508950DCD089503CF089595
S11325D089CF089580E0089580E00895BC01E1E08A
S11325E0F6E223E336E240E051E09081992319F0CA
S11325F091509083452F3596E217F307B1F74423A2
S113260019F0CB010C946C1B0895E1E0F6E283E32E
S113261096E210823596E817F907D9F7EFEEF5E25E
S113262084E690E0A0E0B0E086839783A087B1873A
S113263012868EEE92E1948783876FEC72E180E0DC
S1132640D7C90895CF93DF93DC01ED91FC911197E5
S113265021812838F9F420812F7D2134D9F4129670
S11326602C912031B8F0EC01D6DA009799F020E2F1
S1132670FC0120832A8121832B81ED57FF4F208386
S11326802C81319620834A8150E0688179810296B9
S11326900E942556DF91CF910895662321F022E20E
S11326A0FC012083089524E2FC01208308952F92E5
S11326B03F924F925F926F927F928F929F92AF92CE
S11326C0BF92CF92DF92EF92FF920F931F93CF931B
S11326D0DF93CDB7DEB72E970FB6F894DEBF0FBEEB
S11326E0CDBF00E010E00F2EF4E2DF2EF02D0F2E10
S11326F0F4E78F2EF8E29F2EF02DCC24C3940F2EF6
S1132700F1E04F2EF6E25F2EF02D0F2EFDEF6F2E2F
S1132710F5E27F2EF02D0F2EFFE2EF2EF6E2FF2ED4
S1132720F02D312C212C5801F2C1D5018C9182322B
S113273009F41DC130F4803259F0813209F413C117
S1132740E6C1833209F4DEC1843209F4DEC1DFC19B
S1132750F501D082838583FDDAC1258136812F3F3F
S11327603F4FC9F4D5011F962D913C915097F40128
S1132770408151814217530721F02F3F3F4F09F009
S1132780C6C181FF04C081E2D5018C93C0C122E29D
S1132790F5012083BCC1D5011F962D913C91509722
S11327A02F3F3F4F11F480FDB2C1F40120813181EC
S11327B0D5011D968D919C911E972817390709F410
S11327C0A6C1C50158DBF301432D522D632D722D93
S11327D05E864D868A01AD85BE858C91882309F479
S11327E06DC0D5011D962D913C911E9780819181DC
S11327F02817390709F063C0F5019485FA01EE0F33
S1132800FF1FEE0FFF1FE40FF51FE350FA4D828107
S1132810891B8830C8F5FA01EE0FFF1FEE0FFF1F6A
S1132820E40FF51FE350FA4D9381292F30E0082E71
S113283002C0359527950A94E2F720FF12C0D4010F
S11328402D913C91F501878190852817390709F06E
S11328505EC1638563FB662760F98785908906DB23
S113286056C1FA01EE0FFF1FEE0FFF1FE40FF51F15
S1132870E350FA4D21E030E002C0220F331F8A9565
S1132880E2F7922B93834AC1FA01EE0FFF1FEE0F7A
S1132890FF1F0E0F1F1FF801E350FA4D928323818F
S11328A030E08195A90102C0440F551F8A95E2F7D3
S11328B0CA01816083838FE1848330C1BF014F5F8C
S11328C05F4F8D859E8505969E878D873596EE157F
S11328D0FF0509F07FCF6115710509F418C1D50111
S11328E01D968D919C911E97FB01918380831C966C
S11328F08C918283C3828FE184838FEE95E2ECD640
S11329000DC1D4012D913C91F5018785908928173B
S1132910390781F0438542FD0BC0C50145D3D4017D
S11329202D913C91F501878590892817390711F07D
S1132930019669F4D5011B968C911B9781FF03C006
S113294081E28C93E4C022E2F5012083E0C0D5014A
S113295017968D919C9118972817390709F0D7C0BD
S113296083E28C93D4C060E0C50108D1D0C010923A
S1132970FC25F501218922952F70E22FF0E0EE0F5E
S1132980FF1FE658F74D0190F081E02D309709F4D0
S113299062C0D5011D968D919C911E979A8389835F
S11329A01F964D915C9150975C834B8351963C915B
S11329B051973F703D832E83AF57BF4F6D917C91EC
S11329C07987688795012E5F3F4F261B370BD5010A
S11329D011963C911197230F2A87AD57BF4F2C9125
S11329E02B8711962C912C87D5011B963C91632F34
S11329F0637032FD02C020E001C020E2262B33FDCB
S1132A0002C030E001C030E4232B4F3F5F4F11F090
S1132A1030E001C034E0232BD50119964D915C912F
S1132A201A978417950711F090E001C098E0822F5F
S1132A30892B8F83D50115962D913C9116972F3FA5
S1132A403F4F11F090E001C090E1892B8F83CE01BC
S1132A500196199501C080E0F501938590FF80E00F
S1132A60D50117962D913C9118972F3F3F4F69F44C
S1132A70F40140815181D5011F962D913C915097CD
S1132A804217530711F493FF8C2DF50125813681EC
S1132A902F3F3F4FA1F1D4012D913C912F3F3F4F48
S1132AA071F1882361F1B7D88C01009741F118D9ED
S1132AB0F80181818D5F8183E957FF4F1182108274
S1132AC0D5011B968C911B9786958170F80193858F
S1132AD080FB91F993871D968D919C911E97908B05
S1132AE08787EF57FF4F0190F081E02D108280918E
S1132AF0FC2582831C968C918183C801FFD1D5016A
S1132B00DC9205C0C50122DA02C0C501BDD8C501E9
S1132B10C5D85C01892B09F008CE07C0F50187816F
S1132B209085019609F0FBCEECCE2E960FB6F89464
S1132B30DEBF0FBECDBFDF91CF911F910F91FF90EC
S1132B40EF90DF90CF90BF90AF909F908F907F9049
S1132B506F905F904F903F902F900895109244266D
S1132B6010924326109242260895FC0190E1AAE9AE
S1132B70B8E201900D929A95E1F70895662321F049
S1132B8020E3FC01208303C021E3FC012083809126
S1132B9044268F5F809344260895CF93DF93C0919A
S1132BA04226D0914326FE01EF57FF4FA081B18109
S1132BB070914026872F90E060914126262F613145
S1132BC008F020E12223B9F030913F264FE256E28B
S1132BD0A80FB91FFA0190818C9189278D93332313
S1132BE011F0808303C090818927808331968E2FD2
S1132BF0841B821780F3720F70934026621B6093CC
S1132C004126662319F082E3888302C084E3888323
S1132C10DF91CF9108950F931F93CF93DF9380910A
S1132C204426882309F4E2C0E0914226F091432629
S1132C30309709F4D4C08081843309F054C0809162
S1132C404026DF01AF57BF4FCD91DC91C80FD11D96
S1132C50AFE2B6E214960D911D912D913C91179718
S1132C604D915D916D917C91139740275127622777
S1132C70732718960D911D912D913C911B97402718
S1132C805127622773271C968D919D910D90BC91BD
S1132C90A02D482759276A277B2780913F26882320
S1132CA051F0488359836A837B8381818C5F81835C
S1132CB0CF01ECD10EC081E0088119812A813B81CA
S1132CC0401751076207730709F080E0682FCF01AE
S1132CD0E4DC1092432610924226809144268150CF
S1132CE08093442683C0823309F080C083E38083C9
S1132CF06AE978E28FE296E22CD478C0DC012C9168
S1132D002053223008F06DC09093432680934226CE
S1132D10EFE2F6E21C964C911C9750E060E070E004
S1132D2040835183628373831F964D915C915097C6
S1132D3060E070E0BA015527442751962C915197D1
S1132D4022952F70422B44835583668377831D9687
S1132D504D915C911E9760E070E0BA0155274427BD
S1132D6051962C9151972F70422B4087518762873F
S1132D7073871B962C911B9715964D915C91169712
S1132D8060E070E0BA0155274427422B44875587F9
S1132D90668777872C91213331F411962C91119702
S1132DA0245011962C93FC01EF57FF4F4081518121
S1132DB09C012E5F3F4F241B350BFC013181230FF7
S1132DC0209341261092402621E03081303309F0CF
S1132DD020E020933F2622E3DC012C9307C080E00F
S1132DE090E00E944E0E009709F088CFDF91CF91BA
S1132DF01F910F910895EF92FF920F931F93CF931A
S1132E007C0110E080E090E001E0C3E113C0FC012C
S1132E102081213179F4EC57FF4F208131812150F9
S1132E20310931832083232B21F4FC01C083102F2B
S1132E3001C0102F0E944E0E009749F7112311F084
S1132E40C7014AD4CF911F910F91FF90EF9008953D
S1132E50EF92FF920F931F93CF93DF937C0110E0C7
S1132E6080E090E001E0D7E1C0E116C0FC012081E0
S1132E70263191F4EC57FF4F2081318121503109E3
S1132E8031832083232B39F4FC01D083ED57FF4F8A
S1132E90C083102F01C0102F0E944E0E009731F7EF
S1132EA0112311F0C70118D4DF91CF911F910F9115
S1132EB0FF90EF9008951092602610925F26E2E54D
S1132EC0F6E282E390E0A0E0B0E086839783A087F7
S1132ED0B187128688E297E194878387E5E4F6E276
S1132EE08AE090E0A0E0B0E086839783A087B18772
S1132EF012868BEF96E1948783870895CF93DF93AF
S1132F00EC01FC01EA57FF4F808181FF03C092E18D
S1132F10988308C09B8591FF03C090E1988302C009
S1132F2092E19883FE01ED57FF4F108280FF05C0A8
S1132F302FEF3FEF3E832D8306C0209176283091FA
S1132F4077283E832D83857021F4CE010E94830F60
S1132F5004C08F85988998878F83E4E7F8E280819D
S1132F6091819A87898785818F5F85838C838F81FF
S1132F709885019671F481E498E89B838A830E9482
S1132F800A56CC57DF4F8770992701969983888317
S1132F9008C081E698E89B838A83CC57DF4F198267
S1132FA01882DF91CF9108950F931F93CF93DF93EE
S1132FB08C010E940B0EEC01892BB9F182E188830C
S1132FC0F80181818983FE01ED57FF4F10820E9431
S1132FD00A56FE01EC57FF4F87709927019691839B
S1132FE08083339611821082F801418150E0B80148
S1132FF06E5F7F4FCE0102960E94255681E498E8C9
S11330009B838A838FEF9FEF98878F83F801858155
S113301096819E838D83E4E7F8E2808191819A878B
S1133020898785818F5F85838C83DF91CF911F9101
S11330300F910895CF93DF93FC01C781D0858185DB
S11330408330C9F480E090E010C0FC012081263177
S113305061F434852981321308C027E120832A8151
S1133060EA57FF4F208381E007C00E944E0E00976D
S113307061F780E001C080E0DF91CF91089527E1FE
S1133080FC012083ED57FF4F6083089522E1FC018A
S113309020830895E0915F26F0916026813021F02D
S11330A048F0823019F004C080E205C081E203C018
S11330B081E001C080E0DF01AD57BF4F8C9385E113
S11330C080831092602610925F26E4E7F8E286A9D6
S11330D097A9019797AB86AB08959F92AF92BF9241
S11330E0CF92DF92EF92FF920F931F93CF93DF93D0
S11330F0C0E0D0E00F2EF4E1AF2EF02D04E718E28B
S11331000F2EF7E1DF2EF02D0F2EF6E19F2EF02D7E
S11331100F2EF5E1EF2EF12CF02D0F2EF3E1CF2E33
S1133120F02D0F2EF1E1BF2EF02D68C08881833180
S1133130F1F028F4803149F0823159F05FC08531D3
S113314069F1873109F449C059C061E0CE0116DD47
S113315055C0FE01EC57FF4F80819181892B29F0E6
S1133160B88285E496E2B8D249C0C88247C080914B
S11331705F2690916026892B09F040C0D093602689
S1133180C0935F26A8826981CE010296B2D0F8016D
S113319086A997A9019697AB86AB30C0FE01ED577F
S11331A0FF4F8081811117C02D853E85F8018081F4
S11331B091812817390769F48B8580FF0AC09882AA
S11331C0FE01EC57FF4FF182E08282E596E284D261
S11331D015C0D88213C0D88211C0CE010E943C0F02
S11331E0FE01E957FF4F0190F081E02D309721F463
S11331F0CE010E94440E02C0CE011995CE010E9458
S11332004E0EEC01892B09F091CFDF91CF911F91E4
S11332100F91FF90EF90DF90CF90BF90AF909F9071
S1133220089580916126982F9F70E4E5F1E08081F4
S1133230807F892B808380916126882329F0809167
S1133240622680935301089580916226982F9F717E
S1133250E8E4F1E08081807E892B8083089593E007
S113326090934201E1E4F1E090819F719830E1F79D
S113327080934201E1E4F1E090819F719813FCCFC7
S1133280089588E0ECDF8FEF80934F0180916326EF
S1133290882311F086E1E3CF089580936326F1CF6C
S11332A0089580936226BDCF0895CF93DF931F9234
S11332B01F92CDB7DEB79A838983809362018A8196
S11332C0809363010F900F90DF91CF910895CF9376
S11332D0DF931F921F92CDB7DEB79A8389838093C1
S11332E060018A81809361010F900F90DF91CF91EB
S11332F008950F931F93CF938C01C62F89E1AFDFFD
S11333008FEF80934F0182E08C0F80938001CC2358
S113331081F0F801C1502C2F30E02F5F3F4FC801DE
S1133320820F931FA1E8B1E021912D93E817F907CB
S1133330D9F783E08093E42682E080934201CF9121
S11333401F910F910895EF92FF920F931F93CF93C4
S1133350DF931092560186E082DFC0E0D0E0E12CDA
S1133360F12C06E411E081E00E94840CF801208134
S1133370229526952770237030E00C2E02C0220F70
S1133380331F0A94E2F7E22AF32A2296C031D105C8
S113339051F788E064DF8BEE8093560172DFC7013A
S11333A0DF91CF911F910F91FF90EF900895E9E382
S11333B0F1E08081816080831092632610926126FF
S11333C081E08093E42688E04ADF8BEE8093560107
S11333D0ECE4F1E0808180688083B5DF80936D0147
S11333E00895CF93DF93FB01AB01405F5F4FAFE3E1
S11333F0B1E021912C93E417F507D9F710923C0121
S1133400DC019C01205F3F4FFC01CEE3D1E08191C0
S11334108883E217F307D9F7ECE3F1E08081806851
S11334208083EDE3F1E0808180FFFDCFEEE3F1E006
S113343080818D93A217B307D9F7DF91CF910895B7
S11334401F93CF93DF9300D01F921F92CDB7DEB7A7
S11334508091E426823009F465C080914F0183FF96
S11334603EC0A0917B016A2F70E0AB014F5F5F4FBC
S113347080E090E020E0FC01E058FE4F3081FC0148
S1133480EC59F94D30832F5F822F90E08417950714
S113349094F384E696E29A838983A250AB83FB017A
S11334A0EC59F94D80818C83809147018A558D8335
S11334B0CE010196C7D8E1E4F1E080818F718631B5
S11334C0E1F7EFE4F1E0808188608083ECE4F1E0EF
S11334D080818F77808380818068808323C08091FE
S11334E04F0186FF1FC0809141018F718931A9F47A
S11334F01091420112951695177049F0133021F07E
S1133500153021F013E003C011E001C012E0B9DE70
S113351081E08093E426812FBDDDEFE4F1E080813A
S1133520806480830F900F900F900F900F90DF9125
S1133530CF911F9108950E946F0C72D038DF0E94C2
S1133540CF0C1092450108957BDF0E94010DCFC07E
S1133550089547DF22CB08950F931F93CF93DF93F2
S1133560EC018091E5269091E626009709F445C088
S11335704E815F8168857985FC01028113812481F4
S11335803581401751076207730760F0DC0117C0EB
S11335900281138124813581401751076207730723
S11335A068F403C0FC01A0E0B0E0041B150B260B7B
S11335B0370B02831383248335830AC0DF01401B46
S11335C0510B620B730BED91FC911197309701F73E
S11335D04A835B836C837D83109741F08D919C912A
S11335E0119799838883CD93DC9315C0998388833D
S11335F0D093E626C093E5260EC0198218828E81E8
S11336009F81A885B9858A839B83AC83BD83D0932E
S1133610E626C093E526DF91CF911F910F9108957F
S11336201092E6261092E5260895CF93DF93A09199
S1133630E526B091E626109791F1A817B90751F540
S11336400AC08E179F0729F5109731F02081318128
S11336502D933C9307C0FC01208131813093E626F1
S11336602093E5260190F081E02D3097C1F042814E
S1133670538164817581EC018A819B81AC81BD8118
S1133680840F951FA61FB71F82839383A483B583DA
S113369006C0DF01ED91FC911197309791F6DF910F
S11336A0CF910895E091E526F091E626309771F0E8
S11336B0E817F90721F40CC08E179F0759F0019001
S11336C0F081E02D3097C1F780E0089580E00895FF
S11336D081E0089581E00895CF93DF93EC01E2DF68
S11336E0811102C0CE0138DFDF91CF910895CF92CE
S11336F0DF92EF92FF92CF93DF9380917328882318
S113370009F459C08FB7F894C090732810927328A5
S11337108FBFD12CE12CF12CCC0CDD1CEE1CFF1C3A
S1133720D701C601880F991FAA1FBB1F880F991FB5
S1133730AA1FBB1FC80ED91EEA1EFB1EC091E52698
S1133740D091E6262097B9F18A819B81AC81BD8115
S1133750C816D906EA06FB0610F1C81AD90AEA0AFD
S1133760FB0A888199819093E6268093E5268A85D1
S1133770813011F4CE01F0DEEB85FC85CE01199584
S1133780C091E526D091E6262097A9F08A819B81F5
S1133790AC81BD81C816D906EA06FB06F0F68A811B
S11337A09B81AC81BD818C199D09AE09BF098A83B7
S11337B09B83AC83BD83DF91CF91FF90EF90DF902B
S11337C0CF9008958091D3278F5F8093D327882348
S11337D019F01092D327089581E08093F827089573
S11337E08DEF97E279CF08958091B527813081F4E8
S11337F08EE398E21ADF84E08093BF271092BA2701
S11338001092B9270E948C028FE498E265CF089544
S1133810811110C08EE398E208DF81E08093BF2716
S11338200E94E1010E94B0038FE498E2FEDE86E983
S113383097E2FBCE089587EE96E20C94C63E089577
S113384081E08093912780E492E00C94012F089505
S113385080916427823008F06AC080917B2782308F
S113386049F018F48130C9F149C08530A1F086309F
S113387019F144C06091D4277091D5278091D6273F
S11338800E94C00A6091B2277091B3278091B42737
S11338900E94090B43C06091B2277091B3278091B5
S11338A0B4270E94090B6091D4277091D527809189
S11338B0D6270E94C00A32C06091B2277091B32704
S11338C08091B4270E94090B6091D4277091D52769
S11338D08091D6270E94090B21C06091B227709174
S11338E0B3278091B4270E94090B6091D42770916B
S11338F0D5278091D6270E94C00A10C06091B227B4
S11339007091B3278091B4270E94C00A6091D42794
S11339107091D5278091D6270E94C00A8091642790
S11339208F5F809364278DEF97E2D6DE15C0609198
S1133930B2277091B3278091B4270E94C00A609186
S1133940D4277091D5278091D6270E94C00A10925F
S1133950642787ED97E2C0DEA8950895EF92FF9261
S11339600F931F93CF93DF93EAE0F8E210820F2EB8
S1133970F3E0FF2EF02DF1828BE0828360910A2820
S113398070910B2880910C2848E751E20E94340A78
S113399060910A2870910B2880910C280E941E0ABD
S11339A0E3EAF7E21082C2E0C1838AE08283609195
S11339B0A3277091A4278091A5270E941E0AE6EAF6
S11339C0F7E21082D1E0D18389E082836091A62757
S11339D07091A7278091A8270E941E0AECE4F8E2C0
S11339E01082118288E0828360914C2870914D2866
S11339F080914E280E941E0AE9EFF7E2D083689472
S1133A00EE24E2F8E1826091F9277091FA2780911F
S1133A10FB270E944D0B6091F9277091FA27809142
S1133A20FB270E94EF0BE2EBF7E2C08305E0018382
S1133A306091B2277091B3278091B4270E94AB0B99
S1133A40E4EDF7E2C08317E011836091D42770910D
S1133A50D5278091D6270E94AB0BE6EEF7E2C08310
S1133A60E1826091E6277091E7278091E8270E9420
S1133A70AB0BE6EBF7E2C083F1826091B62770915D
S1133A80B7278091B8270E94AB0B009394276091CD
S1133A90932770919427809195270E94AB0B0F2E4A
S1133AA0F6E0FF2EF02DF09268286091672870915F
S1133AB06828809169280E94AB0B10936E2860914E
S1133AC06D2870916E2880916F280E94AB0BE1E6FF
S1133AD0F8E2C0831182609161287091622880911C
S1133AE063280E944D0B6091612870916228809137
S1133AF063280E94EF0BECE5F8E2C083D183609168
S1133B005C2870915D2880915E280E944D0B609125
S1133B105C2870915D2880915E280E94EF0BEFEA8B
S1133B20F7E2C083C1836091AF277091B027809181
S1133B30B1270E944D0B6091AF277091B0278091FF
S1133B40B1270E94EF0BEDE0F8E2D083018360918E
S1133B500D2870910E2880910F280E944D0B6091C2
S1133B600D2870910E2880910F280E94EF0BE5E636
S1133B70F7E2D083F1826091652770916627809186
S1133B8067270E944D0B609165277091662780918D
S1133B9067270E94EF0BECEBF7E2D083118360916F
S1133BA0BC277091BD278091BE270E944D0B609168
S1133BB0BC277091BD278091BE270E94EF0BDF9137
S1133BC0CF911F910F91FF90EF9008950F93CF9392
S1133BD0DF938091BF2790E08730910508F053C3AD
S1133BE0FC018827ED59FE4F8F4F0C94825510929B
S1133BF0B527C1E0C09391276091932770919427D2
S1133C00809195270E94C00AE9E6F7E21386C38BE8
S1133C1085E0828BC18B84EF91E0A0E0B0E08093DB
S1133C20032890930428A0930528B093062888EECF
S1133C3093E0A0E0B0E08093DD279093DE27A0938B
S1133C40DF27B093E0278081813081F48091FC27C5
S1133C5081110CC06091E6277091E7278091E827D5
S1133C600E94330C811102C01092BF2780917127EA
S1133C70813021F080916C27813011F41092BF279C
S1133C8080916D27813019F485E08093BF2780915E
S1133C907227813019F482E08093BF2780917327C3
S1133CA0813009F0F0C283E08093BF271092EA27A5
S1133CB0EAC28091EA27813031F48091EA278F5F4C
S1133CC08093EA2702C01092EA271092B52781E078
S1133CD080939127E9E6F7E2828B8AEF90E0A0E0F7
S1133CE0B0E08093032890930428A0930528B09310
S1133CF0062884EF91E0A0E0B0E08093DD27909364
S1133D00DE27A093DF27B093E0278089813021F05C
S1133D1080917A27811114C0609193277091942720
S1133D20809195270E94C00A1092742780913C28A4
S1133D30811106C087E00E94472A81E080933C28D5
S1133D408091792781110FC080917A27813059F4AD
S1133D506091932770919427809195270E947C0A03
S1133D6081E08093742780915F28811106C084E0EC
S1133D700E94472A81E080935F28809173278130D5
S1133D8029F483E08093BF2710925F2880918827CD
S1133D90811116C08091692781112AC080917127F1
S1133DA0811126C080916C27811122C085E00E9478
S1133DB0472A10925F2810923C2881E08093BF2705
S1133DC0809188278130A1F480917127813081F41A
S1133DD06091E6277091E7278091E8270E94C00A46
S1133DE0E9E6F7E2108613828185813069F504C023
S1133DF080917227813011F41092722780916C2780
S1133E00813011F580916D278130F1F48091D027B4
S1133E109091D12701969093D1278093D027893E02
S1133E209D4F08F430C282E090E10E940137082FD0
S1133E3003600093682720E142E065E48EEA0E9473
S1133E408C290E94C93A1FC21092D1271092D02700
S1133E501AC2C9E6D7E283E08A8B609193277091F6
S1133E609427809195270E947C0A81E08B87109289
S1133E70B5278093912780915F28811111C082E03A
S1133E800E94472A81E080935F2884E60E94AD3C2B
S1133E906091E6277091E7278091E8270E947C0AC9
S1133EA080918827813049F583E00E94472A62E0A7
S1133EB081E60E94023E10925F2881E08093EA2707
S1133EC01092BF27C9E6D7E21A866091E62770915F
S1133ED0E7278091E8270E94C00A1B8660914C283E
S1133EE070914D2880914E280E94330C91E08111ED
S1133EF001C090E090936927C6C1809179278130F1
S1133F0049F583E00E94472A62E08EE60E94023E61
S1133F1010925F2881E08093EA278093BF27C9E647
S1133F20D7E21A866091E6277091E7278091E82707
S1133F300E94C00A1B8660914C2870914D28809184
S1133F404E280E94330C91E0811101C090E09093BF
S1133F50692799C180917327813009F494C183E062
S1133F600E94472A62E083E70E94023E10925F2883
S1133F7081E08093EA278093BF27C9E6D7E21A86B7
S1133F806091E6277091E7278091E8270E94C00A94
S1133F901B8660914C2870914D2880914E280E9478
S1133FA0330C91E0811101C090E0909369276BC1BB
S1133FB0E9E6F7E284E0828B1092B52781E08093F2
S1133FC0912782E0838B80915F28811108C00E9431
S1133FD0472A81E080935F2883E60E94AD3C80916C
S1133FE069278130A9F48091FC27811111C081E0F7
S1133FF00E94472A62E081E60E94023E10925F28F6
S113400081E08093EA278093BF27109272273BC1F7
S11340108091632790916A27981788F081E00E9425
S1134020472A62E08EE60E94023E10925F2881E0F9
S11340308093EA278093BF271092722724C180912E
S11340407227813009F41FC181E00E94472A62E08F
S113405083E70E94023E10925F2881E08093EA2762
S11340608093BF27109272270EC18091B5278111CA
S113407008C08EE398E230DB8091B5278F5F809390
S1134080B5278091CF27893080F06091A327709164
S1134090A4278091A5270E94330C91E0811190E020
S11340A090936D271092CF2703C08F5F8093CF2703
S11340B080916D27811108C08EE398E2B6DA81E021
S11340C08093BF271092B52780916927813009F02A
S11340D0DAC08091FC278111D6C01092BF271092BC
S11340E0B527D1C08DE790E0A0E0B0E0809303282D
S11340F090930428A0930528B09306288AEF90E0B3
S1134100A0E0B0E08093DD279093DE27A093DF2723
S1134110B093E0271092912782E080937B278091CF
S11341204B28813031F0C0F1823051F0833089F076
S113413030C08FE498E279DA82E080934B282CC077
S113414060E187EE96E20E94EA3E83E080934B288A
S113415023C08091B9279091BA27893A21E6920722
S113416090F08091652881FF0BC0809165288D7F38
S1134170809365286091652882E090E10E948B38E5
S11341800E94C93A09C001969093BA278093B9272F
S113419003C088E00E942A3C8091CF278930F0F048
S11341A06091A3277091A4278091A5270E94330CC6
S11341B091E0811190E090936D2760914C2870916B
S11341C04D2880914E280E94330C91E0811101C04A
S11341D090E0909369271092CF2703C08F5F80935C
S11341E0CF2780916D27813051F48091B52781309C
S11341F091F48EE398E270DA1092B5270CC0811125
S11342000AC08091B527811103C08EE398E20DDACC
S113421081E08093B527809169278130A1F5809151
S1134220FC27811130C010924B2881E08093BF2776
S11342300E94E1010E94B00386E997E2F6D98FE477
S113424098E2F3D920C08091B9279091BA2782309F
S11342509105A0F081E08093BF271092BA271092B5
S1134260B9270E94E1010E94B003609193277091E5
S11342709427809195270E94C00A05C001969093C7
S1134280BA278093B927DF91CF910F910895809138
S1134290F827882371F08091EA27882319F0109277
S11342A0EA2702C00E94923B81EC97E215DA109251
S11342B0F827089580917327811119C0809171277F
S11342C0813021F080916C27813049F46091E62798
S11342D07091E7278091E8270C947C0A08956091F7
S11342E0E6277091E7278091E8270C94C00A089587
S11342F081E080936A28DECF0895CF93DF93809185
S11343009227882309F461C00E940C40C9E6D7E2D1
S113431089830E94E3298E8380EF8F8710929227EE
S1134320EBE7F0E08081877F808381E680937C00E7
S1134330EAE7F0E0808180648083808186FDFDCFA0
S11343408091790024E2829FC00111246FEF70E014
S11343500E944D5560936B2760916128709162288B
S1134360809163280E94330C91E0811101C090E098
S11343709093882720916A2730E08091602890E00C
S11343800A972817390734F4E9E6F7E281E0808BCD
S1134390118A0DC08091602890E00A962817390789
S11343A01CF01092792703C082E0809379278091D2
S11343B06F278D3318F080E00E942A3C80916A2791
S11343C0853618F481E00E942A3C8091D2278130FE
S11343D029F080916A28813009F0B4C08091CF27F8
S11343E0893008F4ACC060910A2870910B28809140
S11343F00C280E94330C91E0811190E090936C277B
S113440059DF6091A3277091A4278091A5270E946A
S1134410330C91E0811190E090936D276091A62771
S11344207091A7278091A8270E94330C91E08111F5
S113443001C090E090936E2760914C2870914D28B4
S113444080914E280E94330C91E0811101C090E0CC
S11344509093692760916128709162288091632804
S11344600E94330C91E0811101C090E09093882761
S113447060915C2870915D2880915E280E94330CC5
S113448091E0811190E0909389276091AF2770911A
S1134490B0278091B1270E94330C91E0811190E004
S11344A090938A2760910D2870910E2880910F288F
S11344B00E94330C91E0811190E090938B276091DE
S11344C0652770916627809167270E94330C91E0DD
S11344D0811190E090938C276091BC277091BD2747
S11344E08091BE270E94330C91E0811190E090935B
S11344F08D2780917127813021F080916C27813044
S113450039F480916927811103C085E00E942A3C17
S11345101092D2271092CF2780916927811106C06B
S113452080918827811102C01092FC2780916A280B
S1134530813041F48093F82710926A2803C08F5F7A
S11345408093CF27DF91CF910895D7DE3FDB9FCEB5
S113455008958F929F92AF92BF92CF92DF92EF9283
S1134560FF920F931F93CF93DF93CDB7DEB72D97B1
S11345700FB6F894DEBF0FBECDBF8C01F62ECDB6BC
S1134580DEB60E9472048093B128882309F45BC4C8
S113459048E050E062E572E0C8010E941856892B99
S11345A0A1F48091BF2781110AC0809171278130C5
S11345B031F483E00E942A3CEE24E3944BC40E942D
S11345C0B83B78DEEE24E39445C448E050E06BE564
S11345D072E0C8010E941856892BA1F48091BF276C
S11345E0813051F480917127811106C083E00E94CB
S11345F02A3CEE24E3942EC40E94C23B5BDEEE24EC
S1134600E39428C448E050E064E672E0C8010E94E4
S11346101856892B09F050C02FE02F1530F084E094
S11346200E942A3CEE24E39415C46EEF6F0DC8017A
S11346300E94EE3EE82E882309F407C4F801218580
S113464030E02053310988EE93E0289FA001299F90
S1134650500D389F500D1124228530E0205331092C
S113466064E6629FC001639F900D1124840F951F1F
S1134670248530E020533109AC01420F531F2385B8
S113468030E020533109C901880F991F220F331FCD
S1134690220F331F220F331F280F391FCA01820F25
S11346A0931F8D3FFFE09F0720F084E00E942A3C87
S11346B0D1C30E94CB3BCEC348E050E06DE672E02C
S11346C0C8010E941856892B81F48091BF2781115B
S11346D006C083E00E942A3CEE24E394BBC381E03D
S11346E080937227EE24E394B5C348E050E066E774
S11346F072E0C8010E941856892B79F48091BF2773
S1134700811106C083E00E942A3CEE24E394A2C3F4
S113471010927227EE24E3949DC348E050E06FE7C3
S113472072E0C8010E941856892B81F48091BF273A
S1134730811106C083E00E942A3CEE24E3948AC3DC
S113474081E080937327EE24E39484C348E050E02F
S113475068E872E0C8010E941856892B79F48091A8
S1134760BF27811106C083E00E942A3CEE24E39413
S113477071C310927327EE24E3946CC348E050E0B5
S113478061E972E0C8010E941856892B09F092C0B1
S113479023E12F1530F086E00E942A3CEE24E394B6
S11347A059C36EEF6F0DC8010E94EE3EE82E8823B8
S11347B009F47AC0F801A185B0E0D09720E03AEC82
S11347C04AE95BE30E949F554B015C01A285B0E07E
S11347D0D09720E031EE45EF55E00E949F55860EBC
S11347E0971EA81EB91E828990E0C097092E000C5E
S11347F0AA0BBB0B880E991EAA1EBB1EA385B0E094
S1134800D09720E836E948E950E00E949F55860E8B
S1134810971EA81EB91EA485B0E0D09720E432E408
S11348204FE050E00E949F55860E971EA81EB91EA9
S1134830A585B0E0D09720EA36E841E050E00E9438
S11348409F55860E971EA81EB91EA685B0E0D09768
S113485020E137E20E949955860E971EA81EB91EC4
S1134860A785B0E0D09728EE33E00E949955860ED4
S1134870971EA81EB91EA089B0E0D09724E630E0A8
S11348800E949955860E971EA81EB91EA189B0E0F4
S1134890D0972AE030E00E949955680D791D8A1D51
S11348A09B1D0E94C03CD6C287E00E942A3CEE2495
S11348B0E394D0C248E050E06AE972E0C8010E9483
S11348C01856892B39F481EC97E20E94151BEE24CB
S11348D0E394C0C248E050E063EA72E0C8010E9479
S11348E01856892B29F40E94C83CEE24E394B2C2E2
S11348F048E050E06CEA72E0C8010E941856892B27
S113490029F40E94C93AEE24E394A4C248E050E09A
S113491065EB72E0C8010E941856892B29F40E94A5
S1134920D13CEE24E39496C248E050E06EEB72E092
S1134930C8010E941856892B91F5F3E1FF1530F058
S113494084E00E942A3CEE24E39484C26EEF6F0D4F
S1134950C8010E94EE3EE82E8823D9F0CE010196CC
S113496028E0FC0111922A95E9F7F80121852983B1
S113497022852A8323852B8324852C8325852D83D7
S113498026852E8327852F83208928870E94F53C3E
S113499061C284E00E942A3CEE24E3945BC248E0B6
S11349A050E067EC72E0C8010E941856892B09F5A3
S11349B0FDE0FF1530F08BE00E942A3CEE24E394E6
S11349C049C26EEF6F0DC8010E94EE3EE82E8823A7
S11349D051F0F8018185898382858A83CE0101960D
S11349E00E94543D37C284E00E942A3CEE24E394A2
S11349F031C248E050E060ED72E0C8010E941856F0
S1134A00892BA1F48EE398E20E94151B84E0809325
S1134A10BF271092BA271092B9270E948C028FE404
S1134A2098E20E946C1BEE24E39414C248E050E028
S1134A3069ED72E0C8010E941856892B49F480E29E
S1134A400E946A3D80E20E94B63DEE24E39402C2D5
S1134A5048E050E062EE72E0C8010E941856892BCB
S1134A6029F40E94753EEE24E394F4C148E050E03A
S1134A706BEE72E0C8010E941856892B29F40E943B
S1134A80A13EEE24E394E6C148E050E064EF72E016
S1134A90C8010E941856892B09F045C0FBE1FF1597
S1134AA030F088E00E942A3CEE24E394D3C16EEFF8
S1134AB06F0DC8010E94EE3EE82E882371F1D801E3
S1134AC01996E7EEF6E2CF01805F2D9191912917B7
S1134AD029F089E00E942A3CE12CBCC18E13F5CF59
S1134AE0CE01019629E0FC0111922A95E9F7F8011B
S1134AF0238D2983248D2A83258D2B83268D2C8336
S1134B00278D2D8320A12E830E94CA3A81E08093B1
S1134B104B2888EE93E013D39DC18AE00E942A3C7F
S1134B20EE24E39497C148E050E06DEF72E0C801D1
S1134B300E941856892BF9F4F7E0FF1530F088E04D
S1134B400E942A3CEE24E39485C1D8011996E7EE2D
S1134B50F6E2CF01805F2D919191291729F089E028
S1134B600E942A3CE12C76C18E13F5CF0E94C93AEB
S1134B70EE24E3946FC148E050E066E073E0C801BE
S1134B800E941856892B09F056C02FE02F1530F0DB
S1134B9084E00E942A3CEE24E3945CC16EEF6F0D26
S1134BA0C8010E94EE3EE82E882309F451C1F801A1
S1134BB0818590E0C09728EE33E0829FA001839F17
S1134BC0500D929F500D1124828590E0C09764E6A9
S1134BD0689F9001699F300D1124240F351F84852F
S1134BE090E0C097820F931F438550E040535109D2
S1134BF07AE0749F9001759F300D1124820F931FEA
S1134C00258520536685279F600D112460539C01E0
S1134C100BC02115F0E23F0728F084E00E942A3CF3
S1134C20E12C18C12F5F3F4F422F481B461788F3D2
S1134C300E94F63B0FC148E050E06FE073E0C8010A
S1134C400E941856892B09F068C02FE02F1530F008
S1134C5084E00E942A3CEE24E394FCC06EEF6F0DC6
S1134C60C8010E94EE3EE82E882309F450C0ADB678
S1134C70BEB6F8014185628570E0762F662783858C
S1134C80680F711D4930E0F58F2D90E04197242F76
S1134C9030E082179307A1F58DB79EB7841B910965
S1134CA00FB6F8949EBF0FBE8DBF0196DC01FC01C8
S1134CB001C011922E2F2A1B2417D8F3045F1F4F13
S1134CC0F80102C021912D932E2F201B2417D0F31D
S1134CD09B010AC02115E0E23E0720F084E00E9417
S1134CE02A3C0EC02F5F3F4F522F561B541790F390
S1134CF00E94293D0FB6F894BEBE0FBEADBEAAC039
S1134D000FB6F894BEBE0FBEADBEE12CA3C084E0C6
S1134D100E942A3CEE24E3949DC048E050E068E100
S1134D2073E0C8010E941856892BB9F40E94C80286
S1134D3084E690E004D287EE96E20E94D83E86E0B4
S1134D408093BF2760919327709194278091952732
S1134D500E947C0AEE24E3947DC048E050E061E2C6
S1134D6073E0C8010E941856892B09F044C086E0FC
S1134D708093BF27FBE1FF1530F088E00E942A3CB6
S1134D80EE24E39467C06EEF6F0DC8010E94EE3EFF
S1134D90882359F1D8011996E7EEF6E2CF01805F36
S1134DA02D919191291729F089E00E942A3CE12C48
S1134DB051C08E13F5CFCE01019629E0FC0111926A
S1134DC02A95E9F7F801238D2983248D2A83258DDB
S1134DD02B83268D2C83278D2D8320A12E830E9447
S1134DE0CA3A88EE93E0ABD1FFCF8AE00E942A3C16
S1134DF0EE24E3942FC048E050E06AE273E0C80177
S1134E000E941856892BC9F42DE0E3E3F3E0CE01A8
S1134E100196DC0101900D922A95E1F7FC010190C5
S1134E200020E9F73197BF01681B790B4AE253E090
S1134E300E94EE3AEE24E3940DC08BE00E942A3CDB
S1134E40EE24E39407C0E12C05C0EE24E39402C0F1
S1134E50EE24E3948E2D0FB6F894DEBE0FBECDBEC5
S1134E602D960FB6F894DEBF0FBECDBFDF91CF9164
S1134E701F910F91FF90EF90DF90CF90BF90AF9074
S1134E809F908F9008950F93CF93DF931F921F925B
S1134E90CDB7DEB7198288E08A838FEB64D100E155
S1134EA027EE36E24FEB62E0CE010196DDD10F90A2
S1134EB00F90DF91CF910F9108950F931F93CF938C
S1134EC0C1E0C093D227C093FC27C0939227C0931C
S1134ED0F827C0936A281092CF2710926427109263
S1134EE0B52710925F28C093BF27109270281092A4
S1134EF07228109271281092D3271092BB27C09366
S1134F00912710923C2810924B281092EA27109275
S1134F10D1271092D02787E880937A000E94AE3F71
S1134F209CD264E072E088EC90E00E947707EDEF99
S1134F30F7E284EF91E0A0E0B0E086839783A08756
S1134F40B187128688E29CE194878387CF010E940F
S1134F506C1BE7EDF7E288EE93E0A0E0B0E0868317
S1134F609783A087B187128680EF9BE1948783871C
S1134F700E940A56E1ECF7E200E911E0B8010E9450
S1134F804D558C599F4F092E000CAA0BBB0B8683E1
S1134F909783A087B187128682EE9BE194878387EB
S1134FA00E940A56E6E9F7E2B8010E944D558C5971
S1134FB09F4F092E000CAA0BBB0B86839783A087F7
S1134FC0B187128680E29CE194878387EFE4F8E25C
S1134FD088E893E1A0E0B0E086839783A087B18757
S1134FE0C2872BE13CE134872387EEE3F8E2868332
S1134FF09783A087B187128684EF9BE19487838788
S11350000E94E23F40DF6091F9277091FA27809176
S1135010FB270E94330C811108C0E9E6F7E21782EE
S113502086E0838B0E942E3903C081E08093702731
S1135030CF911F910F9108958091652881FF0EC033
S113504084E08093BF271092BA271092B9270E9458
S11350508C028FE498E20C946C1B089581E0809399
S1135060BF2708950F93062F292F482F65E48EEA52
S113507053D18AE090E063D00F91089582E090E1EB
S11350800E9401378093652884E090E10E940137F3
S11350908093602883E090E10E9401378093632726
S11350A08091652880FF2EC061E08CEF9FE0DADFFD
S11350B060E08DEF9FE0D6DF60E18EEF9FE0D2DF0E
S11350C060E08FEF9FE0CEDF64E380E090E1CADF31
S11350D062E181E090E1C6DF6FE883E090E1C2DF46
S11350E066E684E090E1BEDF9CD1809165288E7FE6
S11350F0809365286091652882E090E1B3DF8AE0BF
S113510090E01DC008951F93CF93DF93D82F192FDC
S113511041E0480F292F65E48FEA29D1C82F212FB8
S11351204D2F65E48FEA23D12C2F30E0322F222734
S1135130A901482BCA01DF91CF911F91089528EE50
S113514033E0AC01429FC001439F900D529F900DEC
S11351501124009739F020E030E02F5F3F4F2817EB
S11351603907D9F708950F931F93CF93DF9300D096
S113517000D0CDB7DEB7BE016F5F7F4F96E0FB0175
S113518011929A95E9F708E418EE21E030E00983DA
S11351901A832B833C838E8388E18D8388EB90E094
S11351A00E94FC0426960FB6F894DEBF0FBECDBF56
S11351B0DF91CF911F910F910895EF92FF920F937A
S11351C01F93CF93DF93CDB7DEB72A970FB6F8942A
S11351D0DEBF0FBECDBFF9019E012F5F3F4F7901A6
S11351E02AE0D7011D922A95E9F74983DC013C9115
S11351F03A83462F50E05E834D83F887EF8310E0B7
S11352001A8709876130C9F0623029F411968C91AC
S11352108A833B8312C0633081F4FC0121812B8398
S113522082818C830AC081E090E089DF115031F4DF
S113523081E00E942D3F81E00AC01AE0BE016F5F49
S11352407F4F88EB90E00E949B048111ECCF2A965B
S11352500FB6F894DEBF0FBECDBFDF91CF911F9183
S11352600F91FF90EF900895EF92FF920F931F9389
S1135270CF93DF93CDB7DEB72A970FB6F894DEBF8E
S11352800FBECDBFF9019E012F5F3F4F79012AE088
S1135290D7011D922A95E9F74983DC013C913A83B1
S11352A0462F50E05E834D83F887EF8310E01A8722
S11352B009876130C9F0623029F411968C918A8390
S11352C03B8312C0633081F4FC0121812B838281F2
S11352D08C830AC081E090E032DF115031F481E028
S11352E00E942D3F83E00BC01AE0BE016F5F7F4F29
S11352F088EB90E00E94C7048111ECCF82E02A96EB
S11353000FB6F894DEBF0FBECDBFDF91CF911F91D2
S11353100F91FF90EF900895FF920F931F93CF93F7
S1135320DF9300D0CDB7DEB7182F653419F0FF2412
S1135330F39403C06894FF24F1F849832A830B8310
S1135340812F11DF01E09E012D5F3F4F412F6F2D13
S1135350CE01019632DF85E090E0F1DE0F900F90F0
S11353600F90DF91CF911F910F91FF900895FF92BD
S11353700F931F93CF93DF9300D01F92CDB7DEB767
S1135380182F653419F0FF24F39403C06894FF24A4
S1135390F1F849832A831B821C82812FE4DE01E019
S11353A09E012D5F3F4F412F6F2DCE0101965CDF93
S11353B08B810F900F900F900F90DF91CF911F91E1
S11353C00F91FF9008950F93CF93DF9300D01F9216
S11353D0CDB7DEB719821A821B821C8280E9C3DE34
S11353E000E020E030E040E961E0CE010196E5DE36
S11353F0811109C002E09E012D5F3F4F41E961E048
S1135400CE01019631DF8B8190E0880F991F95952D
S113541087950F900F900F900F90DF91CF910F9180
S113542008950F93CF93DF93C0E0D0E00FEF2D2FBB
S11354304C2F65E48EEA70DF8AE090E080DEA89568
S11354402196CC3F8FE0D80789F7109272281092EA
S11354507128DF91CF910F910895CF93DF93C0E02E
S1135460D0E0CE010E9401378F3F29F4D0937228F7
S1135470C093712805C02B96CC3F8FE0D80789F7DD
S1135480DF91CF9108956FEF0C948B3808952F928C
S11354903F924F925F926F927F928F929F92AF92C0
S11354A0BF92CF92DF92EF92FF920F931F93CF930D
S11354B0DF93CDB7DEB76E970FB6F894DEBF0FBE9D
S11354C0CDBF81113FC080917128909172288C3F8B
S11354D09F4020F0109272281092712840917128F8
S11354E02091722803E465E48EEA16DF8091712826
S11354F090917228019690937228809371288AE083
S113550090E01DDE80917128909172288C3F9F401D
S113551020F01092722810927128409171282091E5
S1135520722803E565E48EEAF7DE80917128909194
S11355307228019690937228809371288AE090E0F3
S1135540FEDD0CC2813009F03FC08091712890913A
S113555072288C3F9F4020F010927228109271287C
S1135560409171282091722803E465E48EEAD4DE28
S1135570809171289091722801969093722880935B
S113558071288AE090E0DBDD809171289091722887
S11355908C3F9F4020F01092722810927128409105
S11355A071282091722805E465E48EEAB5DE8091C5
S11355B07128909172280196909372288093712893
S11355C08AE090E0BCDDCAC1823009F03FC080911E
S11355D07128909172288C3F9F4020F0109272287D
S11355E010927128409171282091722804E465E496
S11355F08EEA92DE809171289091722801969093A0
S11356007228809371288AE090E099DD8091712856
S1135610909172288C3F9F4020F010927228109233
S11356207128409171282091722803E565E48EEA7F
S113563073DE80917128909172280196909372285C
S1135640809371288AE090E07ADD88C1833009F084
S11356503FC080917128909172288C3F9F4020F028
S1135660109272281092712840917128209172280A
S113567004E465E48EEA50DE8091712890917228EA
S1135680019690937228809371288AE090E057DD08
S113569080917128909172288C3F9F4020F0109245
S11356A0722810927128409171282091722805E483
S11356B065E48EEA31DE809171289091722801961A
S11356C090937228809371288AE090E038DD46C177
S11356D0843009F03FC080917128909172288C3FEA
S11356E09F4020F0109272281092712840917128E6
S11356F02091722805E465E48EEA0EDE809171281B
S113570090917228019690937228809371288AE070
S113571090E015DD80917128909172288C3F9F4014
S113572020F01092722810927128409171282091D3
S1135730722803E565E48EEAEFDD8091712890918B
S11357407228019690937228809371288AE090E0E1
S1135750F6DC04C1853009F03FC080917128909136
S113576072288C3F9F4020F010927228109271286A
S1135770409171282091722805E465E48EEACCDD1D
S11357808091712890917228019690937228809349
S113579071288AE090E0D3DC80917128909172287E
S11357A08C3F9F4020F010927228109271284091F3
S11357B071282091722805E465E48EEAADDD8091BC
S11357C07128909172280196909372288093712881
S11357D08AE090E0B4DCC2C0863009F03FC080911A
S11357E07128909172288C3F9F4020F0109272286B
S11357F010927128409171282091722802E465E486
S11358008EEA8ADD80917128909172280196909396
S11358107228809371288AE090E091DC809171284D
S1135820909172288C3F9F4020F010927228109221
S11358307128409171282091722803E465E48EEA6E
S11358406BDD809171289091722801969093722853
S1135850809371288AE090E072DC80C0873009F080
S11358603FC080917128909172288C3F9F4020F016
S113587010927228109271284091712820917228F8
S113588002E465E48EEA48DD8091712890917228E3
S1135890019690937228809371288AE090E04FDCFF
S11358A080917128909172288C3F9F4020F0109233
S11358B0722810927128409171282091722804E472
S11358C065E48EEA29DD8091712890917228019611
S11358D090937228809371288AE090E030DC3EC077
S11358E080917128909172288C3F9F4020F01092F3
S11358F072281092712840917128209172280EE428
S113590065E48EEA09DD80917128909172280196F0
S113591090937228809371288AE090E010DC809143
S11359207128909172288C3F9F4020F01092722829
S11359301092712840917128209172280EE465E438
S11359408EEAEADC809171289091722801969093F6
S11359507228809371288AE090E0F1DB80917427AB
S1135960809370280E94D93F6B017C014F2D5527ED
S1135970662777274E2C8D2CA0918827E0E8AE9FD0
S1135980D001112480916D278170A82B80916C2700
S1135990817089831A8289819A81880F991F9A2F2D
S11359A0982B8091702780FB222420F8312C220C24
S11359B0331C220C331C292AA9E6B7E28C9181708E
S11359C08B831C82EB81FC81EE0FFF1FEE0FFF1F08
S11359D0EE0FFF1F822D8E2B90916E2791709D8369
S11359E01E822D813E8122953295307F3227207F81
S11359F03227282E222A8091792781708F83188656
S1135A008F819885880F991F82959295907F98270A
S1135A10807F9827822990917127917099871A869F
S1135A2029843A840024369427940794369427943E
S1135A300794322C202C282AA0919027E0E8AE9FCE
S1135A40D001112480917B2787708A2B9091742731
S1135A5091709B871C86EB85FC85EE0FFF1FEE0F74
S1135A60FF1FEE0FFF1F8E2B9091772791709D875C
S1135A701E862D853E8522953295307F3227207FE4
S1135A803227282B80918E2781708F87188A8F85E3
S1135A909889880F991F82959295907F9827807F87
S1135AA09827822B90918F279170998B1A8A298934
S1135AB03A890024369527950794369527950794B7
S1135AC0322F202D182F122B80918A2781708B8BD7
S1135AD01C8AEB89FC89EE0FFF1F80918B27817054
S1135AE08D8B1E8A8D899E89880F991F880F991F17
S1135AF08E2BE0918927E1708E2B90918C279170E9
S1135B009F8B188EEF89F88DEE0FFF1FEE0FFF1F8E
S1135B10EE0FFF1F8E2B90918D279170998F1A8E07
S1135B20298D3A8D22953295307F3227207F322776
S1135B30282B8091722781708B8F1C8E8B8D9C8D6E
S1135B40880F991F82959295907F9827807F982738
S1135B50822B9091732791709D8F1E8E2D8D3E8D7B
S1135B600024369527950794369527950794322F68
S1135B70202D382E322A80917128909172288C3FE2
S1135B809F4020F010927228109271288091712801
S1135B9020917228042F482F65E48EEABDDB8091A2
S1135BA0712890917228019690937228809371289D
S1135BB08AE090E0C4DA80917128909172288C3F39
S1135BC09F4020F010927228109271284091712801
S1135BD020917228042D65E48EEA9EDB8091712861
S1135BE090917228019690937228809371288AE08C
S1135BF090E0A5DA80917128909172288C3F9F40A3
S1135C0020F01092722810927128409171282091EE
S1135C107228082D65E48EEA7FDB809171289091CB
S1135C207228019690937228809371288AE090E0FC
S1135C3086DA80917128909172288C3F9F4020F0E1
S1135C401092722810927128409171282091722824
S1135C500C2D65E48EEA60DB8091712890917228A6
S1135C60019690937228809371288AE090E067DA15
S1135C7080917128909172288C3F9F4020F010925F
S1135C8072281092712840917128209172280091F5
S1135C906A2765E48EEA40DB80917128909172282E
S1135CA0019690937228809371288AE090E047DAF5
S1135CB080917128909172288C3F9F4020F010921F
S1135CC072281092712840917128209172280091B5
S1135CD06F2765E48EEA20DB809171289091722809
S1135CE0019690937228809371288AE090E027DAD5
