S00F0000504E4557454C532E73726563F7
S113000099C100000C9421080C944E080C947B08B0
S11300100C94A8080C94D5080C9402090C942F098C
S11300200C945C090C9489090C94B609A3C10000D2
S1130030A1C100009FC100009DC100000C94CB3AF7
S113004099C1000097C1000095C1000093C1000050
S113005091C100008FC100008DC100000C949D3A35
S113006089C1000087C1000085C1000083C1000070
S113007081C100007FC100007DC100007BC1000080
S113008079C1000077C1000075C1000073C1000090
S11300906CC700006FC100006DC10000C0C4000047
S11300A069C1000067C100000C94BD0C63C100006D
S11300B061C100005FC100005DC100005BC10000C0
S11300C059C1000057C1000055C1000053C10000D0
S11300D051C100004FC100004DC100004BC10000E0
S11300E049C1000047C1000045C1000043C10000F0
S11300F041C100003FC100003DC100003BC1000000
S113010039C1000037C1000035C1000033C100000F
S113011031C100002FC100002DC100002BC100001F
S113012029C1000027C1000025C1000023C100002F
S113013021C10000BA05B606B606B606B606B6066E
S1130140B606B6063105B606B606B606B606B60651
S1130150B606B6063105B606B606B606B606B60641
S1130160B606B6065605B606B606B606B606B6060C
S1130170B606B606BA05B606B606B606B606B60698
S1130180B606B6065605B606B606B606B606B606EC
S1130190B606B606BA05B606B606B606B606B60678
S11301A0B606B6064706B606B606B606B606B606DA
S11301B0B606B606BF05B606B606B606B606B60653
S11301C0B606B606BA05B606B606B606B606B60648
S11301D0B606B606E805B606B606B606B606B6060A
S11301E0B606B6062006B606B606B606B606B606C1
S11301F0B606B6067B06B606B606B606B606B60656
S1130200B606B6067B06B606B606B606B606B60645
S1130210B606B6067B06B606B606B606B606B60635
S1130220B606B6067B06B606B606B606B606B60625
S1130230B606B6068506B606B606B606B606B6060B
S1130240B606B606AA06B606B606B606B606B606D6
S1130250B606B6068506B606B606B606B606B606EB
S1130260B606B606AA06B606B606B606B606B606B6
S1130270B606B6069E06B606B606B606B606B606B2
S1130280B606B6065006B606B606B606B606B606F0
S1130290B606B6065006B606B606B606B606B606E0
S11302A0B606B6065406B606B606B606B606B606CC
S11302B0B606B6066F06B606B606B606B606B606A1
S11302C0B606B606AA06BD195B193C1B8D1AD61BC9
S11302D0991B871CD92AC42AC62AC82ACA2ACC2A06
S11302E0CE2AD02AD22A282CFA2C942D2E2EC82E8F
S11302F0622FFC2F963040310D322433373345338F
S113030055336533793397338633C834CB34EE347D
S1130310CD34F134F334F534F734CF3478378137CE
S113032095378B379F37A937B337BD37C737DB3797
S1130330E537D13711241FBECFEFD1E8DEBFCDBFE3
S113034000E00CBF19E0A0E0B2E0EAE2F3EA00E06A
S11303500BBF02C007900D92A03AB107D9F723E270
S1130360A0EAB9E001C01D92A036B207E1F73ED67B
S11303700C94935145CEF999FECF92BD81BDF89A64
S113038080B50895EF92FF920F931F93CF93DF935D
S11303904115510579F08B01040F151FEB017C0108
S11303A0E61AF70AC7018C0F9D1FE5DF8993C01772
S11303B0D107C1F7DF91CF911F910F91FF90EF907B
S11303C00895EF92FF920F931F93CF93DF93CDB7CE
S11303D0DEB761970FB6F894DEBF0FBECDBF4AE219
S11303E050E06EEB70E280E090E0CCDF8091E4209E
S11303F09091E520A091E620B091E72081349C46BD
S1130400A546B84709F47BC081E1E7E1F2E0DE01EB
S1130410119601900D928A95E1F70F2EF6E1EF2ED9
S1130420F0E2FF2EF02DF701638D748D8CEF9FE0C9
S11304300E94C5230EEB10E2F80191838083F7013B
S1130440658D768D80E090E10E94C523F801958347
S11304508483F701618D728D8EEF9FE00E94C52326
S1130460F8019383828340E250E060E270E084EC20
S113047090E20E9470518BE0EBE0F2E0A4ECB0E279
S113048001900D928A95E1F7F80180819181FC0138
S1130490EF2FFF27E295EF7021E030E02C0F3D1F96
S11304A0E20FF31F2081F8012587E92FFF27EF7062
S11304B0FF2721E030E02C0F3D1FE20FF31F2081C6
S11304C0F8012687FC01F295E295EF70EF27FF70A3
S11304D0EF27EF70FF2721E030E02C0F3D1FE20FE4
S11304E0F31F2081F80127878F709927E1E0F0E05E
S11304F0EC0FFD1FE80FF91F8081F801808B6196D6
S11305000FB6F894DEBF0FBECDBFDF91CF911F9120
S11305100F91FF90EF900895CF93DF934AE250E05C
S11305206EEB70E280E090E02DDF8091E42090910A
S1130530E520A091E620B091E72081349C46A546B1
S1130540B84711F1CEEBD0E28FEF9FEF9983888308
S11305509D838C838FE090E09B838A8340E250E00C
S113056060E270E084EC90E20E9470518BE0EBE07A
S1130570F2E0A4ECB0E201900D928A95E1F786E6F0
S11305808D878E878F87888BEBD0DF91CF910895ED
S1130590EF92FF920F931F93CF93DF93CDB7DEB704
S11305A061970FB6F894DEBF0FBECDBF4AE250E0AC
S11305B06EEB70E280E090E0E5DE8091E4209091C3
S11305C0E520A091E620B091E72081349C46A54621
S11305D0B84709F46CC081E1E7E1F2E0DE0111966D
S11305E001900D928A95E1F760913120709132204B
S11305F08CEF9FE00E94C5238C010F2EFEEBEF2EA3
S1130600F0E2FF2EF02DF701918380838FEF9FEFAF
S11306109583848380E190E09383828340E250E079
S113062060E270E084EC90E20E9470518BE0EBE0B9
S1130630F2E0A4ECB0E201900D928A95E1F7F801A2
S1130640EF2FFF27E295EF7081E090E08C0F9D1F64
S1130650E80FF91F8081F7018587E12FFF27EF70ED
S1130660FF2781E090E08C0F9D1FE80FF91F808128
S1130670F7018687F801F295E295EF70EF27FF7096
S1130680EF27EF70FF2781E090E08C0F9D1FE80FAC
S1130690F91F8081F70187870F701127E1E0F0E0EF
S11306A0EC0FFD1FE00FF11F8081F701808BD9D083
S11306B061960FB6F894DEBF0FBECDBFDF91CF9128
S11306C01F910F91FF90EF90089529E0823A9207CD
S11306D069F043E25AE0BC0121E04617570739F0BC
S11306E02F5F4F575F4F2431C1F701C020E0FC0159
S11306F0378531110EC030E0F901F695FE2FEE2753
S1130700F795E7952E0F3F1FF901E056F64F10823B
S1130710089530E0F901F695FE2FEE27F795E79559
S1130720E20FF31FE056F64F4181415041834423C9
S113073019F00C94270D0895F901F695FE2FEE2774
S1130740F795E7952E0F3F1FF901E056F64F1082FB
S11307500895FC016185878190850C940D1E089590
S1130760CF93DF93CEEBD0E2888199810E94E50C90
S11307708C819D810E94EB0C8A810E94B51481E0DA
S11307800E94B11488E292E00E942B1169EA73E09E
S113079081E00E94F10CA0EAB9E0EBEAF9E06FEB2A
S11307A073E181E093E045E653E01C9218961C92B5
S11307B01E921797EF01229788832196888390834E
S11307C09F01285F3F4F3283218355834483AF5772
S11307D0BF4FEF57FF4FE617F70739F70E94AB1CDF
S11307E0DF91CF9108958091A009882359F0E1E227
S11307F0FAE064EB73E181E090E0AC012081211127
S113080018C002C040E050E0FA01F695FE2FEE2732
S1130810F795E7954E0F5F1FFA01E056F64F81E01A
S11308208083DF01A058BF4F1C9281838E2F9F2F9E
S113083008950196EF57FF4FE617F707F1F680E0AA
S113084090E00895FC01E058FF4F2081222331F00D
S1130850FC01268702960C94270D0895FC01108252
S11308600895CF93DF93CEEBD0E2888199810E94E3
S1130870E50C8C819D810E94EB0C8A810E94B51449
S113088081E00E94B11488E292E00E942B1169EA8F
S113089073E081E00E94F10CA0EAB9E0EBEAF9E030
S11308A06FEB73E181E097E045E653E01C92189604
S11308B01C921E921797EF012297888321968883B2
S11308C090839F01285F3F4F328321835583448364
S11308D0AF57BF4FEF57FF4FE617F70739F7DF91D1
S11308E0CF910895CF93DF9370E09C01260F371FBB
S11308F0F9013297C081D0E0DC2FCC2731962081DA
S1130900C22B6250710926E030E049E352E00E94B4
S1130910605021E0C817D90709F020E0822FDF9149
S1130920CF91089581E08093C3131092B51380E9A9
S11309308093BC0008956115710529F18091B51368
S1130940811123C0EDEBF3E1718360831382128282
S11309501582148281E08093B513FB018481958113
S1130960892B21F484E08093C31303C082E0809335
S1130970C31385EA8093BC008091B5138111FCCF29
S11309808091C413089588EF089580E808957093C2
S1130990BE136093BD136115710541F1FB018085A0
S11309A09185892B29F18091B513811123C0EDEB39
S11309B0F3E1138212821582148281E08093B513CD
S11309C0FB0184819581892B21F485E08093C313F5
S11309D003C083E08093C31385EA8093BC008091B5
S11309E0B5138111FCCF8091C413089588EF089545
S11309F088EF089580E80895F894ECEBF0E0108215
S1130A001092B900DB0114968C918093B800808118
S1130A108160808378941092B41380E008951F92CB
S1130A200F920FB60F9211240BB60F922F933F9390
S1130A304F935F936F937F938F939F93AF93BF93E2
S1130A40EF93FF938091B900887F90E0893C9105F2
S1130A5008F08CC1FC018827E656FF4F8F4F0C9499
S1130A60C4508091C3139EEF980F933060F4E091CB
S1130A70BD13F091BE1380818E7F8093BB0085E807
S1130A808093BC008BC1853061F4E091BD13F0917B
S1130A90BE13808181608093BB0085E88093BC0095
S1130AA07DC140DF8BEF8093C41378C18091C31361
S1130AB0843051F5EDEBF3E1848195810190F0816F
S1130AC0E02D208531858217930798F4268137819C
S1130AD0AC014F5F5F4F5093C2134093C113F901B0
S1130AE0E80FF91F80818093BB0085E88093BC00E8
S1130AF055C184E98093BC00EDEBF3E181E086838A
S1130B0017821092B5134AC19EEF980F923038F5B0
S1130B10EDEBF3E182819381A081B181A80FB91F2C
S1130B2011962C910196938382832093BB0025E830
S1130B302093BC000190F081E02D24813581281799
S1130B40390709F02BC18091C313823021F484E06A
S1130B508093C31323C185E08093C3131FC18530E1
S1130B6021F485EA8093BC0019C1DCDE8BEF80930D
S1130B70C41314C1D7DE8FEF8093C4130FC18091C7
S1130B80C313853001F5EDEBF3E1A081B181189633
S1130B908D919C91199701972481358128173907E4
S1130BA049F4ECEBF0E080818F7B80838081856861
S1130BB08083F4C0ECEBF0E08081806480838081EA
S1130BC085688083EBC0AEDE8BEF8093C413E6C0F0
S1130BD02091BB008091C313853069F5EDEBF3E1FF
S1130BE0A081B18116966D917C911797848195812E
S1130BF0AC014F5F5F4F55834483FB01E80FF91F3E
S1130C00208318968D919C9119970197481759073D
S1130C1048F4ECEBF0E08081806480838081856817
S1130C208083BCC0ECEBF0E080818F7B808380818B
S1130C3085688083B3C076DE8BEF8093C413AEC027
S1130C402091BB008091C3138530E1F4EDEBF3E117
S1130C50A081B18116964D915C91179784819581FD
S1130C60BC016F5F7F4F75836483DA01A80FB91FDE
S1130C702C9384E98093BC0081E0868317821092D0
S1130C80B5138CC04FDE8BEF8093C41387C0EDEB9C
S1130C90F3E181E0868386EF87831092B5137EC0EB
S1130CA01092B9131092B813E6EBF3E1A081B1816D
S1130CB012962D913C91139782819381AC014F5FE1
S1130CC05F4F53834283D901A80FB91F8C9180933E
S1130CD0BB0085EC8093BC0088E084835FC0E6EBB6
S1130CE0F3E181E0848382E090E09683858385EC60
S1130CF08093BC0053C0E6EBF3E11382128285ECCF
S1130D008093BC0088E0848349C02091BB00E6EB5B
S1130D10F3E1A081B1814D915C9182819381BC0109
S1130D206F5F7F4F73836283DA01A80FB91F2C931F
S1130D3085EC8093BC0088E0848330C0E6EBF3E16B
S1130D4081E0848383E090E09683858385EC8093BF
S1130D50BC0024C0E6EBF3E181E0848380E9809366
S1130D60BC008FEF9FEF9683858318C08091B413E6
S1130D70811109C0EDEBF3E181E086838BEF87837A
S1130D801092B5130BC0E6EBF3E18EEF9FEF968361
S1130D90858381E0848385EC8093BC00FF91EF918F
S1130DA0BF91AF919F918F917F916F915F914F917F
S1130DB03F912F910F900BBE0F900FBE0F901F907D
S1130DC018950F931F93CF93DF938C01D62FCAE00E
S1130DD00AC081E090E00E94E123C15021F482E046
S1130DE00E946F3A04C0F801908195FFF2CFF80198
S1130DF0D68380E0DF91CF911F910F9108958F9258
S1130E009F92AF92BF92CF92DF92EF92FF920F9395
S1130E101F93CF93DF93EC016A017B01B901A80111
S1130E20689412F876956795579547951694D1F777
S1130E30D901C801072E73E1B695A79597958795B3
S1130E407A95D1F7702DE881E1FF0BC04A015B016F
S1130E50B694A79497948794B695A79597958795F4
S1130E6002C04A015B018C149D04AE04BF0478F1F6
S1130E70C816D906EA06FB0660F1888181FF10C016
S1130E80CC0CDD1CEE1CFF1CCB01BA01A7019601A2
S1130E900E94A250DA01C9010197A109B10913C046
S1130EA0C901B801689413F8969587957795679565
S1130EB01694D1F7A70196010E94A250DA01C90144
S1130EC00197A109B1099D838C8381E003C080E06F
S1130ED001C080E0DF91CF911F910F91FF90EF90BF
S1130EE0DF90CF90BF90AF909F908F9008950F9315
S1130EF01F93CF93DF93EC01FB018A818F738A8365
S1130F002681358184819A81482F4370440F997FCB
S1130F10942B9A8399818470880F880F9B7F892BE7
S1130F2089838A818F7C832B8A838A81922F990F6C
S1130F30990F990F877F892B8A8340815181628120
S1130F40738100E012E12AE730E0CE0158DF998195
S1130F509860998399819061998399819068998324
S1130F60DF91CF911F910F9108951F920F920FB6A9
S1130F700F9211240BB60F922F933F934F935F93CD
S1130F806F937F938F939F93AF93BF93EF93FF934D
S1130F908091CE000E945B2AFF91EF91BF91AF91A7
S1130FA09F918F917F916F915F914F913F912F917D
S1130FB00F900BBE0F900FBE0F901F90189580914D
S1130FC03E20813021F48093A52080933F20089512
S1130FD0F894A89599E288E10FB6F894A8958093BF
S1130FE060000FBE90936000789408950E94FF15EE
S1130FF00E948023E6D9B4DBE5ECF3E180E197E2DB
S1131000A0E0B0E086839783A087B18781E08287E0
S11310108FED97E094878387CF010E94D0160E94BA
S113102012180E949F228091122190E00E945E2358
S1131030CFDF86E080934D010E9408160E94091EAE
S1131040FBCF1F920F920FB60F9211240BB60F9283
S11310502F933F934F935F936F937F938F939F93BC
S1131060AF93BF93EF93FF93E091E413F091E513F3
S1131070309709F01995FF91EF91BF91AF919F912E
S11310808F917F916F915F914F913F912F910F902D
S11310900BBE0F900FBE0F901F9018951F920F92CA
S11310A00FB60F9211240BB60F922F933F934F93C9
S11310B05F936F937F938F939F93AF93BF93EF93BC
S11310C0FF93E091E213F091E313309709F019953F
S11310D0FF91EF91BF91AF919F918F917F916F910C
S11310E05F914F913F912F910F900BBE0F900FBEC8
S11310F00F901F9018951F920F920FB60F92112404
S11311000BB60F922F933F934F935F936F937F93FD
S11311108F939F93AF93BF93EF93FF93E091E0136B
S1131120F091E113309709F01995FF91EF91BF9178
S1131130AF919F918F917F916F915F914F913F916B
S11311402F910F900BBE0F900FBE0F901F9018950C
S11311501F920F920FB60F9211240BB60F922F937A
S11311603F934F935F936F937F938F939F93AF932B
S1131170BF93EF93FF93E091DE13F091DF13309769
S113118009F01995FF91EF91BF91AF919F918F91C4
S11311907F916F915F914F913F912F910F900BBE73
S11311A00F900FBE0F901F9018951F920F920FB6BD
S11311B00F9211240BB60F922F933F934F935F938B
S11311C06F937F938F939F93AF93BF93EF93FF930B
S11311D0E091DC13F091DD13309709F01995FF913C
S11311E0EF91BF91AF919F918F917F916F915F919B
S11311F04F913F912F910F900BBE0F900FBE0F9008
S11312001F9018951F920F920FB60F9211240BB6D0
S11312100F922F933F934F935F936F937F938F938B
S11312209F93AF93BF93EF93FF93E091DA13F09101
S1131230DB13309709F01995FF91EF91BF91AF91AE
S11312409F918F917F916F915F914F913F912F91DA
S11312500F900BBE0F900FBE0F901F9018951F920A
S11312600F920FB60F9211240BB60F922F933F9348
S11312704F935F936F937F938F939F93AF93BF939A
S1131280EF93FF93E091D813F091D913309709F0BD
S11312901995FF91EF91BF91AF919F918F917F919C
S11312A06F915F914F913F912F910F900BBE0F90D3
S11312B00FBE0F901F9018951F920F920FB60F92AA
S11312C011240BB60F922F933F934F935F936F9319
S11312D07F938F939F93AF93BF93EF93FF93E0918B
S11312E0D613F091D713309709F01995FF91EF9128
S11312F0BF91AF919F918F917F916F915F914F912A
S11313003F912F910F900BBE0F900FBE0F901F9027
S113131018951F920F920FB60F9211240BB60F92CD
S11313202F933F934F935F936F937F938F939F93E9
S1131330AF93BF93EF93FF93E091D413F091D51340
S1131340309709F01995FF91EF91BF91AF919F915B
S11313508F917F916F915F914F913F912F910F905A
S11313600BBE0F900FBE0F901F9018951F920F92F7
S11313700FB60F9211240BB60F922F933F934F93F6
S11313805F936F937F938F939F93AF93BF93EF93E9
S1131390FF93E091D213F091D313309709F019958C
S11313A0FF91EF91BF91AF919F918F917F916F9139
S11313B05F914F913F912F910F900BBE0F900FBEF5
S11313C00F901F901895803111F4D99A0895D89AE6
S11313D00895803159F4E8E6F0E0808182608083EA
S11313E0ECE6F0E08081816080830895E8E6F0E037
S11313F0808181608083EBE6F0E0208181E090E0F1
S113140002C0880F991F7A95E2F7822B8083089592
S1131410803131F4ECE6F0E080818E7F80830895A2
S1131420EBE6F0E0208181E090E002C0880F991F94
S11314307A95E2F78095822380830895CF92DF9294
S1131440EF926B01E82EE4DF8E2DB60126D18E2DAE
S1131450B601C5D18E2DB601B6DF8E2DB601B9DF2A
S1131460EF90DF90CF900895982F811105C050938D
S1131470E5134093E4130895813029F45093E31362
S11314804093E2130895823029F45093E11340937A
S1131490E0130895833029F45093DF134093DE134F
S11314A00895843029F45093DD134093DC13089598
S11314B0853029F45093DB134093DA130895863072
S11314C029F45093D9134093D8130895873029F4FD
S11314D05093D7134093D61308958850883028F436
S11314E05093D5134093D4130895903121F450931D
S11314F0D3134093D2130895623009F128F466237C
S113150041F0613089F00895633021F1643069F16C
S1131510089525B181E090E002C0880F991F7A9563
S1131520E2F7822B85B908952BB181E090E002C0E7
S1131530880F991F7A95E2F7822B8BB908952EB103
S113154081E090E002C0880F991F7A95E2F7822B20
S11315508EB9089521B381E090E002C0880F991FED
S11315607A95E2F7822B81BB089524B381E090E061
S113157002C0880F991F7A95E2F7822B84BB0895E5
S1131580623019F128F4662341F0613091F0089536
S1131590633039F1643089F1089525B181E090E038
S11315A002C0880F991F7A95E2F78095822385B946
S11315B008952BB181E090E002C0880F991F7A95BD
S11315C0E2F7809582238BB908952EB181E090E0F3
S11315D002C0880F991F7A95E2F7809582238EB90D
S11315E0089521B381E090E002C0880F991F7A9595
S11315F0E2F78095822381BB089524B381E090E0D3
S113160002C0880F991F7A95E2F78095822384BBE4
S11316100895623009F128F4662341F0613089F0BD
S11316200895633021F1643069F1089525B181E0B2
S113163090E002C0880F991F7A95E2F7822785B956
S113164008952BB181E090E002C0880F991F7A952C
S1131650E2F782278BB908952EB181E090E002C0B1
S1131660880F991F7A95E2F782278EB9089521B3DE
S113167081E090E002C0880F991F7A95E2F78227F3
S113168081BB089524B381E090E002C0880F991FC4
S11316907A95E2F7822784BB0895623061F128F4D9
S11316A0662349F06130B9F008956330A1F16430E4
S11316B009F441C0089524B181E090E002C0880F8C
S11316C0991F7A95E2F78095982F922394B995B152
S11316D0892385B908952AB181E090E002C0880F7A
S11316E0991F7A95E2F78095982F92239AB99BB126
S11316F089238BB908952DB181E090E002C0880F51
S1131700991F7A95E2F78095982F92239DB99EB1FF
S113171089238EB9089520B381E090E002C0880F38
S1131720991F7A95E2F78095982F922390BB91B3F5
S1131730892381BB089523B381E090E002C0880F20
S1131740991F7A95E2F78095982F922393BB94B3CF
S1131750892384BB0895623009F128F4662341F09B
S1131760613089F00895633021F1643069F108959E
S113177024B181E090E002C0880F991F7A95E2F7C6
S1131780822B84B908952AB181E090E002C0880FC9
S1131790991F7A95E2F7822B8AB908952DB181E0D9
S11317A090E002C0880F991F7A95E2F7822B8DB9D9
S11317B0089520B381E090E002C0880F991F7A95C4
S11317C0E2F7822B80BB089523B381E090E002C04E
S11317D0880F991F7A95E2F7822B83BB08956230B4
S11317E009F128F4662341F0613089F008956330EB
S11317F021F1643069F1089525B181E090E002C0DF
S1131800880F991F7A95E2F7822B85B908952BB139
S113181081E090E002C0880F991F7A95E2F7822B4D
S11318208BB908952EB181E090E002C0880F991F12
S11318307A95E2F7822B8EB9089521B381E090E086
S113184002C0880F991F7A95E2F7822B81BB089515
S113185024B381E090E002C0880F991F7A95E2F7E3
S1131860822B84BB08956230E9F028F4662341F0AA
S1131870613079F032C06330F1F0643029F12DC069
S113188083B190E002C0959587957A95E2F78170CF
S1131890089589B190E002C0959587957A95E2F70D
S11318A0817008958CB190E002C0959587957A95E2
S11318B0E2F7817008958FB190E002C09595879505
S11318C07A95E2F78170089582B390E002C095950D
S11318D087957A95E2F78170089580E0089514BEA3
S11318E00FB6F894A8958091600088618093600099
S11318F0109260000FBEE1E6F0E080E88083108281
S1131900789404C0089590E016C0089510922021A0
S113191080E197E29093A9008093A800E1EAF0E0C7
S113192088E08083808182608083E2E7F0E08081C8
S11319308260808308952091A4003091A500820FD5
S1131940931FEAEAF0E091838083208131818091C2
S1131950A8009091A9008217930750F42091A80041
S11319603091A90080819181821B930B91838083A4
S113197084E089BBCA9BFECF08951F920F920FB6D5
S11319800F9211248F93809120218F5F80932021C7
S11319908F910F900FBE0F901F901895E1E2F1E226
S11319A0148215821182108217AA16AAE7E2F1E2C4
S11319B087E491E211921192E817F907D9F7EED56D
S11319C0C3D114D13FD040C4089590932221809371
S11319D02121E1C708959093242180932321C9C72D
S11319E00895E82FF0E0EE0FFF1FE95DFE4D7183CF
S11319F060830895FBD1DAD64ED083C40895E09174
S1131A00E613F091E7133097D9F022813381281738
S1131A10390789F405C0228133812817390759F41D
S1131A20DC01AD57BF4F2C91278713962C91208B47
S1131A3022E0248305C00190F081E02D309759F70E
S1131A4019C108951092E7131092E6130895FC014A
S1131A501482178613821282A1E2B1E2D6968D9186
S1131A609C91D7970196D7969C938E93D697809105
S1131A70E6139091E713009739F411821082F093E2
S1131A80E713E093E613089591838083F093E713BB
S1131A90E093E61308950F931F93CF93DF93E091A0
S1131AA0E613F091E713309709F49BC0EF018C81A2
S1131AB0882321F0823009F46EC08DC0A2D08C013D
S1131AC0009721F482E08C838F878BC09B838A8369
S1131AD081E08C83F801E957FF4F8FEF9CE09183FD
S1131AE080833197898582FB882780F98083998553
S1131AF0D8011B968C911B9790FB80F91B968C93B5
S1131B001B97998593FB992790F990FB82F91B9673
S1131B108C931B9799859695917090FB81F91B96F0
S1131B208C931B97E1E2F1E284818F5F84831C969E
S1131B308C931C97808191811E969C938E931D9704
S1131B408D819E8150969C938E931F978885982FA4
S1131B509F7051968C915197807F892B51968C93CD
S1131B6051979F819295907F8F70892B51968C937A
S1131B70F801EF57FF4F4C8550E06A857B858081E3
S1131B8091810E946751F80191818C85890F81832D
S1131B90C80127D526C0CE17DF0741F48881998173
S1131BA09093E7138093E6130AC0FC01808191812E
S1131BB0C817D907D1F78881998191838083E1E29D
S1131BC0F1E286A997A9019797AB86ABED85FE85CF
S1131BD0CE01199506C00990D881C02D209709F02F
S1131BE066CFDF91CF911F910F910895E8EEF3E155
S1131BF08CE99EE11082E757FF4FE817F907D1F708
S1131C0008958091E813882359F0E1E7F4E14CE961
S1131C105EE181E090E0BC012081211122C002C07C
S1131C2060E070E049E8469F9001479F300D112421
S1131C30C90188519C4EFC0111924A95E9F740E193
S1131C40FC014183EF57FF4F26503C4E31832083E4
S1131C50E1E2F1E226A937A92F5F3F4F37AB26AB6C
S1131C6008950196E757FF4FE417F507A1F680E0C2
S1131C7090E00895FC011082E1E2F1E286A997A9BF
S1131C80019797AB86AB0895009741F0FC01E757A5
S1131C90FF4F8EE1EC39F80718F015C0E8EEF3E1D8
S1131CA08081882339F003C08081882319F08E2F26
S1131CB09F2F0895E757FF4F8EE1EC39F807A0F303
S1131CC080E090E0089580E090E00895FC01DC015C
S1131CD0AD57BF4F1C92A1E2B1E214969C911497A8
S1131CE09F5F14969C93149794878D919C919687EB
S1131CF085870895DC0119962C911997222349F0C0
S1131D001796ED91FC9118972081211104C003C509
S1131D10089580E0089580E00895BC01EEEAFEE1B4
S1131D2020EE3EE140E051E09081992319F091507A
S1131D309083452F3596E217F307B1F7442319F042
S1131D40CB010C94D0160895EEEAFEE180EE9EE1FC
S1131D5010823596E817F907D9F7ECE9FEE184E635
S1131D6090E0A0E0B0E086839783A087B1871286D5
S1131D708DE89EE0948783876AE77EE080E031CE39
S1131D800895CF93DF93DC01ED91FC9111972181AC
S1131D902838F9F420812F7D2134D9F412962C911E
S1131DA02031B8F0EC012DDF009799F020E2FC011E
S1131DB020832A8121832B81ED57FF4F20832C819F
S1131DC0319620834A8150E06881798102960E948D
S1131DD06751DF91CF910895662321F022E2FC013F
S1131DE02083089524E2FC01208308952F923F92DA
S1131DF04F925F926F927F928F929F92AF92BF9217
S1131E00CF92DF92EF92FF920F931F93CF93DF93C2
S1131E10CDB7DEB72C970FB6F894DEBF0FBECDBF9B
S1131E2000E010E00F2EF4E2DF2EF02D0F2EF1E291
S1131E308F2EF1E29F2EF02DCC24C3940F2EFEEAB8
S1131E404F2EFEE15F2EF02D0F2EFAEA6F2EFEE1EB
S1131E507F2EF02D0F2EFCEDEF2EFEE1FF2EF02D48
S1131E60312C212C5801B9C1D5018C91813209F44E
S1131E70E1C018F4803241F0B0C1823209F4DEC00E
S1131E80843209F4A8C1A9C1F501D082838583FDF8
S1131E90A4C1258136812F3F3F4FC9F4D5011F9638
S1131EA02D913C915097F401408151814217530781
S1131EB021F02F3F3F4F09F090C181FF04C081E220
S1131EC0D5018C938AC122E2F501208386C1D50114
S1131ED01F962D913C9150972F3F3F4F09F084C19D
S1131EE080FF82C17AC18C012C91222309F457C04E
S1131EF0208131814217530709F052C0F5019485BE
S1131F00F801EE0FFF1FEE0FFF1FE00FF11FE65564
S1131F10F14E8281891B883040F5F801EE0FFF1FD6
S1131F20EE0FFF1FE00FF11FE655F14E9381292FAD
S1131F3030E0082E02C0359527950A94E2F720FD7B
S1131F404CC1F801EE0FFF1FEE0FFF1F0E0F1F1FF6
S1131F50F801E655F14E21E030E002C0220F331FB4
S1131F608A95E2F7922B93834FC1F801EE0FFF1F7E
S1131F70EE0FFF1F0E0F1F1FF801E655F14E92835F
S1131F80238130E08195A90102C0440F551F8A9531
S1131F90E2F7CA01816083838FE1848335C1BF0185
S1131FA0019615963596EE15FF0509F09CCF61153F
S1131FB0710509F412C1DB0111965C934E93F5018E
S1131FC0848512968C9312971396CC9213978FE173
S1131FD014968C938CE99EE1E3D616C1D5011F9625
S1131FE08D919C915097F4012081318128173907F4
S1131FF0A1F01B962C9122FD0DC0C50147D3D5013C
S11320001F968D919C915097F4012081318128175E
S1132010390719F0019609F0E0C0D5011B968C919F
S11320201B9781FF03C081E28C93D7C022E2F501A4
S11320302083D3C060E0C50117D1CFC01092A91E80
S1132040D50151962C91519722952F70E22FF0E0F3
S1132050EE0FFF1FE95DFE4D0190F081E02D3097FA
S113206009F462C01D968D919C911E979A83898371
S11320701F964D915C9150975C834B8351963C9194
S113208051973F703D832E83AF57BF4F6D917C9125
S11320907987688795012E5F3F4F261B370BD50143
S11320A011963C911197230F2A87AD57BF4F2C915E
S11320B02B8711962C912C87D5011B962C91622F7E
S11320C0637022FD02C030E001C030E2632B23FDC7
S11320D002C030E001C030E4262F232B4F3F5F4F76
S11320E011F030E001C034E0232BD50119964D9155
S11320F05C911A978417950711F090E001C098E05D
S1132100822F892B8F83D50115962D913C9116979B
S11321102F3F3F4F11F090E001C090E1892B8F8356
S1132120CE010196199501C080E0F501938590FFD9
S113213080E0D50117962D913C9118972F3F3F4F82
S113214069F4F40140815181D5011F962D913C9190
S113215050974217530711F493FF8C2DF5012581F5
S113216036812F3F3F4FA1F1D4012D913C912F3F58
S11321703F4F71F1882361F144DD8C01009741F1F7
S1132180A5DDF80181818D5F8183E957FF4F1182BD
S11321901082D5011B968C911B9786958170F8014E
S11321A0938580FB91F993871D968D919C911E9741
S11321B0908B8787EF57FF4F0190F081E02D1082BD
S11321C08091A91E82831C968C918183C80109D2B7
S11321D0D501DC9202C0C5014DDDC50155DD5C01B0
S11321E0892B09F041CE17C0F50145855685D401E8
S11321F08D919C918417950781F3D201F301832D6E
S1132200922D632D722D6FCEF501878190850196F5
S113221009F0F5CEE3CE2C960FB6F894DEBF0FBED0
S1132220CDBFDF91CF911F910F91FF90EF90DF9081
S1132230CF90BF90AF909F908F907F906F905F9062
S11322404F903F902F9008951092F11E1092F01E1F
S11322501092EF1E0895FC0190E1A7E4B1E2019011
S11322600D929A95E1F70895662321F020E3FC018D
S1132270208303C021E3FC0120838091F11E8F5F42
S11322808093F11E0895CF93DF93C091EF1ED091F8
S1132290F01EFE01EF57FF4FA081B1817091ED1E3A
S11322A0872F90E06091EE1E262F613108F020E127
S11322B02223B9F03091EC1E4CED5EE1A80FB91F5A
S11322C0FA0190818C9189278D93332311F08083B7
S11322D003C090818927808331968E2F841B8217B7
S11322E080F3720F7093ED1E621B6093EE1E6623E3
S11322F019F082E3888302C084E38883DF91CF915D
S113230008950F931F93CF93DF938091F11E882339
S113231009F4E1C0E091EF1EF091F01E309709F44A
S1132320D4C08081843309F054C08091ED1EDF0154
S1132330AF57BF4FCD91DC91C80FD11DACEDBEE1BD
S113234014960D911D912D913C9117974D915D918E
S11323506D917C9113974027512762277327189614
S11323600D911D912D913C911B9740275127622778
S113237073271C968D919D910D90BC91A02D48279B
S113238059276A277B278091EC1E882351F04883C4
S113239059836A837B8381818C5F8183CF01DFD101
S11323A00EC081E0088119812A813B8140175107C1
S11323B06207730709F080E0682FCF010DDD1092EA
S11323C0F01E1092EF1E8091F11E81508093F11E39
S11323D082C0823309F07FC083E3808367E471E2C3
S11323E08CED9EE11AD477C0DC012C91205322306D
S11323F008F06DC09093F01E8093EF1EECEDFEE1AB
S11324001C964C911C9750E060E070E0408351832F
S1132410628373831F964D915C91509760E070E0E6
S1132420BA015527442751962C91519722952F7024
S1132430422B44835583668377831D964D915C912B
S11324401E9760E070E0BA015527442751962C91FD
S113245051972F70422B40875187628773871B9651
S11324602C911B9715964D915C91169760E070E046
S1132470BA0155274427422B4487558766877787B7
S11324802C91213331F411962C91119724501196EB
S11324902C93FC01EF57FF4F408151819C012E5F2B
S11324A03F4F241B350BFC013181230F2093EE1E7B
S11324B01092ED1E21E03081303309F020E02093AA
S11324C0EC1E22E3DC012C9306C080E090E0DCDB10
S11324D0009709F089CFDF91CF911F910F91089553
S11324E0EF92FF920F931F93CF937C0110E080E053
S11324F090E001E0C3E113C0FC012081213179F4B3
S1132500EC57FF4F208131812150310931832083E1
S1132510232B21F4FC01C083102F01C0102FB4DB46
S1132520009751F7112311F0C7013AD4CF911F91AD
S11325300F91FF90EF900895EF92FF920F931F93E6
S1132540CF93DF937C0110E080E090E001E0D7E1DD
S1132550C0E116C0FC012081263191F4EC57FF4FF5
S1132560208131812150310931832083232B39F497
S1132570FC01D083ED57FF4FC083102F01C0102FF3
S113258083DB009739F7112311F0C70109D4DF91D8
S1132590CF911F910F91FF90EF90089510920D1F0E
S11325A010920C1FEFEFFEE182E390E0A0E0B0E0B8
S11325B086839783A087B18712868CE992E19487FA
S11325C08387E2EFFEE18AE090E0A0E0B0E086835A
S11325D09783A087B187128680E792E194878387E7
S11325E00895CF93DF93FC01DC01AA57BF4F8C9170
S11325F081FF03C092E1908308C0938591FF03C0DB
S113260090E1908302C092E19083DF01AD57BF4F08
S11326101C9280FF05C08FEF9FEF9683858306C0D1
S11326208091232190912421968385832785308965
S113263030872783A1E2B1E28D919C911197928713
S1132640818715968C9115978F5F15968C9384834B
S11326502F3F3F4F81F4EF0181E498E89383828315
S11326600E944C51FE01EC57FF4F87709927019649
S11326709183808308C081E698E893838283EC5732
S1132680FF4F11821082DF91CF9108950F931F9312
S1132690CF93DF938C01B5DAEC01892BB9F182E198
S11326A08883F80181818983FE01ED57FF4F1082F1
S11326B00E944C51FE01EC57FF4F877099270196F9
S11326C091838083339611821082F801418150E016
S11326D0B8016E5F7F4FCE0102960E94675181E47C
S11326E098E89B838A838FEF9FEF98878F83F80105
S11326F0858196819E838D83E1E2F1E280819181DF
S11327009A87898785818F5F85838C83DF91CF91B9
S11327101F910F910895CF93DF93FC01C781D0855A
S113272081858330C1F480E090E010C0FC012081F9
S1132730263161F434852981321308C027E12083CE
S11327402A81EA57FF4F208381E006C09DDA009773
S113275069F780E001C080E0DF91CF91089522E124
S1132760FC0120830895E0910C1FF0910D1F81302E
S113277021F048F0823019F004C080E205C081E203
S113278003C081E001C080E0DF01AD57BF4F8C93EF
S113279085E1808310920D1F10920C1FE1E2F1E29B
S11327A086A997A9019797AB86AB08959F92AF929C
S11327B0BF92CF92DF92EF92FF920F931F93CF932A
S11327C0DF93C0E0D0E00F2EF4E1AF2EF02D01E254
S11327D011E20F2EF7E1DF2EF02D0F2EF6E19F2EE2
S11327E0F02D0F2EF5E1EF2EF12CF02D0F2EF3E14D
S11327F0CF2EF02D0F2EF1E1BF2EF02D64C0888175
S11328008331F1F028F4803149F0823159F05BC012
S1132810853169F1873109F449C055C061E0CE01C1
S113282023DD51C0FE01EC57FF4F80819181892B3C
S113283029F0B88282EF9EE1B3D245C0C88243C07A
S113284080910C1F90910D1F892B09F03CC0D093EF
S11328500D1FC0930C1FA8826981CE010296ADD0D2
S1132860F80186A997A9019697AB86AB2CC0FE0107
S1132870ED57FF4F8081811117C02D853E85F801EA
S1132880808191812817390769F48B8580FF0AC0FC
S11328909882FE01EC57FF4FF182E0828FEF9EE1B8
S11328A07FD211C0D8820FC0D8820DC0FE01E95773
S11328B0FF4F0190F081E02D309719F4CE01DAD961
S11328C002C0CE011995CE01DFD9EC01892B09F0A4
S11328D096CFDF91CF911F910F91FF90EF90DF90F2
S11328E0CF90BF90AF909F90089580910E1F982F26
S11328F09F70E4E5F1E08081807F892B8083809163
S11329000E1F882329F080910F1F8093530108958F
S113291080910F1F982F9F71E8E4F1E08081807E01
S1132920892B8083089593E090934201E1E4F1E0E0
S113293090819F719830E1F780934201E1E4F1E0E6
S113294090819F719813FCCF089588E0ECDF8FEF9E
S113295080934F018091101F882311F086E1E3CF0B
S113296008958093101FF1CF089580930F1FBDCF5A
S11329700895CF93DF931F921F92CDB7DEB79A834A
S11329808983809362018A81809363010F900F9001
S1132990DF91CF910895CF93DF931F921F92CDB70C
S11329A0DEB79A838983809360018A818093610171
S11329B00F900F90DF91CF9108950F931F93CF93B2
S11329C08C01C62F89E1AFDF8FEF80934F0182E046
S11329D08C0F80938001CC2381F0F801C1502C2FFF
S11329E030E02F5F3F4FC801820F931FA1E8B1E091
S11329F021912D93E817F907D9F783E08093911F6C
S1132A0082E080934201CF911F910F910895EF923C
S1132A10FF920F931F93CF93DF931092560186E09A
S1132A2082DFC0E0D0E0E12CF12C06E411E081E08B
S1132A300E94830CF801208122952695277023702B
S1132A4030E00C2E02C0220F331F0A94E2F7E22A70
S1132A50F32A2296C031D10551F788E064DF8BEE6A
S1132A608093560172DFC701DF91CF911F910F91BF
S1132A70FF90EF900895E9E3F1E080818160808325
S1132A801092101F10920E1F81E08093911F88E016
S1132A904ADF8BEE80935601ECE4F1E0808180689C
S1132AA08083B5DF80936D010895CF93DF93FB019D
S1132AB0AB01405F5F4FAFE3B1E021912C93E4178A
S1132AC0F507D9F710923C01DC019C01205F3F4FD0
S1132AD0FC01CEE3D1E081918883E217F307D9F7B3
S1132AE0ECE3F1E0808180688083EDE3F1E08081B4
S1132AF080FFFDCFEEE3F1E080818D93A217B30751
S1132B00D9F7DF91CF9108951F93CF93DF9300D02E
S1132B101F921F92CDB7DEB78091911F823009F4C6
S1132B2065C080914F0183FF3EC0A0917B016A2F55
S1132B3070E0AB014F5F5F4F80E090E020E0FC016C
S1132B40E058FE4F3081FC01EF5EF04E30832F5F82
S1132B50822F90E08417950794F381E19FE19A8393
S1132B608983A250AB83FB01EF5EF04E80818C839E
S1132B70809147018A558D83CE01019602D9E1E403
S1132B80F1E080818F718631E1F7EFE4F1E080813B
S1132B9088608083ECE4F1E080818F77808380819A
S1132BA08068808323C080914F0186FF1FC080917D
S1132BB041018F718931A9F4109142011295169542
S1132BC0177049F0133021F0153021F013E003C0E1
S1132BD011E001C012E0B9DE81E08093911F812FE2
S1132BE0C2DDEFE4F1E08081806480830F900F9078
S1132BF00F900F900F90DF91CF911F9108950E9435
S1132C006F0C72D038DF0E94CE0C109245010895EB
S1132C107BDF0E94FA0CCFC0089547DF34CB0895C0
S1132C200F931F93CF93DF93EC018091921F9091A8
S1132C30931F009709F445C04E815F8168857985AB
S1132C40FC010281138124813581401751076207F9
S1132C50730760F0DC0117C0028113812481358180
S1132C60401751076207730768F403C0FC01A0E032
S1132C70B0E0041B150B260B370B0283138324834C
S1132C8035830AC0DF01401B510B620B730BED91BE
S1132C90FC911197309701F74A835B836C837D83A2
S1132CA0109741F08D919C91119799838883CD93CE
S1132CB0DC9315C099838883D093931FC093921F8C
S1132CC00EC0198218828E819F81A885B9858A8356
S1132CD09B83AC83BD83D093931FC093921FDF91DA
S1132CE0CF911F910F9108951092931F1092921FEC
S1132CF00895CF93DF93A091921FB091931F1097E3
S1132D0091F1A817B90751F50AC08E179F0729F545
S1132D10109731F0208131812D933C9307C0FC0141
S1132D20208131813093931F2093921F0190F08171
S1132D30E02D3097C1F04281538164817581EC01AB
S1132D408A819B81AC81BD81840F951FA61FB71F0B
S1132D5082839383A483B58306C0DF01ED91FC9144
S1132D601197309791F6DF91CF910895E091921FDA
S1132D70F091931F309771F0E817F90721F40CC014
S1132D808E179F0759F00190F081E02D3097C1F71D
S1132D9080E0089580E0089581E0089581E0089539
S1132DA0CF93DF93EC01E2DF811102C0CE0138DF63
S1132DB0DF91CF910895CF92DF92EF92FF92CF935C
S1132DC0DF9380912021882309F459C08FB7F894A8
S1132DD0C0902021109220218FBFD12CE12CF12C06
S1132DE0CC0CDD1CEE1CFF1CD701C601880F991FFB
S1132DF0AA1FBB1F880F991FAA1FBB1FC80ED91E6D
S1132E00EA1EFB1EC091921FD091931F2097B9F127
S1132E108A819B81AC81BD81C816D906EA06FB066E
S1132E2010F1C81AD90AEA0AFB0A88819981909399
S1132E30931F8093921F8A85813011F4CE01F0DEB6
S1132E40EB85FC85CE011995C091921FD091931FFB
S1132E502097A9F08A819B81AC81BD81C816D906CF
S1132E60EA06FB06F0F68A819B81AC81BD818C1950
S1132E709D09AE09BF098A839B83AC83BD83DF911F
S1132E80CF91FF90EF90DF90CF90089580918020B4
S1132E908F5F80938020882319F0109280200895FA
S1132EA081E08093A52008958AEA90E279CF08957D
S1132EB080916220813081F48BEE90E21ADF84E00D
S1132EC080936C2010926720109266200E948C02DE
S1132ED08CEF90E265CF0895811110C08BEE90E2E3
S1132EE008DF81E080936C200E94E1010E94B0031E
S1132EF08CEF90E2FEDE83E490E2FBCE089584E959
S1132F009FE10C94083A089581E080933E2080E488
S1132F1092E00C94432A089580911120823008F0A5
S1132F206AC080912820823049F018F48130C9F1B8
S1132F3049C08530A1F0863019F144C060918120E8
S1132F4070918220809183200E94C00A60915F204A
S1132F5070916020809161200E94090B43C06091B0
S1132F605F2070916020809161200E94090B609124
S1132F70812070918220809183200E94C00A32C0F7
S1132F8060915F2070916020809161200E94090B04
S1132F906091812070918220809183200E94090B8E
S1132FA021C060915F2070916020809161200E9417
S1132FB0090B6091812070918220809183200E946E
S1132FC0C00A10C060915F207091602080916120E0
S1132FD00E94C00A60918120709182208091832098
S1132FE00E94C00A809111208F5F809311208AEA89
S1132FF090E2D6DE15C060915F20709160208091D0
S113300061200E94C00A6091812070918220809189
S113301083200E94C00A1092112084E890E2C0DE4E
S1133020A8950895EF92FF920F931F93CF93DF9388
S1133030E7EBF0E210820F2EF3E0FF2EF02DF18289
S11330408BE082836091B7207091B8208091B92081
S11330504CED5CE10E94340A6091B7207091B82075
S11330608091B9200E941E0AE0E5F0E21082C2E0DD
S1133070C1838AE0828360915020709151208091B5
S113308052200E941E0AE3E5F0E21082D1E0D183CF
S113309089E082836091532070915420809155205F
S11330A00E941E0AE9EFF0E21082118288E0828316
S11330B06091F9207091FA208091FB200E941E0AF1
S11330C0E6EAF0E2D0836894EE24E2F8E1826091CB
S11330D0A6207091A7208091A8200E944D0B60919A
S11330E0A6207091A7208091A8200E94EF0BEFE505
S11330F0F0E2C08305E0018360915F20709160205D
S1133100809161200E94AB0BE1E8F0E2C08317E0FC
S113311011836091812070918220809183200E948C
S1133120AB0BE3E9F0E2C083E182609193207091FC
S11331309420809195200E94AB0BE3E6F0E2C083DB
S1133140F1826091632070916420809165200E94D7
S1133150AB0B0093412060914020709141208091FD
S113316042200E94AB0B0F2EF6E0FF2EF02DF092C2
S113317015216091142170911521809116210E94CE
S1133180AB0B10931B2160911A2170911B2180912C
S11331901C210E94AB0BEEE0F1E2C083118260912E
S11331A00E2170910F21809110210E944D0B60918E
S11331B00E2170910F21809110210E94EF0BE9E004
S11331C0F1E2C083D1836091092170910A21809139
S11331D00B210E944D0B6091092170910A2180916D
S11331E00B210E94EF0BECE5F0E2C083C1836091F8
S11331F05C2070915D2080915E200E944D0B609157
S11332005C2070915D2080915E200E94EF0BEAEBC0
S1133210F0E2D08301836091BA207091BB20809149
S1133220BC200E944D0B6091BA207091BB2080910C
S1133230BC200E94EF0BE2E1F0E2D083F1826091C6
S1133240122070911320809114200E944D0B6091E4
S1133250122070911320809114200E94EF0BE9E654
S1133260F0E2D08311836091692070916A2080918B
S11332706B200E944D0B6091692070916A208091AF
S11332806B200E94EF0BDF91CF911F910F91FF9064
S1133290EF9008950F93CF93DF9380916C2090E08B
S11332A08730910508F053C3FC018827ED59FE4F80
S11332B08F4F0C94C45010926220C1E0C0933E2002
S11332C06091402070914120809142200E94C00A68
S11332D0E6E1F0E21386C38B85E0828BC18B84EF39
S11332E091E0A0E0B0E08093B0209093B120A0934F
S11332F0B220B093B32088EE93E0A0E0B0E08093D6
S11333008A2090938B20A0938C20B0938D20808171
S1133310813081F48091A92081110CC060919320A7
S113332070919420809195200E94330C811102C0E9
S113333010926C2080911E20813021F08091192000
S1133340813011F410926C2080911A20813019F48C
S113335085E080936C2080911F20813019F482E0F5
S113336080936C2080912020813009F0F0C283E0AA
S113337080936C2010929720EAC28091972081302C
S113338031F4809197208F5F8093972002C0109230
S113339097201092622081E080933E20E6E1F0E2E3
S11333A0828B8AEF90E0A0E0B0E08093B02090930D
S11333B0B120A093B220B093B32084EF91E0A0E0B9
S11333C0B0E080938A2090938B20A0938C20B093BC
S11333D08D208089813021F080912720811114C0B3
S11333E06091402070914120809142200E94C00A47
S11333F0109221208091E920811106C087E00E946B
S1133400892581E08093E9208091262081110FC0D5
S113341080912720813059F460914020709141209F
S1133420809142200E947C0A81E080932120809137
S11334300C21811106C084E00E94892581E08093DB
S11334400C2180912020813029F483E080936C202A
S113345010920C2180913520811116C08091162084
S113346081112AC080911E20811126C080911920CB
S1133470811122C085E00E94892510920C211092AE
S1133480E92081E080936C20809135208130A1F483
S113349080911E20813081F460919320709194205A
S11334A0809195200E94C00AE6E1F0E21086138222
S11334B08185813069F504C080911F20813011F429
S11334C010921F2080911920813011F580911A20CB
S11334D08130F1F480917D2090917E20019690932B
S11334E07E2080937D20893E9D4F08F430C282E087
S11334F090E10E944332082F03600093152020E1DD
S113350042E065E48EEA0E94CE240E940B361FC27C
S113351010927E2010927D201AC2C6E1D0E283E090
S11335208A8B6091402070914120809142200E94BA
S11335307C0A81E08B871092622080933E208091E8
S11335400C21811111C082E00E94892581E08093C1
S11335500C2184E60E94EF376091932070919420AF
S1133560809195200E947C0A80913520813049F514
S113357083E00E94892562E081E60E94443910922A
S11335800C2181E08093972010926C20C6E1D0E258
S11335901A866091932070919420809195200E94C6
S11335A0C00A1B866091F9207091FA208091FB205B
S11335B00E94330C91E0811101C090E09093162099
S11335C0C6C180912620813049F583E00E94892577
S11335D062E08EE60E94443910920C2181E08093CF
S11335E0972080936C20C6E1D0E21A8660919320E4
S11335F070919420809195200E94C00A1B8660914E
S1133600F9207091FA208091FB200E94330C91E004
S1133610811101C090E09093162099C180912020DF
S1133620813009F494C183E00E94892562E083E734
S11336300E94443910920C2181E08093972080935A
S11336406C20C6E1D0E21A86609193207091942098
S1133650809195200E94C00A1B866091F920709188
S1133660FA208091FB200E94330C91E0811101C06B
S113367090E0909316206BC1E6E1F0E284E0828B47
S11336801092622081E080933E2082E0838B8091BF
S11336900C21811108C00E94892581E080930C21AE
S11336A083E60E94EF37809116208130A9F480913F
S11336B0A920811111C081E00E94892562E081E680
S11336C00E94443910920C2181E0809397208093CA
S11336D06C2010921F203BC18091102090911720E4
S11336E0981788F081E00E94892562E08EE60E94A6
S11336F0443910920C2181E08093972080936C20B0
S113370010921F2024C180911F20813009F41FC111
S113371081E00E94892562E083E70E944439109287
S11337200C2181E08093972080936C2010921F20BD
S11337300EC180916220811108C08BEE90E230DBD3
S1133740809162208F5F8093622080917C208930F9
S113375080F06091502070915120809152200E94FD
S1133760330C91E0811190E090931A2010927C2008
S113377003C08F5F80937C2080911A20811108C040
S11337808BEE90E2B6DA81E080936C201092622096
S113379080911620813009F0DAC08091A92081112E
S11337A0D6C010926C2010926220D1C08DE790E0B8
S11337B0A0E0B0E08093B0209093B120A093B22019
S11337C0B093B3208AEF90E0A0E0B0E080938A2029
S11337D090938B20A0938C20B0938D2010923E2048
S11337E082E0809328208091F820813031F0C0F16C
S11337F0823051F0833089F030C08CEF90E279DA76
S113380082E08093F8202CC060E184E99FE10E946B
S11338102C3A83E08093F82023C080916620909115
S11338206720813523EC920790F08091122181FF6B
S11338300BC0809112218D7F8093122160911221FF
S113384082E090E10E94CD330E940B3609C00196BC
S1133850909367208093662003C088E00E946C37B1
S113386080917C208930F0F060915020709151203B
S1133870809152200E94330C91E0811190E090934A
S11338801A206091F9207091FA208091FB200E9407
S1133890330C91E0811101C090E0909316201092B6
S11338A07C2003C08F5F80937C2080911A2081301C
S11338B051F480916220813091F48BEE90E270DAC1
S11338C0109262200CC081110AC080916220811183
S11338D003C08BEE90E20DDA81E080936220809148
S11338E016208130A1F58091A920811130C0109259
S11338F0F82081E080936C200E94E1010E94B003D3
S113390083E490E2F6D98CEF90E2F3D920C0809161
S113391066209091672082309105A0F081E0809329
S11339206C2010926720109266200E94E1010E9490
S1133930B0036091402070914120809142200E9408
S1133940C00A05C001969093672080936620DF919A
S1133950CF910F9108958091A520882371F08091D3
S11339609720882319F01092972002C00E94D43621
S11339708EE690E215DA1092A52008958091202019
S1133980811119C080911E20813021F0809119206D
S1133990813049F460919320709194208091952016
S11339A00C947C0A089560919320709194208091E6
S11339B095200C94C00A089581E080931721DECFEE
S11339C00895CF93DF9380913F20882309F461C049
S11339D00E944E3BC6E1D0E289830E9425258E8356
S11339E080EF8F8710923F20EBE7F0E08081877FA4
S11339F0808381E680937C00EAE7F0E08081806444
S1133A008083808186FDFDCF8091790024E2829FAE
S1133A10C00111246FEF70E00E948F506093182052
S1133A2060910E2170910F21809110210E94330C1E
S1133A3091E0811101C090E09093352020911720EE
S1133A4030E080910D2190E00A972817390734F46B
S1133A50E6E1F0E281E0808B118A0DC080910D21B6
S1133A6090E00A96281739071CF01092262003C00C
S1133A7082E08093262080911C208D3318F080E012
S1133A800E946C3780911720853618F481E00E94DB
S1133A906C3780917F20813029F08091172181300B
S1133AA009F0B4C080917C20893008F4ACC06091E6
S1133AB0B7207091B8208091B9200E94330C91E016
S1133AC0811190E09093192059DF609150207091FA
S1133AD05120809152200E94330C91E0811190E09A
S1133AE090931A2060915320709154208091552016
S1133AF00E94330C91E0811101C090E090931B204F
S1133B006091F9207091FA208091FB200E94330C7F
S1133B1091E0811101C090E09093162060910E21F4
S1133B2070910F21809110210E94330C91E081113A
S1133B3001C090E0909335206091092170910A2191
S1133B4080910B210E94330C91E0811190E09093BD
S1133B50362060915C2070915D2080915E200E94EF
S1133B60330C91E0811190E0909337206091BA205A
S1133B707091BB208091BC200E94330C91E0811194
S1133B8090E09093382060911220709113208091DE
S1133B9014200E94330C91E0811190E0909339201D
S1133BA06091692070916A2080916B200E94330C8F
S1133BB091E0811190E090933A2080911E20813011
S1133BC021F080911920813039F4809116208111DF
S1133BD003C085E00E946C3710927F2010927C20F5
S1133BE080911620811106C080913520811102C078
S1133BF01092A92080911721813041F48093A5204F
S1133C001092172103C08F5F80937C20DF91CF91A6
S1133C100895D7DE3FDB9FCE08958F929F92AF9297
S1133C20BF92CF92DF92EF92FF920F931F93CF93A5
S1133C30DF93CDB7DEB729970FB6F894DEBF0FBE7A
S1133C40CDBF8C01F62ECDB6DEB60E9472048093F1
S1133C505E21882309F439C448E050E062E572E04B
S1133C60C8010E945A51892BA1F480916C208111C2
S1133C700AC080911E20813031F483E00E946C37A9
S1133C80EE24E39429C40E94FA3678DEEE24E39409
S1133C9023C448E050E06BE572E0C8010E945A5129
S1133CA0892BA1F480916C20813051F480911E20E5
S1133CB0811106C083E00E946C37EE24E3940CC4A7
S1133CC00E9404375BDEEE24E39406C448E050E02F
S1133CD064E672E0C8010E945A51892B09F050C071
S1133CE02FE02F1530F084E00E946C37EE24E3942B
S1133CF0F3C36EEF6F0DC8010E94303AE82E88239B
S1133D0009F4E5C3F801218530E02053310988EE38
S1133D1093E0289FA001299F500D389F500D112436
S1133D20228530E02053310964E6629FC001639F1D
S1133D30900D1124840F951F248530E02053310900
S1133D40AC01420F531F238530E020533109C901D0
S1133D50880F991F220F331F220F331F220F331F87
S1133D60280F391FCA01820F931F8D3FFFE09F0761
S1133D7020F084E00E946C37AFC30E940D37ACC3BF
S1133D8048E050E06DE672E0C8010E945A51892B68
S1133D9081F480916C20811106C083E00E946C370D
S1133DA0EE24E39499C381E080931F20EE24E394EE
S1133DB093C348E050E066E772E0C8010E945A519C
S1133DC0892B79F480916C20811106C083E00E94D4
S1133DD06C37EE24E39480C310921F20EE24E39406
S1133DE07BC348E050E06FE772E0C8010E945A517B
S1133DF0892B81F480916C20811106C083E00E949C
S1133E006C37EE24E39468C381E080932020EE2491
S1133E10E39462C348E050E068E872E0C8010E949D
S1133E205A51892B79F480916C20811106C083E06A
S1133E300E946C37EE24E3944FC310922020EE24AA
S1133E40E3944AC348E050E061E972E0C8010E948B
S1133E505A51892B09F092C023E12F1530F086E0E6
S1133E600E946C37EE24E39437C36EEF6F0DC801E4
S1133E700E94303AE82E882309F47AC0F801A1851B
S1133E80B0E0D09720E03AEC4AE95BE30E94E150CD
S1133E904B015C01A285B0E0D09720E031EE45EF04
S1133EA055E00E94E150860E971EA81EB91E828915
S1133EB090E0C097092E000CAA0BBB0B880E991E2C
S1133EC0AA1EBB1EA385B0E0D09720E836E948E9D6
S1133ED050E00E94E150860E971EA81EB91EA485CC
S1133EE0B0E0D09720E432E44FE050E00E94E1508B
S1133EF0860E971EA81EB91EA585B0E0D09720EAAD
S1133F0036E841E050E00E94E150860E971EA81E5C
S1133F10B91EA685B0E0D09720E137E20E94DB50BD
S1133F20860E971EA81EB91EA785B0E0D09728EE6E
S1133F3033E00E94DB50860E971EA81EB91EA0898E
S1133F40B0E0D09724E630E00E94DB50860E971E46
S1133F50A81EB91EA189B0E0D0972AE030E00E94E3
S1133F60DB50680D791D8A1D9B1D0E940238B4C266
S1133F7087E00E946C37EE24E394AEC248E050E040
S1133F806AE972E0C8010E945A51892B39F48EE61D
S1133F9090E20E947916EE24E3949EC248E050E039
S1133FA063EA72E0C8010E945A51892B29F40E94E5
S1133FB00A38EE24E39490C248E050E06CEA72E0E0
S1133FC0C8010E945A51892B29F40E940B36EE2411
S1133FD0E39482C248E050E065EB72E0C8010E94BD
S1133FE05A51892B29F40E941338EE24E39474C2A5
S1133FF048E050E06EEB72E0C8010E945A51892BF0
S113400091F5F3E1FF1530F084E00E946C37EE2463
S1134010E39462C26EEF6F0DC8010E94303AE82E3D
S11340208823D9F0CE01019628E0FC0111922A954B
S1134030E9F7F8012185298322852A8323852B83A7
S113404024852C8325852D8326852E8327852F8300
S1134050208928870E9437383FC284E00E946C3749
S1134060EE24E39439C248E050E067EC72E0C80102
S11340700E945A51892B09F5FDE0FF1530F08BE0C1
S11340800E946C37EE24E39427C26EEF6F0DC801D3
S11340900E94303AE82E882351F0F8018185898303
S11340A082858A83CE0101960E94963815C284E0E7
S11340B00E946C37EE24E3940FC248E050E060EDB8
S11340C072E0C8010E945A51892BA1F48BEE90E250
S11340D00E94791684E080936C20109267201092DD
S11340E066200E948C028CEF90E20E94D016EE248F
S11340F0E394F2C148E050E069ED72E0C8010E9427
S11341005A51892B49F480E20E94AC3880E20E9423
S1134110F838EE24E394E0C148E050E062EE72E047
S1134120C8010E945A51892B29F40E94B739EE2400
S1134130E394D2C148E050E06BEE72E0C8010E9403
S11341405A51892B29F40E94E339EE24E394C4C123
S113415048E050E064EF72E0C8010E945A51892B94
S113416009F045C0FBE1FF1530F088E00E946C3790
S1134170EE24E394B1C16EEF6F0DC8010E94303A92
S1134180E82E882371F1D8011996E4E9FFE1CF0103
S1134190805F2D919191291729F089E00E946C3755
S11341A0E12C9AC18E13F5CFCE01019629E0FC01D2
S11341B011922A95E9F7F801238D2983248D2A8306
S11341C0258D2B83268D2C83278D2D8320A12E8353
S11341D00E940C3681E08093F82088EE93E0F1D2BF
S11341E07BC18AE00E946C37EE24E39475C148E0F9
S11341F050E06DEF72E0C8010E945A51892BF9F426
S1134200F7E0FF1530F088E00E946C37EE24E39469
S113421063C1D8011996E4E9FFE1CF01805F2D91D4
S11342209191291729F089E00E946C37E12C54C13F
S11342308E13F5CF0E940B36EE24E3944DC148E073
S113424050E066E073E0C8010E945A51892B09F0DE
S113425056C02FE02F1530F084E00E946C37EE2416
S1134260E3943AC16EEF6F0DC8010E94303AE82E14
S1134270882309F42FC1F801818590E0C09728EEC6
S113428033E0829FA001839F500D929F500D112413
S1134290828590E0C09764E6689F9001699F300D25
S11342A01124240F351F848590E0C097820F931F3B
S11342B0438550E0405351097AE0749F9001759F03
S11342C0300D1124820F931F258520536685279F67
S11342D0600D112460539C010BC02115F0E23F07CF
S11342E028F084E00E946C37E12CF6C02F5F3F4F2A
S11342F0422F481B461788F30E943837EDC048E028
S113430050E06FE073E0C8010E945A51892B09F014
S113431068C02FE02F1530F084E00E946C37EE2443
S1134320E394DAC06EEF6F0DC8010E94303AE82EB4
S1134330882309F450C0ADB6BEB6F8014185628544
S113434070E0762F66278385680F711D4930E0F58C
S11343508F2D90E04197242F30E082179307A1F529
S11343608DB79EB7841B91090FB6F8949EBF0FBEFC
S11343708DBF0196DC01FC0101C011922E2F2A1B76
S11343802417D8F3045F1F4FF80102C021912D9325
S11343902E2F201B2417D0F39B010AC02115E0E225
S11343A03E0720F084E00E946C370EC02F5F3F4F21
S11343B0522F561B541790F30E946B380FB6F89483
S11343C0BEBE0FBEADBE88C00FB6F894BEBE0FBE53
S11343D0ADBEE12C81C084E00E946C37EE24E394EE
S11343E07BC048E050E068E173E0C8010E945A5184
S11343F0892BB9F40E94C80284E690E0E2D184E9F2
S11344009FE10E941A3A86E080936C2060914020DC
S113441070914120809142200E947C0AEE24E39412
S11344205BC048E050E061E273E0C8010E945A5169
S1134430892B09F044C086E080936C20FBE1FF15D2
S113444030F088E00E946C37EE24E39445C06EEFB0
S11344506F0DC8010E94303A882359F1D80119968A
S1134460E4E9FFE1CF01805F2D919191291729F0B3
S113447089E00E946C37E12C2FC08E13F5CFCE015A
S1134480019629E0FC0111922A95E9F7F801238DA0
S11344902983248D2A83258D2B83268D2C83278D98
S11344A02D8320A12E830E940C3688EE93E089D1BF
S11344B0FFCF8AE00E946C37EE24E3940DC08BE0BA
S11344C00E946C37EE24E39407C0E12C05C0EE246F
S11344D0E39402C0EE24E3948E2D0FB6F894DEBE6E
S11344E00FBECDBE29960FB6F894DEBF0FBECDBF6A
S11344F0DF91CF911F910F91FF90EF90DF90CF90BC
S1134500BF90AF909F908F9008950F93CF93DF93B8
S11345101F921F92CDB7DEB7198288E08A838FEB92
S113452064D100E124E93FE14FEB62E0CE01019662
S1134530DDD10F900F90DF91CF910F9108950F93DC
S11345401F93CF93C1E0C0937F20C093A920C09351
S11345503F20C093A520C093172110927C20109275
S113456011201092622010920C21C0936C201092A2
S11345701D2110921F2110921E2110928020109252
S11345806820C0933E201092E9201092F8201092E7
S1134590972010927E2010927D2087E880937A00E5
S11345A00E94F03A9CD264E072E088EC90E00E94B1
S11345B07707EAEAF0E284EF91E0A0E0B0E08683D6
S11345C09783A087B18712868CE897E194878387C5
S11345D0CF010E94D016E4E8F0E288EE93E0A0E078
S11345E0B0E086839783A087B187128684E597E13C
S11345F0948783870E944C51EEE6F0E200E911E0D3
S1134600B8010E948F508C599F4F092E000CAA0BA1
S1134610BB0B86839783A087B187128686E497E1D4
S1134620948783870E944C51E3E4F0E2B8010E942E
S11346308F508C599F4F092E000CAA0BBB0B8683FD
S11346409783A087B187128684E897E1948783874C
S1134650ECEFF0E288E893E1A0E0B0E08683978392
S1134660A087B187C2872FE737E134872387EBEE32
S1134670F0E286839783A087B187128688E597E165
S1134680948783870E94243B40DF6091A620709129
S1134690A7208091A8200E94330C811108C0E6E174
S11346A0F0E2178286E0838B0E94703403C081E0BD
S11346B080931D20CF911F910F9108958091122115
S11346C081FF0EC084E080936C20109267201092CA
S11346D066200E948C028CEF90E20C94D016089510
S11346E081E080936C2008950F93062F292F482F83
S11346F065E48EEA53D18AE090E063D00F91089587
S113470082E090E10E9443328093122184E090E1A0
S11347100E94433280930D2183E090E10E94433252
S1134720809310208091122180FF2EC061E08CEFD5
S11347309FE0DADF60E08DEF9FE0D6DF60E18EEF8F
S11347409FE0D2DF60E08FEF9FE0CEDF64E380E0A4
S113475090E1CADF62E181E090E1C6DF6FE883E0C7
S113476090E1C2DF66E684E090E1BEDF9CD18091F7
S113477012218E7F809312216091122182E090E1B8
S1134780B3DF8AE090E01DC008951F93CF93DF93B9
S1134790D82F192F41E0480F292F65E48FEA29D13A
S11347A0C82F212F4D2F65E48FEA23D12C2F30E021
S11347B0322F2227A901482BCA01DF91CF911F91E3
S11347C0089528EE33E0AC01429FC001439F900D51
S11347D0529F900D1124009739F020E030E02F5FB4
S11347E03F4F28173907D9F708950F931F93CF9395
S11347F0DF9300D000D0CDB7DEB7BE016F5F7F4F2F
S113480096E0FB0111929A95E9F708E418EE21E08D
S113481030E009831A832B833C838E8388E18D8364
S113482088EB90E00E94FC0426960FB6F894DEBF55
S11348300FBECDBFDF91CF911F910F910895EF92DD
S1134840FF920F931F93CF93DF93CDB7DEB72A97D1
S11348500FB6F894DEBF0FBECDBFF9019E012F5FE6
S11348603F4F79012AE0D7011D922A95E9F7498340
S1134870DC013C913A83462F50E05E834D83F887F8
S1134880EF8310E01A8709876130C9F0623029F498
S113489011968C918A833B8312C0633081F4FC01AE
S11348A021812B8382818C830AC081E090E089DF9F
S11348B0115031F481E00E946F3A81E00AC01AE09D
S11348C0BE016F5F7F4F88EB90E00E949B048111D3
S11348D0ECCF2A960FB6F894DEBF0FBECDBFDF91A2
S11348E0CF911F910F91FF90EF900895EF92FF9257
S11348F00F931F93CF93DF93CDB7DEB72A970FB6ED
S1134900F894DEBF0FBECDBFF9019E012F5F3F4F6C
S113491079012AE0D7011D922A95E9F74983DC0140
S11349203C913A83462F50E05E834D83F887EF83B2
S113493010E01A8709876130C9F0623029F41196B2
S11349408C918A833B8312C0633081F4FC01218102
S11349502B8382818C830AC081E090E032DF115086
S113496031F481E00E946F3A83E00BC01AE0BE018B
S11349706F5F7F4F88EB90E00E94C7048111ECCFFA
S113498082E02A960FB6F894DEBF0FBECDBFDF914A
S1134990CF911F910F91FF90EF900895FF920F9385
S11349A01F93CF93DF9300D0CDB7DEB7182F6534B4
S11349B019F0FF24F39403C06894FF24F1F84983A9
S11349C02A830B83812F11DF01E09E012D5F3F4F6E
S11349D0412F6F2DCE01019632DF85E090E0F1DEAC
S11349E00F900F900F90DF91CF911F910F91FF9037
S11349F00895FF920F931F93CF93DF9300D01F92DC
S1134A00CDB7DEB7182F653419F0FF24F39403C033
S1134A106894FF24F1F849832A831B821C82812F26
S1134A20E4DE01E09E012D5F3F4F412F6F2DCE014B
S1134A3001965CDF8B810F900F900F900F90DF91A8
S1134A40CF911F910F91FF9008950F93CF93DF9310
S1134A5000D01F92CDB7DEB719821A821B821C8246
S1134A6080E9C3DE00E020E030E040E961E0CE010F
S1134A700196E5DE811109C002E09E012D5F3F4FE2
S1134A8041E961E0CE01019631DF8B8190E0880F2E
S1134A90991F959587950F900F900F900F90DF9128
S1134AA0CF910F9108950F93CF93DF93C0E0D0E09F
S1134AB00FEF2D2F4C2F65E48EEA70DF8AE090E033
S1134AC080DEA8952196CC3F8FE0D80789F7109215
S1134AD01F2110921E21DF91CF910F910895CF9342
S1134AE0DF93C0E0D0E0CE010E9443328F3F29F42F
S1134AF0D0931F21C0931E2105C02B96CC3F8FE07D
S1134B00D80789F7DF91CF9108956FEF0C94CD33D7
S1134B1008952F923F924F925F926F927F928F925D
S1134B209F92AF92BF92CF92DF92EF92FF920F9338
S1134B301F93CF93DF93CDB7DEB76E970FB6F8947C
S1134B40DEBF0FBECDBF81113FC080911E21909169
S1134B501F218C3F9F4020F010921F2110921E2194
S1134B6040911E2120911F2103E465E48EEA16DFA3
S1134B7080911E2190911F21019690931F21809373
S1134B801E218AE090E01DDE80911E2190911F215C
S1134B908C3F9F4020F010921F2110921E214091C3
S1134BA01E2120911F2103E565E48EEAF7DE809142
S1134BB01E2190911F21019690931F2180931E2105
S1134BC08AE090E0FEDD0CC2813009F03FC08091A4
S1134BD01E2190911F218C3F9F4020F010921F2195
S1134BE010921E2140911E2120911F2103E465E4AF
S1134BF08EEAD4DE80911E2190911F21019690931C
S1134C001F2180931E218AE090E0DBDD80911E212C
S1134C1090911F218C3F9F4020F010921F211092F1
S1134C201E2140911E2120911F2105E465E48EEA96
S1134C30B5DE80911E2190911F21019690931F2132
S1134C4080931E218AE090E0BCDDCAC1823009F065
S1134C503FC080911E2190911F218C3F9F4020F0E6
S1134C6010921F2110921E2140911E2120911F217C
S1134C7004E465E48EEA92DE80911E2190911F2166
S1134C80019690931F2180931E218AE090E099DD84
S1134C9080911E2190911F218C3F9F4020F0109203
S1134CA01F2110921E2140911E2120911F2103E5F6
S1134CB065E48EEA73DE80911E2190911F21019696
S1134CC090931F2180931E218AE090E07ADD88C1B1
S1134CD0833009F03FC080911E2190911F218C3FA9
S1134CE09F4020F010921F2110921E2140911E21FE
S1134CF020911F2104E465E48EEA50DE80911E2198
S1134D0090911F21019690931F2180931E218AE088
S1134D1090E057DD80911E2190911F218C3F9F4090
S1134D2020F010921F2110921E2140911E212091EB
S1134D301F2105E465E48EEA31DE80911E21909105
S1134D401F21019690931F2180931E218AE090E0F9
S1134D5038DD46C1843009F03FC080911E21909116
S1134D601F218C3F9F4020F010921F2110921E2182
S1134D7040911E2120911F2105E465E48EEA0EDE98
S1134D8080911E2190911F21019690931F21809361
S1134D901E218AE090E015DD80911E2190911F2153
S1134DA08C3F9F4020F010921F2110921E214091B1
S1134DB01E2120911F2103E565E48EEAEFDD809139
S1134DC01E2190911F21019690931F2180931E21F3
S1134DD08AE090E0F6DC04C1853009F03FC08091A0
S1134DE01E2190911F218C3F9F4020F010921F2183
S1134DF010921E2140911E2120911F2105E465E49B
S1134E008EEACCDD80911E2190911F210196909312
S1134E101F2180931E218AE090E0D3DC80911E2123
S1134E2090911F218C3F9F4020F010921F211092DF
S1134E301E2140911E2120911F2105E465E48EEA84
S1134E40ADDD80911E2190911F21019690931F2129
S1134E5080931E218AE090E0B4DCC2C0863009F061
S1134E603FC080911E2190911F218C3F9F4020F0D4
S1134E7010921F2110921E2140911E2120911F216A
S1134E8002E465E48EEA8ADD80911E2190911F215F
S1134E90019690931F2180931E218AE090E091DC7B
S1134EA080911E2190911F218C3F9F4020F01092F1
S1134EB01F2110921E2140911E2120911F2103E4E5
S1134EC065E48EEA6BDD80911E2190911F2101968D
S1134ED090931F2180931E218AE090E072DC80C0B1
S1134EE0873009F03FC080911E2190911F218C3F93
S1134EF09F4020F010921F2110921E2140911E21EC
S1134F0020911F2102E465E48EEA48DD80911E2190
S1134F1090911F21019690931F2180931E218AE076
S1134F2090E04FDC80911E2190911F218C3F9F4087
S1134F3020F010921F2110921E2140911E212091D9
S1134F401F2104E465E48EEA29DD80911E219091FD
S1134F501F21019690931F2180931E218AE090E0E7
S1134F6030DC3EC080911E2190911F218C3F9F40D8
S1134F7020F010921F2110921E2140911E21209199
S1134F801F210EE465E48EEA09DD80911E219091D3
S1134F901F21019690931F2180931E218AE090E0A7
S1134FA010DC80911E2190911F218C3F9F4020F0A6
S1134FB010921F2110921E2140911E2120911F2129
S1134FC00EE465E48EEAEADC80911E2190911F21B3
S1134FD0019690931F2180931E218AE090E0F1DBDB
S1134FE08091212080931D210E941B3B6B017C0139
S1134FF04F2D5527662777274E2C8D2CA0913520D1
S1135000E0E8AE9FD001112480911A208170A82B72
S113501080911920817089831A8289819A81880FED
S1135020991F9A2F982B80911D2080FB222420F811
S1135030312C220C331C220C331C292AA6E1B0E2A9
S11350408C9181708B831C82EB81FC81EE0FFF1F9E
S1135050EE0FFF1FEE0FFF1F822D8E2B90911B2052
S113506091709D831E822D813E8122953295307FE1
S11350703227207F3227282E222A809126208170F1
S11350808F8318868F819885880F991F82959295B2
S1135090907F9827807F9827822990911E20917075
S11350A099871A8629843A8400243694279407948D
S11350B0369427940794322C202C282AA0913D2042
S11350C0E0E8AE9FD00111248091282087708A2BBC
S11350D09091212091709B871C86EB85FC85EE0FB7
S11350E0FF1FEE0FFF1FEE0FFF1F8E2B909124204A
S11350F091709D871E862D853E8522953295307F41
S11351003227207F3227282B80913B2081708F8784
S1135110188A8F859889880F991F82959295907F18
S11351209827807F9827822B90913C209170998BAF
S11351301A8A29893A890024369527950794369541
S113514027950794322F202D182F122B809137206A
S113515081708B8B1C8AEB89FC89EE0FFF1F809179
S1135160382081708D8B1E8A8D899E89880F991FA6
S1135170880F991F8E2BE0913620E1708E2B909131
S1135180392091709F8B188EEF89F88DEE0FFF1FD9
S1135190EE0FFF1FEE0FFF1F8E2B90913A209170A0
S11351A0998F1A8E298D3A8D22953295307F322728
S11351B0207F3227282B80911F2081708B8F1C8E9B
S11351C08B8D9C8D880F991F82959295907F98273F
S11351D0807F9827822B9091202091709D8F1E8E26
S11351E02D8D3E8D00243695279507943695279569
S11351F00794322F202D382E322A80911E2190912F
S11352001F218C3F9F4020F010921F2110921E21DD
S113521080911E2120911F21042F482F65E48EEADE
S1135220BDDB80911E2190911F21019690931F2137
S113523080931E218AE090E0C4DA80911E2190912F
S11352401F218C3F9F4020F010921F2110921E219D
S113525040911E2120911F21042D65E48EEA9EDBDE
S113526080911E2190911F21019690931F2180937C
S11352701E218AE090E0A5DA80911E2190911F21E1
S11352808C3F9F4020F010921F2110921E214091CC
S11352901E2120911F21082D65E48EEA7FDB809179
S11352A01E2190911F21019690931F2180931E210E
S11352B08AE090E086DA80911E2190911F218C3F34
S11352C09F4020F010921F2110921E2140911E2118
S11352D020911F210C2D65E48EEA60DB80911E2154
S11352E090911F21019690931F2180931E218AE0A3
S11352F090E067DA80911E2190911F218C3F9F409E
S113530020F010921F2110921E2140911E21209105
S11353101F210091172065E48EEA40DB80911E2155
S113532090911F21019690931F2180931E218AE062
S113533090E047DA80911E2190911F218C3F9F407D
S113534020F010921F2110921E2140911E212091C5
S11353501F2100911C2065E48EEA20DB80911E2130
S113536090911F21019690931F2180931E218AE022
S113537090E027DA80911E2190911F218C3F9F405D
S113538020F010921F2110921E2140911E21209185
S11353901F21022D65E48EEA01DB80911E2190918C
S11353A01F21019690931F2180931E218AE090E093
S11353B008DA80911E2190911F218C3F9F4020F09C
S11353C010921F2110921E2140911E2120911F2115
S11353D0012F65E48EEAE2DA80911E2190911F216B
S11353E0019690931F2180931E218AE090E0E9D9D1
S11353F080911E2190911F218C3F9F4020F010929C
S11354001F2110921E2140911E2120911F21032D46
S113541065E48EEAC3DA80911E2190911F210196E2
S113542090931F2180931E218AE090E0CAD9809135
S11354301E2190911F218C3F9F4020F010921F212C
S113544010921E2180911E2190911F215EDB8AE023
S113545090E0B7D96E960FB6F894DEBF0FBECDBFFD
S1135460DF91CF911F910F91FF90EF90DF90CF903C
S1135470BF90AF909F908F907F906F905F904F9070
S11354803F902F9008950F931F93CF93FC01608159
S1135490662369F08C01C0E088EC90E00E94E1068C
S11354A0CF5FF801EC0FF11D60816111F5CFCF9151
S11354B01F910F9108959091EA20992319F091304A
S11354C0B9F00895E8E9F0E225EA30E290E2919338
S11354D0E217F307E1F78B3521F481E08093EA20AA
S11354E008958D3519F510927B201092EA200895C5
S11354F08D3541F410927B201092EA2081E0809354
S11355005720089590917B209D3048F4E92FF0E0D6
S1135510E856FF4D80839F5F90937B2008951092FF
S11355207B201092EA208AE293E0ADCF0895CF93D6
S1135530C82F682F62956F706A3010F0695C01C0E3
S1135540605D88EC90E00E94E106CF70CA3018F0EC
S113555067E36C0F02C060E36C0F88EC90E00E947C
S1135560E106CF91089510925720E09198208E2F54
S113557090E0FC01F197E930F105B0F48827E65991
S1135580FE4F8F4F0C94C45082E0089583E0089539
S113559084E0089585E0089586E0089587E00895FD
S11355A088E0089589E008958AE493E06CDF80E060
S11355B0089581E0089510925720809198208133B6
S11355C0A1F018F4803351F00BC0823319F0833307
S11355D019F006C082E0089583E0089584E00895F8
S11355E08AE493E050DF85E0089581E008950F9305
S11355F01F93CF93FC016081662369F08C01C0E0A6
S113560088EC90E00E94E106CF5FF801EC0FF11DF9
S113561060816111F5CFCF911F910F910895CF93C0
S1135620C62FE5DF8CE593E02EDF8C2F80DFCF9152
S113563008959F92AF92BF92CF92DF92EF92FF9222
S11356400F931F93CF93DF93F62E6A0121E02093EB
S1135650BD2010925720182FB92EC8E9D0E2AA24F1
S1135660A394A80E5BC0309157203130E1F781E359
S1135670F81621F082E3F816F1F04DC088810E94FB
S11356805C3AE82E89810E945C3AEE0CEE0CEE0C3A
S1135690EE0CE82A0E2D2B2D412F65E48EEA7ED9DF
S11356A06E2DC601BCDF8AE090E08BD81092BD203D
S11356B01092572033C088810E945C3AE82E898179
S11356C00E945C3AEE0CEE0CEE0CEE0CE82A0E2D69
S11356D02B2D4A2D65E48EEA61D98A810E945C3AB9
S11356E0982E8B810E945C3A082F6E2DC60197DF9D
S11356F0E92CEE0CEE0CEE0CEE0CE02A0E2D2B2D0C
S1135700412F65E48FEA4AD98E2D11DF1092BD2016
S11357101092572003C089E693E0B5DE3091BD2096
S1135720313009F4A0CFDF91CF911F910F91FF90F9
S1135730EF90DF90CF90BF90AF909F9008958091AD
S11357405820823051F128F4882359F08130C9F06F
S113575041C0843009F439C060F1853009F43FC098
S113576039C086E993E08FDE84EC93E08CDE87E336
S113577096E089DE81E08093912085E08093582033
S1135780089582E194E07FDE43E958E062E38CEF20
S11357909FE04FDF1092582008958FE294E073DE6B
S11357A044E858E062E38EEF9FE043DF1092582014
S11357B008958CE494E067DE46E758E062E380E015
S11357C090E137DF1092582008951092912088E6D6
S11357D094E059DE89E080936D201092582008955A
S11357E01092572080919820823361F028F48033FE
S11357F089F08133B1F010C0843341F028F085334F
S113580039F00AC082E0089583E0089584E00895A1
S113581085E0089587E008958AE493E034DE86E025
S1135820089581E00895DF92EF92FF920F931F9302
S1135830CF93DF938091592090E08A30910508F04E
S1135840EFC5FC018827ED58FE4F8F4F0C94C450D0
S113585060915F2070916020809161200E94C00A55
S11358606091812070918220809183200E94C00ADF
S11358706091932070919420809195200E94C00A99
S11358806091632070916420809165200E94C00A19
S11358906091402070914120809142200E94C00A72
S11358A06091142170911521809116210E94C00AE3
S11358B060911A2170911B2180911C210E94C00AC1
S11358C08CE794E0E0DD8BEA97E0DDDD60910E216A
S11358D070910F21809110210E94330C882351F084
S11358E060910E2170910F21809110210E94330C40
S11358F08111F6CF6091092170910A2180910B21C9
S11359000E94330CE82E60915C2070915D208091A0
S11359105E200E94330CD82E6091BA207091BB2077
S11359208091BC200E94330CF82E6091122070915B
S11359301320809114200E94330C082F6091692059
S113594070916A2080916B200E94330C182F609113
S1135950502070915120809152200E94330CD82FF6
S11359606091F9207091FA208091FB200E94330C01
S1135970C82F6091B7207091B8208091B9200E94FF
S1135980330C21E0D11020E091E0E11090E0292BCC
S113599091E0F11090E0922B21E0011120E0292BFD
S11359A091E0111190E0922B21E0D11120E0292BFC
S11359B091E0C11190E0922B29F491E0811190E0E3
S11359C0992349F089E894E05EDD85E994E05BDDA4
S11359D01092592025C560915F20709160208091BC
S11359E061200E947C0A82EB94E04DDD81E080938B
S11359F0592016C58CE794E046DD8EEB94E043DD38
S1135A006091092170910A2180910B210E94330C2D
S1135A10882351F06091092170910A2180910B2112
S1135A200E94330C8111F6CF60910E2170910F21E9
S1135A30809110210E94330CE82E60915C207091BB
S1135A405D2080915E200E94330CD82E6091BA2094
S1135A507091BB208091BC200E94330CF82E609181
S1135A60122070911320809114200E94330C082F6F
S1135A706091692070916A2080916B200E94330CA0
S1135A80182F6091502070915120809152200E94D3
S1135A90330CD82F6091F9207091FA208091FB206B
S1135AA00E94330CC82F6091B7207091B820809168
S1135AB0B9200E94330C21E0D11020E091E0E110E4
S1135AC090E0292B91E0F11090E0922B21E001115C
S1135AD020E0292B91E0111190E0922B21E0D111CB
S1135AE020E0292B91E0C11190E0922B29F491E060
S1135AF0811190E0992349F089E894E0C4DC85E9B8
S1135B0094E0C1DC109259208BC460918120709183
S1135B108220809183200E947C0A82EB94E0B3DC93
S1135B2082E0809359207CC48CE794E0ACDC8EE363
S1135B3092E0A9DC60915C2070915D2080915E20F0
S1135B400E94330C882351F060915C2070915D2099
S1135B5080915E200E94330C8111F6CF60910E215A
S1135B6070910F21809110210E94330CE82E6091D6
S1135B70092170910A2180910B210E94330CD82EA7
S1135B806091BA207091BB208091BC200E94330C9C
S1135B90F82E6091122070911320809114200E949D
S1135BA0330C082F6091692070916A2080916B20DA
S1135BB00E94330C182F60915020709151208091D5
S1135BC052200E94330CD82F6091F9207091FA2052
S1135BD08091FB200E94330CC82F6091B7207091F4
S1135BE0B8208091B9200E94330C21E0D11020E02C
S1135BF091E0E11090E0292B91E0F11090E0922BDC
S1135C0021E0011120E0292B91E0111190E0922B69
S1135C1021E0D11120E0292B91E0C11190E0922BD9
S1135C2029F491E0811190E0992349F089E894E006
S1135C302ADC85E994E027DC10925920F1C36091B5
S1135C40932070919420809195200E947C0A82EB8D
S1135C5094E019DC83E080935920E2C38CE794E05C
S1135C6012DC80EC94E00FDC6091BA207091BB20D0
S1135C708091BC200E94330C882351F06091BA209B
S1135C807091BB208091BC200E94330C8111F6CF0F
S1135C9060910E2170910F21809110210E94330C8C
S1135CA0E82E6091092170910A2180910B210E94B4
S1135CB0330CD82E60915C2070915D2080915E2021
S1135CC00E94330CF82E6091122070911320809161
S1135CD014200E94330C082F6091692070916A206F
S1135CE080916B200E94330C182F6091502070918A
